:03000000029CD986
:03000B0002BC1024
:0300130002C26EB8
:03001B0002B460CC
:0300230002CE49C1
:0300330002CFEE0B
:03004B0002BE12E0
:03005B0002BFF5EC
:03006B0002C18E41
:03007B0002B76A5F
:0300830002B6CCF6
:03008B0002C77534
:10010000E709F608DFFA8046E709F208DFFA803EE1
:1001100088828C83E709F0A3DFFA8032E309F608CE
:10012000DFFA8078E309F208DFFA807088828C8336
:10013000E309F0A3DFFA806489828A83E0A3F608EA
:10014000DFFA805889828A83E0A3F208DFFA804CC4
:1001500080D280FA80C680D4806980F2803380109B
:1001600080A680EA809A80A880DA80E280CA803304
:1001700089828A83ECFAE493A3C8C582C8CCC5837C
:10018000CCF0A3C8C582C8CCC583CCDFE9DEE7804C
:100190000D89828A83E493A3F608DFF9ECFAA9F0CB
:1001A000EDFB2289828A83ECFAE0A3C8C582C8CC21
:1001B000C583CCF0A3C8C582C8CCC583CCDFEADE3A
:1001C000E880DB89828A83E493A3F208DFF980CC9C
:1001D00088F0EF60010E4E60C388F0ED2402B40495
:1001E0000050B9F582EB2402B4040050AF2323453C
:1001F000822390015073BB010689828A83E02250DA
:1002000002E722BBFE02E32289828A83E49322BBB7
:10021000010CE58229F582E5833AF583E022500658
:10022000E92582F8E622BBFE06E92582F8E222E50E
:100230008229F582E5833AF583E49322BB0106899E
:10024000828A83F0225002F722BBFE01F322F8BB20
:10025000010DE58229F582E5833AF583E8F0225025
:1002600006E92582C8F622BBFE05E92582C8F222EE
:10027000EF8DF0A4A8F0CF8CF0A428CE8DF0A42EA2
:10028000FE22BC000BBE0029EF8DF084FFADF022F2
:10029000E4CCF875F008EF2FFFEE33FEEC33FCEE04
:1002A0009DEC984005FCEE9DFE0FD5F0E9E4CEFDF7
:1002B00022EDF8F5F0EE8420D21CFEADF075F008CA
:1002C000EF2FFFED33FD4007985006D5F0F222C323
:1002D00098FD0FD5F0EA22C2D5EC30E709B2D5E49B
:1002E000C39DFDE49CFCEE30E715B2D5E4C39FFF4F
:1002F000E49EFE120282C3E49DFDE49CFC80031296
:10030000028230D507C3E49FFFE49EFE22C5F0F8C9
:10031000A3E028F0C5F0F8E582158270021583E0AD
:1003200038F022A3F8E0C5F025F0F0E582158270E0
:10033000021583E0C838F0E822BB010A89828A836B
:10034000E0F5F0A3E022500687F009E71922BBFE92
:1003500007E3F5F009E3192289828A83E493F5F033
:1003600074019322BB0110E58229F582E5833AF5F9
:1003700083E0F5F0A3E0225009E92582F886F00831
:10038000E622BBFE0AE92582F8E2F5F008E222E562
:10039000832AF583E993F5F0A3E99322BB0107894A
:1003A000828A8302030D500B09C5F027F7C5F019A7
:1003B00037F722BBFE0D09F8E325F0F3C5F019E38A
:1003C00038F322F889828A8374019325F0C5F0F806
:1003D000E4933822BB010A89828A83F0E5F0A3F016
:1003E000225006F709A7F01922BBFE06F3E5F00933
:1003F000F31922F8BB0111E58229F582E5833AF56C
:1004000083E8F0E5F0A3F0225009E92582C8F60858
:10041000A6F022BBFE09E92582C8F2E5F008F22227
:10042000E88FF0A4CC8BF0A42CFCE98EF0A42CFC7B
:100430008AF0EDA42CFCEA8EF0A4CDA8F08BF0A4F9
:100440002DCC3825F0FDE98FF0A42CCD35F0FCEB58
:100450008EF0A4FEA9F0EB8FF0A4CFC5F02ECD391D
:10046000FEE43CFCEAA42DCE35F0FDE43CFC227514
:10047000F008758200EF2FFFEE33FECD33CDCC3385
:10048000CCC58233C5829BED9AEC99E58298400CED
:10049000F582EE9BFEED9AFDEC99FC0FD5F0D6E4CB
:1004A000CEFBE4CDFAE4CCF9A88222B800C1B900B1
:1004B00059BA002DEC8BF084CFCECDFCE5F0CBF912
:1004C0007818EF2FFFEE33FEED33FDEC33FCEB330A
:1004D000FB10D703994004EB99FB0FD8E5E4F9FA38
:1004E000227818EF2FFFEE33FEED33FDEC33FCC91D
:1004F00033C910D7059BE99A4007EC9BFCE99AF9B0
:100500000FD8E0E4C9FAE4CCFB2275F010EF2FFF1E
:10051000EE33FEED33FDCC33CCC833C810D7079B88
:10052000EC9AE899400AED9BFDEC9AFCE899F80FEB
:10053000D5F0DAE4CDFBE4CCFAE4C8F922CFF4CF6D
:10054000CEF4CECDF4CDCCF4CC22EB9FF5F0EA9EE8
:1005500042F0E99D42F0EC6480C864809845F02246
:10056000EB9FF5F0EA9E42F0E99D42F0E89C45F0F1
:1005700022E8600FECC313FCED13FDEE13FEEF1346
:10058000FFD8F122E86010ECA2E713FCED13FDEEBA
:1005900013FEEF13FFD8F022E8600FEFC333FFEE36
:1005A00033FEED33FDEC33FCD8F122BB0107898229
:1005B0008A830207935005E9F8020787BBFE05E925
:1005C000F802079F89828A830207ABBB010DE5828F
:1005D00029F582E5833AF5830207935007E92582DE
:1005E000F8020787BBFE07E92582F802079FE5822C
:1005F00029F582E5833AF5830207ABBB01078982BF
:100600008A8302066E5005E9F80207BBBBFE05E9C6
:10061000F80207C722BB010DE58229F582E5833A7E
:10062000F58302066E5007E92582F80207BBBBFE80
:1006300007E92582F80207C7227401FF3395E0FE1F
:10064000FDFCA3A3A3E0CF2FF0E582158270021575
:1006500083E0CE3EF0E582158270021583E0CD3D49
:10066000F0E582158270021583E0CC3CF022ECF0BC
:10067000A3EDF0A3EEF0A3EFF022A8828583F0D0E3
:1006800083D082120691120691120691120691E40D
:1006900073E493A3C583C5F0C583C8C582C8F0A31E
:1006A000C583C5F0C583C8C582C822BB010DE582DC
:1006B00029F582E5833AF58302067A5007E9258217
:1006C000F80207D3BBFE07E92582F80207EC22A453
:1006D0002582F582E5F03583F58322BB0120E58292
:1006E00029F582E5833AF583D0F0D0E0F8D0E0F93F
:1006F000D0E0FAD0E0FBE8C0E0C0F002080E5018ED
:10070000E92582F8D083D082D0E0F9D0E0FAD0E0B9
:10071000FBC082C083020805BBFE18E92582F8D021
:1007200083D082D0E0F9D0E0FAD0E0FBC082C08371
:1007300002081722D083D082F8E4937012740193D8
:10074000700DA3A393F8740193F5828883E4737406
:1007500002936860EFA3A3A380DFEC8EF0A4CCC566
:10076000F0CCCDF8EFA4CEC5F02DFDE43CFCE8A420
:100770002EC8C5F03DFDE43CFCEFA4FFE5F028FEEB
:10078000E43DFDE43CFC22E6FC08E6FD08E6FE084C
:10079000E6FF22E0FCA3E0FDA3E0FEA3E0FF22E2EF
:1007A000FC08E2FD08E2FE08E2FF22E493FC74018B
:1007B00093FD740293FE740393FF22ECF608EDF6AA
:1007C00008EEF608EFF622ECF208EDF208EEF20879
:1007D000EFF222D083D082E493F608740193F608F6
:1007E000740293F608740393F6740473D083D08272
:1007F000E493F208740193F208740293F20874030C
:1008000093F2740473EBF608EAF608E9F622EBF0CB
:10081000A3EAF0A3E9F022EBF208EAF208E9F222F7
:10082000900523E06003020E2F1235A9901187EF87
:10083000F0F4600312C7B990055FE0120734089026
:100840000009790109BA020A14050A48060A830B4D
:100850000B060C0B140D0B1F0E0B490F0B57100B37
:1008600061120B7B130B88140BB2150BD5160BE81A
:10087000170C121A0D611B0C3E1C0C761E0E1C264A
:100880000C89270DC02B0CEA2C0DAA2D00000E2F71
:10089000901187E0FF640D6011EF641B700C9005F0
:1008A0005F741AF09005117403F0900530E0FF6456
:1008B00007600302094D1230E35033EF6407600311
:1008C000020E2F9011A404F07410122F7E12321A0F
:1008D0001231EE500E74932E122FB3900C2BE004B5
:1008E000F080ED9005307408F07F0102C4D712301B
:1008F0002F70217F0112C4D790019D123039BEFFA5
:1009000006BFFF03E4F022E4900528F0A3F0900571
:100910002D04F022901187E0640B6003020E2F90EB
:10092000019D122F5170137F0112C4D790055F747F
:100930001EF0E49004551232392212C7FC900526AD
:10094000E4F0A37496F090055F741FF02290118775
:10095000E0FFF47003020E2FEF640C7003020E2F01
:1009600012323A900530E064096003020E2F7F01D5
:1009700012C4D712325D020C811230A67003020B32
:10098000431230AD7003020C0C1231FB7003020BEA
:10099000AC901187E064047003020C7012302F6079
:1009A00003020E2F120ED9122FA07F6012CEA37F4A
:1009B000647E0012D037E4020DBB901187E0FF6423
:1009C00001600AEF64026005EF64037004E4120E34
:1009D000D91230A6700E120E30E490055DF090052D
:1009E0005F020A751230AD700E120E30E490055D94
:1009F000F090055F020B9F1231FB700D120E3D123D
:100A0000323290055F740EF02212302F6003020E16
:100A10002F020B001230A6700F120E3D90055F746E
:100A200012F0E490016FF0221230AD7010120E4AF5
:100A300090055F7414F0900515740AF02212302F9F
:100A40006003020E2F020B001230A67009120E4A2C
:100A500012319804F0221230AD7009120E57123183
:100A600098020DA61231FB7010120E5790055F749C
:100A700017F0900665740FF02212302F6003020EFB
:100A80002F807D1230A6700A120E6490055F741CD0
:100A9000800D1230AD700C120E6490055F742CF056
:100AA000E4802B1231FB7010120E7190055F7427D9
:100AB000F0E49005F1F08016901187E0640470185E
:100AC000120E7190055F741BF0E490063FF09011D8
:100AD00090F090118F020C30901187E0640570182F
:100AE000120E7E90055F741AF0E4900511F09011DB
:100AF00090F090118F020DA612302F6003020E2F7E
:100B0000120E7E02CEB190055DE064016003020E1C
:100B10002F020BE01231C26003020E2F020BE09095
:100B20000662E064086003020E2F12318E700B9093
:100B30000663F09006627409F022EF640A4E6003C7
:100B4000020E2F120E8B02CFD290055DE064016081
:100B500003020E2F020BE01231C26003020E2F803F
:100B60007F90016FE064017008901187E0FF12AA86
:100B7000B112302F6003020E2F80319001E1E0644A
:100B8000016003020E2F8058900515E0640B60038E
:100B9000020E2F12318E700B900516F09005157411
:100BA0000CF022EF640A4E6003020E2F120E8B022D
:100BB000CFE0900560E0640170028024900560E061
:100BC00064037003020C81900560E064046003021A
:100BD0000E2F020C81900577E064016003020E2F56
:100BE000901187E0FF02AAB1900665E064106003EF
:100BF000020E2F12318E700B900666F0900665740F
:100C000011F022EF640A4E6003020E2F120E9802BA
:100C1000CFD9900511E064016003020E2F90118777
:100C2000E0640B700F120E98E4900512F09005111D
:100C30007403F02212302F6003020E2F8032123024
:100C4000A6700D7AE379AD120EA5E49001EB801148
:100C50001230AD70137AE379B0120EA59001EB74E7
:100C6000FFF012BF42020D5E12302F6003020E2F02
:100C7000120EB2020D5E900455E064016003020E94
:100C80002F901187E0FF020E199005F1E0640160DA
:100C900003020E2F1230A670139000F8F09005F1A9
:100CA0007402F07BFF7AE379D7020D7B1230AD70CE
:100CB000289000F804F09005F104F012BAC7EF3361
:100CC00095E04F70087F7A12CEA3020E287BFF7A40
:100CD000E379DA12BC51020E2812302F6003020EA3
:100CE0002F120EB29005F1020DA61230A6701A90C6
:100CF00000F9123039BEFF08BFFF05E4F012C97CCD
:100D00007AE379C5120EBF80551230AD7045900060
:100D1000F9122F51703474FFF0E4900519F0A3F02C
:100D200090051DF0A3F012C564EF2412FEE4339089
:100D3000051BF0A3CEF090051FE4F0A37408F0901B
:100D400005237402F0E4900522F07AE379C8120ECC
:100D5000BF800B12302F6003020E2F120ECC02CE7A
:100D6000BF90063FE064016003020E2F1230A670B0
:100D7000109006401232787AE379EC12BC51020EE0
:100D8000281230AD701290064074FF1232787AE368
:100D900079EF12BC51020E2812302F6003020E2F81
:100DA000120ECC90063F7402F022901187E0FF648F
:100DB0000B6005EF640A7077122FA090055FF02298
:100DC000900530E0FF640770381230E3502FEF6475
:100DD00007705C9011A404F09011A37410122F817D
:100DE00012321A1231EE500E74932E122FB3900C51
:100DF0002BE004F080ED9005307408F02212302FC3
:100E000022901187E0FFF46026900530E0640970BD
:100E10001E900532F0A374F0F002A2A5901187E0B5
:100E2000F4600C7F3012CEA37F647E0012D0372294
:100E30007F0112C4D77F647E0012D037227F011257
:100E4000C4D77F647E0012D037227F0112C4D77FBF
:100E5000647E0012D037227F0112C4D77F647E00E7
:100E600012D037227F0112C4D77F647E0012D037A0
:100E7000227F0112C4D77F647E0012D037227F0107
:100E800012C4D77F647E0012D037227F0112C4D7EC
:100E90007F647E0012D037227F0112C4D77F647E28
:100EA0000012D037227BFF12BC517F647E0012D02B
:100EB00037227F0112C4D77F647E0012D037227B95
:100EC000FF12BC517F647E0012D037227F0112C412
:100ED000D77F647E0012D037229001F3F07F011299
:100EE000A4D2224412370000000042123B0000C18D
:100EF00014C115C10FC10CC10DC10EC110C111C16A
:100F000012C11341125002411251004110DD00C1C3
:100F100003C102C100C101C10401540041101E00FF
:100F200042105B000041122D00C11841125400C153
:100F300019C11AC109C106C10AC107C10BC10841C3
:100F40001236004411E0000000005811C800404073
:100F500000800000042000100000080100040000D0
:100F60001000800020640008240000000000000041
:100F70000000000000000000000000000000000071
:100F80000000000000000000000000000000000061
:100F90000000000000000000000000000000000051
:100FA0000000000000000000000000000000000041
:101360000000000000000000005611E4736C5F678D
:10137000656E657269635F76312E302E302E3030A7
:10138000370042120D00004111FA004212470000DE
:101390004C12101F1C1F1E1F1E1F1F1E1F1E1F4131
:1013A0001187FFC11B411226004A121C1122330073
:1013B00000000000000061310ED2000000008080BB
:1013C000800000000000000000000000000000801D
:1013D000C0E0F0F8F8F8FCFCFCFCFCF8F8F8F0E0F1
:1013E000C0800000000000000000000000000000BD
:1013F0008080800000000080F07C0F03C1F03C0E74
:1014000082E0781800000000C0F0FCFFFFFFFFFF43
:10141000FFFFFFFFFFFFFFFFFFFFFFFFFFFFFFFFDC
:10142000FCF8C0000000001878E0820E3CF0C1011A
:101430000F7EF080031FFCE000071F78E0830F3C65
:10144000300000C0FCFFFFFFFFFFFFFFFFFFFFFFBB
:10145000FFFFFFFFFFFFFFFFFFFFFFFFFFFFFFFF9C
:10146000FCE00000303C0F83E0781F0780E07C1F29
:1014700003000000010303020000000000F0FCFF75
:101480009F0F07030303010101013078FCFCFCFC02
:10149000FCFCFC783001010101030303070F9FFFEF
:1014A000FCF0000000000002030301000000000047
:1014B00000000000000000000000000307070F0EFE
:1014C0001C1C3C38383870707070707070707070A0
:1014D000707070383838381C1C1E0F070703000066
:1014E0000000000000000000000000C11C4210E1EC
:1014F00000004410E3000000005A110C0010001816
:101500000020002800300040006000800100020040
:101510000400080010005B10F1000000080000103B
:101520000000180000380000580000780000980003
:1015300000B800004111260041112B004110DF00CE
:101540004111280041112A004110E7004110ED002F
:101550004111410041114200411140004411A700D6
:10156000009E984411AB0000B48E4411AFEC57E8D4
:101570000A5511B3FFAB9EFFBDD4FF4D2AFF9681E4
:10158000FF7119FF6820FF6FDE00900C46EFF0E45A
:10159000900C4EF0900C46E0FF25E02424F8E6FC89
:1015A00008E6FD75F002EFA4241FF582E5F0341083
:1015B000F583E0FEA3E0C39DFFEE9C900C47F0A3F3
:1015C000EFF0E47F01FEFDFC900C46E0F9F8120517
:1015D000988F0F8E0E8D0D8C0CAF0112CF9A900C40
:1015E0004CEEF0A3EFF0C3900C48E09FEE6480F85F
:1015F000900C47E06480984008900C497401F0809A
:1016000005E4900C49F0900C49E064016003021875
:1016100006900C46E0FF2437F582E43410F583E0B1
:10162000C394FA74809480500D74372FF582E4349B
:1016300010F583E004F0E50B550FFFE50A550EFEAB
:10164000E509550DFDE508550CFCE4FBFAF9F8C376
:1016500012056060030217CC901003E0900C4BF071
:1016600012D025EF6047E4900C49F0A3F0900C4AAB
:10167000E0FFC39510502274372FF582E43410F543
:1016800083E0C39401748094804006900C49E00488
:10169000F0900C4AE004F080D4900C49E0C394032D
:1016A000748094804007900C4BE0240FF0900C461F
:1016B000E02437F582E43410F583E0FF900C4BE032
:1016C000FEEFC39E50030217CCE4900C49F012CFFA
:1016D0007AEF6003021759900C4AF0900C4AE0FF31
:1016E000C39510502C900C46E06F601D12CF1F90D8
:1016F0000C4AE02437F582E43410F583E0C39F40C0
:1017000008900C497401F08008900C4AE004F080C5
:10171000CA12D025EF3395E04F60030217AA900C50
:1017200049E060030217AAA3F0900C4AE0FFC395BA
:10173000105077900C46E06F601712CF1F900C4A44
:10174000E02443F582E43410F583E0C39F40028037
:1017500053900C4AE004F080D012D025EF3395E08E
:101760004F7047900C4BF0900C4AF0900C4AE0FF01
:10177000C39510502274372FF582E43410F583E0BE
:10178000C39402748094804006900C4BE004F09067
:101790000C4AE004F080D4900C4BE0C394037480B6
:1017A00094804006900C497401F0900C49E064016B
:1017B0007002D216E50B450FF50BE50A450EF50A4A
:1017C000E509450DF509E508450CF508900C46E0DE
:1017D000FF2475F582E43410F583E4F074D12FF51D
:1017E00082E43410F583E4F075F002EFA4245DF593
:1017F00082E5F03410F583E4F0A3F074062FF5824F
:10180000E43410021B95900C46E0FF12CCAC900C17
:1018100047E0FCA3E0FDD39FEE6480F8EC64809881
:101820004012900C46E02443F582E43410F583E046
:1018300004F0801590122FE004F0900C46E0244351
:10184000F582E43410F583E4F09010B8E0FF3395AE
:10185000E0FEC3E49FFBE49EFAC3ED9BEA6480F8DC
:10186000EC648098500302195ED3900C48E09FEE20
:101870006480F8900C47E0648098400302195E9001
:101880000C46E0FF2475F582E43410F583E4F0742F
:10189000062FF582E43410F583E4F0FFFEFDFCAB87
:1018A0000BAA0AA909A808C31205606003021A9AC4
:1018B000900C47E0FEA3E0FF900C46E075F002A418
:1018C000245DF582E5F03410F583EE8FF012030D00
:1018D00012CEFE900C46E075F002A4245DF582E580
:1018E000F03410F583E0FCA3E0C39FEE6480F8ECD5
:1018F0006480984013900C46E0FF25E02424F8080B
:1019000006E618704306804012CEFEC3E49FFFE453
:101910009EFE900C46E075F002A4245DF582E5F091
:101920003410F583E0FCA3E0C39FEE6480F8EC6420
:1019300080984003021A9A900C46E0FF25E0242488
:10194000F808E6161870011675F002EFA4245DF58C
:1019500082E5F03410F583E4F0A3F0021A9A9010B7
:10196000B8E0FF3395E0FEC3E49FFFE49EFEC39022
:101970000C48E09FEE6480F8900C47E0648098404B
:1019800003021A10900C46E0FF2475F582E434102F
:10199000F583E004F074062FF582E43410F583E457
:1019A000F074752FF582E43410F583E0FF75F00ACA
:1019B00084E5F07046C3EF946474809480900C4684
:1019C000E040142475F582E43410F583E4F0D21776
:1019D0009010DD04F0802425E02424F8C000E6FE09
:1019E00008E6FF9010B8E0A2E713FD3395E0FCC3D2
:1019F000EF9DFFEE9CD000F608A607900C46E0FF96
:101A0000901228E06F6003021A9A74FFF0021A9A8B
:101A10009010B8E0FF3395E0FED3900C48E09FEEC5
:101A20006480F8900C47E0648098406E900C46E02B
:101A30002475F582E43410F583E4F0FFFEFDFCAB81
:101A40000BAA0AA909A808C3120560704D900C469C
:101A5000E0FF2406F582E43410F583E004F0740618
:101A60002FF582E43410F583E06420702D900C464D
:101A7000E0FF2406F582E43410F583E4F09010B81A
:101A8000E0A2E713A2E713FD3395E0FCEF25E02485
:101A900024F808ED26F618EC36F6E50B550FFFE5B1
:101AA0000A550EFEE509550DFDE508550C4D4E4F46
:101AB0007003021BAB900C4CE0FCA3E0FDAE04787D
:101AC00002CEA2E713CE13D8F8FFC3ED9FFFEC9E22
:101AD000FEC3900C48E09FEE6480F8900C47E064F1
:101AE00080984003021B9A900C46E024D1F582E4D2
:101AF0003410F583E004F012CF82900C4BEFF0E449
:101B0000900C4AF0900C4AE0FFC3951050227437B5
:101B10002FF582E43410F583E0C39401748094803F
:101B20004006900C49E004F0900C4AE004F080D4A8
:101B3000900C49E0C3940374809480400890100393
:101B4000E0900C4BF0900C46E0FB24D1F582E4349D
:101B500010F583E0FF900C4BE0FEEFC39E500302B4
:101B60001C1A74D12BF582E43410F583E4F0AF0F26
:101B7000AE0EAD0DAC0C12053DE50B5FF50BE50AA5
:101B80005EF50AE5095DF509E5085CF50874372B93
:101B9000F582E43410F583E4F022900C46E024D181
:101BA000F582E43410F583E014F022900C46E02432
:101BB00037F582E43410F583E4F0FFFEFDFCAB0B57
:101BC000AA0AA909A808C31205607008900C46E08B
:101BD000FF129B9CE51014FF900C46E06F703B9049
:101BE000122FE0C395104032E4900C4AF0900C4A5A
:101BF000E0FFC39510501B74372FF582E43410F5C5
:101C000083E06006900C497401F0900C4AE004F007
:101C100080DB900C49E07002C21622900042E41270
:101C200003F3900CB5E0FBA3E0FAA3E0900CC0F93D
:101C3000E0FEA3E0F5828E8312020FFF900CB2E06B
:101C4000FBA3E0FAA3E0F9229000FC75F01DED1271
:101C500006CFEC75F01DA42583F58322E4F0A3F0F4
:101C6000A3F0A3F0A3F0A3F0A3F0A3F0A3F0A3F0DC
:101C700022900CA2E0FEA3E0FF7C007D1D1202700A
:101C8000900CB974062FF974013EFA7B01E4F0A3BD
:101C900022900CA2E0FEA3E0FF7C007D1D120270EA
:101CA000900CB974092FF974013EFA7B01E4F0A39A
:101CB000227D1D120270900CB974FB2FF974003E46
:101CC000FA7B01E4F0A3227D1D120270900CB9741E
:101CD000FF2FF974003EFA7B01E4F0A3227D1D1270
:101CE0000270900CB974032FF974013EFA7B01E481
:101CF000F0A322900CA2E0FEA3E0FF7C007D1D1269
:101D0000027074352FF97401900CB93EFA7B01E42E
:101D1000F0A322900ECAE47B017A017918F0A32285
:101D2000900CA2E0FEA3E0FF7C007D1D0202707B10
:101D3000017A017943E4F0A3227B017A017960E41E
:101D4000F0A3227B017A01793DE4F0A3227B017AA2
:101D500001795AE4F0A322E47B017A017945F0A3EA
:101D600022E0F9A3E0FAA3E0900CAEC9F0A3EAF0F8
:101D7000A3E9F02290000112020FFF900028E48FE7
:101D8000F01203F390000212020FFF90002AE48F7A
:101D9000F01203F390000312020FFF90002CE48F67
:101DA000F01203F390000412020F90002EFFE48F54
:101DB000F00203F3E47B017A017962F0A322EFF0F1
:101DC000AF037C007D64AE021202827F0A7E00CFE8
:101DD000CDCFCECCCE020282E47B017A0079FBF03B
:101DE000A322900010E475F0011203F3900CACE410
:101DF000F0A304F0900CA4E0FCA3E0FD7F017E00C2
:101E000022E47B017A0079FFF0A322E47A017906CB
:101E10007B01F0A37403F022E0FBA3E0FAA3E04A05
:101E20004B22E47B017A01791CF0A322E47B017A46
:101E3000017923F0A322E47B017A017909F0A3223E
:101E4000900CB8E0FEA3E0900CBCFFE0FCA3E0FD2A
:101E500022E47B017A017926F0A322E47B017A0156
:101E60007903F0A32275F00AA42DFFE5F03CFE12E1
:101E7000020F7C002FFFEC3E9000158FF01203F351
:101E8000900044120364640145F022E47B017A016E
:101E90007920F0A322900CA2E0FEA3E0FF64014EA3
:101EA00022EEF0A3EFF0E4A3F0A3F0EF4E22120233
:101EB0000FFF7E007C037DE8120270AC06AD0722A6
:101EC0007C002FFFEC3EFEF0A3EFF022CFF0A3EF5B
:101ED000F07B017A0C795522FF12020FFD12CF4ED2
:101EE000AE07900C9E22EEF0A3EFF0900CA4E0FE63
:101EF000A3E0FF229400CF2401FBE43FFAE0FEA31D
:101F0000E0FF7C00227B01900ECAE4F0A322FFE0F8
:101F1000FD12CE85900C9E2212020FFFAD0612CE4E
:101F200085900C9E2275F00AA42DFFE5F03CFE750D
:101F3000F01DEB1206CFEA2290000E020364900C13
:101F4000BCE0FEA3E0FFC32212020F75F064A42DD3
:101F5000FDEC35F0FC22900CB9E024FFFE900CB8AB
:101F6000E0900CBC34FFF0A3CEF022900CC4E0FE55
:101F7000A3E0FFED6F22900005EF12024E900006E5
:101F800002020F7B01900CB9F0A37404F0229000C0
:101F900002EF12024E90000302020F900008EF12AF
:101FA000024E90000902020F900C43E0F9A3E0FA00
:101FB000A3E022E0FEA3E0FFF5828E8302020FE0A1
:101FC000FCA3E0F5828C83EF02024EFFE0FD12CF0E
:101FD0004E900CCE22FFE0FCA3E0FDC39FEC227CE0
:101FE000002FFFEC3EFEF0A3EFF02290001712034B
:101FF00064FFC3900CADE09F900CACE095F0228D97
:10200000828C8312020FFF22E4F0A3F0A3F022EFF0
:10201000F090000702020F7D0A120282AF05AE04A3
:10202000AD03AC02020282F090000802020FF090B1
:10203000000502020FFB75F01D1206CFEA22900088
:1020400010E475F0011203F3900CADE004F022905F
:10205000001202020F900013020364A3ECF0A3ED40
:10206000F0227C277D100202827403F07F37FE226B
:102070007404F07FA67E03227404F07F327E032274
:102080007404F07F427E03227402F07F3F7E0322BD
:102090007402F07F4F7E0322FC7D1D0202709000CF
:1020A00015020364900C46E0FFA3E0900CA2CFF071
:1020B000A3EFF0227D017BFF7E000201D0900003A0
:1020C000EF12024E90000412020FFF22900CBDE0AE
:1020D00024FFF0900CBCE034FFF022900001EF12DE
:1020E000024E90000202020FF090000A02020F90CE
:1020F0000017120364FF900CB0E065F022FFE0FDD2
:1021000012CF4E900C9E22E4F0A3F0A3F0227403B1
:10211000F07F4BFE227403F07F47FE22900CA2FF5B
:10212000E0FCA3E0FD2275F064A42BFFE5F03AFE8D
:10213000A3E022900010E4F5F022E0FBA3E0FAA374
:10214000E0227C007D0A020282740CF07F737E0321
:1021500022740CF07F857E03227404F07FA07E033E
:1021600022EFF090000C02020F900CB2E0FCA3E012
:1021700022A3F0A37401F0A322FF900CB1E5F0F0CC
:10218000A3EFF02274FF2DF58274FF3CF58322F556
:102190008274FF3EF58302020F900CC0E0FCA3E0C6
:1021A000FDEF6D2224FFF58274FF35F0F583227B6D
:1021B00001900CB9F0A37403F022A3F0A3F0900CEB
:1021C000B9227B01900CB9E4F0A304F022F0900056
:1021D0000B02020FEF12024E7F0122F58374FFF013
:1021E0000F22FFAEF0C39410EE942722900E6412DB
:1021F00033B3E4900E721232DFA312067A000000AD
:1022000000900E7B12067A00000000E4900E7FF032
:10221000A3F012356D60141232CCEA494B6009A369
:102220001232CFEA494B70037F0122900E651232C1
:10223000CFEA494B700BA3E07002A3E060037F017B
:1022400022E4FD7F0212CECD7D017F0312CA4F7DB5
:10225000017F0312C9D97DFF7F0912CECDE4FD7F36
:102260000912CECD7D077F0A12CECDE4FD7F0A1282
:10227000CECD901126E0700A7D2612276D12C9D9A5
:102280008020901126E0640170047D12800E901170
:1022900026E0640270047D0880027D0412276D121E
:1022A000CA4F900E6AE0FD7C00C39408748094804D
:1022B000500E900E71E0FEC3940874809480400329
:1022C0007F0122ED4C7003EE601A122740900E6AD7
:1022D00012357412CA4F900E71E05407FD7F22121E
:1022E000CA4F8003122740900E64E0FF6407602805
:1022F000EF64086023EF6409601EEF640A6019EF61
:10230000640F6014EF6411600FEF6410600AEF64F3
:10231000036005EF640270097D017F1D12CA4F80C2
:1023200027900E64E0FF64016007EF6004640470AE
:10233000107D017F1D12C9D97D027F1D12C9D98070
:102340000E7D017F1D12C9D97D027F1D12CA4F90DB
:102350000E64E0FF6405601CEF64066017EF64071D
:1023600070028010900E64E0FF64046007EF600468
:10237000640170107D017F1A12C9D97D017F21127D
:10238000C9D9800E7D017F1A12CA4F7D017F2112AB
:10239000CA4F900E64E0FF64076005EF64087006A2
:1023A0007D787C058036900E64E0FF64056005EF63
:1023B000640670067D607C098022900E64E06409EA
:1023C00070087DBC7CE57F048014900E64E0FF649F
:1023D0000B6005EF640C700A7DF87C52E4FFFE028E
:1023E0002480900E64E0FF640F600FEF6411600AB8
:1023F000EF640D6005EF640E700D90113FE0FF1269
:10240000357E1233358079900E64E0FF60136404EA
:10241000600FEF6401600AEF64036005EF6402700F
:102420000A74FFFDFC7F037E008055900E64E0641B
:10243000107050123427901127E0FF3395E0FEFD15
:10244000FC120420C004C005C006C0077F0E123471
:102450002CD007D006D005D004C312056050077FEA
:102460000E12357E8017123427901127E0FF339526
:10247000E0EF7F00C454F0FE3395E0FDFC123335ED
:1024800012BC92900E64E0FF64016007EF60046488
:1024900004707B12355B6030123462123588E0784C
:1024A00003CEC313CE13D8F92401FFE43EFE12334A
:1024B000A6503F12353B503A900E651232CF12278C
:1024C0000A70D812347E80D3123462123588E078D4
:1024D00003CEC313CE13D8F91233A5501512353BD2
:1024E0005010900E651232CF12270A70DE12347E21
:1024F00080D912355B600612357412CECD900E680D
:10250000E0FFA3E0900E72CFF0A3EFF0802F900ECB
:1025100064E0640F700A901129E0FD7F0612CECDB1
:1025200012346212339E501512353B5010900E65D6
:102530001232CF12271E70EB12347E80E612274F24
:1025400012356D70047D0280027D037F0212CECDB4
:102550001235881235099E507612273230E5F190F7
:102560000E72E0FEA3E0FFC3900E69E09FFF900EA5
:1025700068E09EFED3EF941EEE94004038E4900E87
:1025800074F0900E74E0C3941E74809480503B905D
:102590000E651232CF900E72E475F001120323859E
:1025A000F082F58312020FFD7F0612CECD900E74DD
:1025B000E004F080CD12339E5010900E651232CFA1
:1025C00012271E70F012347E80EB12274F8081128A
:1025D000354312273220E316D39010E2E0940F9097
:1025E00010E1E0940040EBE4F0A3F07F0A22122710
:1025F0005E12356D7002FF2212354312273920E238
:102600000F12273920E60912277730E0EE7F0422E7
:10261000900E6E1232CFE4F5F01203D41227772019
:10262000E2527F0712CB61EF30E6F1123462900E76
:102630006E1232CF12351640037F0722C3EC94018D
:102640007F06500B12CB611232BD12358F80031200
:10265000CB61900E6E1232CF1234E4700312347ECE
:10266000C3900E73E09420900E72E0940040BF126D
:10267000275E80A87F0412CB61900E76EFF07F2654
:1026800012CB619010DFEFF0123462900E761235AB
:102690000994005034900E6E1232CF12351640035A
:1026A0007F0722C3EC94017F06500B12CB611232DC
:1026B000BD12358F800312CB61900E6E1232CF1295
:1026C00034E4700312347E80C2900E64E0FF601325
:1026D0006404600FEF6401600AEF64036005EF6457
:1026E000027007E4900E7FF0800A7F0D12CB61909C
:1026F0000E7FEFF0900E7FE020E70920E20620E158
:102700000330E0037F05227F00228D828C8312023A
:102710000FFD7F0612CECD900E73E004F0228D8265
:102720008C8312020FFD7F0612CECD900E73E00453
:10273000F0227F0712CB61EF227F0712CB61EF22DD
:102740007D387F1912C9D97D077F2212C9D9227D10
:10275000207F0912CA4F7D207F0912C9D9227D40EE
:102760007F0912CA4F7D407F0912C9D9227F1B12EF
:10277000CECD7D207F63227F0712CB61EF22900DAB
:10278000471233B6A3ECF0A3EDF0E4900D52F0A3A2
:10279000F078547C0D7D017AD0795F1233767854CD
:1027A0007C0E7AD1795F7F0212330378567C0E7AE1
:1027B000D179617F011233EA900E571232D812326A
:1027C000DE900D471232CFEA494B6014900D4C1247
:1027D00032CFEA494B6009A31232CFEA494B70036A
:1027E0007F01229010F0E025E0240CF582E4341102
:1027F000F583E0FEA3E0FF900E57EEF0A3EFF0D3D9
:102800009400EE94014009900E577401F0A3E4F097
:10281000900D4F1232CFE4F5F01203D4900E5CE02D
:10282000F9FFC3900D4BE09FFF900D4AE09400FE2E
:10283000900E57E0FCA3E0FD24FDFBEC34FFFAD33F
:10284000EF9BEE9A400DED24FDA3F0901129741238
:10285000F08011900D4AA3E0C399900E59F09011A9
:10286000297402F0901129E0123526EF4E901129BB
:10287000F0E4900E61F01233F3900E62F0900D4789
:102880001232CF900E5CE0FF7E00E92FF9EE3AFAAB
:10289000C003900E59E0FF900E68EEF0A3EF1232E5
:1028A0009DD0037F0F022ABB900E63E0FD7C006485
:1028B0000A70037F0A22ED64044C7066900E5FE09C
:1028C00004F0900E62E0602A900E5E1232FA40032D
:1028D0007F0422900E5F1232FA40037F0422900E92
:1028E000601232FA40037F052212328C1234CA027F
:1028F0002ABB900E5E1232FA40037F0422900E5FD4
:102900001232FA40037F0422900E601232FA400322
:102910007F05229010E0E044B21232921234CA02D3
:102920002ABB900E63E064057066900E60E004F0D0
:10293000900E62E0602A900E5E1232FA40037F042D
:1029400022900E5F1232FA40037F0422900E601232
:1029500032FA40037F052212328C1234CA022ABB9B
:10296000900E5E1232FA40037F0422900E5F123204
:10297000FA40037F0422900E601232FA40037F0572
:10298000229010E0E044B21232921234CA022ABB02
:10299000900D54E0FEC41313540324FE7003022A66
:1029A000C9147003022B2E24036003022BAD900E7A
:1029B0005AE0FCA3E0FD2402FBE43CFAD3EB9400D4
:1029C000EA940140037F0622EE20E508900D54E0D2
:1029D000FE20E1037F0622EE20E308900D54E0FE86
:1029E00030E2037F06221235236F60037F062290B8
:1029F0001129E05410C37001D340037F0622EE6416
:102A0000019010E0F0ED24FFFFEC34FFFE900D4F3D
:102A10001232CFEE8FF012039C900D52E4F0A3041B
:102A2000F0900E5AE0FEA3E0FF900D521233A95031
:102A30004774542DF582740D3CF583E0FF900D4CE6
:102A40001232CF900E5DE0FD7C00E92DF9EC3AFAF0
:102A5000900D53E024FFFD900D52E034FFFCE92D72
:102A6000F9EA3CFAEF12023C900D53E004F070B129
:102A7000900D52E004F080A9900E5AA3E014FF904C
:102A80000E5DE02FF0900D54E030E43A1233F390F5
:102A90000E6204F0900E5E1232FA40037F04229020
:102AA0000E5F1232FA40037F0422900E601232FA57
:102AB00040037F052212328C1234CA1221EC900E90
:102AC00063EFF00228A87F0022900D54E030E50368
:102AD00020E1037F0622900D54E020E30330E2035F
:102AE0007F0622900D54E0FE30E4037F0622900E14
:102AF00062E060037F06221235236F6011900E6141
:102B0000E004F01232FB50030228767F0622901177
:102B100029E0541070037F0622EE64019010E0F06B
:102B2000900E59E0FF900E5CE02FF002281C900DF3
:102B300054E0FE30E0037F0622EE20E208900D54C0
:102B4000E0FE30E3037F0622EE30E10A900D54E010
:102B50005430643060037F0622900D55E0543FFFEF
:102B6000901127F03395E0FEC3EF9401EE6480945A
:102B700080400BD3EF943BEE6480948040037F064B
:102B800022900E5474F2F0901127E0900E551234FA
:102B900038740212329D7A0E79547F101221EC9013
:102BA0000E63EFF0900E5EE004F00228A87F06228C
:102BB000900CB2EB121D6CE4900CBA121C69900CD4
:102BC000B8E0FCA3E0FD900CBEECF0A3EDF0121C0D
:102BD0003C12205525E0FBE5F033FAED24FAFFEC3A
:102BE00034FFFE7C007D0512028290DBF175F0C897
:102BF000ED1206CFEC75F0C8A42583F583E5822B92
:102C0000F582E5833AF583E493FE740193FBAA060B
:102C10007C007D64FF120282900CC0EEF0A3121DB6
:102C2000BEA3EEF0A3EFF0AE02AF031221421220DA
:102C30005BE4121C68900CB8E0FCA3E0FD24F5FEF8
:102C4000EC34FF900CCAF0A3CEF0900CB2121E1818
:102C50007002FF22121C3C122055FFAEF0D39400EC
:102C6000EE94004008EF9464EE940040037F00224D
:102C7000900CBE121F419406EE94004009D3EF94CD
:102C80000CEE940040037F0022C002C001900CB5FE
:102C9000121FAB900CD1121D6B12205BD001D00221
:102CA000128AA2900CCA121F41EE9400405BD3EF2F
:102CB0009402EE94005052900CC1E09F900CC0E042
:102CC0009E500CA3E0240AF0900CC0E03400F0D336
:102CD000900CC3E09F900CC2E09E500CA3E0240A2D
:102CE000F0900CC2E03400F0900CCAE0FEA3E0FFCC
:102CF000D3900CC5E09F900CC4E09E500CA3E02440
:102D00000AF0900CC4E03400F0900CBCE4F0A30492
:102D1000F0121E40D39FEC9E5035900CC0121F6ED7
:102D20007002EC6E6019A3121F6E7002EC6E600FE1
:102D3000A3121F6E7002EC6E600512205B80109073
:102D40000CBDE004F070CA900CBCE004F080C2E45A
:102D5000900CBCF0A3F0121E40C39FEC9E50269036
:102D60000CB5121C3F121FFF900CBBE02FF0900C13
:102D7000BAE03400F0900CBDE004F070D9900CBCC7
:102D8000E004F080D1121C3C12204F640660030264
:102D90002E71900CCCF0A3F0121F56121F3EEE9431
:102DA0000040361221997002EE6C6028A3121E4377
:102DB0006F7002EC6E601D121F6B7002EC6E60147F
:102DC000A3121F6E7002EC6E600A900CCCECF0A3A4
:102DD000EDF080051220CC80C2121C3C121D741232
:102DE000202F900030121DAD75F005121C1B9000B5
:102DF000281203646F7002E5F06003022F31900C1B
:102E0000B512213A900CC2121C2F90002A120364B2
:102E10006F7002E5F06003022F31900CB5121C3F79
:102E2000900CC4121C3090002C1203646F7002E5E9
:102E3000F06003022F31900CB5121C3F900CC612AB
:102E40001C3090002E1203646F7002E5F0600302E4
:102E50002F31900CB5121C3F900CCC121C309000FE
:102E6000301203646F7002E5F06003022F31022F0D
:102E700014121C3C12204F64076003022F1C121F07
:102E800056121F3EEE940040271221997002EE6CFC
:102E90006019A3121E436F7002EC6E600E121F6B5E
:102EA0007002EC6E600512205B80051220CC80D190
:102EB000121C3C121D7475F004121C1B9000281289
:102EC00003646F7002E5F07068900CB5121C3F90BF
:102ED0000CC2121C3090002A1203646F7002E5F0DD
:102EE000704F900CB5121C3F900CC4121C30900017
:102EF0002C1203646F7002E5F07036900CB5121C52
:102F00003F900CC6121C3090002E120364B50721AE
:102F1000E4B5F01D90004475F0018012121C3C9045
:102F20000042E4F5F01203F3900044E4F5F01203DC
:102F3000F3121C3C121E807F0070027F012290055C
:102F40005CE0FF14F0EFC39401748094802290063B
:102F50003BE0FF3395E0FEEF4E22E490055FF090FA
:102F600005307407F0E49001F4F09005F47407F074
:102F7000227404900560F0E49011A4F0740C901198
:102F8000A3F09011A57401F022740E900575F090D5
:102F9000057474802290118FE0FFA3E0FEC39F228E
:102FA0009005307407F09005F4F0E49001F4F022FD
:102FB00074932FF582E43411F58374FFF022FF241B
:102FC000FCF58274FF3EF583ECF0A3EDF074FE2F68
:102FD000F58274FF3EF5837401F074FF2FF582745F
:102FE000FF3EF5832290082274FFF5F012030DFCDA
:102FF000C3E5F09401EC9400229000F7E0FF7E001E
:10300000D394007480948022E4F090055F7423F0E0
:103010009000F5E4F0A37480F02290055D740CF04C
:10302000900468E090055EF090055C7480F022905A
:103030001187E0640A229000EFE0FF3395E0FE2262
:10304000900573E024FFFF900572E034FFFE2290AC
:103050000C2BE0FFC3940C7480948022901190E0BC
:1030600004F0229005627402F0A37480F090056B66
:10307000E0640122F09000C8E4F0A3F0A3F02290F5
:10308000081DF0900822E4F0A37440F022E49000C0
:10309000CCF0A37429F0A374A4229000CBC3E094D5
:1030A000057480948022901187E06401229011873A
:1030B000E0640222FF24FCF58274FF3EF58374FF76
:1030C000F0A3F074FE2FF58274FF3EF583E42290A6
:1030D000056274FFF5F0120323FEC3E5F09401EEE0
:1030E000940022901187E0FDC3940A74809480229A
:1030F00004F0E490118EF02290118EE0FF7E0064C7
:103100000222F0A37401F07BFF7AE379FA229005A2
:10311000607413F0A322900511F09005137440F031
:10312000E422E0C3940474809480227E0090055AC7
:10313000EEF0A3EFF024FFFFEE34FFFE22900575C2
:10314000740EF0A3740CF0E422F0A37403F0A374E3
:1031500080F07D347F482290118AE0FCA3E0FD904E
:103160000572ECF0A3EDF022E004F090055AE0FCCB
:10317000A3E0FDAE04780222900574E014F02290E2
:103180000C2BE004F02290081DE0FF7E002290113D
:1031900087E0FF7E00640B2290055F7415F0E490D9
:1031A0000560F090056B229000F8E0640122900524
:1031B000307407F0227403F0E4900467F090118EED
:1031C000F022900575E0640122900000F0A3F02247
:1031D0009005EEE0640122E014F0900572E0FEA399
:1031E000E0780222A3740EF09005F074262290116C
:1031F000A3E0FF900C2BE0FEC39F22901187E064B8
:103200000322E024FFF09000F5E034FFF022900567
:10321000757402F0E490063CF022901193EDF0906A
:103220000C2B7401F0229005627402F0A37480F0FC
:1032300022F09006627411F022F090019D74FFF06C
:103240002290055FF07F0122F0E49005EEF0227BF2
:10325000017A1179932290057BE064012290053276
:10326000E4F0A374F0F0227B037D037F0322E4905B
:1032700000EDF0A3F0A3F022F090063F7402F07B83
:10328000FF22E4900C2AF0900C29F0229010E0E04C
:1032900044A2900E56F0900E68E4F0A304F0E4A36C
:1032A000F07B01A304F0A3740DF0A37454F0A3EB1E
:1032B000F0A3740EF0A3745AF0E4A3F022900E6E03
:1032C000E0FBA3E0FAA3E0F9120339FD900E6BE0F6
:1032D000FBA3E0FAA3E0F922E4F0A3F0A3F0A3F04B
:1032E000A3F0A3F0A3F0A3F0227D017BFF7E017F7A
:1032F000000201D0900C36E004F0E0D39402748018
:103300009480227D017BFF7E000201D07D017BFF46
:103310007E007F030201D07D017BFFFE7F02020160
:10332000D0F0900E68E4F07405A3F0E4A3F07B0104
:10333000A304F0A322120420EF24B0FFEE3424FEF5
:10334000ED3404FDE43CFCE47BFF7AFFF9F8120461
:10335000ABEF24FFFFEE34FFFEED34FFFDEC34FF56
:10336000FC900E7712066E900E77A3A3E0FEA3E00A
:10337000FF74FFFDFC227BFF7E01FF0201D07D0177
:103380007BFF7E007F1E0201D0900000EFF0FD7CED
:1033900000640A22FF7D017BFFFE0F0201D0900E28
:1033A00068E0FEA3E0FF900E72E0FCA3E0FDC39F87
:1033B000EC9E22EFF0A3EBF0A3EAF0A3E9F022F5F4
:1033C00083E0FE74452FF582E4340CF583EEF09033
:1033D0000C3FE004F022900D4C7401F0A37400F057
:1033E0007400A3F0A37401F0A3227D017BFF7E0093
:1033F0000201D0900E5EE4F0A3F0A3F022900C390D
:10340000E0FFD3900C3BE09F900C3AE094002290B8
:103410000C39E0243FF582E4340CF583E0FE227D94
:10342000017BFFFE0201D090113FE0FF12CC24A8E7
:1034300004A905AA06AB0722F0900E68E4F0A322C7
:10344000A3F0A3EBF0A322900C37E0FD7C00640115
:1034500022900C37E0FD7C00640622E4F0A3F0A388
:10346000F022E4900E72F0A3F022900C3FE0C3949F
:10347000057480948022E0C4540FFF540F22900EF4
:1034800072E004F022A3F0A3EBF0A322F583EEF0A8
:10349000900C39E004F0227D017BFFFE0201D0E0B8
:1034A000FFC394047480948022135401FFEF02023E
:1034B0003CF583E0FE743B2FF582E43411F583EE96
:1034C000F022900C31EFF0640A227A0E79567F11C7
:1034D00022E4F0A3F0A3F022E0FF7E00D394037473
:1034E00080948022E475F00112039C900E73E00436
:1034F000F022900C36E0243EF582E4340CF5832271
:103500007F647E007D007C0022E0FFC3900E73E0AC
:103510009F900E72E022120339FDACF0D39400ECC0
:10352000940122EE5401FF9010E0E0FE2290113F42
:103530007404F022A3F0A3EBF0A322C3ED943DECBE
:10354000940022E49010E1F0A3F022D3940C748054
:10355000948022EF540F90113FF022900E69E054B6
:1035600007900E80F02290112BE0640222900E64EE
:10357000E0640A22E033333354F8FD7F192212CC81
:1035800024E4FB7A10F9F822900E68E0FEA3228D65
:103590008285F083EF02024E7400F0A37400F07B8A
:1035A0000122E4F0A3F0A3F02212B623900C2C1217
:1035B000066E12BA57600712BA6EA312066EC39057
:1035C000052BE0942090052AE0940050037FFF2211
:1035D000301B0A12BA577002C21B7FFF2212BA6E4A
:1035E000126D5720C207E4901207F0800690120770
:1035F00074FFF012BA3F700990120CE070030236AB
:10360000FE9011FC12BA42700B90120CE064017033
:103610000302370D9011FD12BA42700B90120CE0AC
:103620006402700302371D9011FE12BA42700B90B3
:10363000120CE06403700302372E9011FF12BA429D
:10364000700B90120CE06404700302373F9012007C
:1036500012BA42700B90120CE064057003023750EE
:1036600090120112BA42700B90120CE064067003C3
:1036700002376190120212BA42700B90120CE06491
:1036800007700302377190120312BA42700B901246
:103690000CE06408700302378190120412BA427081
:1036A0000B90120CE064097003023791901205121E
:1036B000BA42700B90120CE0640B70030237A190B9
:1036C000120612BA42700B90120CE0640A700302E8
:1036D00037B190120712BA42700B90120CE0640DD1
:1036E00070030237C190120B12BA42700CA3E0644F
:1036F0000C700690120F0237D412BA3F7007901266
:103700000FF00237DC9011FC12BA42700890120FD1
:1037100004F00237DC9011FD12BA42700990120FCA
:103720007402F00237DC9011FE12BA427009901256
:103730000F7403F00237DC9011FF12BA4270099047
:10374000120F7404F00237DC90120012BA427009B2
:1037500090120F7405F00237DC90120112BA427019
:103760000890120F7406F0807390120212BA427021
:103770000890120F7407F0806390120312BA42701F
:103780000890120F7408F0805390120412BA42701D
:103790000890120F7409F0804390120512BA42701B
:1037A0000890120F740BF0803390120612BA427018
:1037B0000890120F740AF0802390120712BA427018
:1037C0000890120F740DF0801390120B12BA4290F1
:1037D000120F7005740CF0800374FFF090120FE06C
:1037E000FF900661F0F4700302386C90120CE0FD5B
:1037F00090120FE0FC6D6015EF640D900C346004C6
:10380000ECF0800374FFF090120CEC8079D39012EE
:103810000EE094C090120DE09400500FA3E004F06D
:10382000700690120DE004F012BA7D90120DE0FEC9
:10383000A3E0FFD39460EE9400402CEF94C0EE948C
:1038400000400EA3E0640D7008900C34741BF080EF
:103850000312BA7D9011FAE004F0D3947F7480943F
:10386000804029E4F0802512BA7D802090120CE07F
:10387000FF640D900C347004EFF0800374FFF0903F
:10388000120FE090120CF0E4A3F0A3F0900C34E0DF
:10389000FF22900C67EDF0900C64EB125975900CC0
:1038A00069EB125975900C64125920125160900CFA
:1038B0006CEFF0900C691259207F05123B36C00462
:1038C000C005C006C007900C691259207F00123B4A
:1038D00036D003D002D001D000125929C004C0054F
:1038E000C006C007900C691259207F09123B40D0D6
:1038F00003D002D001D000125929C004C005C0066F
:10390000C007900C691259207F0A123B40D003D0A7
:1039100002D001D000125929C004C005C006C0075A
:10392000900C691259207F0C123B4AD003D002D070
:1039300001D000125929C004C005C006C007900C70
:10394000691259207F0E123B4AD003D002D001D019
:1039500000125929C004C005C006C007900C6912A6
:1039600059207F0F123B54D003D002D001D0001257
:103970005929C004C005C006C007900C691259201F
:103980007F11123B54D003D002D001D0001259292C
:10399000C004C005C006C007900C691259207F13EF
:1039A000123B5ED003D002D001D000125929C004CE
:1039B000C005C006C007900C691259207F18123B41
:1039C0005ED003D002D001D000125929C004C00536
:1039D000C006C007900C691259207F191259BD12F8
:1039E000AE9FD003D002D001D000125929C004C02C
:1039F00005C006C007900C691259207F1B1259BDE3
:103A000012AE9FD003D002D001D000125929C004B9
:103A1000C005C006C007900C691259207F1D1259BD
:103A2000BD12AE9FD003D002D001D000125929C0E0
:103A300004C005C006C007900C691259207F2312EC
:103A400059BD12AE9FD003D002D001D00012592927
:103A5000C004C005C006C007900C691259207F271A
:103A60001259BD12AE9FD003D002D001D00012591E
:103A700029C004C005C006C007900C691259207FF8
:103A8000291259BD12AE9FD003D002D001D000122E
:103A90005929C004C005C006C007900C69125920FE
:103AA0007F2A1259BD12AE9FD003D002D001D000A0
:103AB000125929C004C005C006C007900C691259EC
:103AC000207F2B1259BD12AE9FD003D002D001D05F
:103AD00000125929900C6D12066E900C6D12594B04
:103AE000FB900C68E06007900C6CE0FF80027F00A8
:103AF000900C67E0FDED6FFFEB6FFFEAFEE9FDE87C
:103B0000FC900C6D12066E900C641259207F01120D
:103B100059BD129874900C64125920900C6D125873
:103B2000FBFF900C7812066E7F2F1259BD128EB6D5
:103B3000900C6CE0FF227E007D007C0012AE9F2284
:103B40007E007D007C0012AE9F227E007D007C0006
:103B500012AE9F227E007D007C0012AE9F227E006E
:103B60007D007C0012AE9F227A017935121F057408
:103B700004F07FAD7E0312B897900135E0F4600F3A
:103B8000A3E0F4600AA3E0F46005A3E0F47017E496
:103B9000900135121C69900CB9121DD97404F07F84
:103BA000AD7E03125DF8121D137404F07FB47E0322
:103BB00012B897900152E0F4600FA3E0F4600AA3FA
:103BC000E0F46005A3E0F47015E4900152121C6962
:103BD0007A017952121F837FB47E03125DF87A0155
:103BE0007939121F057404F07F527E0312B8979042
:103BF0000139E0F4600FA3E0F4600AA3E0F460058B
:103C0000A3E0F47015E4900139121C697A01793946
:103C1000121F837F527E03125DF87B017A01795671
:103C2000121F077404F07F627E0312B8979001564A
:103C3000E0F4600FA3E0F4600AA3E0F46005A3E001
:103C4000F47017E4900156121C697B017A017956D1
:103C5000121F857F627E03125DF87B017A01794035
:103C6000121F077403F07F5BFE12B897900140E0CB
:103C7000F4600AA3E0F46005A3E0F470139001403F
:103C80001220087A0179401221AF7F5BFE125DF8A5
:103C90007B017A01795D121F077403F07F6BFE12BE
:103CA000B89790015DE0F4600AA3E0F46005A3E03A
:103CB000F4701390015D1220087A01795D1221AF32
:103CC0007F6BFE125DF8900ECA121D2F7402F07FFA
:103CD0005F7E0312B897900143E0F46005A3E0F41F
:103CE0007010900CB9121D2F7402F07F5F7E0312CA
:103CF0005DF8900ECA121D397402F07F6F7E0312B8
:103D0000B897900160E0F46005A3E0F47010900CA7
:103D1000B9121D397402F07F6F7E03125DF8900EA8
:103D2000CA121D4312206912B89790013DE0F46059
:103D30000AA3E0F46005A3E0F4700F900CB9121D23
:103D4000437403F07F57FE125DF8900ECA121D4DAA
:103D50007403F07F67FE12B89790015AE0F4600A8E
:103D6000A3E0F46005A3E0F4700F900CB9121D4DB0
:103D70007403F07F67FE125DF8900ECA121D571291
:103D8000214912B897900145E0F46037A3E0F46050
:103D900032A3E0F4602DA3E0F46028A3E0F46023F4
:103DA000A3E0F4601EA3E0F46019A3E0F46014A3A0
:103DB000E0F4600FA3E0F4600AA3E0F46005A3E080
:103DC000F47012900145121C5C1221BA121D581297
:103DD0002149125DF8900ECA121DB412215112B879
:103DE00097900162E0F46037A3E0F46032A3E0F45E
:103DF000602DA3E0F46028A3E0F46023A3E0F46066
:103E00001EA3E0F46019A3E0F46014A3E0F4600FD3
:103E1000A3E0F4600AA3E0F46005A3E0F47013E407
:103E2000900162121C5D1221BA121DB512215112AD
:103E30005DF822900560E070779000D2E0701D90F0
:103E4000056BE0640270159000D5E0700F12310E22
:103E50007407F0A31230137F3E02CEA390056BE0EF
:103E6000FF7E00640170129000D5E0C3940274805C
:103E7000948050028001C35018EF64024E70289065
:103E800000D4E0C394087480948050028001C34041
:103E90001612310E7406F0A31230137F5812CEA3FF
:103EA0007F647E0002D03790056074011230F122E9
:103EB000900560E06401703F7403F0E490118E128D
:103EC000306C700512CB93800312CB2D900564EFFC
:103ED000F0122F77E4900C2BF012304F5008122F75
:103EE000B012317F80F31230637B5270047D4C80BE
:103EF000027D4E7F66806C900560E0640360030283
:103F00003F8A9011A5E0640270739011A4D312301F
:103F10009E4053E4900C2BF0900C2BE01230545048
:103F20001EE0FF2493F582E43411F583E0FE747BF8
:103F30002FF582E43411F583EEF012317F80D9122F
:103F40002F71E4900C2BF012304F5008122FB0124A
:103F5000317F80F31230637B5270047D4C80027D90
:103F60004E7F6802CEDA7403122F73E4900C2BF0AC
:103F700012304F5059122FB012317F80F39011A59B
:103F8000E0640360030240F38051900560E0640444
:103F90007056FD7F0512CDE79011A51230FB7032EF
:103FA0009011A4E0D312309F40079005607405F093
:103FB00022122F71E4900C2BF0900C2BE0FD1230AC
:103FC00054500B74932D122FB312317F80EB1232A9
:103FD0002622EF64034E60030240F312310E740C8C
:103FE000F0A3E4F0A304F022900560E06405600310
:103FF0000240797B01900C2F04F0A37411F0A3749C
:1040000093F07A11797B127C64EF3395E04F70580E
:1040100012324F12792DEF703F12324F900564E04B
:10402000FD129D73EF3395E0FEEFF47002EEF46045
:10403000030240F39005607412F090056212301391
:104040007D327F4412CE1912306D70059000D580FC
:10405000039000D4E004F02212310E7404F0A31295
:1040600030137D527F56800E12310E7409F0A31268
:1040700030137D347F4402CE19900560E0641270E5
:104080001B1230CF506D9000D2E0706412306D7012
:104090005F9000D5E06401705702CEB1900560E0FA
:1040A0006413704F1230CF504A900561E0FF7E00DC
:1040B000640C700E9000D2E070089000D5E07002A1
:1040C00080119000D2E0700F12306D700A9000D510
:1040D000E07004122F5B22EF64064E600E900561C3
:1040E000E0FF640C6005EF6407700512306D80001E
:1040F00012CFD922900C2BEEF0A3EFF0900467E0E2
:104100007015741E12907CA37401F0E4A3F0A374E4
:10411000FFF07F6C024286900467E0641E700574B5
:104120001F0242AC900467E0641F703F12906970F8
:104130002B9005F0E0700890046774200242CC9048
:1041400005F0E0FF6403600AEF64026005EF64F9C4
:104150007007900467741EF02202422812903264A5
:10416000809480400302437802436E900467E064C9
:104170002070107421129073900464E0FF12B9FA59
:1041800002433F900467E06421600302423D1290C5
:1041900069600302422E9005F0E07052900464E0E2
:1041A000FF7E0064017020900466E0FD3395E0FC22
:1041B000ED4C7013900464E004F09004677424F0F4
:1041C00090046674FF8020C3EF9408EE64809480AE
:1041D000900467501012907AA3E004F01243791211
:1041E000D0370242CD7417F01290DC0242CD900518
:1041F000F0E0FF64066005EF6403702C900465E056
:10420000C3940374809480900467500E12907A12C5
:10421000C7B912437912D03780077429F0A3740B01
:10422000F0900465E004F02290046702435D129070
:104230003264809480400302437802436E900467A6
:10424000E06424700F74251290737B32FAFDFC7FBA
:104250000102AF6F900467E06425704612906970A8
:10426000329005F0E0FF7E00700B9004677429F037
:10427000A3740AF022EF64094E9004677012129042
:104280007A12C7B97F6E12CEA37F967E0002D03716
:1042900002435D12903264809480400302437802AE
:1042A000436E900467E064227008742312907302D6
:1042B000CBDC900467E06423702B12906970179038
:1042C00005F0E0640290046760067422F002C7B94A
:1042D000741E12907C2212903264809480400302FB
:1042E000437802436E900467E06417700A741812F2
:1042F000907312CAC18048900467E0FF7E00641882
:104300007022129069700F9005F0E09004677004BD
:104310007419F02280479004621290CD64809480DA
:104320005056804AEF64194E7019900467741A123F
:104330009073900C2BE0FCA3E0FD7F0112B51812E6
:1043400090DC22900467E0641A702D129069701559
:104350009005F0E090046770047428F0227429F04E
:10436000A3740BF02212903264809480500A90045F
:10437000677429F0A37401F0227F6E12CEA37F969A
:104380007E0022900C9EEB121D6C900CA8121C5CFF
:10439000900C9E121E187002FF22900C9E121C3F61
:1043A0001221331203F3C002C001900CA1121FAB03
:1043B000900CB5121D6B900CA6E0FFA3E0900CB81A
:1043C000CFF0A3EFF0D001D002122BB0EF7002FFBC
:1043D00022900C9E121C3F12204F24F96069046049
:1043E000030245E0900006121EAE900007121F481F
:1043F000122028900009121E6560030245EC121E6F
:10440000EB12A757900CA8EEF0A3EFF0900C9E12C1
:104410001C3F12209E1221E240030245EC900CA8A2
:10442000121FD69E5002800FBC2716BD0F13C3EF7C
:10443000940BEE9400500A900010E475F0010245D0
:10444000E91221330245E9900C9E121C3F121F7D98
:1044500075F00AA4FDACF012202F75F064A42DFFB6
:10446000E5F03CFE1220117C002FFFEC3E9000177F
:104470008FF01203F3900008121EAE900009121F75
:10448000481220E990000B121E6560030245EC12F1
:104490001EEB12A850900CAA121EE612A947900C0F
:1044A000AC121EE612AC11900CB0121EE612B165F1
:1044B000900CAEEEF0A3EFF0900C9E121C3F122079
:1044C0009E1221E240030245EC900CAAE0FCA3E01E
:1044D000FDC3940FEC94275073C3ED9FEC9E5003E3
:1044E000024596900C9E121C3F12209EFF900CAA33
:1044F000E065F07003A3E06F70461220EF7003A335
:10450000E06F6003024596900C9E121C3F122055EE
:10451000FF900CAEE065F07003A3E06F6006121D23
:10452000E2128D23900C9E121C3F121FEB400302DF
:1045300045EC12203E7006900CACE004F00245CE33
:10454000900C9E121C3F1221330245E9900CAAE008
:1045500064277004A3E0640F60030245EC900C9E96
:10456000121C3F12209EC3940BE5F09400500612DB
:104570001DE2128D23900C9E121C3F12209EFF9074
:104580000CAAE065F07003A3E06F70601220EF707A
:1045900003A3E06F6005121DE28040900C9E121C88
:1045A0003F122055FF900CAEE065F07003A3E06F62
:1045B0006006121DE2128D23900C9E121C3F121FEA
:1045C000EB502912203E7006900CACE004F0900CE9
:1045D000ACE0FEA3E0900CA412211F128D23800CEE
:1045E000900C9E121C3F1221331203F3900C9E126A
:1045F0001C3F900010121E837F0070027F012290EA
:104600000C9EEB121D6CA3EDF0900C9E121E187008
:104610000302486FA3E0640660030246CB900C9E41
:10462000A3A3E0F9121F7D12211C9000FB75F01D61
:10463000121C4F12200FFF121C48EF122027FF9070
:1046400000FD121C4BEFF0121FA2FF9000FE121C87
:104650004BEFF09000FB121C4BE0FF900135121C59
:104660004BEFF0121C48E0FF900136121C4BEFF0AC
:104670009000FD121C4BE0FF900137121C4BEFF035
:104680009000FE121C4BE0FF900138121C4BEFF023
:10469000ED4C701A900CA2121EFD121CB112215981
:1046A000125DF8121CF37404F07FAD02486A121E0A
:1046B00095600302486FFC121CB1122070125DF865
:1046C000121CF37404F07FB402486A900CA1E064F9
:1046D00007600302486F900C9E121C3F12202812A4
:1046E000211C9000FF75F01D121C4FEFF0121FA24D
:1046F000FF900100121C4BEF1220E8FF9001011205
:104700001C4BEF1221CDFF900102121C4BEF122027
:104710002EFF900106121C4BEFF0121F7DFF90013F
:1047200007121C4B12200FFF900108121C4BEFF0D8
:104730001201F6FF900109121C4B122161FE90013B
:104740000A121C4BEE122027FE900139121C4BEE70
:10475000F0121FA2FE90013A121C4BEE1220E8FE4E
:1047600090013B121C4BEE1221CDFE90013C121C1D
:104770004BEE12202EFE900140121C4BEEF0121F49
:104780007DFE900141121C4BEE122010FE90014262
:10479000121C4BEEF0900143121C4B122161FF9052
:1047A0000144121C4BEFF0ED4C7062900CA2121EF3
:1047B000FD121CC7122078125DF8121C717403F0F0
:1047C0007F3BFE125DF8121C91122088125DF812D8
:1047D0001D2074392FF97401121D087404F07F52E2
:1047E0007E03125DF8121D2074402FF97401121D12
:1047F000087403F07F5BFE125DF8121D2074432FD6
:10480000F97401121D087402F07F5F805D121E951D
:10481000705DFC121CC7122080125DF8121C711210
:10482000210E125DF8121C91122090125DF8121DDB
:104830002074392FF97401121D087404F07F627E10
:1048400003125DF8121D2074402FF97401121D0827
:104850007403F07F6BFE125DF8121D2074432FF974
:104860007401121D087402F07F6F7E03125DF8223E
:104870009000CC122F51700B90055F7426F07F04CE
:1048800012A4D29005FEE070067420F012B22890B7
:1048900005F4E0640470679000ED74FFF09005FC8F
:1048A000A3E09000F3F012C7B91230759000F8E061
:1048B00070047F0180231231A7600302493B12304C
:1048C00036BEFF07BFFF047F06800E9000EE123059
:1048D00039BEFF0ABFFF077F0412CBF4805D900052
:1048E000F7E07005124AC18052122FF9404DEF6473
:1048F000017003122F6A9000F7E014F0803D9005DC
:10490000F4E064057035124ACD700A7F0812CBF4CA
:1049100012C7B98026E49000EDF09000F104F09009
:1049200000F31230087F4012CEA39000C91231224A
:104930005005E004F0800412308DF01261099001FE
:10494000F4E0642870629000EE74FFF09001EFA331
:10495000E0049000F21230749000F8E070047F03DD
:1049600080701231A760030249FD9000ED123039CA
:10497000BEFF07BFFF047F048058123036BEFF071A
:10498000BFFF047F05804B9000F7E07005124AC11D
:10499000806B122FF94066EF640170049001F4F00F
:1049A0009000F7E014F080559001F4E06429704D18
:1049B000A3E0642B70089000FA7402F08005E49084
:1049C00000FAF0124ACD700F9000FAE0640260071E
:1049D0007F0812CBF48026E49000EEF09000F17492
:1049E00003F0E4A31230097F4012CEA39000C81256
:1049F00031225005E004F0800412308DF012737FF4
:104A0000900530E0640A70599000EF74FFF0900553
:104A10003EE09000F41230749000F8E060089000DE
:104A2000F0E0640170047F02804B1231A760030242
:104A30004AC09000ED123039BEFF07BFFF047F0669
:104A400080339000EE123039BEFF07BFFF047F05B0
:104A500080237F7A12CEA31231AE9000F77480F0DB
:104A600022900530E0640B703612C99BEF3395E05D
:104A70004F70057F0802CBF4E49000EFF09000F156
:104A80007402F09000F41230087F4012CEA3900020
:104A9000CA1231225004E004F02212308DF022902C
:104AA0000530E0FF7E00640C700D90047BF0A3F0F5
:104AB00090055F7425F022EF640D4E700312CDC493
:104AC000227F7A12CEA39000F77480F02212C99B45
:104AD000EF3395E04F22E4900C3AF0A312067A00EF
:104AE000000000900C3F12067A00000000E4900CD9
:104AF00043F0A3F0300303024C0112D02E50030206
:104B00004BF312C4A8900C3B12066EE4900C39F0E3
:104B1000900C39E0C395105039900C3B12801878F6
:104B200001120571900C3B12066E30D720127FECFB
:104B3000C000C001900C39127FDBE0F9F812059833
:104B4000D001D000128024900C3AE004F01280636F
:104B500080BE900C3AE0FF7E00C394027480948083
:104B60004018D216EF940374809480400512D0311F
:104B7000800812CF7AEF6002C216201623E4FFFEEF
:104B8000FDFC127FECC312056060109010B7E004CA
:104B9000F070069010B6E004F0801D12804F80186F
:104BA0009010A6E004F070069010A5E004F0900CC0
:104BB0003F12067A0000000012CEF3D39010B7E047
:104BC0009F9010B6E09E400612D03112804FD390D5
:104BD00010A6E0942C9010A5E094015003024D2300
:104BE00012D0319010DD7401F0E49010A5F0A3F024
:104BF000024D2390E508E4740193FF125AA5024D7B
:104C000023200403024CED127FECC000C001901081
:104C1000DE127FDBE0F9F8120598D001D000128097
:104C200024127F7912806A900C43F0A3EFF0901069
:104C3000DEE0FF12CF9AAD07AC06ED7802CEA2E718
:104C400013CE13D8F8FFC3ED9FFFEC9EFED3900C5C
:104C500044E09FEE6480F8900C43E06480985058E4
:104C6000E490105BF0A3F090101EE004F094057443
:104C70008094804010E4F0C203C204900C3F1206FE
:104C80007A00000000E4900C39F0900C39E0FFC38A
:104C900095104003024D23125C58200316900C39E6
:104CA000E0FF9010DEE06F600A900C39E0127F891F
:104CB00012803612806380D2E490101EF012CEF380
:104CC00090105BE475F00112030DFCD3E5F09FEC4E
:104CD0009E405012D031E490105BF0A3F0C203C2AA
:104CE00004900C3F12067A000000008036785406CB
:104CF000E6D39405748094804004E4F6C203E49003
:104D00000C39F0900C39E0FFC395105016125C5826
:104D100020030B900C39E0FF127F8912803612803D
:104D20006380E0900C3F12801822900C24EB125903
:104D300075A3125920125961C004C005C006C007EE
:104D40001203397818125969D003D002D001D0006B
:104D500012597DC004C005C006C007900C27125927
:104D60002012599CD003D002D001D00012597DC02E
:104D700004C005C006C007900C27125920125A3FE4
:104D8000D003D002D001D000900C2A1259CC900C44
:104D9000241259201259BB128260900C2F12066EF9
:104DA000900C2E7403F0900C2A1258FBFFA3125A99
:104DB00022120571E4AD07900C61F0900C24125999
:104DC0002012AFD4EF1259E5900C27125920125A35
:104DD0005FFFE5F0FCED6F1259E58F82F583EC8DF6
:104DE000F01203F3E92FF9EA3EFAC003C002C00152
:104DF0001259D8C007C006900C24125920125160D5
:104E00007808120598D0E06EFED0E06FFFD001D098
:104E100002D003EE8FF01203D4900C2E125A87505A
:104E200085900C2F1258FB7818125A66125920E4FC
:104E30001259C4E92408F9E43AFAC003C002C001D7
:104E40001259D8C007C006900C27125920900008AC
:104E5000124F48D0E04CFFD0E0D001D002D0031276
:104E600059DF900C2F1258FB7810125A66125920F5
:104E700090000A125A17240AF9E43AFAC003C00251
:104E8000C0011259D8C007C006900C2712592090B3
:104E9000000A124F48D0E04CFFD0E0D001D002D041
:104EA000031259DF900C2F1258FBFF7808125A6733
:104EB00012592090000C125A17240CF9E43AFAC047
:104EC00003C002C0011259D8C007C006900C2712B7
:104ED000592090000C124F52D0E04CFFD0E0D0018E
:104EE000D002D0031259DF900C2F125A91900C2748
:104EF00012592090000E125A17240EF9E43AFAC003
:104F000003C002C0011259D8C007C006900C271276
:104F1000592090000E124F52D0E04CFFD0E0D0014B
:104F2000D002D0031259DF900C27125A6E2408F9D0
:104F3000E43AFAEB125972A312067A0000000490C8
:104F40000C2412592002C5BF120364FF12BECFEF1A
:104F5000FC22120364FF12BECFEFFC227D017F040E
:104F6000124F660D7F04EFF582758300C374809441
:104F7000804024D3E5829405748094805019EDF527
:104F800082C374809480400FE5829408748094807A
:104F900050057582018003900000E582640145831D
:104FA000600302515FEF14606414700302505214E6
:104FB00070030250971470030250DC147003025106
:104FC0001E2405600302515FEB14601D14602D2444
:104FD00002600302515FA8057401088002C333D840
:104FE000FCFF429AEFF4529B22A80574010880024C
:104FF000C333D8FCFFF4529AEF429B22A8057401F8
:10500000088002C333D8FCF4529A529B22EB1460FE
:105010001D14602D2402600302515FA8057401086D
:105020008002C333D8FCFF4291EFF4529222A805CC
:105030007401088002C333D8FCFFF45291EF42920E
:1050400022A8057401088002C333D8FCF45291529F
:105050009222EB14601D14602D2402600302515F44
:10506000A8057401088002C333D8FCFF42A1EFF405
:1050700052A222A8057401088002C333D8FCFFF4B1
:1050800052A1EF42A222A8057401088002C333D8BE
:10509000FCF452A152A222EB14601D14602D2402D4
:1050A000600302515FA8057401088002C333D8FC75
:1050B000FF42B1EFF452B222A8057401088002C386
:1050C00033D8FCFFF452B1EF42B222A805740108B4
:1050D0008002C333D8FCF452B152B222EB14601AEE
:1050E00014602A24027078A8057401088002C33372
:1050F000D8FCFF42C1EFF452C222A8057401088017
:1051000002C333D8FCFFF452C1EF42C222A8057497
:1051100001088002C333D8FCF452C152C222EB14FE
:10512000601A14602A24027036A8057401088002EF
:10513000C333D8FCFF42D9EFF452DA22A805740138
:10514000088002C333D8FCFFF452D9EF42DA22A818
:10515000057401088002C333D8FCF452D952DA2214
:10516000900C71EB125975A312067A0000000290A0
:105170000C7812067A000000001258F82407125921
:1051800056C004C005C006C0071258F824091258BA
:10519000E8240B900C871258EB240D125956125A22
:1051A0002AD007D006D005D004128F76A907901117
:1051B000AB1258FB1259AD125941FBC000C001C0DF
:1051C00002C003900C71125920A31258FB240F1235
:1051D0005956C004C005C006C0071258F824111261
:1051E00058E82413125956900C871258F5241512BA
:1051F0005956125A2AD007D006D005D00412534E61
:105200001258FB1259ADFC7801120598D003D00258
:10521000D001D000125936FBC000C001C002C0034B
:10522000900C71125920A31258FB2417125956C022
:1052300004C005C006C0071258F824191258E82403
:105240001B125956900C871258F5241D12595612EC
:105250005A2AD007D006D005D00412534E1258FB5C
:105260001259ADFC7802120598D003D002D001D0BB
:1052700000125936FBC000C001C002C003900C717F
:10528000125920A31258FB241F125956C004C005FE
:10529000C006C0071258F824211258E824231259D6
:1052A00056900C871258F52425125956125A2AD0B6
:1052B00007D006D005D004128F76A9079011AB1243
:1052C00058FB1259ADFC7803120598D003D002D0D8
:1052D00001D000125936FBC000C001C002C00390CB
:1052E0000C71125920A31258FB2427125956C004DE
:1052F000C005C006C0071258F824291258E8242B0C
:10530000125956900C871258F5242D125956125ADC
:105310002AD007D006D005D004128F76A9079011A5
:10532000A71258FB1259ADFC7804120598D003D08F
:1053300002D001D000900C78125A30900C78A3A3C0
:10534000A3E0F99011AF1258FB1259ADFC22128F55
:1053500076A9079011A722900455E060030253E359
:105360009000D2E070439000D5E0703D90055F74EE
:1053700015F090056074031230F190056404F0900C
:10538000056B122F76E4900C2BF0900C2B12305200
:10539000500B122FB0900C2BE004F080ED1232264F
:1053A0007B527D4C7F6602CEDA122F7790053074E7
:1053B00009F012325DE4900C2BF09011A3E0FF9005
:1053C0000C2BE0FEC39F500E74932E122FB3900C43
:1053D0002BE004F080E49004557401122FA97F5A49
:1053E00002CEA3900455E0640160030254EF7D10E7
:1053F0007F0612CDE79011A5E06402704B90045532
:105400007403F012324F12792D90045EEFF0600FAA
:10541000C394037480948050069004557402F01273
:1054200031AE900455E0640370157F4012CEA39016
:10543000045D7480F012309A501FE004F0801A7DF1
:10544000327F5A12CE1980119011A5E064037009C1
:105450009004557404F01231AE1261099001F4E029
:1054600064287029C39001F0E0940A9001EFE09461
:1054700000501A9004557402122FA97D327F5A12DF
:10548000CE199001F37401F07F030255399001F4B5
:10549000E0FF64296022EF6428600302553C90011C
:1054A000F0E02401FF9001EFE03400FED3EF940A16
:1054B000EE9400500302553C9001F5E0642B9004FB
:1054C0005F70057402F080037401F0E49001F4F061
:1054D0009004557403F090045D7480F07F4012CE08
:1054E000A37F0212A4D212309A5051E004F022900D
:1054F0000455E06402700912CEB1E49000CBF022B2
:10550000900455E06403701E90045DE014F0122FC7
:1055100046502912309A4006E4A3123091F0122F1F
:10552000A01232418013900455E06404700E7F6035
:1055300012CEA3122FA012324112A4D222900ECA70
:10554000121DD812215912B8979000FBE0F4600F99
:10555000A3E0F4600AA3E0F46005A3E0F47017E4AC
:105560009000FB121C697B017A0079FB121F857F7A
:10557000A07E03125DF8121D1312207012B89790CE
:105580000118E0F4600FA3E0F4600AA3E0F4600502
:10559000A3E0F47013E4900118121C69900CB91286
:1055A0001D17122070125DF8900ECA121E011220F3
:1055B0007812B8979000FFE0F4600FA3E0F4600A5F
:1055C000A3E0F46005A3E0F47013E49000FF121C64
:1055D00069900CB9121E02122078125DF8900ECA62
:1055E000121E2212208012B89790011CE0F4600F66
:1055F000A3E0F4600AA3E0F46005A3E0F47013E410
:1056000090011C121C69900CB9121E2312208012EA
:105610005DF8900ECA121E0B7F3BFE12B8979001E8
:1056200006E0F4600AA3E0F46005A3E0F4701290D1
:105630000106122107900CB9121E0C7F3BFE125D71
:10564000F8900ECA121E2C12210E12B89790012348
:10565000E0F4600AA3E0F46005A3E0F470129001A6
:1056600023122107900CB9121E2D12210E125DF883
:10567000900ECA121E3612208812B897900109E0C7
:10568000F46005A3E0F47010E49001091221BB124C
:105690001E37122088125DF8900ECA121E51122079
:1056A0009012B897900126E0F46005A3E0F4701022
:1056B000E49001261221BB121E52122090125DF8B6
:1056C000900ECA121E5B12206912B897900103E077
:1056D000F4600AA3E0F46005A3E0F47011E4900123
:1056E00003F01221BA121E5C122069125DF8900EAE
:1056F000CA121E8B12211512B897900120E0F46097
:105700000AA3E0F46005A3E0F47011E4900120F036
:105710001221BA121E8C122115125DF8023B684C40
:10572000FC900000E0FBA3E0FAA3E0F922EFF0A375
:10573000EBF0A3EAF0A3E9F022EF4CFFEDCFF0A3EA
:10574000EFF0900000E0FCA3E0FDA3E0FEA3E02268
:10575000900C367401F0A37411F0A37443F022E4AA
:105760007F02FEFDFC900000E0F8A3E0F9A3E0FA60
:10577000A3E022A3F0A3E4F07414A3F0A37401F057
:10578000227D017BFF7F147E001201D0E422900E67
:1057900068F0EFA3F0E4A3F07B01A304F0A3229050
:1057A0000000E075F008A422900000E075F009A464
:1057B00022ED25E0FFEC33FE74432FF58274113E99
:1057C000F58322A3F07B017A11796C22A3F0A374F4
:1057D00027F07410A3F0A37401F022FB12042090B0
:1057E0000000E0FBA3E0FAA3E02FF9EA3EFAEB3D6C
:1057F000FB120339FFE5F022F09000007401F0A3E2
:10580000227400F07400A3F0A3EBF0A322EF4BFF8F
:10581000EE4AFEED49FDEC48FC22900000E09000CD
:10582000002402FFE03400FE22EFFD3395E0FCEDA2
:1058300064044C22A3F07B017A11794322EFFD33FB
:1058400095E04D22FFE4FCFDFE020598E0FFE4FC3C
:10585000FD020598FF900000E0FCA3E0FDC322A339
:10586000F0A37413F0A37488F0E4A3F022FD12C433
:1058700047EFC422EF4BFFEAFEE9FDE8FC02066EAB
:10588000FF7C007D090202829000007401F0A322D7
:10589000900000E025E0FF900000E022A3F0A3E4E8
:1058A000F0A304F0A3F0A322A3F0E4A3F0A3F0A3D9
:1058B00004F0A3227400F0A37400F0E4A3F022FF2C
:1058C000EE5AFEEF5B4E7F0022EF4CFFEDCFF0A3D0
:1058D000EFF022900E68E4F0A322A3F0A3EBF0A374
:1058E0002290000004F0A322900C83FFE43EFEE42B
:1058F0003DFDE43CFC12066E900C74E0FCA3E0FD60
:10590000A3E0FEA3E022E47F02FEFDFC900C59E040
:10591000F8A3E0F9A3E0FAA3E0FB120420900C4EF8
:10592000E0FBA3E0FAA3E0F922EF6BFFEE6AFEEDE5
:1059300069FDEC68FC22EB4FFFEA4EFEE94DFDE805
:105940004CFC900C7812066E900C78E0F8A3E0F90D
:10595000A3E0FAA3E022FFE43EFEE43DFDE43CFCCC
:10596000229000021203647810FF7E00E4FCFD0226
:105970000598900C36F0A3EAF0A3E9F022EF4BFF74
:10598000EE4AFEED49FDEC48FC22900C8FEB4FFFF8
:10599000EA4EFEE94DFDE84CFC02066E9000041252
:1059A00003647808FF7E00E4FCFD020598FFA8016F
:1059B000120571EF5401FFE4FEFD227F407E007D61
:1059C000007C00229000088FF00203F3EF4BFFEA07
:1059D000FEE9FDE8FC02066E120339FFAEF022CFAD
:1059E0008FF00203D4FD900C2EE0FF3395E0FEC350
:1059F00074039FFFE49EFEEF25E0FFEE33FE22FFDF
:105A0000E4FAF9F8EF2401FFEA3EFEE93DFDE83C47
:105A1000FC900C5902066EE48FF01203F3E9229019
:105A20000C46E075F008A4F9F822900C8B02066E83
:105A3000EB4FFFEA4EFEE94DFDE84CFC02066E908E
:105A40000006120364FF22EF4BFFEAFEE9FDE8FCCB
:105A500002066E6FFFEA6EFEE96DFDE86CFC228FB8
:105A6000828E83020364FF120571900C2722E0FBF3
:105A7000A3E0FAA3E022FF7E00E4FCFD7818020513
:105A800098900C3E02066EE014F0E0C364809480AF
:105A900022E0FCA3E0FDA3A3E0FF22E4900C41F090
:105AA000FFFEFDFC22900C45EFF090122DE0C39418
:105AB00003748094804048E4F09010DDE0703590ED
:105AC0000C46F0900C46E0C395105028E0FF75F0AE
:105AD00002A424B9F582E5F03410F583E0FCA3E0DC
:105AE000FDEF25E02424F8A60408A605900C46E066
:105AF00004F080CF12AF08C217E49010DDF02290BE
:105B00001227E004F0900C45E0FF901227E0B50763
:105B10000812C3AEE4901228F0900C45E0FF9012FA
:105B200027E0D39F5003025C57E4900C46F0900CA2
:105B300046E0C395104003025C03E0FF75F002A449
:105B400024B9F582E5F03410F583E0FCA3E0FD759F
:105B5000F002EFA4241FF582E5F03410F583E0FE97
:105B6000A3E0C39DFFEE9CAD07FC9010DDE070420A
:105B70009010B8E0FB3395E0FAFEEB7802C333CE29
:105B800033CED8F9FFD3ED9FEE6480F8EC648098B3
:105B90004060E49BFFE49AFEEF7802C333CE33CE3D
:105BA000D8F9FFC3ED9FEE6480F8EC648098504212
:105BB00080519010B8E0FB3395E0FAFEEB7803C318
:105BC00033CE33CED8F9FFD3ED9FEE6480F8EC648A
:105BD0008098401EE49BFFE49AFEEF7803C333CE27
:105BE00033CED8F9FFC3ED9FEE6480F8EC64809863
:105BF0004011900C46E0FF125C58900C46E004F017
:105C0000025B2E900C46E0B51006901228E004F0DE
:105C1000900C45E0FD75F008A4FF901227E0C39FAB
:105C2000E5F06480F8748098402DE4F0C21690127C
:105C30002DE004F0ED75F004A4FF901228E0C39F5E
:105C4000E5F06480F8748098400DE490122DF01215
:105C5000C61812AF08C21722900C47EFF0F9E0FF08
:105C600075F002A424B9F582E5F03410F583E0FC68
:105C7000A3E0FD75F002EFA4241FF582E5F03410D7
:105C8000F583E0FEA3E0C39DFFEE9C900C48F0A3DB
:105C9000EFF0AF0112CF9AAD07AC06900C48E0FED2
:105CA000A3E0FFD39DEC6480F8EE6480985014C3A9
:105CB000E49DFBE49CFAC3EF9BEA6480F8EE648009
:105CC00098502F900C47E0FF75F002A4241FF58236
:105CD000E5F03410F583E0FCA3E0FD75F002EFA4DD
:105CE00024B9F582E5F03410F583ECF0A3EDF00271
:105CF0005DCBECA2E713FEED13FF900C48E0FAA396
:105D0000E0FBD39FEE6480F8EA648098501CECA21C
:105D1000E713FEED13FFC3E49FFFE49EFEC3EB9F7A
:105D2000EE6480F8EA648098503E900C47E0FD7580
:105D3000F002A424B9F582E5F03410F583E0FAA36B
:105D4000E0FBEAC313FEEB13FFC3EB9FFBEA9EFAF3
:105D500075F002EDA4241FF582E5F03410F583E020
:105D6000C313FEA3E0138047900C47E0FD75F002DB
:105D7000A424B9F582E5F03410F583E0FAA3E0FB42
:105D8000AE027803CEC313CE13D8F9FFC3EB9FFB4B
:105D9000EA9EFA75F002EDA4241FF582E5F03410B6
:105DA000F583E0FEA3E07803CEC313CE13D8F92B1E
:105DB000FFEA3EFE900C47E075F002A424B9F5829C
:105DC000E5F03410F583EEF0A3EFF0900C47E0FF20
:105DD00075F002A424B9F582E5F03410F583E0FCF7
:105DE000A3E0FD75F002EFA4241FF582E5F0341066
:105DF000F583ECF0A3EDF022900CB4129F8178BBF8
:105E00007C0C7D017BFF7AE179007E027F0012012C
:105E1000D0129F9D900EC1F0A3F0900CB4E0FFA3B0
:105E2000E0900EC3CFF0A3EFF0900EC1E0FEA3E030
:105E3000FF900CB9E0FCA3E0FDD39FEC9E40EA90FC
:105E40000EC3E05401FEA3E0FF900EBDEEF0A3EF01
:105E5000F0900EC2E02400FB900EC1E03402CBC3F0
:105E60009FFFEB9EFED3ED9FEC9E4074129FA54ECC
:105E70006006129F3D125F79129F90129FA5C3E4A6
:105E80009FFF7402129FB8501E129F597006900E09
:105E9000BFE004F0129FAE900EBCE004F0700690DC
:105EA0000EBBE004F080D4125F4B900ECA129F4CE0
:105EB00012BE4F129FA5C3E49FFF74029EFE900E78
:105EC000C2E02FF0900EC1E03EF0900EC4E02FF043
:105ED000900EC3E03EF07F057E0012CA89025E2963
:105EE000129FA5C3129F3D125F79129F90900EC121
:105EF000E0FEA3E0FFC3900CBAE09FFF900CB9E076
:105F0000129FB8501E129F597006900EBFE004F009
:105F1000129FAE900EBCE004F07006900EBBE00441
:105F2000F080CA125F4B7B017A0C79BB900ECA12CB
:105F30009F5212BE4F900CB9E0FFA3E0900EC1CF6C
