:030000000273196F
:03000B000291213E
:0300130002954C07
:03001B000289C592
:0300330002A0F038
:03004B000291E13E
:03005B0002930FFE
:03006B00029434C8
:03007B00028C767E
:03008300028BD815
:03008B00029913C4
:1001000090053CE06003020738122605901139EF94
:10011000F0F46003129957900578E0121EE901701F
:100120000002560102970202F10503250603610B46
:1001300004170C04250D04300E045A0F0468100433
:100140007212048C1304991404C31504E61604F9FE
:100150001705231A06721C054F1D05871F07252743
:10016000059A2806D12C05FB2D06BB2E000007386A
:10017000901139E0FF640D6011EF641B700C900565
:1001800078741AF090052A7403F0900549E0FF6432
:1001900007600302022D12244E5033EF6407600300
:1001A00002073890115604F074101222DD12258EC9
:1001B000122569500E74452E122312900C44E0044F
:1001C000F080ED9005497408F07F0102971F12231B
:1001D0008E70217F0112971F90019D122398BEFF00
:1001E00006BFFF03E4F022E4900541F0A3F0900580
:1001F0004604F022901139E0640B60030207389046
:10020000019D1222A070137F0112971F9005787430
:100210001FF0E49004551225B52212999A90053FDB
:10022000E4F0A37496F09005787420F022901139D0
:10023000E0FFF47003020738EF640C700302073824
:100240001225B6900549E0640960030207387F0172
:1002500012971F02059212244070030204541224C4
:1002600047700302051D1225EA70030204BD9011B8
:1002700039E06404700302058112238E60030207D3
:10028000381207E21222FF7F60129F977F647E0080
:1002900012A13FE40206CC901139E0FF6401600A2C
:1002A000EF64026005EF64037004E41207E21224B5
:1002B00040700E120739E4900576F090057802033D
:1002C00052122447700E120739E4900576F090051B
:1002D000780204B01225EA700D1207461225AE907E
:1002E0000578740EF02212238E6003020738020490
:1002F00011122440700F1207469005787412F0E432
:1003000090016FF022122447701012075390057865
:100310007414F090052E740AF02212238E600302EA
:100320000738020411122440700912075312251ACB
:1003300004F022122447700912076012251A0206DF
:10034000B71225EA70101207609005787417F090C4
:10035000067E740FF02212238E6003020738020417
:1003600011E4900C45F0E024011223DEB5070EECF9
:10037000B5060A12076D900578741D8018900C451B
:10038000E024021223DEB50710ECB5060C12076D4F
:10039000900578742DF0E4803E900C45E024031223
:1003A00023DEB50714ECB5061012077A90057874B1
:1003B00028F0E490060AF0801E900C45E024041218
:1003C00023DEB5071CECB5061812077A9005787481
:1003D0001CF0E4900658F0901142F0901141020593
:1003E00041900C45E024051223DEB5071CECB50650
:1003F00018120787900578741AF0E490052AF09097
:100400001142F09011410206B712238E60030207D9
:1004100038120787029FB3900576E06401600302FB
:1004200007380204F112253D60030207380204F187
:1004300090067BE064086003020738122510700BF9
:1004400090067CF090067B7409F022EF640A4E60FF
:100450000302073812079402A0DB900576E06401DE
:1004600060030207380204F112253D6003020738D9
:10047000807F90016FE064017008901139E0FF12F5
:10048000822812238E600302073880319001E1E058
:1004900064016003020738805890052EE0640B6009
:1004A00003020738122510700B90052FF090052ECF
:1004B000740CF022EF640A4E6003020738120794AE
:1004C00002A0E9900579E06401700280249005792A
:1004D000E064037003020592900579E06404600310
:1004E000020738020592900590E06401600302075C
:1004F00038901139E0FF02822890067EE064106097
:1005000003020738122510700B90067FF090067ECC
:100510007411F022EF640A4E60030207381207A13B
:1005200002A0E290052AE0640160030207389011FE
:1005300039E0640B700F1207A1E490052BF09005D1
:100540002A7403F02212238E6003020738803212CD
:100550002440700D7AA9791B1207AEE49001EB805C
:100560001112244770137AA9791E1207AE9001EB7D
:1005700074FFF01297D802066F12238E60030207F1
:10058000381207BB02066F900455E0640160030255
:100590000738901139E0FF02072290060AE0640153
:1005A000600302073812244070139000F8F09006A0
:1005B0000A7402F07BFF7AA9794502068C1224475F
:1005C00070289000F804F090060A04F012901AEFD8
:1005D0003395E04F70087F7A129F970207317BFFB7
:1005E0007AA97948128E7902073112238E600302AC
:1005F00007381207BB90060A0206B7122440701A89
:100600009000F9122398BEFF08BFFF05E4F0129B8B
:10061000597AA979331207C880551224477045903A
:1006200000F91222A0703474FFF0E4900532F0A3B8
:10063000F0900536F0A3F012977DEF2412FEE4331C
:10064000900534F0A3CEF0900538E4F0A37408F0E0
:1006500090053C7402F0E490053BF07AA9793612DB
:1006600007C8800B12238E60030207381207D502D9
:100670009FC1900658E064016003020738122440CD
:1006800070109006591225F17AA9795A128E7902C2
:100690000731122447701290065974FF1225F17A1F
:1006A000A9795D128E7902073112238E6003020749
:1006B000381207D59006587402F022901139E0FFE5
:1006C000640B6005EF640A706F1222FF900578F0EA
:1006D00022900549E0FF6407703812244E502FEF36
:1006E0006407705490115604F09011557410122242
:1006F000E012258E122569500E74452E1223129099
:100700000C44E004F080ED9005497408F0221223B7
:100710008E22901139E0FFF4601E900549E06409D3
:100720007016027A18901139E0F4600C7F30129F35
:10073000977F647E0012A13F227F0112971F7F6482
:100740007E0012A13F227F0112971F7F647E00125C
:10075000A13F227F0112971F7F647E0012A13F22DA
:100760007F0112971F7F647E0012A13F227F01123A
:10077000971F7F647E0012A13F227F0112971F7F87
:10078000647E0012A13F227F0112971F7F647E00CA
:1007900012A13F227F0112971F7F647E0012A13FAA
:1007A000227F0112971F7F647E0012A13F227BFFF0
:1007B000128E797F647E0012A13F227F0112971F63
:1007C0007F647E0012A13F227BFF128E797F647EC0
:1007D0000012A13F227F0112971F7F647E0012A1A9
:1007E0003F229001F3F07F01127CCD22900C60EF4C
:1007F000F0E4900C68F0900C60E0FF25E02424F811
:10080000E6FC08E6FD75F002EFA42438F582E5F079
:100810003410F583E0FEA3E0C39DFFEE9C900C61D5
:10082000F0A3EFF0E47F01FEFDFC900C60E0F9F82E
:10083000121E588F0F8E0E8D0D8C0CAF0112A09CC6
:10084000900C66EEF0A3EFF0C3900C62E09FEE64B4
:1008500080F8900C61E06480984008900C6374010B
:10086000F08005E4900C63F0900C63E06401600399
:10087000020A68900C60E0FF2450F582E43410F521
:1008800083E0C394FA74809480500D74502FF582E5
:10089000E43410F583E004F0E50B550FFFE50A554D
:1008A0000EFEE509550DFDE508550CFCE4FBFAF9D3
:1008B000F8C3121E346003020A2E90101CE0900C44
:1008C00065F012A12DEF6047E4900C63F0A3F09067
:1008D0000C64E0FFC39510502274502FF582E4346D
:1008E00010F583E0C39401748094804006900C63FB
:1008F000E004F0900C64E004F080D4900C63E0C35A
:100900009403748094804007900C65E0240FF0906D
:100910000C60E02450F582E43410F583E0FF900C85
:1009200065E0FEEFC39E5003020A2EE4900C63F0D4
:1009300012A07CEF60030209BB900C64F0900C6481
:10094000E0FFC39510502C900C60E06F601D12A06A
:1009500021900C64E02450F582E43410F583E0C368
:100960009F4008900C637401F08008900C64E004D0
:10097000F080CA12A12DEF3395E04F6003020A0CFC
:10098000900C63E06003020A0CA3F0900C64E0FF9B
:10099000C395105077900C60E06F601712A0219003
:1009A0000C64E0245CF582E43410F583E0C39F40DE
:1009B000028053900C64E004F080D012A12DEF333C
:1009C00095E04F7047900C65F0900C64F0900C64CB
:1009D000E0FFC39510502274502FF582E43410F5D7
:1009E00083E0C39402748094804006900C65E00418
:1009F000F0900C64E004F080D4900C65E0C39403A4
:100A0000748094804006900C637401F0900C63E055
:100A100064017002D214E50B450FF50BE50A450E93
:100A2000F50AE509450DF509E508450CF508900CB2
:100A300060E0FF248EF582E43410F583E4F074EA7C
:100A40002FF582E43410F583E4F075F002EFA4246E
:100A500076F582E5F03410F583E4F0A3F0741F2FEF
:100A6000F582E43410020DF7900C60E0FF129DADAA
:100A7000900C61E0FCA3E0FDD39FEE6480F8EC6491
:100A800080984012900C60E0245CF582E43410F50C
:100A900083E004F080159011B4E004F0900C60E065
:100AA000245CF582E43410F583E4F09010D1E0FF8B
:100AB0003395E0FEC3E49FFBE49EFAC3ED9BEA643A
:100AC00080F8EC6480985003020BC0D3900C62E075
:100AD0009FEE6480F8900C61E06480984003020B04
:100AE000C0900C60E0FF248EF582E43410F583E4BE
:100AF000F0741F2FF582E43410F583E4F0FFFEFD5F
:100B0000FCAB0BAA0AA909A808C3121E3460030291
:100B10000CFC900C61E0FEA3E0FF900C60E075F02F
:100B200002A42476F582E5F03410F583EE8FF012FE
:100B30001C5A12A000900C60E075F002A42476F517
:100B400082E5F03410F583E0FCA3E0C39FEE6480FF
:100B5000F8EC6480984013900C60E0FF25E02424BA
:100B6000F80806E618704306804012A000C3E49F10
:100B7000FFE49EFE900C60E075F002A42476F582FE
:100B8000E5F03410F583E0FCA3E0C39FEE6480F849
:100B9000EC6480984003020CFC900C60E0FF25E0C0
:100BA0002424F808E6161870011675F002EFA42444
:100BB00076F582E5F03410F583E4F0A3F0020CFC46
:100BC0009010D1E0FF3395E0FEC3E49FFFE49EFE6A
:100BD000C3900C62E09FEE6480F8900C61E064804A
:100BE000984003020C72900C60E0FF248EF582E4C2
:100BF0003410F583E004F0741F2FF582E43410F50F
:100C000083E4F0748E2FF582E43410F583E0FF75F1
:100C1000F00A84E5F07046C3EF9464748094809089
:100C20000C60E04014248EF582E43410F583E4F087
:100C3000D2159010F604F0802425E02424F8C0009A
:100C4000E6FE08E6FF9010D1E0A2E713FD3395E041
:100C5000FCC3EF9DFFEE9CD000F608A607900C6049
:100C6000E0FF9011ADE06F6003020CFC74FFF00236
:100C70000CFC9010D1E0FF3395E0FED3900C62E0C5
:100C80009FEE6480F8900C61E0648098406E900C58
:100C900060E0248EF582E43410F583E4F0FFFEFD7D
:100CA000FCAB0BAA0AA909A808C3121E34704D9008
:100CB0000C60E0FF241FF582E43410F583E004F0BB
:100CC000741F2FF582E43410F583E06420702D90BA
:100CD0000C60E0FF241FF582E43410F583E4F0900B
:100CE00010D1E0A2E713A2E713FD3395E0FCEF2556
:100CF000E02424F808ED26F618EC36F6E50B550F3F
:100D0000FFE50A550EFEE509550DFDE508550C4DAC
:100D10004E4F7003020E0D900C66E0FCA3E0FDAE9A
:100D2000047802CEA2E713CE13D8F8FFC3ED9FFFDD
:100D3000EC9EFEC3900C62E09FEE6480F8900C6124
:100D4000E06480984003020DFC900C60E024EAF51A
:100D500082E43410F583E004F012A084900C65EF77
:100D6000F0E4900C64F0900C64E0FFC39510502206
:100D700074502FF582E43410F583E0C3940174803D
:100D800094804006900C63E004F0900C64E004F062
:100D900080D4900C63E0C3940374809480400890E6
:100DA000101CE0900C65F0900C60E0FB24EAF582EA
:100DB000E43410F583E0FF900C65E0FEEFC39E5035
:100DC00003020E7C74EA2BF582E43410F583E4F020
:100DD000AF0FAE0EAD0DAC0C121E27E50B5FF50B81
:100DE000E50A5EF50AE5095DF509E5085CF50874B4
:100DF000502BF582E43410F583E4F022900C60E08F
:100E000024EAF582E43410F583E014F022900C60BB
:100E1000E02450F582E43410F583E4F0FFFEFDFC9D
:100E2000AB0BAA0AA909A808C3121E347008900CBB
:100E300060E0FF12727AE51014FF900C60E06F70B2
:100E40003B9011B4E0C395104032E4900C64F090F4
:100E50000C64E0FFC39510501B74502FF582E434EE
:100E600010F583E06006900C637401F0900C64E070
:100E700004F080DB900C63E07002C214224411BCC9
:100E8000000000004211C00000C10FC10CC10DC123
:100E90000EC110C111C112C1134111D5024111D6A9
:100EA000004110F600C103C102C100C101C104012B
:100EB00054004110370042107400004111B200C1CB
:100EC000164111D900C117C118C109C106C10AC113
:100ED00007C10BC1084111BB0044117100000000A3
:100EE0005811590400800000080004400000200050
:100EF00010200000400080100001004610F9FFFFA4
:100F0000FFFFFFFF6400083D00000000000000003C
:100F100000000000000000000000000000000000D1
:100F200000000000000000000000000000000000C1
:100F300000000000000000000000000000000000B1
:100F400000000000000000000000000000000000A1
:101300000000000000000000561175736C5F6765F7
:101310006E657269635F76312E302E302E30303735
:101320000042119E000041118B004211CC0000418F
:101330001139FFC1194111AB004A11A1112233002B
:1013400000000000000061310EEB00000000808012
:10135000800000000000000000000000000000808D
:10136000C0E0F0F8F8F8FCFCFCFCFCF8F8F8F0E061
:10137000C08000000000000000000000000000002D
:101380008080800000000080F07C0F03C1F03C0EE4
:1013900082E0781800000000C0F0FCFFFFFFFFFFB4
:1013A000FFFFFFFFFFFFFFFFFFFFFFFFFFFFFFFF4D
:1013B000FCF8C0000000001878E0820E3CF0C1018B
:1013C0000F7EF080031FFCE000071F78E0830F3CD6
:1013D000300000C0FCFFFFFFFFFFFFFFFFFFFFFF2C
:1013E000FFFFFFFFFFFFFFFFFFFFFFFFFFFFFFFF0D
:1013F000FCE00000303C0F83E0781F0780E07C1F9A
:1014000003000000010303020000000000F0FCFFE5
:101410009F0F07030303010101013078FCFCFCFC72
:10142000FCFCFC783001010101030303070F9FFF5F
:10143000FCF00000000000020303010000000000B7
:1014400000000000000000000000000307070F0E6E
:101450001C1C3C3838387070707070707070707010
:10146000707070383838381C1C1E0F0707030000D6
:10147000000000000000000000000000900042E4B6
:10148000121CDD900CCEE0FBA3E0FAA3E0900CD997
:10149000F9E0FEA3E0F5828E83121B5CFF900CCB7B
:1014A000E0FBA3E0FAA3E0F9229000FC75F01DED4B
:1014B000121EDDEC75F01DA42583F58322E4F0A354
:1014C000F0A3F0A3F0A3F0A3F0A3F0A3F0A3F0A384
:1014D000F022900CBBE0FEA3E0FF7C007D1D121B00
:1014E000BD900CD274062FF974013EFA7B01E4F032
:1014F000A322900CBBE0FEA3E0FF7C007D1D121B2D
:10150000BD900CD274092FF974013EFA7B01E4F00E
:10151000A3227D1D121BBD900CD274FB2FF9740009
:101520003EFA7B01E4F0A3227D1D121BBD900CD27C
:1015300074FF2FF974003EFA7B01E4F0A3227D1DB5
:10154000121BBD900CD274032FF974013EFA7B017B
:10155000E4F0A322900CBBE0FEA3E0FF7C007D1D25
:10156000121BBD74352FF97401900CD23EFA7B0129
:10157000E4F0A322900EE3E47B017A017918F0A352
:1015800022900CBBE0FEA3E0FF7C007D1D021BBD92
:101590007B017A017943E4F0A3227B017A0179602F
:1015A000E4F0A3227B017A01793DE4F0A3227B01E0
:1015B0007A01795AE4F0A322E47B017A017945F0BB
:1015C000A322E0F9A3E0FAA3E0900CC7C9F0A3EAD4
:1015D000F0A3E9F022900001121B5CFF900028E4C8
:1015E0008FF0121CDD900002121B5CFF90002AE4B9
:1015F0008FF0121CDD900003121B5CFF90002CE4A6
:101600008FF0121CDD900004121B5C90002EFFE492
:101610008FF0021CDDE47B017A017962F0A322EFF6
:10162000F0AF037C007D64AE02121BCF7F0A7E0008
:10163000CFCDCFCECCCE021BCFE47B017A0079FB9D
:10164000F0A322900010E475F001121CDD900CC58F
:10165000E4F0A304F0900CBDE0FCA3E0FD7F017E6C
:101660000022E47B017A0079FFF0A322E47A017979
:10167000067B01F0A37403F022E0FBA3E0FAA3E0F1
:101680004A4B22E47B017A01791CF0A322E47B011E
:101690007A017923F0A322E47B017A017909F0A38E
:1016A00022900CD1E0FEA3E0900CD5FFE0FCA3E07B
:1016B000FD22E47B017A017926F0A322E47B017A02
:1016C000017903F0A32275F00AA42DFFE5F03CFE9A
:1016D000121B5C7C002FFFEC3E9000158FF0121C5B
:1016E000DD900044121C86640145F022E47B017AFF
:1016F000017920F0A322900CBBE0FEA3E0FF64017F
:101700004E22EEF0A3EFF0E4A3F0A3F0EF4E22128E
:101710001B5CFF7E007C037DE8121BBDAC06AD07A1
:10172000227C002FFFEC3EFEF0A3EFF022CFF0A3CF
:10173000EFF07B017A0C796E22FF121B5CFD12A088
:1017400059AE07900CB722EEF0A3EFF0900CBDE07D
:10175000FEA3E0FF229400CF2401FBE43FFAE0FE69
:10176000A3E0FF7C00227B01900EE3E4F0A322FFC4
:10177000E0FD129F79900CB722121B5CFFAD0612A0
:101780009F79900CB72275F00AA42DFFE5F03CFE7E
:1017900075F01DEB121EDDEA2290000E021C8690F1
:1017A0000CD5E0FEA3E0FFC322121B5C75F064A41D
:1017B0002DFDEC35F0FC22900CD2E024FFFE900CC5
:1017C000D1E0900CD534FFF0A3CEF022900CDDE0F8
:1017D000FEA3E0FFED6F22900005EF121B9B90002F
:1017E00006021B5C7B01900CD2F0A37404F02290E3
:1017F0000002EF121B9B900003021B5C900008EF9D
:10180000121B9B900009021B5C900C5CE0F9A3E0AA
:10181000FAA3E022E0FEA3E0FFF5828E83021B5CC8
:10182000E0FCA3E0F5828C83EF021B9BFFE0FD123E
:10183000A059900CE722FFE0FCA3E0FDC39FEC223F
:101840007C002FFFEC3EFEF0A3EFF0229000171279
:101850001C86FFC3900CC6E09F900CC5E095F0225B
:101860008D828C83121B5CFF22E4F0A3F0A3F02294
:10187000EFF0900007021B5C7D0A121BCFAF05AE94
:1018800004AD03AC02021BCFF0900008021B5CF019
:10189000900005021B5CFB75F01D121EDDEA229014
:1018A0000010E475F001121CDD900CC6E004F0227B
:1018B000900012021B5C900013021C86A3ECF0A3A4
:1018C000EDF0227C277D10021BCF7403F07F37FEE2
:1018D000227404F07FA67E03227404F07F327E031C
:1018E000227404F07F427E03227402F07F3F7E0365
:1018F000227402F07F4F7E0322FC7D1D021BBD90EF
:101900000015021C86900C5FE0FFA3E0900CBBCF9B
:10191000F0A3EFF0227D017BFF7E00021B1D9000F3
:1019200003EF121B9B900004121B5CFF22900CD64D
:10193000E024FFF0900CD5E034FFF022900001EF9E
:10194000121B9B900002021B5CF090000A021B5CC1
:10195000900017121C86FF900CC9E065F022FFE092
:10196000FD12A059900CB722E4F0A3F0A3F022746A
:1019700003F07F4BFE227403F07F47FE22900CBBE6
:10198000FFE0FCA3E0FD2275F064A42BFFE5F03A34
:10199000FEA3E022900010E4F5F022E0FBA3E0FAC1
:1019A000A3E0227C007D0A021BCF740CF07F737EC3
:1019B0000322740CF07F857E03227404F07FA07EE6
:1019C0000322EFF090000C021B5C900CCBE0FCA318
:1019D000E022A3F0A37401F0A322FF900CCAE5F06B
:1019E000F0A3EFF02274FF2DF58274FF3CF5832203
:1019F000F58274FF3EF583021B5C900CD9E0FCA3DA
:101A0000E0FDEF6D2224FFF58274FF35F0F58322AF
:101A10007B01900CD2F0A37403F022A3F0A3F0900A
:101A20000CD2227B01900CD2E4F0A304F022F090BF
:101A3000000B021B5CEF121B9B7F0122F58374FFDE
:101A4000F00F22FFAEF0C39410EE942722E709F6C0
:101A500008DFFA8046E709F208DFFA803E88828CC8
:101A600083E709F0A3DFFA8032E309F608DFFA80A2
:101A700078E309F208DFFA807088828C83E309F04A
:101A8000A3DFFA806489828A83E0A3F608DFFA8004
:101A90005889828A83E0A3F208DFFA804C80D280E2
:101AA000FA80C680D4806980F28033801080A6805E
:101AB000EA809A80A880DA80E280CA803389828AAC
:101AC00083ECFAE493A3C8C582C8CCC583CCF0A349
:101AD000C8C582C8CCC583CCDFE9DEE7800D89822A
:101AE0008A83E493A3F608DFF9ECFAA9F0EDFB2270
:101AF00089828A83ECFAE0A3C8C582C8CCC583CCAE
:101B0000F0A3C8C582C8CCC583CCDFEADEE880DBA1
:101B100089828A83E493A3F208DFF980CC88F0EF0E
:101B200060010E4E60C388F0ED2402B4040050B989
:101B3000F582EB2402B4040050AF232345822390A6
:101B40001A9D73BB010689828A83E0225002E72234
:101B5000BBFE02E32289828A83E49322BB010CE567
:101B60008229F582E5833AF583E0225006E9258251
:101B7000F8E622BBFE06E92582F8E222E58229F595
:101B800082E5833AF583E49322BB010689828A8346
:101B9000F0225002F722BBFE01F322F8BB010DE553
:101BA0008229F582E5833AF583E8F0225006E9259B
:101BB00082C8F622BBFE05E92582C8F222EF8DF02D
:101BC000A4A8F0CF8CF0A428CE8DF0A42EFE22BCC9
:101BD000000BBE0029EF8DF084FFADF022E4CCF8BD
:101BE00075F008EF2FFFEE33FEEC33FCEE9DEC9822
:101BF0004005FCEE9DFE0FD5F0E9E4CEFD22EDF8A8
:101C0000F5F0EE8420D21CFEADF075F008EF2FFF4A
:101C1000ED33FD4007985006D5F0F222C398FD0F32
:101C2000D5F0EA22C2D5EC30E709B2D5E4C39DFD78
:101C3000E49CFCEE30E715B2D5E4C39FFFE49EFEC2
:101C4000121BCFC3E49DFDE49CFC8003121BCF302C
:101C5000D507C3E49FFFE49EFE22C5F0F8A3E02869
:101C6000F0C5F0F8E582158270021583E038F022A5
:101C7000A3F8E0C5F025F0F0E58215827002158327
:101C8000E0C838F0E822BB0110E58229F582E5833F
:101C90003AF583E0F5F0A3E0225009E92582F886C1
:101CA000F008E622BBFE0AE92582F8E2F5F008E238
:101CB00022E5832AF583E993F5F0A3E99322BB019A
:101CC0000A89828A83F0E5F0A3F0225006F709A77B
:101CD000F01922BBFE06F3E5F009F31922F8BB0167
:101CE00011E58229F582E5833AF583E8F0E5F0A372
:101CF000F0225009E92582C8F608A6F022BBFE09A9
:101D0000E92582C8F2E5F008F222E88FF0A4CC8B36
:101D1000F0A42CFCE98EF0A42CFC8AF0EDA42CFCA1
:101D2000EA8EF0A4CDA8F08BF0A42DCC3825F0FDE0
:101D3000E98FF0A42CCD35F0FCEB8EF0A4FEA9F0D9
:101D4000EB8FF0A4CFC5F02ECD39FEE43CFCEAA425
:101D50002DCE35F0FDE43CFC2275F008758200EFD5
:101D60002FFFEE33FECD33CDCC33CCC58233C582CD
:101D70009BED9AEC99E58298400CF582EE9BFEED86
:101D80009AFDEC99FC0FD5F0D6E4CEFBE4CDFAE455
:101D9000CCF9A88222B800C1B90059BA002DEC8B49
:101DA000F084CFCECDFCE5F0CBF97818EF2FFFEE25
:101DB00033FEED33FDEC33FCEB33FB10D7039940DE
:101DC00004EB99FB0FD8E5E4F9FA227818EF2FFF1E
:101DD000EE33FEED33FDEC33FCC933C910D7059B60
:101DE000E99A4007EC9BFCE99AF90FD8E0E4C9FABC
:101DF000E4CCFB2275F010EF2FFFEE33FEED33FD48
:101E0000CC33CCC833C810D7079BEC9AE899400A6A
:101E1000ED9BFDEC9AFCE899F80FD5F0DAE4CDFBE8
:101E2000E4CCFAE4C8F922CFF4CFCEF4CECDF4CD91
:101E3000CCF4CC22EB9FF5F0EA9E42F0E99D42F013
:101E4000E89C45F022E8600FECC313FCED13FDEEB7
:101E500013FEEF13FFD8F122E8600FEFC333FFEE5C
:101E600033FEED33FDEC33FCD8F1227401FF3395E2
:101E7000E0FEFDFCA3A3A3E0CF2FF0E58215827066
:101E8000021583E0CE3EF0E582158270021583E0F4
:101E9000CD3DF0E582158270021583E0CC3CF02246
:101EA000ECF0A3EDF0A3EEF0A3EFF022A88285837F
:101EB000F0D083D082121EC3121EC3121EC3121E84
:101EC000C3E473E493A3C583C5F0C583C8C582C8C2
:101ED000F0A3C583C5F0C583C8C582C822A42582E6
:101EE000F582E5F03583F58322D083D082F8E49340
:101EF0007012740193700DA3A393F8740193F5828B
:101F00008883E4737402936860EFA3A3A380DF90D7
:101F10000CCBEB1215CDE4900CD31214CA900CD15B
:101F2000E0FCA3E0FD900CD7ECF0A3EDF012149DC3
:101F30001218B625E0FBE5F033FAED24FAFFEC3495
:101F4000FFFE7C007D05121BCF90A15375F0C8EDFC
:101F5000121EDDEC75F0C8A42583F583E5822BF510
:101F600082E5833AF583E493FE740193FBAA067C31
:101F7000007D64FF121BCF900CD9EEF0A312161F48
:101F8000A3EEF0A3EFF0AE02AF031219A31218BC38
:101F9000E41214C9900CD1E0FCA3E0FD24F5FEECA2
:101FA00034FF900CE3F0A3CEF0900CCB12167970B6
:101FB00002FF2212149D1218B6FFAEF0D39400EE69
:101FC00094004008EF9464EE940040037F00229058
:101FD0000CD71217A29406EE94004009D3EF940C8C
:101FE000EE940040037F0022C002C001900CCE128C
:101FF000180C900CEA1215CC1218BCD001D00212A9
:102000006920900CE31217A2EE9400405BD3EF948A
:1020100002EE94005052900CDAE09F900CD9E09EB2
:10202000500CA3E0240AF0900CD9E03400F0D390D7
:102030000CDCE09F900CDBE09E500CA3E0240AF047
:10204000900CDBE03400F0900CE3E0FEA3E0FFD363
:10205000900CDEE09F900CDDE09E500CA3E0240A83
:10206000F0900CDDE03400F0900CD5E4F0A304F027
:102070001216A1D39FEC9E5035900CD91217CF7039
:1020800002EC6E6019A31217CF7002EC6E600FA302
:102090001217CF7002EC6E60051218BC8010900C05
:1020A000D6E004F070CA900CD5E004F080C2E49051
:1020B0000CD5F0A3F01216A1C39FEC9E5026900CF5
:1020C000CE1214A0121860900CD4E02FF0900CD314
:1020D000E03400F0900CD6E004F070D9900CD5E01C
:1020E00004F080D112149D1218B06406600302211E
:1020F000D0900CE5F0A3F01217B712179FEE9400E2
:1021000040361219FA7002EE6C6028A31216A46F02
:102110007002EC6E601D1217CC7002EC6E6014A39E
:102120001217CF7002EC6E600A900CE5ECF0A3ED94
:10213000F0800512192D80C212149D1215D51218A7
:102140009090003012160E75F00512147C90002845
:10215000121C866F7002E5F06003022290900CCE94
:1021600012199B900CDB12149090002A121C866F9F
:102170007002E5F06003022290900CCE1214A09041
:102180000CDD12149190002C121C866F7002E5F089
:102190006003022290900CCE1214A0900CDF121457
:1021A0009190002E121C866F7002E5F060030222EF
:1021B00090900CCE1214A0900CE512149190003067
:1021C000121C866F7002E5F06003022290022273F7
:1021D00012149D1218B06407600302227B1217B715
:1021E00012179FEE940040271219FA7002EE6C60ED
:1021F00019A31216A46F7002EC6E600E1217CC7049
:1022000002EC6E60051218BC800512192D80D112E7
:10221000149D1215D575F00412147C900028121C20
:10222000866F7002E5F07068900CCE1214A0900CCE
:10223000DB12149190002A121C866F7002E5F07078
:102240004F900CCE1214A0900CDD12149190002C23
:10225000121C866F7002E5F07036900CCE1214A03E
:10226000900CDF12149190002E121C86B50721E409
:10227000B5F01D90004475F001801212149D90007D
:1022800042E4F5F0121CDD900044E4F5F0121CDD90
:1022900012149D1216E17F0070027F0122900654F5
:1022A000E0FF3395E0FEEF4E22900575E0FF14F05D
:1022B000EFC394017480948022E4900578F0900537
:1022C000497407F0E49001F4F090060D7407F022D1
:1022D0007404900579F0E4901156F0740C90115547
:1022E000F09011577401F022901141E0FFA3E0FE3D
:1022F000C39F22740E90058EF090058D74802290FD
:1023000005497407F090060DF0E49001F4F0227492
:10231000452FF582E43411F58374FFF022FF24FC8D
:10232000F58274FF3EF583ECF0A3EDF074FE2FF51B
:102330008274FF3EF5837401F074FF2FF58274FF01
:102340003EF5832290083B74FFF5F0121C5AFCC343
:10235000E5F09401EC9400229000F7E0FF7E00D3BA
:1023600094007480948022E4F09005787424F090B6
:1023700000F5E4F0A37480F022900576740CF090E0
:102380000468E0900577F09005757480F022901154
:1023900039E0640A229000EFE0FF3395E0FE2290DE
:1023A0001142E004F02290058CE024FFFF90058BA1
:1023B000E034FFFE22900C44E0FFC3940C74809440
:1023C000802290057B7402F0A37480F0900584E075
:1023D000640122F09000C8E4F0A3F0A3F022FFE42F
:1023E00033FE901139E07C0022900836F090083BD3
:1023F000E4F0A37440F022E49000CCF0A3742BF03E
:10240000A374F2F0229000CBC3E094057480948012
:1024100022FF24FCF58274FF3EF58374FFF0A3F0E5
:1024200074FE2FF58274FF3EF583E42290057B74E1
:10243000FFF5F0121C70FEC3E5F09401EE9400224B
:10244000901139E0640122901139E0640222901168
:1024500039E0FDC3940A748094802204F0E4901162
:1024600040F022901140E0FF7E00640222F0A3744D
:1024700001F07BFF7AA97968229005797413F0A3A3
:102480002290052AF090052C7440F0E422E0C394D9
:102490000474809480227E00900573EEF0A3EFF028
:1024A00024FFFFEE34FFFE2290058E740EF0A3741D
:1024B0000CF0E422F0A37403F0A37480F07D347F69
:1024C000482290113CE0FCA3E0FD90058BECF0A3CA
:1024D000EDF0229005497407F022E004F0900573B6
:1024E000E0FCA3E0FDAE0478022290058DE014F03C
:1024F00022900C44E004F022E075F004A42400F9DA
:1025000074A935F0FA7BFF22900836E0FF7E0022A6
:10251000901139E0FF7E00640B229005787415F06D
:10252000E4900579F0900584229000F8E06401229F
:102530007403F0E4900467F0901140F02290058E4F
:10254000E0640122900000F0A3F022900607E0640E
:102550000122E014F090058BE0FEA3E0780222A3B4
:10256000740EF0900609742622901155E0FF900C2D
:1025700044E0FEC39F22E024FFF09000F5E034FF2A
:10258000F02290058E7402F0E4900655F02290112E
:1025900045EDF0900C447401F022C39402748094D1
:1025A000802290057B7402F0A37480F022F09006E4
:1025B0007B7411F022F090019D74FFF02290057859
:1025C000F07F0122F0E4900607F0227B017A117976
:1025D0004522900594E06401227B037D037F032262
:1025E000E49000EDF0A3F0A3F022901139E0640331
:1025F00022F09006587402F07BFF22E4900C43F026
:10260000900C42F022128B2F900C46121EA0128FBB
:10261000AA6007128FC1A3121EA0C3900544E094C4
:1026200020900543E0940050037FFF2230190A12E6
:102630008FAA7002C2197FFF22128FC1125133205C
:10264000C207E4901198F0800690119874FFF01280
:102650008F92700990119DE0700302275A90118D9E
:10266000128F95700B90119DE06401700302276931
:1026700090118E128F95700B90119DE06402700383
:1026800002277990118F128F95700B90119DE06445
:1026900003700302278A901190128F95700B90118E
:1026A0009DE06404700302279B901191128F957036
:1026B0000B90119DE0640570030227AC90119212FB
:1026C0008F95700B90119DE0640670030227BD90FA
:1026D0001193128F95700B90119DE06407700302A7
:1026E00027CD901194128F95700B90119DE0640886
:1026F00070030227DD901195128F95700B90119D3C
:10270000E0640970030227ED901196128F95700B0B
:1027100090119DE0640B70030227FD901197128FBA
:1027200095700B90119DE0640A700302280D9011C2
:1027300098128F95700B90119DE0640D7003022824
:102740001D90119C128F95700CA3E0640C70069084
:1027500011A0022830128F9270079011A0F0022869
:102760003890118D128F9570089011A004F00228F6
:102770003890118E128F9570099011A07402F0029A
:10278000283890118F128F9570099011A07403F062
:10279000022838901190128F9570099011A074043E
:1027A000F0022838901191128F9570099011A07441
:1027B00005F0022838901192128F9570089011A0A0
:1027C0007406F08073901193128F9570089011A089
:1027D0007407F08063901194128F9570089011A087
:1027E0007408F08053901195128F9570089011A085
:1027F0007409F08043901196128F9570089011A083
:10280000740BF08033901197128F9570089011A07F
:10281000740AF08023901198128F9570089011A07F
:10282000740DF0801390119C128F959011A070057B
:10283000740CF0800374FFF09011A0E0FF90067A12
:10284000F0F470030228C890119DE0FD9011A0E003
:10285000FC6D6015EF640D900C4E6004ECF080038D
:1028600074FFF090119DEC8079D390119FE094C09B
:1028700090119EE09400500FA3E004F070069011B8
:102880009EE004F0128FD090119EE0FEA3E0FFD3F3
:102890009460EE9400402CEF94C0EE9400400EA3A0
:1028A000E0640D7008900C4E741BF08003128FD002
:1028B00090118BE004F0D3947F748094804029E4DD
:1028C000F08025128FD0802090119DE0FF640D9044
:1028D0000C4E7004EFF0800374FFF09011A0E090B4
:1028E000119DF0E4A3F0A3F0900C4EE0FF227A01DA
:1028F00079351217667404F07FAD7E03128DA390B4
:102900000135E0F4600FA3E0F4600AA3E0F4600591
:10291000A3E0F47017E49001351214CA900CD2129F
:10292000163A7404F07FAD7E031247641215747476
:1029300004F07FB47E03128DA3900152E0F4600F87
:10294000A3E0F4600AA3E0F46005A3E0F47015E4EA
:102950009001521214CA7A0179521217E47FB47EA0
:10296000031247647A0179391217667404F07F52B2
:102970007E03128DA3900139E0F4600FA3E0F460B0
:102980000AA3E0F46005A3E0F47015E490013912A5
:1029900014CA7A0179391217E47F527E0312476410
:1029A0007B017A0179561217687404F07F627E0306
:1029B000128DA3900156E0F4600FA3E0F4600AA327
:1029C000E0F46005A3E0F47017E49001561214CA15
:1029D0007B017A0179561217E67F627E0312476403
:1029E0007B017A0179401217687403F07F5BFE1255
:1029F0008DA3900140E0F4600AA3E0F46005A3E039
:102A0000F470139001401218697A017940121A107B
:102A10007F5BFE1247647B017A01795D121768744F
:102A200003F07F6BFE128DA390015DE0F4600AA3BA
:102A3000E0F46005A3E0F4701390015D1218697A68
:102A400001795D121A107F6BFE124764900EE3123B
:102A500015907402F07F5F7E03128DA3900143E016
:102A6000F46005A3E0F47010900CD212159074027B
:102A7000F07F5F7E03124764900EE312159A740292
:102A8000F07F6F7E03128DA3900160E0F46005A3D8
:102A9000E0F47010900CD212159A7402F07F6F7EE1
:102AA00003124764900EE31215A41218CA128DA3E4
:102AB00090013DE0F4600AA3E0F46005A3E0F47047
:102AC0000F900CD21215A47403F07F57FE124764C6
:102AD000900EE31215AE7403F07F67FE128DA39083
:102AE000015AE0F4600AA3E0F46005A3E0F4700F7B
:102AF000900CD21215AE7403F07F67FE12476490FB
:102B00000EE31215B81219AA128DA3900145E0F434
:102B10006037A3E0F46032A3E0F4602DA3E0F4603A
:102B200028A3E0F46023A3E0F4601EA3E0F460199E
:102B3000A3E0F46014A3E0F4600FA3E0F4600AA340
:102B4000E0F46005A3E0F470129001451214BD1288
:102B50001A1B1215B91219AA124764900EE3121625
:102B6000151219B2128DA3900162E0F46037A3E050
:102B7000F46032A3E0F4602DA3E0F46028A3E0F455
:102B80006023A3E0F4601EA3E0F46019A3E0F46006
:102B900014A3E0F4600FA3E0F4600AA3E0F460057E
:102BA000A3E0F47013E49001621214BE121A1B1217
:102BB00016161219B212476422900579E0707390CC
:102BC00000D2E0701D900584E0640270159000D57D
:102BD000E0700F1224797407F0A31223727F3E0273
:102BE0009F97900584E0FF7E006401700E9000D5F1
:102BF000E012259A50028001C35018EF64024E7013
:102C0000289000D4E0C3940874809480500280011E
:102C1000C340161224797406F0A31223727F58124F
:102C20009F977F647E0002A13F9005797401122472
:102C30005C22900579E06401703F7403F0E4901128
:102C4000401223CB7005129CC48003129C91900506
:102C50007DEFF01222D6E4900C44F01223B5500818
:102C600012230F1224F180F31223C27B5270047DD1
:102C70004C80027D4E7F66806C900579E064036035
:102C800003022D0C901157E064027073901156D31B
:102C90001224094053E4900C44F0900C44E01223B9
:102CA000BA501EE0FF2445F582E43411F583E0FEBE
:102CB000742D2FF582E43411F583EEF01224F180A7
:102CC000D91222D0E4900C44F01223B550081223FC
:102CD0000F1224F180F31223C27B5270047D4C80CA
:102CE000027D4E7F68029FCF74031222D2E4900CC3
:102CF00044F01223B5505912230F1224F180F3909F
:102D00001157E064036003022E758051900579E04D
:102D100064047056FD7F05129EFB901157122466C5
:102D20007032901156E0D312240A4007900579744E
:102D300005F0221222D0E4900C44F0900C44E0FD07
:102D40001223BA500B74452D1223121224F180EB7A
:102D50001225A222EF64034E6003022E751224791D
:102D6000740CF0A3E4F0A304F022900579E064056C
:102D70006003022DFB7B01900C4804F0A37411F05A
:102D8000A37445F07A11792D125CA7EF3395E04FCB
:102D900070581225CB125A81EF703F1225CB900547
:102DA0007DE0FD12744DEF3395E0FEEFF47002EE1E
:102DB000F46003022E759005797412F090057B1271
:102DC00023727D327F44129F1C1223CC7005900029
:102DD000D580039000D4E004F0221224797404F02A
:102DE000A31223727D527F56800E1224797409F04B
:102DF000A31223727D347F44029F1C900579E06406
:102E000012701B12242C506D9000D2E070641223BB
:102E1000CC705F9000D5E064017057029FB39005BD
:102E200079E06413704F12242C504A90057AE0FF29
:102E30007E00640C700E9000D2E070089000D5E027
:102E4000700280119000D2E0700F1223CC700A90B3
:102E500000D5E070041222BA22EF64064E600E9094
:102E6000057AE0FF640C6005EF640770051223CC5F
:102E7000800012A0E222900C44EEF0A3EFF0900448
:102E800067E07015741E126CA9A37401F0E4A3F03E
:102E9000A374FFF07F6C023008900467E0641E703A
:102EA00005741F02302E900467E0641F703F126C9F
:102EB00096702B900609E070089004677420023029
:102EC0004E900609E0FF6403600AEF64026005EFBC
:102ED00064F97007900467741EF022022FAA126C26
:102EE0005F6480948040030230FA0230F0900467FF
:102EF000E0642070107421126CA0900464E0FF1252
:102F00008F4D0230C1900467E064216003022FBF3F
:102F1000126C966003022FB0900609E07052900484
:102F200064E0FF7E0064017020900466E0FD33954C
:102F3000E0FCED4C7013900464E004F090046774BE
:102F400024F090046674FF8020C3EF9405EE648043
:102F500094809004675010126CA7A3E004F0123024
:102F6000FB12A13F02304F7417F0126D0902304F6F
:102F7000900609E0FF64066005EF6403702C90047E
:102F800065E0C3940374809480900467500E126CC3
:102F9000A71299571230FB12A13F80077429F0A3A2
:102FA000740BF0900465E004F0229004670230DFB7
:102FB000126C5F6480948040030230FA0230F0901B
:102FC0000467E06424700F7425126CA07B32FAFD54
:102FD000FC7F01028599900467E064257046126CBD
:102FE000967032900609E0FF7E00700B90046774C3
:102FF00029F0A3740AF022EF64094E90046770125E
:10300000126CA71299577F6E129F977F967E0002CF
:10301000A13F0230DF126C5F648094804003023075
:10302000FA0230F0900467E0642270087423126C96
:10303000A0029D0D900467E06423702B126C9670C3
:1030400017900609E0640290046760067422F0029B
:103050009957741E126CA922126C5F648094804090
:10306000030230FA0230F0900467E06417700A74CB
:1030700018126CA0129C098048900467E0FF7E0043
:1030800064187022126C96700F900609E090046725
:1030900070047419F0228047900462126CFA648004
:1030A00094805056804AEF64194E701990046774EA
:1030B0001A126CA0900C44E0FCA3E0FD7F01128A80
:1030C0007D126D0922900467E0641A702D126C96CF
:1030D0007015900609E090046770047428F022745B
:1030E00029F0A3740BF022126C5F64809480500A64
:1030F0009004677429F0A37401F0227F6E129F97E9
:103100007F967E0022900CB7EB1215CD900CC11269
:1031100014BD900CB71216797002FF22900CB712F2
:1031200014A0121994121CDDC002C001900CBA1236
:10313000180C900CCE1215CC900CBFE0FFA3E090C1
:103140000CD1CFF0A3EFF0D001D002121F0FEF701F
:1031500002FF22900CB71214A01218B024F9606973
:1031600004600302336290000612170F90000712EA
:1031700017A91218899000091216C6600302336E4F
:1031800012174C127ECF900CC1EEF0A3EFF0900C12
:10319000B71214A01218FF121A43400302336E90A4
:1031A0000CC11218379E5002800FBC2716BD0F139A
:1031B000C3EF940BEE9400500A900010E475F001F8
:1031C00002336B12199402336B900CB71214A012D5
:1031D00017DE75F00AA4FDACF012189075F064A427
:1031E0002DFFE5F03CFE1218727C002FFFEC3E90A4
:1031F00000178FF0121CDD90000812170F900009C5
:103200001217A912194A90000B1216C66003023356
:103210006E12174C127FC8900CC31217471280BF52
:10322000900CC5121747128315900CC9121747123C
:103230008729900CC7EEF0A3EFF0900CB71214A002
:103240001218FF121A43400302336E900CC3E0FCC5
:10325000A3E0FDC3940FEC94275073C3ED9FEC9E45
:103260005003023318900CB71214A01218FFFF90ED
:103270000CC3E065F07003A3E06F70461219507044
:1032800003A3E06F6003023318900CB71214A0126E
:1032900018B6FF900CC7E065F07003A3E06F6006FE
:1032A000121643126ACC900CB71214A012184C409C
:1032B0000302336E12189F7006900CC5E004F002F2
:1032C0003350900CB71214A012199402336B900C67
:1032D000C3E064277004A3E0640F600302336E90C0
:1032E0000CB71214A01218FFC3940BE5F094005011
:1032F00006121643126ACC900CB71214A01218FFD3
:10330000FF900CC3E065F07003A3E06F70601219CA
:10331000507003A3E06F60051216438040900CB715
:103320001214A01218B6FF900CC7E065F07003A34A
:10333000E06F6006121643126ACC900CB71214A00C
:1033400012184C502912189F7006900CC5E004F01A
:10335000900CC5E0FEA3E0900CBD121980126ACC5F
:10336000800C900CB71214A0121994121CDD900C52
:10337000B71214A09000101216E47F0070027F01B3
:10338000229000CC1222A0700B9005787427F07F59
:1033900004127CCD900617E070067420F01287ECC2
:1033A00090060DE0640470649000ED74FFF09006E8
:1033B00015A3E09000F3F01299571223D49000F86F
:1033C000E070047F018020122529707C122395BEB5
:1033D000FF07BFFF047F06800E9000EE122398BE09
:1033E000FF0ABFFF077F04129D25805C9000F7E075
:1033F00070051235E48051122358404CEF6401707F
:10340000031222C99000F7E014F0803C90060DE012
:10341000640570341235F0700A7F09129D251299E7
:10342000578025E49000EDF09000F104F09000F357
:103430001223677F40129F979000C912248D500578
:10344000E004F080031223F71248F09001F4E064E6
:103450002870629000EE74FFF09001EFA3E00490FA
:1034600000F21223D39000F8E070047F0380701202
:10347000252960030235099000ED122398BEFF074D
:10348000BFFF047F048058122395BEFF07BFFF04CF
:103490007F05804B9000F7E070051235E4806A12DA
:1034A00023584065EF640170049001F4F09000F738
:1034B000E014F080549001F4E06429704CA3E064BF
:1034C0002B70089000FA7402F08005E49000FAF086
:1034D0001235F0700F9000FAE0640260077F091265
:1034E0009D258025E49000EEF09000F17403F0E457
:1034F000A31223687F40129F979000C812248D501A
:1035000005E004F080031223F712596C900549E09E
:10351000640A705F9000EF74FFF0900557E0900030
:10352000F41223D39000F8E0600E9000F0E0FF6406
:10353000016005EF640270047F02804B1225296050
:10354000030235E39000ED122398BEFF07BFFF048E
:103550007F0680339000EE122398BEFF07BFFF0462
:103560007F0580237F7A129F971224D39000F774EF
:1035700080F022900549E0640B7035129B78EF33A0
:1035800095E04F70057F09029D25E49000EFF090D3
:1035900000F17402F09000F41223677F40129F97AD
:1035A0009000CA12248D5004E004F0221223F72266
:1035B000900549E0FF7E00640C700D90047BF0A341
:1035C000F09005787426F022EF640D4E7003029E91
:1035D000D8900549E0641C700A7D327F44129F1C1C
:1035E0001224D3227F7A129F979000F77480F022E2
:1035F000129B78EF3395E04F22900CB7EB1215CD6C
:10360000A3EDF0900CB71216797003023869A3E0AD
:10361000640660030236C5900CB7A3A3E0F9121745
:10362000DE12197D9000FB75F01D1214B012187097
:10363000FF1214A9EF121888FF9000FD1214ACEFCE
:10364000F0121803FF9000FE1214ACEFF09000FB94
:103650001214ACE0FF9001351214ACEFF01214A973
:10366000E0FF9001361214ACEFF09000FD1214ACA4
:10367000E0FF9001371214ACEFF09000FE1214AC92
:10368000E0FF9001381214ACEFF0ED4C701A900C82
:10369000BB12175E1215121219BA12476412155492
:1036A0007404F07FAD0238641216F66003023869C4
:1036B000FC1215121218D11247641215547404F03A
:1036C0007FB4023864900CBAE06407600302386982
:1036D000900CB71214A012188912197D9000FF7572
:1036E000F01D1214B0EFF0121803FF900100121435
:1036F000ACEF121949FF9001011214ACEF121A2E0F
:10370000FF9001021214ACEF12188FFF9001061205
:1037100014ACEFF01217DEFF9001071214AC121870
:1037200070FF9001081214ACEFF0121B43FF9001E0
:10373000091214AC1219C2FE90010A1214ACEE1256
:103740001888FE9001391214ACEEF0121803FE90A6
:10375000013A1214ACEE121949FE90013B1214AC5E
:10376000EE121A2EFE90013C1214ACEE12188FFECF
:103770009001401214ACEEF01217DEFE90014112DF
:1037800014ACEE121871FE9001421214ACEEF090DF
:1037900001431214AC1219C2FF9001441214ACEF91
:1037A000F0ED4C7062900CBB12175E1215281218C7
:1037B000D91247641214D27403F07F3BFE1247649F
:1037C0001214F21218E912476412158174392FF994
:1037D00074011215697404F07F527E03124764125B
:1037E000158174402FF974011215697403F07F5B21
:1037F000FE12476412158174432FF9740112156982
:103800007402F07F5F805D1216F6705DFC12152861
:103810001218E11247641214D212196F124764127F
:1038200014F21218F112476412158174392FF974C9
:10383000011215697404F07F627E03124764121549
:103840008174402FF974011215697403F07F6BFEC7
:1038500012476412158174432FF9740112156974AB
:1038600002F07F6F7E0312476422E4900C54F0A3B1
:10387000121EAC00000000900C59121EAC0000009B
:1038800000E4900C5DF0A3F030030302399512A11F
:103890003650030239871296F0900C55121EA0E4A0
:1038A000900C53F0900C53E0C395105039900C5588
:1038B0001261687801121E45900C55121EA030D777
:1038C0002012613CC000C001900C5312612BE0F942
:1038D000F8121E58D001D000126174900C54E0040C
:1038E000F01261B380BE900C54E0FF7E00C39402DE
:1038F000748094804018D214EF94037480948040B4
:103900000512A139800812A07CEF6002C2142014B5
:1039100023E4FFFEFDFC12613CC3121E34601090D4
:1039200010D0E004F070069010CFE004F0801D127B
:10393000619F80189010BFE004F070069010BEE008
:1039400004F0900C59121EAC00000000129FF5D339
:103950009010D0E09F9010CFE09E400612A1391247
:10396000619FD39010BFE0942C9010BEE094015062
:1039700003023AB712A1399010F67401F0E49010E6
:10398000BEF0A3F0023AB790AA76E4740193FF1256
:10399000427F023AB7200403023A8112613CC00020
:1039A000C0019010F712612BE0F9F8121E58D001F7
:1039B000D0001261741260C91261BA900C5DF0A35C
:1039C000EFF09010F7E0FF12A09CAD07AC06ED7889
:1039D00002CEA2E713CE13D8F8FFC3ED9FFFEC9EF3
:1039E000FED3900C5EE09FEE6480F8900C5DE06486
:1039F00080985058E4901074F0A3F0901037E004D1
:103A0000F09405748094804010E4F0C203C20490E6
:103A10000C59121EAC00000000E4900C53F0900C06
:103A200053E0FFC395104003023AB712443220031B
:103A300016900C53E0FF9010F7E06F600A900C5363
:103A4000E01260D91261861261B380D2E49010371F
:103A5000F0129FF5901074E475F001121C5AFCD31B
:103A6000E5F09FEC9E405012A139E4901074F0A351
:103A7000F0C203C204900C59121EAC00000000807A
:103A800036785406E6D39405748094804004E4F6B6
:103A9000C203E4900C53F0900C53E0FFC395105018
:103AA0001612443220030B900C53E0FF1260D9121F
:103AB00061861261B380E0900C59126168227D0129
:103AC0007F04123AC80D7F04EFF582758300C3743A
:103AD0008094804024D3E5829405748094805019AA
:103AE000EDF582C374809480400FE5829408748061
:103AF000948050057582018003900000E582640186
:103B000045836003023CC1EF146064147003023B00
:103B1000B4147003023BF9147003023C3E147003AA
:103B2000023C8024056003023CC1EB14601D14605C
:103B30002D24026003023CC1A8057401088002C361
:103B400033D8FCFF429AEFF4529B22A80574010877
:103B50008002C333D8FCFFF4529AEF429B22A8059F
:103B60007401088002C333D8FCF4529A529B22EBB2
:103B700014601D14602D24026003023CC1A805746A
:103B800001088002C333D8FCFF4291EFF452922225
:103B9000A8057401088002C333D8FCFFF45291EFEA
:103BA000429222A8057401088002C333D8FCF45263
:103BB00091529222EB14601D14602D2402600302C6
:103BC0003CC1A8057401088002C333D8FCFF42A1A0
:103BD000EFF452A222A8057401088002C333D8FC76
:103BE000FFF452A1EF42A222A8057401088002C38B
:103BF00033D8FCF452A152A222EB14601D14602DA4
:103C000024026003023CC1A8057401088002C3338A
:103C1000D8FCFF42B1EFF452B222A805740108802B
:103C200002C333D8FCFFF452B1EF42B222A80574AC
:103C300001088002C333D8FCF452B152B222EB1413
:103C4000601A14602A24027078A8057401088002A2
:103C5000C333D8FCFF42C1EFF452C222A80574015D
:103C6000088002C333D8FCFFF452C1EF42C222A83D
:103C7000057401088002C333D8FCF452C152C22239
:103C8000EB14601A14602A24027036A80574010827
:103C90008002C333D8FCFF42D9EFF452DA22A805E0
:103CA0007401088002C333D8FCFFF452D9EF42DA22
:103CB00022A8057401088002C333D8FCF452D952FB
:103CC000DA22900C62125DD0900C61EFF0900C6CD7
:103CD00074FEF0E4A3F0A3F0EF24F4601024FE706F
:103CE00016900C6D7412F0A37410F0800A900C6D95
:103CF0007420F0A37430F0900C6DE04480FD7F02DE
:103D0000129FDC7D807F041299FC123EB37D807F80
:103D10000A129B3AE4900C70F0A3F0900C65E0FF5F
:103D2000900C70E0FCA3E0FDC39FEC940050239046
:103D30000C62125DC78D828C83121B5CFD7F0912A1
:103D40009FDC900C71E004F070D1900C70E004F0F6
:103D500080C9900C61E0FD7F01129FDC900C61E056
:103D6000640C70077D807F0D129B3A129FA5900C0A
:103D700070E4F0A37464F07F04129E7D900C6FEFEA
:103D8000F0900C71E024FFF0900C70E034FFF0E054
:103D90007002A3E06011900C6FE0FF20E009900C2E
:103DA0006EE0FEEF5E60D07D807F0D1299FC900C7E
:103DB00070E07002A3E07003023EA07F06129E7DB9
:103DC000EF541B6003023E98900C6CF0A3E0FF9050
:103DD0000C6FE05F30E006900C6C74FFF0900C61AB
:103DE000E0640C6003023EA37F0A129E7D900C6F7C
:103DF000EFF07F0C129E7DEF5407FD6029900C6F51
:103E0000E024FFFFE434FFFEEF7803C333CE33CE6C
:103E1000D8F97C002DFFEC3EF9900C69E0FBA3E0A3
:103E2000FAA3E0C98011900C6FE075F008A4FF9030
:103E30000C69125DC7E5F08FF0121CBE900C6FE0AC
:103E4000700204F0900C6FE0D39412748094804060
:103E5000037412F0E4900C70F0A3F0900C6FE0FF8C
:103E6000C3900C71E09F900C70E0940050357F0976
:103E7000129E7D900C66125DC7900C70E0FCA3E072
:103E8000F5828C83EF121B9B900C71E004F070CBD9
:103E9000900C70E004F080C3900C6C74FEF0800312
:103EA00012A0D47D807F0C129B3A123EB3900C6C12
:103EB000E0FF22E4FD7F01129FDC22900EE3121648
:103EC000391219BA128DA39000FBE0F4600FA3E041
:103ED000F4600AA3E0F46005A3E0F47017E4900036
:103EE000FB1214CA7B017A0079FB1217E67FA07ED1
:103EF000031247641215741218D1128DA390011881
:103F0000E0F4600FA3E0F4600AA3E0F46005A3E02E
:103F1000F47013E49001181214CA900CD2121578A0
:103F20001218D1124764900EE31216621218D912B9
:103F30008DA39000FFE0F4600FA3E0F4600AA3E01B
:103F4000F46005A3E0F47013E49000FF1214CA902B
:103F50000CD21216631218D9124764900EE312168F
:103F6000831218E1128DA390011CE0F4600FA3E00E
:103F7000F4600AA3E0F46005A3E0F47013E4900198
:103F80001C1214CA900CD21216841218E112476443
:103F9000900EE312166C7F3BFE128DA3900106E09B
:103FA000F4600AA3E0F46005A3E0F4701290010647
:103FB000121968900CD212166D7F3BFE1247649066
:103FC0000EE312168D12196F128DA3900123E0F4E7
:103FD000600AA3E0F46005A3E0F4701290012312DC
:103FE0001968900CD212168E12196F124764900E37
:103FF000E31216971218E9128DA3900109E0F460FC
:1040000005A3E0F47010E4900109121A1C1216982E
:104010001218E9124764900EE31216B21218F11248
:104020008DA3900126E0F46005A3E0F47010E49005
:104030000126121A1C1216B31218F1124764900EC0
:10404000E31216BC1218CA128DA3900103E0F460AB
:104050000AA3E0F46005A3E0F47011E4900103F01A
:10406000121A1B1216BD1218CA124764900EE312E0
:1040700016EC121976128DA3900120E0F4600AA3C9
:10408000E0F46005A3E0F47011E4900120F0121A4E
:104090001B1216ED1219761247640228EE90045591
:1040A000E060030241269000D2E070439000D5E02A
:1040B000703D9005787415F0900579740312245CB6
:1040C00090057D04F09005841222D5E4900C44F014
:1040D000900C441223B8500B12230F900C44E004B0
:1040E000F080ED1225A27B527D4C7F66029FCF129D
:1040F00022D69005497409F0E4900C44F0901155D3
:10410000E0FF900C44E0FEC39F500E74452E122336
:1041100012900C44E004F080E490045574011223E2
:10412000087F5A029F97900455E0640160030242A1
:10413000327D107F06129EFB901157E06402704B97
:104140009004557403F01225CB125A8190045EEF4F
:10415000F0600FC3940374809480500690045574EB
:1041600002F01224D3900455E0640370157F4012CE
:104170009F9790045D7480F0122405501FE004F0B6
:10418000801A7D327F5A129F1C8011901157E06473
:104190000370099004557404F01224D31248F0906F
:1041A00001F4E064287029C39001F0E0940A9001C2
:1041B000EFE09400501A90045574021223087D32E7
:1041C0007F5A129F1C9001F37401F07F0302427B1F
:1041D0009001F4E0FF64296022EF6428600302424A
:1041E0007E9001F0E02401FF9001EFE03400FED367
:1041F000EF940AEE9400500302427E9001F5E064D1
:104200002B90045F70057402F080037401F0E49059
:1042100001F4F09004557403F090045D7480F07F15
:1042200040129F977F02127CCD1224055050E0046B
:10423000F022900455E064027009129FB3E49000EC
:10424000CBF022900455E06403701D90045DE014EF
:10425000F01222B150281224054005E4A31223FBDA
:104260001222FF1225BD8013900455E06404700EE5
:104270007F60129F971222FF1225BD127CCD2290E3
:104280000C5FEFF09011B2E0C3940374809480400F
:1042900048E4F09010F6E07035900C60F0900C60FF
:1042A000E0C395105028E0FF75F002A424D2F582F7
:1042B000E5F03410F583E0FCA3E0FDEF25E02424D5
:1042C000F8A60408A605900C60E004F080CF1285E3
:1042D00032C215E49010F6F0229011ACE004F09098
:1042E0000C5FE0FF9011ACE0B50708129657E49020
:1042F00011ADF0900C5FE0FF9011ACE0D39F500344
:10430000024431E4900C60F0900C60E0C3951040E2
:10431000030243DDE0FF75F002A424D2F582E5F04C
:104320003410F583E0FCA3E0FD75F002EFA424381F
:10433000F582E5F03410F583E0FEA3E0C39DFFEEC7
:104340009CAD07FC9010F6E070429010D1E0FB337A
:1043500095E0FAFEEB7802C333CE33CED8F9FFD323
:10436000ED9FEE6480F8EC6480984060E49BFFE48D
:104370009AFEEF7802C333CE33CED8F9FFC3ED9F58
:10438000EE6480F8EC648098504280519010D1E047
:10439000FB3395E0FAFEEB7803C333CE33CED8F986
:1043A000FFD3ED9FEE6480F8EC648098401EE49BA0
:1043B000FFE49AFEEF7803C333CE33CED8F9FFC3C0
:1043C000ED9FEE6480F8EC6480984011900C60E002
:1043D000FF124432900C60E004F0024308900C603D
:1043E000E0B510069011ADE004F0900C5FE0FD75B3
:1043F000F008A4FF9011ACE0C39FE5F06480F8746E
:104400008098402DE4F0C2149011B2E004F0ED75F4
:10441000F004A4FF9011ADE0C39FE5F06480F87450
:104420008098400DE49011B2F0129804128532C2C7
:104430001522900C61EFF0F9E0FF75F002A424D290
:10444000F582E5F03410F583E0FCA3E0FD75F002A1
:10445000EFA42438F582E5F03410F583E0FEA3E004
:10446000C39DFFEE9C900C62F0A3EFF0AF0112A091
:104470009CAD07AC06900C62E0FEA3E0FFD39DEC80
:104480006480F8EE6480985014C3E49DFBE49CFAC9
:10449000C3EF9BEA6480F8EE648098502F900C6123
:1044A000E0FF75F002A42438F582E5F03410F583BE
:1044B000E0FCA3E0FD75F002EFA424D2F582E5F064
:1044C0003410F583ECF0A3EDF00245A5ECA2E71360
:1044D000FEED13FF900C62E0FAA3E0FBD39FEE64C5
:1044E00080F8EA648098501CECA2E713FEED13FFFD
:1044F000C3E49FFFE49EFEC3EB9FEE6480F8EA6492
:104500008098503E900C61E0FD75F002A424D2F535
:1045100082E5F03410F583E0FAA3E0FBEAC313FE72
:10452000EB13FFC3EB9FFBEA9EFA75F002EDA424A8
:1045300038F582E5F03410F583E0C313FEA3E013F1
:104540008047900C61E0FD75F002A424D2F582E56D
:10455000F03410F583E0FAA3E0FBAE027803CEC39B
:1045600013CE13D8F9FFC3EB9FFBEA9EFA75F00256
:10457000EDA42438F582E5F03410F583E0FEA3E0E5
:104580007803CEC313CE13D8F92BFFEA3EFE900C6E
:1045900061E075F002A424D2F582E5F03410F583D1
:1045A000EEF0A3EFF0900C61E0FF75F002A424D2CE
:1045B000F582E5F03410F583E0FCA3E0FD75F00230
:1045C000EFA42438F582E5F03410F583ECF0A3ED88
:1045D000F02290052AE0FF7E00700504F0A3F0228F
:1045E000EF64014E702612229D600302476312227F
:1045F000E84003024763EE75F004A42460F974A94F
:1046000035F0FA7BFF128E7912239F2290052AE063
:10461000640370087402F07F42029F9790052AE0BD
:104620006402701F1298F0EF3395E0FEBEFF11BFD9
:10463000FF0E90052A74041225ADE490052DF0229A
:104640000246C490052AE0640460030246CE128943
:104650000990067BE0FF7E006412704F74051224FF
:10466000819000D1F0A3F0FDEDC39432748094806A
:104670004003024763ED25E025E02400F582E434A1
:1046800000F58374FFF0A3F0ED25E025E02402F5AA
:1046900082E43400F583E4F0ED25E025E02403F521
:1046A00082E43400F583E4F00D80BDEF64134E60C6
:1046B0000302476390052D12248D5008E004122553
:1046C000AD02995790052A7408F07D34804E90050C
:1046D0002AE06405701890052C1222AC40030247B2
:1046E0006312968B74061224819000D3F0229005F9
:1046F0002AE06406702B90052C1222AC50651257EC
:104700003312985812982F129E2B90052A74071274
:1047100024849000D5F09000D4F07D327F42029F37
:104720001C90052AE0FF7E006407701090052CE0C5
:10473000FD14F0C3ED1222B25029800EEF64084E32
:10474000701690052C1222AC5019E4900578F09068
:10475000119EF0A31222BD2290052AE06409700385
:10476000129FC122900CCD1276F478D47C0C7D017E
:104770007BFF7AA679627E027F00121B1D127710E2
:10478000900EDAF0A3F0900CCDE0FFA3E0900EDCE9
:10479000CFF0A3EFF0900EDAE0FEA3E0FF900CD292
:1047A000E0FCA3E0FDD39FEC9E40EA900EDCE054D9
:1047B00001FEA3E0FF900ED6EEF0A3EFF0900EDB2B
:1047C000E02400FB900EDAE03402CBC39FFFEB9EA7
:1047D000FED3ED9FEC9E40741277184E6006127661
:1047E000B01248E5127703127718C3E49FFF7402F2
:1047F00012772B501E1276CC7006900ED8E004F083
:10480000127721900ED5E004F07006900ED4E004EB
:10481000F080D41248B7900EE31276BF12921E12A7
:104820007718C3E49FFF74029EFE900EDBE02FF02A
:10483000900EDAE03EF0900EDDE02FF0900EDCE01E
:104840003EF07F057E00129BD1024795127718C378
:104850001276B01248E5127703900EDAE0FEA3E07C
:10486000FFC3900CD3E09FFF900CD2E012772B5047
:104870001E1276CC7006900ED8E004F012772190CC
:104880000ED5E004F07006900ED4E004F080CA1259
:1048900048B77B017A0C79D4900EE31276C5129258
:1048A0001E900CD2E0FFA3E0900EDACFF0A3EFF061
:1048B0007F057E00029BD1900ED6E0FEA3E0FFC3F1
:1048C000900EDDE09FFF900EDCE09EFE128C2890A3
:1048D0000ED6E0FEA3E0FFC3900EDDE09FFF900E3A
:1048E000DCE09EFE22128DA37F017E00129BD1226E
:1048F0009001F4E0FF7E007004741EF022EF641E4D
:104900004E700B741F126C9D129CF5024A0B9001A5
:10491000F4E0641F7034126C96701C900609E0700D
:10492000099001F47420F0029957900609E064029E
:1049300070028011E4800E9001F1126C62940040CC
:1049400003024A6CE49001F4F0229001F4E0642642
:10495000700B7427126CA0129B1B024A0B9001F47F
:10496000E064277049126C967031900609E070255A
:104970007B017A0579F3128D0FEF3395E04F9001AB
:10498000F470097420F09001F1024A3E7429F0A3FA
:10499000742B024A62126CB5024A629001F1126CE9
:1049A0006294004003024A6C126CB5024A629001A4
:1049B000F4E06420700C7421126CA07F01128F4D02
:1049C00080499001F4E0FF7E0064217029126C960A
:1049D0007015900609E09001F470047424F02274BC
:1049E00029F0A37406807B9001F1126CFA940050B8
:1049F0007B126CB5806CEF64244E70167425126CBB
:104A00009D7B32FAFDFC7F011285999001F1126DB8
:104A10000C229001F4E064257052126C967036906E
:104A20000609E0FF7E00701A9001F47428F09005EA
:104A3000E5E0FDA3E09001EFCDF0A3EDF0A3126C53
:104A4000AD22EF64174E9001F47002F0227429F049
:104A5000A37408800D9001F1126C629400500D1245
:104A60006CB5F09001F1E4F0A374C0F022900C5CFE
:104A7000EB1215CD1218BC786E7C0C7AA679037FE8
:104A800047121915E4900CB5F0A3F0121809900C18
:104A9000BA1215CC900C61E0FFA3E0900CBDCFF0F2
:104AA000A3EFF0900C6312180C900CBF1215CC9071
:104AB0000C66E0FFA3E0900CC212172D126675EF92
:104AC0007002FF2212173212585412173212829FAC
:104AD00012173212675C1217321262BD12173212AD
:104AE0007E50EF7002FF22121732124FEC1218099B
:104AF000900CBA1215CC900C5FE0FFA3E0900CBDB7
:104B0000CFF0A3EFF0900C61E0FFA3E0900CBF1298
:104B1000172D123105900C68121679603DA31216FC
:104B2000796037900C80E0FF900C681214A0E48F3D
:104B3000F0121CBE900C80E0B40713900C85E0F9D5
:104B4000A3E0FF900C6B12199BC98FF08009900CA9
:104B50006B1214A0E4F5F0121CBE900C80E0B406B9
:104B600019900C7EE07004A3E06401707312173298
:104B70001219057D061235F98066900C80E06407F5
:104B8000705E900C7EE07004A3E06401700B12175D
:104B9000321219057D071235F9900C5FE0FEA3E093
:104BA000FF1280BF900CB5EEF0A3EFF0C3900C861F
:104BB000E09F900C85E09E5027900CB6E094E79023
:104BC0000CB5E094034012E4F0A3F0900C5FE0FC1D
:104BD000A3E0FDE4FFFE126ACCE4900C7EF0A3F0AB
:104BE000900C7EA3E0FF22F9121B5CFF900C45E0C5
:104BF000FBA3E0FAA3E0F922EFFD7C00E92DF9EC3C
:104C00003AFA900C49E0FCA3E029F9EA3CFA121BBD
:104C100043FEEFC313FD900C48E075F008A4249602
:104C2000F582E43405F583E58222EF75F008A424CB
:104C30009CF582E43405F58374FFF0EF75F008A469
:104C40002495F582E43405F58322EF75F008A42459
:104C50009CF582E43405F58322E4901142F074045B
:104C6000901141F0900578227A0C79467B01900EE4
:104C7000E3E4F0A304F0222DF582E43583F58322EA
:104C8000EEC3940A7480948022EBF0A3EAF0A3E9C7
:104C9000F0227B017A057995E4F0A322E490114299
:104CA000F07403901141F090057822EEC3940674DD
:104CB00080948022900000E0FEA3E0FF021BCFE082
:104CC000D394007480948022900C49E0FAA3E0FB16
:104CD0007C007D02FFAE02021C247B01900CD2E41A
:104CE000F0A304F022EFC394027480948022E0FDCC
:104CF000C4540F75F00AA422900C46E0FF3395E0EF
:104D0000FE22900C48E0FBA3E0FAA3E02290113CC5
:104D1000E0FEA3E0FF7C007D0A22EFF07E00C3945A
:104D2000097480948022EC04FF129D3DEF3395E0DE
:104D30004F227B01F0A304F07FFD7E072290113FFC
:104D4000E0FF90113EE09F222FF582E5833EF58340
:104D5000E022122508700A9000CFF090083604F087
:104D600022EF64014E70131286C61294DDE490089F
:104D700037F09008367402024E20900836122466EE
:104D8000700F1223444003024EA19008367403F0C2
:104D900022EF64034E7064127B349000CFE0640213
:104DA000703E900607F07F01128F07E4900C44F0EC
:104DB000900C44E0C394197480948050177F0A7E4D
:104DC0000012A13F12A14512254B6008900C44E04F
:104DD00004F080DCE4900838F090083674048040D9
:104DE0009000CFE064036003024EA190083874FF86
:104DF000F074041223E97F07024E9E122508640412
:104E0000700F1223444003024EA19008367405F03F
:104E100022EF64054E7010900839F0900836740641
:104E20001223EC7F0280771225086406700C12238F
:104E300044506E9008367407F022EF64074E700DF0
:104E400090083AF074081223E97F02805112250875
:104E50006408700E122344504890083674091223D7
:104E6000EC22EF64094E703990083B74FFF5F012A4
:104E70001C5A122436502A9000DBE0600464017052
:104E8000187F74129F979000DA74FFF09000DC7422
:104E900080F09005787422F0221222B97F061297D2
:104EA0001F2290112CE004F0D3943F748094804032
:104EB0004F90113BE06401F0E490112CF020C229E6
:104EC000900578E070239001EB122398BEFF12BF8B
:104ED000FF0FE4F07F0112971F9001EB74FFF08049
:104EE000057F0112971F1299579001F3E012235F7B
:104EF000400EE004F0E064047006F07F01127CCD07
:104F000090112CE0541F7007901144E06401F09060
:104F10000617E012235F4003E014F0900763E012ED
:104F2000235F4003E014F030C1411225FB900C4296
:104F3000E0C394647480948050187F027E00129BBA
:104F4000ED30C106900C43E004F0900C42E004F018
:104F500080DB900C43E0D3945A748094804042905C
:104F600004771222A0703AA3F080361225FB900C31
:104F700042E012245350187F017E00129BED20C1A5
:104F800006900C43E004F0900C42E004F080DF90C7
:104F90000C43E0D39408748094804005E490047737
:104FA000F09004781222A0703D900578E0FF642C08
:104FB0006034EF6421602FEF641C602AEF641A6094
:104FC000259006591222A0701D900578742CF0903F
:104FD000047914F0A374F21222BD7F147E0012A192
:104FE0003F7F04127CCD120100026843900CB7EBA6
:104FF0001215CDE4A3F0A3F0FFFE1218C3A3EFF047
:105000007F007E001218C37E037FE8121630A3EFE4
:10501000F07C037DE87F007E00121BCF7F641216B8
:105020002EA3EFF07C007D647F007E00121629A382
:10503000EFF07F007E001219A3AC05E4A3F0FF900F
:105040000CB7121679700122900CB71214A0121826
:10505000B625E0FFE5F033FE743B2FF58274A53EE4
:10506000F583E493FF740193900CBACFF0A3EFF0B3
:105070007F01EFD39406748094805022900CBCE0A2
:105080006F6018A3E06F6013A3E06F600EA3E06F82
:105090006009EF6C6005A3EFF080030F80D4900CE3
:1050A000B71214A0900001121B5C900CBC12176F79
:1050B0001214A012193C900CBD12176F1214A012FA
:1050C00017EFFF900CBE1217701214A012191E9049
:1050D0000CBF1217701214A0900004EF121B9B1249
:1050E0001890FFAD041217721214A01217D7FF9078
:1050F0000CC01217701214A0900006EF121B9B1226
:105100001872FFAE04AD061219611214A0900007C8
:10511000EF121B9B121889900CBF12195E1214A07B
:105120001217FC900CBE12195E1214A09000091206
:105130001A3522900C4FEEF0A3EFF0E4FFEFC3948A
:105140000D748094804003025276E4FEEF25E02443
:1051500059F582E43411F583E0FCA3E0FD900C4F97
:10516000E05CFCA3E05DD39400EC940040010EEF02
:10517000B40D00400302527290517FF82828730248
:1051800051A60251B70251C80251D90251EA025147
:10519000F9025208025217025226025235025244B4
:1051A000025253025262EE6008E490118CF00252F7
:1051B0007290118C02526FEE6008E490118DF00233
:1051C000527290118D02526FEE6008E490118EF0D1
:1051D00002527290118E02526FEE6008E490118FAD
:1051E000F002527290118F02526FEE6007E490113C
:1051F00090F0807E9011908076EE6007E49011919F
:10520000F0806F9011918067EE6007E4901192F04A
:1052100080609011928058EE6007E4901193F080C6
:10522000519011938049EE6007E4901194F0804210
:10523000901194803AEE6007E4901195F0803390DD
:105240001195802BEE6007E4901197F08024901167
:1052500097801CEE6007E4901196F08015901196EF
:10526000800DEE6007E490119CF0800690119C7414
:10527000FFF00F02513D22127E4864017026D39048
:105280000533E09400900532E09400400AA3E02446
:10529000FFF09005328069127E11402A90053C741F
:1052A00003F08069EF64034E701E127E11400AA362
:1052B000E024FFF09005368047127E1F40089005DD
:1052C0003C7402F080478040127E486402701E12D7
:1052D0007E1F400AA3E024FFF09005348022127E56
:1052E0002D400890053C7404F08022801BEF64047C
:1052F0004E7015127E2D400EA3E024FFF09005386D
:10530000E034FFF080078000E490053CF090053C1D
:10531000E064027035C2C790053B127E0870289089
:105320000C42F0A3F0127DF95014D2C612A016C29E
:10533000C61253A070EF900C42E004F080E7900595
:105340003B74FFF0D2C622D2C62290053CE0640135
:105350007035C2C690053A127E087028900C42F053
:10536000A3F0127DF95014D2C712A016C2C712536F
:10537000A070EF900C42E004F080E790053A74FFD3
:10538000F0D2C722D2C722127E4864037002800680
:10539000EF64044E7005D2C7D2C622C2C7C2C6226D
:1053A000900C42E0FEA3E0FFC374C89FFFE49EFEA2
:1053B00012A016900C43E004F02243CF1012A0A3D9
:1053C00012A03E12A0C612A050129EC643CF10E4F7
:1053D0009011CEF0A3F0A3F0A3F0E4900607F01232
:1053E0009AFC129F8843CF107F147E0012A13F12B7
:1053F000A145900607E06401702B900609E0700556
:1054000020C302804A9011D1E004F070069011D0C0
:10541000E004F0D39011D1E0945E9011D0E09401BB
:105420004050E4802AD3900C43E09417129F9040A0
:10543000249011CFE004F070069011CEE004F0D378
:105440009011CFE094029011CEE094004007E490D8
:10545000053DF0801D900C43E004F07006900C4276
:10546000E004F0C3900C43E09419129F90500302A3
:1054700053E543CF1090053DE060030253DA12A0DC
:105480002BC2C07F037E0012A13F900546E064015D
:105490007027129F8943CF107F017E0012A13F9099
:1054A0000C43E004F07006900C42E004F0C3900C52
:1054B00043E0940A129F9040DC1298CC129E551241
:1054C000A1511295B8129F88900C42E07004A3E09D
:1054D0006401601412A130400A900C42E4F0A3046D
:1054E000F080E512946D80E02290016FE0703890BA
:1054F00000D2E070129000D5E0700C126E7B740741
:10550000126DE97F3E801D9000D3E0126E1990016C
:105510006F500C7401F0E4901140F07F648005122C
:105520006DE47F58129F9790016FE06401701D1227
:105530009CAB900173EFF090016F7407F0900171D4
:105540007401F0A37440F07F70029F9790016FE0A8
:10555000640770307B017A0179741281B0EF339562
:10556000E0FEBEFF09BFFF0690016F7403F0126DED
:10557000F2400302560D126E7B7401126DE97D3408
:105580007F44805D90016FE0640370587B017A0175
:105590007974128662EF703F900173E0FD128D5AAC
:1055A000EF3395E0FEBEFF1DBFFF1A90016F74043C
:1055B000F0900171126DEB7D327F44129F1C9000C0
:1055C000D3E004F02290016F126DE47F58129F9790
:1055D0007F647E0002A13F126E7B126DE97D547FD5
:1055E00056029F1C90016FE064047007126DF25028
:1055F0001C801790016FE06405701290017174FFB8
:10560000F5F0121C70126DFC500312A0E92243CF7A
:10561000107F017E0012A13F1293FAE4FBFD7F028E
:10562000123AC8D2A012A11A129DEC12A13C12A0EB
:10563000B8129E69D2C090053D7401F07F057E00CE
:1056400012A13F12A1087F057E0012A13F12A133D3
:10565000129E161295829001EDE0FF12A0CD7F01FF
:105660007E0012A13FE4900C42F0900C42E0FFC398
:10567000946474809480501AEF75F00A84E5F07099
:105680000343CF1012A10E1278F9900C42E004F0FF
:1056900080D89000DBE0FF64016003EF70137F743B
:1056A000129F979000DC7480F09005787422F0804F
:1056B0003AE4900578F09005497407F0E49001F41D
:1056C000F090060D7407F0129B78EF3395E04F7061
:1056D000077F3E129F978013900547E0FF640260AA
:1056E00005EF640170057F0612971FE4900546F0F0
:1056F000900C42F0900C42E0C39419748094805056
:105700003143CF10E4900607F0900C4B74FFF07B10
:10571000017D017F011285FE7F147E0012A13F12E0
:10572000A145900607E064016008900C42E004F097
:1057300080C222E4FFEFC3940474809480503474D8
:10574000FB2FF582E43400F58374FFF074182FF515
:1057500082E43401F58374FFF074FF2FF582E434A2
:1057600000F58374FFF0741C2FF582E43401121AE3
:105770003C80C2900CD21216391219BA12476490AA
:105780000CD21215771218D1124764900CD212164F
:10579000621218D9124764900CD21216831218E1C3
:1057A000124764E4FFEFC394037480948050347410
:1057B000062FF582E43401F58374FFF074232FF58E
:1057C00082E43401F58374FFF074032FF582E4342E
:1057D00001F58374FFF074202FF582E43401121A6E
:1057E0003C80C2900CD212166C7F3BFE1247649034
:1057F0000CD212168D12196F124764900CD2121629
:10580000BC1218CA124764900CD21216EC12197608
:10581000124764E4FFEFC3940274809480501A74BA
:10582000092FF582E43401F58374FFF074262FF517
:1058300082E43401121A3C80DC900CD212169712CA
:1058400018E9124764900CD21216B21218F11247DE
:10585000640277D5900CB7EB1215CDE41214C59005
:105860000CB71216797002FF22E4900CBAF0A3F084
:10587000900CB71214A012179924FFFFE5F034FF23
:10588000FE900CBA1218379E5020121860900CBF70
:10589000E02FF0900CBEE03400F0900CBBE004F080
:1058A00070CE900CBAE004F080C6900CB71214A031
:1058B000121799121A05121B5CFFC007900CBE123A
:1058C000175E7D0A121C24D007129F79900CB71224
:1058D00014A0121799121A05EF121B9BE4900CBA30
:1058E000F0A3F0900CB71214A0121799FFC3900CFC
:1058F000BBE09F900CBAE095F0506EE4900CBCF0C9
:10590000A3F0900CB71214A0121799900CBC1218A7
:105910003695F05043900CBAE0FEA3E0FF6D7002A4
:10592000EE6C60248F828E83121B5CFF900CBCA3F4
:10593000E0F5828C83121B5CFD12A059900CB7120B
:1059400014A0900CBC121820900CBDE004F070B2B2
:10595000900CBCE004F080AA900CBBE004F0700650
:10596000900CBAE004F00258E37F0122900549E070
:10597000FF7E0064077003025A80EF6408700474AD
:1059800009F022EF64094E6003025A80901157E03B
:1059900064026003025A6B129B78EF3395E04F70FC
:1059A0006A901145E064017039A3E064017033A38B
:1059B000E06401702DA3E064017027A3E06401702E
:1059C00021A3E06401701BA3E06401701590114DE8
:1059D000E06401700DA3E064017007900549740C48
:1059E000F022901145E064017048A3E06403704226
:1059F000A3E06405706EA3E064077068901156E040
:105A000064047060900549740DF0227B017A11796D
:105A100045125A81900557EFF0600C900549740AC1
:105A2000F0E49000F0F022901156E0FF7E00640A4E
:105A300070028030EF640C4E6006EF640D4E7024EF
:105A40007B017A117945901156E0FD7C00125EC30E
:105A5000900557EFF0900549600D740AF09000F042
:105A60007401F022900549740BF022901157E06404
:105A700003700D9005497407F0E490057BF0A3F0E6
:105A800022900C45124C89E4A3F0900C48E0FF12E0
:105A90004C814003025B93124C4AE064AA6003020B
:105AA0005B8A900C4BF0900C49F0A3740BF0900CB7
:105AB00049E0FEA3E0FFC3EE6480948040467C0092
:105AC0007D02121C24ED64014C7011124CC8124C62
:105AD00016124D48540F640F601A8010124CC812F1
:105AE0004C16124D48C4540F640F6008EB04900C20
:105AF0004BF08010900C4AE024FFF0900C49E03409
:105B0000FFF080AAE4900C49F0A3F0900C4BE0FF6A
:105B1000C374119FFFE49400FEC3900C4AE09FEE13
:105B20006480F8900C49E0648098505EE4FF900C2B
:105B30004BE0FEEFC39E5031EF54016401701490AE
:105B40000C45124BEF124BF8124C77E0540F6E607D
:105B5000158016900C45124BEF124BF8124C77E063
:105B6000C4540FB506030F80C5900C4BE0B5070A6F
:105B7000900C48E0124C3CE0FF22900C4AE004F00C
:105B80007006900C49E004F08081900C48E004F02D
:105B9000025A8A7F0022D390061CE0940090061BD4
:105BA000E09400400CA3E024FFF090061BE034FFDB
:105BB000F090061BE07002A3E06003025CA6900672
:105BC00019E014603C14605D147003025C6B147087
:105BD00003025C9D8000D2DC30DB22C3900653E0E0
:105BE00094DC900652E09405500DA3E004F070069A
:105BF000900652E004F022E4900654F022126D2F39
:105C000022C2DC90061BE4F0A3741BF0900619740A
:105C100002F0900650E0241EF582E43406F583E09D
:105C200090061DF02220DC12D2DC126DCA6005E461
:105C3000F0A38033E4F0A304F022C2DC126DCA604A
:105C400007E4F0A304F08006E4F0A37403F09006E8
:105C50001DE0C313F090061AE004F0C394087480AA
:105C6000948040429006197403F022D2DC900650D2
:105C7000E004F0A3E0FF900650E0C39F50109006B0
:105C8000197404F090061BE4F0A3740AF022E49067
:105C90000619F090061B04F0A3744DF0229006192B
:105CA0007401F0E4A3F022900C45124C89A3124B2E
:105CB000EF121B43124BEB121B436F6003025DB3E9
:105CC000124D02900001124BE7900001121B5C6F15
:105CD0006003025DB3124D02900002124BE7900088
:105CE00002121B5C6F6003025DB3900C48124BEF15
:105CF000900003124BE8900003121B5C6F600302DC
:105D00005DB3900C48124BEF900004124BE89000EA
:105D100004121B5C6F6003025DB3900C48124BEFE2
:105D2000900005124BE8900005121B5C6F600302A7
:105D30005DB3900C48124BEF900006124BE89000B8
:105D400006121B5C6F706C900C48124BEF900007B2
:105D5000124BE8900007121B5C6F7057900C4812B2
:105D60004BEF900008124BE8900008121B5C6F701C
:105D700042900C48124BEF900009124BE89000093A
:105D8000121B5C6F702D900C48124BEF90000A12A2
:105D90004BE890000A121B5CB50718900C48124B98
:105DA000EF90000B124BE890000B121B5CB5070341
:105DB0007F00227FFF227404900C65F0A37401F031
:105DC000A322E0900000FEE0FBA3E0FAA3E0F922AA
:105DD000EBF0A3EAF0A3E9F022EFFD3395E04D22CA
:105DE000F0EFA3F0900C637401F0A3227400F07440
:105DF00000A3F07B017A007900227400F07400A304
:105E0000F07B017A00790022EFF0FD900000740130
:105E1000F0A37411F0A37426F07B017A1079F97F56
:105E200060228E82758300021B5C24FFF582E434BD
:105E300010F583EFF0900000E004F0227400F0749D
:105E400000A3F07B017A007900227450F0E4A3F003
:105E50007B01900C6304F0A322900000E0FFC39448
:105E60000A7480948022744F2FF582E4340CF583F9
:105E7000E022EEC394107480948022EFC3940474E3
:105E8000809480227B017A11792622EFFD3395E000
:105E9000FCED64FE4C2235F0FA7B01E025E025E0C4
:105EA0002274FF2FF582E43410F583228F827583EC
:105EB00000EE021B9B7400F0A37400227400F0A398
:105EC000740022900C45124C89A3ECF0A3EDF0E491
:105ED000900C58F0A3F0A3F0A3F0129F2CE4900CC8
:105EE0004AF0900C4AE0124CE64003025FC9E4A37A
:105EF000F0FFEF124CAC503C900C4AE0FE124C1AF2
:105F00002F124C78E0C4540FFDEF25E0244CF582AD
:105F1000E4340CF583EDF0EE124C1A2F124C78E0BD
:105F2000540FFEEF25E0244DF582E4340CF583EEAA
:105F3000F00F80BEE4FFEFFDD3900C49E09D900C84
:105F400048E094004019744C2FF582E4340CF5833A
