:0300000002A1BD9D
:03000B0002C2C16D
:0300130002C777AA
:03001B0002B9FA2D
:0300230002D13ACD
:0300330002D3589D
:0300430002D1588F
:03004B0002D37E5F
:03005B0002C5EAF1
:0300630002D35273
:03006B0002C65F6B
:03007B0002CE2F83
:0300830002BC04B8
:03008B0002B612A8
:1001000090048FE06003020B461236D69013EAEF9C
:10011000F0F4600312CBF09004C9E012325A017C73
:100120000002580102D70203330503670602A4093F
:1001300003A30A04360B04440C04520D047C0E0481
:100140008A0F04971104B11204BE1304E814050BBE
:1001500015051E16054817082419097E1A08511B93
:10016000088B1D0A4424089E250A5A260B222809BA
:10017000DF2908FA2A09C62B00000B469013EAE093
:10018000FF640D6011EF641B700C9004C97419F0CA
:1001900090047D7403F090049AE0FF64076003020A
:1001A0000226120F6D5033EF64076003020B469076
:1001B000140E04F07410120E161215521214DB50A5
:1001C0000E74FD2E120F89901044E004F080ED9023
:1001D000049A7408F07F0102D38B120E8570217F80
:1001E0000112D38B90019D120FD1BEFF06BFFF03FA
:1001F000E4F022E4900492F0A3F090049704F0223B
:100200001214E86003020B4690019D120CA87013B3
:100210007F0112D38B9004C9741DF0E49004551231
:1002200015842202CC339013EAE0FFF47003020B32
:1002300046EF640C7003020B4612158590049AE099
:1002400064096003020B467F0112D38B90049CE487
:10025000F0A374F0F0020896121172700302047693
:1002600012112270030205421214EF70030204E21D
:100270009013EAE06404700302084B9013EAE06410
:10028000057003020B40120E856003020B46120C30
:1002900041120EFE7F6012D1C07F647E0012D385B2
:1002A000E40209DA121172700F120B479004C9743C
:1002B00026F0E490046FF022121122700F120B4707
:1002C0009004C97428F0E4900452F022120E856064
:1002D00003020B460204309013EAE0FF6401600A57
:1002E000EF64026005EF64037004E4120C41121124
:1002F00072700F120B54E49004C7F09004C9740E8E
:10030000F022121122700F120B54E49004C7F090E7
:1003100004C9740BF0221214EF700D120B61121548
:100320007D9004C9740DF022120E856003020B4605
:10033000020430121172700F120B619004C9741113
:10034000F0E490016FF0221211227010120B6E90E7
:1003500004C97413F0900481740AF022120E8560AF
:1003600003020B460204301211727009120B6E1256
:10037000141404F0221211227009120B7B121414AF
:10038000020B371214EF7010120B7B9004C9741615
:10039000F090060B740FF022120E856003020B46DC
:1003A0000204301211727010120B889004C9741775
:1003B000F01291E5120D8822121122700A120B8898
:1003C0009004C9741B800D1214EF700C120B9590E1
:1003D00004C9742AF0E4802E9013EAE064047010DB
:1003E000120B959004C97425F0E4900597F08016DF
:1003F0009013EAE064057014120BA29004C9741AF9
:10040000F0E49005E5F012104C02083F9013EAE08A
:1004100064067014120BA29004C97419F0E49004DD
:100420007DF012104C020B37120E856003020B4652
:10043000120BAF02D1F59004C7E064016003020B18
:10044000460205169004DFE064016003020B4602D9
:100450000516900608E064086003020B461213D6E6
:10046000700B900609F09006087409F022EF640AF8
:100470004E6003020B46120BAF02D2029004C7E09B
:1004800064016003020B460205169004DFE064017C
:100490006003020B46807F90016FE064017008905A
:1004A00013EAE0FF12AB5B120E856003020B46807D
:1004B000319001E1E064016003020B468058900432
:1004C00081E0640B6003020B461213D6700B90049C
:1004D00082F0900481740CF022EF640A4E600302F3
:1004E0000B46120BBC02D29B9004CAE0640170025E
:1004F00080249004CAE0640370030208969004CA42
:10050000E064046003020B460208969004E1E06494
:10051000016003020B469013EAE0FF02AB5B90061A
:100520000BE064106003020B461213D6700B9006AA
:100530000CF090060B7411F022EF640A4E60030277
:100540000B46120BBC02D20F9013EBE0701C120E84
:100550008C4008EF64096003020798120BF09013B7
:10056000F31212267401F00207989013EBE0640175
:10057000702D120E857003020773120E8C4008EF67
:10058000640960030207987F0112D38B9013F31262
:1005900011299013F3F09013EB7402F00207989076
:1005A00013EBE06402701B9013EAE0120FC64003E5
:1005B000020798120BF09013F21212267403F00245
:1005C00007989013EBE064037041120E85700302EC
:1005D0000773120E8C4008EF640960030207987FCE
:1005E0000112D38B9013F21211299013F2F0D394CD
:1005F000127480948040037412F09013F2E0700241
:1006000004F09013EB7404F00207989013EBE0648D
:10061000047022120E8570030207739013EA120D04
:10062000E74003020798120C0B9013F01212267485
:1006300005F00207989013EBE064057041120E85F7
:100640007003020773120E8C4008EF640960030206
:1006500007987F0112D38B9013F01211299013F099
:10066000F0D394317480948040037431F09013F08F
:10067000E0700204F09013EB7406F00207989013F8
:10068000EBE064067022120E85700302077390136C
:10069000EA120DC44003020798120C0B9013EF12DC
:1006A00012267407F00207989013EBE06407703984
:1006B000120E857003020773120E8C4008EF640956
:1006C00060030207987F0112D38B9013EF12112958
:1006D0009013EFF0D394237480948040037423F03C
:1006E0009013EB7408F00207989013EBE064087025
:1006F0001E120E857002807B1212B740030207980B
:10070000120C339013EE1212267409F0020798901F
:1007100013EBE064097028120E8570028055120EEA
:100720008C4005EF640970707F0112D38B9013EE3B
:100730001211299013EEF09013EB740AF080599087
:1007400013EBE0640A701F120E85700280251212EE
:10075000B75045120C339013EDE0548F2FF09013E7
:10076000EB740BF080329013EBE0640B702A120EE6
:100770008570077F0112D38B8019120E8C4005EF14
:10078000640970147F0112D38B9013ED121129901C
:1007900013EDF0E49013EBF01214E8706D9013F386
:1007A000E0FF9013F2E0FD9013F0E0FB12ADEEEFEE
:1007B0003395E04F600302097B7F0112D38B9013C6
:1007C000F3E09001A4F09013F2E09001A3F09013F5
:1007D000F0E09001A1F09013F1E09001A2F09013ED
:1007E000EFE09001A0F09013EEE090019FF09013E5
:1007F000EDE090019EF012BF3B7F647E0012D38536
:100800007D327F4412D11902097B120E85600302EA
:100810000B46120BC912D21C1291E5120D88E490FE
:1008200013EBF02290047DE064016003020B46129A
:1008300014E8700F120BC9E490047EF090047D74EC
:1008400003F022120E856003020B46120BD602093A
:100850007B12117270127AF47976120BE3E4900134
:10086000EBF012C0E402097B12112270107AF479C5
:1008700079120BE312144812C0E402097B120E85B0
:100880006003020B46120BD602097B900455E0640C
:10089000016003020B469013EAE0FF020A41900553
:1008A00097E064016003020B46121172701390000E
:1008B000F8F09005977402F07BFF7AF479A00209B2
:1008C0009812112270239000F804F090059704F01C
:1008D00012142370087F7A12D1C0020A537BFF7A68
:1008E000F479A312BFC9020A53120E856003020BEA
:1008F00046120BFE900597020B371211727037905B
:1009000000F9120FD1BEFF25BFFF22E4F012C99FEC
:10091000121068900489E4F0A37412F0E490048744
:10092000F0A3F090048BF0A3F0041215B27AF479DE
:100930008E120C19804512112270359000F9120C9C
:10094000A8702474FFF0E4900485F0A3F09004896B
:10095000F0A3F012C99F1212497408F090048F742A
:1009600002F0E490048EF07AF47991120C19800B65
:10097000120E856003020B46120BFE02D21C90057C
:10098000E5E064016003020B4612117270109005DD
:10099000E61216547AF479B512BFC9020A5312113D
:1009A0002270129005E674FF1216547AF479B81288
:1009B000BFC9020A53120E856003020B46120C26B1
:1009C0009005E5020B379013EAE0FF640B6008EF37
:1009D000640A6003020B46120EFE9004C9F02290D6
:1009E000049AE0FF6407703B120F6D5032EF64070A
:1009F0006003020B4690140E04F090140D74101254
:100A00000E191215521214DB500E74FD2E120F899E
:100A1000901044E004F080ED90049A7408F02212E3
:100A20000E85229013EAE0FFF47003020B46900457
:100A30009AE064096003020B4690049CF0A374F0F2
:100A4000F002A7959013EAE0F47003020B467F30A2
:100A500012D1C07F647E0002D38590046FE06402EF
:100A60006003020B461211227049D390046CE0948B
:100A70000090046BE094005003020B167F0112D328
:100A80008B90046CE024FFF090046BE034FFF0C323
:100A90009004B1E094FF9004B0E09401500DA3E005
:100AA00004F070069004B0E004F022E49004B0F08A
:100AB000A3F0229013EAE0640870601212ECD39065
:100AC000046AE09F900469E09E404B7F0112D38B43
:100AD0009004B01215A19400400DE024FFF09004A2
:100AE000B0E034FFF08020EF4E701C7FFF7E0112DB
:100AF000CD88EF3395E0FEBEFF0DBFFF0A9004B036
:100B00007401F0A374FFF090046CE004F0700690A0
:100B1000046BE004F0227F0702C913120E857026D1
:100B2000801E900452E06401701C1214E8700C7F67
:100B30000112D38B9004527402F022120E857006BB
:100B4000120C2612D236227F0112D38B7F647E00D4
:100B500012D385227F0112D38B7F647E0012D3854E
:100B6000227F0112D38B7F647E0012D385227F0106
:100B700012D38B7F647E0012D385227F0112D38B28
:100B80007F647E0012D385227F0112D38B7F647E27
:100B90000012D385227F0112D38B7F647E0012D393
:100BA00085227F0112D38B7F647E0012D385227F42
:100BB0000112D38B7F647E0012D385227F0112D372
:100BC0008B7F647E0012D385227F0112D38B7F64DA
:100BD0007E0012D385227F0112D38B7F647E0012A8
:100BE000D385227BFF12BFC97F647E0012D385228A
:100BF0007F0112D38B9013EAE0C454F0FF227F01EF
:100C000012D38B7F647E0012D385227F0112D38B97
:100C10009013EAE0C454F0FF227BFF12BFC97F6447
:100C20007E0012D385227F0112D38B7F647E001257
:100C3000D385227F0112D38B9013EAE0C454F0FFD6
:100C4000229001F3F07F0112AE6D227AF279997B46
:100C5000FFE49010A1F0227AF279A97BFFE49010D2
:100C6000A1F022E0FF2445F582E43401F583E0FEA3
:100C7000901048E075F00EA424D9F582E43404F510
:100C800083E5822FF582E43583F583EEF0901049F9
:100C9000E004F0227AF279CF7BFFE49010A1F022F9
:100CA000E49013FBF09005E1E0FF3395E0FEEF4E9A
:100CB00022F9122E22FF90104AE0FBA3E0FAA3E0F3
:100CC000F9227AF279AE7BFFE49010A1F022901025
:100CD00048E0FF75F00EA424D8F582E43404F583CF
:100CE000EFF0EF75F00EA424E5F582E43404F5830B
:100CF00074AAF022E090010AF07A0179097B019050
:100D00001061E4F0A3227AF279C77BFFE49010A18E
:100D1000F0229004C6E0FF14F0EFC39401748094B5
:100D200080227AF279E97BFFE49010A1F0227A1018
:100D300079467B01901272E4F0A32290077474FF4D
:100D4000F5F0122F53FEC3E5F09401EE227BFF7AFB
:100D5000F27994E49010A1F0227AF579AA7BFFE46D
:100D60009010A1F022E49004C9F090049A7407F066
:100D7000E49001F4F090059A7407F0227AF2799DDC
:100D80007BFFE49010A1F0229001A4E09013F3F017
:100D90009001A3E09013F2F09001A1E09013F0F025
:100DA0009001A2E09013F1F09001A0E09013EFF019
:100DB00090019FE09013EEF090019EE09013EDF013
:100DC00022901049E0C3940374809480227AF579CC
:100DD000EA7BFFE49010A1F0227D017BFF7E007F83
:100DE00007022DE3901049E0C3940474809480229C
:100DF000EF75F00EA424E7F582E43404F583E58270
:100E00002EF582E43583F5832274049004CAF0E45D
:100E100090140EF0740C90140DF090140F7401F0F7
:100E2000229000F7E0FF7E00D3940074809480222B
:100E300035F0FA7BFFE025E0FFE49010A1F0FD2201
:100E40009013F9E0FFA3E0FEC39F229004CA74133D
:100E5000F07406A3F0A3E4F0A37480F0229004B62B
:100E6000E054F1F0E49004BBF09004B6E0540F229B
:100E700090047BE0FEA3E0FF7C00022EC87BFFE431
:100E80009010A1F0229013EAE0640A229013EAE0A5
:100E9000FF7E00C3940974809480227D017BFF7ED5
:100EA000007F0C022DE3E0C4540FFB90106C740122
:100EB000F022740E9004DFF09004DE748022901013
:100EC00049E0C3940C74809480227BFFE49010A1CD
:100ED000F0227418901097F0A374FFF0A322EF751E
:100EE000F00EA424F3F582E43404F58374FFF0EFEC
:100EF00075F00EA424E6F582E43404F58322900410
:100F00009A7407F090059AF0E49001F4F0229010A2
:100F100048E075F00EA424D9F9740435F0FA901065
:100F20004D7401F0A3EAF0A3E9F0227BFFE49010F6
:100F3000A1F022E004F0EFFB25E025E02400F5829B
:100F4000E43400F583E4F0A3EBF025E025E024028F
:100F5000F582E43400F58322900594E06401227464
:100F600022F09004627401F0A37440F0229013EA1E
:100F7000E0FDC3940A74809480227D64E0FEA3E0C7
:100F8000FF7C00022EC874FD2FF582E43413F58334
:100F900074FFF0227D017BFF7E007F06022DE3E0DF
:100FA000FBE4901097F022900608740AF090060A6D
:100FB0007480F0E4900594F0227BFFE49010A1F09F
:100FC00022901049E0FFC394027480948022900024
:100FD000EEE0FF3395E0FE22FF24FCF58274FF3E35
:100FE000F583ECF0A3EDF074FE2FF58274FF3EF56F
:100FF000837401F074FF2FF58274FF3EF583227A2B
:10100000F279857BFF9010A1F0227BFFE49010A184
:10101000F022EF75F006A424FBF582E5F03401F52B
:1010200083227F0A7E00CFCDCFCECCCE122EC8AB8E
:1010300007E490106CF02212CD11EF3395E04F22AF
:101040007D017BFF7E007F08022DE3E49013FAF020
:101050009013F9229001F174FFF5F0122F53FCC3A5
:10106000E5F09401EC940022900485EF2412FEE454
:1010700033F0A3CEF022EFC3946474809480227B7B
:10108000FFE49010A1F0229004B6E054F1227AF22D
:1010900079E27BFF9010A1F0229004C7740CF090CD
:1010A0000468E09004C8F09004C67480F0229013A5
:1010B000FAE004F0229013FCE06401229000F2E0D8
:1010C000FB7A00E4901059F0229004DDE024FFFF49
:1010D0009004DCE034FFFE22EF75F00EA424F3F55B
:1010E00082E43404F583227BFFE49010A1F022F027
:1010F0009000C8E4F0A3F0A3F0227D017BFF7E0006
:10110000022DE37BFF9010A1F07D2422F583E0FE09
:1011100074FB2FF582E43400F583EEF0901049E083
:10112000FF229013EAE0640222E054F0FF9013EAF9
:10113000E02F229004CC7402F0A37480F09004D5C8
:10114000E06401227C007D0AE0FEA3E0FF022EC8DD
:10115000901048E075F00EA424E7F582E43404F51D
:1011600083E5822290076FF0900774E4F0A3744047
:10117000F0229013EAE0640122E49000CCF0A37422
:101180002BF0A374F2227401F0EF25E025E0240394
:10119000F582E43400F58322E0FDC4540F75F00AB3
:1011A000A4FFED540F7C002FFFEC35F0CF24D0CFFF
:1011B000340722E4F074219004C9F09000F5220471
:1011C000F0E49013F8F07F6422FF24FCF58274FFB2
:1011D0003EF58374FFF0A3F074FE2FF58274FF3E9A
:1011E000F583E422EF75F006A424F6F582E5F034E9
:1011F00001F58322F012CE159000D3EFF012CFE765
:101200009000D5EFF012CF689000D4EFF022901349
:10121000FAC3E094057480948022F0A37401F07BFB
:10122000FF7AF479C322E0540F2FF09013EB22F5EC
:1012300083E0FE74032FF582E4340122F583E0FE9F
:1012400074202FF582E4340122EF2412FEE433905F
:101250000487F0A3CEF090048BE4F0A3229001F475
:101260007429F0A37426227D017BFF7E00022DE30A
:101270009013F8E0FF7E00640222EF3395E0FEEF6A
:10128000F4227B01E490106EF0229013F4E0FCA3B2
:10129000E09004DCFDECF0A3EDF0229004CA74139E
:1012A000F0A3227BFFE49010A1F02290047DF09047
:1012B000047F7440F0E4229013EAE0C39406748043
:1012C00094802274802EF582E43405F58322122E58
:1012D00022FE75F006EFA422900151E0FF90104825
:1012E000E06F229004BEE0C31354072290046CE028
:1012F00090046B2401FFE03400FE227E009004C4C1
:10130000EEF0A3EFF024FFFFEE34FFFE22E004F046
:101310009004C4E0FCA3E0FDAE04229004DF740E50
:10132000F0A3740CF0E4229006087413F090059674
:101330007426227B017A0179F67402F0A37458F0C6
:101340007F207E0022F0A37403F0A37480F07D342C
:101350007F4822EC04FF12CE61EF3395E04F22F577
:1013600083E0FE74FF2FF582E4340022F583E0FE73
:10137000741C2FF582E43401229004CC7402F0A393
:101380007480F022E0C3941974809480228F827557
:101390008300022E2290105A74FFF022E4F0A3740E
:1013A000C0F0227B017A1379FD2290049A7407F031
:1013B000229000F8E06401229004DEE014F0229014
:1013C0001044E004F0227BFFE490106EF0229004C1
:1013D000BEE0C4540F229013EAE0FF7E00640B22AB
:1013E000E0FDC4540F75F00AA4FCED540F2C2275D7
:1013F000F006A424F0F582E5F03401F58322E090B4
:101400000127F07B017A017926229004CC74FFF544
:10141000F0022F699004C97414F0E49004CAF090AB
:1014200004D52212C23CEF3395E04F22E0FF244066
:10143000F582E43401F583E0FE22E0FF245DF582CD
:10144000E43401F583E0FE229001EB74FFF0227496
:10145000EEF0A37472F0E4A3F07B1B22EFC394328E
:1014600074809480227403F0E4900467F09013F881
:10147000F022900000F0A3F022E014F09004DCE0F1
:10148000FEA3E078022275F006A424F1F582E5F0CF
:10149000340122F583E0FE74182FF582E434012232
:1014A0009004CAF0E49013F82274F1F0A374F722C8
:1014B00074F2F0A37417229000DC7480F09004C9D9
:1014C000741FF0229000EDE4F0A3F0A3F02290044A
:1014D0007BE0FEA3E0FF7C037DE82290140DE0FF9B
:1014E000901044E0FEC39F229013EAE0640B229028
:1014F00013EAE06403227B01E49010A1F022E024CF
:10150000FFF09000F5E034FFF0229001F4E0FF7E60
:10151000002290049AE0FF7E00229004DF7402F023
:10152000E49005E2F022A424F5F582E5F03401F51B
:101530008322C3940874809480227BFFE49010A1DE
:10154000F0227B01E490106EF0229000F1E0FD7C2F
:1015500000229013FDEDF09010447401F0229013DE
:10156000F7E0FF9013F6E09F2290049AF090049C1D
:101570002290104DE0FBA3E0FAA3E022F0900608D1
:101580007411F022F090019D74FFF0229004C97450
:1015900005F0227B017A067910227BFF9010A1F0E2
:1015A00022E0FEA3E0FFD39400EE229004C9F07F76
:1015B000012290048FF0E490048DF022C39FEE642A
:1015C00080F87480982290140FE064022290140F27
:1015D000E064032290016F7405F022E0FF2435F5EA
:1015E00082E43401227B017A0079FB227B017A01BB
:1015F000790622E0FF243DF582E43401227B017A62
:10160000017918227B017A01792322E0FF2462F517
:1016100082E4340122E0FF2452F582E4340122E026
:10162000FF245AF582E4340122740CF0A3E4F0A301
:1016300004F0229004E5E0640122E49010A1F07D22
:101640001E7F03227B037D037F03227D017BFF7EC0
:1016500000022DE3F09005E57402F07BFF227B0190
:101660007A01797B22E4901043F0901042F02241FD
:1016700014B60042149100004214930000421495E5
:1016800000004114900044149E000000004214A287
:101690000000C118C119501462001122334455666C
:1016A000778899AABBCCDDEEFF44147200000000DD
:1016B000C11EC10BC108C109C10AC10FC10CC10DB6
:1016C000C10EC110C111C112C1134C147A1F1C1FCD
:1016D0001E1F1E1F1F1E1F1E1F4213570000C11674
:1016E000C114C117C115C11FC1204114B700C121C8
:1016F00064000C3C0000000000000000000000003E
:1017000000000000000000000000000000000000D9
:1017100000000000000000000000000000000000C9
:1017200000000000000000000000000000000000B9
:1017300000000000000000000000000000000000A9
:101AF00000000000461412FFFFFFFFFFFF42145FCB
:101B0000000041144700441449000000004114B192
:101B1000024114B2004114B30041149D00560776EF
:101B2000736C5F67656E657269635F76312E302E08
:101B3000302E3030330063E8078C013B01A400FEF7
:101B400000690201019A01C201A9019F015E020B15
:101B5000007D00D2008F008600C9013A00FA0066BD
:101B600000D601C30087008201B30068009901918B
:101B7000013001C400EA00CC01A5012D008C0084D5
:101B8000019501450208013101AE016000F1019D9E
:101B900000FD012E0091007800F0019C021401F577
:101BA00000FB0144019201410159013601F700E7B0
:101BB00000D501F6015F021F008E0162020C00EBEE
:101BC0000216013801FE00CB0154009A020200D730
:101BD00000F3021E021200960200021C01C500E67C
:101BE000021D007C01F8019301550209015601B064
:101BF00001AF006700CD01A70213007B00F5014093
:101C0000009800CE0234028D01A00278008C0209F7
:101C10000280020800F5027A00A4007E01A4025BA3
:101C200000E6007C006601FA01F50200026200880D
:101C30000212006A01CF020100EB020B009A01467A
:101C400000820140025D009101AA0136013B01CDF5
:101C500001550108020C028101F800960193020E61
:101C60000195023301F600FD01B0019601A5028A3B
:101C7000016C023101B40109008601AE0068012D3A
:101C800001B301AF00F30271021E008E009C0267D7
:101C9000010500A000F00132027000A20266028E6F
:101CA00000CD008F0276026F00D6021D028301FE76
:101CB00000A5014402300098019C021400D5016483
:101CC00000D2028501F7025A00FB020B022301FE3B
:101CD000016400AF0108013C00D6028202C000CFBF
:101CE000008C01C4016000FD020E01C50202025B0E
:101CF000016F02F002DB013302A101D7014600A50A
:101D000002FC006A02C902F801C2019D006900F3E9
:101D1000020F027701DB0278027A02DC025D019198
:101D200001A702E50240007E0132015E00A20269C5
:101D300002D500A001F700F6010100A300E700C9E9
:101D4000028A01D30285019C021401560159020145
:101D5000009C00D202FD006B010001970193020874
:101D60000165029E01B5010F013800F7023100EB59
:101D70000234009D02F202A201CF02D3014000AA68
:101D800000D701D8016C02E4019201730237016DA2
:101D9000011202E701F70277027401A0011E030F8E
:101DA00000F702A0016C017C026401D402C800A209
:101DB000015A02A8035902A3032700ED013C01695F
:101DC000008E026502E0009E03450288015F01AEBD
:101DD000016002DE00800164021F010E032F01A4D6
:101DE0000339033102CE02BE019F034902A601ACB2
:101DF0000270025B00AA0209006A019503690134BE
:101E0000025902BD020E02CC02EE009A0204034EF9
:101E100000A401070269017001E7019D02380092E8
:101E2000036C01B00231031201D8023001A101AFED
:101E300001FE02E901FB007D032601E2017A034F66
:101E4000027D02FD02C20100034D01DC023A0141A4
:101E50000146020100EE02EA02FB00AE00C000D221
:101E600003BD02D0035B00B202F603BE0069015A53
:101E7000023301A30252037C024500D00112031772
:101E8000015C0208017302DF025903B7009E02F0F1
:101E900000CF0339032F035C018E03D402BF034834
:101EA0000169027400D601B400F800DA034B023B6A
:101EB000019C038A009F03C202C900C9028703CAAA
:101EC00000E60349033F037E01DE038601810244ED
:101ED00000A700BE024F036A029300BD02A302FCEA
:101EE00000BA0167016D009401A403AC01E2024E47
:101EF000018002E002F2036703C8017203B101B37B
:101F000003A4019A02070366018801D5013602B6CF
:101F100001870182013A03D7038C0178032201294A
:101F2000039160C80B74BB2B32FEA12B47C19CF2FE
:101F3000953F6426B6E1B40376D3C72A2A908F6012
:101F40002943484A6DA1C4A6525E4C5177EACF7529
:101F500090B678846BACCAFFB919C5B4BBBBA015E9
:101F60007C10C3F2DE45B6D5A455A7DAE71FCC5DD9
:101F70006D4C395A7C24CBD7D23BDC083A804C5B81
:101F8000DF5E3F9890D97DC58D1D34E4549B30B4FD
:101F9000BF379D562A4D3A3BD68973BE44E2283A54
:101FA000909AA8FB5E5D7FFD4FE56D6F7BC46EB9B7
:101FB00088CABC30CB49BB319FD5D623378064BD9E
:101FC0008794A74138E39B42518AE3344D167E91B2
:101FD00028FFBCF7BC2F92E2555EBD0D6BACE35001
:101FE000A192DAD85C98393A65C0B8CD6FCB41136D
:101FF000EAFF41135500C104C102C107C103C1007A
:10200000C101C105015500411296004212D30000E2
:1020100041148D0000901057EFF0E490105FF090A5
:102020001057E0FF25E02425F8E6FC08E6FD75F0F2
:1020300002EFA42497F582E5F03412F583E0FEA3C5
:10204000E0C39DFFEE9C901058F0A3EFF0E47F01F9
:10205000FEFDFC901057E0F9F81231C98F0F8E0E7B
:102060008D0D8C0CAF0112D33F90105DEEF0A3EFFD
:10207000F0C3901059E09FEE6480F8901058E0642F
:102080008098400890105A7401F08005E490105A2E
:10209000F090105AE064016003022291901057E022
:1020A000FF24AFF582E43412F583E0C394FA748020
:1020B0009480500D74AF2FF582E43412F583E00460
:1020C000F0E50B550FFFE50A550EFEE509550DFD30
:1020D000E508550CFCE4FBFAF9F8C31231A56003DE
:1020E00002225790127AE090105CF012D391EF60C8
:1020F00047E490105AF0A3F090105BE0FFC39510F6
:10210000502274AF2FF582E43412F583E0C39401BA
:1021100074809480400690105AE004F090105BE0C8
:1021200004F080D490105AE0C394037480948040EB
:102130000790105CE0240FF0901057E024AFF58278
:10214000E43412F583E0FF90105CE0FEEFC39E5094
:1021500003022257E490105AF012D2FEEF600302FD
:1021600021E490105BF090105BE0FFC39510502CC1
:10217000901057E06F601D12D2A590105BE024AF65
:10218000F582E43412F583E0C39F400890105A743E
:1021900001F0800890105BE004F080CA12D391EF48
:1021A0003395E04F600302223590105AE06003023D
:1021B0002235A3F090105BE0FFC39510507790108C
:1021C00057E06F601712D2A590105BE024BBF58238
:1021D000E43412F583E0C39F4002805390105BE02B
:1021E00004F080D012D391EF3395E04F70479010F8
:1021F0005CF090105BF090105BE0FFC395105022F4
:1022000074AF2FF582E43412F583E0C39402748036
:102210009480400690105CE004F090105BE004F0C5
:1022200080D490105CE0C394037480948040069046
:10223000105A7401F090105AE064017002D21AE54D
:102240000B450FF50BE50A450EF50AE509450DF5B9
:1022500009E508450CF508901057E0FF24EDF582DC
:10226000E43412F583E4F074492FF582E43413F575
:1022700083E4F075F002EFA424D5F582E5F0341282
:10228000F583E4F0A3F0747E2FF582E43412022685
:1022900020901057E0FF12CFFC901058E0FCA3E014
:1022A000FDD39FEE6480F8EC648098401290105744
:1022B000E024BBF582E43412F583E004F08015904D
:1022C000148FE004F0901057E024BBF582E4341240
:1022D000F583E4F0901330E0FF3395E0FEC3E49F14
:1022E000FBE49EFAC3ED9BEA6480F8EC64809850AE
:1022F000030223E9D3901059E09FEE6480F8901018
:1023000058E064809840030223E9901057E0FF24CE
:10231000EDF582E43412F583E4F0747E2FF582E467
:102320003412F583E4F0FFFEFDFCAB0BAA0AA90909
:10233000A808C31231A56003022525901058E0FEBD
:10234000A3E0FF901057E075F002A424D5F582E5D4
:10235000F03412F583EE8FF0122F5312D2869010C4
:1023600057E075F002A424D5F582E5F03412F58328
:10237000E0FCA3E0C39FEE6480F8EC648098401317
:10238000901057E0FF25E02425F80806E618704372
:1023900006804012D286C3E49FFFE49EFE90105751
:1023A000E075F002A424D5F582E5F03412F583E05F
:1023B000FCA3E0C39FEE6480F8EC648098400302C5
:1023C0002525901057E0FF25E02425F808E616188B
:1023D00070011675F002EFA424D5F582E5F03412F1
:1023E000F583E4F0A3F0022525901330E0FF339548
:1023F000E0FEC3E49FFFE49EFEC3901059E09FEE11
:102400006480F8901058E0648098400302249B9008
:102410001057E0FF24EDF582E43412F583E004F078
:10242000747E2FF582E43412F583E4F074ED2FF519
:1024300082E43412F583E0FF75F00A84E5F070461B
:10244000C3EF946474809480901057E0401424ED9E
:10245000F582E43412F583E4F0D21B90135504F0B6
:10246000802425E02425F8C000E6FE08E6FF90134E
:1024700030E0A2E713FD3395E0FCC3EF9DFFEE9C37
:10248000D000F608A607901057E0FF901488E06F80
:10249000600302252574FFF0022525901330E0FF2C
:1024A0003395E0FED3901059E09FEE6480F89010D1
:1024B00058E0648098406E901057E024EDF582E477
:1024C0003412F583E4F0FFFEFDFCAB0BAA0AA90968
:1024D000A808C31231A5704D901057E0FF247EF577
:1024E00082E43412F583E004F0747E2FF582E43444
:1024F00012F583E06420702D901057E0FF247EF5E4
:1025000082E43412F583E4F0901330E0A2E713A2E2
:10251000E713FD3395E0FCEF25E02425F808ED26D0
:10252000F618EC36F6E50B550FFFE50A550EFEE5FD
:1025300009550DFDE508550C4D4E4F70030226362A
:1025400090105DE0FCA3E0FDAE047802CEA2E7139C
:10255000CE13D8F8FFC3ED9FFFEC9EFEC390105939
:10256000E09FEE6480F8901058E064809840030289
:102570002625901057E02449F582E43413F583E0D2
:1025800004F012D30690105CEFF0E490105BF09032
:10259000105BE0FFC39510502274AF2FF582E43436
:1025A00012F583E0C3940174809480400690105A21
:1025B000E004F090105BE004F080D490105AE0C387
:1025C000940374809480400890127AE090105CF03C
:1025D000901057E0FB2449F582E43413F583E0FFC3
:1025E00090105CE0FEEFC39E50030226A574492BB9
:1025F000F582E43413F583E4F0AF0FAE0EAD0DAC0D
:102600000C123198E50B5FF50BE50A5EF50AE5095A
:102610005DF509E5085CF50874AF2BF582E434122A
:10262000F583E4F022901057E02449F582E4341356
:10263000F583E014F022901057E024AFF582E434E3
:1026400012F583E4F0FFFEFDFCAB0BAA0AA909A872
:1026500008C31231A57008901057E0FF12A081E561
:102660001014FF901057E06F703B90148FE0C395EB
:10267000104032E490105BF090105BE0FFC39510C7
:10268000501B74AF2FF582E43412F583E06006909E
:10269000105A7401F090105BE004F080DB90105A47
:1026A000E07002C21A22901045EB120F23A3EDF046
:1026B000E4A3F0120EBE5015901045120CB9901004
:1026C00049E0FFF58212138F120C6F80E67B017ACE
:1026D000017945120D34740CF07F73122CF67A01D7
:1026E0007962120D34740CF07F85122CF67A017920
:1026F00051120D3404F07F807E0312BEAC7B017A50
:1027000001796E120D3404F07F927E0312BEAC127A
:102710000F0E7A017945122CFE60030228991212DD
:10272000D860030227D7A3F0120EBE5005120C6327
:1027300080F6120CCE12D0877B017A017935120D0A
:1027400034122C627A017939120D34122C02120DD6
:10275000E450151215DB12110C2439F582E4340112
:1027600012135F120C8980E61215E5120CFF122B72
:10277000F57A0079FF120CFF122C2E7A01794012A3
:102780000D34122BE6120DC1501012142C74062FAA
:10279000F582E43401120C8980EB1215EC120CFF67
:1027A000122C6F7A017943120D34122CC990010951
:1027B000F0900144120CF4122C3B7A01793D120D79
:1027C00034122C1F120DC14003022AEF1215F3120E
:1027D000122F120C8980ED90016E1212DB60030241
:1027E0002BE3A3F0120EBE5005120C6380F6120C00
:1027F000CE12D09A7B017A017935120D34122C62F7
:102800007A017939120D34122C02120DE45018128B
:1028100015DB1214931211182439F582E4340112D5
:10282000136C120C8980E31215FD120CFF122C128E
:102830007A01791C120CFF122C7B7A017940120D5F
:1028400034122BE6120DC1501012142C74232FF5E4
:1028500082E43401120C8980EB121604120CFF1270
:102860002CA57A017943120D34122CC9900126F05F
:102870009001441213FE120CFF122CB17A01793D23
:10288000120D34122C1F120DC14003022BC9121558
:10289000F312123C120C8980ED120F0E7A0179624C
:1028A000122CFE6003022A291212D8600302296446
:1028B000A3F0120EBE500812160B120C6C80F3120D
:1028C0000CCE12D0877B017A017952120D34122C72
:1028D000987A017956120D34122C88120DE4501595
:1028E00012161512110C2456F582E4340112135FEE
:1028F000120C8980E61215E5120CFF122BF57A00F6
:1029000079FF120CFF122C2E7A01795D120D341210
:102910002C48120DC1501012143A74062FF582E49F
:102920003401120C8980EB1215EC120CFF122C6F83
:102930007A017960120D34122CD8900109F09001BF
:1029400061120CF4122C3B7A01795A120D34122CBC
:10295000E7120DC1500B12161F12122F120C898094
:10296000F0022AEF90016E1212DB6003022BE3A348
:10297000F0120EBE500812160B120C6C80F3120CE3
:10298000CE12D09A7B017A017952120D34122C9812
:102990007A017956120D34122C88120DE450181257
:1029A00016151214931211182456F582E4340112EC
:1029B000136C120C8980E31215FD120CFF122C12FD
:1029C0007A01791C120CFF122C7B7A01795D120DB1
:1029D00034122C48120DC1501012143A74232FF5E2
:1029E00082E43401120C8980EB121604120CFF12DF
:1029F0002CA57A017960120D34122CD8900126F0A2
:102A00009001611213FE120CFF122CB17A01795A57
:102A1000120D34122CE7120DC1500B12161F121298
:102A20003C120C8980F0022BC9901048E0640160D0
:102A300003022B00120CD112D087E4901049F0123F
:102A40000DE45018E0FF24FBF582E43400F583E444
:102A5000F0121363F583E4120C8C80E31215E51277
:102A60000CFF7404F07FA07E031266FE7B017A00E7
:102A700079FF120CFF7404F07F32122C57120DC133
:102A80005018E0FF2406F582E43401F583E4F012E7
:102A90001233F583E4120C8C80E31215EC120CFF58
:102AA0007403F07F3BFE1266FE7B017A017903120C
:102AB0000CFF7403F07F37122D09120FC1501074F0
:102AC000092FF582E43401F583E4120C8C80EB12BB
:102AD0000CF97402F07F3F122C57901049E0FF125E
:102AE0000DC5500B121233F583E4120C8C80EB7B76
:102AF000017A017903120CFF7403F07F37022BD7A0
:102B0000901048E064026003022BDD120CD112D059
:102B10009AE4901049F0120DE45018E0FF2418F5E3
:102B200082E43401F583E4F0121370F583E4120CAF
:102B30008C80E31215FD120CFF7404F07FA67E0357
:102B40001266FE7B017A01791C120CFF7404F07F7F
:102B500042122CBE120DC15018E0FF2423F582E46E
:102B60003401F583E4F0121240F583E4120C8C80FA
:102B7000E3121604120CFF7403F07F4BFE1266FE84
:102B80007B017A017920120CFF7403F07F47122D2C
:102B900009120FC1501074262FF582E43401F58319
:102BA000E4120C8C80EB121403120CFF7402F07F01
:102BB0004F122CBE901049E0FF120DC5500B12129F
:102BC00040F583E4120C8C80EB7B017A01792012B2
:102BD0000CFF7403F07F47FE1266FE8006120CCED7
:102BE00012D0877FFF227403F07F5BFE12BEACE43D
:102BF000901049F0227404F07FA07E031266FE7BE1
:102C000001227404F07F527E0312BEACE49010499E
:102C1000F0227404F07FA67E031266FE7B0122740C
:102C200003F07F57FE12BEACE4901049F02274040A
:102C3000F07F327E031266FE7B01227402F07F3F3A
:102C40007E031266FE7B01227403F07F6BFE12BED0
:102C5000ACE4901049F0227E031266FEE490104925
:102C6000F0227404F07FAD7E0312BEAC7B012274AF
:102C700003F07F3BFE1266FE7B01227404F07F426C
:102C80007E031266FE7B01227404F07F627E0312D3
:102C9000BEACE4901049F0227404F07FB47E0312BD
:102CA000BEAC7B01227403F07F4BFE1266FE7B01FB
:102CB000227402F07F4F7E031266FE7B01227E03A8
:102CC0001266FEE4901049F0227402F07F5F7E03EA
:102CD00012BEAC900143E0227402F07F6F7E0312BB
:102CE000BEAC900160E0227403F07F67FE12BEACC0
:102CF000E4901049F0227E0312BEAC7B01227B01DE
:102D000012813AEF3395E04F22FE1266FEE49010F6
:102D100049F022E709F608DFFA8046E709F208DF02
:102D2000FA803E88828C83E709F0A3DFFA8032E3E1
:102D300009F608DFFA8078E309F208DFFA80708884
:102D4000828C83E309F0A3DFFA806489828A83E0BE
:102D5000A3F608DFFA805889828A83E0A3F208DFAD
:102D6000FA804C80D280FA80C680D4806980F2805C
:102D700033801080A680EA809A80A880DA80E28082
:102D8000CA803389828A83ECFAE493A3C8C582C8D7
:102D9000CCC583CCF0A3C8C582C8CCC583CCDFE941
:102DA000DEE7800D89828A83E493A3F608DFF9ECDD
:102DB000FAA9F0EDFB2289828A83ECFAE0A3C8C568
:102DC00082C8CCC583CCF0A3C8C582C8CCC583CC8F
:102DD000DFEADEE880DB89828A83E493A3F208DFFE
:102DE000F980CC88F0EF60010E4E60C388F0ED24CE
:102DF00002B4040050B9F582EB2402B4040050AFD1
:102E00002323458223902D6373BB010689828A8325
:102E1000E0225002E722BBFE02E32289828A83E499
:102E20009322BB010CE58229F582E5833AF583E024
:102E3000225006E92582F8E622BBFE06E92582F843
:102E4000E222E58229F582E5833AF583E49322BB09
:102E5000010FF8E58229F582E5833AF583E028F051
:102E6000225009C58229F8E58226F622BBFE09C553
:102E70008229F8E22582F222F8EA2583F583E99394
:102E80002822BB010689828A83F0225002F722BBE6
:102E9000FE01F322F8BB010DE58229F582E5833AB4
:102EA000F583E8F0225006E92582C8F622BBFE052C
:102EB000E92582C8F222EF8DF0A4A8F0CF8CF0A40F
:102EC00028CE8DF0A42EFE22BC000BBE0029EF8D73
:102ED000F084FFADF022E4CCF875F008EF2FFFEEA0
:102EE00033FEEC33FCEE9DEC984005FCEE9DFE0FAE
:102EF000D5F0E9E4CEFD22EDF8F5F0EE8420D21C09
:102F0000FEADF075F008EF2FFFED33FD4007985050
:102F100006D5F0F222C398FD0FD5F0EA22C2D5EC17
:102F200030E709B2D5E4C39DFDE49CFCEE30E71523
:102F3000B2D5E4C39FFFE49EFE122EC8C3E49DFDFC
:102F4000E49CFC8003122EC830D507C3E49FFFE445
:102F50009EFE22C5F0F8A3E028F0C5F0F8E5821542
:102F60008270021583E038F022A3F8E0C5F025F066
:102F7000F0E582158270021583E0C838F0E822BBC4
:102F8000010A89828A83E0F5F0A3E022500687F0E7
:102F900009E71922BBFE07E3F5F009E3192289824C
:102FA0008A83E493F5F074019322BB0110E5822932
:102FB000F582E5833AF583E0F5F0A3E0225009E9D4
:102FC0002582F886F008E622BBFE0AE92582F8E2AF
:102FD000F5F008E222E5832AF583E993F5F0A3E909
:102FE0009322BB010DC58229C582C5833AC58302E0
:102FF0002F535011C58229F808E5F026F618F5F090
:10300000E58236F622BBFE11C58229F808E225F0DA
:10301000F5F0F218E23582F222F8E58229F582E530
:10302000832AF58374019325F0F5F0E4933822BBED
:10303000010A89828A83F0E5F0A3F0225006F7099D
:10304000A7F01922BBFE06F3E5F009F31922F8BB3D
:103050000111E58229F582E5833AF583E8F0E5F090
:10306000A3F0225009E92582C8F608A6F022BBFE8B
:1030700009E92582C8F2E5F008F222E88FF0A4CC35
:103080008BF0A42CFCE98EF0A42CFC8AF0EDA42C8F
:10309000FCEA8EF0A4CDA8F08BF0A42DCC3825F05E
:1030A000FDE98FF0A42CCD35F0FCEB8EF0A4FEA949
:1030B000F0EB8FF0A4CFC5F02ECD39FEE43CFCEA56
:1030C000A42DCE35F0FDE43CFC2275F0087582009D
:1030D000EF2FFFEE33FECD33CDCC33CCC58233C5DD
:1030E000829BED9AEC99E58298400CF582EE9BFE6E
:1030F000ED9AFDEC99FC0FD5F0D6E4CEFBE4CDFAC9
:10310000E4CCF9A88222B800C1B90059BA002DEC6C
:103110008BF084CFCECDFCE5F0CBF97818EF2FFF04
:10312000EE33FEED33FDEC33FCEB33FB10D70399AC
:103130004004EB99FB0FD8E5E4F9FA227818EF2F59
:10314000FFEE33FEED33FDEC33FCC933C910D70578
:103150009BE99A4007EC9BFCE99AF90FD8E0E4C997
:10316000FAE4CCFB2275F010EF2FFFEE33FEED33C7
:10317000FDCC33CCC833C810D7079BEC9AE89940F4
:103180000AED9BFDEC9AFCE899F80FD5F0DAE4CD56
:10319000FBE4CCFAE4C8F922CFF4CFCEF4CECDF4E0
:1031A000CDCCF4CC22EB9FF5F0EA9E42F0E99D42B3
:1031B000F0E89C45F022E8600FECC313FCED13FD32
:1031C000EE13FEEF13FFD8F122E8600FEFC333FFD9
:1031D000EE33FEED33FDEC33FCD8F1227401FF3306
:1031E00095E0FEFDFCA3A3A3E0CF2FF0E5821582BE
:1031F00070021583E0CE3EF0E582158270021583E1
:10320000E0CD3DF0E582158270021583E0CC3CF004
:1032100022ECF0A3EDF0A3EEF0A3EFF022A882855C
:1032200083F0D083D082123234123234123234120C
:103230003234E473E493A3C583C5F0C583C8C58263
:10324000C8F0A3C583C5F0C583C8C582C822A4251C
:1032500082F582E5F03583F58322D083D082F8E4CD
:10326000937012740193700DA3A393F8740193F5F6
:10327000828883E4737402936860EFA3A3A380DF62
:10328000EC8EF0A4CCC5F0CCCDF8EFA4CEC5F02DDB
:10329000FDE43CFCE8A42EC8C5F03DFDE43CFCEF99
:1032A000A4FFE5F028FEE43DFDE43CFC229010CCB8
:1032B000123B30E49010D4123B0EA3123B0E901040
:1032C000CC123B064A4B7002FF229010CC123B06F8
:1032D000F990000F123E3BC002C0019010CF123C8B
:1032E000F9901103C9123B319010D2E0FFA3E09096
:1032F0001106CFF0A3EFF0D001D0021244FAEF7024
:1033000002FF229010CC123B06F9123D1724FE60FA
:103310007614700302345E14700302354724036090
:10332000030236A3E49010E2F0A3F09010CC123B1D
:1033300006123C2595F0500D123CA470EE9010E260
:10334000E004F080E69010CC123B06123B77ED6B68
:103350007001EC60030236B39010CCE0FBA3A390A5
:103360000007123C7FFDACF0123D33900008123B89
:10337000B13E123BA9123C4E60030236B39010CC12
:10338000123B06F902369A123EB1129AC69010CC40
:10339000123B06F9900005123C7FFDACF0123EABEB
:1033A000900006123BB13E9010D4F0A3EFF0123E15
:1033B00034123E6D900008123D39900009123C75A0
:1033C0002DFFE5F03CFE90000A123BBB9010E0128E
:1033D0003EB87C057DA0122EC89010D4123E837C8E
:1033E000007D06122EB6EF2BFFEE3A9010D8F0FCBF
:1033F000A3EFF0FD9010CC123B062416F9E43AFA44
:10340000C004C0059010E0123D08901105ECF0A337
:10341000EDF0D005D00412688A78007C11123C02CD
:103420009010CC123B0678187C11123D8F1236C7D3
:10343000123B06123C4D60030236B39010E6123C7C
:103440004694FDEE6480947F50030236B3D3EF942C
:103450000FEE6480948040030236B302369A123E27
:10346000B1129AC6E49010E2F0A3F09010CC123B97
:1034700006123C2595F0500D123CA470EE9010E21F
:10348000E004F080E69010CC123B06123B77ED6B27
:103490007001EC60030236B39010CCE0FBA3A312E2
:1034A0003E3475F0038475F00AA4FF900006123BC9
:1034B000BB35F090002E8FF012304E123E3475F076
:1034C0000384E5F075F00AA4FF900008122E222F65
:1034D000900030123DEB90002E123E1AC3EE940085
:1034E00050030236B3D3EF9417EE94004003023634
:1034F000B39010CC123B06F9900030122FAAFDAC0D
:10350000F0D39FEC9E50030236B3D3ED9418EC94A5
:103510000040030236B3123C4E60030236B3900003
:103520002E122FAAFF9010EE123C3095F05003029D
:1035300036B3900030122FAAFFC3ED9FEC95F040F8
:10354000030236B302369A123EB112A8239010CC71
:10355000123B06F9900004123C7F24E3FFE5F034AF
:1035600007FE900005123BBB9010D6123EB890109B
:10357000E8123D7440030236B3C39010D7E09DFFBC
:103580009010D6E09CFEC3EF9403EE94004003023B
:1035900036B39010CCA3A3123D33123E6D900007BA
:1035A000123D39900008123C752DFFE5F03CFE906D
:1035B0000009123BBB3EFE9010E2F0A3EFF0C39473
:1035C00051EE942240030236B39010E2E0FAA3E0F9
:1035D000FB7D18123CD69010D8EEF0A3EFF07C00E3
:1035E0007D18AF03AE02122EC89010DEECF0A3EDF2
:1035F000F09010D6E0FEA3E0A3123DD47410F0A327
:1036000074DCF07B017A1079DA1277559010CC12C5
:103610003B062416F9E43AFA9010D6E0FCA3E0FD4C
:103620009010DAE0FFA3E0901105CFF0A3EFF09047
:1036300010DCE0FFA3E0901107CFF0A3EFF09010B3
:10364000DEE0FFA3E0901109CFF0A3EFF012AAD4BF
:103650009010CC123B0678007C11123D8F78187CBC
:1036600011123C021236C7123B06123C4D7044D375
:103670009010E7E094009010E6E06480948040337E
:10368000900024122FAAFF9010F6123E8DE5F09CB8
:10369000FEC3EF94E7EE9403501990000FE475F029
:1036A00001800D9010CC123B06F990000FE4F5F06C
:1036B00012304E9010CC123B06F990000F123C5184
:1036C0007F0070027F012212AC669010E6EEF0A33C
:1036D000EFF09010CC2290131FE030E60554BFF0BD
:1036E000804F90131FE030E74B124FAE9010451201
:1036F000321190131FE0547FF0E4FBEBC394047489
:10370000809480502C901045E0FCA3E0FDA3E0FEE7
:10371000A3E0FFEB75F008A4FAC374189AF9F81245
:1037200031B674492BF582E43414F583EFF00B8045
:10373000CA12D397C3900495E09420900494E09427
:103740000050037FFF2230021EE4FFFEFDFC9010BC
:1037500045E0F8A3E0F9A3E0FAA3E0FBC31231A52A
:103760007002C2027FFF2290144CE0FF548060057B
:10377000E4A3F0800690144D74FFF0EF542060072E
:10378000E490144EF0800690144E74FFF090144BA9
:10379000E0FF54046007E490144FF0800690144F4B
:1037A00074FFF0EF54106007E4901450F08006901E
:1037B000145074FFF090144CE0FF54106007E49034
:1037C0001451F0800690145174FFF090144BE0FEF9
:1037D00054016007E4901452F0800690145274FF74
:1037E000F0EE54206007E4901453F08006901453D8
:1037F00074FFF0EF54086007E4901454F0800690D2
:10380000145474FFF090144CE0FF54406007E490AF
:103810001455F0800690145574FFF090144BE0FEA0
:1038200054406007E4901456F0800690145674FFDC
:10383000F0EF54046007E4901458F0800690145898
:1038400074FFF0EE54806007E4901457F080069007
:10385000145774FFF020C207E4901459F0800690CA
:10386000145974FFF012CC94700990145EE0700348
:1038700002395F90144E12CC97700B90145EE06486
:1038800001700302396E90144F12CC97700B901494
:103890005EE06402700302397E90145012CC97707F
:1038A0000B90145EE06403700302398F9014511280
:1038B000CC97700B90145EE0640470030239A09002
:1038C000145212CC97700B90145EE06405700302E2
:1038D00039B190145312CC97700B90145EE06406CB
:1038E00070030239C190145412CC97700B90145E7F
:1038F000E0640770030239D190145512CC97700B15
:1039000090145EE0640870030239E190145612CC02
:1039100097700B90145EE0640970030239F1901403
:103920005712CC97700B90145EE0640B7003023A50
:103930000190145812CC97700B90145EE0640A70DA
:1039400003023A1190145912CC97700E90145EE055
:10395000640D7006901461023A2412CC94700790A2
:103960001461F0023A2C90144E12CC977008901407
:103970006104F0023A2C90144F12CC977009901405
:10398000617402F0023A2C90145012CC9770099096
:1039900014617403F0023A2C90145112CC97700900
:1039A0009014617404F0023A2C90145212CC977067
:1039B000089014617405F0807390145312CC9770C2
:1039C000089014617406F0806390145412CC9770C0
:1039D000089014617407F0805390145512CC9770BE
:1039E000089014617408F0804390145612CC9770BC
:1039F000089014617409F0803390145712CC9770BA
:103A000008901461740BF0802390145812CC9770B6
:103A100008901461740AF0801390145912CC979096
:103A200014617005740DF0800374FFF0901461E070
:103A3000FF900607F0F47003023ABC90145EE0FDBC
:103A4000901461E0FC6D6015EF640D901049600406
:103A5000ECF0800374FFF090145EEC8079D3901446
:103A600060E094C090145FE09400500FA3E004F075
:103A7000700690145FE004F012CCAD90145FE0FE8D
:103A8000A3E0FFD39460EE9400402CEF94C0EE943A
:103A900000400EA3E0640D7008901049741BF08084
:103AA0000312CCAD901447E004F0D3947F7480945B
:103AB000804029E4F0802512CCAD802090145EE097
:103AC000FF640D9010497004EFF0800374FFF090D4
:103AD0001461E090145EF0E4A3F0A3F0901049E0CC
:103AE000FF2290005BE412304E901103E0FBA3E054
:103AF000FAA3E090110EF9E0FEA3E0F5828E8312A6
:103B00002E22FF901100E0FBA3E0FAA3E022F0A335
:103B1000F0A3F0A3F0A3F0A3F0A3F0A3F0A3F0A30D
:103B2000F022A3E0FAA3E02404901109F9E43AFAA0
:103B3000EBF0A3EAF0A3E9F022F990000E122FAA0D
:103B4000FFAEF07C007D06122EC8900010EE8FF0C4
:103B500012304E90000E122FAAFFAEF07C00227D94
:103B60003C122EB6900008122FAA90000C2FFFEEE8
:103B700035F08FF002304EF9900009122E22FFFD31
:103B8000C39010E5E09DF09010E4E09400F0EFFBAE
:103B90007D0AE0FEA3E0FF7C00022EC83EFE9000FE
:103BA00008122FAA2FFFEE35F09000148FF002308C
:103BB0004E75F064A42DFFE5F03CFE122E227C0031
:103BC0002FFFEC22900001122E22FF900041E48F83
:103BD000F012304E900002122E22900043FFE48F2C
:103BE000F002304E900012122FAAFFAEF07C057D3D
:103BF000A0022EB6900012F9EC8DF012304E90001B
:103C000006227B017A1079E87E007D017F18022D63
:103C1000E37C007D64122EC87F0A7E00CFCDCFCE1C
:103C2000CCCE022EC8F990000D122FAA9010E2FF00
:103C3000E0FCA3E0FDC39FEC22E0C4540F75F00A42
:103C4000A4FFE0540F22E0FEA3E0FFC322F990009E
:103C50005D122FAA640145F022FF122E22FD12D21E
:103C6000CAAE079010CC22F9122E22FFAD0612D157
:103C7000859010CC2275F064A42DFDEC35F0FC127B
:103C80002E2275F00AA422CFF0A3EFF07B017A1068
:103C9000796C22F990000D022FAAFFE0FD12D18568
:103CA0009010CC228D828C83122E22FF9010E5E0A2
:103CB0002FF09010E4E03400F09010E3E004F022E4
:103CC0007D017BFF7E00022DE39000068FF0023025
:103CD0004EE0FAA3E0FBFFAE02022EC8F9E0FEA31D
:103CE000E0FFF5828E83022E22F9E0FCA3E0F5824C
:103CF0008C83EF022E94901062E0F9A3E0FAA3E027
:103D000022A3ECF0A3EDF0227C057DA0E0FEA3E071
:103D1000FF022EC8122E94900011022E22F990005C
:103D200002EF122E94900003022E22F9900005EF6C
:103D3000122E94900006022E22AC06AD07022E220F
:103D4000900002F9EE8FF002304EFFE0FD12D2CA71
:103D50009010CC2234F8FE7C007D0F122EC8ED248A
:103D6000E3FFEC340722E0FFA3E0900004CF8FF0E4
:103D700002304EFFE0FCA3E0FDD39FEC9E222FFE1D
:103D8000EC35F0F0A3CEF0227C277D10022EC82463
:103D900016F9E43AFA7D017E007F18022DE3A3E0D4
:103DA000FAA3E02406F9E43AFA90110C22A3E0FA0F
:103DB000A3E02408F9E43AFA90110F22F98D828CDD
:103DC00083122E22FF22F9900008EF122E94900009
:103DD00009022E22FFE0FCA3E0FD9011187401F00F
:103DE000A32224FFFFE5F034FFFE22FFEC35F08F25
:103DF000F002304EA37407F0A374E3F0227D017B40
:103E0000FFFE022DE333FE74212FF58274113EF57F
:103E10008322F98F828E83022E22122FAAFFAEF008
:103E200022A3E0FEA3E0FFED6F22901116FFE4F065
:103E3000A3EFF022900007022E22F9E4F5F0023001
:103E40004EAF05AE04AD03AC02022EC874FF2DF5D3
:103E50008274FF3CF58322901106E0FEA3E09011EE
:103E60000A2224FFF58274FF35F0F58322FF7E00DD
:103E70007C037DE8022EB6C98DF002302FC98FF089
:103E800002302FAA06AB07E0FEA3E0FF22E0FCA36E
:103E9000E0FDC3EF9DFF229400CF2401FBE43FFA35
:103EA00022F9900012122FAA25E022900004022E7F
:103EB000227B017A1079E8223EFEF0A3EFF02290F7
:103EC00004CAE0706E9000D2E070269004D5E064E1
:103ED00002701E9000D5E0701812129B7407120E2B
:103EE000547F3E12D1C012D176120D067D0E0241D2
:103EF000439004D5E0FF7E006401700E9000D5E091
:103F0000120FC650028001C35014EF64024E701CA1
:103F10009000D4E012153250028001C3400E120E00
:103F20004B1241D7120C947D2402414374011214A8
:103F3000A0F0229004CAE0640170507403F0E49091
:103F400013F812113C700512CE7A800312CE9390B2
:103F500004CEEFF0120E0FE4901044F0901044E005
:103F6000FF120EC25008120F861213BF80EE1211FC
:103F7000337B5270047D4C80027D4E7F6612D1E807
:103F800012D176120D7C7D1E0241439004CAE0647A
:103F900003600302403E12D176E4FD7F0512B812A1
:103FA0001215C6600302402B90140ED31212124059
:103FB00059E4901044F0901044120EC1501EE0FFDE
:103FC00024FDF582E43413F583E0FE74DE2FF582E0
:103FD000E43413F583EEF01213BF80DA120E09E415
:103FE000901044F0901044E0FF120EC25008120FDF
:103FF000861213BF80EE1211337B5270047D4C8009
:10400000027D4E7F6812D1E8802C7403120E0BE4FF
:10401000901044F0901044E0FF120EC25008120FAE
:10402000861213BF80EE121379800B1215CD700625
:1040300012129B121629120D7C7D1E024143900420
:10404000CAE064047050FD7F0512B81290140F127C
:104050001273703290140EE0D312121340079004C2
:10406000CA7405F022120E09E4901044F090104436
:10407000E0FD120EC2500B74FD2D120F891213BFFA
:1040800080EB12137922EF64034E60030241D612D3
:10409000129B121629229004CAE0640560030241B3
:1040A000487B0190104D04F0A37413F0A374FDF04D
:1040B0007A1379DE12813AEF3395E04F7073121361
:1040C000A31292AFEF704D1213A39004CEE0FD1235
:1040D00026A612127A7002EEF4702C9004CA7412A2
:1040E000F09004CC120E567D321241E7120C577D2F
:1040F000247F03126FE812113D70059000D58003F4
:104100009000D4E004F022120E4B1241D7120C940E
:104110007D24802F12129B7404120E547D527F5600
:1041200012D11912D1767AF279B3120F2B7D248035
:104130001212129B7409120E547D341241E7120CB4
:10414000C27D247F03026FE89004CAE06412702AE3
:1041500012140A120D459400507C9000D2E07012A7
:1041600012113D700D9000D5E06401700512D1F57B
:10417000800312D20F7F06025B999004CAE0641399
:10418000705412140A120D459400504A9004CBE06A
:10419000FF7E00640C700E9000D2E070089000D595
:1041A000E0700280119000D2E0700F12113D700A91
:1041B0009000D5E07004120D6622EF64064E600E8A
:1041C0009004CBE0FF640C6005EF640770051211EA
:1041D0003D800012D20F227F5812D1C07F647E0032
:1041E00012D38512D176227F4412D11912D17622B0
:1041F0009000CC120CA8700B9004C97424F07F04BA
:1042000012AE6D9005A4E070067420F012BB5D90B4
:10421000059AE0640470799000ED74FFF09005A2B7
:10422000A3E09000F3F012CBF01210F09000F8E051
:1042300070069000F10480291213B1600302431F3D
:104240009000EF120FD1BEFF0ABFFF079000F1747C
:1042500006800E120FCEBEFF0EBFFF0B9000F17452
:10426000041244EF0242EB9000F7E0700A7F7A12EA
:10427000D1C09000F7807A120E21500302431FEF45
:1042800064017003120D759000F7E014F002431FF3
:1042900090059AE06405600302431F1210377056C0
:1042A00090059DE064167038A3E064D47032A3E0FA
:1042B00064DB702CA3E0643C70269006F0E0701B79
:1042C00012BE1A90060F120CA870107D327F441295
:1042D000D1199006F074C0F012CBF0120D75803F2A
:1042E0009000F174071244EF12CBF09000F5E4F067
:1042F000A37480F08029E49000EDF09000F104F0C8
:104300009000F31211B3120E567F4012D1C09000EC
:10431000C9120DE75005E004F08004121179F01283
:104320006D0B9001F4E0642870749000EE74FFF05F
:104330009001EFA3E0049000F21210EF9000F8E07B
:1043400070089000F174030243CB1213B1600302B2
:1043500044059000ED120FD1BEFF0ABFFF07900089
:10436000F1740480669000EF120FD1BEFF0ABFFF08
:10437000079000F1740580539000F7E0700A7F7A8F
:1043800012D1C09000F7804F120E214078EF6401E7
:1043900070049001F4F09000F7E014F08067900151
:1043A000F4E06429705FA3E0642B70089000FA7455
:1043B00002F08005E49000FAF0121037701E9000B1
:1043C000FAE0640260169000F17407F012C483747E
:1043D000201211B7E4F0A37480F08029E49000EE7D
:1043E000F09000F17403F0E4A31211B4120E567FA2
:1043F0004012D1C09000C8120DE75005E004F080D3
:1044000004121179F012787690049AE0640A705DD3
:104410009000EF74FFF09004A8E09000F41210EF09
:104420009000F8E060089000F0E0640170079000F0
:10443000F17402804A1213B160030244DE9000ED71
:10444000120FD1BEFF0ABFFF079000F17406802F44
:10445000120FCEBEFF0ABFFF079000F17405801F48
:104460007F7A12D1C01213AA9000F7802290049A8A
:10447000E0640B704B121037701A9000F17407F063
:1044800012C4839004C97420F09000F5E4F0A37482
:1044900080F0804AE49000EFF09000F17402F09018
:1044A00000F41211B3120E567F4012D1C09000CA10
:1044B000120DE75005E004F08024121179F0801EFF
:1044C000121512640C700E90047BF0A3F09004C9D6
:1044D0007423F08009EF640D4E700312D229126E1E
:1044E0007B900492E07002A3E0700312D17622F078
:1044F00012C4839004C97420F022901100123B3042
:10450000E4901108123B1A901106E0FCA3E0FD9024
:10451000110CECF0A3EDF0123B03123EA1FBE5F011
:1045200033FAED24FAFFEC34FFFE7C007D05122EF9
:10453000C890078C75F0C8ED12324EEC75F0C8A427
:104540002583F583E5822BF582E5833AF583E0FE4A
:10455000A3E0FBAA067C007D64FF122EC890110E1A
:10456000EEF0A3EFF0AF03AE02123C11A3EEF0A306
:10457000EFF0AE02AF037C007D0A122EC8123D019F
:10458000E4123B19901107E024F5FE901106E03487
:10459000FF901118F0A3CEF0123B034A4B7002FFBC
:1045A00022123B03F9900012123E1AD39400EE94AB
:1045B000004008EF9464EE940040037F00229011C5
:1045C0000C123C469406EE94004009D3EF940CEE96
:1045D000940040037F0022901118123C46EE940094
:1045E000405BD3EF9402EE9400505290110FE09F85
:1045F00090110EE09E500CA3E0240AF090110EE002
:104600003400F0D3901111E09F901110E09E500CF7
:10461000A3E0240AF0901110E03400F0901118E0AB
:10462000FEA3E0FFD3901113E09F901112E09E5083
:104630000CA3E0240AF0901112E03400F090110A6B
:10464000E4F0A304F0123E57123D73503390110E64
:10465000123E227002EC6E6017123E217002EC6E68
:10466000600E123E217002EC6E6005123D0180105A
:1046700090110BE004F070CD90110AE004F080C5B9
:10468000E490110AF0A3F0123E57123C2F9E5026E0
:10469000901103123B06123DBC901109E02FF090DF
:1046A0001108E03400F090110BE004F070D9901183
:1046B0000AE004F080D1123B03F9123D17FF6401B8
:1046C0006008EF64036003024771123BC4123D258A
:1046D000900045123BDD123EABFF900047123BDEDF
:1046E000900005122E22123E2A75F005123AE2F9C8
:1046F000900041122FAA6F7002E5F060030247E7B5
:10470000901103123B06901110123AF6F9900043F3
:10471000122FAA6F7002E5F060030247E7901103C1
:10472000123B06F9901112123AF7F9900045122F38
:10473000AA6F7002E5F060030247E7901103123B95
:1047400006F9901114123AF7F9900047122FAA6F48
:104750007002E5F060030247E7901108123B909069
:104760001116E06C7003A3E06D707C123B03F980BE
:104770005B123B03F9123D17FF64026005EF64040E
:104780007053123BC4123D25123E2A75F003123AB3
:10479000E2F9900041122FAA6F7002E5F070489084
:1047A0001103123B06F9901110123AF7F9900043E9
:1047B000122FAA6F7002E5F0702D901108123B9035
:1047C000901116E0B50420A3E0B5051B90005DE450
:1047D00075F001800F123B0390005B123E3A90008F
:1047E0005DE4F5F012304E123B03123C4D7F007039
:1047F000027F0122900460EEF0A3EFF0900467E0E6
:104800007015741E120F61A37401F0E4A3F0A37479
:10481000FFF07F6C024997900467E0641E70057496
:104820001F0249C8900467E0FE641F7042120F58CF
:10483000702F900596E0FD7C00700890046774204E
:104840000249EBED64034C6011900596E0FD6402B3
:104850006008ED64F96003024938900467741EF043
:10486000229004621210574003024A99024A8FEEC6
:10487000642070139004677421120FB2900464E0F6
:10488000FF12C12A024A5C900467E06421600302BF
:10489000494E120F58600302493E900596E0705C45
:1048A000900464E0FF7E0064017020900466E0FDE7
:1048B0003395E0FCED4C7013900464E004F0900438
:1048C000677424F090046674FF8027C3EF9405EEAC
:1048D000648094809004675017120F5FA3E004F087
:1048E000124A9A120D597D0E7F03126FE80249ECAD
:1048F0007417F0900462120E560249EC900596E08F
:10490000FF64066005EF6403702E900465120DC409
:104910009004675015120F5F12CBF0124A9A120DD5
:10492000597D0E7F03126FE880077429F0A3740B82
:10493000F0900465E004F022900467024A7D900440
:1049400062120D3E94004003024A99024A8F90047D
:1049500067E06424700F7425120FB27B32FAFDFCFD
:104960007F0102B749900467E064257051120F5827
:10497000703C900596E0FF7E00700B9004677429F0
:10498000F0A3740AF022EF64094E900467701C12C1
:104990000F5F12CBF07F6E12D1C07F967E0012D3D4
:1049A00085120D597D0E7F03026FE8024A7D900447
:1049B00062120D3E94004003024A99024A8F90040D
:1049C00067E0642270087423120FB202CEF49004E0
:1049D00067E0FD7C006423702C120F58701790055F
:1049E00096E0640290046760067422F002CBF074D3
:1049F0001E120F6122900462120D3E9400400302C9
:104A00004A99024A8FED64174C700D900467741830
:104A1000120FB212CDDD8044900467E0FF7E006487
:104A200018701E120F58700F900596E09004677072
:104A3000047419F0228046900462121057505A8074
:104A40004EEF64194E701C900467741A120FB290E6
:104A50000460E0FCA3E0FD7F0112BA5690046212EC
:104A60000E5622900467E0641A702E120F587015CB
:104A7000900596E090046770047428F0227429F081
:104A8000A3740BF022900462120D3E9400500A9021
:104A900004677429F0A37401F0227F6E12D1C07FE5
:104AA000967E0012D3852290076FE0703D7BFF7ADF
:104AB000F2797F90106EF07D1C7F01127CE67BFF07
:104AC0007AF67933E41211057F01126FE87BFF7AE1
:104AD000F27981E490106EF07D5C7F01127CE6E457
:104AE0009000CFF090076F04F02290076FE0640110
:104AF00070217BFF7AF6793E1211057F04126FE870
:104B000012B67A12C698E4900770F090076F74029C
:104B1000024C0890076FE064027036A3120CA89054
:104B20001097700A7410120ED71214A9800874100E
:104B3000120ED71214B0124D0C120D3B940040030C
:104B4000024D0B7403124D1A7BFF7AF67938024C32
:104B50005190076FE06403705F12B3229000CFE0C2
:104B600064027039900594F07F0112C09EE49010A9
:104B700044F090104412138450177F0A7E0012D321
:104B80008512D38E120F586008901044E004F08014
:104B9000E1E4900771F090076F7404806B9000CF90
:104BA000E064036003024D0B90077174FFF074041E
:104BB0001211647F07024D0890076FE0640470379C
:104BC000900771120CA8901097700A7410120ED7EB
:104BD0001214A980087410120ED71214B0124D0CC2
:104BE000120D3B94004003024D0B7405124D1A7BCD
:104BF000FF7AF6793B805A90076FE0640570119058
:104C00000772F090076F74061211677F02024D0859
:104C100090076FE06406703C900772120CA8901029
:104C200097700A7410120ED71214A980087410120B
:104C30000ED71214B0124D29120D3B9400400302FE
:104C40004D0B90076F7407F0124D377BFF7AF679A2
:104C500041E4807490076FE06407700E900773F072
:104C600074081211647F02024D0890076FE0640817
:104C70007069900773120CA8901097700A74101244
:104C80000ED71214A980087410120ED71214B01285
:104C90004D29120D3B9400507290076F7409121148
:104CA00067124D37900771120CA87021900770128F
:104CB0000CA87019900772120CA87011A3120CA8FE
:104CC000700B7BFF7AF6794412110580097AF67928
:104CD0004912153A7D1C7F04026FE890076FE0646B
:104CE000097028120D3B940050219000DBE0600415
:104CF0006401700F7F7412D1C09000DA74FFF0125B
:104D000014B722120D657F0612C91322F0E4A3F036
:104D10007B107D4B7F0412AEEC2290076FF07F0476
:104D200012CA247F0512CA2422F0E4A3F07B107D6E
:104D30004B7F0412AEEC227F0412CA247F0512CAF4
:104D4000242278447C107AF479F0120F94784A7C0B
:104D5000107AF479F6120F9478507C107AF479FC7A
:104D60007F051210FA90048FE07003024F09742837
:104D7000120ED474F0F0A374F3F0E4A3F07B347D4E
:104D800048FF12AEEC9000F1E0640170157AF27900
:104D90008A121003124F86120C4B124F8D9000F3A3
:104DA00080349000F1E064037011120FFF124F86FF
:104DB000120C4B124F8D9000F2801B9000F1E064BA
:104DC00002701D7AF2798F121092124F94120C4BCE
:104DD000124F9B9000F41210BF7D287F04024E8872
:104DE0009000F1E064047037120FFFFDFF126FE8CE
:104DF000120C4B124F941210BC7D247F021280289B
:104E00007AF2798A120C4F124F9B120C4BFD7F06DF
:104E1000126FE89000F31210BF7D287F0680699022
:104E200000F1E06405702A120FFFFDFF126FE81217
:104E30000C4BFD7F02126FE81210BC124FA2120C35
:104E40005BFD7F04126FE8120C4B124F717F0680DE
:104E5000379000F1E0640670347AF2798A12159A7C
:104E6000FDFF126FE8120C4BFD7F02126FE89000FD
:104E7000F31210BF124FA2120C98FD7F04126FE8BC
:104E8000120C4B124F717F0612802880189000F18F
:104E9000E0640770107B017A1079509010A1F0FD4A
:104EA0007F03126FE87A10794A1214F67D407F066C
:104EB000126FE890048FE064037016900489E0B4E8
:104EC000010FA3E0B43B0A7F2C12D1C07F03024F35
:104ED0006D90048FE064046003024F7090048BE0D7
:104EE0007004A3E0640370167F2E12D1C09000F509
:104EF00012139C90049212139CE4FF025B9990049D
:104F00008BE07004A3E0640122E49013FBF09010A6
:104F1000977428120ED774F0F0A3742BF0E4A3F06A
:104F20007B287D2CFF12AEEC7B017A107944E412D1
:104F300011057F06126FE89000F51215A1648094A8
:104F4000804015EF64404E7008900492F0A37441C5
:104F5000F09000F61214FE229000ED1210F3120EE3
:104F6000FE9004C9F0900492F0A3F07F0212AE6D9F
:104F700022FD7F06126FE89000F4E0FB7A00E490D7
:104F80001059F07D2822FD7F02126FE822FD7F0478
:104F9000126FE822FD7F02126FE822FD7F04126F7C
:104FA000E8227D287F021280287AF2798F22E4900D
:104FB000104BF0A312321D0000000090105012326E
:104FC0001D00000000E4901054F0A3F03004030230
:104FD00050D912D39A50030250CB12C94290104CB0
:104FE000123211E490104AF090104AE0C39510502C
:104FF0003990104C1283F678011231B690104C1291
:10500000321130D7201283CAC000C00190104A125A
:1050100083B9E0F9F81231C9D001D00012840290AE
:10502000104BE004F012844180BE90104BE0FF7EF4
:1050300000C39402748094804018D21AEF940374D1
:10504000809480400512D39D800812D2FEEF60024A
:10505000C21A201A23E4FFFEFDFC1283CAC31231D8
:10506000A5601090132FE004F0700690132EE0045A
:10507000F0801D12842D801890131EE004F070063D
:1050800090131DE004F090105012321D000000003B
:1050900012D27BD390132FE09F90132EE09E4006F8
:1050A00012D39D12842DD390131EE0942C90131DC7
:1050B000E0940150030251FB12D39D9013557401EB
:1050C000F0E490131DF0A3F00251FB90FA7CE4741D
:1050D0000193FF1259E60251FB2005030251C5124C
:1050E00083CAC000C0019013561283B9E0F9F812C8
:1050F00031C9D001D0001284021283571284489023
:105100001054F0A3EFF0901356E0FF12D33FAD0719
:10511000AC06ED7802CEA2E713CE13D8F8FFC3EDAC
:105120009FFFEC9EFED3901055E09FEE6480F890B8
:105130001054E06480985058E49012D3F0A3F0909B
:105140001296E004F09405748094804010E4F0C25C
:1051500004C20590105012321D00000000E49010AF
:105160004AF090104AE0FFC3951040030251FB1231
:10517000622A20041690104AE0FF901356E06F60F8
:105180000A90104AE012836712841412844180D27C
:10519000E4901296F012D27B9012D3E475F00112D3
:1051A0002F53FCD3E5F09FEC9E405012D39DE4902A
:1051B00012D3F0A3F0C204C20590105012321D00A9
:1051C0000000008036785506E6D3940574809480FC
:1051D0004004E4F6C204E490104AF090104AE0FF64
:1051E000C39510501612622A20040B90104AE0FF5B
:1051F00012836712841412844180E090105012834D
:10520000F622900455E060030252AA9000D2E070AA
:105210004E9000D5E070489004C97414F0740312E5
:1052200014A0F09004CE04F09004D5120E0EE49079
:105230001044F0901044E0FF120EC2500B120F8683
:10524000901044E004F080EB1213797B527D4C7F88
:105250006612D1E812D1767BFF7AF2799D804512F1
:105260000E0F7409121569E4F0A374F0F0E49010C5
:1052700044F090140DE0FF901044E0FEC39F500EE8
:1052800074FD2E120F89901044E004F080E4900425
:10529000557401120F077F5A12D1C012D1767BFFCD
:1052A0007AF579E412163A026FE8900455E0640149
:1052B00060030253C27D107F0612B8121215C67029
:1052C000509004557403F01213A31292AF90045E31
:1052D000EFF0600B120DC550069004557402F012E9
:1052E00013AA900455E06403701C125419120D4D5A
:1052F00012541190045D7480F09000CB120DE750B1
:105300001EE004F08019125422120DCD12541180A7
:105310000E1215CD70099004557404F01213AA12E0
:105320006D0B9001F4E06428702FC39001F0E094BD
:105330000A9001EFE0940050209004557402120F7F
:1053400007125422120DCD7D247F03126FE89001C5
:10535000F37401F07F0302540D9001F4E0FF64291F
:10536000601EEF642860030254109001F0E0900189
:10537000EF1212F3D3EF940AEE940050030254108C
:105380009001F5E0642B90045F70057402F08003D7
:105390007401F0E49001F4F09004557403F090046B
:1053A0005D7480F0125419120D4D7D247F03126F2D
:1053B000E87F0212AE6D9000CB120DE75052E00470
:1053C000F022900455121273700912D1F5E4900086
:1053D000CBF022EF64034E702190045DE014F012D4
:1053E0000D1A502C9000CB120DE74006E4A31211C9
:1053F0007DF0120EFE1215AB8013900455E064048C
:10540000700E7F6012D1C0120EFE1215AB12AE6D7F
:10541000227D247F03126FE8227F4012D1C012D177
:1054200076227D327F5A12D11912D176227D017FE8
:10543000041254370D7F04EFF582758300C3748026
:1054400094804024D3E5829405748094805019EDB3
:10545000F582C374809480400FE582940874809430
:105460008050057582018003900000E5826401454B
:10547000836003025630EF146064147003025523F6
:105480001470030255681470030255AD14700302C2
:1054900055EF24056003025630EB14601D14602D97
:1054A00024026003025630A8057401088002C33349
:1054B000D8FCFF429AEFF4529B22A80574010880A1
:1054C00002C333D8FCFFF4529AEF429B22A8057422
:1054D00001088002C333D8FCF4529A529B22EB1489
:1054E000601D14602D24026003025630A80574016B
:1054F000088002C333D8FCFF4291EFF4529222A8F5
:10550000057401088002C333D8FCFFF45291EF42C6
:105510009222A8057401088002C333D8FCF452918A
:10552000529222EB14601D14602D24026003025677
:1055300030A8057401088002C333D8FCFF42A1EFF4
:10554000F452A222A8057401088002C333D8FCFFDC
:10555000F452A1EF42A222A8057401088002C333CD
:10556000D8FCF452A152A222EB14601D14602D2429
:10557000026003025630A8057401088002C333D8C4
:10558000FCFF42B1EFF452B222A805740108800278
:10559000C333D8FCFFF452B1EF42B222A805740124
:1055A000088002C333D8FCF452B152B222EB14602B
:1055B0001A14602A24027078A8057401088002C3B6
:1055C00033D8FCFF42C1EFF452C222A8057401088F
:1055D0008002C333D8FCFFF452C1EF42C222A805B7
:1055E0007401088002C333D8FCF452C152C222EBCA
:1055F00014601A14602A24027036A8057401088009
:1056000002C333D8FCFF42D9EFF452DA22A8057462
:1056100001088002C333D8FCFFF452D9EF42DA22EA
:10562000A8057401088002C333D8FCF452D952DAB9
:105630002290114C12826490114BEFF0901156742D
:10564000FEF0E4A3F0A3F0EF24F4601024FE701643
:105650009011577412F0A37410F0800A90115774CF
:1056600020F0A37430F0901157E04480FD7F0212C7
:10567000D1CE7D807F0412CC741258227D807F0AA7
:1056800012CCB4E490115AF0A3F090114FE0FF90C7
:10569000115AE0FCA3E0FDC39FEC9400502390114D
:1056A0004C12825B8D828C83122E22FD7F0912D1D7
:1056B000CE90115BE004F070D190115AE004F080BC
:1056C000C990114BE0FD7F0112D1CE90114BE064E7
:1056D0000C70077D807F0D12CCB412D1B290115A9C
:1056E000E4F0A37464F07F0412D061901159EFF0DC
:1056F00090115BE024FFF090115AE034FFF0E0706D
:1057000002A3E06011901159E0FF20E009901158C8
:10571000E0FEEF5E60D07D807F0D12CC7490115A58
:10572000E07002A3E0700302580F7F0612D061EF11
:10573000541B6003025807901156F0A3E0FF90112C
:1057400059E05F30E00690115674FFF090114BE085
:10575000640C60030258127F0A12D061901159EF55
:10576000F07F0C12D061EF5407FD6029901159E0D1
:1057700024FFFFE434FFFEEF7803C333CE33CED8EB
:10578000F97C002DFFEC3EF9901153E0FBA3E0FA09
:10579000A3E0C98011901159E075F008A4FF9011A1
:1057A0005312825BE5F08FF012302F901159E070A8
:1057B0000204F0901159E0D3941274809480400355
:1057C0007412F0E490115AF0A3F0901159E0FFC365
:1057D00090115BE09F90115AE0940050357F0912C0
:1057E000D06190115012825B90115AE0FCA3E0F559
:1057F000828C83EF122E9490115BE004F070CB90BA
:10580000115AE004F080C390115674FEF080031228
:10581000D3A07D807F0C12CCB4125822901156E098
:10582000FF22E4FD7F0112D1CE2290047DE0FF7EB5
:1058300000700504F0A3F022EF64014E704512D110
:10584000767AF279D41212A37D0A7F02126FE87A77
:10585000F279DD1212A37D0A7F04126FE8120CA503
:1058600060030259DA120E4040030259DAEE75F075
:1058700004A424BBF974F435F0FA7BFF12BFC912FB
:1058800010AE2290047DE06403701C12D1767AF68B
:10589000792912153A7D0E7F03126FE890047D740A
:1058A00002F07F4202D1C090047DE06402701E12BB
:1058B000CAEFEF3395E0FEBEFF11BFFF0E90047DEF
:1058C000740412157CE4900480F022806690047DBC
:1058D000E06404706F12BD87900608E0FF7E0064EC
:1058E00012703774051212AB9000D1F0A3F0FDEDE9
:1058F00012145D40030259DAED25E025E02400F59D
:1059000082E43400F58374FFF0A3F0ED120F4AE453
:10591000F0ED12118AE4F00D80D5EF64134E6003B0
:105920000259DA900480120DE75008E00412157C49
:1059300002CBF090047D7408F07D341259DB7AF2CA
:1059400079AE805590047DE06405701890047F1254
:105950000D1540030259DA12C70974061212AB90F2
:1059600000D3F02290047DE06406703690047F122C
:105970000D15506612CB1612CB3B12CFD212C7E2D6
:1059800090047D74071212AE9000D5F09000D4F010
:105990007D321259DB7AF279A9E41211057F0302F4
:1059A0006FE890047DE0FF7E006407701090047F34
:1059B000E0FD14F0C3ED120D1B501F800EEF6408C4
:1059C0004E700C90047F120D15500F120D65229031
:1059D000047DE06409700312D21C227F4212D119A7
:1059E00012D1767BFF22901056EFF090148DE0C319
:1059F0009403748094804048E4F0901355E070352F
:105A0000901057F0901057E0C395105028E0FF75A4
:105A1000F002A42431F582E5F03413F583E0FCA311
:105A2000E0FDEF25E02425F8A60408A60590105710
:105A3000E004F080CF12B6E2C21BE4901355F022CE
:105A4000901487E004F0901056E0FF901487E0B5C2
:105A5000070812C816E4901488F0901056E0FF90E2
:105A60001487E0D39F5003025B98E4901057F090A6
:105A70001057E0C395104003025B44E0FF75F0024D
:105A8000A42431F582E5F03413F583E0FCA3E0FDB6
:105A900075F002EFA42497F582E5F03412F583E067
:105AA000FEA3E0C39DFFEE9CAD07FC901355E07094
:105AB00042901330E0FB3395E0FAFEEB7802C333FB
:105AC000CE33CED8F9FFD3ED9FEE6480F8EC64803E
:105AD000984060E49BFFE49AFEEF7802C333CE3334
:105AE000CED8F9FFC3ED9FEE6480F8EC6480985047
:105AF000428051901330E0FB3395E0FAFEEB7803DF
:105B0000C333CE33CED8F9FFD3ED9FEE6480F8ECEB
:105B1000648098401EE49BFFE49AFEEF7803C33351
:105B2000CE33CED8F9FFC3ED9FEE6480F8EC6480ED
:105B3000984011901057E0FF12622A901057E0042D
:105B4000F0025A6F901057E0B51006901488E004E8
:105B5000F0901056E0FD75F008A4FF901487E0C3A4
:105B60009FE5F06480F8748098402DE4F0C21A90AC
:105B7000148DE004F0ED75F004A4FF901488E0C3E8
:105B80009FE5F06480F8748098400DE490148DF0E7
:105B900012C9F912B6E2C21B22EF707012154A64E4
:105BA00001700B1210874404F09000F3804FED64F5
:105BB000034C7009121087F09000F2804012154AD1
:105BC0006402700B1210874402F09000F4802EEDF6
:105BD00064044C7009121087F09000F2801F1215B7
:105BE0004A64057009121087F09000F2800FED648E
:105BF000064C70111210874402F09000F4E0120E6F
:105C000065F0025CE89000F1E0640722EFFD7C00A3
:105C100064027012121087F09004C4A3E0120E65A3
:105C20004420F0025CE8ED64034C7012121087F01F
:105C30009004DCA3E0120E654430F0025CE8EFFD56
:105C40007C0064047009120E5D4440F0025CE8EDD3
:105C500064054C7009120E5D4450F0025CE8EFFDE3
:105C60007C00640670121210874402F09004CEE0AB
:105C7000120E654460F08070ED64074C70121210D3
:105C8000874402F09004E4E0120E654470F08058FE
:105C9000EFFD7C006408700D1210874402120E6341
:105CA0004480F08043ED64094C7012121087440464
:105CB000F0900173E0120E654490F0802BEFFD7CB4
:105CC00000640A70121210874404F09001E9E01297
:105CD0000E6544A0F08011ED640B4C706B121087C0
:105CE0004404120E6344B0F078557C107D017B01B2
:105CF0007A01799E120DDD1265689004B712321197
:105D00009004B47455F0A374AAF09004AEE0FEA31E
:105D1000E0FF12CBCDC39004AFE094FF9004AEE05F
:105D20009401500DA3E004F070069004AEE004F07E
:105D3000229004B6E0FF5401F45401FEEF54FE4EED
:105D4000F0E49004AEF0A3F02290016FE07059905F
:105D500000D2E0701A9000D5E070141215D47407C8
:105D6000120E537F3E125EE3120D067D0E803490BC
:105D700000D3E012107790016F501374011211C01C
:105D8000125EE37BFF7AF279B8120E398015740542
:105D9000F0A304120E547F5812D1C012D176120C07
:105DA000947D247F03126FE890016FE064017028F6
:105DB00012CF24900173EFF090016F7407F09001FF
:105DC00071120F657F7012D1C012D1767AF279BE4E
:105DD000120ECA7D28025EA790016FE0640770442E
:105DE0007B017A01797412B064EF3395E0FEBEFF57
:105DF00009BFFF0690016F7403F0900171120D3E10
:105E0000648094804003025EE21215D4A3740112F0
:105E10000E547D347F4412D11912D176120CC27DFA
:105E200024025EA790016FE064036003025EAC7B16
:105E3000017A01797412B4D3EF7056900173E0FDCA
:105E400012C44412127A7002EEF490016F7024743E
:105E500004F0900171120E567D327F4412D1191256
:105E6000D176120C577D247F03126FE89000D3E0A7
:105E700004F0227405F0A304120E547F5812D1C00E
:105E80007F647E0012D38512D176120C947D24801B
:105E9000161215D4120E537D547F5612D1197AF270
:105EA00079C2120ECA7D247F03026FE890016FE071
:105EB00064047014900171120D3E6480948050222D
:105EC00012D29B7F09025B9990016FE0640570120A
:105ED00090017112140D120D4564809480500312CC
:105EE000D29B2212D1C012D176229010CC123B301C
:105EF000E4123B1BFFFE123D88A3EFF07F007E0003
:105F0000123D887E037FE8123C1CA3EFF07C037DEA
:105F1000E87F007E00122EC87E007F64123C1CA326
:105F2000EFF07F007E00123C11A3EFF07C007D0AB1
