:0300000002A88BC8
:03000B0002CAC75F
:0300130002D23FD7
:03001B0002C2031B
:0300330002E2A343
:03004B0002CCC71D
:03005B0002CEAA28
:03006B0002D0B808
:03007B0002C50DAE
:0300830002C46F45
:03008B0002D90D8A
:10010000900502E060030207D8123015900C1DEF35
:10011000F0F4600312D92F90053EE0120EEB017649
:1001200000025B0102B502030F0503430604460A01
:10013000037F0B045A0C046F0D047A0E04A00F0405
:10014000B91004C41204DE1304EB14051515055A86
:1001500016056D1705971A05C31B070D1C05EA1D2B
:1001600006221F07C52706352807712C06962D077E
:100170005B2E000007D8900C1DE0FF640D6011EFAE
:10018000641B700C90053E741AF09004F17403F037
:1001900090050FE0FF64076003020232122B425009
:1001A00033EF640760030207D8900C3A04F0741030
:1001B0001229CC122C98122C5F500E74292E122A60
:1001C0000190080CE004F080ED90050F7408F07FBA
:1001D0000102D507122A3370217F0112D507900141
:1001E0009B122A99BEFF06BFFF03E4F022E49005AC
:1001F00007F0A3F090050C04F022900C1DE0640BB6
:1002000060030207D890019B12298F70127F0112A0
:10021000D50790053E741FF0900417122CA42212EB
:10022000D972900505E4F0A37496F090053E742011
:10023000F022900C1DE0FFF470030207D8EF640C6D
:1002400070030207D8122CA690050FE06409600322
:100250000207D87F0112D50702062D122AF8700373
:100260000204B3122B187003020591122CFD7003C7
:1002700002050F900C1DE06404700302061C900C34
:100280001DE0640570111207D990053E740AF0E470
:10029000900459F002C8B5122A3360030207D8123D
:1002A00008AD1229EE7F6012E1181208A5E490054E
:1002B0003EF002D92F900C1DE0FF6401600AEF644C
:1002C000026005EF64037004E41208AD122AF870AE
:1002D0000E1207D9E490053CF090053E020370121F
:1002E0002B18700E1207E6E490053CF090053E02D4
:1002F0000502122CFD700D1207E6122CC990053E66
:10030000740EF022122A3360030207D8020441124D
:100310002AF8700F1207F390053E7412F0E4900172
:100320006FF022122B1870101207F390053E741410
:10033000F09004F5740AF022122A3360030207D801
:10034000020441122AF87009120800122C1004F05D
:1003500022122B187009120800122C1002075712D3
:100360002CFD701012080D90053E7417F090064693
:10037000740FF022122A3360030207D8020441E40A
:1003800090080DF004F0122AF8701012080D900574
:100390003E741BF0E4122CAD7403F090080DE024C1
:1003A00001122ADFB5070EECB5060A12081A9005ED
:1003B0003E741D801890080DE02402122ADFB50754
:1003C00010ECB5060C12081A90053E742DF0E4806E
:1003D0003E90080DE02403122ADFB50714ECB506A1
:1003E0001012082790053E7428F0E49005D2F080A2
:1003F0001E90080DE02404122ADFB50718ECB5069C
:100400001412082790053E741CF0E4900620F012A8
:100410002CAD0205B590080DE02405122ADFB507C2
:1004200018ECB5061412083490053E741AF0E490E6
:1004300004F1F0122CAD020757122A3360030207B1
:10044000D81208348011122A3360030207D8120828
:10045000419004597405F002E12690053CE06401E6
:10046000700312089C122A3360030207D8804412DA
:100470002C3360030207D8020565900643E0640848
:1004800060030207D8122C06700B900644F0900609
:10049000437409F022EF640A4E60030207D8801308
:1004A00090053CE06401700312089C122A3360033B
:1004B0000207D812084102E287122C3360030207B8
:1004C000D802056590016FE064017008900C1DE092
:1004D000FF12B216122A3360030207D8803190014E
:1004E000A3E0640160030207D8807A9004F5E06419
:1004F0000B60030207D8122C06700B9004F6F090E4
:1005000004F5740CF022EF640A4E60030207D8125F
:10051000084E02E29590053FE06401700A900C1DC0
:10052000E0FF12B216801A90053FE064037002806B
:100530000890053FE064047008900C1DE0FF12ADC8
:10054000C99000D2E070099000D5E070030207D88E
:10055000122A3360030207D88037900558E06401FF
:1005600060030207D8900C1DE0FF02B21690064609
:10057000E0641060030207D8122C06700B90064747
:10058000F09006467411F022EF640A4E60030207F1
:10059000D812084E02E28E9004F1E064016003027A
:1005A00007D8900C1DE0640B700F12085BE49004F8
:1005B000F2F09004F17403F022122A336003020770
:1005C000D88059122AF8700912085BE49004388028
:1005D0003C122B18700A1208689004387401802DA0
:1005E000122A3360030207D88032122AF8700D7A7B
:1005F000F679D9120875E49001AD8011122B1870AC
:10060000137AF679DC1208759001AD74FFF012CD03
:10061000F702070A122A3360030207D81208680299
:10062000070A900417E0640160030207D8900C1DCC
:10063000E0FF0207C29005D2E0640160030207D820
:10064000122AF870139000F8F09005D27402F07B33
:10065000FF7AF77903020727122B1870289000F809
:1006600004F09005D204F012C93CEF3395E04F70CE
:10067000087F7A12E1180207D17BFF7AF779061218
:10068000C7100207D1122A3360030207D81208826A
:100690009005D2020757122AF8701A9000F9122A10
:1006A00099BEFF08BFFF05E4F012DB337AF679F15B
:1006B00012088F8055122B1870459000F912298F5F
:1006C000703474FFF0E49004F8F0A3F09004FCF0B0
:1006D000A3F012D5C3EF2412FEE4339004FAF0A382
:1006E000CEF09004FEE4F0A37408F09005027402CA
:1006F000F0E4900501F07AF679F412088F800B127D
:100700002A3360030207D812088202E134900620DF
:10071000E0640160030207D8122AF87010900621E5
:10072000122D047AF7791812C7100207D1122B186C
:10073000701290062174FF122D047AF7791B12C7EC
:10074000100207D1122A3360030207D87F0112D5A5
:10075000071208A59006207402F022900C1DE0FFFD
:10076000640B6005EF640A706F1229EE90053EF08D
:100770002290050FE0FF64077038122B42502FEFD4
:1007800064077054900C3A04F0900C3974101229DC
:10079000CF122C98122C5F500E74292E122A019021
:1007A000080CE004F080ED90050F7408F022122A86
:1007B0003322900C1DE0FFF4601E90050FE06409E9
:1007C000701602ADC9900C1DE0F4600C7F3012E190
:1007D000187F647E0012E2F2227F0112D5077F6447
:1007E0007E0012E2F2227F0112D5077F647E0012A2
:1007F000E2F2227F0112D5077F647E0012E2F2222C
:100800007F0112D5077F647E0012E2F2227F01127F
:10081000D5077F647E0012E2F2227F0112D5077FA6
:10082000647E0012E2F2227F0112D5077F647E000F
:1008300012E2F2227F0112D5077F647E0012E2F2FB
:10084000227F0112D5077F647E0012E2F2227F012F
:1008500012D5077F647E0012E2F2227F0112D507D3
:100860007F647E0012E2F2227F0112D5077F647E50
:100870000012E2F2227BFF12C7107F647E0012E2B8
:10088000F2227F0112D5077F647E0012E2F2227B02
:10089000FF12C7107F647E0012E2F222900C1DE06E
:1008A000FF12B216227F647E0012E2F2229001B59E
:1008B000F07F0112B11022E709F608DFFA8046E75F
:1008C00009F208DFFA803E88828C83E709F0A3DF13
:1008D000FA8032E309F608DFFA8078E309F208DFEC
:1008E000FA807088828C83E309F0A3DFFA80648940
:1008F000828A83E0A3F608DFFA805889828A83E03F
:10090000A3F208DFFA804C80D280FA80C680D480BF
:100910006980F28033801080A680EA809A80A88067
:10092000DA80E280CA803389828A83ECFAE493A376
:10093000C8C582C8CCC583CCF0A3C8C582C8CCC505
:1009400083CCDFE9DEE7800D89828A83E493A3F616
:1009500008DFF9ECFAA9F0EDFB2289828A83ECFA30
:10096000E0A3C8C582C8CCC583CCF0A3C8C582C8E3
:10097000CCC583CCDFEADEE880DB89828A83E4931E
:10098000A3F208DFF980CC88F0EF60010E4E60C35F
:1009900088F0ED2402B4040050B9F582EB2402B4CF
:1009A000040050AF232345822390090773BB01063F
:1009B00089828A83E0225002E722BBFE02E3228979
:1009C000828A83E49322BB010CE58229F582E583C8
:1009D0003AF583E0225006E92582F8E622BBFE06BE
:1009E000E92582F8E222E58229F582E5833AF5835A
:1009F000E49322BB010689828A83F0225002F72207
:100A0000BBFE01F322F8BB010DE58229F582E583E7
:100A10003AF583E8F0225006E92582C8F622BBFEAB
:100A200005E92582C8F222EF8DF0A4A8F0CF8CF062
:100A3000A428CE8DF0A42EFE22BC000BBE0029EF10
:100A40008DF084FFADF022E4CCF875F008EF2FFFB5
:100A5000EE33FEEC33FCEE9DEC984005FCEE9DFE83
:100A60000FD5F0E9E4CEFD22EDF8F5F0EE8420D2CA
:100A70001CFEADF075F008EF2FFFED33FD40079839
:100A80005006D5F0F222C398FD0FD5F0EA22C2D568
:100A9000EC30E709B2D5E4C39DFDE49CFCEE30E701
:100AA00015B2D5E4C39FFFE49EFE120A39C3E49D4C
:100AB000FDE49CFC8003120A3930D507C3E49FFF94
:100AC000E49EFE22C5F0F8A3E028F0C5F0F8E58228
:100AD000158270021583E038F022A3F8E0C5F025F6
:100AE000F0F0E582158270021583E0C838F0E82244
:100AF000BB010A89828A83E0F5F0A3E022500687D1
:100B0000F009E71922BBFE07E3F5F009E319228992
:100B1000828A83E493F5F074019322BB0110E5828D
:100B200029F582E5833AF583E0F5F0A3E022500948
:100B3000E92582F886F008E622BBFE0AE92582F85C
:100B4000E2F5F008E222E5832AF583E993F5F0A3C4
:100B5000E99322BB010789828A83020AC4500B09E8
:100B6000C5F027F7C5F01937F722BBFE0D09F8E3EA
:100B700025F0F3C5F019E338F322F889828A8374EB
:100B8000019325F0C5F0F8E4933822BB010A89826D
:100B90008A83F0E5F0A3F0225006F709A7F01922A6
:100BA000BBFE06F3E5F009F31922F8BB0111E5825B
:100BB00029F582E5833AF583E8F0E5F0A3F02250C9
:100BC00009E92582C8F608A6F022BBFE09E92582BC
:100BD000C8F2E5F008F222E88FF0A4CC8BF0A42C48
:100BE000FCE98EF0A42CFC8AF0EDA42CFCEA8EF03B
:100BF000A4CDA8F08BF0A42DCC3825F0FDE98FF022
:100C0000A42CCD35F0FCEB8EF0A4FEA9F0EB8FF018
:100C1000A4CFC5F02ECD39FEE43CFCEAA42DCE35A0
:100C2000F0FDE43CFC2275F008758200EF2FFFEE2A
:100C300033FECD33CDCC33CCC58233C5829BED9A08
:100C4000EC99E58298400CF582EE9BFEED9AFDEC66
:100C500099FC0FD5F0D6E4CEFBE4CDFAE4CCF9A8AC
:100C60008222B800C1B90059BA002DEC8BF084CFB4
:100C7000CECDFCE5F0CBF97818EF2FFFEE33FEED8B
:100C800033FDEC33FCEB33FB10D703994004EB99B5
:100C9000FB0FD8E5E4F9FA227818EF2FFFEE33FEC8
:100CA000ED33FDEC33FCC933C910D7059BE99A40FD
:100CB00007EC9BFCE99AF90FD8E0E4C9FAE4CCFB15
:100CC0002275F010EF2FFFEE33FEED33FDCC33CC69
:100CD000C833C810D7079BEC9AE899400AED9BFDF2
:100CE000EC9AFCE899F80FD5F0DAE4CDFBE4CCFA05
:100CF000E4C8F922CFF4CFCEF4CECDF4CDCCF4CCF1
:100D000022EB9FF5F0EA9E42F0E99D42F0EC648010
:100D1000C864809845F022EB9FF5F0EA9E42F0E926
:100D20009D42F0E89C45F022E8600FECC313FCED17
:100D300013FDEE13FEEF13FFD8F122E86010ECA2D2
:100D4000E713FCED13FDEE13FEEF13FFD8F022E8DE
:100D5000600FEFC333FFEE33FEED33FDEC33FCD811
:100D6000F122BB010789828A83020F495005E9F805
:100D7000020F3DBBFE05E9F8020F5589828A830206
:100D80000F61BB010DE58229F582E5833AF5830207
:100D90000F495007E92582F8020F3DBBFE07E92500
:100DA00082F8020F55E58229F582E5833AF5830240
:100DB0000F61BB010789828A83020E255005E9F87D
:100DC000020F71BBFE05E9F8020F7D22BB010DE5A4
:100DD0008229F582E5833AF583020E255007E9253D
:100DE00082F8020F71BBFE07E92582F8020F7D220F
:100DF0007401FF3395E0FEFDFCA3A3A3E0CF2FF029
:100E0000E582158270021583E0CE3EF0E582158200
:100E100070021583E0CD3DF0E582158270021583E6
:100E2000E0CC3CF022ECF0A3EDF0A3EEF0A3EFF069
:100E300022A8828583F0D083D082120E48120E48F9
:100E4000120E48120E48E473E493A3C583C5F0C59F
:100E500083C8C582C8F0A3C583C5F0C583C8C58251
:100E6000C822BB010DE58229F582E5833AF58302AC
:100E70000E315007E92582F8020F89BBFE07E925EC
:100E800082F8020FA222A42582F582E5F03583F5CF
:100E90008322BB0120E58229F582E5833AF583D0E0
:100EA000F0D0E0F8D0E0F9D0E0FAD0E0FBE8C0E024
:100EB000C0F0020FC45018E92582F8D083D082D048
:100EC000E0F9D0E0FAD0E0FBC082C083020FBBBBE8
:100ED000FE18E92582F8D083D082D0E0F9D0E0FA7C
:100EE000D0E0FBC082C083020FCD22D083D082F835
:100EF000E4937012740193700DA3A393F87401939B
:100F0000F5828883E4737402936860EFA3A3A380DF
:100F1000DFEF4E6012EF60010EEDBB010B89828A9C
:100F200083F0A3DFFCDEFA2289F05007F709DFFC2B
:100F3000A9F022BBFEFCF309DFFCA9F022E6FC08C5
:100F4000E6FD08E6FE08E6FF22E0FCA3E0FDA3E0E4
:100F5000FEA3E0FF22E2FC08E2FD08E2FE08E2FF59
:100F600022E493FC740193FD740293FE740393FFD7
:100F700022ECF608EDF608EEF608EFF622ECF208A1
:100F8000EDF208EEF208EFF222D083D082E493F67D
:100F900008740193F608740293F608740393F674C8
:100FA0000473D083D082E493F208740193F208743E
:100FB0000293F208740393F2740473EBF608EAF6F2
:100FC00008E9F622EBF0A3EAF0A3E9F022EBF2083D
:100FD000EAF208E9F222900828EFF0E4900830F0F5
:100FE000900828E0FF25E02424F8E6FC08E6FD75DB
:100FF000F002EFA424CFF582E5F0340AF583E0FE99
:10100000A3E0C39DFFEE9C900829F0A3EFF0E47FDE
:1010100001FEFDFC900828E0F9F8120D4F8F0F8EAD
:101020000E8D0D8C0CAF0112E24890082EEEF0A34D
:10103000EFF0C390082AE09FEE6480F8900829E062
:10104000648098400890082B7401F08005E49008B3
:101050002BF090082BE064016003021252900828E4
:10106000E0FF24E7F582E4340AF583E0C394FA74E0
:10107000809480500D74E72FF582E4340AF583E004
:1010800004F0E50B550FFFE50A550EFEE509550D79
:10109000FDE508550CFCE4FBFAF9F8C3120D1760E6
:1010A00003021218900AB3E090082DF012E2E0EF6C
:1010B0006047E490082BF0A3F090082CE0FFC39564
:1010C00010502274E72FF582E4340AF583E0C394CC
:1010D0000174809480400690082BE004F090082C66
:1010E000E004F080D490082BE0C3940374809480D3
:1010F000400790082DE0240FF0900828E024E7F541
:1011000082E4340AF583E0FF90082DE0FEEFC39EF1
:101110005003021218E490082BF012E220EF600353
:101120000211A590082CF090082CE0FFC3951050F8
:101130002C900828E06F601D12E1C590082CE02477
:10114000E7F582E4340AF583E0C39F400890082B5A
:101150007401F0800890082CE004F080CA12E2E0EC
:10116000EF3395E04F60030211F690082BE0600327
:101170000211F6A3F090082CE0FFC3951050779071
:101180000828E06F601712E1C590082CE024F3F501
:1011900082E4340AF583E0C39F4002805390082C18
:1011A000E004F080D012E2E0EF3395E04F7047901A
:1011B000082DF090082CF090082CE0FFC3951050FB
:1011C0002274E72FF582E4340AF583E0C3940274B5
:1011D000809480400690082DE004F090082CE004F4
:1011E000F080D490082DE0C394037480948040066E
:1011F00090082B7401F090082BE064017002D21467
:10120000E50B450FF50BE50A450EF50AE509450D19
:10121000F509E508450CF508900828E0FF2425F5B8
:1012200082E4340BF583E4F074812FF582E4340B0F
:10123000F583E4F075F002EFA4240DF582E5F034B7
:101240000BF583E4F0A3F074B62FF582E4340A02C0
:1012500015E1900828E0FF12DE98900829E0FCA331
:10126000E0FDD39FEE6480F8EC6480984012900813
:1012700028E024F3F582E4340AF583E004F08015D5
:10128000900CE6E004F0900828E024F3F582E434C2
:101290000AF583E4F0900B68E0FF3395E0FEC3E4C9
:1012A0009FFBE49EFAC3ED9BEA6480F8EC648098AF
:1012B00050030213AAD390082AE09FEE6480F890AE
:1012C0000829E064809840030213AA900828E0FFF0
:1012D0002425F582E4340BF583E4F074B62FF5820F
:1012E000E4340AF583E4F0FFFEFDFCAB0BAA0AA987
:1012F00009A808C3120D1760030214E6900829E03C
:10130000FEA3E0FF900828E075F002A4240DF5820A
:10131000E5F0340BF583EE8FF0120AC412E19990D8
:101320000828E075F002A4240DF582E5F0340BF5F1
:1013300083E0FCA3E0C39FEE6480F8EC64809840F7
:1013400013900828E0FF25E02424F80806E618702A
:101350004306804012E199C3E49FFFE49EFE90089B
:1013600028E075F002A4240DF582E5F0340BF58336
:10137000E0FCA3E0C39FEE6480F8EC648098400337
:101380000214E6900828E0FF25E02424F808E61679
:101390001870011675F002EFA4240DF582E5F03403
:1013A0000BF583E4F0A3F00214E6900B68E0FF3342
:1013B00095E0FEC3E49FFFE49EFEC390082AE09FF1
:1013C000EE6480F8900829E0648098400302145C81
:1013D000900828E0FF2425F582E4340BF583E0042F
:1013E000F074B62FF582E4340AF583E4F074252F07
:1013F000F582E4340BF583E0FF75F00A84E5F070C4
:1014000046C3EF946474809480900828E0401424CC
:1014100025F582E4340BF583E4F0D215900B8D04AE
:10142000F0802425E02424F8C000E6FE08E6FF90C2
:101430000B68E0A2E713FD3395E0FCC3EF9DFFEEE0
:101440009CD000F608A607900828E0FF900CDFE08B
:101450006F60030214E674FFF00214E6900B68E07C
:10146000FF3395E0FED390082AE09FEE6480F89069
:101470000829E0648098406E900828E02425F582D1
:10148000E4340BF583E4F0FFFEFDFCAB0BAA0AA9E4
:1014900009A808C3120D17704D900828E0FF24B664
:1014A000F582E4340AF583E004F074B62FF582E4A3
:1014B000340AF583E06420702D900828E0FF24B6FC
:1014C000F582E4340AF583E4F0900B68E0A2E713B8
:1014D000A2E713FD3395E0FCEF25E02424F808EDA6
:1014E00026F618EC36F6E50B550FFFE50A550EFE0D
:1014F000E509550DFDE508550C4D4E4F70030215DD
:10150000F790082EE0FCA3E0FDAE047802CEA2E73F
:1015100013CE13D8F8FFC3ED9FFFEC9EFEC39008D7
:101520002AE09FEE6480F8900829E06480984003E8
:101530000215E6900828E02481F582E4340BF58357
:10154000E004F012E22890082DEFF0E490082CF06F
:1015500090082CE0FFC39510502274E72FF582E429
:10156000340AF583E0C394017480948040069008A7
:101570002BE004F090082CE004F080D490082BE0DD
:10158000C39403748094804008900AB3E090082DBF
:10159000F0900828E0FB2481F582E4340BF583E029
:1015A000FF90082DE0FEEFC39E5003021666748183
:1015B0002BF582E4340BF583E4F0AF0FAE0EAD0DE6
:1015C000AC0C120CF4E50B5FF50BE50A5EF50AE5D1
:1015D000095DF509E5085CF50874E72BF582E4344C
:1015E0000AF583E4F022900828E02481F582E434AF
:1015F0000BF583E014F022900828E024E7F582E45C
:10160000340AF583E4F0FFFEFDFCAB0BAA0AA9093E
:10161000A808C3120D177008900828E0FF12A6133F
:10162000E51014FF900828E06F703B900CE6E0C3D3
:1016300095104032E490082CF090082CE0FFC39500
:1016400010501B74E72FF582E4340AF583E060063E
:1016500090082B7401F090082CE004F080DB9008D7
:101660002BE07002C21422900042E4120BAA9008F0
:1016700096E0FBA3E0FAA3E09008A1F9E0FEA3E066
:10168000F5828E831209C6FF900893E0FBA3E0FA6F
:10169000A3E0F9229000FC75F01DED120E86EC75AA
:1016A000F01DA42583F58322E4F0A3F0A3F0A3F0BA
:1016B000A3F0A3F0A3F0A3F0A3F0A3F0229008837B
:1016C000E0FEA3E0FF7C007D1D120A2790089A74BB
:1016D000062FF974013EFA7B01E4F0A322900883FF
:1016E000E0FEA3E0FF7C007D1D120A2790089A749B
:1016F000092FF974013EFA7B01E4F0A3227D1D124B
:101700000A2790089A74FB2FF974003EFA7B01E4D3
:10171000F0A3227D1D120A2790089A74FF2FF974F6
:10172000003EFA7B01E4F0A3227D1D120A279008F7
:101730009A74032FF974013EFA7B01E4F0A322901E
:101740000883E0FEA3E0FF7C007D1D120A277435AC
:101750002FF9740190089A3EFA7B01E4F0A32290DD
:101760000AABE47B017A017918F0A322900883E0A8
:10177000FEA3E0FF7C007D1D020A277B017A017930
:1017800043E4F0A3227B017A017960E4F0A3227B99
:10179000017A01793DE4F0A3227B017A01795AE4D0
:1017A000F0A322E47B017A017945F0A322E0F9A3BA
:1017B000E0FAA3E090088FC9F0A3EAF0A3E9F022D1
:1017C0009000011209C6FF900028E48FF0120BAAC6
:1017D0009000021209C6FF90002AE48FF0120BAAB3
:1017E0009000031209C6FF90002CE48FF0120BAAA0
:1017F0009000041209C690002EFFE48FF0020BAA9D
:10180000E47B017A017962F0A322EFF0AF037C0060
:101810007D64AE02120A397F0A7E00CFCDCFCECCD6
:10182000CE020A39E47B017A0079FBF0A322900012
:1018300010E475F001120BAA90088DE4F0A304F0F7
:10184000900885E0FCA3E0FD7F017E0022E47B019F
:101850007A0079FFF0A322E47A0179067B01F0A3F4
:101860007403F022E0FBA3E0FAA3E04A4B22E47BFE
:10187000017A01791CF0A322E47B017A017923F03B
:10188000A322E47B017A017909F0A322900899E070
:10189000FEA3E090089DFFE0FCA3E0FD22E47B01B5
:1018A0007A017926F0A322E47B017A017903F0A37F
:1018B0002275F00AA42DFFE5F03CFE1209C67C005B
:1018C0002FFFEC3E9000158FF0120BAA90004412EF
:1018D0000B1B640145F022E47B017A017920F0A31F
:1018E00022900883E0FEA3E0FF64014E22EEF0A305
:1018F000EFF0E4A3F0A3F0EF4E221209C6FF7E0042
:101900007C037DE8120A27AC06AD07227C002FFF7E
:10191000EC3EFEF0A3EFF022CFF0A3EFF07B017AD4
:1019200008793622FF1209C6FD12E1F4AE079008CD
:101930007F22EEF0A3EFF0900885E0FEA3E0FF2207
:101940009400CF2401FBE43FFAE0FEA3E0FF7C001B
:10195000227B01900AABE4F0A322FFE0FD12E0EB52
:1019600090087F221209C6FFAD0612E0EB90087FB7
:101970002275F00AA42DFFE5F03CFE75F01DEB1278
:101980000E86EA2290000E020B1B90089DE0FEA33B
:10199000E0FFC3221209C675F064A42DFDEC35F0FA
:1019A000FC2290089AE024FFFE900899E090089DA0
:1019B00034FFF0A3CEF0229008A5E0FEA3E0FFEDF7
:1019C0006F22900005EF120A059000060209C67BFF
:1019D0000190089AF0A37404F022900002EF120A1A
:1019E000059000030209C6900008EF120A05900056
:1019F000090209C6900824E0F9A3E0FAA3E022E076
:101A0000FEA3E0FFF5828E830209C6E0FCA3E0F5A9
:101A1000828C83EF020A05FFE0FD12E1F49008AF2B
:101A200022FFE0FCA3E0FDC39FEC227C002FFFEC33
:101A30003EFEF0A3EFF022900017120B1BFFC390A5
:101A4000088EE09F90088DE095F0228D828C8312A5
:101A500009C6FF22E4F0A3F0A3F022EFF090000704
:101A60000209C67D0A120A39AF05AE04AD03AC0205
:101A7000020A39F09000080209C6F0900005020938
:101A8000C6FB75F01D120E86EA22900010E475F078
:101A900001120BAA90088EE004F0229000120209B5
:101AA000C6900013020B1BA3ECF0A3EDF0227C27E1
:101AB0007D10020A397403F07F37FE227404F07F30
:101AC000A67E03227404F07F327E03227404F07F2A
:101AD000427E03227402F07F3F7E03227402F07F75
:101AE0004F7E0322FC7D1D020A27900015020B1B6E
:101AF000900827E0FFA3E0900883CFF0A3EFF02247
:101B00007D017BFF7E00020987900003EF120A052A
:101B10009000041209C6FF2290089EE024FFF09076
:101B2000089DE034FFF022900001EF120A059000BA
:101B3000020209C6F090000A0209C6900017120BB3
:101B40001BFF900891E065F022FFE0FD12E1F490A8
:101B5000087F22E4F0A3F0A3F0227403F07F4BFE91
:101B6000227403F07F47FE22900883FFE0FCA3E08D
:101B7000FD2275F064A42BFFE5F03AFEA3E022906D
:101B80000010E4F5F022E0FBA3E0FAA3E0227C00E1
:101B90007D0A020A39740CF07F737E0322740CF004
:101BA0007F857E03227404F07FA07E0322EFF090F5
:101BB000000C0209C6900893E0FCA3E022A3F0A366
:101BC0007401F0A322FF900892E5F0F0A3EFF02259
:101BD00074FF2DF58274FF3CF58322F58274FF3E7D
:101BE000F5830209C69008A1E0FCA3E0FDEF6D2299
:101BF00024FFF58274FF35F0F583227B0190089A6B
:101C0000F0A37403F022A3F0A3F090089A227B01C2
:101C100090089AE4F0A304F022F090000B0209C6A9
:101C2000EF120A057F0122F58374FFF00F22FFAE49
:101C3000F0C39410EE942722900A31122E4AE490B9
:101C40000A3F122D6BA3120E3100000000900A48CB
:101C5000120E3100000000E4900A4CF0A3F0122FA5
:101C6000DC6014122D58EA494B6009A3122D5BEA7F
:101C7000494B70037F0122900A32122D5BEA494BD7
:101C8000700BA3E07002A3E060037F0122E4FD7FFC
:101C90000212E1427D017F0312DC067D017F031207
:101CA000DB907DFF7F0912E142E4FD7F0912E142F2
:101CB0007D077F0A12E142E4FD7F0A12E142900BA8
:101CC000BCE0700A7D261221B912DB908020900BB7
:101CD000BCE0640170047D12800E900BBCE06402D5
:101CE00070047D0880027D041221B912DC06900A7E
:101CF00037E0FD7C00C3940874809480500E900AF5
:101D00003EE0FEC394087480948040037F0122ED7E
:101D10004C7003EE601A12218C900A37122FE312D6
:101D2000DC06900A3EE05407FD7F2212DC068003A9
:101D300012218C900A31E0FF64076028EF6408608C
:101D400023EF6409601EEF640A6019EF640F6014EA
:101D5000EF6411600FEF6410600AEF64036005EF39
:101D6000640270097D017F1D12DC068027900A3114
:101D7000E0FF64016007EF6004640470107D017F80
:101D80001D12DB907D027F1D12DB90800E7D017F96
:101D90001D12DB907D027F1D12DC06900A31E0FFF0
:101DA0006405601CEF64066017EF64077002801022
:101DB000900A31E0FF64046007EF60046401701072
:101DC0007D017F1A12DB907D017F2112DB90800E56
:101DD0007D017F1A12DC067D017F2112DC06900A4C
:101DE00031E0FF64076005EF640870067D787C05CC
:101DF0008036900A31E0FF64056005EF64067006E6
:101E00007D607C098022900A31E0640970087DBC05
:101E10007CE57F048014900A31E0FF640B6005EFDD
:101E2000640C700A7DF87C52E4FFFE021ECC900A1E
:101E300031E0FF640F600FEF6411600AEF640D6022
:101E400005EF640E700D900BD5E0FF122FED122DF3
:101E5000A28079900A31E0FF60136404600FEF64A0
:101E600001600AEF64036005EF6402700A74FFFD0D
:101E7000FC7F037E008055900A31E06410705012A0
:101E80002EA9900BBDE0FF3395E0FEFDFC120BD7B1
:101E9000C004C005C006C0077F0E122EAED007D00A
:101EA00006D005D004C3120D1750077F0E122FED78
:101EB0008017122EA9900BBDE0FF3395E0EF7F0055
:101EC000C454F0FE3395E0FDFC122DA212CB089015
:101ED0000A31E0FF64016007EF60046404707B1264
:101EE0002FCA6030122ED0122FF7E07803CEC31322
:101EF000CE13D8F92401FFE43EFE122E1C503F12EF
:101F00002FAA503A900A32122D5B12215670D81225
:101F10002EEC80D3122ED0122FF7E07803CEC3130D
:101F2000CE13D8F9122E1B5015122FAA5010900A5A
:101F300032122D5B12215670DE122EEC80D9122F38
:101F4000CA6006122FE312E142900A35E0FFA3E0D7
:101F5000900A3FCFF0A3EFF0802F900A31E0640F9A
:101F6000700A900BBFE0FD7F0612E142122ED012E4
:101F70002E145015122FAA5010900A32122D5B12F7
:101F8000216A70EB122EEC80E612219B122FDC707E
:101F9000047D0280027D037F0212E142122FF712BC
:101FA0002F7F9E507612217E30E5F1900A3FE0FEB1
:101FB000A3E0FFC3900A36E09FFF900A35E09EFE43
:101FC000D3EF941EEE94004038E4900A41F0900A5A
:101FD00041E0C3941E74809480503B900A32122DCD
:101FE0005B900A3FE475F001120ADA85F082F5830E
:101FF0001209C6FD7F0612E142900A41E004F0801A
:10200000CD122E145010900A32122D5B12216A70DC
:10201000F0122EEC80EB12219B8081122FB2122144
:102020007E20E316D3900B92E0940F900B91E094F6
:102030000040EBE4F0A3F07F0A221221AA122FDC69
:102040007002FF22122FB212218520E20F12218589
:1020500020E6091221C330E0EE7F0422900A3B12F1
:102060002D5BE4F5F0120B8B1221C320E2527F07A7
:1020700012DD35EF30E6F1122ED0900A3B122D5BC7
:10208000122F8C40037F0722C3EC94017F06500B74
:1020900012DD35122D49122FFE800312DD35900A14
:1020A0003B122D5B122F5A7003122EECC3900A4084
:1020B000E09420900A3FE0940040BF1221AA80A83B
:1020C0007F0412DD35900A43EFF07F2612DD359054
:1020D0000B8FEFF0122ED0900A43122F7F940050F6
:1020E00034900A3B122D5B122F8C40037F0722C3D2
:1020F000EC94017F06500B12DD35122D49122FFE94
:10210000800312DD35900A3B122D5B122F5A7003AB
:10211000122EEC80C2900A31E0FF60136404600F5D
:10212000EF6401600AEF64036005EF64027007E486
:10213000900A4CF0800A7F0D12DD35900A4CEFF0CA
:10214000900A4CE020E70920E20620E10330E0039A
:102150007F05227F00228D828C831209C6FD7F06B7
:1021600012E142900A40E004F0228D828C83120931
:10217000C6FD7F0612E142900A40E004F0227F078C
:1021800012DD35EF227F0712DD35EF227D387F1912
:1021900012DB907D077F2212DB90227D207F0912C7
:1021A000DC067D207F0912DB90227D407F0912DC56
:1021B000067D407F0912DB90227F1B12E1427D20C9
:1021C0007F63227F0712DD35EF22900914122E4D16
:1021D000A3ECF0A3EDF0E490091FF0A3F078217CCC
:1021E000097D017AE37937122E0178217C0A7AE49D
:1021F00079377F02122D8F78237C0A7AE479397F30
:1022000001122D8F900A24122D64122D6A90091448
:10221000122D5BEA494B6014900919122D5BEA49B3
:102220004B6009A3122D5BEA494B70037F0122909A
:102230000BA0E025E02409F582E434E3F583E49380
:10224000FE740193FF900A24EEF0A3EFF0D3940004
:10225000EE94014009900A247401F0A3E4F090097F
:102260001C122D5BE4F5F0120B8B900A29E0F9FFAC
:10227000C3900918E09FFF900917E09400FE900AB0
:1022800024E0FCA3E0FD24FDFBEC34FFFAD3EF9B3C
:10229000EE9A400DED24FDA3F0900BBF7412F08078
:1022A00011900917A3E0C399900A26F0900BBF7410
:1022B00002F0900BBFE0122F9CEF4E900BBFF0E4AA
:1022C000900A2EF0122E56900A2FF0900914122D1B
:1022D0005B900A29E0FF7E00E92FF9EE3AFAC0038D
:1022E000900A26E0FF900A35EEF0A3EF122D29D0D8
:1022F000037F0F022509900A30E0FD7C00640A701C
:10230000037F0A22ED64044C7066900A2CE004F00E
:10231000900A2FE0602A900A2B122D8640037F043A
:1023200022900A2C122D8640037F0422900A2D123F
:102330002D8640037F0522122D18122F3102250908
:10234000900A2B122D8640037F0422900A2C122D16
:102350008640037F0422900A2D122D8640037F05BC
:1023600022900B90E044B2122D1E122F310225094B
:10237000900A30E064057066900A2DE004F0900A3F
:102380002FE0602A900A2B122D8640037F042290B2
:102390000A2C122D8640037F0422900A2D122D86CE
:1023A00040037F0522122D18122F31022509900AB1
:1023B0002B122D8640037F0422900A2C122D86407A
:1023C000037F0422900A2D122D8640037F05229060
:1023D0000B90E044B2122D1E122F310225099009F4
:1023E00021E0FEC41313540324FE700302251714C6
:1023F000700302257C240360030225FB900A27E07A
:10240000FCA3E0FD2402FBE43CFAD3EB9400EA9445
:102410000140037F0622EE20E508900921E0FE201E
:10242000E1037F0622EE20E308900921E0FE30E27E
:10243000037F0622122F996F60037F0622900BBF45
:10244000E05410C37001D340037F0622EE64019074
:102450000B90F0ED24FFFFEC34FFFE90091C122DD1
:102460005BEE8FF0120B5390091FE4F0A304F09081
:102470000A27E0FEA3E0FF90091F122E1F504774A9
:10248000212DF58274093CF583E0FF900919122D86
:102490005B900A2AE0FD7C00E92DF9EC3AFA9009FC
:1024A00020E024FFFD90091FE034FFFCE92DF9EA4C
:1024B0003CFAEF1209F3900920E004F070B19009A2
:1024C0001FE004F080A9900A27A3E014FF900A2AD5
:1024D000E02FF0900921E030E43A122E56900A2FB6
:1024E00004F0900A2B122D8640037F0422900A2CC0
:1024F000122D8640037F0422900A2D122D86400360
:102500007F0522122D18122F31121C38900A30EF3D
:10251000F00222F67F0022900921E030E50320E15D
:10252000037F0622900921E020E30330E2037F06C7
:1025300022900921E0FE30E4037F0622900A2FE07A
:1025400060037F0622122F996F6011900A2EE0041B
:10255000F0122D8750030222C47F0622900BBFE0A9
:10256000541070037F0622EE6401900B90F0900AE5
:1025700026E0FF900A29E02FF002226A900921E06C
:10258000FE30E0037F0622EE20E208900921E0FE03
:1025900030E3037F0622EE30E10A900921E0543057
:1025A000643060037F0622900922E0543FFF900BC5
:1025B000BDF03395E0FEC3EF9401EE64809480405B
:1025C0000BD3EF943BEE6480948040037F0622900F
:1025D0000A2174F2F0900BBDE0900A22122F46748B
:1025E00002122D297A0A79217F10121C38900A30A4
:1025F000EFF0900A2BE004F00222F67F062290080A
:1026000093EB1217B8E490089B1216B5900899E066
:10261000FCA3E0FD90089FECF0A3EDF012168812E9
:102620001AA125E0FBE5F033FAED24FAFFEC34FFC4
:10263000FE7C007D05120A3990EDB575F0C8ED12EB
:102640000E86EC75F0C8A42583F583E5822BF58210
:10265000E5833AF583E493FE740193FBAA067C00BC
:102660007D64FF120A399008A1EEF0A312180AA3A4
:10267000EEF0A3EFF0AE02AF03121B8E121AA7E426
:102680001216B4900899E0FCA3E0FD24F5FEEC34AA
:10269000FF9008ABF0A3CEF090089312186470027C
:1026A000FF22121688121AA1FFAEF0D39400EE9406
:1026B000004008EF9464EE940040037F00229008ED
:1026C0009F12198D9406EE94004009D3EF940CEEFE
:1026D000940040037F0022C002C0019008961219A6
:1026E000F79008B21217B7121AA7D001D0021292AF
:1026F000249008AB12198DEE9400405BD3EF940246
:10270000EE940050529008A2E09F9008A1E09E50E5
:102710000CA3E0240AF09008A1E03400F0D3900864
:10272000A4E09F9008A3E09E500CA3E0240AF09040
:1027300008A3E03400F09008ABE0FEA3E0FFD390E4
:1027400008A6E09F9008A5E09E500CA3E0240AF0A4
:102750009008A5E03400F090089DE4F0A304F01286
:10276000188CD39FEC9E50359008A11219BA7002B4
:10277000EC6E6019A31219BA7002EC6E600FA3120E
:1027800019BA7002EC6E6005121AA7801090089EAC
:10279000E004F070CA90089DE004F080C2E4900864
:1027A0009DF0A3F012188CC39FEC9E5026900896C3
:1027B00012168B121A4B90089CE02FF090089BE0A9
:1027C0003400F090089EE004F070D990089DE00479
:1027D000F080D1121688121A9B640660030228BF8B
:1027E0009008ADF0A3F01219A212198AEE940040DD
:1027F00036121BE57002EE6C6028A312188F6F7002
:1028000002EC6E601D1219B77002EC6E6014A31218
:1028100019BA7002EC6E600A9008ADECF0A3EDF00E
:102820008005121B1880C21216881217C0121A7B5C
:102830009000301217F975F00512166790002812F3
:102840000B1B6F7002E5F0600302297F900896125F
:102850001B869008A312167B90002A120B1B6F7028
:1028600002E5F0600302297F90089612168B90080B
:10287000A512167C90002C120B1B6F7002E5F06005
:102880000302297F90089612168B9008A712167CD7
:1028900090002E120B1B6F7002E5F0600302297F7F
:1028A00090089612168B9008AD12167C900030128C
:1028B0000B1B6F7002E5F0600302297F0229621290
:1028C0001688121A9B6407600302296A1219A21261
:1028D000198AEE94004027121BE57002EE6C601915
:1028E000A312188F6F7002EC6E600E1219B770028F
:1028F000EC6E6005121AA78005121B1880D1121603
:10290000881217C075F004121667900028120B1B6E
:102910006F7002E5F0706890089612168B9008A30D
:1029200012167C90002A120B1B6F7002E5F0704F9C
:1029300090089612168B9008A512167C90002C1207
:102940000B1B6F7002E5F0703690089612168B9094
:1029500008A712167C90002E120B1BB50721E4B5B8
:10296000F01D90004475F00180121216889000420C
:10297000E4F5F0120BAA900044E4F5F0120BAA1251
:1029800016881218CC7F0070027F012290061CE08E
:10299000FF3395E0FEEF4E2290053BE0FF14F0EF91
:1029A000C394017480948022E490053EF090050F5A
:1029B0007407F0E49001B6F09005D57407F0227426
:1029C0000490053FF0E4900C3AF0740C900C39F050
:1029D000900C3B7401F022900C25E0FFA3E0FEC3B5
:1029E0009F22740E900556F0900555748022900534
:1029F0000F7407F09005D5F0E49001B6F022742929
:102A00002FF582E4340CF58374FFF022FF24FCF5EB
:102A10008274FF3EF583ECF0A3EDF074FE2FF58297
:102A200074FF3EF5837401F074FF2FF58274FF3E4E
:102A3000F58322900C1DE0640A2290080374FFF5D0
:102A4000F0120AC4FCC3E5F09401EC94002290005B
:102A5000F7E0FF7E00D394007480948022E4F0902D
:102A6000053E7424F09000F5E4F0A37480F0229009
:102A7000054B74FFF5F0120ADAFEC3E5F09401EE9F
:102A80002290053C740CF090042AE090053DF090F3
:102A9000053B7480F0229000EFE0FF3395E0FE22CA
:102AA000900C26E004F022900554E024FFFF9005EE
:102AB00053E034FFFE2290080CE0FFC3940C7480B6
:102AC0009480229005417402F0A37480F090054A2E
:102AD000E0640122F09000C8E4F0A3F0A3F022FF2C
:102AE000E433FE900C1DE07C00229007FEF090087D
:102AF00003E4F0A37440F022900C1DE0640122E492
:102B00009000CCF0A37429F0A374A4229000CBC34E
:102B1000E094057480948022900C1DE0640222FFF2
:102B200024FCF58274FF3EF58374FFF0A3F074FE7D
:102B30002FF58274FF3EF583E42290053F7413F075
:102B4000A322900C1DE0FDC3940A7480948022E0BF
:102B5000FEA3E0FFD39400EE2204F0E4900C24F0F6
:102B600022900C24E0FF7E00640222F0A37401F0A6
:102B70007BFF7AF77926229004F1F09004F37440F9
:102B8000F0E422E0C3940474809480227E009005D7
:102B900039EEF0A3EFF024FFFFEE34FFFE229005A4
:102BA00056740EF0A3740CF0E422F0A37403F0A3A7
:102BB0007480F07D347F4822900C20E0FCA3E0FD7F
:102BC000900553ECF0A3EDF02290050F7407F0226E
:102BD000E004F0900539E0FCA3E0FDAE04780222A9
:102BE000900555E014F02290080CE004F022E07506
:102BF000F004A424BEF974F635F0FA7BFF229007A6
:102C0000FEE0FF7E0022900C1DE0FF7E00640B22A0
:102C100090053E7415F0E490053FF090054A22902F
:102C200000F8E06401227403F0E4900429F0900CB1
:102C300024F022900556E0640122900000F0A3F0F9
:102C4000229005CFE0640122E014F0900553E0FEED
:102C5000A3E0780222A3740EF09005D1742622908E
:102C60000C39E0FF90080CE0FEC39F22E024FFF047
:102C70009000F5E034FFF022900446E04480F0221A
:102C80009005567402F0E490061DF022F090054B7A
:102C90007401F0A37440F022900C29EDF090080C20
:102CA0007401F022E4F090019B74FFF022900C2656
:102CB000F0900C2522C394027480948022900541E8
:102CC0007402F0A37480F022F09006437411F02295
:102CD000E4F0A374C0F022F0E49005CFF0227B0171
:102CE0007A0C79292290055CE06401227B037D0344
:102CF0007F0322E49000EDF0A3F0A3F022900C1DDE
:102D0000E0640322F09006207402F07BFF22E4903E
:102D1000080BF090080AF022900B90E044A2900A71
:102D200023F0900A35E4F0A304F0E4A3F07B01A3C0
:102D300004F0A37409F0A37421F0A3EBF0A3740AC8
:102D4000F0A37427F0E4A3F022900A3BE0FBA3E099
:102D5000FAA3E0F9120AF0FD900A38E0FBA3E0FACA
:102D6000A3E0F922E4F0A3F0A3F0A3F0A3F0A3F012
:102D7000A3F0A3F0227D017BFF7E017F0002098783
:102D8000900817E004F0E0D3940274809480227DD0
:102D9000017BFF7E000209877D017BFFFE7F02022F
:102DA0000987120BD7EF24B0FFEE3424FEED340474
:102DB000FDE43CFCE47BFF7AFFF9F8120C62EF249F
:102DC000FFFFEE34FFFEED34FFFDEC34FFFC900A14
:102DD00044120E25900A44A3A3E0FEA3E0FF74FF73
:102DE000FDFC227D017BFF7E007F03020987900AA4
:102DF00035E4F07402A3F0E4A3F07B01A304F0A394
:102E0000227BFF7E01FF0209877D017BFF7E007F21
:102E10001E020987900A35E0FEA3E0FF900A3FE01A
:102E2000FCA3E0FDC39FEC9E22F583E0FE74262FF9
:102E3000F582E43408F583EEF0900820E004F022F7
:102E4000FF7D017BFFFE0F020987EFF0A3EBF0A3EC
:102E5000EAF0A3E9F022900A2BE4F0A3F0A3F02219
:102E600090081AE0FFD390081CE09F90081BE094A4
:102E70000022F0900A35E4F0A304F07407A3F0A355
:102E80007401F0A322900818EFF0FD7C00640A2280
:102E90007D017BFF7F0602098790081AE02420F558
:102EA00082E43408F583E0FE22900BD5E0FF12DDCA
:102EB000F8A804A905AA06AB0722900818E0FD7C33
:102EC0000022E4F0A3F0A3F022A3F0A3EBF0A322EE
:102ED000E4900A3FF0A3F022900820E0C394057428
:102EE00080948022E0C4540FFF540F22900A3FE0E8
:102EF00004F022F583EEF090081AE004F0227D0140
:102F00007BFFFE020987E0FFC39404748094802253
:102F1000135401FFEF0209F3F583E0FE74D12FF59E
:102F200082E4340BF583EEF022900812EFF0640A8D
:102F3000227A0A79237F1122A3F0A3EBF0A322E4E3
:102F4000F0A3F0A3F022F0900A35E4F0A322E0FF12
:102F50007E00D394037480948022E475F001120BF8
:102F600053900A40E004F022900817E0241FF582F5
:102F7000E43408F583227F647E007D007C0022E03B
:102F8000FFC3900A40E09F900A3FE022120AF0FD42
:102F9000ACF0D39400EC940122EE5401FF900B901E
:102FA000E0FE22900BD57404F022C3ED943DEC9426
:102FB0000022E4900B91F0A3F022D3940C7480943F
:102FC0008022EF540F900BD5F022900A36E0540780
:102FD000900A4DF022900BC1E0640222900A31E089
:102FE000640A22E033333354F8FD7F192212DDF8EE
:102FF000E4FB7A10F9F822900A35E0FEA3228D82D4
:1030000085F083EF020A05A3F0A3EBF0A322E4F01E
:10301000A3F0A3F02212C3C690080E120E2512C808
:1030200088600712C89FA3120E25C390050AE0947A
:1030300020900509E0940050037FFF2230190A1206
:10304000C8887002C2197FFF2212C89F1271A62081
:10305000C207E4900CCAF08006900CCA74FFF0120C
:10306000C8707009900CCFE0700302316A900CBFF9
:1030700012C873700B900CCFE064017003023179B9
:10308000900CC012C873700B900CCFE064027003F8
:10309000023189900CC112C873700B900CCFE064A0
:1030A00003700302319A900CC212C873700B900C1B
:1030B000CFE0640470030231AB900CC312C873708C
:1030C0000B900CCFE0640570030231BC900CC4126D
:1030D000C873700B900CCFE0640670030231CD9082
:1030E0000CC512C873700B900CCFE064077003021C
:1030F00031DD900CC612C873700B900CCFE06408E1
:1031000070030231ED900CC712C873700B900CCF96
:10311000E0640970030231FD900CC812C873700B93
:10312000900CCFE0640B700302320D900CC912C8F2
:1031300073700B900CCFE0640A700302321D900C88
:10314000CA12C873700B900CCFE0640D700302328A
:103150002D900CCE12C873700CA3E0640C70069016
:103160000CD202324012C8707007900CD2F00232BA
:1031700048900CBF12C8737008900CD204F0023251
:1031800048900CC012C8737009900CD27402F002FF
:103190003248900CC112C8737009900CD27403F0BD
:1031A000023248900CC212C8737009900CD2740499
:1031B000F0023248900CC312C8737009900CD2749C
:1031C00005F0023248900CC412C8737008900CD2FB
:1031D0007406F08073900CC512C8737008900CD2FE
:1031E0007407F08063900CC612C8737008900CD2FC
:1031F0007408F08053900CC712C8737008900CD2FA
:103200007409F08043900CC812C8737008900CD2F7
:10321000740BF08033900CC912C8737008900CD2F4
:10322000740AF08023900CCA12C8737008900CD2F4
:10323000740DF08013900CCE12C873900CD27005F0
:10324000740CF0800374FFF0900CD2E0FF90064203
:10325000F0F470030232D8900CCFE0FD900CD2E075
:10326000FC6D6015EF640D9008166004ECF08003AF
:1032700074FFF0900CCFEC8079D3900CD1E094C027
:10328000900CD0E09400500FA3E004F07006900C76
:10329000D0E004F012C8AE900CD0E0FEA3E0FFD363
:1032A0009460EE9400402CEF94C0EE9400400EA386
:1032B000E0640D7008900816741BF0800312C8AE0D
:1032C000900CBDE004F0D3947F748094804029E496
:1032D000F0802512C8AE8020900CCFE0FF640D90E6
:1032E00008167004EFF0800374FFF0900CD2E090A9
:1032F0000CCFF0E4A3F0A3F0900816E0FF229005B5
:103300003FE070739000D2E0701D90054AE06402C7
:1033100070159000D5E0700F122B3A7407F0A312CD
:103320002A687F3E02E11890054AE0FF7E006401B2
:10333000700E9000D5E0122CB550028001C35018D9
:10334000EF64024E70289000D4E0C3940874809417
:103350008050028001C34016122B3A7406F0A3126B
:103360002A687F5812E1187F647E0002E2F290051D
:103370003F7401122B5A2290053FE06401704174A2
:1033800003122C8CE4900C24122ACC700512DD67F9
:10339000800312DD01900543EFF01229C5E4900887
:1033A0000CF0122AB650081229FE122BE780F312F5
:1033B0002AC37B5270047D4C80027D4E7F66806CF8
:1033C00090053FE06403600302345E900C3BE064D0
:1033D000027073900C3AD3122B104053E490080CF7
:1033E000F090080CE0122ABB501EE0FF2429F58261
:1033F000E4340CF583E0FE74112FF582E4340CF50F
:1034000083EEF0122BE780D91229BFE490080CF06C
:10341000122AB650081229FE122BE780F3122AC393
:103420007B5270047D4C80027D4E7F6802E14F74B8
:10343000031229C1E490080CF0122AB65064122934
:10344000FE122BE780F3900C3BE064037002805C7B
:10345000122A6F6480948040030235E280679005F1
:103460003FE064047067FD7F0512E01C900C3B1286
:103470002B647032900C3AE0D3122B114007900568
:103480003F7405F0221229BFE490080CF090080C5C
:10349000E0FD122ABB500B74292D122A01122BE7D2
:1034A00080EB122CBD22EF64034E700D122B3A7488
:1034B0000CF0A3E4F0A304F022122A6F648094803D
:1034C00040030235E2122B3A740102355290053F57
:1034D000E06405600302355E7B0190081004F0A3F0
:1034E000740CF0A37429F07A0C79111280E8EF3390
:1034F00095E04F7058122CDE127EC2EF703F122CF6
:10350000DE900543E0FD12A925EF3395E0FEEFF4D0
:103510007002EEF460030235E290053F7412F09001
:103520000541122A687D327F4412E04E122ACD7086
:10353000059000D580039000D4E004F022122B3ACD
:103540007404F0A3122A687D527F56800E122B3A23
:103550007409F0A3122A687D347F4402E04E90057E
:103560003FE064127020900541122A72940050725C
:103570009000D2E07069122ACD70649000D5E064AA
:1035800001705C02E12690053FE0641370549005E1
:1035900041122A729400504A900540E0FF7E006478
:1035A0000C700E9000D2E070089000D5E0700280A0
:1035B000119000D2E0700F122ACD700A9000D5E071
:1035C00070041229A922EF64064E600E900540E0B7
:1035D000FF640C6005EF64077005122ACD800012AD
:1035E000E28E22900848EDF0900845EB12595C906D
:1035F000084AEB12595C90084512590712511C9069
:10360000084DEFF090084A1259077F05123887C01D
:1036100004C005C006C00790084A1259077F00126F
:103620003887D003D002D001D000125910C004C096
:1036300005C006C00790084A1259077F0912389141
:10364000D003D002D001D000125910C004C005C070
:1036500006C00790084A1259077F0A123891D00312
:10366000D002D001D000125910C004C005C006C05D
:103670000790084A1259077F0C12389BD003D002DA
:10368000D001D000125910C004C005C006C0079078
:10369000084A1259077F0E12389BD003D002D0017E
:1036A000D000125910C004C005C006C00790084AD7
:1036B0001259077F0F1238A5D003D002D001D000D5
:1036C000125910C004C005C006C00790084A12591C
:1036D000077F111238A5D003D002D001D0001259B3
:1036E00010C004C005C006C00790084A1259077FE1
:1036F000131238AFD003D002D001D000125910C03D
:1037000004C005C006C00790084A1259077F181266
:1037100038AFD003D002D001D000125910C004C07D
:1037200005C006C00790084A1259077F191259A40C
:1037300012BBD4D003D002D001D000125910C00463
:10374000C005C006C00790084A1259077F1B1259CE
:10375000A412BBD4D003D002D001D000125910C0A3
:1037600004C005C006C00790084A1259077F1D1201
:1037700059A412BBD4D003D002D001D000125910EA
:10378000C004C005C006C00790084A1259077F232D
:103790001259A412BBD4D003D002D001D0001259C8
:1037A00010C004C005C006C00790084A1259077F20
:1037B000271259A412BBD4D003D002D001D00012DA
:1037C0005910C004C005C006C00790084A12590726
:1037D0007F291259A412BBD4D003D002D001D0004B
:1037E000125910C004C005C006C00790084A1259FB
:1037F000077F2A1259A412BBD4D003D002D001D023
:1038000000125910C004C005C006C00790084A1233
:1038100059077F2B1259A412BBD4D003D002D00178
:10382000D00012591090084E120E2590084E1259D1
:1038300032FB900849E0600790084DE0FF80027F6E
:1038400000900848E0FDED6FFFEB6FFFEAFEE9FD39
:10385000E8FC90084E120E259008451259077F018A
:103860001259A412A2EB90084512590790084E1263
:1038700058E2FF900859120E257F2F1259A4129773
:10388000CB90084DE0FF227E007D007C0012BBD46F
:10389000227E007D007C0012BBD4227E007D007C55
:1038A0000012BBD4227E007D007C0012BBD4227E9D
:1038B000007D007C0012BBD4227A017935121951A7
:1038C0007404F07FAD7E0312C63A900135E0F460D7
:1038D0000FA3E0F4600AA3E0F46005A3E0F470171E
:1038E000E49001351216B590089A1218257404F068
:1038F0007FAD7E03125F7A12175F7404F07FB47E8F
:103900000312C63A900152E0F4600FA3E0F4600A9B
:10391000A3E0F46005A3E0F47015E49001521216E0
:10392000B57A0179521219CF7FB47E03125F7A7A89
:103930000179391219517404F07F527E0312C63A8C
:10394000900139E0F4600FA3E0F4600AA3E0F460B2
:1039500005A3E0F47015E49001391216B57A0179E7
:10396000391219CF7F527E03125F7A7B017A017977
:10397000561219537404F07F627E0312C63A900106
:1039800056E0F4600FA3E0F4600AA3E0F46005A33E
:10399000E0F47017E49001561216B57B017A0179B4
:1039A000561219D17F627E03125F7A7B017A017908
:1039B000401219537403F07F5BFE12C63A90014027
:1039C000E0F4600AA3E0F46005A3E0F47013900152
:1039D00040121A547A017940121BFB7F5BFE125F82
:1039E0007A7B017A01795D1219537403F07F6BFEC3
:1039F00012C63A90015DE0F4600AA3E0F46005A30A
:103A0000E0F4701390015D121A547A01795D121B73
:103A1000FB7F6BFE125F7A900AAB12177B7402F089
:103A20007F5F7E0312C63A900143E0F46005A3E095
:103A3000F4701090089A12177B7402F07F5F7E0377
:103A4000125F7A900AAB1217857402F07F6F7E03C3
:103A500012C63A900160E0F46005A3E0F4701090A3
:103A6000089A1217857402F07F6F7E03125F7A90B6
:103A70000AAB12178F121AB512C63A90013DE0F444
:103A8000600AA3E0F46005A3E0F4700F90089A12B6
:103A9000178F7403F07F57FE125F7A900AAB1217EC
:103AA000997403F07F67FE12C63A90015AE0F46001
:103AB0000AA3E0F46005A3E0F4700F90089A1217CF
:103AC000997403F07F67FE125F7A900AAB1217A316
:103AD000121B9512C63A900145E0F46037A3E0F45A
:103AE0006032A3E0F4602DA3E0F46028A3E0F4606A
:103AF00023A3E0F4601EA3E0F46019A3E0F46014D3
:103B0000A3E0F4600FA3E0F4600AA3E0F46005A36F
:103B1000E0F470129001451216A8121C061217A4A8
:103B2000121B95125F7A900AAB121800121B9D129D
:103B3000C63A900162E0F46037A3E0F46032A3E09B
:103B4000F4602DA3E0F46028A3E0F46023A3E0F484
:103B5000601EA3E0F46019A3E0F46014A3E0F46035
:103B60000FA3E0F4600AA3E0F46005A3E0F470138F
:103B7000E49001621216A9121C06121801121B9D74
:103B8000125F7A2290080CEEF0A3EFF0900429E087
:103B90007015741E129753A37401F0E4A3F0A3747C
:103BA000FFF07F6C023D3A900429E0641E700574BA
:103BB0001F023D60900429E0641F706312974070FB
:103BC0004F9005D1E070089004297420023D7D904B
:103BD00005D1E0FF6403600AEF64026005EF64F959
:103BE000702B900429741EF01297C46003023E29C2
:103BF000900425E024FFF0900424E034FFF01297B5
:103C00000C648094804003023E29023E1F023CDC8B
:103C1000129709648094804003023E29023E1F905F
:103C20000429E064207010742112974A900426E061
:103C3000FF12C82B023DF0900429E06421600302CA
:103C40003CF11297406003023CE29005D1E07052D3
:103C5000900426E0FF7E0064017020900428E0FDBF
:103C60003395E0FCED4C7013900426E004F09004D2
:103C7000297424F090042874FF8020C3EF9408EE88
:103C8000648094809004295010129751A3E004F0AE
:103C9000123E2A12E2F2023D7E7417F01297B3022E
:103CA0003D7E9005D1E0FF64066005EF6403702C53
:103CB000900427E0C3940374809480900429500EEC
:103CC00012975112D92F123E2A12E2F2800774295C
:103CD000F0A3740BF0900427E004F0229004290272
:103CE0003E0E129709648094804003023E29023EF2
:103CF0001F900429E06424700F742512974A7B32C8
:103D0000FAFDFC7F0102BD0A900429E0642570469B
:103D100012974070329005D1E0FF7E00700B900446
:103D2000297429F0A3740AF022EF64094E90042943
:103D3000701212975112D92F7F6E12E1187F967E62
:103D40000002E2F2023E0E12970964809480400362
:103D5000023E29023E1F900429E064227008742369
:103D600012974A02DDB0900429E06423702812976C
:103D70004070141297C490042960067422F002D98E
:103D80002F741E1297532212970964809480400367
:103D9000023E29023E1F900429E06417700A74183D
:103DA00012974A12DC958048900429E0FF7E006457
:103DB000187022129740700F9005D1E0900429707E
:103DC000047419F02280479004241297A46480940C
:103DD000805056804AEF64194E7019900429741A65
:103DE00012974A90080CE0FCA3E0FD7F0112C2BBD1
:103DF0001297B322900429E0641A702D1297407034
:103E0000159005D1E090042970047428F0227429DB
:103E1000F0A3740BF02212970964809480500A90EA
:103E200004297429F0A37401F0227F6E12E1187F37
:103E3000967E00229000CC12298F700B90053E7464
:103E400027F07F0412B1109005DFE070067420F0B7
:103E500012C0889005D5E0640470679000ED74FF8F
:103E6000F09005DDA3E09000F3F012D92F122AD5CF
:103E70009000F8E070047F018023122C1F60030281
:103E80003EFF122A96BEFF07BFFF047F06800E90FA
:103E900000EE122A99BEFF0ABFFF077F0412DDC899
:103EA000805D9000F7E070051240BC8052122A4EEF
:103EB000404DEF640170031229B89000F7E014F050
:103EC000803D9005D5E0640570351240C8700A7FCA
:103ED0000912DDC812D92F8026E49000EDF0900081
:103EE000F104F09000F3122A5D7F4012E118900077
:103EF000C9122B835005E004F08004122AFFF0124F
:103F000064029001B6E0642870629000EE74FFF0E5
:103F10009001B1A3E0049000F2122AD49000F8E0DE
:103F200070047F038070122C1F6003023FC1900059
:103F3000ED122A99BEFF07BFFF047F048058122AA2
:103F400096BEFF07BFFF047F05804B9000F7E0702F
:103F5000051240BC806B122A4E4066EF640170046B
:103F60009001B6F09000F7E014F080559001B6E0B3
:103F70006429704DA3E0642B70089000FA7402F07D
:103F80008005E49000FAF01240C8700F9000FAE04B
:103F9000640260077F0912DDC88026E49000EEF01D
:103FA0009000F17403F0E4A3122A5E7F4012E1183E
:103FB0009000C8122B835005E004F08004122AFF01
:103FC000F01277DE90050FE0640A706C9000EF74D9
:103FD000FFF090051DE09000F4122AD49000F8E064
:103FE000600E9000F0E0FF64016005EF6402701065
:103FF0009000F0E0640270047F0880507F02804CE3
:10400000122C1F60030240B09000ED122A99BEFFEF
:1040100007BFFF047F0680349000EE122A99BEFF8E
:1040200007BFFF047F0580247F7A12E118122BC995
:104030009000F77480F0807890050FE0640B703A80
:1040400012DB52EF3395E04F70077F0912DDC88015
:104050005FE49000EFF09000F17402F09000F41231
:104060002A5D7F4012E1189000CA122B835005E0B0
:1040700004F0803C122AFFF0803690050FE0FF7EAE
:1040800000640C700E90043DF0A3F090053E742681
:10409000F0801DEF640D4E700512DFC48012900594
:1040A0000FE0641C700A7D327F4412E04E122BC96F
:1040B000900455E0640270037404F0227F7A12E1E8
:1040C000189000F77480F02212DB52EF3395E04F26
:1040D0002290080E124B6DE4900812F078137C08C1
:1040E0007D017BFF7AF579A3FE124C3490081BF01A
:1040F000A3F0A3120E310000000090080E124BC86E
:104100004A4B700302435590080EA3A3E0F99000B8
:10411000031209C6900811F09000041209C6FE901F
:10412000081BE05EF0A3E4F0124CC8FDFF90081CF1
:10413000E02FF090081BE03400F0E49004EFF0A3CF
:10414000F0900811E0120EEB416A01417102419FAB
:104150000341A50441C80541EC0842350941B40BAF
:1041600041FD1042F916000043559004C57401F05A
:1041700022124B39402390080E124AAF124BDA64D8
:104180000470169004557402F0900446E04408F060
:104190009004D1E4F0A37440F09004C50243209051
:1041A0000455024349ED6003024355900446E05430
:1041B000FDF08043124B39500302435590080E1214
:1041C0004AAF124BDA640122124B395003024355B5
:1041D00090080E124AAF124BDA7005124AF480179B
:1041E00090080E124AAF124BDA640122124B39507A
:1041F00003024355124AF4E49004C6F022124B39EC
:10420000500302435590080E124AAF124BDA640174
:104210006003024355E9240778E67C047F06124BCD
:104220007F900448E054FDF0E49004C6F090044709
:10423000E04440F022124B39500302435590080EDF
:10424000124AAF124CC864197038124BDA643170DC
:10425000319000091209C6641570279004C7E06404
:104260000160030242F490080EA3A3E0241778C96A
:104270007C04124C2C9004C7F0900447E04420F0DA
:10428000807290080E124AAF124BDA643270659059
:1042900004C7E06402705D124CC86411600280398A
:1042A000E9240D78137C08124C2C900812F0900829
:1042B00012E0FF7E00C39408748094805036E0FDC5
:1042C00024C9F582E43404F583E0FC74132DF582EF
:1042D000E43408F583E06C60089004C87402F08050
:1042E00013EF64074E70059004C804F0900812E0C4
:1042F00004F080BA9004C58050124B3940579008A2
:104300000E124AAF124BDA70449000071209C660D1
:10431000046401700F124CCE703B124B769004D5A2
:104320007402F02290080E124AAF9000071209C6DC
:1043300064027021124CCE701C9000081209C664F1
:10434000107003124B769004D57403F022124CCEF9
:1043500070037404F02290087FEB1217B89008895C
:104360001216A890087F1218647002FF2290087F2E
:1043700012168B121B7F120BAAC002C0019008827A
:104380001219F79008961217B7900887E0FFA3E07C
:10439000900899CFF0A3EFF0D001D0021225FEEFE4
:1043A0007002FF2290087F12168B121A9B24F9606C
:1043B000690460030245B39000061218FA900007E2
:1043C000121994121A749000091218B16003024570
:1043D000BF12193712B495900889EEF0A3EFF09050
:1043E000087F12168B121AEA121C2E40030245BFD8
:1043F000900889121A229E5002800FBC2716BD0F0A
:1044000013C3EF940BEE9400500A900010E475F083
:10441000010245BC121B7F0245BC90087F12168B1F
:104420001219C975F00AA4FDACF0121A7B75F0647C
:10443000A42DFFE5F03CFE121A5D7C002FFFEC3E40
:104440009000178FF0120BAA9000081218FA900033
:1044500009121994121B3590000B1218B160030257
:1044600045BF12193712B58E90088B12193212B748
:104470000190088D12193212B8DB9008911219328E
:1044800012BF6490088FEEF0A3EFF090087F121631
:104490008B121AEA121C2E40030245BF90088BE0D3
:1044A000FCA3E0FDC3940FEC94275073C3ED9FEC85
:1044B0009E500302456990087F12168B121AEAFF7C
:1044C00090088BE065F07003A3E06F7046121B3B11
:1044D0007003A3E06F600302456990087F12168B9A
:1044E000121AA1FF90088FE065F07003A3E06F60DF
:1044F0000612182E12957690087F12168B121A3714
:1045000040030245BF121A8A700690088DE004F03D
:104510000245A190087F12168B121B7F0245BC90AA
:10452000088BE064277004A3E0640F60030245BFBA
:1045300090087F12168B121AEAC3940BE5F09400D0
:10454000500612182E12957690087F12168B121AAA
:10455000EAFF90088BE065F07003A3E06F706012D3
:104560001B3B7003A3E06F600512182E804090087B
:104570007F12168B121AA1FF90088FE065F070036E
:10458000A3E06F600612182E12957690087F12161F
:104590008B121A375029121A8A700690088DE0047F
:1045A000F090088DE0FEA3E0900885121B6B129539
:1045B00076800C90087F12168B121B7F120BAA902C
:1045C000087F12168B9000101218CF7F0070027FA8
:1045D000012290087FEB1217B8A3EDF090087F122C
:1045E00018647003024842A3E06406600302469E1A
:1045F00090087FA3A3E0F91219C9121B689000FB71
:1046000075F01D12169B121A5BFF121694EF121A08
:1046100073FF9000FD121697EFF01219EEFF900055
:10462000FE121697EFF09000FB121697E0FF900134
:1046300035121697EFF0121694E0FF90013612161D
:1046400097EFF09000FD121697E0FF9001371216D9
:1046500097EFF09000FE121697E0FF9001381216C7
:1046600097EFF0ED4C701A9008831219491216FD5D
:10467000121BA5125F7A12173F7404F07FAD024837
:104680003D1218E16003024842FC1216FD121ABCEA
:10469000125F7A12173F7404F07FB402483D90080D
:1046A00082E06407600302484290087F12168B1272
:1046B0001A74121B689000FF75F01D12169BEFF024
:1046C0001219EEFF900100121697EF121B34FF90A3
:1046D0000101121697EF121C19FF90010212169792
:1046E000EF121A7AFF900106121697EFF01219C90D
:1046F000FF900107121697121A5BFF90010812161D
:1047000097EFF01209ADFF900109121697121BAD39
:10471000FE90010A121697EE121A73FE90013912DA
:104720001697EEF01219EEFE90013A121697EE125D
:104730001B34FE90013B121697EE121C19FE9001DD
:104740003C121697EE121A7AFE900140121697EE5E
:10475000F01219C9FE900141121697EE121A5CFE72
:10476000900142121697EEF0900143121697121B19
:10477000ADFF900144121697EFF0ED4C7062900877
:1047800083121949121713121AC4125F7A1216BD36
:104790007403F07F3BFE125F7A1216DD121AD412F8
:1047A0005F7A12176C74392FF9740112175474045C
:1047B000F07F527E03125F7A12176C74402FF974E7
:1047C000011217547403F07F5BFE125F7A12176CAC
:1047D00074432FF974011217547402F07F5F805DE7
:1047E0001218E1705DFC121713121ACC125F7A12C4
:1047F00016BD121B5A125F7A1216DD121ADC125FF6
:104800007A12176C74392FF974011217547404F06A
:104810007F627E03125F7A12176C74402FF9740165
:104820001217547403F07F6BFE125F7A12176C74C8
:10483000432FF974011217547402F07F6F7E031234
:104840005F7A22E490081CF0A3120E3100000000F1
:10485000900821120E3100000000E4900825F0A31A
:10486000F030030302496E12E2E95003024960127C
:10487000D4A990081D120E25E490081BF090081B87
:10488000E0C39510503990081D1285A67801120DCD
:104890002890081D120E2530D72012857AC000C03E
:1048A0000190081B128569E0F9F8120D4FD001D074
:1048B000001285B290081CE004F01285F180BE90D1
:1048C000081CE0FF7E00C39402748094804018D2DC
:1048D00014EF940374809480400512E2EC80081277
:1048E000E220EF6002C214201423E4FFFEFDFC125C
:1048F000857AC3120D176010900B67E004F0700604
:10490000900B66E004F0801D1285DD8018900B5638
:10491000E004F07006900B55E004F0900821120EB0
:10492000310000000012E18ED3900B67E09F900BE6
:1049300066E09E400612E2EC1285DDD3900B56E055
:10494000942C900B55E094015003024A9012E2EC33
:10495000900B8D7401F0E4900B55F0A3F0024A9097
:1049600090F834E4740193FF125A8C024A902004A8
:1049700003024A5A12857AC000C001900B8E12853C
:1049800069E0F9F8120D4FD001D0001285B21285FE
:10499000071285F8900825F0A3EFF0900B8EE0FF4A
:1049A00012E248AD07AC06ED7802CEA2E713CE13B3
:1049B000D8F8FFC3ED9FFFEC9EFED3900826E09F42
:1049C000EE6480F8900825E06480985058E4900BDD
:1049D0000BF0A3F0900ACEE004F09405748094806C
:1049E0004010E4F0C203C204900821120E3100000E
:1049F0000000E490081BF090081BE0FFC3951040F6
:104A000003024A90125C3F20031690081BE0FF90BF
:104A10000B8EE06F600A90081BE01285171285C4A8
:104A20001285F180D2E4900ACEF012E18E900B0B49
:104A3000E475F001120AC4FCD3E5F09FEC9E4050EF
:104A400012E2ECE4900B0BF0A3F0C203C204900856
:104A500021120E31000000008036785406E6D3940F
:104A600005748094804004E4F6C203E490081BF0CF
:104A700090081BE0FFC395105016125C3F20030BFB
:104A800090081BE0FF1285171285C41285F180E0A3
:104A90009008211285A622900812E0FBA3E475F08D
:104AA00001120ADAA9F0FA74011209F3900812E06F
:104AB000FBA3E0FAA3E0F9227D017BFF7E00FF0269
:104AC00009877B01E0FFA3E0CF900885F0A3EFF01A
:104AD000221209F39000F2E0FF90081575F002E051
:104AE000FBA3E4120ADAA9F0FA227D017BFFFE7F24
:104AF0000102098790044AE0FCA3E0FDA3E0FEA3C5
:104B0000E0FF90081D120E25900446E0F8A3E0F99E
:104B1000A3E0FAA3E0FB90081DE0FCA3E0FDA3E006
:104B2000FEA3E0FF120CF4EB5FFFEA5EFEE95DFD21
:104B3000E85CFC900446020E25D390081CE094002B
:104B400090081BE09400227D017BFF7E0012098704
:104B500012DF68EF3395E0FE22F0A37402F0E4A3C5
:104B6000F07404A3F0E4A3F0A322EFF0A3EBF0A30E
:104B7000EAF0A3E9F022E9240978D67C047F10F951
:104B8000E43AFA7D017E00020987A3E024F9FF7B65
:104B90000122FE90080DE02F2410F582E43408F580
:104BA00083EEF0900874E004F0229004C6E004F074
:104BB000227B017A08791090080FE0FF900879E4D1
:104BC000F0A3EFF022900812E0FBA3E0FAA3E022AA
:104BD000EEF0A3EFF0A3E4F0A3229000060209C6D2
:104BE000D390044FE090044E9400E06480948022BF
:104BF0007431F0E4A3F0A3F0A322EE04FF74102EAE
:104C0000F582E43408F58322F583E4F0EC75F008CE
:104C1000A422F090080DE02F90080FF0E4900874A3
:104C2000F02290080DE0FF900874E022F9E43AFACF
:104C30007D017E007F08120987E422900812E0FBC4
:104C4000A3E475F001229004D3E0FF3395E0FEEF7A
:104C50004E22AD037B017A0479E67E007F060209CD
:104C600087E0FCA3E0FDEC22E48FF0120B8B9000B8
:104C7000F3E0FF90081522D3900454E094009004D0
:104C800053E0940022F0900446E04410F022EFF04C
:104C9000A3ECF0A3EDF0A3E4F0A322E0FEA3E0FF79
:104CA0007D0022AE0712DF68EFFD3395E0FC22E4C1
:104CB000900792F0A3F022E4900453F0A3F0227D39
:104CC000017BFF7E000209879000050209C690045F
:104CD000D5E0640122F0A37408F0A3740EF02290D2
:104CE0000447E0FFC422900805EB12595CA3125957
:104CF00007125948C004C005C006C007120AF07860
:104D000018125950D003D002D001D000125964C0FB
:104D100004C005C006C0079008081259071259833D
:104D2000D003D002D001D000125964C004C005C025
:104D300006C007900808125907125A26D003D0025D
:104D4000D001D00090080B1259B3900805125907F2
:104D50001259A21289DE900810120E2590080F74C5
:104D600003F090080B1258E2FFA3125A09120D2803
:104D7000E4AD07900842F090080512590712BD6F84
:104D8000EF1259CC900808125907125A46FFE5F065
:104D9000FCED6F1259CC8F82F583EC8DF0120BAACB
:104DA000E92FF9EA3EFAC003C002C0011259BFC0A0
:104DB00007C00690080512590712511C7808120DF9
:104DC0004FD0E06EFED0E06FFFD001D002D003EEF6
:104DD0008FF0120B8B90080F125A6E5085900810AE
:104DE0001258E27818125A4D125907E41259ABE9D9
:104DF0002408F9E43AFAC003C002C0011259BFC046
:104E000007C006900808125907900008124F04D0F6
:104E1000E04CFFD0E0D001D002D0031259C6900878
:104E2000101258E27810125A4D12590790000A12C7
:104E300059FE240AF9E43AFAC003C002C00112592B
:104E4000BFC007C00690080812590790000A124F09
:104E500004D0E04CFFD0E0D001D002D0031259C6FC
:104E60009008101258E2FF7808125A4E1259079013
:104E7000000C1259FE240CF9E43AFAC003C002C037
:104E8000011259BFC007C0069008081259079000C8
:104E90000C124F0ED0E04CFFD0E0D001D002D00376
:104EA0001259C6900810125A7890080812590790A3
:104EB000000E1259FE240EF9E43AFAC003C002C0F3
:104EC000011259BFC007C006900808125907900088
:104ED0000E124F0ED0E04CFFD0E0D001D002D00334
:104EE0001259C6900808125A552408F9E43AFAEB08
:104EF000125959A3120E31000000049008051259EE
:104F00000702D61E120B1BFF12CD84EFFC22120BE0
:104F10001BFF12CD84EFFC227D017F04124F220D76
:104F20007F04EFF582758300C3748094804024D39E
:104F3000E5829405748094805019EDF582C37480E5
:104F40009480400FE58294087480948050057582A7
:104F5000018003900000E5826401458360030251F3
:104F60001BEF14606414700302500E14700302509F
:104F7000531470030250981470030250DA24056031
:104F80000302511BEB14601D14602D240260030208
:104F9000511BA8057401088002C333D8FCFF429A54
:104FA000EFF4529B22A8057401088002C333D8FC99
:104FB000FFF4529AEF429B22A8057401088002C3B5
:104FC00033D8FCF4529A529B22EB14601D14602DCE
:104FD0002402600302511BA8057401088002C33338
:104FE000D8FCFF4291EFF4529222A8057401088088
:104FF00002C333D8FCFFF45291EF429222A8057409
:1050000001088002C333D8FCF45291529222EB146F
:10501000601D14602D2402600302511BA805740159
:10502000088002C333D8FCFF42A1EFF452A222A8A9
:10503000057401088002C333D8FCFFF452A1EF428B
:10504000A222A8057401088002C333D8FCF452A13F
:1050500052A222EB14601D14602D24026003025141
:105060001BA8057401088002C333D8FCFF42B1EFCE
:10507000F452B222A8057401088002C333D8FCFFA1
:10508000F452B1EF42B222A8057401088002C33382
:10509000D8FCF452B152B222EB14601A14602A24E4
:1050A000027078A8057401088002C333D8FCFF425F
:1050B000C1EFF452C222A8057401088002C333D89C
:1050C000FCFFF452C1EF42C222A80574010880021D
:1050D000C333D8FCF452C152C222EB14601A1460DC
:1050E0002A24027036A8057401088002C333D8FC54
:1050F000FF42D9EFF452DA22A8057401088002C3F6
:1051000033D8FCFFF452D9EF42DA22A80574010823
:105110008002C333D8FCF452D952DA22900852EB01
:1051200012595CA3120E3100000002900859120EB1
:1051300031000000001258DF240712593DC004C09E
:1051400005C006C0071258DF24091258CF240B905F
:1051500008681258D2240D12593D125A11D007D0A6
:1051600006D005D004129949A907900C6E1258E296
:10517000125994125928FBC000C001C002C003900C
:105180000852125907A31258E2240F12593DC004C5
:10519000C005C006C0071258DF24111258CF2413CF
:1051A00012593D9008681258DC241512593D125AC4
:1051B00011D007D006D005D00412530A1258E212BB
:1051C0005994FC7801120D4FD003D002D001D000C9
:1051D00012591DFBC000C001C002C003900852124A
:1051E0005907A31258E2241712593DC004C005C044
:1051F00006C0071258DF24191258CF241B12593D3C
:105200009008681258DC241D12593D125A11D0071B
:10521000D006D005D00412530A1258E2125994FC59
:105220007802120D4FD003D002D001D00012591DC8
:10523000FBC000C001C002C003900852125907A36E
:105240001258E2241F12593DC004C005C006C00711
:105250001258DF24211258CF242312593D90086898
:105260001258DC242512593D125A11D007D006D00D
:1052700005D004129949A907900C6E1258E21259F0
:1052800094FC7803120D4FD003D002D001D000124D
:10529000591DFBC000C001C002C003900852125942
:1052A00007A31258E2242712593DC004C005C006C6
:1052B000C0071258DF24291258CF242B12593D90D1
:1052C00008681258DC242D12593D125A11D007D00B
:1052D00006D005D004129949A907900C6A1258E229
:1052E000125994FC7804120D4FD003D002D001D093
:1052F00000900859125A17900859A3A3A3E0F990F7
:105300000C721258E2125994FC22129949A9079082
:105310000C6A22124BE040030254F090044A120E31
:105320003100000000900446E0FF5401600AEF5491
:10533000FEF012BCA40254CB900446E0FFC3135409
:1053400001600D90044AE04402F012D6CD0254CB25
:10535000900446E0FF13135401600AEF54FBF0126F
:10536000D9B40254CB124CDF5401600AEF54EFF071
:1053700012D7C20254CB900447E0FF131313540119
:10538000600D90044BE04408F012E07E0254CB9094
:105390000446E0C41313135401601290044AE0441D
:1053A00080F0900452E0FF12DFD60254CB90044606
:1053B000E0C45401601590044AE04410F090045396
:1053C000E0FEA3E0FF12DE280254CB900446E0FF8B
:1053D000C4135401600D90044AE04420F012BB6AEB
:1053E0000254CB900446E0FFC413135401600D90A7
:1053F000044AE04440F012DE820254CB900448E0BC
:10540000FFC3135401600D90044CE04402F012E01D
:105410009E0254CB900447E0C41313135401600F51
:1054200090044BE04480F07F2012DFE80254CB90E0
:105430000448E05401600F90044CE04401F07F21E7
:1054400012DFE80254CB124CDF131354016020EF3B
:1054500054BFF09004D57401F09004ECE4F0A37410
:1054600060F07B017A0C79297D0A12E15C805C9006
:105470000446E0FF1313135401600C90044AE04407
:1054800008F012D4148044900447E05401600E9058
:10549000044BE04401F07F19128CB1802E90044738
:1054A000E0C3135401600E90044BE04402F07F1AF5
:1054B000128CB18016900447E013135401601290CF
:1054C000044BE04404F07F1B128CB190044EE48046
:1054D0001A124CDF135401601790044BE04420F083
:1054E00012E08EE49004D4F090044EF0A37410F017
:1054F000124BE0400CA3E024FFF090044EE034FF98
:10550000F022900417E0600302558D9000D2E07005
:10551000459000D5E0703F90053E7415122C8C909C
:10552000053F7403122B5A90054304F090054A126C
:1055300029C4E490080CF090080C122AB9500B1200
:1055400029FE90080CE004F080ED122CBD7B527D0A
:105550004C7F6602E14F1229C590050F7409F0E4F3
:1055600090080CF0900C39E0FF90080CE0FEC39F0F
:10557000500E74292E122A0190080CE004F080E4E9
:1055800090041774011229F77F5A02E1189004174A
:10559000E0640160030256997D107F0612E01C90C2
:1055A0000C3BE06402704B9004177403F0122CDE85
:1055B000127EC2900420EFF0600FC39403748094B5
:1055C0008050069004177402F0122BC9900417E063
:1055D000640370157F4012E11890041F7480F0126C
:1055E0002B0C501FE004F0801A7D327F5A12E04EDF
:1055F0008011900C3BE0640370099004177404F070
:10560000122BC91264029001B6E064287029C3907D
:1056100001B2E0940A9001B1E09400501A9004178E
:1056200074021229F77D327F5A12E04E9001B57450
:1056300001F07F030256E99001B6E0FF6429602281
:10564000EF642860030256EC9001B2E02401FF9061
:1056500001B1E03400FED3EF940AEE94005003024F
:1056600056EC9001B7E0642B90042170057402F0B1
:1056700080037401F0E49001B6F09004177403F015
:1056800090041F7480F07F4012E1187F0212B11065
:10569000122B0C5057E004F022900417E0640270C3
:1056A0000912E126E49000CBF022900417E0640395
:1056B000702190041FE014F01229A0502F122B0C1F
:1056C0004006E4A3122B03F01229EE90053EF07F72
:1056D000018016900417E0640470117F6012E118D5
:1056E0001229EE90053EF07F0112B11022900AAB14
:1056F000121824121BA512C63A9000FBE0F4600FAA
:10570000A3E0F4600AA3E0F46005A3E0F47017E4FA
:105710009000FB1216B57B017A0079FB1219D17F3C
:10572000A07E03125F7A12175F121ABC12C63A905B
:105730000118E0F4600FA3E0F4600AA3E0F4600550
:10574000A3E0F47013E49001181216B590089A12B1
:105750001763121ABC125F7A900AAB12184D121A14
:10576000C412C63A9000FFE0F4600FA3E0F4600AB0
:10577000A3E0F46005A3E0F47013E49000FF1216B8
:10578000B590089A12184E121AC4125F7A900AAB9A
:1057900012186E121ACC12C63A90011CE0F4600F77
:1057A000A3E0F4600AA3E0F46005A3E0F47013E45E
:1057B00090011C1216B590089A12186F121ACC128A
:1057C0005F7A900AAB1218577F3BFE12C63A9001DF
:1057D00006E0F4600AA3E0F46005A3E0F470129020
:1057E0000106121B5390089A1218587F3BFE125F55
:1057F0007A900AAB121878121B5A12C63A900123FB
:10580000E0F4600AA3E0F46005A3E0F470129001F4
:1058100023121B5390089A121879121B5A125F7A9E
:10582000900AAB121882121AD412C63A900109E0FB
:10583000F46005A3E0F47010E4900109121C071253
:105840001883121AD4125F7A900AAB12189D121A9A
:10585000DC12C63A900126E0F46005A3E0F4701073
:10586000E4900126121C0712189E121ADC125F7AAD
:10587000900AAB1218A7121AB512C63A900103E0AB
:10588000F4600AA3E0F46005A3E0F47011E4900171
:1058900003F0121C061218A8121AB5125F7A900AA9
:1058A000AB1218D7121B6112C63A900120E0F460C7
:1058B0000AA3E0F46005A3E0F47011E4900120F085
:1058C000121C061218D8121B61125F7A0238B990A6
:1058D0000864FFE43EFEE43DFDE43CFC120E25902E
:1058E0000855E0FCA3E0FDA3E0FEA3E022E47F0274
:1058F000FEFDFC90083AE0F8A3E0F9A3E0FAA3E08B
:10590000FB120BD790082FE0FBA3E0FAA3E0F922EB
:10591000EF6BFFEE6AFEED69FDEC68FC22EB4FFFDA
:10592000EA4EFEE94DFDE84CFC900859120E259018
:105930000859E0F8A3E0F9A3E0FAA3E022FFE43E6F
:10594000FEE43DFDE43CFC22900002120B1B7810AB
:10595000FF7E00E4FCFD020D4F900817F0A3EAF073
:10596000A3E9F022EF4BFFEE4AFEED49FDEC48FCC7
:1059700022900870EB4FFFEA4EFEE94DFDE84CFC2B
:10598000020E25900004120B1B7808FF7E00E4FC39
:10599000FD020D4FFFA801120D28EF5401FFE4FE98
:1059A000FD227F407E007D007C00229000088FF069
:1059B000020BAAEF4BFFEAFEE9FDE8FC020E2512FE
:1059C0000AF0FFAEF022CF8FF0020B8BFD90080F94
:1059D000E0FF3395E0FEC374039FFFE49EFEEF25D6
:1059E000E0FFEE33FE22FFE4FAF9F8EF2401FFEACC
:1059F0003EFEE93DFDE83CFC90083A020E25E48FAE
:105A0000F0120BAAE922900827E075F008A4F9F833
:105A10002290086C020E25EB4FFFEA4EFEE94DFD89
:105A2000E84CFC020E25900006120B1BFF22EF4BE8
:105A3000FFEAFEE9FDE8FC020E256FFFEA6EFEE9D3
:105A40006DFDE86CFC228F828E83020B1BFF120D12
:105A50002890080822E0FBA3E0FAA3E022FF7E00E2
:105A6000E4FCFD7818020D4F90081F020E25E0148B
:105A7000F0E0C36480948022E0FCA3E0FDA3A3E0F7
:105A8000FF22E4900822F0FFFEFDFC22900827EFA1
:105A9000F0900CE4E0C39403748094804048E4F0F8
:105AA000900B8DE07035900828F0900828E0C395A1
:105AB000105028E0FF75F002A42469F582E5F03467
:105AC0000BF583E0FCA3E0FDEF25E02424F8A60419
:105AD00008A605900828E004F080CF12BC3DC2154E
:105AE000E4900B8DF022900CDEE004F0900827E0AB
:105AF000FF900CDEE0B5070812D349E4900CDFF00C
:105B0000900827E0FF900CDEE0D39F5003025C3E3C
:105B1000E4900828F0900828E0C395104003025B49
:105B2000EAE0FF75F002A42469F582E5F0340BF594
:105B300083E0FCA3E0FD75F002EFA424CFF582E53D
:105B4000F0340AF583E0FEA3E0C39DFFEE9CAD07B1
:105B5000FC900B8DE07042900B68E0FB3395E0FA0F
:105B6000FEEB7802C333CE33CED8F9FFD3ED9FEEF0
:105B70006480F8EC6480984060E49BFFE49AFEEF58
:105B80007802C333CE33CED8F9FFC3ED9FEE6480E5
:105B9000F8EC64809850428051900B68E0FB33959C
