:03000000029CA3BC
:03000B0002BBDE57
:0300130002C23CEA
:03001B0002B42A02
:0300230002CDF714
:0300330002CFB148
:03004B0002BDE013
:03005B0002BFC31E
:03006B0002C15C73
:03007B0002CC00B4
:0300830002B6962C
:03008B0002B6E6D4
:10010000E709F608DFFA8046E709F208DFFA803EE1
:1001100088828C83E709F0A3DFFA8032E309F608CE
:10012000DFFA8078E309F208DFFA807088828C8336
:10013000E309F0A3DFFA806489828A83E0A3F608EA
:10014000DFFA805889828A83E0A3F208DFFA804CC4
:1001500080D280FA80C680D4806980F2803380109B
:1001600080A680EA809A80A880DA80E280CA803304
:1001700089828A83ECFAE493A3C8C582C8CCC5837C
:10018000CCF0A3C8C582C8CCC583CCDFE9DEE7804C
:100190000D89828A83E493A3F608DFF9ECFAA9F0CB
:1001A000EDFB2289828A83ECFAE0A3C8C582C8CC21
:1001B000C583CCF0A3C8C582C8CCC583CCDFEADE3A
:1001C000E880DB89828A83E493A3F208DFF980CC9C
:1001D00088F0EF60010E4E60C388F0ED2402B40495
:1001E0000050B9F582EB2402B4040050AF2323453C
:1001F000822390015073BB010689828A83E02250DA
:1002000002E722BBFE02E32289828A83E49322BBB7
:10021000010CE58229F582E5833AF583E022500658
:10022000E92582F8E622BBFE06E92582F8E222E50E
:100230008229F582E5833AF583E49322BB0106899E
:10024000828A83F0225002F722BBFE01F322F8BB20
:10025000010DE58229F582E5833AF583E8F0225025
:1002600006E92582C8F622BBFE05E92582C8F222EE
:10027000EF8DF0A4A8F0CF8CF0A428CE8DF0A42EA2
:10028000FE22BC000BBE0029EF8DF084FFADF022F2
:10029000E4CCF875F008EF2FFFEE33FEEC33FCEE04
:1002A0009DEC984005FCEE9DFE0FD5F0E9E4CEFDF7
:1002B00022EDF8F5F0EE8420D21CFEADF075F008CA
:1002C000EF2FFFED33FD4007985006D5F0F222C323
:1002D00098FD0FD5F0EA22C2D5EC30E709B2D5E49B
:1002E000C39DFDE49CFCEE30E715B2D5E4C39FFF4F
:1002F000E49EFE120282C3E49DFDE49CFC80031296
:10030000028230D507C3E49FFFE49EFE22C5F0F8C9
:10031000A3E028F0C5F0F8E582158270021583E0AD
:1003200038F022A3F8E0C5F025F0F0E582158270E0
:10033000021583E0C838F0E822BB010A89828A836B
:10034000E0F5F0A3E022500687F009E71922BBFE92
:1003500007E3F5F009E3192289828A83E493F5F033
:1003600074019322BB0110E58229F582E5833AF5F9
:1003700083E0F5F0A3E0225009E92582F886F00831
:10038000E622BBFE0AE92582F8E2F5F008E222E562
:10039000832AF583E993F5F0A3E99322BB0107894A
:1003A000828A8302030D500B09C5F027F7C5F019A7
:1003B00037F722BBFE0D09F8E325F0F3C5F019E38A
:1003C00038F322F889828A8374019325F0C5F0F806
:1003D000E4933822BB010A89828A83F0E5F0A3F016
:1003E000225006F709A7F01922BBFE06F3E5F00933
:1003F000F31922F8BB0111E58229F582E5833AF56C
:1004000083E8F0E5F0A3F0225009E92582C8F60858
:10041000A6F022BBFE09E92582C8F2E5F008F22227
:10042000E88FF0A4CC8BF0A42CFCE98EF0A42CFC7B
:100430008AF0EDA42CFCEA8EF0A4CDA8F08BF0A4F9
:100440002DCC3825F0FDE98FF0A42CCD35F0FCEB58
:100450008EF0A4FEA9F0EB8FF0A4CFC5F02ECD391D
:10046000FEE43CFCEAA42DCE35F0FDE43CFC227514
:10047000F008758200EF2FFFEE33FECD33CDCC3385
:10048000CCC58233C5829BED9AEC99E58298400CED
:10049000F582EE9BFEED9AFDEC99FC0FD5F0D6E4CB
:1004A000CEFBE4CDFAE4CCF9A88222B800C1B900B1
:1004B00059BA002DEC8BF084CFCECDFCE5F0CBF912
:1004C0007818EF2FFFEE33FEED33FDEC33FCEB330A
:1004D000FB10D703994004EB99FB0FD8E5E4F9FA38
:1004E000227818EF2FFFEE33FEED33FDEC33FCC91D
:1004F00033C910D7059BE99A4007EC9BFCE99AF9B0
:100500000FD8E0E4C9FAE4CCFB2275F010EF2FFF1E
:10051000EE33FEED33FDCC33CCC833C810D7079B88
:10052000EC9AE899400AED9BFDEC9AFCE899F80FEB
:10053000D5F0DAE4CDFBE4CCFAE4C8F922CFF4CF6D
:10054000CEF4CECDF4CDCCF4CC22EB9FF5F0EA9EE8
:1005500042F0E99D42F0EC6480C864809845F02246
:10056000EB9FF5F0EA9E42F0E99D42F0E89C45F0F1
:1005700022E8600FECC313FCED13FDEE13FEEF1346
:10058000FFD8F122E86010ECA2E713FCED13FDEEBA
:1005900013FEEF13FFD8F022E8600FEFC333FFEE36
:1005A00033FEED33FDEC33FCD8F122BB0107898229
:1005B0008A830207935005E9F8020787BBFE05E925
:1005C000F802079F89828A830207ABBB010DE5828F
:1005D00029F582E5833AF5830207935007E92582DE
:1005E000F8020787BBFE07E92582F802079FE5822C
:1005F00029F582E5833AF5830207ABBB01078982BF
:100600008A8302066E5005E9F80207BBBBFE05E9C6
:10061000F80207C722BB010DE58229F582E5833A7E
:10062000F58302066E5007E92582F80207BBBBFE80
:1006300007E92582F80207C7227401FF3395E0FE1F
:10064000FDFCA3A3A3E0CF2FF0E582158270021575
:1006500083E0CE3EF0E582158270021583E0CD3D49
:10066000F0E582158270021583E0CC3CF022ECF0BC
:10067000A3EDF0A3EEF0A3EFF022A8828583F0D0E3
:1006800083D082120691120691120691120691E40D
:1006900073E493A3C583C5F0C583C8C582C8F0A31E
:1006A000C583C5F0C583C8C582C822BB010DE582DC
:1006B00029F582E5833AF58302067A5007E9258217
:1006C000F80207D3BBFE07E92582F80207EC22A453
:1006D0002582F582E5F03583F58322BB0120E58292
:1006E00029F582E5833AF583D0F0D0E0F8D0E0F93F
:1006F000D0E0FAD0E0FBE8C0E0C0F002080E5018ED
:10070000E92582F8D083D082D0E0F9D0E0FAD0E0B9
:10071000FBC082C083020805BBFE18E92582F8D021
:1007200083D082D0E0F9D0E0FAD0E0FBC082C08371
:1007300002081722D083D082F8E4937012740193D8
:10074000700DA3A393F8740193F5828883E4737406
:1007500002936860EFA3A3A380DFEC8EF0A4CCC566
:10076000F0CCCDF8EFA4CEC5F02DFDE43CFCE8A420
:100770002EC8C5F03DFDE43CFCEFA4FFE5F028FEEB
:10078000E43DFDE43CFC22E6FC08E6FD08E6FE084C
:10079000E6FF22E0FCA3E0FDA3E0FEA3E0FF22E2EF
:1007A000FC08E2FD08E2FE08E2FF22E493FC74018B
:1007B00093FD740293FE740393FF22ECF608EDF6AA
:1007C00008EEF608EFF622ECF208EDF208EEF20879
:1007D000EFF222D083D082E493F608740193F608F6
:1007E000740293F608740393F6740473D083D08272
:1007F000E493F208740193F208740293F20874030C
:1008000093F2740473EBF608EAF608E9F622EBF0CB
:10081000A3EAF0A3E9F022EBF208EAF208E9F222F7
:10082000900523E06003020E2F123B4A901187EFE0
:10083000F0F4600312C76590055FE012073408907A
:100840000009790109BA020A14050A48060A830B4D
:100850000B060C0B140D0B1F0E0B490F0B57100B37
:1008600061120B7B130B88140BB2150BD5160BE81A
:10087000170C121A0D611B0C3E1C0C761E0E1C264A
:100880000C89270DC02B0CEA2C0DAA2D00000E2F71
:10089000901187E0FF640D6011EF641B700C9005F0
:1008A0005F741AF09005117403F0900530E0FF6456
:1008B00007600302094D1230E35033EF6407600311
:1008C000020E2F9011A404F07410122F7E12321A0F
:1008D0001231EE500E74932E122FB3900C2BE004B5
:1008E000F080ED9005307408F07F0102C4A512304D
:1008F0002F70217F0112C4A590019D123039BEFFD7
:1009000006BFFF03E4F022E4900528F0A3F0900571
:100910002D04F022901187E0640B6003020E2F90EB
:10092000019D122F5170137F0112C4A590055F74B1
:100930001EF0E49004551232392212C7A890052601
:10094000E4F0A37496F090055F741FF02290118775
:10095000E0FFF47003020E2FEF640C7003020E2F01
:1009600012323A900530E064096003020E2F7F01D5
:1009700012C4A512325D020C811230A67003020B64
:10098000431230AD7003020C0C1231FB7003020BEA
:10099000AC901187E064047003020C7012302F6079
:1009A00003020E2F120ED9122FA07F6012CE517F9C
:1009B000647E0012CFF5E4020DBB901187E0FF6466
:1009C00001600AEF64026005EF64037004E4120E34
:1009D000D91230A6700E120E30E490055DF090052D
:1009E0005F020A751230AD700E120E30E490055D94
:1009F000F090055F020B9F1231FB700D120E3D123D
:100A0000323290055F740EF02212302F6003020E16
:100A10002F020B001230A6700F120E3D90055F746E
:100A200012F0E490016FF0221230AD7010120E4AF5
:100A300090055F7414F0900515740AF02212302F9F
:100A40006003020E2F020B001230A67009120E4A2C
:100A500012319804F0221230AD7009120E57123183
:100A600098020DA61231FB7010120E5790055F749C
:100A700017F0900665740FF02212302F6003020EFB
:100A80002F807D1230A6700A120E6490055F741CD0
:100A9000800D1230AD700C120E6490055F742CF056
:100AA000E4802B1231FB7010120E7190055F7427D9
:100AB000F0E49005F1F08016901187E0640470185E
:100AC000120E7190055F741BF0E490063FF09011D8
:100AD00090F090118F020C30901187E0640570182F
:100AE000120E7E90055F741AF0E4900511F09011DB
:100AF00090F090118F020DA612302F6003020E2F7E
:100B0000120E7E02CE5F90055DE064016003020E6E
:100B10002F020BE01231C26003020E2F020BE09095
:100B20000662E064086003020E2F12318E700B9093
:100B30000663F09006627409F022EF640A4E6003C7
:100B4000020E2F120E8B02CF9590055DE0640160BE
:100B500003020E2F020BE01231C26003020E2F803F
:100B60007F90016FE064017008901187E0FF12AA86
:100B70007B12302F6003020E2F80319001E1E06480
:100B8000016003020E2F8058900515E0640B60038E
:100B9000020E2F12318E700B900516F09005157411
:100BA0000CF022EF640A4E6003020E2F120E8B022D
:100BB000CFA3900560E0640170028024900560E09E
:100BC00064037003020C81900560E064046003021A
:100BD0000E2F020C81900577E064016003020E2F56
:100BE000901187E0FF02AA7B900665E06410600325
:100BF000020E2F12318E700B900666F0900665740F
:100C000011F022EF640A4E6003020E2F120E9802BA
:100C1000CF9C900511E064016003020E2F901187B4
:100C2000E0640B700F120E98E4900512F09005111D
:100C30007403F02212302F6003020E2F8032123024
:100C4000A6700D7AE3796B120EA5E49001EB80118A
:100C50001230AD70137AE3796E120EA59001EB7429
:100C6000FFF012BF10020D5E12302F6003020E2F34
:100C7000120EB2020D5E900455E064016003020E94
:100C80002F901187E0FF020E199005F1E0640160DA
:100C900003020E2F1230A670139000F8F09005F1A9
:100CA0007402F07BFF7AE37995020D7B1230AD7010
:100CB000289000F804F09005F104F012BA95EF3393
:100CC00095E04F70087F7A12CE51020E287BFF7A92
:100CD000E3799812BC1F020E2812302F6003020E17
:100CE0002F120EB29005F1020DA61230A6701A90C6
:100CF00000F9123039BEFF08BFFF05E4F012C92821
:100D00007AE37983120EBF80551230AD70459000A2
:100D1000F9122F51703474FFF0E4900519F0A3F02C
:100D200090051DF0A3F012C532EF2412FEE43390BB
:100D3000051BF0A3CEF090051FE4F0A37408F0901B
:100D400005237402F0E4900522F07AE37986120E0E
:100D5000BF800B12302F6003020E2F120ECC02CE7A
:100D60006D90063FE064016003020E2F1230A67002
:100D7000109006401232787AE379AA12BC1F020E54
:100D8000281230AD701290064074FF1232787AE368
:100D900079AD12BC1F020E2812302F6003020E2FF5
:100DA000120ECC90063F7402F022901187E0FF648F
:100DB0000B6005EF640A7077122FA090055FF02298
:100DC000900530E0FF640770381230E3502FEF6475
:100DD00007705C9011A404F09011A37410122F817D
:100DE00012321A1231EE500E74932E122FB3900C51
:100DF0002BE004F080ED9005307408F02212302FC3
:100E000022901187E0FFF46026900530E0640970BD
:100E10001E900532F0A374F0F002A26F901187E0EB
:100E2000F4600C7F3012CE517F647E0012CFF52229
:100E30007F0112C4A57F647E0012CFF5227F0112CC
:100E4000C4A57F647E0012CFF5227F0112C4A57F66
:100E5000647E0012CFF5227F0112C4A57F647E005C
:100E600012CFF5227F0112C4A57F647E0012CFF558
:100E7000227F0112C4A57F647E0012CFF5227F017C
:100E800012C4A57F647E0012CFF5227F0112C4A593
:100E90007F647E0012CFF5227F0112C4A57F647E9D
:100EA0000012CFF5227BFF12BC1F7F647E0012CFA1
:100EB000F5227F0112C4A57F647E0012CFF5227B4C
:100EC000FF12BC1F7F647E0012CFF5227F0112C487
:100ED000A57F647E0012CFF5229001F3F07F01120E
:100EE000A49C224412370000000042123B0000C1C3
:100EF00014C115C10FC10CC10DC10EC110C111C16A
:100F000012C11341125002411251004110DD00C1C3
:100F100003C102C100C101C10401540041101E00FF
:100F200042105B000041122D00C11841125400C153
:100F300019C11AC109C106C10AC107C10BC10841C3
:100F40001236004411E0000000005811C80400806F
:100F500000000800044000001000402000002000B5
:100F60008010000100640008240000000000000060
:100F70000000000000000000000000000000000071
:100F80000000000000000000000000000000000061
:100F90000000000000000000000000000000000051
:100FA0000000000000000000000000000000000041
:101360000000000000000000005611E4736C5F678D
:10137000656E657269635F76312E302E302E3030A7
:10138000370042120D00004111FA004212470000DE
:101390004C12101F1C1F1E1F1E1F1F1E1F1E1F4131
:1013A0001187FFC11B411226004A121C1122330073
:1013B00000000000000061310ED2000000008080BB
:1013C000800000000000000000000000000000801D
:1013D000C0E0F0F8F8F8FCFCFCFCFCF8F8F8F0E0F1
:1013E000C0800000000000000000000000000000BD
:1013F0008080800000000080F07C0F03C1F03C0E74
:1014000082E0781800000000C0F0FCFFFFFFFFFF43
:10141000FFFFFFFFFFFFFFFFFFFFFFFFFFFFFFFFDC
:10142000FCF8C0000000001878E0820E3CF0C1011A
:101430000F7EF080031FFCE000071F78E0830F3C65
:10144000300000C0FCFFFFFFFFFFFFFFFFFFFFFFBB
:10145000FFFFFFFFFFFFFFFFFFFFFFFFFFFFFFFF9C
:10146000FCE00000303C0F83E0781F0780E07C1F29
:1014700003000000010303020000000000F0FCFF75
:101480009F0F07030303010101013078FCFCFCFC02
:10149000FCFCFC783001010101030303070F9FFFEF
:1014A000FCF0000000000002030301000000000047
:1014B00000000000000000000000000307070F0EFE
:1014C0001C1C3C38383870707070707070707070A0
:1014D000707070383838381C1C1E0F070703000066
:1014E0000000000000000000000000C11C4210E1EC
:1014F00000004410E3000000005A110C0010001816
:101500000020002800300040006000800100020040
:101510000400080010005B10F1000000080000103B
:101520000000180000380000580000780000980003
:1015300000B800004111260041112B004110DF00CE
:101540004111280041112A004110E7004110ED002F
:101550004111410041114200411140004411A700D6
:10156000009E984411AB0000B48E4411AFEC57E8D4
:101570000A5511B3FFAB68FFBDA2FF4D08FF964BA4
:10158000FF6FB3FF67FEFF6E7800900C46EFF0E44C
:10159000900C4EF0900C46E0FF25E02424F8E6FC89
:1015A00008E6FD75F002EFA4241FF582E5F0341083
:1015B000F583E0FEA3E0C39DFFEE9C900C47F0A3F3
:1015C000EFF0E47F01FEFDFC900C46E0F9F8120517
:1015D000988F0F8E0E8D0D8C0CAF0112CF5D900C7D
:1015E0004CEEF0A3EFF0C3900C48E09FEE6480F85F
:1015F000900C47E06480984008900C497401F0809A
:1016000005E4900C49F0900C49E064016003021875
:1016100006900C46E0FF2437F582E43410F583E0B1
:10162000C394FA74809480500D74372FF582E4349B
:1016300010F583E004F0E50B550FFFE50A550EFEAB
:10164000E509550DFDE508550CFCE4FBFAF9F8C376
:1016500012056060030217CC901003E0900C4BF071
:1016600012CFE3EF6047E4900C49F0A3F0900C4AEE
:10167000E0FFC39510502274372FF582E43410F543
:1016800083E0C39401748094804006900C49E00488
:10169000F0900C4AE004F080D4900C49E0C394032D
:1016A000748094804007900C4BE0240FF0900C461F
:1016B000E02437F582E43410F583E0FF900C4BE032
:1016C000FEEFC39E50030217CCE4900C49F012CFFA
:1016D00035EF6003021759900C4AF0900C4AE0FF76
:1016E000C39510502C900C46E06F601D12CEDA901E
:1016F0000C4AE02437F582E43410F583E0C39F40C0
:1017000008900C497401F08008900C4AE004F080C5
:10171000CA12CFE3EF3395E04F60030217AA900C93
:1017200049E060030217AAA3F0900C4AE0FFC395BA
:10173000105077900C46E06F601712CEDA900C4A8A
:10174000E02443F582E43410F583E0C39F40028037
:1017500053900C4AE004F080D012CFE3EF3395E0D1
:101760004F7047900C4BF0900C4AF0900C4AE0FF01
:10177000C39510502274372FF582E43410F583E0BE
:10178000C39402748094804006900C4BE004F09067
:101790000C4AE004F080D4900C4BE0C394037480B6
:1017A00094804006900C497401F0900C49E064016B
:1017B0007002D216E50B450FF50BE50A450EF50A4A
:1017C000E509450DF509E508450CF508900C46E0DE
:1017D000FF2475F582E43410F583E4F074D12FF51D
:1017E00082E43410F583E4F075F002EFA4245DF593
:1017F00082E5F03410F583E4F0A3F074062FF5824F
:10180000E43410021B95900C46E0FF12CC6F900C54
:1018100047E0FCA3E0FDD39FEE6480F8EC64809881
:101820004012900C46E02443F582E43410F583E046
:1018300004F0801590122FE004F0900C46E0244351
:10184000F582E43410F583E4F09010B8E0FF3395AE
:10185000E0FEC3E49FFBE49EFAC3ED9BEA6480F8DC
:10186000EC648098500302195ED3900C48E09FEE20
:101870006480F8900C47E0648098400302195E9001
:101880000C46E0FF2475F582E43410F583E4F0742F
:10189000062FF582E43410F583E4F0FFFEFDFCAB87
:1018A0000BAA0AA909A808C31205606003021A9AC4
:1018B000900C47E0FEA3E0FF900C46E075F002A418
:1018C000245DF582E5F03410F583EE8FF012030D00
:1018D00012CEB9900C46E075F002A4245DF582E5C5
:1018E000F03410F583E0FCA3E0C39FEE6480F8ECD5
:1018F0006480984013900C46E0FF25E02424F8080B
:1019000006E618704306804012CEB9C3E49FFFE498
:101910009EFE900C46E075F002A4245DF582E5F091
:101920003410F583E0FCA3E0C39FEE6480F8EC6420
:1019300080984003021A9A900C46E0FF25E0242488
:10194000F808E6161870011675F002EFA4245DF58C
:1019500082E5F03410F583E4F0A3F0021A9A9010B7
:10196000B8E0FF3395E0FEC3E49FFFE49EFEC39022
:101970000C48E09FEE6480F8900C47E0648098404B
:1019800003021A10900C46E0FF2475F582E434102F
:10199000F583E004F074062FF582E43410F583E457
:1019A000F074752FF582E43410F583E0FF75F00ACA
:1019B00084E5F07046C3EF946474809480900C4684
:1019C000E040142475F582E43410F583E4F0D21776
:1019D0009010DD04F0802425E02424F8C000E6FE09
:1019E00008E6FF9010B8E0A2E713FD3395E0FCC3D2
:1019F000EF9DFFEE9CD000F608A607900C46E0FF96
:101A0000901228E06F6003021A9A74FFF0021A9A8B
:101A10009010B8E0FF3395E0FED3900C48E09FEEC5
:101A20006480F8900C47E0648098406E900C46E02B
:101A30002475F582E43410F583E4F0FFFEFDFCAB81
:101A40000BAA0AA909A808C3120560704D900C469C
:101A5000E0FF2406F582E43410F583E004F0740618
:101A60002FF582E43410F583E06420702D900C464D
:101A7000E0FF2406F582E43410F583E4F09010B81A
:101A8000E0A2E713A2E713FD3395E0FCEF25E02485
:101A900024F808ED26F618EC36F6E50B550FFFE5B1
:101AA0000A550EFEE509550DFDE508550C4D4E4F46
:101AB0007003021BAB900C4CE0FCA3E0FDAE04787D
:101AC00002CEA2E713CE13D8F8FFC3ED9FFFEC9E22
:101AD000FEC3900C48E09FEE6480F8900C47E064F1
:101AE00080984003021B9A900C46E024D1F582E4D2
:101AF0003410F583E004F012CF3D900C4BEFF0E48E
:101B0000900C4AF0900C4AE0FFC3951050227437B5
:101B10002FF582E43410F583E0C39401748094803F
:101B20004006900C49E004F0900C4AE004F080D4A8
:101B3000900C49E0C3940374809480400890100393
:101B4000E0900C4BF0900C46E0FB24D1F582E4349D
:101B500010F583E0FF900C4BE0FEEFC39E500302B4
:101B60001C1A74D12BF582E43410F583E4F0AF0F26
:101B7000AE0EAD0DAC0C12053DE50B5FF50BE50AA5
:101B80005EF50AE5095DF509E5085CF50874372B93
:101B9000F582E43410F583E4F022900C46E024D181
:101BA000F582E43410F583E014F022900C46E02432
:101BB00037F582E43410F583E4F0FFFEFDFCAB0B57
:101BC000AA0AA909A808C31205607008900C46E08B
:101BD000FF129B66E51014FF900C46E06F703B907F
:101BE000122FE0C395104032E4900C4AF0900C4A5A
:101BF000E0FFC39510501B74372FF582E43410F5C5
:101C000083E06006900C497401F0900C4AE004F007
:101C100080DB900C49E07002C21622900042E41270
:101C200003F3900CB5E0FBA3E0FAA3E0900CC0F93D
:101C3000E0FEA3E0F5828E8312020FFF900CB2E06B
:101C4000FBA3E0FAA3E0F9229000FC75F01DED1271
:101C500006CFEC75F01DA42583F58322E4F0A3F0F4
:101C6000A3F0A3F0A3F0A3F0A3F0A3F0A3F0A3F0DC
:101C700022900CA2E0FEA3E0FF7C007D1D1202700A
:101C8000900CB974062FF974013EFA7B01E4F0A3BD
:101C900022900CA2E0FEA3E0FF7C007D1D120270EA
:101CA000900CB974092FF974013EFA7B01E4F0A39A
:101CB000227D1D120270900CB974FB2FF974003E46
:101CC000FA7B01E4F0A3227D1D120270900CB9741E
:101CD000FF2FF974003EFA7B01E4F0A3227D1D1270
:101CE0000270900CB974032FF974013EFA7B01E481
:101CF000F0A322900CA2E0FEA3E0FF7C007D1D1269
:101D0000027074352FF97401900CB93EFA7B01E42E
:101D1000F0A322900ECAE47B017A017918F0A32285
:101D2000900CA2E0FEA3E0FF7C007D1D0202707B10
:101D3000017A017943E4F0A3227B017A017960E41E
:101D4000F0A3227B017A01793DE4F0A3227B017AA2
:101D500001795AE4F0A322E47B017A017945F0A3EA
:101D600022E0F9A3E0FAA3E0900CAEC9F0A3EAF0F8
:101D7000A3E9F02290000112020FFF900028E48FE7
:101D8000F01203F390000212020FFF90002AE48F7A
:101D9000F01203F390000312020FFF90002CE48F67
:101DA000F01203F390000412020F90002EFFE48F54
:101DB000F00203F3E47B017A017962F0A322EFF0F1
:101DC000AF037C007D64AE021202827F0A7E00CFE8
:101DD000CDCFCECCCE020282E47B017A0079FBF03B
:101DE000A322900010E475F0011203F3900CACE410
:101DF000F0A304F0900CA4E0FCA3E0FD7F017E00C2
:101E000022E47B017A0079FFF0A322E47A017906CB
:101E10007B01F0A37403F022E0FBA3E0FAA3E04A05
:101E20004B22E47B017A01791CF0A322E47B017A46
:101E3000017923F0A322E47B017A017909F0A3223E
:101E4000900CB8E0FEA3E0900CBCFFE0FCA3E0FD2A
:101E500022E47B017A017926F0A322E47B017A0156
:101E60007903F0A32275F00AA42DFFE5F03CFE12E1
:101E7000020F7C002FFFEC3E9000158FF01203F351
:101E8000900044120364640145F022E47B017A016E
:101E90007920F0A322900CA2E0FEA3E0FF64014EA3
:101EA00022EEF0A3EFF0E4A3F0A3F0EF4E22120233
:101EB0000FFF7E007C037DE8120270AC06AD0722A6
:101EC0007C002FFFEC3EFEF0A3EFF022CFF0A3EF5B
:101ED000F07B017A0C795522FF12020FFD12CF0917
:101EE000AE07900C9E22EEF0A3EFF0900CA4E0FE63
:101EF000A3E0FF229400CF2401FBE43FFAE0FEA31D
:101F0000E0FF7C00227B01900ECAE4F0A322FFE0F8
:101F1000FD12CE33900C9E2212020FFFAD0612CEA0
:101F200033900C9E2275F00AA42DFFE5F03CFE755F
:101F3000F01DEB1206CFEA2290000E020364900C13
:101F4000BCE0FEA3E0FFC32212020F75F064A42DD3
:101F5000FDEC35F0FC22900CB9E024FFFE900CB8AB
:101F6000E0900CBC34FFF0A3CEF022900CC4E0FE55
:101F7000A3E0FFED6F22900005EF12024E900006E5
:101F800002020F7B01900CB9F0A37404F0229000C0
:101F900002EF12024E90000302020F900008EF12AF
:101FA000024E90000902020F900C43E0F9A3E0FA00
:101FB000A3E022E0FEA3E0FFF5828E8302020FE0A1
:101FC000FCA3E0F5828C83EF02024EFFE0FD12CF0E
:101FD00009900CCE22FFE0FCA3E0FDC39FEC227C25
:101FE000002FFFEC3EFEF0A3EFF02290001712034B
:101FF00064FFC3900CADE09F900CACE095F0228D97
:10200000828C8312020FFF22E4F0A3F0A3F022EFF0
:10201000F090000702020F7D0A120282AF05AE04A3
:10202000AD03AC02020282F090000802020FF090B1
:10203000000502020FFB75F01D1206CFEA22900088
:1020400010E475F0011203F3900CADE004F022905F
:10205000001202020F900013020364A3ECF0A3ED40
:10206000F0227C277D100202827403F07F37FE226B
:102070007404F07FA67E03227404F07F327E032274
:102080007404F07F427E03227402F07F3F7E0322BD
:102090007402F07F4F7E0322FC7D1D0202709000CF
:1020A00015020364900C46E0FFA3E0900CA2CFF071
:1020B000A3EFF0227D017BFF7E000201D0900003A0
:1020C000EF12024E90000412020FFF22900CBDE0AE
:1020D00024FFF0900CBCE034FFF022900001EF12DE
:1020E000024E90000202020FF090000A02020F90CE
:1020F0000017120364FF900CB0E065F022FFE0FDD2
:1021000012CF09900C9E22E4F0A3F0A3F0227403F6
:10211000F07F4BFE227403F07F47FE22900CA2FF5B
:10212000E0FCA3E0FD2275F064A42BFFE5F03AFE8D
:10213000A3E022900010E4F5F022E0FBA3E0FAA374
:10214000E0227C007D0A020282740CF07F737E0321
:1021500022740CF07F857E03227404F07FA07E033E
:1021600022EFF090000C02020F900CB2E0FCA3E012
:1021700022A3F0A37401F0A322FF900CB1E5F0F0CC
:10218000A3EFF02274FF2DF58274FF3CF58322F556
:102190008274FF3EF58302020F900CC0E0FCA3E0C6
:1021A000FDEF6D2224FFF58274FF35F0F583227B6D
:1021B00001900CB9F0A37403F022A3F0A3F0900CEB
:1021C000B9227B01900CB9E4F0A304F022F0900056
:1021D0000B02020FEF12024E7F0122F58374FFF013
:1021E0000F22FFAEF0C39410EE942722900E6412DB
:1021F00033B3E4900E721232DFA312067A000000AD
:1022000000900E7B12067A00000000E4900E7FF032
:10221000A3F012356D60141232CCEA494B6009A369
:102220001232CFEA494B70037F0122900E651232C1
:10223000CFEA494B700BA3E07002A3E060037F017B
:1022400022E4FD7F0212CE7B7D017F0312C9FB7D5C
:10225000017F0312C9857DFF7F0912CE7BE4FD7FDC
:102260000912CE7B7D077F0A12CE7BE4FD7F0A1226
:10227000CE7B901126E0700A7D2612276D12C9854B
:102280008020901126E0640170047D12800E901170
:1022900026E0640270047D0880027D0412276D121E
:1022A000C9FB900E6AE0FD7C00C3940874809480A2
:1022B000500E900E71E0FEC3940874809480400329
:1022C0007F0122ED4C7003EE601A122740900E6AD7
:1022D00012357412C9FB900E71E05407FD7F221273
:1022E000C9FB8003122740900E64E0FF640760285A
:1022F000EF64086023EF6409601EEF640A6019EF61
:10230000640F6014EF6411600FEF6410600AEF64F3
:10231000036005EF640270097D017F1D12C9FB8017
:1023200027900E64E0FF64016007EF6004640470AE
:10233000107D017F1D12C9857D027F1D12C9858018
:102340000E7D017F1D12C9857D027F1D12C9FB9084
:102350000E64E0FF6405601CEF64066017EF64071D
:1023600070028010900E64E0FF64046007EF600468
:10237000640170107D017F1A12C9857D017F2112D1
:10238000C985800E7D017F1A12C9FB7D017F211254
:10239000C9FB900E64E0FF64076005EF64087006F7
:1023A0007D787C058036900E64E0FF64056005EF63
:1023B000640670067D607C098022900E64E06409EA
:1023C00070087DBC7CE57F048014900E64E0FF649F
:1023D0000B6005EF640C700A7DF87C52E4FFFE028E
:1023E0002480900E64E0FF640F600FEF6411600AB8
:1023F000EF640D6005EF640E700D90113FE0FF1269
:10240000357E1233358079900E64E0FF60136404EA
:10241000600FEF6401600AEF64036005EF6402700F
:102420000A74FFFDFC7F037E008055900E64E0641B
:10243000107050123427901127E0FF3395E0FEFD15
:10244000FC120420C004C005C006C0077F0E123471
:102450002CD007D006D005D004C312056050077FEA
:102460000E12357E8017123427901127E0FF339526
:10247000E0EF7F00C454F0FE3395E0FDFC123335ED
:1024800012BC60900E64E0FF64016007EF600464BA
:1024900004707B12355B6030123462123588E0784C
:1024A00003CEC313CE13D8F92401FFE43EFE12334A
:1024B000A6503F12353B503A900E651232CF12278C
:1024C0000A70D812347E80D3123462123588E078D4
:1024D00003CEC313CE13D8F91233A5501512353BD2
:1024E0005010900E651232CF12270A70DE12347E21
:1024F00080D912355B600612357412CE7B900E685F
:10250000E0FFA3E0900E72CFF0A3EFF0802F900ECB
:1025100064E0640F700A901129E0FD7F0612CE7B03
:1025200012346212339E501512353B5010900E65D6
:102530001232CF12271E70EB12347E80E612274F24
:1025400012356D70047D0280027D037F0212CE7B06
:102550001235881235099E507612273230E5F190F7
:102560000E72E0FEA3E0FFC3900E69E09FFF900EA5
:1025700068E09EFED3EF941EEE94004038E4900E87
:1025800074F0900E74E0C3941E74809480503B905D
:102590000E651232CF900E72E475F001120323859E
:1025A000F082F58312020FFD7F0612CE7B900E742F
:1025B000E004F080CD12339E5010900E651232CFA1
:1025C00012271E70F012347E80EB12274F8081128A
:1025D000354312273220E316D39010E2E0940F9097
:1025E00010E1E0940040EBE4F0A3F07F0A22122710
:1025F0005E12356D7002FF2212354312273920E238
:102600000F12273920E60912277730E0EE7F0422E7
:10261000900E6E1232CFE4F5F01203D41227772019
:10262000E2527F0712CB0DEF30E6F1123462900ECA
:102630006E1232CF12351640037F0722C3EC94018D
:102640007F06500B12CB0D1232BD12358F80031254
:10265000CB0D900E6E1232CF1234E4700312347E22
:10266000C3900E73E09420900E72E0940040BF126D
:10267000275E80A87F0412CB0D900E76EFF07F26A8
:1026800012CB0D9010DFEFF0123462900E761235FF
:102690000994005034900E6E1232CF12351640035A
:1026A0007F0722C3EC94017F06500B12CB0D123230
:1026B000BD12358F800312CB0D900E6E1232CF12E9
:1026C00034E4700312347E80C2900E64E0FF601325
:1026D0006404600FEF6401600AEF64036005EF6457
:1026E000027007E4900E7FF0800A7F0D12CB0D90F0
:1026F0000E7FEFF0900E7FE020E70920E20620E158
:102700000330E0037F05227F00228D828C8312023A
:102710000FFD7F0612CE7B900E73E004F0228D82B7
:102720008C8312020FFD7F0612CE7B900E73E004A5
:10273000F0227F0712CB0DEF227F0712CB0DEF2285
:102740007D387F1912C9857D077F2212C985227DB8
:10275000207F0912C9FB7D207F0912C985227D4097
:102760007F0912C9FB7D407F0912C985227F1B1298
:10277000CE7B7D207F63227F0712CB0DEF22900D51
:10278000471233B6A3ECF0A3EDF0E4900D52F0A3A2
:10279000F078547C0D7D017AD0791D12337678540F
:1027A0007C0E7AD1791D7F0212330378567C0E7A23
:1027B000D1791F7F011233EA900E571232D81232AC
:1027C000DE900D471232CFEA494B6014900D4C1247
:1027D00032CFEA494B6009A31232CFEA494B70036A
:1027E0007F01229010F0E025E0240CF582E4341102
:1027F000F583E0FEA3E0FF900E57EEF0A3EFF0D3D9
:102800009400EE94014009900E577401F0A3E4F097
:10281000900D4F1232CFE4F5F01203D4900E5CE02D
:10282000F9FFC3900D4BE09FFF900D4AE09400FE2E
:10283000900E57E0FCA3E0FD24FDFBEC34FFFAD33F
:10284000EF9BEE9A400DED24FDA3F0901129741238
:10285000F08011900D4AA3E0C399900E59F09011A9
:10286000297402F0901129E0123526EF4E901129BB
:10287000F0E4900E61F01233F3900E62F0900D4789
:102880001232CF900E5CE0FF7E00E92FF9EE3AFAAB
:10289000C003900E59E0FF900E68EEF0A3EF1232E5
:1028A0009DD0037F0F022ABB900E63E0FD7C006485
:1028B0000A70037F0A22ED64044C7066900E5FE09C
:1028C00004F0900E62E0602A900E5E1232FA40032D
:1028D0007F0422900E5F1232FA40037F0422900E92
:1028E000601232FA40037F052212328C1234CA027F
:1028F0002ABB900E5E1232FA40037F0422900E5FD4
:102900001232FA40037F0422900E601232FA400322
:102910007F05229010E0E044B21232921234CA02D3
:102920002ABB900E63E064057066900E60E004F0D0
:10293000900E62E0602A900E5E1232FA40037F042D
:1029400022900E5F1232FA40037F0422900E601232
:1029500032FA40037F052212328C1234CA022ABB9B
:10296000900E5E1232FA40037F0422900E5F123204
:10297000FA40037F0422900E601232FA40037F0572
:10298000229010E0E044B21232921234CA022ABB02
:10299000900D54E0FEC41313540324FE7003022A66
:1029A000C9147003022B2E24036003022BAD900E7A
:1029B0005AE0FCA3E0FD2402FBE43CFAD3EB9400D4
:1029C000EA940140037F0622EE20E508900D54E0D2
:1029D000FE20E1037F0622EE20E308900D54E0FE86
:1029E00030E2037F06221235236F60037F062290B8
:1029F0001129E05410C37001D340037F0622EE6416
:102A0000019010E0F0ED24FFFFEC34FFFE900D4F3D
:102A10001232CFEE8FF012039C900D52E4F0A3041B
:102A2000F0900E5AE0FEA3E0FF900D521233A95031
:102A30004774542DF582740D3CF583E0FF900D4CE6
:102A40001232CF900E5DE0FD7C00E92DF9EC3AFAF0
:102A5000900D53E024FFFD900D52E034FFFCE92D72
:102A6000F9EA3CFAEF12023C900D53E004F070B129
:102A7000900D52E004F080A9900E5AA3E014FF904C
:102A80000E5DE02FF0900D54E030E43A1233F390F5
:102A90000E6204F0900E5E1232FA40037F04229020
:102AA0000E5F1232FA40037F0422900E601232FA57
:102AB00040037F052212328C1234CA1221EC900E90
:102AC00063EFF00228A87F0022900D54E030E50368
:102AD00020E1037F0622900D54E020E30330E2035F
:102AE0007F0622900D54E0FE30E4037F0622900E14
:102AF00062E060037F06221235236F6011900E6141
:102B0000E004F01232FB50030228767F0622901177
:102B100029E0541070037F0622EE64019010E0F06B
:102B2000900E59E0FF900E5CE02FF002281C900DF3
:102B300054E0FE30E0037F0622EE20E208900D54C0
:102B4000E0FE30E3037F0622EE30E10A900D54E010
:102B50005430643060037F0622900D55E0543FFFEF
:102B6000901127F03395E0FEC3EF9401EE6480945A
:102B700080400BD3EF943BEE6480948040037F064B
:102B800022900E5474F2F0901127E0900E551234FA
:102B900038740212329D7A0E79547F101221EC9013
:102BA0000E63EFF0900E5EE004F00228A87F06228C
:102BB000900CB2EB121D6CE4900CBA121C69900CD4
:102BC000B8E0FCA3E0FD900CBEECF0A3EDF0121C0D
:102BD0003C12205525E0FBE5F033FAED24FAFFEC3A
:102BE00034FFFE7C007D0512028290DBAF75F0C8D9
:102BF000ED1206CFEC75F0C8A42583F583E5822B92
:102C0000F582E5833AF583E493FE740193FBAA060B
:102C10007C007D64FF120282900CC0EEF0A3121DB6
:102C2000BEA3EEF0A3EFF0AE02AF031221421220DA
:102C30005BE4121C68900CB8E0FCA3E0FD24F5FEF8
:102C4000EC34FF900CCAF0A3CEF0900CB2121E1818
:102C50007002FF22121C3C122055FFAEF0D39400EC
:102C6000EE94004008EF9464EE940040037F00224D
:102C7000900CBE121F419406EE94004009D3EF94CD
:102C80000CEE940040037F0022C002C001900CB5FE
:102C9000121FAB900CD1121D6B12205BD001D00221
:102CA000128A6C900CCA121F41EE9400405BD3EF65
:102CB0009402EE94005052900CC1E09F900CC0E042
:102CC0009E500CA3E0240AF0900CC0E03400F0D336
:102CD000900CC3E09F900CC2E09E500CA3E0240A2D
:102CE000F0900CC2E03400F0900CCAE0FEA3E0FFCC
:102CF000D3900CC5E09F900CC4E09E500CA3E02440
:102D00000AF0900CC4E03400F0900CBCE4F0A30492
:102D1000F0121E40D39FEC9E5035900CC0121F6ED7
:102D20007002EC6E6019A3121F6E7002EC6E600FE1
:102D3000A3121F6E7002EC6E600512205B80109073
:102D40000CBDE004F070CA900CBCE004F080C2E45A
:102D5000900CBCF0A3F0121E40C39FEC9E50269036
:102D60000CB5121C3F121FFF900CBBE02FF0900C13
:102D7000BAE03400F0900CBDE004F070D9900CBCC7
:102D8000E004F080D1121C3C12204F640660030264
:102D90002E71900CCCF0A3F0121F56121F3EEE9431
:102DA0000040361221997002EE6C6028A3121E4377
:102DB0006F7002EC6E601D121F6B7002EC6E60147F
:102DC000A3121F6E7002EC6E600A900CCCECF0A3A4
:102DD000EDF080051220CC80C2121C3C121D741232
:102DE000202F900030121DAD75F005121C1B9000B5
:102DF000281203646F7002E5F06003022F31900C1B
:102E0000B512213A900CC2121C2F90002A120364B2
:102E10006F7002E5F06003022F31900CB5121C3F79
:102E2000900CC4121C3090002C1203646F7002E5E9
:102E3000F06003022F31900CB5121C3F900CC612AB
:102E40001C3090002E1203646F7002E5F0600302E4
:102E50002F31900CB5121C3F900CCC121C309000FE
:102E6000301203646F7002E5F06003022F31022F0D
:102E700014121C3C12204F64076003022F1C121F07
:102E800056121F3EEE940040271221997002EE6CFC
:102E90006019A3121E436F7002EC6E600E121F6B5E
:102EA0007002EC6E600512205B80051220CC80D190
:102EB000121C3C121D7475F004121C1B9000281289
:102EC00003646F7002E5F07068900CB5121C3F90BF
:102ED0000CC2121C3090002A1203646F7002E5F0DD
:102EE000704F900CB5121C3F900CC4121C30900017
:102EF0002C1203646F7002E5F07036900CB5121C52
:102F00003F900CC6121C3090002E120364B50721AE
:102F1000E4B5F01D90004475F0018012121C3C9045
:102F20000042E4F5F01203F3900044E4F5F01203DC
:102F3000F3121C3C121E807F0070027F012290055C
:102F40005CE0FF14F0EFC39401748094802290063B
:102F50003BE0FF3395E0FEEF4E22E490055FF090FA
:102F600005307407F0E49001F4F09005F47407F074
:102F7000227404900560F0E49011A4F0740C901198
:102F8000A3F09011A57401F022740E900575F090D5
:102F9000057474802290118FE0FFA3E0FEC39F228E
:102FA0009005307407F09005F4F0E49001F4F022FD
:102FB00074932FF582E43411F58374FFF022FF241B
:102FC000FCF58274FF3EF583ECF0A3EDF074FE2F68
:102FD000F58274FF3EF5837401F074FF2FF582745F
:102FE000FF3EF5832290082274FFF5F012030DFCDA
:102FF000C3E5F09401EC9400229000F7E0FF7E001E
:10300000D394007480948022E4F090055F7423F0E0
:103010009000F5E4F0A37480F02290055D740CF04C
:10302000900468E090055EF090055C7480F022905A
:103030001187E0640A229000EFE0FF3395E0FE2262
:10304000900573E024FFFF900572E034FFFE2290AC
:103050000C2BE0FFC3940C7480948022901190E0BC
:1030600004F0229005627402F0A37480F090056B66
:10307000E0640122F09000C8E4F0A3F0A3F02290F5
:10308000081DF0900822E4F0A37440F022E49000C0
:10309000CCF0A37429F0A374A4229000CBC3E094D5
:1030A000057480948022901187E06401229011873A
:1030B000E0640222FF24FCF58274FF3EF58374FF76
:1030C000F0A3F074FE2FF58274FF3EF583E42290A6
:1030D000056274FFF5F0120323FEC3E5F09401EEE0
:1030E000940022901187E0FDC3940A74809480229A
:1030F00004F0E490118EF02290118EE0FF7E0064C7
:103100000222F0A37401F07BFF7AE379B8229005E4
:10311000607413F0A322900511F09005137440F031
:10312000E422E0C3940474809480227E0090055AC7
:10313000EEF0A3EFF024FFFFEE34FFFE22900575C2
:10314000740EF0A3740CF0E422F0A37403F0A374E3
:1031500080F07D347F482290118AE0FCA3E0FD904E
:103160000572ECF0A3EDF022E004F090055AE0FCCB
:10317000A3E0FDAE04780222900574E014F02290E2
:103180000C2BE004F02290081DE0FF7E002290113D
:1031900087E0FF7E00640B2290055F7415F0E490D9
:1031A0000560F090056B229000F8E0640122900524
:1031B000307407F0227403F0E4900467F090118EED
:1031C000F022900575E0640122900000F0A3F02247
:1031D0009005EEE0640122E014F0900572E0FEA399
:1031E000E0780222A3740EF09005F074262290116C
:1031F000A3E0FF900C2BE0FEC39F22901187E064B8
:103200000322E024FFF09000F5E034FFF022900567
:10321000757402F0E490063CF022901193EDF0906A
:103220000C2B7401F0229005627402F0A37480F0FC
:1032300022F09006627411F022F090019D74FFF06C
:103240002290055FF07F0122F0E49005EEF0227BF2
:10325000017A1179932290057BE064012290053276
:10326000E4F0A374F0F0227B037D037F0322E4905B
:1032700000EDF0A3F0A3F022F090063F7402F07B83
:10328000FF22E4900C2AF0900C29F0229010E0E04C
:1032900044A2900E56F0900E68E4F0A304F0E4A36C
:1032A000F07B01A304F0A3740DF0A37454F0A3EB1E
:1032B000F0A3740EF0A3745AF0E4A3F022900E6E03
:1032C000E0FBA3E0FAA3E0F9120339FD900E6BE0F6
:1032D000FBA3E0FAA3E0F922E4F0A3F0A3F0A3F04B
:1032E000A3F0A3F0A3F0A3F0227D017BFF7E017F7A
:1032F000000201D0900C36E004F0E0D39402748018
:103300009480227D017BFF7E000201D07D017BFF46
:103310007E007F030201D07D017BFFFE7F02020160
:10332000D0F0900E68E4F07405A3F0E4A3F07B0104
:10333000A304F0A322120420EF24B0FFEE3424FEF5
:10334000ED3404FDE43CFCE47BFF7AFFF9F8120461
:10335000ABEF24FFFFEE34FFFEED34FFFDEC34FF56
:10336000FC900E7712066E900E77A3A3E0FEA3E00A
:10337000FF74FFFDFC227BFF7E01FF0201D07D0177
:103380007BFF7E007F1E0201D0900000EFF0FD7CED
:1033900000640A22FF7D017BFFFE0F0201D0900E28
:1033A00068E0FEA3E0FF900E72E0FCA3E0FDC39F87
:1033B000EC9E22EFF0A3EBF0A3EAF0A3E9F022F5F4
:1033C00083E0FE74452FF582E4340CF583EEF09033
:1033D0000C3FE004F022900D4C7401F0A37400F057
:1033E0007400A3F0A37401F0A3227D017BFF7E0093
:1033F0000201D0900E5EE4F0A3F0A3F022900C390D
:10340000E0FFD3900C3BE09F900C3AE094002290B8
:103410000C39E0243FF582E4340CF583E0FE227D94
:10342000017BFFFE0201D090113FE0FF12CBD0A83C
:1034300004A905AA06AB0722F0900E68E4F0A322C7
:10344000A3F0A3EBF0A322900C37E0FD7C00640115
:1034500022900C37E0FD7C00640622E4F0A3F0A388
:10346000F022E4900E72F0A3F022900C3FE0C3949F
:10347000057480948022E0C4540FFF540F22900EF4
:1034800072E004F022A3F0A3EBF0A322F583EEF0A8
:10349000900C39E004F0227D017BFFFE0201D0E0B8
:1034A000FFC394047480948022135401FFEF02023E
:1034B0003CF583E0FE743B2FF582E43411F583EE96
:1034C000F022900C31EFF0640A227A0E79567F11C7
:1034D00022E4F0A3F0A3F022E0FF7E00D394037473
:1034E00080948022E475F00112039C900E73E00436
:1034F000F022900C36E0243EF582E4340CF5832271
:103500007F647E007D007C0022E0FFC3900E73E0AC
:103510009F900E72E022120339FDACF0D39400ECC0
:10352000940122EE5401FF9010E0E0FE2290113F42
:103530007404F022A3F0A3EBF0A322C3ED943DECBE
:10354000940022E49010E1F0A3F022D3940C748054
:10355000948022EF540F90113FF022900E69E054B6
:1035600007900E80F02290112BE0640222900E64EE
:10357000E0640A22E033333354F8FD7F192212CB82
:10358000D0E4FB7A10F9F822900E68E0FEA3228DB9
:103590008285F083EF02024E7400F0A37400F07B8A
:1035A0000122E4F0A3F0A3F022900C67EDF0900C60
:1035B00064EB125953900C69EB125953900C64123E
:1035C00058FE12513E900C6CEFF0900C691258FEB0
:1035D0007F0512384DC004C005C006C007900C69B5
:1035E0001258FE7F0012384DD003D002D001D00017
:1035F000125907C004C005C006C007900C691258D4
:10360000FE7F09123857D003D002D001D0001259E2
:1036100007C004C005C006C007900C691258FE7FA1
:103620000A123857D003D002D001D000125907C077
:1036300004C005C006C007900C691258FE7F0C122A
:103640003861D003D002D001D000125907C004C0A5
:1036500005C006C007900C691258FE7F0E12386133
:10366000D003D002D001D000125907C004C005C059
:1036700006C007900C691258FE7F0F12386BD003FA
:10368000D002D001D000125907C004C005C006C046
:1036900007900C691258FE7F1112386BD003D002CC
:1036A000D001D000125907C004C005C006C0079061
:1036B0000C691258FE7F13123875D003D002D00166
:1036C000D000125907C004C005C006C007900C699D
:1036D0001258FE7F18123875D003D002D001D000E6
:1036E000125907C004C005C006C007900C691258E3
:1036F000FE7F1912599B12AE69D003D002D001D0BF
:1037000000125907C004C005C006C007900C69121A
:1037100058FE7F1B12599B12AE69D003D002D00114
:10372000D000125907C004C005C006C007900C693C
:103730001258FE7F1D12599B12AE69D003D002D0E1
:1037400001D000125907C004C005C006C007900C84
:10375000691258FE7F2312599B12AE69D003D00222
:10376000D001D000125907C004C005C006C00790A0
:103770000C691258FE7F2712599B12AE69D003D0F4
:1037800002D001D000125907C004C005C006C0070E
:10379000900C691258FE7F2912599B12AE69D00312
:1037A000D002D001D000125907C004C005C006C025
:1037B00007900C691258FE7F2A12599B12AE69D0ED
:1037C00003D002D001D000125907C004C005C006C2
:1037D000C007900C691258FE7F2B12599B12AE69DC
:1037E000D003D002D001D000125907900C6D120600
:1037F0006E900C6D125929FB900C68E06007900CDC
:103800006CE0FF80027F00900C67E0FDED6FFFEB46
:103810006FFFEAFEE9FDE8FC900C6D12066E900C5D
:10382000641258FE7F0112599B12983E900C64124C
:1038300058FE900C6D1258D9FF900C7812066E7FCE
:103840002F12599B128E80900C6CE0FF227E007D1F
:10385000007C0012AE69227E007D007C0012AE6901
:10386000227E007D007C0012AE69227E007D007CFD
:103870000012AE69227E007D007C0012AE69227AC1
:10388000017935121F057404F07FAD7E0312B86410
:10389000900135E0F4600FA3E0F4600AA3E0F46067
:1038A00005A3E0F47017E4900135121C69900CB97F
:1038B000121DD97404F07FAD7E03125DD6121D1364
:1038C0007404F07FB47E0312B864900152E0F46097
:1038D0000FA3E0F4600AA3E0F46005A3E0F4701520
:1038E000E4900152121C697A017952121F837FB44D
:1038F0007E03125DD67A017939121F057404F07FB8
:10390000527E0312B864900139E0F4600FA3E0F432
:10391000600AA3E0F46005A3E0F47015E4900139B7
:10392000121C697A017939121F837F527E03125D5E
:10393000D67B017A017956121F077404F07F627EEC
:103940000312B864900156E0F4600FA3E0F4600A3B
:10395000A3E0F46005A3E0F47017E4900156121C94
:10396000697B017A017956121F857F627E03125DA1
:10397000D67B017A017940121F077403F07F5BFE4A
:1039800012B864900140E0F4600AA3E0F46005A37B
:10399000E0F470139001401220087A01794012215E
:1039A000AF7F5BFE125DD67B017A01795D121F0746
:1039B0007403F07F6BFE12B86490015DE0F4600A5E
:1039C000A3E0F46005A3E0F4701390015D122008F9
:1039D0007A01795D1221AF7F6BFE125DD6900ECA1F
:1039E000121D2F7402F07F5F7E0312B864900143B2
:1039F000E0F46005A3E0F47010900CB9121D2F7470
:103A000002F07F5F7E03125DD6900ECA121D3974DC
:103A100002F07F6F7E0312B864900160E0F46005ED
:103A2000A3E0F47010900CB9121D397402F07F6F8E
:103A30007E03125DD6900ECA121D4312206912B881
:103A40006490013DE0F4600AA3E0F46005A3E0F4B3
:103A5000700F900CB9121D437403F07F57FE125D76
:103A6000D6900ECA121D4D7403F07F67FE12B86423
:103A700090015AE0F4600AA3E0F46005A3E0F4705A
:103A80000F900CB9121D4D7403F07F67FE125DD6C6
:103A9000900ECA121D5712214912B864900145E0D8
:103AA000F46037A3E0F46032A3E0F4602DA3E0F407
:103AB0006028A3E0F46023A3E0F4601EA3E0F460B8
:103AC00019A3E0F46014A3E0F4600FA3E0F4600A2B
:103AD000A3E0F46005A3E0F47012900145121C5CB1
:103AE0001221BA121D58122149125DD6900ECA1227
:103AF0001DB412215112B864900162E0F46037A342
:103B0000E0F46032A3E0F4602DA3E0F46028A3E0C9
:103B1000F46023A3E0F4601EA3E0F46019A3E0F4D2
:103B20006014A3E0F4600FA3E0F4600AA3E0F46083
:103B300005A3E0F47013E4900162121C5D1221BA37
:103B4000121DB5122151125DD62212B5ED900C2C2A
:103B500012066E12B9E0600712B9F7A312066EC31F
:103B600090052BE0942090052AE0940050037FFFFD
:103B700022301B0A12B9E07002C21B7FFF2212B969
:103B8000F71270EA20C207E4901207F08006901244
:103B90000774FFF012B9C7700990120CE0700302AD
:103BA0003C8E9011FC12B9CA700B90120CE06401AB
:103BB0007003023C9D9011FD12B9CA700B90120C5B
:103BC000E064027003023CAD9011FE12B9CA700BA2
:103BD00090120CE064037003023CBE9011FF12B916
:103BE000CA700B90120CE064047003023CCF901278
:103BF0000012B9CA700B90120CE064057003023C0D
:103C0000E090120112B9CA700B90120CE0640670B9
:103C100003023CF090120212B9CA700B90120CE031
:103C200064077003023D0090120312B9CA700B9032
:103C3000120CE064087003023D1090120412B9CA1D
:103C4000700B90120CE064097003023D2090120585
:103C500012B9CA700B90120CE0640B7003023D3075
:103C600090120612B9CA700B90120CE0640A70032D
:103C7000023D4090120712B9CA700E90120CE06417
:103C80000D700690120F023D5312B9C770079012C3
:103C90000FF0023D5B9011FC12B9CA700890120F30
:103CA00004F0023D5B9011FD12B9CA700990120F29
:103CB0007402F0023D5B9011FE12B9CA70099012B5
:103CC0000F7403F0023D5B9011FF12B9CA700990A6
:103CD000120F7404F0023D5B90120012B9CA700812
:103CE00090120F7405F0807390120112B9CA700817
:103CF00090120F7406F0806390120212B9CA700815
:103D000090120F7407F0805390120312B9CA700812
:103D100090120F7408F0804390120412B9CA700810
:103D200090120F7409F0803390120512B9CA70080E
:103D300090120F740BF0802390120612B9CA70080B
:103D400090120F740AF0801390120712B9CA9012E1
:103D50000F7005740DF0800374FFF090120FE0FFF8
:103D6000900661F0F47003023DEB90120CE0FD90C0
:103D7000120FE0FC6D6015EF640D900C346004ECE4
:103D8000F0800374FFF090120CEC8079D390120E47
:103D9000E094C090120DE09400500FA3E004F07086
:103DA0000690120DE004F012BA0690120DE0FEA388
:103DB000E0FFD39460EE9400402CEF94C0EE9400AA
:103DC000400EA3E0640D7008900C34741BF0800367
:103DD00012BA069011FAE004F0D3947F74809480B4
:103DE0004029E4F0802512BA06802090120CE0FFF2
:103DF000640D900C347004EFF0800374FFF09012A7
:103E00000FE090120CF0E4A3F0A3F0900C34E0FF6C
:103E100022900560E070779000D2E0701D90056BF5
:103E2000E0640270159000D5E0700F12310E740737
:103E3000F0A31230137F3E02CE5190056BE0FF7E5F
:103E400000640170129000D5E0C3940274809480E5
:103E500050028001C35018EF64024E70289000D4C5
:103E6000E0C394087480948050028001C34016120D
:103E7000310E7406F0A31230137F5812CE517F64B6
:103E80007E0002CFF590056074011230F12290059A
:103E900060E06401703F7403F0E490118E12306CA6
:103EA000700512CB3F800312CAD9900564EFF0125F
:103EB0002F77E4900C2BF012304F5008122FB012D5
:103EC000317F80F31230637B5270047D4C80027D21
:103ED0004E7F66806C900560E064036003023F687B
:103EE0009011A5E0640270739011A4D312309E402B
:103EF00053E4900C2BF0900C2BE0123054501EE049
:103F0000FF2493F582E43411F583E0FE747B2FF5F2
:103F100082E43411F583EEF012317F80D9122F71D3
:103F2000E4900C2BF012304F5008122FB012317F5A
:103F300080F31230637B5270047D4C80027D4E7F93
:103F40006802CE887403122F73E4900C2BF01230A9
:103F50004F5059122FB012317F80F39011A5E064B9
:103F60000360030240D18051900560E06404705604
:103F7000FD7F0512CD959011A51230FB7032901186
:103F8000A4E0D312309F40079005607405F0221220
:103F90002F71E4900C2BF0900C2BE0FD123054505C
:103FA0000B74932D122FB312317F80EB1232262225
:103FB000EF64034E60030240D112310E740CF0A383
:103FC000E4F0A304F022900560E064056003024081
:103FD000577B01900C2F04F0A37411F0A37493F09D
:103FE0007A11797B127C2EEF3395E04F70581232A4
:103FF0004F1278F7EF703F12324F900564E0FD12D8
:104000009D3DEF3395E0FEEFF47002EEF4600302A5
:1040100040D19005607412F09005621230137D3229
:104020007F4412CDC712306D70059000D58003908B
:1040300000D4E004F02212310E7404F0A312301305
:104040007D527F56800E12310E7409F0A312301388
:104050007D347F4402CDC7900560E06412701B126E
:1040600030CF506D9000D2E0706412306D705F9070
:1040700000D5E06401705702CE5F900560E06413E4
:10408000704F1230CF504A900561E0FF7E00640C03
:10409000700E9000D2E070089000D5E070028011A0
:1040A0009000D2E0700F12306D700A9000D5E07071
:1040B00004122F5B22EF64064E600E900561E0FF54
:1040C000640C6005EF6407700512306D800012CF3C
:1040D0009C22900C2BEEF0A3EFF0900467E070159B
:1040E000741E129046A37401F0E4A3F0A374FFF0D1
:1040F0007F6C024264900467E0641E7005741F02C6
:10410000428A900467E0641F703F129033702B90D6
:1041100005F0E0700890046774200242AA9005F050
:10412000E0FF6403600AEF64026005EF64F9700762
:10413000900467741EF022024206128FFC64809481
:1041400080400302435602434C900467E0642070B1
:1041500010742112903D900464E0FF12BA0D0243E6
:104160001D900467E06421600302421B12903360DB
:104170000302420C9005F0E07052900464E0FF7E70
:104180000064017020900466E0FD3395E0FCED4C86
:104190007013900464E004F09004677424F09004B9
:1041A0006674FF8020C3EF9408EE648094809004CE
:1041B000675010129044A3E004F012435712CFF559
:1041C0000242AB7417F01290A60242AB9005F0E0E9
:1041D000FF64066005EF6403702C900465E0C394EF
:1041E0000374809480900467500E12904412C76547
:1041F00012435712CFF580077429F0A3740BF09087
:104200000465E004F02290046702433B128FFC64D3
:10421000809480400302435602434C900467E0645C
:1042200024700F742512903D7B32FAFDFC7F010251
:10423000AF39900467E06425704612903370329075
:1042400005F0E0FF7E00700B9004677429F0A37402
:104250000AF022EF64094E90046770121290441223
:10426000C7657F6E12CE517F967E0002CFF5024366
:104270003B128FFC64809480400302435602434CFF
:10428000900467E064227008742312903D02CB888A
:10429000900467E06423702B12903370179005F040
:1042A000E0640290046760067422F002C765741E21
:1042B00012904622128FFC64809480400302435681
:1042C00002434C900467E06417700A741812903D22
:1042D00012CA6D8048900467E0FF7E006418702267
:1042E000129033700F9005F0E09004677004741919
:1042F000F022804790046212909764809480505618
:10430000804AEF64194E7019900467741A12903D38
:10431000900C2BE0FCA3E0FD7F0112B4E21290A60A
:1043200022900467E0641A702D1290337015900586
:10433000F0E090046770047428F0227429F0A374EC
:104340000BF022128FFC64809480500A90046774F2
:1043500029F0A37401F0227F6E12CE517F967E0069
:1043600022900C9EEB121D6C900CA8121C5C900C01
:104370009E121E187002FF22900C9E121C3F1221EA
:10438000331203F3C002C001900CA1121FAB900CBA
:10439000B5121D6B900CA6E0FFA3E0900CB8CFF017
:1043A000A3EFF0D001D002122BB0EF7002FF2290E9
:1043B0000C9E121C3F12204F24F960690460030216
:1043C00045BE900006121EAE900007121F48122034
:1043D00028900009121E6560030245CA121EEB12E6
:1043E000A721900CA8EEF0A3EFF0900C9E121C3FBA
:1043F00012209E1221E240030245CA900CA8121F0F
:10440000D69E5002800FBC2716BD0F13C3EF940B2E
:10441000EE9400500A900010E475F0010245C712B6
:1044200021330245C7900C9E121C3F121F7D75F070
:104430000AA4FDACF012202F75F064A42DFFE5F066
:104440003CFE1220117C002FFFEC3E9000178FF0F5
:104450001203F3900008121EAE900009121F4812BA
:1044600020E990000B121E6560030245CA121EEB84
:1044700012A81A900CAA121EE612A911900CAC12E6
:104480001EE612ABDB900CB0121EE612B12F900CA0
:10449000AEEEF0A3EFF0900C9E121C3F12209E1285
:1044A00021E240030245CA900CAAE0FCA3E0FDC350
:1044B000940FEC94275073C3ED9FEC9E500302457C
:1044C00074900C9E121C3F12209EFF900CAAE06577
:1044D000F07003A3E06F70461220EF7003A3E06F4B
:1044E0006003024574900C9E121C3F122055FF90F1
:1044F0000CAEE065F07003A3E06F6006121DE212DF
:104500008CED900C9E121C3F121FEB40030245CA1B
:1045100012203E7006900CACE004F00245AC900C0A
:104520009E121C3F1221330245C7900CAAE064275B
:104530007004A3E0640F60030245CA900C9E121C35
:104540003F12209EC3940BE5F094005006121DE22A
:10455000128CED900C9E121C3F12209EFF900CAA14
:10456000E065F07003A3E06F70601220EF7003A3AA
:10457000E06F6005121DE28040900C9E121C3F12FD
:104580002055FF900CAEE065F07003A3E06F60066D
:10459000121DE2128CED900C9E121C3F121FEB506C
:1045A0002912203E7006900CACE004F0900CACE0B8
:1045B000FEA3E0900CA412211F128CED800C900C35
:1045C0009E121C3F1221331203F3900C9E121C3FCB
:1045D000900010121E837F0070027F0122900C9EBB
:1045E000EB121D6CA3EDF0900C9E121E18700302CE
:1045F000484DA3E0640660030246A9900C9EA3A365
:10460000E0F9121F7D12211C9000FB75F01D121C99
:104610004F12200FFF121C48EF122027FF9000FDC1
:10462000121C4BEFF0121FA2FF9000FE121C4BEF6A
:10463000F09000FB121C4BE0FF900135121C4BEF79
:10464000F0121C48E0FF900136121C4BEFF0900076
:10465000FD121C4BE0FF900137121C4BEFF0900055
:10466000FE121C4BE0FF900138121C4BEFF0ED4C9A
:10467000701A900CA2121EFD121CB1122159125D6B
:10468000D6121CF37404F07FAD024848121E9560E8
:104690000302484DFC121CB1122070125DD6121C90
:1046A000F37404F07FB4024848900CA1E064076002
:1046B0000302484D900C9E121C3F12202812211C10
:1046C0009000FF75F01D121C4FEFF0121FA2FF901B
:1046D0000100121C4BEF1220E8FF900101121C4B4D
:1046E000EF1221CDFF900102121C4BEF12202EFF82
:1046F000900106121C4BEFF0121F7DFF9001071274
:104700001C4B12200FFF900108121C4BEFF01201FE
:10471000F6FF900109121C4B122161FE90010A1252
:104720001C4BEE122027FE900139121C4BEEF012AA
:104730001FA2FE90013A121C4BEE1220E8FE9001DF
:104740003B121C4BEE1221CDFE90013C121C4BEE95
:1047500012202EFE900140121C4BEEF0121F7DFE27
:10476000900141121C4BEE122010FE900142121CCF
:104770004BEEF0900143121C4B122161FF9001445B
:10478000121C4BEFF0ED4C7062900CA2121EFD1249
:104790001CC7122078125DD6121C717403F07F3B87
:1047A000FE125DD6121C91122088125DD6121D20B9
:1047B00074392FF97401121D087404F07F527E03BE
:1047C000125DD6121D2074402FF97401121D087459
:1047D00003F07F5BFE125DD6121D2074432FF97427
:1047E00001121D087402F07F5F805D121E95705DDE
:1047F000FC121CC7122080125DD6121C7112210EF1
:10480000125DD6121C91122090125DD6121D2074DA
:10481000392FF97401121D087404F07F627E0312AF
:104820005DD6121D2074402FF97401121D08740307
:10483000F07F6BFE125DD6121D2074432FF97401B8
:10484000121D087402F07F6F7E03125DD622900065
:10485000CC122F51700B90055F7426F07F0412A4C8
:104860009C9005FEE070067420F012B1F29005F401
:10487000E0640470679000ED74FFF09005FCA3E025
:104880009000F3F012C7651230759000F8E07004E4
:104890007F0180231231A76003024919123036BE0E
:1048A000FF07BFFF047F06800E9000EE123039BE76
:1048B000FF0ABFFF077F0412CBA0805D9000F7E0E6
:1048C0007005124A9F8052122FF9404DEF6401701B
:1048D00003122F6A9000F7E014F0803D9005F4E099
:1048E00064057035124AAB700A7F0812CBA012C75C
:1048F000658026E49000EDF09000F104F09000F364
:104900001230087F4012CE519000C912312250055A
:10491000E004F0800412308DF01260E79001F4E0C2
:10492000642870629000EE74FFF09001EFA3E00441
:104930009000F21230749000F8E070047F038070F1
:104940001231A760030249DB9000ED123039BEFF3F
:1049500007BFFF047F048058123036BEFF07BFFF39
:10496000047F05804B9000F7E07005124A9F806B32
:10497000122FF94066EF640170049001F4F090008A
:10498000F7E014F080559001F4E06429704DA3E045
:10499000642B70089000FA7402F08005E49000FA2D
:1049A000F0124AAB700F9000FAE0640260077F08D3
:1049B00012CBA08026E49000EEF09000F17403F09A
:1049C000E4A31230097F4012CE519000C812312268
:1049D0005005E004F0800412308DF0127349900508
:1049E00030E0640A70599000EF74FFF090053EE0EB
:1049F0009000F41230749000F8E060089000F0E04D
:104A0000640170047F02804B1231A76003024A9E4A
:104A10009000ED123039BEFF07BFFF047F068033E0
:104A20009000EE123039BEFF07BFFF047F058023E0
:104A30007F7A12CE511231AE9000F77480F022903E
:104A40000530E0640B703612C947EF3395E04F70C4
:104A5000057F0802CBA0E49000EFF09000F1740213
:104A6000F09000F41230087F4012CE519000CA122C
:104A700031225004E004F02212308DF022900530F3
:104A8000E0FF7E00640C700D90047BF0A3F09005B5
:104A90005F7425F022EF640D4E700312CD72227FF9
:104AA0007A12CE519000F77480F02212C947EF338A
:104AB00095E04F22E4900C3AF0A312067A00000031
:104AC00000900C3F12067A00000000E4900C43F0C6
:104AD000A3F0300303024BDF12CFEC5003024BD1A3
:104AE00012C476900C3B12066EE4900C39F0900CD8
:104AF00039E0C395105039900C3B127FE2780112D7
:104B00000571900C3B12066E30D720127FB6C000A4
:104B1000C001900C39127FA5E0F9F8120598D00178
:104B2000D000127FEE900C3AE004F012802D80BE8F
:104B3000900C3AE0FF7E00C3940274809480401889
:104B4000D216EF940374809480400512CFEF800852
:104B500012CF35EF6002C216201623E4FFFEFDFCE3
:104B6000127FB6C312056060109010B7E004F070B9
:104B7000069010B6E004F0801D1280198018901085
:104B8000A6E004F070069010A5E004F0900C3F122F
:104B9000067A0000000012CEAED39010B7E09F90CE
:104BA00010B6E09E400612CFEF128019D39010A6E7
:104BB000E0942C9010A5E094015003024D0112CF17
:104BC000EF9010DD7401F0E49010A5F0A3F0024D19
:104BD0000190E4C6E4740193FF125A83024D012050
:104BE0000403024CCB127FB6C000C0019010DE124D
:104BF0007FA5E0F9F8120598D001D000127FEE12DF
:104C00007F43128034900C43F0A3EFF09010DEE06D
:104C1000FF12CF5DAD07AC06ED7802CEA2E713CE52
:104C200013D8F8FFC3ED9FFFEC9EFED3900C44E039
:104C30009FEE6480F8900C43E06480985058E490B4
:104C4000105BF0A3F090101EE004F09405748094C3
:104C5000804010E4F0C203C204900C3F12067A00B8
:104C6000000000E4900C39F0900C39E0FFC395107F
:104C70004003024D01125C36200316900C39E0FF10
:104C80009010DEE06F600A900C39E0127F531280C2
:104C90000012802D80D2E490101EF012CEAE901043
:104CA0005BE475F00112030DFCD3E5F09FEC9E4030
:104CB0005012CFEFE490105BF0A3F0C203C2049057
:104CC0000C3F12067A000000008036785406E6D3C6
:104CD0009405748094804004E4F6C203E4900C3997
:104CE000F0900C39E0FFC395105016125C3620038B
:104CF0000B900C39E0FF127F5312800012802D8040
:104D0000E0900C3F127FE222900C24EB125953A347
:104D10001258FE12593FC004C005C006C007120356
:104D2000397818125947D003D002D001D000125957
:104D30005BC004C005C006C007900C271258FE12C5
:104D4000597AD003D002D001D00012595BC004C000
:104D500005C006C007900C271258FE125A1DD0033A
:104D6000D002D001D000900C2A1259AA900C241223
:104D700058FE12599912822A900C2F12066E900C2E
:104D80002E7403F0900C2A1258D9FFA3125A001265
:104D90000571E4AD07900C61F0900C241258FE12DE
:104DA000AF9EEF1259C3900C271258FE125A3DFFC6
:104DB000E5F0FCED6F1259C38F82F583EC8DF01294
:104DC00003F3E92FF9EA3EFAC003C002C001125909
:104DD000B6C007C006900C241258FE12513E780847
:104DE000120598D0E06EFED0E06FFFD001D002D067
:104DF00003EE8FF01203D4900C2E125A655085905A
:104E00000C2F1258D97818125A441258FEE412592D
:104E1000A2E92408F9E43AFAC003C002C001125919
:104E2000B6C007C006900C271258FE900008124F1B
:104E300026D0E04CFFD0E0D001D002D0031259BD03
:104E4000900C2F1258D97810125A441258FE900024
:104E50000A1259F5240AF9E43AFAC003C002C00163
:104E60001259B6C007C006900C271258FE90000ACF
:104E7000124F26D0E04CFFD0E0D001D002D0031278
:104E800059BD900C2F1258D9FF7808125A45125864
:104E9000FE90000C1259F5240CF9E43AFAC003C054
:104EA00002C0011259B6C007C006900C271258FE66
:104EB00090000C124F30D0E04CFFD0E0D001D00277
:104EC000D0031259BD900C2F125A6F900C27125814
:104ED000FE90000E1259F5240EF9E43AFAC003C010
:104EE00002C0011259B6C007C006900C271258FE26
:104EF00090000E124F30D0E04CFFD0E0D001D00235
:104F0000D0031259BD900C27125A4C2408F9E43AE8
:104F1000FAEB125950A312067A00000004900C24F8
:104F20001258FE02C58D120364FF12BE9DEFFC22D3
:104F3000120364FF12BE9DEFFC227D017F04124F1D
:104F4000440D7F04EFF582758300C3748094804024
:104F500024D3E5829405748094805019EDF582C3C2
:104F600074809480400FE58294087480948050058A
:104F70007582018003900000E5826401458360032F
:104F800002513DEF1460641470030250301470033A
:104F90000250751470030250BA1470030250FC24BE
:104FA00005600302513DEB14601D14602D24026066
:104FB0000302513DA8057401088002C333D8FCFFE9
:104FC000429AEFF4529B22A8057401088002C33371
:104FD000D8FCFFF4529AEF429B22A8057401088086
:104FE00002C333D8FCF4529A529B22EB14601D1476
:104FF000602D2402600302513DA80574010880025F
:10500000C333D8FCFF4291EFF4529222A8057401F9
:10501000088002C333D8FCFFF45291EF429222A8D9
:10502000057401088002C333D8FCF45291529222D5
:10503000EB14601D14602D2402600302513DA8058D
:105040007401088002C333D8FCFF42A1EFF452A2DE
:1050500022A8057401088002C333D8FCFFF452A1D2
:10506000EF42A222A8057401088002C333D8FCF4E1
:1050700052A152A222EB14601D14602D2402600381
:1050800002513DA8057401088002C333D8FCFF42D9
:10509000B1EFF452B222A8057401088002C333D8DC
:1050A000FCFFF452B1EF42B222A80574010880025D
:1050B000C333D8FCF452B152B222EB14601A14601C
:1050C0002A24027078A8057401088002C333D8FC32
:1050D000FF42C1EFF452C222A8057401088002C346
:1050E00033D8FCFFF452C1EF42C222A80574010874
:1050F0008002C333D8FCF452C152C222EB14601AAE
:1051000014602A24027036A8057401088002C33393
:10511000D8FCFF42D9EFF452DA22A80574010880C6
:1051200002C333D8FCFFF452D9EF42DA22A8057447
:1051300001088002C333D8FCF452D952DA22900C11
:1051400071EB125953A312067A00000002900C78FA
:1051500012067A000000001258D62407125934C0F3
:1051600004C005C006C0071258D624091258C62428
:105170000B900C871258C9240D125934125A08D0BA
:1051800007D006D005D004128F40A9079011AB12AA
:1051900058D912598B12591FFBC000C001C002C060
:1051A00003900C711258FEA31258D9240F125934CF
:1051B000C004C005C006C0071258D624111258C634
:1051C0002413125934900C871258D32415125934D1
:1051D000125A08D007D006D005D00412532C12580A
:1051E000D912598BFC7801120598D003D002D00156
:1051F000D000125914FBC000C001C002C003900CC3
:10520000711258FEA31258D92417125934C004C081
:1052100005C006C0071258D624191258C6241B12FE
:105220005934900C871258D3241D125934125A083D
:10523000D007D006D005D00412532C1258D91259D9
:105240008BFC7802120598D003D002D001D0001256
:105250005914FBC000C001C002C003900C71125869
:10526000FEA31258D9241F125934C004C005C00629
:10527000C0071258D624211258C62423125934903C
:105280000C871258D32425125934125A08D007D04B
:1052900006D005D004128F40A9079011AB1258D93F
:1052A00012598BFC7803120598D003D002D001D09C
:1052B00000125914FBC000C001C002C003900C7161
:1052C0001258FEA31258D92427125934C004C0051D
:1052D000C006C0071258D624291258C6242B1259CA
:1052E00034900C871258D3242D125934125A08D0F6
:1052F00007D006D005D004128F40A9079011A7123D
:1053000058D912598BFC7804120598D003D002D0DA
:1053100001D000900C78125A0E900C78A3A3A3E051
:10532000F99011AF1258D912598BFC22128F40A953
:10533000079011A722900455E060030253C190002A
:10534000D2E070439000D5E0703D90055F7415F099
:1053500090056074031230F190056404F090056BC1
:10536000122F76E4900C2BF0900C2B123052500B35
:10537000122FB0900C2BE004F080ED1232267B52FD
:105380007D4C7F6602CE88122F779005307409F02D
:1053900012325DE4900C2BF09011A3E0FF900C2BE7
:1053A000E0FEC39F500E74932E122FB3900C2BE08F
:1053B00004F080E49004557401122FA97F5A02CEA4
:1053C00051900455E0640160030254CD7D107F06C6
:1053D00012CD959011A5E06402704B9004557403B2
:1053E000F012324F1278F790045EEFF0600FC39422
:1053F000037480948050069004557402F01231AE0C
:10540000900455E0640370157F4012CE5190045D06
:105410007480F012309A501FE004F0801A7D327FC1
:105420005A12CDC780119011A5E064037009900451
:10543000557404F01231AE1260E79001F4E0642874
:105440007029C39001F0E0940A9001EFE0940050BD
:105450001A9004557402122FA97D327F5A12CDC7BB
:105460009001F37401F07F030255179001F4E0FFFF
:1054700064296022EF6428600302551A9001F0E06D
:105480002401FF9001EFE03400FED3EF940AEE9484
:1054900000500302551A9001F5E0642B90045F70F0
:1054A000057402F080037401F0E49001F4F09004BC
:1054B000557403F090045D7480F07F4012CE517FEC
:1054C0000212A49C12309A5051E004F0229004552C
:1054D000E06402700912CE5FE49000CBF0229004E9
:1054E00055E06403701E90045DE014F0122F4650E6
:1054F0002912309A4006E4A3123091F0122FA01224
:1055000032418013900455E06404700E7F6012CE27
:1055100051122FA012324112A49C22900ECA121DC9
:10552000D812215912B8649000FBE0F4600FA3E098
:10553000F4600AA3E0F46005A3E0F47017E49000BF
:10554000FB121C697B017A0079FB121F857FA07E0C
:1055500003125DD6121D1312207012B86490011848
:10556000E0F4600FA3E0F4600AA3E0F46005A3E0B8
:10557000F47013E4900118121C69900CB9121D17F5
:10558000122070125DD6900ECA121E0112207812DF
:10559000B8649000FFE0F4600FA3E0F4600AA3E0B9
:1055A000F46005A3E0F47013E49000FF121C69900E
:1055B0000CB9121E02122078125DD6900ECA121E6D
:1055C0002212208012B86490011CE0F4600FA3E066
:1055D000F4600AA3E0F46005A3E0F47013E4900122
:1055E0001C121C69900CB9121E23122080125DD669
:1055F000900ECA121E0B7F3BFE12B864900106E0AB
:10560000F4600AA3E0F46005A3E0F47012900106D0
:10561000122107900CB9121E0C7F3BFE125DD69032
:105620000ECA121E2C12210E12B864900123E0F44F
:10563000600AA3E0F46005A3E0F470129001231265
:105640002107900CB9121E2D12210E125DD6900E5C
:10565000CA121E3612208812B864900109E0F46064
:1056600005A3E0F47010E49001091221BB121E376B
:10567000122088125DD6900ECA121E51122090126E
:10568000B864900126E0F46005A3E0F47010E490A3
:1056900001261221BB121E52122090125DD6900ECE
:1056A000CA121E5B12206912B864900103E0F46014
:1056B0000AA3E0F46005A3E0F47011E4900103F0A4
:1056C0001221BA121E5C122069125DD6900ECA1207
:1056D0001E8B12211512B864900120E0F4600AA319
:1056E000E0F46005A3E0F47011E4900120F01221D1
:1056F000BA121E8C122115125DD602387F4CFC9016
:105700000000E0FBA3E0FAA3E0F922EFF0A3EBF046
:10571000A3EAF0A3E9F022EF4CFFEDCFF0A3EFF006
:10572000900000E0FCA3E0FDA3E0FEA3E022900CCB
:10573000367401F0A37411F0A37443F022E47F02E5
:10574000FEFDFC900000E0F8A3E0F9A3E0FAA3E07E
:1057500022A3F0A3E4F07414A3F0A37401F0227D5B
:10576000017BFF7F147E001201D0E422900E68F0CE
:10577000EFA3F0E4A3F07B01A304F0A322900000C8
:10578000E075F008A422900000E075F009A422ED75
:1057900025E0FFEC33FE74432FF58274113EF58350
:1057A00022A3F07B017A11796C22A3F0A37427F075
:1057B0007410A3F0A37401F022FB120420900000E7
:1057C000E0FBA3E0FAA3E02FF9EA3EFAEB3DFB127F
:1057D0000339FFE5F022F09000007401F0A3227479
:1057E00000F07400A3F0A3EBF0A322EF4BFFEE4A0E
:1057F000FEED49FDEC48FC22900000E09000002402
:1058000002FFE03400FE22EFFD3395E0FCED64047E
:105810004C22A3F07B017A11794322EFFD3395E00E
:105820004D22FFE4FCFDFE020598E0FFE4FCFD02D2
:105830000598FF900000E0FCA3E0FDC322A3F0A3C5
:105840007413F0A37488F0E4A3F022FD12C415EFE2
:10585000C422EF4BFFEAFEE9FDE8FC02066EFF7C86
:10586000007D090202829000007401F0A3229000E2
:1058700000E025E0FF900000E022A3F0A3E4F0A305
:1058800004F0A3F0A322A3F0E4A3F0A3F0A304F098
:10589000A3227400F0A37400F0E4A3F022FFEE5AF8
:1058A000FEEF5B4E7F0022EF4CFFEDCFF0A3EFF059
:1058B00022900E68E4F0A322A3F0A3EBF0A32290C1
:1058C000000004F0A322900C83FFE43EFEE43DFDC3
:1058D000E43CFC12066E900C74E0FCA3E0FDA3E037
:1058E000FEA3E022E47F02FEFDFC900C59E0F8A349
:1058F000E0F9A3E0FAA3E0FB120420900C4EE0FBD9
:10590000A3E0FAA3E0F922EF6BFFEE6AFEED69FD7A
:10591000EC68FC22EB4FFFEA4EFEE94DFDE84CFC43
:10592000900C7812066E900C78E0F8A3E0F9A3E0F2
:10593000FAA3E022FFE43EFEE43DFDE43CFC2290BD
:1059400000021203647810FF7E00E4FCFD0205985B
:10595000900C36F0A3EAF0A3E9F022EF4BFFEE4AF9
:10596000FEED49FDEC48FC22900C8FEB4FFFEA4E18
:10597000FEE94DFDE84CFC02066E90000412036443
:105980007808FF7E00E4FCFD020598FFA8011205DF
:1059900071EF5401FFE4FEFD227F407E007D007C1C
:1059A00000229000088FF00203F3EF4BFFEAFEE9BC
:1059B000FDE8FC02066E120339FFAEF022CF8FF035
:1059C0000203D4FD900C2EE0FF3395E0FEC3740378
:1059D0009FFFE49EFEEF25E0FFEE33FE22FFE4FA98
:1059E000F9F8EF2401FFEA3EFEE93DFDE83CFC90BA
:1059F0000C5902066EE48FF01203F3E922900C4674
:105A0000E075F008A4F9F822900C8B02066EEB4FBB
:105A1000FFEA4EFEE94DFDE84CFC02066E900006E2
:105A2000120364FF22EF4BFFEAFEE9FDE8FC0206E9
:105A30006E6FFFEA6EFEE96DFDE86CFC228F828ED0
:105A400083020364FF120571900C2722E0FBA3E0A0
:105A5000FAA3E022FF7E00E4FCFD7818020598908E
:105A60000C3E02066EE014F0E0C36480948022E0F5
:105A7000FCA3E0FDA3A3E0FF22E4900C41F0FFFEB5
:105A8000FDFC22900C45EFF090122DE0C3940374BE
:105A90008094804048E4F09010DDE07035900C4632
:105AA000F0900C46E0C395105028E0FF75F002A47A
:105AB00024B9F582E5F03410F583E0FCA3E0FDEFB6
:105AC00025E02424F8A60408A605900C46E004F07E
:105AD00080CF12AED2C217E49010DDF022901227D0
:105AE000E004F0900C45E0FF901227E0B5070812A3
:105AF000C37CE4901228F0900C45E0FF901227E060
:105B0000D39F5003025C35E4900C46F0900C46E0C5
:105B1000C395104003025BE1E0FF75F002A424B9D5
:105B2000F582E5F03410F583E0FCA3E0FD75F002AA
:105B3000EFA4241FF582E5F03410F583E0FEA3E026
:105B4000C39DFFEE9CAD07FC9010DDE0704290100D
:105B5000B8E0FB3395E0FAFEEB7802C333CE33CEE8
:105B6000D8F9FFD3ED9FEE6480F8EC648098406034
:105B7000E49BFFE49AFEEF7802C333CE33CED8F92C
:105B8000FFC3ED9FEE6480F8EC6480985042805132
:105B90009010B8E0FB3395E0FAFEEB7803C333CE08
:105BA00033CED8F9FFD3ED9FEE6480F8EC64809893
:105BB000401EE49BFFE49AFEEF7803C333CE33CE5E
:105BC000D8F9FFC3ED9FEE6480F8EC648098401133
:105BD000900C46E0FF125C36900C46E004F0025B4D
:105BE0000C900C46E0B51006901228E004F0900CE2
:105BF00045E0FD75F008A4FF901227E0C39FE5F093
:105C00006480F8748098402DE4F0C21690122DE064
:105C100004F0ED75F004A4FF901228E0C39FE5F0B6
:105C20006480F8748098400DE490122DF012C5E65F
:105C300012AED2C21722900C47EFF0F9E0FF75F0D8
:105C400002A424B9F582E5F03410F583E0FCA3E06A
:105C5000FD75F002EFA4241FF582E5F03410F58302
:105C6000E0FEA3E0C39DFFEE9C900C48F0A3EFF094
:105C7000AF0112CF5DAD07AC06900C48E0FEA3E08B
:105C8000FFD39DEC6480F8EE6480985014C3E49DCB
:105C9000FBE49CFAC3EF9BEA6480F8EE64809850C2
:105CA0002F900C47E0FF75F002A4241FF582E5F069
:105CB0003410F583E0FCA3E0FD75F002EFA424B9F5
:105CC000F582E5F03410F583ECF0A3EDF0025DA968
:105CD000ECA2E713FEED13FF900C48E0FAA3E0FB03
:105CE000D39FEE6480F8EA648098501CECA2E7131E
:105CF000FEED13FFC3E49FFFE49EFEC3EB9FEE6443
:105D000080F8EA648098503E900C47E0FD75F00200
:105D1000A424B9F582E5F03410F583E0FAA3E0FBA2
:105D2000EAC313FEEB13FFC3EB9FFBEA9EFA75F089
:105D300002EDA4241FF582E5F03410F583E0C313CF
:105D4000FEA3E0138047900C47E0FD75F002A42409
:105D5000B9F582E5F03410F583E0FAA3E0FBAE027A
:105D60007803CEC313CE13D8F9FFC3EB9FFBEA9E93
:105D7000FA75F002EDA4241FF582E5F03410F583E6
:105D8000E0FEA3E07803CEC313CE13D8F92BFFEACD
:105D90003EFE900C47E075F002A424B9F582E5F0D0
:105DA0003410F583EEF0A3EFF0900C47E0FF75F0B0
:105DB00002A424B9F582E5F03410F583E0FCA3E0F9
:105DC000FD75F002EFA4241FF582E5F03410F58391
:105DD000ECF0A3EDF022900CB4129F4B78BB7C0C3E
:105DE0007D017BFF7AE079BE7E027F001201D01236
:105DF0009F67900EC1F0A3F0900CB4E0FFA3E09079
:105E00000EC3CFF0A3EFF0900EC1E0FEA3E0FF9031
:105E10000CB9E0FCA3E0FDD39FEC9E40EA900EC3DA
:105E2000E05401FEA3E0FF900EBDEEF0A3EFF09072
:105E30000EC2E02400FB900EC1E03402CBC39FFFF2
:105E4000EB9EFED3ED9FEC9E4074129F6F4E60065A
:105E5000129F07125F57129F5A129F6FC3E49FFF52
:105E60007402129F82501E129F237006900EBFE094
:105E700004F0129F78900EBCE004F07006900EBB08
:105E8000E004F080D4125F29900ECA129F1612BE51
:105E90001D129F6FC3E49FFF74029EFE900EC2E02E
:105EA0002FF0900EC1E03EF0900EC4E02FF0900E67
:105EB000C3E03EF07F057E0012CA35025E07129FE6
:105EC0006FC3129F07125F57129F5A900EC1E0FED8
:105ED000A3E0FFC3900CBAE09FFF900CB9E0129FC3
:105EE00082501E129F237006900EBFE004F0129F96
:105EF00078900EBCE004F07006900EBBE004F080D9
:105F0000CA125F297B017A0C79BB900ECA129F1CC2
:105F100012BE1D900CB9E0FFA3E0900EC1CFF0A31C
:105F2000EFF07F057E0002CA35900EBDE0FEA3E0D3
:105F3000FFC3900EC4E09FFF900EC3E09EFE12B719
