:030000000275E6A0
:03000B0002962F2B
:03001300029C014B
:03001B00028E4111
:0300330002A781A0
:03004B000296EF2B
:03005B000297E128
:03006B00029940B7
:03007B000290F2FE
:0300830002905494
:03008B00029EC70B
:10010000900525E060030207B51227D0900C0DEF93
:10011000F0F46003129F2D900565E01219850170BF
:1001200000026101029F02030F0503570603A80B9B
:10013000045E0C04730D047E0E04A40F04BD1004B1
:10014000C81204E21304EF14051915055E160571B3
:1001500017059B1A06EA1C05C71D05FF1F07A227E6
:10016000061228074E2C06732D07382E000007B5FF
:10017000900C0DE0FF7E00640D602BEF641B700E91
:10018000900565741AF09005147403F08018EF64FC
:100190000C4E7012129F70900528E4F0A37496F034
:1001A0009005657420F0900532E0FF64086003025A
:1001B0000238121BAA5032EF640860030207B590A0
:1001C0000C2A04F07410121A11121D15121CD250B0
:1001D0000E74192E121A2A900838E004F080ED905F
:1001E00005327409F07F01804C121AB170217F0131
:1001F000129C609001BD121AE6BEFF06BFFF03E429
:10020000F022E490052AF0A3F090052F04F022904C
:100210000C0DE0640B60030207B59001BD1219D408
:100220007F017011129C60900565741FF0E49004CA
:100230003A121D5522029C60900C0DE0FFF47003F1
:100240000207B5EF640C70030207B5121D56900546
:1002500032E0640A60030207B57F01129C60020667
:100260000A121B8A70030204B7121B917003020565
:1002700095121CDF7003020513121DA870030205FE
:10028000F9121AB160030207B512087D121A357F00
:100290006012A5E9120875E4900565F0029F2D90A3
:1002A0000C0DE0FF6401600AEF64026005EF640377
:1002B0007004E412087D121B8A700E1207B6E490D7
:1002C0000563F0900565020399121B91700F1207E8
:1002D000B6E4900563F0900565740CF022121CDF03
:1002E000700D1207C3121D43900565740EF02212A3
:1002F0001DA870101207C3900565740DF090057E5F
:100300007411F022121AB160030207B502045812E8
:100310001B8A700F1207D09005657412F0E49001EB
:1003200091F022121B9170101207D0900565741481
:10033000F0900518740BF022121CDF700F1207DD0D
:100340009005657413F09001C5020495121AB1600E
:10035000030207B5020458121B8A70091207DD1246
:100360001CA504F022121B9170091207EA121CA5A9
:10037000020734121CDF70101207EA90056574172B
:10038000F09006717410F022121DA870101207F779
:100390009005657416F0900580740FF022121AB162
:1003A00060030207B5020458E4900839F0E0240124
:1003B000121B2EB5070EECB5060A1207F79005655D
:1003C000741D8018900839E02402121B2EB5071006
:1003D000ECB5060C120804900565742DF0E4803E1F
:1003E000900839E02403121B2EB50714ECB5061053
:1003F0001208049005657428F0E49005FDF0801E55
:10040000900839E02404121B2EB5071CECB5061821
:10041000120811900565741CF0E490064BF0900CE6
:1004200016F0900C150205B9900839E02405121B4E
:100430002EB5071CECB50618120811900565741A44
:10044000F0E4900514F0900C16F0900C15020734AF
:10045000121AB160030207B512081E02A7659005C3
:1004600063E06401700312086C121AB160030207A2
:10047000B58044121CC460030207B50205699006EA
:100480006EE0640960030207B5121BFA700B900658
:100490006FF090066E740AF022EF640A4E60030259
:1004A00007B58013900563E06401700312086C12B5
:1004B0001AB160030207B512081E02A76C121CC411
:1004C00060030207B5020569900191E064017008BC
:1004D000900C0DE0FF127F21121AB160030207B5E4
:1004E00080319001C5E0640160030207B5807A9015
:1004F0000518E0640C60030207B5121BFA700B903C
:100500000519F0900518740DF022EF640A4E60038F
:100510000207B512082B02A61F900566E064017061
:100520000A900C0DE0FF127F21801A900566E064AE
:100530000470028008900566E064057008900C0D58
:10054000E0FF127CEA9000D2E070099000D5E070E4
:10055000030207B5121AB160030207B58037900590
:1005600080E0640160030207B5900C0DE0FF027F9C
:1005700021900671E0641160030207B5121BFA7046
:100580000B900672F09006717412F022EF640A4E1E
:1005900060030207B512082B02A7A5900514E064BA
:1005A0000160030207B5900C0DE0640B700F120898
:1005B00038E4900515F09005147403F022121AB176
:1005C00060030207B58032121B8A700D7AAF79C3BF
:1005D000120845E49001D08011121B9170137AAF7C
:1005E00079C61208459001D074FFF0129D190206D9
:1005F000E7121AB160030207B51208380206E79045
:10060000043AE0640160030207B5900C0DE0FF02BC
:10061000079F9005FDE0640160030207B5121B8A85
:10062000701390011AF09005FD7402F07BFF7AAF11
:1006300079ED020704121B91702890011A04F090C2
:1006400005FD04F0129528EF3395E04F70087F7A8E
:1006500012A5E90207AE7BFF7AAF79F01293870209
:1006600007AE121AB160030207B51208529005FDD9
:10067000020734121B8A701A90011B121AE6BEFF81
:1006800008BFFF05E4F012A16F7AAF79DB12085FB3
:100690008055121B91704590011B1219D47034744F
:1006A000FFF0E490051BF0A3F090051FF0A3F012FB
:1006B0009CBEEF2412FEE43390051DF0A3CEF09013
:1006C0000521E4F0A37408F09005257402F0E4908D
:1006D0000524F07AAF79DE12085F800B121AB16040
:1006E000030207B512085202A62C90064BE06401E3
:1006F00060030207B5121B8A701090064C121DAFE2
:100700007AB079021293870207AE121B9170129091
:10071000064C74FF121DAF7AB07905129387020759
:10072000AE121AB160030207B57F01129C60120875
:100730007590064B7402F022900C0DE0FF640B6084
:1007400005EF640A706F121A35900565F022900566
:1007500032E0FF64087038121BAA502FEF64087053
:1007600054900C2A04F0900C297410121A14121DC3
:1007700015121CD2500E74192E121A2A900838E045
:1007800004F080ED9005327409F022121AB1229023
:100790000C0DE0FFF4601E900532E0640A70160252
:1007A0007CEA900C0DE0F4600C7F3012A5E97F64C8
:1007B0007E0012A7D0227F01129C607F647E00120F
:1007C000A7D0227F01129C607F647E0012A7D022F6
:1007D0007F01129C607F647E0012A7D0227F0112ED
:1007E0009C607F647E0012A7D0227F01129C607FF4
:1007F000647E0012A7D0227F01129C607F647E007D
:1008000012A7D0227F01129C607F647E0012A7D0C5
:10081000227F01129C607F647E0012A7D0227F019C
:10082000129C607F647E0012A7D0227F01129C6020
:100830007F647E0012A7D0227F01129C607F647EBD
:100840000012A7D0227BFF1293877F647E0012A73D
:10085000D0227F01129C607F647E0012A7D0227B91
:10086000FF1293877F647E0012A7D022900C0DE0C8
:10087000FF127F21227F647E0012A7D0229001D830
:10088000F07F01127E9622900854EFF0E490085C0D
:10089000F0900854E0FF25E02424F8E6FC08E6FD8B
:1008A00075F002EFA424FDF582E5F0340AF583E04B
:1008B000FEA3E0C39DFFEE9C900855F0A3EFF0E48B
:1008C0007F01FEFDFC900854E0F9F81218F48F0F38
:1008D0008E0E8D0D8C0CAF0112A72690085AEEF0EB
:1008E000A3EFF0C3900856E09FEE6480F89008559F
:1008F000E064809840089008577401F08005E49007
:100900000857F0900857E064016003020B03900859
:1009100054E0FF2417F582E4340BF583E0C394FA26
:1009200074809480500D74172FF582E4340BF58396
:10093000E004F0E50B550FFFE50A550EFEE50955FD
:100940000DFDE508550CFCE4FBFAF9F8C31218D0CC
:100950006003020AC9900ADFE0900859F012A7BEAE
:10096000EF6047E4900857F0A3F0900858E0FFC309
:100970009510502274172FF582E4340BF583E0C3F1
:100980009401748094804006900857E004F0900829
:1009900058E004F080D4900857E0C3940374809426
:1009A000804007900859E0240FF0900854E0241785
:1009B000F582E4340BF583E0FF900859E0FEEFC3C5
:1009C0009E5003020AC9E4900857F012A706EF6090
:1009D00003020A56900858F0900858E0FFC395109B
:1009E000502C900854E06F601D12A6A1900858E0AA
:1009F0002417F582E4340BF583E0C39F4008900888
:100A0000577401F08008900858E004F080CA12A7DB
:100A1000BEEF3395E04F6003020AA7900857E060ED
:100A200003020AA7A3F0900858E0FFC3951050777F
:100A3000900854E06F601712A6A1900858E0242493
:100A4000F582E4340BF583E0C39F400280539008A5
:100A500058E004F080D012A7BEEF3395E04F704706
:100A6000900859F0900858F0900858E0FFC395108E
:100A7000502274172FF582E4340BF583E0C39402FF
:100A8000748094804006900859E004F0900858E083
:100A900004F080D4900859E0C3940374809480409B
:100AA000069008577401F0900857E064017002D274
:100AB00014E50B450FF50BE50A450EF50AE509456A
:100AC0000DF509E508450CF508900854E0FF245A97
:100AD000F582E4340BF583E4F074BD2FF582E43441
:100AE0000BF583E4F075F002EFA42440F582E5F005
:100AF000340BF583E4F0A3F074E22FF582E4340ABA
:100B0000020E92900854E0FF12A435900855E0FCC4
:100B1000A3E0FDD39FEE6480F8EC648098401290CF
:100B20000854E02424F582E4340BF583E004F080DB
:100B300015900C8AE004F0900854E02424F582E437
:100B4000340BF583E4F0900BA2E0FF3395E0FEC395
:100B5000E49FFBE49EFAC3ED9BEA6480F8EC6480BA
:100B6000985003020C5BD3900856E09FEE6480F827
:100B7000900855E06480984003020C5B900854E0B4
:100B8000FF245AF582E4340BF583E4F074E22FF588
:100B900082E4340AF583E4F0FFFEFDFCAB0BAA0A05
:100BA000A909A808C31218D06003020D9790085530
:100BB000E0FEA3E0FF900854E075F002A42440F5A5
:100BC00082E5F0340BF583EE8FF01216F612A6755F
:100BD000900854E075F002A42440F582E5F0340B4F
:100BE000F583E0FCA3E0C39FEE6480F8EC6480989A
:100BF0004013900854E0FF25E02424F80806E61886
:100C0000704306804012A675C3E49FFFE49EFE90E9
:100C10000854E075F002A42440F582E5F0340BF5A9
:100C200083E0FCA3E0C39FEE6480F8EC648098400E
:100C300003020D97900854E0FF25E02424F808E60D
:100C4000161870011675F002EFA42440F582E5F045
:100C5000340BF583E4F0A3F0020D97900BA2E0FFB4
:100C60003395E0FEC3E49FFFE49EFEC3900856E088
:100C70009FEE6480F8900855E06480984003020D70
:100C80000D900854E0FF245AF582E4340BF583E01C
:100C900004F074E22FF582E4340AF583E4F0745A28
:100CA0002FF582E4340BF583E0FF75F00A84E5F05C
:100CB0007046C3EF946474809480900854E04014AC
:100CC000245AF582E4340BF583E4F0D215900BCA74
:100CD00004F0802425E02424F8C000E6FE08E6FFA6
:100CE000900BA2E0A2E713FD3395E0FCC3EF9DFF5C
:100CF000EE9CD000F608A607900854E0FF900C8305
:100D0000E06F6003020D9774FFF0020D97900BA245
:100D1000E0FF3395E0FED3900856E09FEE6480F844
:100D2000900855E0648098406E900854E0245AF58D
:100D300082E4340BF583E4F0FFFEFDFCAB0BAA0A62
:100D4000A909A808C31218D0704D900854E0FF24D8
:100D5000E2F582E4340AF583E004F074E22FF582D0
:100D6000E4340AF583E06420702D900854E0FF24F9
:100D7000E2F582E4340AF583E4F0900BA2E0A2E706
:100D800013A2E713FD3395E0FCEF25E02424F808D7
:100D9000ED26F618EC36F6E50B550FFFE50A550E75
:100DA000FEE509550DFDE508550C4D4E4F7003024B
:100DB0000EA890085AE0FCA3E0FDAE047802CEA293
:100DC000E713CE13D8F8FFC3ED9FFFEC9EFEC39050
:100DD0000856E09FEE6480F8900855E064809840E3
:100DE00003020E97900854E024BDF582E4340BF51D
:100DF00083E004F012A70E900859EFF0E490085831
:100E0000F0900858E0FFC39510502274172FF58218
:100E1000E4340BF583E0C394017480948040069021
:100E20000857E004F0900858E004F080D490085788
:100E3000E0C39403748094804008900ADFE0900837
:100E400059F0900854E0FB24BDF582E4340BF5839F
:100E5000E0FF900859E0FEEFC39E5003020F1774A5
:100E6000BD2BF582E4340BF583E4F0AF0FAE0EAD8D
:100E70000DAC0C1218C3E50B5FF50BE50A5EF50A25
:100E8000E5095DF509E5085CF50874172BF582E4C2
:100E9000340BF583E4F022900854E024BDF582E49D
:100EA000340BF583E014F022900854E02417F58207
:100EB000E4340BF583E4F0FFFEFDFCAB0BAA0AA9BA
:100EC00009A808C31218D07008900854E0FF1275E2
:100ED00047E51014FF900854E06F703B900C8AE0D7
:100EE000C395104032E4900858F0900858E0FFC3D2
:100EF0009510501B74172FF582E4340BF583E060D6
:100F0000069008577401F0900858E004F080DB90D8
:100F10000857E07002C21422900042E41217799040
:100F200008C2E0FBA3E0FAA3E09008CDF9E0FEA33D
:100F3000E0F5828E831215F8FF9008BFE0FBA3E076
:100F4000FAA3E0F92290011E75F01DED121979EC5B
:100F500075F01DA42583F58322E4F0A3F0A3F0A38C
:100F6000F0A3F0A3F0A3F0A3F0A3F0A3F022900865
:100F7000AFE0FEA3E0FF7C007D1D1216599008C66D
:100F800074282FF974013EFA7B01E4F0A322900843
:100F9000AFE0FEA3E0FF7C007D1D1216599008C64D
:100FA000742B2FF974013EFA7B01E4F0A3227D1D1E
:100FB0001216599008C6741D2FF974013EFA7B0170
:100FC000E4F0A3227D1D1216599008C674212FF952
:100FD00074013EFA7B01E4F0A3227D1D12165990A4
:100FE00008C674252FF974013EFA7B01E4F0A322B0
:100FF0009008AFE0FEA3E0FF7C007D1D121659743F
:10100000572FF974019008C63EFA7B01E4F0A32241
:10101000900AD7E47B017A01793AF0A3229008AFD5
:10102000E0FEA3E0FF7C007D1D0216597B017A01E2
:101030007965E4F0A3227B017A017982E4F0A322AE
:101040007B017A01795FE4F0A3227B017A01797C4C
:10105000E4F0A322E47B017A017967F0A322E0F9AE
:10106000A3E0FAA3E09008BBC9F0A3EAF0A3E9F07B
:10107000229000011215F8FF900028E48FF012175B
:10108000799000021215F8FF90002AE48FF01217F1
:10109000799000031215F8FF90002CE48FF01217DE
:1010A000799000041215F890002EFFE48FF00217DB
:1010B00079E47B017A017984F0A322EFF0AF037C1D
:1010C000007D64AE0212166B7F0A7E00CFCDCFCEBC
:1010D000CCCE02166BE47B017A01791DF0A322903D
:1010E0000010E475F0011217799008B9E4F0A30438
:1010F000F09008B1E0FCA3E0FD7F017E0022E47BDC
:10110000017A017921F0A322E47A0179287B01F0A8
:10111000A37403F022E0FBA3E0FAA3E04A4B22E42D
:101120007B017A01793EF0A322E47B017A017945C3
:10113000F0A322E47B017A01792BF0A3229008C569
:10114000E0FEA3E09008C9FFE0FCA3E0FD22E47B01
:10115000017A017948F0A322E47B017A017925F034
:10116000A32275F00AA42DFFE5F03CFE1215F87CD1
:10117000002FFFEC3E9000158FF01217799000447D
:10118000121722640145F022E47B017A017942F0D2
:10119000A3229008AFE0FEA3E0FF64014E22EEF030
:1011A000A3EFF0E4A3F0A3F0EF4E221215F8FF7EB8
:1011B000007C037DE8121659AC06AD07227C002F97
:1011C000FFEC3EFEF0A3EFF022CFF0A3EFF07B01A7
:1011D0007A08796222FF1215F8FD12A6DAAE07909E
:1011E00008AB22EEF0A3EFF09008B1E0FEA3E0FF21
:1011F000229400CF2401FBE43FFAE0FEA3E0FF7C51
:1012000000227B01900AD7E4F0A322FFE0FD12A5A3
:10121000DA9008AB221215F8FFAD0612A5DA900895
:10122000AB2275F00AA42DFFE5F03CFE75F01DEB36
:10123000121979EA2290000E0217229008C9E0FEE6
:10124000A3E0FFC3221215F875F064A42DFDEC3560
:10125000F0FC229008C6E024FFFE9008C5E090084C
:10126000C934FFF0A3CEF0229008D1E0FEA3E0FF46
:10127000ED6F22900005EF1216379000060215F868
:101280007B019008C6F0A37404F022900002EF12D4
:1012900016379000030215F8900008EF12163790E9
:1012A00000090215F8900850E0F9A3E0FAA3E02243
:1012B000E0FEA3E0FFF5828E830215F8E0FCA3E0D8
:1012C000F5828C83EF021637FFE0FD12A6DA900854
:1012D000DB22FFE0FCA3E0FDC39FEC227C002FFF9C
:1012E000EC3EFEF0A3EFF022900017121722FFC38E
:1012F0009008BAE09F9008B9E095F0228D828C8327
:101300001215F8FF22E4F0A3F0A3F022EFF0900012
:10131000070215F87D0A12166BAF05AE04AD03ACDB
:101320000202166BF09000080215F8F0900005021A
:1013300015F8FB75F01D121979EA22900010E4757A
:10134000F0011217799008BAE004F022900012021E
:1013500015F8900013021722A3ECF0A3EDF0227C05
:10136000277D1002166B7403F07F37FE227404F0A1
:101370007FA67E03227404F07F327E03227404F081
:101380007F427E03227402F07F3F7E03227402F0CC
:101390007F4F7E0322FC7D1D021659900015021717
:1013A00022900853E0FFA3E09008AFCFF0A3EFF046
:1013B000227D017BFF7E000215B9900003EF12161B
:1013C000379000041215F8FF229008CAE024FFF0BD
:1013D0009008C9E034FFF022900001EF1216379018
:1013E00000020215F8F090000A0215F8900017129A
:1013F0001722FF9008BDE065F022FFE0FD12A6DA9B
:101400009008AB22E4F0A3F0A3F0227403F07F4B2A
:10141000FE227403F07F47FE229008AFFFE0FCA39A
:10142000E0FD2275F064A42BFFE5F03AFEA3E02274
:10143000900010E4F5F022E0FBA3E0FAA3E0227CA8
:10144000007D0A02166B740CF07F737E0322740C0D
:10145000F07F857E03227404F07FA07E0322EFF0EC
:1014600090000C0215F89008BFE0FCA3E022A3F066
:10147000A37401F0A322FF9008BEE5F0F0A3EFF003
:101480002274FF2DF58274FF3CF58322F58274FFF0
:101490003EF5830215F89008CDE0FCA3E0FDEF6D6A
:1014A0002224FFF58274FF35F0F583227B0190083A
:1014B000C6F0A37403F022A3F0A3F09008C6227B29
:1014C000019008C6E4F0A304F022F090000B02158E
:1014D000F8EF1216377F0122F58374FFF00F22FF19
:1014E000AEF0C39410EE942722E709F608DFFA80E5
:1014F00046E709F208DFFA803E88828C83E709F02C
:10150000A3DFFA8032E309F608DFFA8078E309F214
:1015100008DFFA807088828C83E309F0A3DFFA8009
:101520006489828A83E0A3F608DFFA805889828A78
:1015300083E0A3F208DFFA804C80D280FA80C68074
:10154000D4806980F28033801080A680EA809A80FF
:10155000A880DA80E280CA803389828A83ECFAE448
:1015600093A3C8C582C8CCC583CCF0A3C8C582C824
:10157000CCC583CCDFE9DEE7800D89828A83E493E2
:10158000A3F608DFF9ECFAA9F0EDFB2289828A8341
:10159000ECFAE0A3C8C582C8CCC583CCF0A3C8C50B
:1015A00082C8CCC583CCDFEADEE880DB89828A830F
:1015B000E493A3F208DFF980CC88F0EF60010E4ECF
:1015C00060C388F0ED2402B4040050B9F582EB2426
:1015D00002B4040050AF232345822390153973BB16
:1015E000010689828A83E0225002E722BBFE02E3E1
:1015F0002289828A83E49322BB010CE58229F58249
:10160000E5833AF583E0225006E92582F8E622BB1D
:10161000FE06E92582F8E222E58229F582E5833A91
:10162000F583E49322BB010689828A83F02250026B
:10163000F722BBFE01F322F8BB010DE58229F582FA
:10164000E5833AF583E8F0225006E92582C8F622C0
:10165000BBFE05E92582C8F222EF8DF0A4A8F0CFE9
:101660008CF0A428CE8DF0A42EFE22BC000BBE0070
:1016700029EF8DF084FFADF022E4CCF875F008EF8F
:101680002FFFEE33FEEC33FCEE9DEC984005FCEEB4
:101690009DFE0FD5F0E9E4CEFD22EDF8F5F0EE84E5
:1016A00020D21CFEADF075F008EF2FFFED33FD40AA
:1016B00007985006D5F0F222C398FD0FD5F0EA2224
:1016C000C2D5EC30E709B2D5E4C39DFDE49CFCEE45
:1016D00030E715B2D5E4C39FFFE49EFE12166BC33C
:1016E000E49DFDE49CFC800312166B30D507C3E437
:1016F0009FFFE49EFE22C5F0F8A3E028F0C5F0F8B5
:10170000E582158270021583E038F022A3F8E0C567
:10171000F025F0F0E582158270021583E0C838F0FC
:10172000E822BB0110E58229F582E5833AF583E0E2
:10173000F5F0A3E0225009E92582F886F008E622B8
:10174000BBFE0AE92582F8E2F5F008E222E5832AE9
:10175000F583E993F5F0A3E99322BB010A89828A14
:1017600083F0E5F0A3F0225006F709A7F01922BB99
:10177000FE06F3E5F009F31922F8BB0111E5822911
:10178000F582E5833AF583E8F0E5F0A3F02250090D
:10179000E92582C8F608A6F022BBFE09E92582C821
:1017A000F2E5F008F222E88FF0A4CC8BF0A42CFC38
:1017B000E98EF0A42CFC8AF0EDA42CFCEA8EF0A4B7
:1017C000CDA8F08BF0A42DCC3825F0FDE98FF0A446
:1017D0002CCD35F0FCEB8EF0A4FEA9F0EB8FF0A43D
:1017E000CFC5F02ECD39FEE43CFCEAA42DCE35F079
:1017F000FDE43CFC2275F008758200EF2FFFEE330C
:10180000FECD33CDCC33CCC58233C5829BED9AEC73
:1018100099E58298400CF582EE9BFEED9AFDEC99DD
:10182000FC0FD5F0D6E4CEFBE4CDFAE4CCF9A882E7
:1018300022B800C1B90059BA002DEC8BF084CFCE8C
:10184000CDFCE5F0CBF97818EF2FFFEE33FEED334A
:10185000FDEC33FCEB33FB10D703994004EB99FB11
:101860000FD8E5E4F9FA227818EF2FFFEE33FEEDFA
:1018700033FDEC33FCC933C910D7059BE99A400707
:10188000EC9BFCE99AF90FD8E0E4C9FAE4CCFB221E
:1018900075F010EF2FFFEE33FEED33FDCC33CCC8E7
:1018A00033C810D7079BEC9AE899400AED9BFDECF2
:1018B0009AFCE899F80FD5F0DAE4CDFBE4CCFAE431
:1018C000C8F922CFF4CFCEF4CECDF4CDCCF4CC22D7
:1018D000EB9FF5F0EA9E42F0E99D42F0E89C45F06E
:1018E00022E8600FECC313FCED13FDEE13FEEF13C3
:1018F000FFD8F122E8600FEFC333FFEE33FEED3384
:10190000FDEC33FCD8F1227401FF3395E0FEFDFCC1
:10191000A3A3A3E0CF2FF0E582158270021583E028
:10192000CE3EF0E582158270021583E0CD3DF0E5F4
:1019300082158270021583E0CC3CF022ECF0A3ED1E
:10194000F0A3EEF0A3EFF022A8828583F0D083D03D
:101950008212195F12195F12195F12195FE473E4A2
:1019600093A3C583C5F0C583C8C582C8F0A3C5834A
:10197000C5F0C583C8C582C822A42582F582E5F0DA
:101980003583F58322D083D082F8E49370127401FA
:1019900093700DA3A393F8740193F5828883E47385
:1019A0007402936860EFA3A3A380DF90056174FFC6
:1019B000F5F012170CFEC3E5F09401EE64809480FC
:1019C00022740F90057EF090057CE4F0A37480F003
:1019D00022900647E0FF3395E0FEEF4E22E49005AB
:1019E00065F09005327408F0E49001D9F09006009B
:1019F0007408F022900516E0FF14F0EFC394017410
:101A0000809480227405900566F0E4900C2AF074AE
:101A10000C900C29F0900C2B7401F022900C15E026
:101A2000FFA3E0FEC39F2274192FF582E4340CF566
:101A30008374FFF0229005327408F0900600F0E401
:101A40009001D9F02290057C74FFF5F00216F6E0C3
:101A5000FF25E025E02400F582E43400F58374FFDF
:101A6000F0A3F0EF25E025E02402F582E43400F550
:101A700083E4F0EF25E025E02403F582E43400F56B
:101A800083E4F0900838E004F022FF24FCF582742F
:101A9000FF3EF583ECF0A3EDF074FE2FF58274FFAA
:101AA0003EF5837401F074FF2FF58274FF3EF583D9
:101AB00022900C0DE0640A22900838E0FFC3940CD9
:101AC000748094802290056874FFF5F012170CFE64
:101AD000C3E5F09401EE940022900566F0E4900CCA
:101AE00014F022900111E0FF3395E0FE22900C16D5
:101AF000E004F02290057BE024FFFF90057AE034BB
:101B0000FFFE229005687402F0A37480F0900571C6
:101B1000E0640122900119E0FF7E00D394007480FC
:101B2000948022F09000C8E4F0A3F0A3F022FFE438
:101B300033FE900C0DE07C002290082AF090082FD4
:101B4000E4F0A37440F022E49000CCF0A3742BF0F6
:101B5000A374F2F0227405900514F09005167440F9
:101B6000F0E4229000CBC3E094057480948022FFBF
:101B700024FCF58274FF3EF58374FFF0A3F074FE3D
:101B80002FF58274FF3EF583E422900C0DE0640192
:101B900022900C0DE06402229005667414F0A322DA
:101BA000FCC3E5F09401EC940022900C0DE0FDC321
:101BB000940A7480948022F0A37401F07BFF7AB0C1
:101BC00079102290082AE0FF7E0022E4F09005655B
:101BD0007424F090011722E0C3940474809480224E
:101BE0007404F0E490044CF0900C14F0900561F053
:101BF000A3F022900838E004F022900C0DE0FF7E64
:101C000000640B227E0090055FEEF0A3EFF024FF4E
:101C1000FFEE34FFFE22900563740DF090044DE05A
:101C2000900564F09005612290057E740FF0A37416
:101C30000CF0E422F0A37403F0A37480F07D347FF1
:101C400048229005327408F0229005617401F0A3D7
:101C5000E4F022E004F090055FE0FCA3E0FDAE04B8
:101C6000780222E4900C14F07D647F262290058493
:101C7000E09402900583E0940022E075F004A4242F
:101C8000A8F974AF35F0FA7BFF227E0090055FEE75
:101C9000F0FCA3EFF0FDE4FF2290057E740FF090BE
:101CA00005FC7426229005657415F0E4900566F035
:101CB00090057122900C10E0FEA3E0FF2290011A23
:101CC000E064012290057EE06401229005FAE06460
:101CD0000122900C29E0FF900838E0FEC39F22907B
:101CE0000C0DE0640322E024FFF0900117E034FFC4
:101CF000F0227D017BFF7E007F040215B9EEF0A388
:101D0000EFF0C39401EE940022900838E0C39432BF
:101D10007480948022900C19EDF09008387401F0D2
:101D200022740DF0A37406F090056122F090057204
:101D30007401F0A37440229005687402F0A37480CB
:101D4000F022F090066E7412F0229000D1F0A3F011
:101D5000900838F022F09001BD74FFF022900563E6
:101D6000740CF09005612290083FF0A3F022E094FB
:101D70000A90057AE0940022900C14E0640222900C
:101D8000057AE0FCA3E0FDD322900C14E06403226A
:101D90007B017A0C7919227B037D037F0322E49077
:101DA000010FF0A3F0A3F022900C0DE0640422F0E8
:101DB00090064B7402F07BFF22E4900837F0900805
:101DC00036F0229008BFEB121069E49008C7120F9A
:101DD000669008C5E0FCA3E0FD9008CBECF0A3ED15
:101DE000F0120F3912135225E0FBE5F033FAED241F
:101DF000FAFFEC34FFFE7C007D0512166B90A7E61F
:101E000075F0C8ED121979EC75F0C8A42583F58337
:101E1000E5822BF582E5833AF583E493FE74019322
:101E2000FBAA067C007D64FF12166B9008CDEEF0D5
:101E3000A31210BBA3EEF0A3EFF0AE02AF03121497
:101E40003F121358E4120F659008C5E0FCA3E0FDB3
:101E500024F5FEEC34FF9008D7F0A3CEF09008BF35
:101E60001211157002FF22120F39121352FFAEF039
:101E7000D39400EE94004008EF9464EE9400400385
:101E80007F00229008CB12123E9406EE9400400987
:101E9000D3EF940CEE940040037F0022C002C001F7
:101EA0009008C21212A89008DE121068121358D0BF
:101EB00001D002126C969008D712123EEE940040A8
:101EC0005BD3EF9402EE940050529008CEE09F90C6
:101ED00008CDE09E500CA3E0240AF09008CDE03439
:101EE00000F0D39008D0E09F9008CFE09E500CA364
:101EF000E0240AF09008CFE03400F09008D7E0FE2C
:101F0000A3E0FFD39008D2E09F9008D1E09E500C50
:101F1000A3E0240AF09008D1E03400F09008C9E46E
:101F2000F0A304F012113DD39FEC9E50359008CDE4
:101F300012126B7002EC6E6019A312126B7002EC3D
:101F40006E600FA312126B7002EC6E6005121358D4
:101F500080109008CAE004F070CA9008C9E004F04C
:101F600080C2E49008C9F0A3F012113DC39FEC9E1B
:101F700050269008C2120F3C1212FC9008C8E02FA5
:101F8000F09008C7E03400F09008CAE004F070D97F
:101F90009008C9E004F080D1120F3912134C640686
:101FA00060030220849008D9F0A3F0121253121299
:101FB0003BEE940040361214967002EE6C6028A33B
:101FC0001211406F7002EC6E601D1212687002EC0C
:101FD0006E6014A312126B7002EC6E600A9008D946
:101FE000ECF0A3EDF080051213C980C2120F391274
:101FF000107112132C9000301210AA75F005120FF8
:10200000189000281217226F7002E5F06003022179
:10201000449008C21214379008CF120F2C90002A57
:102020001217226F7002E5F060030221449008C28B
:10203000120F3C9008D1120F2D90002C1217226F16
:102040007002E5F060030221449008C2120F3C9038
:1020500008D3120F2D90002E1217226F7002E5F098
:1020600060030221449008C2120F3C9008D9120F5D
:102070002D9000301217226F7002E5F060030221EC
:1020800044022127120F3912134C64076003022106
:102090002F12125312123BEE940040271214967026
:1020A00002EE6C6019A31211406F7002EC6E600EAC
:1020B0001212687002EC6E6005121358800512133C
:1020C000C980D1120F3912107175F004120F1890D7
:1020D00000281217226F7002E5F070689008C21293
:1020E0000F3C9008CF120F2D90002A1217226F700C
:1020F00002E5F0704F9008C2120F3C9008D1120F09
:102100002D90002C1217226F7002E5F070369008A7
:10211000C2120F3C9008D3120F2D90002E121722DE
:10212000B50721E4B5F01D90004475F0018012124E
:102130000F39900042E4F5F0121779900044E4F56D
:10214000F0121779120F3912117D7F0070027F0192
:1021500022900838EEF0A3EFF0E4A3F090044CE0F6
:10216000702F9000D2E0FF9000D1E02FFFE4334FBA
:1021700090044C70057426F0800C125B15E49004FA
:102180004AF0A374FFF09004497401F07F6C0223BD
:10219000AE90044CE06426700B7427125B2D12A1E4
:1021A0003102246590044CE06427705D125B23705B
:1021B000499005FCE0600302249E90083AF09008E4
:1021C0003AE0125B69501DE0FF24E4125B56E0FE2A
:1021D000749D2FF582E43401F583EEF090083AE027
:1021E00004F080DA125B3412462B90044C125B151B
:1021F000A37401F0E4A3F0A3F022125ADE648094E9
:1022000080400302249E02234E90044CE0641E7022
:1022100011741FF09005F8E4F0A37440F0E4A302F9
:1022200023D990044CE0641F7063125B23704F90BD
:1022300005FCE0700890044C74200223F49005FC27
:10224000E0FF6403600AEF64026005EF64F9702B3D
:1022500090044C741EF0125BEC600302249E900408
:1022600048E024FFF0900447E034FFF0125AE164A4
:10227000809480400302249E02249402234E125A2A
:10228000DE64809480400302249E02249490044CD7
:10229000E0642070107421125B2D900449E0FF125D
:1022A000945B02246590044CE06421600302236384
:1022B000125B2360030223549005FCE070549004E9
:1022C00049E0FF7E006401702090044BE0FD3395EF
:1022D000E0FCED4C7013900449E004F090044C7461
:1022E00024F090044B74FF8022C3EF9405EE6480C9
:1022F000948090044C50127422125B17A3E004F0F7
:1023000012249F12A7D00223F57417F0125BD20299
:1023100023F59005FCE0FF64066005EF6403702E72
:1023200090044AE0C394037480948090044C50104D
:102330007422125B17129F2D12249F12A7D08007C0
:102340007429F0A3740BF090044AE004F022900486
:102350004C022483125ADE64809480400302249E3F
:1023600002249490044CE06424700F7425125B2DB9
:102370007B32FAFDFC7F01028A1590044CE0642553
:102380007048125B2370349005FCE0FF7E00700BF8
:1023900090044C7429F0A3740AF022EF64094E9063
:1023A000044C70147422125B17129F2D7F6E12A5BD
:1023B000E97F967E0002A7D0022483125ADE648051
:1023C0009480400302249E02249490044CE06422F2
:1023D000700B7423F0E49005FAF002A3AB90044C68
:1023E000E064237026125B237012125BEC90044CA5
:1023F00060067422F0029F2D125B1522125ADE64D1
:10240000809480400302249E02249490044CE06453
:1024100017700A7418125B2D12A25C804890044C4D
:10242000E0FF7E0064187022125B23700F9005FCA1
:10243000E090044C70047419F02280479004471215
:102440005BC3648094805056804AEF64194E7019C3
:1024500090044C741A125B2D900838E0FCA3E0FD48
:102460007F01128EF9125BD22290044CE0641A7044
:102470002D125B2370159005FCE090044C700474E1
:1024800028F0227429F0A3740BF022125ADE648023
:102490009480500A90044C7429F0A37401F0227FB8
:1024A0006E12A5E97F967E0022900566E060030229
:1024B00025639000D2E0701D900571E064027015F4
:1024C0009000D5E0700F121B987407F0A31219CA80
:1024D0007F3E02A5E9900571E0FF7E006401701265
:1024E0009000D5E0C394027480948050028001C3B0
:1024F0005018EF64024E70289000D4E0C394087422
:1025000080948050028001C34016121B987406F01C
:10251000A31219CA7F5812A5E97F647E0002A7D0D2
:102520007401121AD9900838F0121AB85008121A09
:1025300027121BF380F3E4900568F0A3121B0C70C4
:102540000512A349800312A36290056AEFF090057B
:102550006AE0FD7C007F017E001271F69005681232
:102560001C4C22900566E06401704B121AC54003B2
:102570000227CF9005667404121D2C121ADC121B60
:102580000D700512A349800312A36290056AEFF053
:10259000121A0AE4900838F0121AB85008121A27D2
:1025A000121BF380F3121B037B5270047D4C8002DC
:1025B0007D4E7F66806C900566E0640460030226B1
:1025C00053900C2BE064027073900C2AD3121B679B
:1025D0004053E4900838F0900838E0121ABD501EBD
:1025E000E0FF2419F582E4340CF583E0FE74012F3A
:1025F000F582E4340CF583EEF0121BF380D9121A45
:1026000004E4900838F0121AB85008121A27121B66
:10261000F380F3121B037B5270047D4C80027D4ECD
:102620007F6802A6057404121A06E4900838F012B6
:102630001AB85066121A27121BF380F3900C2BE085
:1026400064037002805E9005721219AE4003022787
:10265000CF8069900566E064057069FD7F0512A56D
:102660005C900C2BE0FF7E0064027032900C2AE03C
:10267000D3121B6840079005667406F022121A04F4
:10268000E4900838F0900838E0FD121ABD500B7441
:10269000192D121A2A121BF380EB121D3722EF6438
:1026A000034E700D121B98740CF0A3E4F0A304F019
:1026B000229005721219AE40030227CF121B9874A4
:1026C00001022749900566E0640660030227557BF6
:1026D0000190083C04F0A3740CF0A37419F07A0C78
:1026E0007901125F2BEF3395E04F7058121D901255
:1026F0005D08EF703F121D9090056AE0FD12768034
:10270000EF3395E0FEEFF47002EEF460030227CFA2
:102710009005667413F09005681219CA7D327F44E3
:1027200012A57D121B0D70059000D580039000D47A
:10273000E004F022121B987404F0A31219CA7D520F
:102740007F56800E121B987409F0A31219CA7D34AB
:102750007F4402A57D900566E06413701B121AC5C4
:10276000506D9000D2E07064121B0D705F9000D528
:10277000E06401705702A765900566E06414704F2D
:10278000121AC5504A900567E0FF7E00640C700E77
:102790009000D2E070089000D5E0700280119000A7
:1027A000D2E0700F121B0D700A9000D5E070041279
:1027B00019DE22EF64064E600E900567E0FF640CA0
:1027C0006005EF64077005121B0D800012A7A5229B
:1027D000128FAB90083A12193C1294B86007129409
:1027E000CFA312193CC390052DE0942090052CE056
:1027F000940050037FFF2230190A1294B87002C26D
:10280000197FFF22900565E0701C9005471294A384
:10281000700674FFF07F0C229005481294A3700696
:1028200074FFF07F0B221294CF12515020C207E4A4
:10283000900C6EF08006900C6E74FFF01294A070F5
:1028400009900C73E07003022947900C631294A363
:10285000700B900C73E064017003022956900C64B5
:102860001294A3700B900C73E0640270030229664B
:10287000900C651294A3700B900C73E064037003CA
:10288000022977900C661294A3700B900C73E0648D
:10289000047003022988900C671294A3700B900CAB
:1028A00073E064057003022999900C681294A37078
:1028B0000B900C73E0640670030229AA900C691255
:1028C00094A3700B900C73E0640770030229BA9014
:1028D0000C6A1294A3700B900C73E06408700302EE
:1028E00029CA900C6B1294A3700B900C73E06409CE
:1028F00070030229DA900C6C1294A3700B900C7385
:10290000E0640B70030229EA900C6D1294A3700B23
:10291000900C73E0640A70030229FA900C6E129412
:10292000A3700B900C73E0640D7003022A0A900CE4
:10293000721294A3700CA3E0640C7006900C7602E3
:102940002A1D1294A07007900C76F0022A25900C94
:10295000631294A37008900C7604F0022A25900C60
:10296000641294A37009900C767402F0022A2590E8
:102970000C651294A37009900C767403F0022A255A
:10298000900C661294A37009900C767404F0022ADD
:1029900025900C671294A37009900C767405F002D0
:1029A0002A25900C681294A37008900C767406F097
:1029B0008073900C691294A37008900C767407F0E1
:1029C0008063900C6A1294A37008900C767408F0DF
:1029D0008053900C6B1294A37008900C767409F0DD
:1029E0008043900C6C1294A37008900C76740BF0DA
:1029F0008033900C6D1294A37008900C76740AF0DA
:102A00008023900C6E1294A37008900C76740DF0D5
:102A10008013900C721294A3900C767005740CF0D5
:102A2000800374FFF0900C76E0FF90066DF0F47078
:102A300003022AB5900C73E0FD900C76E0FC6D600B
:102A400015EF640D9008426004ECF0800374FFF011
:102A5000900C73EC8079D3900C75E094C0900C745A
:102A6000E09400500FA3E004F07006900C74E004B2
:102A7000F01294DE900C74E0FEA3E0FFD39460EEBD
:102A80009400402CEF94C0EE9400400EA3E0640D3F
:102A90007008900842741BF080031294DE900C6161
:102AA000E004F0D3947F748094804029E4F0802582
:102AB0001294DE8020900C73E0FF640D9008427049
:102AC00004EFF0800374FFF0900C76E0900C73F04C
:102AD000E4A3F0A3F0900842E0FF227A01795712B4
:102AE00012027404F07FAD7E03129269900157E0E8
:102AF000F4600FA3E0F4600AA3E0F46005A3E0F43F
:102B00007017E4900157120F669008C61210D67421
:102B100004F07FAD7E0312462B1210107404F07F78
:102B2000B47E03129269900174E0F4600FA3E0F4A4
:102B3000600AA3E0F46005A3E0F47015E49001746A
:102B4000120F667A0179741212807FB47E031246E6
:102B50002B7A01795B1212027404F07F527E031209
:102B6000926990015BE0F4600FA3E0F4600AA3E0D7
:102B7000F46005A3E0F47015E490015B120F667A2F
:102B800001795B1212807F527E0312462B7B017A01
:102B90000179781212047404F07F627E0312926944
:102BA000900178E0F4600FA3E0F4600AA3E0F46021
:102BB00005A3E0F47017E4900178120F667B017AA8
:102BC0000179781212827F627E0312462B7B017A92
:102BD0000179621212047403F07F5BFE1292699015
:102BE0000162E0F4600AA3E0F46005A3E0F470136E
:102BF0009001621213057A0179621214AC7F5BFEB8
:102C000012462B7B017A01797F1212047403F07F44
:102C10006BFE12926990017FE0F4600AA3E0F46019
:102C200005A3E0F4701390017F1213057A01797FF8
:102C30001214AC7F6BFE12462B900AD712102C7424
:102C400002F07F5F7E03129269900165E0F46005F7
:102C5000A3E0F470109008C612102C7402F07F5F8D
:102C60007E0312462B900AD71210367402F07F6F43
:102C70007E03129269900182E0F46005A3E0F47093
:102C8000109008C61210367402F07F6F7E03124651
:102C90002B900AD712104012136612926990015FAE
:102CA000E0F4600AA3E0F46005A3E0F4700F90087C
:102CB000C61210407403F07F57FE12462B900AD7BD
:102CC00012104A7403F07F67FE12926990017CE053
:102CD000F4600AA3E0F46005A3E0F4700F9008C666
:102CE00012104A7403F07F67FE12462B900AD71227
:102CF0001054121446129269900167E0F46037A3F1
:102D0000E0F46032A3E0F4602DA3E0F46028A3E0D7
:102D1000F46023A3E0F4601EA3E0F46019A3E0F4E0
:102D20006014A3E0F4600FA3E0F4600AA3E0F46091
:102D300005A3E0F47012900167120F591214B71234
:102D4000105512144612462B900AD71210B11214C5
:102D50004E129269900184E0F46037A3E0F460328F
:102D6000A3E0F4602DA3E0F46028A3E0F46023A3C3
:102D7000E0F4601EA3E0F46019A3E0F46014A3E0A3
:102D8000F4600FA3E0F4600AA3E0F46005A3E0F4AC
:102D90007013E4900184120F5A1214B71210B21279
:102DA000144E12462B229000CC1219D4700B9005B1
:102DB000657427F07F04127E9690060AE070067410
:102DC00020F0128C68900600E06405706790010F97
:102DD00074FFF0900608A3E0900115F0129F2D12E9
:102DE0001B2490011AE070047F018023121CBD6037
:102DF00003022E73121AE3BEFF07BFFF047F068093
:102E00000E900110121AE6BEFF0ABFFF077F0412E0
:102E1000A3DB805F900119E0700512301580541219
:102E20001B14404FEF640170031219ED900119E07B
:102E300014F0803F900600E0640670371230217075
:102E40000A7F0912A3DB129F2D8028E490010FF066
:102E500090011304F0900115121BCB1219CA7F4088
:102E600012A5E99000C9121BD75005E004F08003B9
:102E7000121B471249319001D9E064287062900119
:102E80001074FFF09001D4A3E004900114121B23EE
:102E900090011AE070047F038070121CBD60030271
:102EA0002F3790010F121AE6BEFF07BFFF047F0401
:102EB0008058121AE3BEFF07BFFF047F05804B90C6
:102EC0000119E07005123015806D121B144068EF77
:102ED000640170049001D9F0900119E014F080575A
:102EE0009001D9E06429704FA3E0642B7008900131
:102EF0001C7402F08005E490011CF0123021700F68
:102F000090011CE0640260077F0912A3DB8028E4C3
:102F1000900110F09001137403F0E4A3121BCC1283
:102F200019CA7F4012A5E99000C8121BD75005E0CE
:102F300004F08003121B47125BF3900532E0640B30
:102F4000705F90011174FFF0900540E0900116123F
:102F50001B2390011AE0600E900112E0FF640160F3
:102F600005EF640270047F02804B121CBD600302F7
:102F7000301490010F121AE6BEFF07BFFF047F0650
:102F80008033900110121AE6BEFF07BFFF047F05D1
:102F900080237F7A12A5E9121C429001197480F0F7
:102FA00022900532E0640C703812A1ADEF3395E049
:102FB0004F70057F0902A3DBE4900111F09001132B
:102FC0007402F0900116121BCB1219CA7F4012A591
:102FD000E99000CA121BD75004E004F022121B47EC
:102FE00022900532E0FF7E00640D700D900460F0C9
:102FF000A3F09005657426F022EF640E4E70030274
:10300000A639900532E0641D700A7D327F4412A516
:103010007D121C42227F7A12A5E99001197480F07A
:103020002212A1ADEF3395E04F229008ABEB1210C6
:10303000699008B5120F599008AB1211157002FF74
:10304000229008AB120F3C121430121779C002C044
:10305000019008AE1212A89008C21210689008B32E
:10306000E0FFA3E09008C5CFF0A3EFF0D001D002BD
:10307000121DC3EF7002FF229008AB120F3C121317
:103080004C24F96069046003023287900006121133
:10309000AB9000071212451213259000091211621D
:1030A00060030232931211E81283C59008B5EEF066
:1030B000A3EFF09008AB120F3C12139B1214DF40E9
:1030C000030232939008B51212D39E5002800FBCB7
:1030D0002716BD0F13C3EF940BEE9400500A900017
:1030E00010E475F001023290121430023290900810
:1030F000AB120F3C12127A75F00AA4FDACF0121359
:103100002C75F064A42DFFE5F03CFE12130E7C003C
:103110002FFFEC3E9000178FF012177990000812E5
:1031200011AB9000091212451213E690000B121118
:103130006260030232931211E81284BE9008B71243
:1031400011E31285B59008B91211E3128791900826
:10315000BD1211E3128BA59008BBEEF0A3EFF09027
:1031600008AB120F3C12139B1214DF400302329380
:103170009008B7E0FCA3E0FDC3940FEC94275073D4
:10318000C3ED9FEC9E500302323D9008AB120F3C02
:1031900012139BFF9008B7E065F07003A3E06F7017
:1031A000461213EC7003A3E06F600302323D9008F7
:1031B000AB120F3C121352FF9008BBE065F0700396
:1031C000A3E06F60061210DF126D709008AB120F53
:1031D0003C1212E8400302329312133B700690082F
:1031E000B9E004F00232759008AB120F3C121430B3
:1031F0000232909008B7E064277004A3E0640F6087
:10320000030232939008AB120F3C12139BC3940B32
:10321000E5F0940050061210DF126D709008AB12AA
:103220000F3C12139BFF9008B7E065F07003A3E01A
:103230006F70601213EC7003A3E06F60051210DF73
:1032400080409008AB120F3C121352FF9008BBE075
:1032500065F07003A3E06F60061210DF126D7090CE
:1032600008AB120F3C1212E8502912133B70069063
:1032700008B9E004F09008B9E0FEA3E09008B112AC
:10328000141C126D70800C9008AB120F3C1214309D
:103290001217799008AB120F3C9000101211807F2A
:1032A0000070027F01229008ABEB121069A3EDF0D1
:1032B0009008AB1211157003023516A3E064066086
:1032C000030233729008ABA3A3E0F912127A12142E
:1032D0001990011D75F01D120F4C12130CFF120FE7
:1032E00045EF121324FF90011F120F48EFF0121246
:1032F0009FFF900120120F48EFF090011D120F4820
:10330000E0FF900157120F48EFF0120F45E0FF90D9
:103310000158120F48EFF090011F120F48E0FF9084
:103320000159120F48EFF0900120120F48E0FF9072
:10333000015A120F48EFF0ED4C701A9008AF1211BD
:10334000FA120FAE12145612462B120FF07404F03C
:103350007FAD0235111211926003023516FC120F77
:10336000AE12136D12462B120FF07404F07FB402EC
:1033700035119008AEE0640760030235169008AB83
:10338000120F3C12132512141990012175F01D1211
:103390000F4CEFF012129FFF900122120F48EF1214
:1033A00013E5FF900123120F48EF1214CAFF90019A
:1033B00024120F48EF12132BFF900128120F48EF31
:1033C000F012127AFF900129120F4812130CFF908D
:1033D000012A120F48EFF01215DFFF90012B120F98
:1033E0004812145EFE90012C120F48EE121324FEB8
:1033F00090015B120F48EEF012129FFE90015C12DA
:103400000F48EE1213E5FE90015D120F48EE121404
:10341000CAFE90015E120F48EE12132BFE9001625D
:10342000120F48EEF012127AFE900163120F48EE6E
:1034300012130DFE900164120F48EEF09001651218
:103440000F4812145EFF900166120F48EFF0ED4C2A
:1034500070629008AF1211FA120FC412137512465F
:103460002B120F6E7403F07F3BFE12462B120F8E51
:1034700012138512462B12101D745B2FF974011262
:1034800010057404F07F527E0312462B12101D7437
:10349000622FF974011210057403F07F5BFE12466F
:1034A0002B12101D74652FF974011210057402F0AF
:1034B0007F5F805D121192705DFC120FC412137D4C
:1034C00012462B120F6E12140B12462B120F8E1275
:1034D000138D12462B12101D745B2FF974011210FC
:1034E000057404F07F627E0312462B12101D746275
:1034F0002FF974011210057403F07F6BFE12462B36
:1035000012101D74652FF974011210057402F07FFA
:103510006F7E0312462B22E4900848F0A31219484C
:103520000000000090084D12194800000000E490CF
:103530000851F0A3F030030302364212A7C750032C
:10354000023634129C3190084912193CE490084725
:10355000F0900847E0C3951050399008491262E393
:1035600078011218E190084912193C30D7201262F4
:10357000B7C000C0019008471262A6E0F9F812181F
:10358000F4D001D0001262EF900848E004F012631A
:103590002E80BE900848E0FF7E00C39402748094A1
:1035A000804018D214EF940374809480400512A7D1
:1035B000CA800812A706EF6002C214201423E4FF99
:1035C000FEFDFC1262B7C31218D06010900BA1E090
:1035D00004F07006900BA0E004F0801D12631A80C6
:1035E00018900B8FE004F07006900B8EE004F090C2
:1035F000084D1219480000000012A66AD3900BA1D2
:10360000E09F900BA0E09E400612A7CA12631AD357
:10361000900B8FE0942C900B8EE0940150030237B6
:103620006412A7CA900BCA7401F0E4900B8EF0A349
:10363000F002376490B11EE4740193FF1241280236
:10364000376420040302372E1262B7C000C0019015
:103650000BCB1262A6E0F9F81218F4D001D00012D8
:1036600062EF126244126335900851F0A3EFF090BC
:103670000BCBE0FF12A726AD07AC06ED7802CEA279
:10368000E713CE13D8F8FFC3ED9FFFEC9EFED39057
:103690000852E09FEE6480F8900851E064809850F2
:1036A00058E4900B3EF0A3F0900AFCE004F094057F
:1036B000748094804010E4F0C203C20490084D125C
:1036C000194800000000E4900847F0900847E0FF28
:1036D000C39510400302376412448B2003169008F0
:1036E00047E0FF900BCBE06F600A900847E0126262
:1036F0005412630112632E80D2E4900AFCF012A6E9
:103700006A900B3EE475F0011216F6FCD3E5F09FCB
:10371000EC9E405012A7CAE4900B3EF0A3F0C20307
:10372000C20490084D1219480000000080367858F5
:1037300006E6D39405748094804004E4F6C203E462
:10374000900847F0900847E0FFC3951050161244C8
:103750008B20030B900847E0FF12625412630112A2
:10376000632E80E090084D1262E3227D017F0412F7
:1037700037750D7F04EFF582758300C374809480E4
:103780004024D3E5829405748094805019EDF5822D
:10379000C374809480400FE58294087480948050B4
:1037A000057582018003900000E582640145836015
:1037B0000302396EEF1460641470030238611470F0
:1037C000030238A61470030238EB14700302392D7B
:1037D0002405600302396EEB14601D14602D240271
:1037E000600302396EA8057401088002C333D8FC57
:1037F000FF429AEFF4529B22A8057401088002C38D
:1038000033D8FCFFF4529AEF429B22A805740108BA
:103810008002C333D8FCF4529A529B22EB14601DF1
:1038200014602D2402600302396EA805740108801B
:1038300002C333D8FCFF4291EFF4529222A80574E0
:1038400001088002C333D8FCFFF45291EF42922268
:10385000A8057401088002C333D8FCF45291529237
:1038600022EB14601D14602D2402600302396EA83F
:10387000057401088002C333D8FCFF42A1EFF45263
:10388000A222A8057401088002C333D8FCFFF452B9
:10389000A1EF42A222A8057401088002C333D8FC1C
:1038A000F452A152A222EB14601D14602D24026078
:1038B0000302396EA8057401088002C333D8FCFFE7
:1038C00042B1EFF452B222A8057401088002C3335A
:1038D000D8FCFFF452B1EF42B222A805740108806F
:1038E00002C333D8FCF452B152B222EB14601A1462
:1038F000602A24027078A8057401088002C333D8B6
:10390000FCFF42C1EFF452C222A8057401088002F4
:10391000C333D8FCFFF452C1EF42C222A8057401A0
:10392000088002C333D8FCF452C152C222EB1460A7
:103930001A14602A24027036A8057401088002C394
:1039400033D8FCFF42D9EFF452DA22A805740108FB
:103950008002C333D8FCFFF452D9EF42DA22A80523
:103960007401088002C333D8FCF452D952DA229091
:103970000856124AD6900855EFF090086074FEF091
:10398000E4A3F0A3F0EF24F4601024FE7016900876
:10399000617412F0A37410F0800A9008617420F032
:1039A000A37430F0900861E04480FD7F0212A612FB
:1039B0007D807F04129FF2123B607D807F0A12A1FE
:1039C00050E4900864F0A3F0900859E0FF90086478
:1039D000E0FCA3E0FDC39FEC940050239008561236
:1039E0004ACD8D828C831215F8FD7F0912A61290A4
:1039F0000865E004F070D1900864E004F080C9909C
:103A00000855E0FD7F0112A612900855E0640C7085
:103A1000077D807F0D12A15012A5F7900864E4F095
:103A2000A37464F07F0412A4F0900863EFF0900890
:103A300065E024FFF0900864E034FFF0E07002A33A
:103A4000E06011900863E0FF20E009900862E0FE6A
:103A5000EF5E60D07D807F0D129FF2900864E07071
:103A600002A3E07003023B4D7F0612A4F0EF541B4B
:103A70006003023B45900860F0A3E0FF900863E01C
:103A80005F30E00690086074FFF0900855E0640C29
:103A90006003023B507F0A12A4F0900863EFF07FAE
:103AA0000C12A4F0EF5407FD6029900863E024FF96
:103AB000FFE434FFFEEF7803C333CE33CED8F97C76
:103AC000002DFFEC3EF990085DE0FBA3E0FAA3E0D7
:103AD000C98011900863E075F008A4FF90085D129A
:103AE0004ACDE5F08FF012175A900863E070020497
:103AF000F0900863E0D394127480948040037412B1
:103B0000F0E4900864F0A3F0900863E0FFC390082D
:103B100065E09F900864E0940050357F0912A4F09E
:103B200090085A124ACD900864E0FCA3E0F5828C1C
:103B300083EF121637900865E004F070CB900864AC
:103B4000E004F080C390086074FEF0800312A75E6A
:103B50007D807F0C12A150123B60900860E0FF2234
:103B6000E4FD7F0112A61222F91215F8FF90083920
:103B7000E0FBA3E0FAA3E0F9229000EBE004F0EF11
:103B8000FB25E025E02400F582E43400F583E4F031
:103B9000A3EBF025E025E02402F582E43400F58370
:103BA00022EFFD7C00E92DF9EC3AFA90083DE0FCAB
:103BB000A3E029F9EA3CFA1215DFFEEFC313FD90EA
:103BC000083CE075F008A42487F582E43405F58309
:103BD000E58222EF75F008A4248DF582E43405F522
:103BE0008374FFF0EF75F008A42486F582E43405B1
:103BF000F58322EFC3940A7480948022EFF090083A
:103C00003E7D0AE0FEA3E0FF7C0002166BE4900C10
:103C100016F07405900C15F090056522F0EF25E084
:103C200025E02403F582E43400F58322EF75F008E3
:103C3000A4248DF582E43405F583227A08793A7B51
:103C400001900AD7E4F0A304F0222DF582E4358335
:103C5000F583227401900572F0A37440F022EBF01A
:103C6000A3EAF0A3E9F0227B017A057986E4F0A3C8
:103C700022EEC394067480948022E0D39400748072
:103C800094802290083DE0FAA3E0FB7C007D02FFD7
:103C9000AE020216C0EFC3943274809480227B017E
:103CA0009008C6E4F0A304F022EFC3940274809459
:103CB0008022900839E0FEC3942074809480229082
:103CC00000E9F0A3F0A3F0227D017BFF7E00021546
:103CD000B9E0FDC4540F75F00AA42290083AE0FF41
:103CE0003395E0FE2290083CE0FBA3E0FAA3E0223B
:103CF000E4900C16F0900C152290057204F0A37459
:103D000040F0900565E022EFF07E00C394097480D6
:103D1000948022EC04FF12A330EF3395E04F22741D
:103D2000EE2EF582E43400F583E02274E42EF58271
:103D3000E43405F583E0227B01F0A304F07FFD7EEF
:103D40000722900C13E0FF900C12E09F22E0FEA3EC
:103D5000E0FFC3222FF582E5833EF583E022900445
:103D60003AE06003023DE79000D2E070439000D556
:103D7000E0703D9005657415121D2CF07404121A44
:103D8000D990056A04F0900571121A09E490083878
:103D9000F0900838121ABB500B121A27900838E01E
:103DA00004F080ED121D377B527D4C7F6602A60524
:103DB000121A0A900532740AF0E4900838F0900C58
:103DC00029E0FF900838E0FEC39F500E74192E12B0
:103DD0001A2A900838E004F080E490043A74011242
:103DE0001A3E7F5A02A5E990043AE064016003029A
:103DF0003EF37D107F0612A55C900C2BE0640270F0
:103E00004B90043A7403F0121D90125D0890044325
:103E1000EFF0600FC3940374809480500690043ACE
:103E20007402F0121C4290043AE0640370157F4063
:103E300012A5E99004427480F0121B63501FE00445
:103E4000F0801A7D327F5A12A57D8011900C2BE0F4
:103E50006403700990043A7404F0121C4212493150
:103E60009001D9E064287029C39001D5E0940A90AC
:103E700001D4E09400501A90043A7402121A3E7D64
:103E8000327F5A12A57D9001D87401F07F03023F62
:103E9000429001D9E0FF64296022EF6428600302A8
:103EA0003F459001D5E02401FF9001D4E03400FEAD
:103EB000D3EF940AEE94005003023F459001DAE0FC
:103EC000642B90044470057402F080037401F0E4E4
:103ED0009001D9F090043A7403F09004427480F099
:103EE0007F4012A5E97F02127E96121B635056E0B6
:103EF00004F02290043AE06402700912A765E4908D
:103F000000CBF02290043AE064037020900442E079
:103F100014F01219FC502E121B634005E4A3121B6F
:103F20004B121A35900565F07F01801690043AE037
:103F3000640470117F6012A5E9121A35900565F0CE
:103F40007F01127E9622900AD71210D512145612B3
:103F5000926990011DE0F4600FA3E0F4600AA3E011
:103F6000F46005A3E0F47017E490011D120F667B66
:103F7000017A01791D1212827FA07E0312462B1254
:103F8000101012136D12926990013AE0F4600FA3C1
:103F9000E0F4600AA3E0F46005A3E0F47013E49099
:103FA000013A120F669008C612101412136D1246D1
:103FB0002B900AD71210FE121375129269900121EC
:103FC000E0F4600FA3E0F4600AA3E0F46005A3E06E
:103FD000F47013E4900121120F669008C61210FFCE
:103FE00012137512462B900AD712111F12137D124D
:103FF000926990013EE0F4600FA3E0F4600AA3E050
:10400000F46005A3E0F47013E490013E120F669093
:1040100008C612112012137D12462B900AD71211D6
:10402000087F3BFE129269900128E0F4600AA3E049
:10403000F46005A3E0F470129001281214049008B3
:10404000C61211097F3BFE12462B900AD712112986
:1040500012140B129269900145E0F4600AA3E0F497
:104060006005A3E0F470129001451214049008C694
:1040700012112A12140B12462B900AD71211331266
:10408000138512926990012BE0F46005A3E0F470AF
:1040900010E490012B1214B8121134121385124639
:1040A0002B900AD712114E12138D1292699001486B
:1040B000E0F46005A3E0F47010E49001481214B835
:1040C00012114F12138D12462B900AD7121158124B
:1040D0001366129269900125E0F4600AA3E0F4608F
:1040E00005A3E0F47011E4900125F01214B7121149
:1040F0005912136612462B900AD712118812141205
:10410000129269900142E0F4600AA3E0F46005A312
:10411000E0F47011E4900142F01214B71211891208
:10412000141212462B022ADB900853EFF0900C88F1
:10413000E0C39403748094804048E4F0900BCAE09C
:104140007035900854F0900854E0C395105028E062
:10415000FF75F002A424A3F582E5F0340BF583E0AB
:10416000FCA3E0FDEF25E02424F8A60408A60590B2
:104170000854E004F080CF1289AEC215E4900BCA57
:10418000F022900C82E004F0900853E0FF900C8243
:10419000E0B50708129B68E4900C83F0900853E0A8
:1041A000FF900C82E0D39F50030242DAE49008545F
:1041B000F0900854E0C395104003024286E0FF757A
:1041C000F002A424A3F582E5F0340BF583E0FCA310
:1041D000E0FD75F002EFA424FDF582E5F0340AF568
:1041E00083E0FEA3E0C39DFFEE9CAD07FC900BCAED
:1041F000E07042900BA2E0FB3395E0FAFEEB780210
:10420000C333CE33CED8F9FFD3ED9FEE6480F8EC04
:104210006480984060E49BFFE49AFEEF7802C33329
:10422000CE33CED8F9FFC3ED9FEE6480F8EC648006
:104230009850428051900BA2E0FB3395E0FAFEEBE0
:104240007803C333CE33CED8F9FFD3ED9FEE64802D
:10425000F8EC648098401EE49BFFE49AFEEF78033C
:10426000C333CE33CED8F9FFC3ED9FEE6480F8ECB4
:104270006480984011900854E0FF12448B900854D9
:10428000E004F00241B1900854E0B51006900C83B0
:10429000E004F0900853E0FD75F008A4FF900C8254
:1042A000E0C39FE5F06480F8748098402DE4F0C28C
:1042B00014900C88E004F0ED75F004A4FF900C83DA
:1042C000E0C39FE5F06480F8748098400DE4900CA2
:1042D00088F0129D451289AEC2152278387C087A82
:1042E000B179AE121CF290057EE0641170090412DF
:1042F0001ADC7F6412A5E9121CC4704F121D677B83
:10430000037D507F051291D6121D78702C121CB4BB
:1043100090057A121CFD401B121D7F9432EC940014
:104320005011E4FFFE1271F690057C121C4CA37430
:1043300002806E121C6302445F121D8960030244F6
:104340008A121C2890057CF0A3F02290057EE06480
:1043500002702D90057C1219AE400302448A90052C
:104360007B121D6E90057E500E7401121ADC7B01CB
:104370007A0879380293877403F0E4900648F022B3
:1043800090057EE06403704A121AF41280BB900616
:1043900048E064027021A31219D490057E7006745F
:1043A00005121ADC22740F1219C690057F7403F0EF
:1043B0007D347F4802445F900648E0640360030256
:1043C000448A1219C190057F740CF07D347F480235
:1043D000445F90057EE064057018121AF47D017C3C
:1043E00000128F5290057E74061219C6E49005FAE9
:1043F000F02290057EE064067068121CCB704E902F
:1044000005FCE0703F90057E740E1219C67D327F68
:104410004812A57D121D7F940AEC9400500590006F
:10442000D280039000D1E014F0AE04ED7802C333E3
:10443000CE33CED8F9121B6F121AA5E4F0AF05AE39
:1044400004029F911219C17D347F488012121A45CF
:104450001219B55035121C991219C67D347F4802C5
:10446000A57D90057EE0640E700D121A451219B5F7
:10447000501812A294801090057EE0640F700B908B
:10448000057C1219AE500312A76C22900855EFF06C
:10449000F9E0FF75F002A424A3F582E5F0340BF5F2
:1044A00083E0FCA3E0FD75F002EFA424FDF582E5B6
:1044B000F0340AF583E0FEA3E0C39DFFEE9C900874
:1044C00056F0A3EFF0AF0112A726AD07AC06900897
:1044D00056E0FEA3E0FFD39DEC6480F8EE64809884
:1044E0005014C3E49DFBE49CFAC3EF9BEA6480F89C
:1044F000EE648098502F900855E0FF75F002A424D8
:10450000FDF582E5F0340AF583E0FCA3E0FD75F0EB
:1045100002EFA424A3F582E5F0340BF583ECF0A3BD
:10452000EDF00245FEECA2E713FEED13FF900856F6
:10453000E0FAA3E0FBD39FEE6480F8EA6480985031
:104540001CECA2E713FEED13FFC3E49FFFE49EFE05
:10455000C3EB9FEE6480F8EA648098503E90085563
:10456000E0FD75F002A424A3F582E5F0340BF58399
:10457000E0FAA3E0FBEAC313FEEB13FFC3EB9FFBE0
:10458000EA9EFA75F002EDA424FDF582E5F0340A06
:10459000F583E0C313FEA3E0138047900855E0FDC8
:1045A00075F002A424A3F582E5F0340BF583E0FA5C
:1045B000A3E0FBAE027803CEC313CE13D8F9FFC33A
:1045C000EB9FFBEA9EFA75F002EDA424FDF582E56F
:1045D000F0340AF583E0FEA3E07803CEC313CE13D4
:1045E000D8F92BFFEA3EFE900855E075F002A424AE
:1045F000A3F582E5F0340BF583EEF0A3EFF090081D
:1046000055E0FF75F002A424A3F582E5F0340BF524
:1046100083E0FCA3E0FD75F002EFA424FDF582E544
:10462000F0340AF583ECF0A3EDF0229008C1127A81
:104630005578C87C087D017BFF7AAC79F57E027FD6
:10464000001215B9127A71900ACEF0A3F09008C149
:10465000E0FFA3E0900AD0CFF0A3EFF0900ACEE005
:10466000FEA3E0FF9008C6E0FCA3E0FDD39FEC9E14
:1046700040EA900AD0E05401FEA3E0FF900ACAEE9F
:10468000F0A3EFF0900ACFE02400FB900ACEE034D4
:1046900002CBC39FFFEB9EFED3ED9FEC9E407412B6
:1046A0007A794E6006127A111247AC127A64127A45
:1046B00079C3E49FFF7402127A8C501E127A2D7017
:1046C00006900ACCE004F0127A82900AC9E004F065
:1046D0007006900AC8E004F080D412477E900AD792
:1046E000127A2012972C127A79C3E49FFF74029EEB
:1046F000FE900ACFE02FF0900ACEE03EF0900AD173
:10470000E02FF0900AD0E03EF07F057E0012A22458
:1047100002465C127A79C3127A111247AC127A649B
:10472000900ACEE0FEA3E0FFC39008C7E09FFF9091
:1047300008C6E0127A8C501E127A2D7006900ACCB0
:10474000E004F0127A82900AC9E004F07006900A40
:10475000C8E004F080CA12477E7B017A0879C890CD
:104760000AD7127A2612972C9008C6E0FFA3E09091
:104770000ACECFF0A3EFF07F057E0002A224900ABC
:10478000CAE0FEA3E0FFC3900AD1E09FFF900AD0E9
:10479000E09EFE1290A4900ACAE0FEA3E0FFC39040
:1047A0000AD1E09FFF900AD0E09EFE221292697F1C
:1047B000017E0012A22422900850EB1210691213FD
:1047C0005878627C087AAC79967F471213B1E490EE
:1047D00008A9F0A3F01212A59008AE121068900874
:1047E00055E0FFA3E09008B1CFF0A3EFF090085799
:1047F0001212A89008B312106890085AE0FFA3E0C4
:104800009008B61211C91269E3EF7002FF2212116B
:10481000CE1259C61211CE1286A61211CE126ACA33
:104820001211CE1267151211CE128346EF7002FFDD
:10483000221211CE1250091212A59008AE12106861
:10484000900853E0FFA3E09008B1CFF0A3EFF09001
:104850000855E0FFA3E09008B31211C912302A9066
:10486000085C121115603DA3121115603790087491
:10487000E0FF90085C120F3CE48FF012175A90088A
:1048800074E0B40713900879E0F9A3E0FF90085FA3
:10489000121437C98FF0800990085F120F3CE4F5BD
:1048A000F012175A900874E0B40619900872E0707C
:1048B00004A3E0640170731211CE1213A17D0612DD
:1048C00032A68066900874E06407705E900872E01B
:1048D0007004A3E06401700B1211CE1213A17D07C6
:1048E0001232A6900853E0FEA3E0FF1285B59008AF
:1048F000A9EEF0A3EFF0C390087AE09F900879E06A
:104900009E50279008AAE094E79008A9E0940340FD
:1049100012E4F0A3F0900853E0FCA3E0FDE4FFFEF6
:10492000126D70E4900872F0A3F0900872A3E0FF9B
:10493000229001D9E0FF7E007004741EF022EF6423
:104940001E4E700B741F125B2A12A393024A4990E9
:1049500001D9E0641F7031125B2370199005FCE0EF
:1049600070099001D97420F0029F2D125BEC700247
:104970008011E4800E9001D6125AE19400400302A7
:104980004AAAE49001D9F0229001D9E06426700B84
:104990007427125B2D12A131024A499001D9E064BB
:1049A000277049125B2370319005FCE070257B0174
:1049B0007A0579E412918BEF3395E04F9001D9702D
:1049C000097420F09001D6024A7C7429F0A3742B5C
:1049D000024AA0125B5E024AA09001D6125AE194EC
:1049E000004003024AAA125B5E024AA09001D9E08D
:1049F0006420700C7421125B2D7F0112945B80493E
:104A00009001D9E0FF7E0064217029125B237015AC
:104A10009005FCE09001D970047424F0227429F010
:104A2000A37406807B9001D6125BC39400507B1266
:104A30005B5E806CEF64244E70167425125B2A7BDB
:104A400032FAFDFC7F01128A159001D6125BD52245
:104A50009001D9E064257052125B2370369005FCFA
:104A6000E0FF7E00701A9001D97428F09005D6E01E
:104A7000FDA3E09001D4CDF0A3EDF0A3125B1B22C7
:104A8000EF64174E9001D97002F0227429F0A374DC
:104A900008800D9001D6125AE19400500D125B5E11
:104AA000F09001D6E4F0A374C0F022740490085989
:104AB000F0A37401F0A322900000E0FEA3E0FF2425
:104AC00000F58274003EF583E0900000FDE0FBA35A
:104AD000E0FAA3E0F922EBF0A3EAF0A3E9F022EF79
:104AE000FD3395E04D22F0EFA3F09008577401F0EC
:104AF000A3227400F07400A3F07B017A00790022F5
:104B00007400F07400A3F07B017A00790022EFF0CA
:104B1000FD9000007401F0A3740BF0A374FAF07B15
:104B2000017A0B79CD7F60228E827583000215F8A1
:104B300024D3F582E4340BF583EFF0900000E00419
:104B4000F0227400F07400A3F07B017A0079002257
:104B50003EFA7B01900000A3E025E025E02274509E
:104B6000F0E4A3F07B0190085704F0A3229000002A
:104B700074FFF0900757228F828E83ED12163790C4
:104B80000000E004F022900000E0FFC3940A74806B
:104B900094802274432DF582E43408F583E0227B6F
:104BA000017A0B79FA22EEC39410748094802290DB
:104BB0000000E0FEA3E0FF22EDC394047480948023
:104BC00022900000F0A3F022900000E0FCA3E0FDA2
:104BD00025E025E022900000E004F022EF3395E08C
:104BE000FEEFF4227C007D30021659EFFD3395E094
:104BF000FCED64FE4C2274D32FF582E4340BF58374
:104C0000227400F0A37400227400F0A37400221236
:104C10001BC3700A9000CFF090082A04F022EF64C2
:104C2000014E7013128B42129A22E490082BF090DE
:104C3000082A7402024CE8121BC364027015900823
:104C40002F121A48121BA04003024D7290082A74BA
:104C500003F022EF64034E70641281429000CFE0B3
:104C60006402703E9005FAF07F01129415E49008FA
:104C700038F0900838E0C394197480948050177FFE
:104C80000A7E0012A7D012A7D9121CCB6008900888
:104C900038E004F080DCE490082CF090082A7404DA
:104CA00080469000CFE064036003024D7290082CB0
:104CB00074FFF07404121B397F07024D6F121BC37F
:104CC0006404701590082F121A48121BA0400302AA
:104CD0004D7290082A7405F022EF64054E70119011
:104CE000082DF090082A7406121B3C7F02024D6FBB
:104CF000121BC36406701290082F121A48121BA0D0
:104D0000507090082A7407F022EF64074E700D90DF
:104D1000082EF07408121B397F028053121BC364E3
:104D200008701490082F121A48121BA050449008C3
:104D30002A7409121B3C22EF64094E703590082F2B
:104D4000121A48121ACF502A9000DBE06004640166
:104D500070187F7412A5E99000DA74FFF09000DCFF
:104D60007480F09005657422F0221219DD7F06121E
:104D70009C6022900191E070569000D2E0701190FA
:104D800000D5E0700B1271E3041271677F3E803C26
:104D90009000D3E0127181900191502B7401F0E4E6
:104DA000900C14F0900193F0A3F012A317900195CA
:104DB000EFF0FD7C007F027E001271F6900193748B
:104DC00001F0A3E4F080081271637F5812A5E99006
:104DD0000191E06401702512714D4003024EBE1234
:104DE000A317900195EFF09001917408F090019352
:104DF0007401F0A37440F07F7002A5E9900191E086
:104E0000640870307B017A01799612871CEF339524
:104E1000E0FEBEFF09BFFF069001917404F012711D
:104E20004D4003024EBE1271E374011271677D346E
:104E30007F44805E900191E0640470597B017A01A7
:104E40007996128ADEEF703F900195E0FD12922074
:104E5000EF3395E0FEBEFF1DBFFF1A900191740570
:104E6000F09001931271697D327F4412A57D90000C
:104E7000D3E004F0229001911271637F5812A5E9EA
:104E80007F647E0002A7D01271E3141271677D5413
:104E90007F5602A57D900191E06405700712714D67
:104EA000501C8017900191E0640670129001937479
:104EB000FFF5F012170C127157500312A61F229023
:104EC0000C00E004F0D3943F74809480404F900C29
:104ED0000FE06401F0E4900C00F020C22990056519
:104EE000E070239001D0121AE6BEFF12BFFF0FE45C
:104EF000F07F01129C609001D074FFF080057F016B
:104F0000129C60129F2D9001D8E0121B1B400EE0F6
:104F100004F0E064047006F07F01127E96900C00AD
:104F2000E0541F7007900C18E06401F090060AE04E
:104F3000121B1B4003E014F0900756E0121B1B40AD
:104F400003E014F030C141121DB9900836E0C3945B
:104F5000647480948050187F027E0012A24030C199
:104F600006900837E004F0900836E004F080DB900B
:104F70000837E0D3945A74809480404290045C12C5
:104F800019D4703AA3F08036121DB9900836E01299
:104F90001BAF50187F017E0012A24020C10690086E
:104FA00037E004F0900836E004F080DF900837E046
:104FB000D39408748094804005E490045CF09004DD
:104FC0005D1219D4703D900565E0FF642C6034EFEC
:104FD0006421602FEF641C602AEF641A602590063C
:104FE0004C1219D4701D900565742CF090045E1459
:104FF000F0A374F21219E17F147E0012A7D07F048F
:10500000127E961201000268069008ABEB1210693E
:10501000E4A3F0A3F0FFFE12135FA3EFF07F007E86
:105020000012135F7E037FE81210CCA3EFF07C0325
:105030007DE87F007E0012166B7F641210CAA3EF1A
:10504000F07C007D647F007E001210C5A3EFF07F2E
:10505000007E0012143FAC05E4A3F0FF9008AB12F1
:1050600011157001229008AB120F3C12135225E06B
:10507000FFE5F033FE74CE2FF58274AB3EF583E48A
:1050800093FF7401939008AECFF0A3EFF07F01EF90
:10509000D394067480948050229008B0E06F60181A
:1050A000A3E06F6013A3E06F600EA3E06F6009EFF1
:1050B0006C6005A3EFF080030F80D49008AB120F53
:1050C0003C9000011215F89008B012120B120F3C20
:1050D0001213D89008B112120B120F3C12128BFF50
:1050E0009008B212120C120F3C1213BA9008B312AD
:1050F000120C120F3C900004EF12163712132CFF03
:10510000AD0412120E120F3C121273FF9008B4126B
:10511000120C120F3C900006EF12163712130EFFFE
:10512000AE04AD061213FD120F3C900007EF1216ED
:10513000371213259008B31213FA120F3C1212986B
:105140009008B21213FA120F3C9000091214D122E7
:10515000900843EEF0A3EFF0E4FFEFC3940D7480EA
:1051600094804003025293E4FEEF25E0242DF58263
:10517000E4340CF583E0FCA3E0FD900843E05CFC24
:10518000A3E05DD39400EC940040010EEFB40D0059
:10519000400302528F90519CF82828730251C30299
:1051A00051D40251E50251F6025207025216025240
:1051B000250252340252430252520252610252708C
:1051C00002527FEE6008E4900C62F002528F900C65
:1051D0006202528CEE6008E4900C63F002528F90F1
:1051E0000C6302528CEE6008E4900C64F002528F63
:1051F000900C6402528CEE6008E4900C65F0025250
:105200008F900C6502528CEE6007E4900C66F08083
:105210007E900C668076EE6007E4900C67F0806FFD
:10522000900C678067EE6007E4900C68F0806090F7
:105230000C688058EE6007E4900C69F08051900C87
:10524000698049EE6007E4900C6AF08042900C6A35
:10525000803AEE6007E4900C6BF08033900C6B802A
:105260002BEE6007E4900C6DF08024900C6D801C98
:10527000EE6007E4900C6CF08015900C6C800DEEE5
:105280006007E4900C72F08006900C7274FFF00FCF
:1052900002515A221282BF64017026D390051CE08D
:1052A000940090051BE09400400AA3E024FFF090D6
:1052B000051B8069128288402A9005257403F080BE
:1052C00069EF64034E701E128288400AA3E024FF37
:1052D000F090051F804712829640089005257402C1
:1052E000F0804780401282BF6402701E1282964096
:1052F0000AA3E024FFF090051D80221282A440083A
:105300009005257404F08022801BEF64044E701514
:105310001282A4400EA3E024FFF0900521E034FFA8
:10532000F080078000E4900525F0900525E06402F8
:105330007035C2D990052412827F7028900836F00B
:10534000A3F01282705014D2D812A68BC2D8125376
:10535000BD70EF900836E004F080E790052474FFFC
:10536000F0D2D822D2D822900525E064017035C24F
:10537000D890052312827F7028900836F0A3F0128F
:1053800082705014D2D912A68BC2D91253BD70EFBD
:10539000900836E004F080E790052374FFF0D2D93E
:1053A00022D2D9221282BF640370028006EF640405
:1053B0004E7005D2D9D2D822C2D9C2D8229008368E
:1053C000E0FEA3E0FFC374C89FFFE49EFE12A68B1D
:1053D000900837E004F022900514E0FF7E0070058D
:1053E00004F0A3F022EF64014E70261219D160037D
:1053F00002550D121A1C400302550DEE75F004A45F
:105400002408F974B035F0FA7BFF129387121AED75
:1054100022900514E06403700F7404121D42E4909E
:105420000517F07F4202A5E9900514E06404704975
:10543000128D8590066EE064137010121B55121DBC
:105440004A121D095030121A4F80F690066EE06421
:1054500014600302550D900517121BD75008E00485
:10546000121D42029F2D121B55121D4A121D09507A
:1054700005121A4F80F602A1CC900514E064057065
:10548000151219F4400302550D129B9C7406121B51
:10549000579000D3F022900514E06406702812198A
:1054A000F4506A1258A5129DC0129DE812A49E9055
:1054B00005147407121B5A9000D5F09000D4F07DAB
:1054C000327F4202A57D900514E064077010121926
:1054D000F4503AE4900565F0129F2DE4801D90058C
:1054E00014E0FF7E006408701B900516E0FD14F0C8
:1054F000ED1219FC5017E4900565F0900C74F0A3C0
:105500001219E122EF64094E700312A62C2243CF38
:10551000107F017E0012A7D01298CCE4FBFD7F0221
:10552000123775D2A012A7AB12A47412A7CD12A77E
:1055300042D2A1D2A2D2A312A4DCD2C0900526747A
:1055400001F07F057E0012A7D012A7997F057E008B
:1055500012A7D012A7C412A2FE129AC89001D2E0DC
:10556000FF12A7577F017E0012A7D0E4900836F003
:10557000900836E0FFC3946474809480501AEF75ED
:10558000F00A84E5F0700343CF1012A79F127C5AF3
:10559000900836E004F080D89000DBE0FF64016002
:1055A00003EF70137F7412A5E99000DC7480F09013
:1055B00005657422F0803EE4900565F09005327434
:1055C00008F0E49001D9F09006007408F012A1AD43
:1055D000EF3395E04F70077F3E12A5E980179005E5
:1055E00030E06401700F900547129EA7EF4E6005F2
:1055F0007F06129C609005307406F0E490052FF051
:10560000900836F0900836E0C39419748094805066
:105610003143CF10E49005FAF090083F74FFF07B1F
:10562000017D017F01128A7A7F147E0012A7D012B9
:10563000A7D99005FAE064016008900836E004F00C
:1056400080C22243CF1012A72D12A6C812A7501253
:105650009D7012A53943CF10E4900C9EF0A3F0A3E7
:10566000F0A3F0E49005FAF012A112129EAE43CF1F
:10567000107F147E0012A7D012A7D99005FAE0641B
:1056800001702B9005FCE0700520C302804A900C4D
:10569000A1E004F07006900CA0E004F0D3900CA1FF
:1056A000E0945E900CA0E094014050E4802AD390F6
:1056B0000837E09417129EC04024900C9FE004F03D
:1056C0007006900C9EE004F0D3900C9FE094029042
:1056D0000C9EE094004007E4900526F0801D9008A1
:1056E00037E004F07006900836E004F0C390083705
:1056F000E09419129EC0500302566E43CF109005DD
:1057000026E0600302566312A6ABC2C07F037E0090
:1057100012A7D0E4900C91F090052FE0640170275F
:10572000129EAF43CF107F017E0012A7D0900837A2
:10573000E004F07006900836E004F0C3900837E00B
:10574000940A129EC040DC129E5C12A4C812A77A72
:10575000129AFE129EAE900836E07004A3E0640137
:10576000601412A7C1400A900836E4F0A304F08048
:10577000E51299B280E02278387C087AB179B212C9
:105780001CF2900580E0640F700904121ADC7F643B
:1057900002A5E9900580E064017050121D78703810
:1057A000121CB4900583121CFD4027D3E0940A120A
:1057B0001C73501E9005807402F0E4900582F0A3E3
:1057C000E0FCA3E0FD7F017E001271F6E4900C1472
:1057D000F022121C63025870121D8960030258A443
:1057E0009005807416121C2DA3F022900580E064B1
:1057F00002702F9005821219F740030258A4121C60
:105800006D501890057E7401121ADC7B017A0879BC
:10581000381293879005807401F0229005807403FC
:10582000F022900580E064037049900583A3E0FFB7
:1058300012A330EF3395E04F702E900583A3E0FF65
:105840001299799005807415F09005827480F07D2E
:10585000327F4812A57DD3121C6D50059000D58073
:10586000039000D4E014F0229005807416121C34CA
:1058700002A57D900580E064157016900582E01405
:10588000F01219FC501E900580740FF012A2948043
:1058900010900580E06416700B9005821219F75085
:1058A0000312A7A522E4FFEFC394047480948050F0
:1058B00034741D2FF582E43401F58374FFF0743ADB
:1058C0002FF582E43401F58374FFF074212FF58203
:1058D000E43401F58374FFF0743E2FF582E4340163
:1058E0001214D880C29008C61210D512145612464F
:1058F0002B9008C612101312136D12462B9008C677
:105900001210FE12137512462B9008C612111F12A8
:10591000137D12462BE4FFEFC394037480948050F0
:105920003474282FF582E43401F58374FFF0744554
:105930002FF582E43401F58374FFF074252FF5828E
:10594000E43401F58374FFF074422FF582E43401EE
:105950001214D880C29008C61211087F3BFE12466E
:105960002B9008C612112912140B12462B9008C650
:1059700012115812136612462B9008C61211881283
:10598000141212462BE4FFEFC394027480948050EB
:105990001A742B2FF582E43401F58374FFF07448F8
:1059A0002FF582E434011214D880DC9008C612115D
:1059B0003312138512462B9008C612114E12138D06
:1059C00012462B027B369008ABEB121069E4120FE3
:1059D000619008AB1211157002FF22E49008AEF03E
:1059E000A3F09008AB120F3C12123524FFFFE5F034
:1059F00034FFFE9008AE1212D39E50201212FC907B
:105A000008B3E02FF09008B2E03400F09008AFE067
:105A100004F070CE9008AEE004F080C69008AB129F
:105A20000F3C1212351214A11215F8FFC00790088E
:105A3000B21211FA7D0A1216C0D00712A5DA900828
:105A4000AB120F3C1212351214A1EF121637E4906C
:105A500008AEF0A3F09008AB120F3C121235FFC352
:105A60009008AFE09F9008AEE095F0506EE490088B
:105A7000B0F0A3F09008AB120F3C1212359008B0B2
:105A80001212D295F050439008AEE0FEA3E0FF6DF5
:105A90007002EE6C60248F828E831215F8FF9008DE
:105AA000B0A3E0F5828C831215F8FD12A6DA9008F7
:105AB000AB120F3C9008B01212BC9008B1E004F099
:105AC00070B29008B0E004F080AA9008AFE004F053
:105AD00070069008AEE004F0025A557F012290044F
:105AE0004774FFF5F01216F6FEC3E5F09401EE22BE
:105AF000E004F0EFFB25E025E02400F582E434002B
:105B0000F583E4F0A3EBF025E025E02402F582E440
:105B10003400F58322741EF09004477401F0A374DE
:105B200040F0229005FAE06401229001D9F0E4905F
:105B300005FAF0229008C67B017A01799DE4F0A372
:105B40007420F07F127E032274EE2EF582E434007E
:105B5000F5832274E42FF582E43405F58322900165
:105B6000D97429F0A3742622EEC394207480948003
:105B7000227401F0EF25E025E02403F582E43400EF
:105B8000F58322FFED24FFFDEC34FFED5407FE7D8D
:105B900001F8ED08227B017A0079EEE4F0A374218C
