:0300000002A28BCE
:03000B0002C3B479
:0300130002C760C1
:03001B0002BADB4B
:0300230002D27393
:0300330002D47C78
:0300430002D29155
:03004B0002D4B12B
:03005B0002C6EBEF
:0300630002D4764E
:03006B0002C79A2F
:03007B0002CF5160
:0300830002BCE5D7
:03008B0002B7BBFE
:1001000090048BE06003020B3F1232B09013B4EF07
:10011000F0F4600312CD189004C5E012325D017C4A
:1001200000025F0102D302032F0503630602A00948
:10013000039F0A04320B04400C044E0D04780E0495
:10014000860F04931104AD1204BA1304E4140507D6
:1001500015051A16054417082219097F1A084F1B9E
:10016000088C1D0A3D24089F250A53260B1B2809CD
:10017000D82908F92A09C32B00000B3F9013B4E0DB
:10018000FF640D6011EF641B700C9004C57419F0CE
:100190009004797403F0900496E0FF640760030212
:1001A000022B120F6F5033EF64076003020B3F9076
:1001B00013D804F07410120E2012155C1214E150C2
:1001C0000E74C72E120F9690100EE004F080ED9082
:1001D00004967408F07F0102D4AB120EA370207F46
:1001E0000112D4AB90019D120CB3EF4E700474FF5A
:1001F000F022E490048EF0A3F090049304F0221215
:1002000014EE6003020B3F90019D120CB3BEFF1869
:10021000BFFF157F0112D4AB9004C5741DF0E490AC
:100220000455F090019DF02202CD5B9013B4E0FFE5
:10023000F47003020B3FEF640C7003020B3FE49079
:10024000019DF0900496E064096003020B3F7F017A
:1002500012D4AB900498E4F0A374F0F00208971263
:1002600011787003020472121128700302053E1205
:1002700014F570030204DE9013B4E064047003020A
:1002800008499013B4E064057003020B39120EA301
:100290006003020B3F120C3A120E877F60020A497C
:1002A000121178700F120B409004C57426F0E49080
:1002B000046FF022121128700F120B409004C574C5
:1002C00028F0E4900452F022120EA36003020B3FC8
:1002D00002042C9013B4E0FF6401600AEF64026032
:1002E00005EF64037004E4120C3A121178700F12D7
:1002F0000B4DE49004C3F09004C5740EF02212116B
:1003000028700F120B4DE49004C3F09004C5740BD9
:10031000F0221214F5700D120B5A1215879004C5B5
:10032000740DF022120EA36003020B3F02042C1284
:100330001178700F120B5A9004C57411F0E49001FB
:100340006FF0221211287010120B679004C57413FD
:10035000F090047D740AF022120EA36003020B3F9A
:1003600002042C1211787009120B6712140804F0A1
:10037000221211287009120B74121408020B301289
:1003800014F57010120B749004C57416F0900607E3
:10039000740FF022120EA36003020B3F02042C1212
:1003A00011787010120B819004C57417F01292A886
:1003B000120D8622121128700A120B819004C57446
:1003C0001B800D1214F5700C120B8E9004C5742A4C
:1003D000F0E4802E9013B4E064047010120B8E9041
:1003E00004C57425F0E4900593F080169013B4E0F2
:1003F00064057014120B9B9004C5741AF0E4900508
:10040000E1F012104602083D9013B4E06406701447
:10041000120B9B9004C57419F0E4900479F012104B
:1004200046020B30120EA36003020B3F120BA80210
:10043000D3129004C3E064016003020B3F02051273
:100440009004DBE064016003020B3F02051290069A
:1004500004E064086003020B3F1213CA700B90069D
:1004600005F09006047409F022EF640A4E6003025E
:100470000B3F120BA802D31F9004C3E0640160037A
:10048000020B3F0205129004DBE064016003020BE3
:100490003F807F90016FE0640170089013B4E0FF2B
:1004A00012ABA6120EA36003020B3F80319001E154
:1004B000E064016003020B3F805890047DE0640B10
:1004C0006003020B3F1213CA700B90047EF090047D
:1004D0007D740CF022EF640A4E6003020B3F120B96
:1004E000B502D3B89004C6E0640170028024900481
:1004F000C6E0640370030208979004C6E0640460D9
:1005000003020B3F0208979004DDE06401600302E0
:100510000B3F9013B4E0FF02ABA6900607E0641017
:100520006003020B3F1213CA700B900608F090068E
:10053000077411F022EF640A4E6003020B3F120BA6
:10054000B502D32C9013B5E0701C120EAA4008EF30
:1005500064096003020794120BDC9013BD12122E83
:100560007401F00207949013B5E06401702D120E2F
:10057000A3700302076F120EAA4008EF640960031C
:100580000207947F0112D4AB9013BD12112F901368
:10059000BDF09013B57402F00207949013B5E064B7
:1005A00002701B9013B4E0120FD3400302079412A1
:1005B0000BDC9013BC12122E7403F00207949013FC
:1005C000B5E064037041120EA3700302076F120EB0
:1005D000AA4008EF640960030207947F0112D4ABBC
:1005E0009013BC12112F9013BCF0D394127480940A
:1005F0008040037412F09013BCE0700204F090137A
:10060000B57404F00207949013B5E06404702212EC
:100610000EA3700302076F9013B4120DE54003029E
:100620000794120C049013BA12122E7405F00207EC
:10063000949013B5E064057041120EA37003020795
:100640006F120EAA4008EF640960030207947F014D
:1006500012D4AB9013BA12112F9013BAF0D3943175
:100660007480948040037431F09013BAE0700204F7
:10067000F09013B57406F00207949013B5E0640689
:100680007022120EA3700302076F9013B4120DC2F2
:100690004003020794120C049013B912122E74072F
:1006A000F00207949013B5E064077039120EA3703E
:1006B0000302076F120EAA4008EF640960030207E5
:1006C000947F0112D4AB9013B912112F9013B9F08B
:1006D000D394237480948040037423F09013B574F2
:1006E00008F00207949013B5E06408701E120EA380
:1006F0007002807B1212B74003020794120C2C90F8
:1007000013B812122E7409F00207949013B5E06426
:10071000097028120EA370028055120EAA4005EF30
:10072000640970707F0112D4AB9013B812112F902E
:1007300013B8F09013B5740AF080599013B5E064C3
:100740000A701F120EA3700280251212B7504512B4
:100750000C2C9013B7E0548F2FF09013B5740BF05E
:1007600080329013B5E0640B702A120EA370077FDD
:100770000112D4AB8019120EAA4005EF640970145F
:100780007F0112D4AB9013B712112F9013B7F0E47E
:100790009013B5F01214EE706F9013BDE0FF90133C
:1007A000BCE0FD9013BAE0FB12AEBF120F8B7002DB
:1007B000EEF4600302097C7F0112D4AB9013BDE01C
:1007C0009001A4F09013BCE09001A3F09013BAE064
:1007D0009001A1F09013BBE09001A2F09013B9E05A
:1007E0009001A0F09013B8E090019FF09013B7E053
:1007F00090019EF012C14A7F647E0012D4A57D3222
:100800007F4412D25202097C120EA36003020B3FF6
:10081000120BC212D3391292A8120D86E49013B5AE
:10082000F022900479E064016003020B3F1214EEA1
:10083000700F120BC2E490047AF09004797403F004
:1008400022120EA36003020B3F120BCF02097C128F
:10085000117870137AF57998120BEA9001EB74FF16
:10086000F012C21E02097C12112870127AF5799BCF
:10087000120BEAE49001EBF012C21E02097C120E88
:10088000A36003020B3F120BCF02097C900455E0DA
:1008900064016003020B3F9013B4E0FF020A3A9038
:1008A0000593E064016003020B3F1211787013900E
:1008B00000F8F09005937402F07BFF7AF579C2029C
:1008C00009AC12112870219000F804F090059304EF
:1008D000F0121417BEFF08BFFF057F7A020A497B9A
:1008E000FF7AF579C50209AC120EA36003020B3F33
:1008F000120BF7900593020B3012117870369000AE
:10090000F9120CB3EF4E702374FFF012CA77121075
:100910006B900485E4F0A37412F0E4900483F0A3D8
:10092000F0900487F0A3F0041214207AF579B01245
:100930000C12804812112870389000F9120CB3BEC6
:10094000FF26BFFF23E4F0900481F0A3F09004851C
:10095000F0A3F012CA771212517408F090048B744D
:1009600002F090048A74FFF07AF579B3120C1280C9
:100970000B120EA36003020B3F120BF702D3399048
:1009800005E1E064016003020B3F121178700E90E4
:1009900005E274FF1216567AF579D7800F121128E6
:1009A00070109005E21216567AF579DA12C2EC024E
:1009B0000A4C120EA36003020B3F120C1F9005E1BC
:1009C000020B309013B4E0FF640B6008EF640A6020
:1009D00003020B3F120E8722900496E0FF6407701B
:1009E0003B120F6F5032EF64076003020B3F90130E
:1009F000D804F09013D77410120E2312155C121441
:100A0000E1500E74C72E120F9690100EE004F08085
:100A1000ED9004967408F022120EA3229013B4E015
:100A2000FFF47003020B3F900496E0640960030238
:100A30000B3F900498F0A374F0F002A8689013B4F0
:100A4000E0F47003020B3F7F3012D2EA7F647E0035
:100A500002D4A590046FE064026003020B3F121100
:100A6000287049D390046CE0940090046BE09400EB
:100A70005003020B0F7F0112D4AB90046CE024FFF3
:100A8000F090046BE034FFF0C39004ADE094FF906D
:100A900004ACE09401500DA3E004F070069004ACA7
:100AA000E004F022E49004ACF0A3F0229013B4E050
:100AB000640870601212F5D390046AE09F90046994
:100AC000E09E404B7F0112D4AB9004AC1215A3946E
:100AD00000400DE024FFF09004ACE034FFF08020F3
:100AE000EF4E701C7FFF7E0112CE73EF3395E0FE58
:100AF000BEFF0DBFFF0A9004AC7401F0A374FFF0B9
:100B000090046CE004F0700690046BE004F0227F27
:100B10000702CAA5120EA37026801E900452E0643C
:100B200001701C1214EE700C7F0112D4AB900452B1
:100B30007402F022120EA37006120C1F12D353225D
:100B40007F0112D4AB7F647E0012D4A5227F0112F4
:100B5000D4AB7F647E0012D4A5227F0112D4AB7F78
:100B6000647E0012D4A5227F0112D4AB7F647E0084
:100B700012D4A5227F0112D4AB7F647E0012D4A5CB
:100B8000227F0112D4AB7F647E0012D4A5227F01A4
:100B900012D4AB7F647E0012D4A5227F0112D4ABA5
:100BA0007F647E0012D4A5227F0112D4AB7F647EC5
:100BB0000012D4A5227F0112D4AB7F647E0012D430
:100BC000A5227F0112D4AB7F647E0012D4A5227FC0
:100BD0000112D4AB7F647E0012D4A5227F0112D40F
:100BE000AB9013B4E0C454F0FF227BFF12C2EC7F41
:100BF000647E0012D4A5227F0112D4AB7F647E00F4
:100C000012D4A5227F0112D4AB9013B4E0C454F0E7
:100C1000FF227BFF12C2EC7F647E0012D4A5227FEC
:100C20000112D4AB7F647E0012D4A5227F0112D4BE
:100C3000AB9013B4E0C454F0FF229001F3F07F01B5
:100C400012B37C227AF379BB7BFFE490106BF02225
:100C50007AF379CB7BFFE490106BF022E0FF244520
:100C6000F582E43401F583E0FE901012E075F00E99
:100C7000A424D5F582E43404F583E5822FF582E4DB
:100C80003583F583EEF0901013E004F0227AF379C7
:100C9000F17BFFE490106BF022F9122E25FF9010EB
:100CA00014E0FBA3E0FAA3E0F9229013C574FFF06F
:100CB0009005DDE0FF3395E0FE227AF379D07BFFEB
:100CC000E490106BF022901012E0FF75F00EA42457
:100CD000D4F582E43404F583EFF0EF75F00EA4242C
:100CE000E1F582E43404F58374AAF022E090010A6D
:100CF000F07A0179097B0190102BE4F0A3227AF3BA
:100D000079E97BFFE490106BF02290073E74FFF5C9
:100D1000F0122F56FEC3E5F09401EE9400229004E9
:100D2000C2E0FF14F0EFC3940174809480227AF43F
:100D3000790B7BFFE490106BF0227A1079107B0125
:100D400090123CE4F0A3227BFF7AF379B6E4901092
:100D50006BF0227AF679CC7BFFE490106BF022F0F6
:100D6000A3F0A3F09004C5F09004967407F0E4900B
:100D700001F4F09005967407F0227AF379BF7BFFB7
:100D8000E490106BF0229001A4E09013BDF090016C
:100D9000A3E09013BCF09001A1E09013BAF0900191
:100DA000A2E09013BBF09001A0E09013B9F0900185
:100DB0009FE09013B8F090019EE09013B7F022905E
:100DC0001013E0C3940374809480227AF7790C7B2B
:100DD000FFE490106BF0227D017BFF7E007F070215
:100DE0002DE6901013E0C394047480948022741054
:100DF000901061F0A374FFF0A322EF75F00EA4240D
:100E0000E3F582E43404F583E5822EF582E435834C
:100E1000F5832274049004C6F0E49013D8F0740CA7
:100E20009013D7F09013D97401F0229000F7E0FFEF
:100E30007E00D39400748094802235F0FA7BFFE02A
:100E400025E0FFE490106BF0FD229013C3E0FFA3B8
:100E5000E0FEC39F229004C67413F07406A3F0A3AF
:100E6000E4F0A37480F0229004B2E054F1F0E49036
:100E700004B7F09004B2E0540F22900477E0FEA390
:100E8000E0FF7C00022ECB9004967407F09005964C
:100E9000F0E49001F4F09004C5F0227BFFE49010A0
:100EA0006BF0229013B4E0640A229013B4E0FF7E4A
:100EB00000C3940974809480227D017BFF7E007FB3
:100EC0000C022DE6740E9004DBF09004DA7480229C
:100ED000E0C4540FFB9010367401F022901013E020
:100EE000C3940C74809480227BFFE490106BF022FA
:100EF000EF75F00EA424EFF582E43404F58374FF5B
:100F0000F0EF75F00EA424E2F582E43404F58322B8
:100F1000901012E075F00EA424D5F9740435F0FA9F
:100F20009010177401F0A3EAF0A3E9F0227BFFE42C
:100F300090106BF022E004F0EFFB25E025E02400A8
:100F4000F582E43400F583E4F0A3EBF025E025E03E
:100F50002402F582E43400F58322900590E06401D8
:100F6000227422F09004627401F0A37440F0229085
:100F700013B4E0FDC3940A74809480227D64E0FE83
:100F8000A3E0FF7C00022ECB12CDBCEF3395E0FE38
:100F9000EFF42274C72FF582E43413F58374FFF065
:100FA000227D017BFF7E007F06022DE6E0FBE490C0
:100FB0001061F022900604740AF09006067480F026
:100FC000E4900590F0227BFFE490106BF0229010EB
:100FD00013E0FFC394027480948022FF24FCF58206
:100FE00074FF3EF583ECF0A3EDF074FE2FF58274F0
:100FF000FF3EF5837401F074FF2FF58274FF3EF518
:1010000083227BFFE490106BF0227AF379A77BFFB9
:1010100090106BF022EF75F006A424FBF582E5F04A
:101020003401F583227F0A7E00CFCDCFCECCCE1205
:101030002ECBAB07E4901036F0227D017BFF7E00C3
:101040007F08022DE6E49013C4F09013C3229001B0
:10105000F174FFF5F0122F56FCC3E5F09401EC9407
:101060000022E0C394647480948022900481EF2471
:1010700012FEE433F0A3CEF0227BFFE490106BF07D
:10108000229004B2E054F1229004C3740CF0900456
:1010900068E09004C4F09004C27480F0229013C4FD
:1010A000E004F0229013C6E06401227AF479047B14
:1010B000FF90106BF0229000F2E0FB7A00E49010B9
:1010C00023F0229004D9E024FFFF9004D8E034FFFD
:1010D000FE22EF75F00EA424EFF582E43404F583CC
:1010E000227BFFE490106BF0227D017BFF7E0002EB
:1010F0002DE67BFF90106BF07D24229000CC74FFD6
:10110000F0A3742BF0A374F22212CDBCEF3395E060
:10111000FE22F583E0FE74FB2FF582E43400F583B4
:10112000EEF0901013E0FF229013B4E0640222E08E
:1011300054F0FF9013B4E02F229004C87402F0A37F
:101140007480F09004D1E06401227C007D0AE0FE0E
:10115000A3E0FF022ECB901012E075F00EA424E362
:10116000F582E43404F583E58222900739F0900794
:101170003EE4F0A37440F0229013B4E0640122F046
:10118000E49000C8F0A3F0A3F09000F8E02274010E
:10119000F0EF25E025E02403F582E43400F5832216
:1011A000E0FDC4540F75F00AA4FFED540F7C002F2E
:1011B000FFEC35F0CF24D0CF340722E4F074219037
:1011C00004C5F09000F52204F0E49013C2F07F64AF
:1011D00022FF24FCF58274FF3EF58374FFF0A3F038
:1011E00074FE2FF58274FF3EF583E422EF75F0065E
:1011F000A424F6F582E5F03401F58322F012CF1D28
:101200009000D3EFF012CFB59000D5EFF012CF37AA
:101210009000D4EFF0229013C4C3E094057480943E
:101220008022F0A37401F07BFF7AF579E522E05487
:101230000F2FF09013B522F583E0FE74032FF58293
:10124000E4340122F583E0FE74202FF582E43401BA
:1012500022EF2412FEE433900483F0A3CEF0900436
:1012600087E4F0A3229001F47429F0A37426227D70
:10127000017BFF7E00022DE69013C2E0FF7E00643A
:1012800002227B01E4901038F0229013BEE0FCA310
:10129000E09004D8FDECF0A3EDF0229004C67413A6
:1012A000F0A3227BFFE490106BF022900479F09081
:1012B000047B7440F0E4229013B4E0C3940674807D
:1012C000948022E0C394197480948022747C2EF55B
:1012D00082E43405F58322122E25FE75F006EFA474
:1012E00022900151E0FF901012E06F229004BAE0CA
:1012F000C31354072290046CE090046B2401FFE0B8
:101300003400FE227E009004C0EEF0A3EFF024FF34
:10131000FFEE34FFFE22E004F09004C0E0FCA3E006
:10132000FDAE04229004DB740EF0A3740CF0E422F2
:101330009006047413F09005927426227B017A01C2
:1013400079F67402F0A37458F07F207E0022F0A397
:101350007403F0A37480F07D347F4822F583E0FEAF
:1013600074FF2FF582E4340022F583E0FE741C2F15
:10137000F582E43401229004C87402F0A37480F072
:10138000228F82758300022E2590102474FFF02294
:10139000E4F0A374C0F0229013C574FFF0227B0127
:1013A0007A1379C7229004967407F0229004DAE049
:1013B00014F02290100EE004F0227BFFE49010382D
:1013C000F0229004BAE0C4540F229013B4E0FF7EE0
:1013D00000640B22E0FDC4540F75F00AA4FCED5428
:1013E0000F2C2275F006A424F0F582E5F03401F507
:1013F0008322E0900127F07B017A01792622900474
:10140000C874FFF5F0022F6C9004C57414F0E490DA
:1014100004C6F09004D12212C32FEF3395E0FE22D0
:1014200090048BF090048974FFF022E0FF2440F5D3
:1014300082E43401F583E0FE22E0FF245DF582E4DE
:101440003401F583E0FE229000EDE4F0A3F0A3F078
:10145000229000F8E064012274EFF0A37494F0E4A9
:10146000A3F07B1B22EFC394327480948022740318
:10147000F0E4900467F09013C2F022900000F0A313
:10148000F022E014F09004D8E0FEA3E07802227588
:10149000F006A424F1F582E5F0340122F583E0FEA4
:1014A00074182FF582E43401229004C6F0E49013FE
:1014B000C22274F3F0A374192274F3F0A3743922D6
:1014C0009000DC7480F09004C5741FF02290100E20
:1014D00074FFF022900477E0FEA3E0FF7C037DE838
:1014E000229013D7E0FF90100EE0FEC39F229013CE
:1014F000B4E0640B229013B4E0640322E024FFF014
:101500009000F5E034FFF0229001F4E0FF7E00222D
:10151000900496E0FF7E00229004DB7402F0E490D9
:1015200005DEF022A424F5F582E5F03401F58322EE
:10153000EC04FF12CF9CEF3395E0FE22C3940874B5
:10154000809480227BFFE490106BF0227B01E4907A
:101550001038F0229000F1E0FD7C00229013C7EDDE
:10156000F090100E7401F0229013C1E0FF9013C0B0
:10157000E09F22900496F090049822901017E0FBD0
:10158000A3E0FAA3E022F09006047411F022900484
:10159000C57405F0227B017A06790C227B0190103C
:1015A0006BF022E0FEA3E0FFD39400EE22C39FEE97
:1015B0006480F8748098229013D9E064022290131A
:1015C000D9E064032290016F7405F022E0FF243516
:1015D000F582E43401227B017A0079FB227B017AD7
:1015E00001790622E0FF243DF582E43401227B01EB
:1015F0007A017918227B017A01792322E0FF2462A3
:10160000F582E4340122E0FF2452F582E434012221
:10161000E0FF245AF582E4340122740CF0A3E4F0D4
:10162000A304F0229004E1E0640122900455F0E468
:101630009001F4F022E490106BF07D1E7F03227481
:10164000FFF0900739227B037D037F03227D017B1E
:10165000FF7E00022DE6F09005E17402F07BFF2290
:101660007B017A01797B22E490100DF090100CF050
:1016700022411482004214640000421466000042B9
:10168000146800004114630044146A000000004222
:10169000146E0000C117C11850142C0011223344DD
:1016A0005566778899AABBCCDDEEFF44143C000058
:1016B0000000C11DC10AC107C108C109C10EC10B8B
:1016C000C10CC10DC10FC110C111C1124C14441F76
:1016D0001C1F1E1F1E1F1F1E1F1E1F421321000046
:1016E000C115C113C116C114C11EC11F411483000D
:1016F000C12064000C060000000000000000000093
:1017000000000000000000000000000000000000D9
:1017100000000000000000000000000000000000C9
:1017200000000000000000000000000000000000B9
:1017300000000000000000000000000000000000A9
:101AF0000000000000004613DCFFFFFFFFFFFF4275
:101B00001429000041141100441413000000004186
:101B1000147D0241147E0041147F00560740736C0F
:101B20005F67656E657269635F76312E302E302E89
:101B30003030330063E80756013B01A400FE006922
:101B40000201019A01C201A9019F015E020B007D01
:101B500000D2008F008600C9013A00FA006600D664
:101B600001C30087008201B3006800990191013030
:101B700001C400EA00CC01A5012D008C0084019570
:101B800001450208013101AE016000F1019D00FD37
:101B9000012E0091007800F0019C021401F500FB79
:101BA0000144019201410159013601F700E700D5D6
:101BB00001F6015F021F008E0162020C00EB0216AB
:101BC000013801FE00CB0154009A020200D700F355
:101BD000021E021200960200021C01C500E6021D50
:101BE000007C01F8019301550209015601B001AFD3
:101BF000006700CD01A70213007B00F501400098AB
:101C000000CE0234028D01A00278008C020902800D
:101C1000020800F5027A00A4007E01A4025B00E63F
:101C2000007C006601FA01F50200026200880212DF
:101C3000006A01CF020100EB020B009A014600820C
:101C40000140025D009101AA0136013B01CD015521
:101C50000108020C028101F800960193020E019521
:101C6000023301F600FD01B0019601A5028A016C64
:101C7000023101B40109008601AE0068012D01B3F3
:101C800001AF00F30271021E008E009C0267010585
:101C900000A000F00132027000A20266028E00CDA8
:101CA000008F0276026F00D6021D028301FE00A59E
:101CB000014402300098019C021400D5016400D256
:101CC000028501F7025A00FB020B022301FE0164A8
:101CD00000AF0108013C00D6028202C000CF008C98
:101CE00001C4016000FD020E01C50202025B016F2A
:101CF00002F002DB013302A101D7014600A502FC7C
:101D0000006A02C902F801C2019D006900F3020FD6
:101D1000027701DB0278027A02DC025D019101A701
:101D200002E50240007E0132015E00A2026902D596
:101D300000A001F700F6010100A300E700C9028A34
:101D400001D30285019C0214015601590201009C35
:101D500000D202FD006B01000197019302080165AA
:101D6000029E01B5010F013800F7023100EB023489
:101D7000009D02F202A201CF02D3014000AA00D7C7
:101D800001D8016C02E4019201730237016D011266
:101D900002E701F70277027401A0011E030F00F7AA
:101DA00002A0016C017C026401D402C800A2015AA5
:101DB00002A8035902A3032700ED013C0169008E2C
:101DC000026502E0009E03450288015F01AE0160EA
:101DD00002DE00800164021F010E032F01A40339FB
:101DE000033102CE02BE019F034902A601AC02707C
:101DF000025B00AA0209006A0195036901340259D5
:101E000002BD020E02CC02EE009A0204034E00A4B0
:101E100001070269017001E7019D02380092036C1D
:101E200001B00231031201D8023001A101AF01FE5D
:101E300002E901FB007D032601E2017A034F027DE6
:101E400002FD02C20100034D01DC023A01410146DC
:101E5000020100EE02EA02FB00AE00C000D203BDA8
:101E600002D0035B00B202F603BE0069015A0233DE
:101E700001A30252037C024500D001120317015C4A
:101E80000208017302DF025903B7009E02F000CF7F
:101E90000339032F035C018E03D402BF0348016999
:101EA000027400D601B400F800DA034B023B019C37
:101EB000038A009F03C202C900C9028703CA00E661
:101EC0000349033F037E01DE03860181024400A72C
:101ED00000BE024F036A029300BD02A302FC00BAD7
:101EE0000167016D009401A403AC01E2024E018080
:101EF00002E002F2036703C8017203B101B303A455
:101F0000019A02070366018801D5013602B60187EE
:101F10000182013A03D7038C01780322012903913E
:101F200060C80B3EBB2B32FEA12B47C19CF2953FF4
:101F30006426B6E1B40376D3C72A2A908F6029437A
:101F4000484A6DA1C4A6525E4C5177EACF7590B64F
:101F500078846BACCAFFB919C5B4BBBBA0157C10A3
:101F6000C3F2DE45B6D5A455A7DAE71FCC5D6D4CAC
:101F7000395A7C24CBD7D23BDC083A804C5BDF5EFD
:101F80003F9890D97DC58D1D34E4549B30B4BF3744
:101F90009D562A4D3A3BD68973BE44E2283A909A20
:101FA000A8FB5E5D7FFD4FE56D6F7BC46EB988CA8F
:101FB000BC30CB49BB319FD5D623378064BD8794D5
:101FC000A74138E39B42518AE3344D167E9128FFA6
:101FD000BCF7BC2F92E2555EBD0D6BACE350A192F5
:101FE000DAD85C98393A65C0B8CD6FCB4113B4FFED
:101FF00041131F00C104C102C103C100C101C105D9
:102000000155004112600042129D00004114600021
:1020100000901021EFF0E4901029F0901021E0FFE3
:1020200025E02425F8E6FC08E6FD75F002EFA4247F
:1020300061F582E5F03412F583E0FEA3E0C39DFF75
:10204000EE9C901022F0A3EFF0E47F01FEFDFC90E7
:102050001021E0F9F81231CC8F0F8E0E8D0D8C0C03
:10206000AF0112D463901027EEF0A3EFF0C39010ED
:1020700023E09FEE6480F8901022E064809840088E
:102080009010247401F08005E4901024F090102446
:10209000E06401600302228D901021E0FF2479F5B5
:1020A00082E43412F583E0C394FA74809480500D76
:1020B00074792FF582E43412F583E004F0E50B55D2
:1020C0000FFFE50A550EFEE509550DFDE508550C17
:1020D000FCE4FBFAF9F8C31231A860030222539022
:1020E0001244E0901026F012D4B4EF6047E4901050
:1020F00024F0A3F0901025E0FFC3951050227479CE
:102100002FF582E43412F583E0C394017480948047
:102110004006901024E004F0901025E004F080D4F4
:10212000901024E0C394037480948040079010269C
:10213000E0240FF0901021E02479F582E43412F5C8
:1021400083E0FF901026E0FEEFC39E50030222536F
:10215000E4901024F012D41BEF60030221E09010F1
:1021600025F0901025E0FFC39510502C901021E031
:102170006F601D12D3C2901025E02479F582E434FB
:1021800012F583E0C39F40089010247401F080088A
:10219000901025E004F080CA12D4B4EF3395E04FDC
:1021A0006003022231901024E06003022231A3F088
:1021B000901025E0FFC395105077901021E06F60DC
:1021C0001712D3C2901025E02485F582E43412F56D
:1021D00083E0C39F40028053901025E004F080D03C
:1021E00012D4B4EF3395E04F7047901026F0901062
:1021F00025F0901025E0FFC39510502274792FF53B
:1022000082E43412F583E0C3940274809480400623
:10221000901026E004F0901025E004F080D4901097
:1022200026E0C394037480948040069010247401C7
:10223000F0901024E064017002D219E50B450FF50F
:102240000BE50A450EF50AE509450DF509E50845D2
:102250000CF508901021E0FF24B7F582E43412F564
:1022600083E4F074132FF582E43413F583E4F075FE
:10227000F002EFA4249FF582E5F03412F583E4F038
:10228000A3F074482FF582E4341202261C9010212A
:10229000E0FF12D10E901022E0FCA3E0FDD39FEEF0
:1022A0006480F8EC6480984012901021E02485F559
:1022B00082E43412F583E004F08015901462E004A7
:1022C000F0901021E02485F582E43412F583E4F0E7
:1022D0009012FAE0FF3395E0FEC3E49FFBE49EFA20
:1022E000C3ED9BEA6480F8EC64809850030223E518
:1022F000D3901023E09FEE6480F8901022E0648079
:102300009840030223E5901021E0FF24B7F582E412
:102310003412F583E4F074482FF582E43412F58327
:10232000E4F0FFFEFDFCAB0BAA0AA909A808C31242
:1023300031A86003022521901022E0FEA3E0FF9067
:102340001021E075F002A4249FF582E5F03412F527
:1023500083EE8FF0122F5612D3A3901021E075F068
:1023600002A4249FF582E5F03412F583E0FCA3E09B
:10237000C39FEE6480F8EC6480984013901021E0D5
:10238000FF25E02425F80806E61870430680401271
:10239000D3A3C3E49FFFE49EFE901021E075F002FA
:1023A000A4249FF582E5F03412F583E0FCA3E0C39A
:1023B0009FEE6480F8EC6480984003022521901021
:1023C00021E0FF25E02425F808E6161870011675AF
:1023D000F002EFA4249FF582E5F03412F583E4F0D7
:1023E000A3F00225219012FAE0FF3395E0FEC3E44A
:1023F0009FFFE49EFEC3901023E09FEE6480F89060
:102400001022E06480984003022497901021E0FF9E
:1024100024B7F582E43412F583E004F074482FF514
:1024200082E43412F583E4F074B72FF582E43412B9
:10243000F583E0FF75F00A84E5F07046C3EF94641D
:1024400074809480901021E0401424B7F582E43425
:1024500012F583E4F0D21A90131F04F0802425E0D3
:102460002425F8C000E6FE08E6FF9012FAE0A2E795
:1024700013FD3395E0FCC3EF9DFFEE9CD000F60802
:10248000A607901021E0FF90145BE06F6003022527
:102490002174FFF00225219012FAE0FF3395E0FE4F
:1024A000D3901023E09FEE6480F8901022E06480C7
:1024B00098406E901021E024B7F582E43412F58341
:1024C000E4F0FFFEFDFCAB0BAA0AA909A808C312A1
:1024D00031A8704D901021E0FF2448F582E43412B9
:1024E000F583E004F074482FF582E43412F583E0BC
:1024F0006420702D901021E0FF2448F582E434120E
:10250000F583E4F09012FAE0A2E713A2E713FD339B
:1025100095E0FCEF25E02425F808ED26F618EC36CA
:10252000F6E50B550FFFE50A550EFEE509550DFDC5
:10253000E508550C4D4E4F7003022632901027E0EF
:10254000FCA3E0FDAE047802CEA2E713CE13D8F8C8
:10255000FFC3ED9FFFEC9EFEC3901023E09FEE644F
:1025600080F8901022E064809840030226219010A9
:1025700021E02413F582E43413F583E004F012D44F
:1025800023901026EFF0E4901025F0901025E0FF46
:10259000C39510502274792FF582E43412F583E04C
:1025A000C39401748094804006901024E004F0905D
:1025B0001025E004F080D4901024E0C394037480CC
:1025C00094804008901244E0901026F0901021E092
:1025D000FB2413F582E43413F583E0FF901026E02A
:1025E000FEEFC39E50030226A174132BF582E43440
:1025F00013F583E4F0AF0FAE0EAD0DAC0C12319BB2
:10260000E50B5FF50BE50A5EF50AE5095DF509E501
:10261000085CF50874792BF582E43412F583E4F054
:1026200022901021E02413F582E43413F583E014A2
:10263000F022901021E02479F582E43412F583E44D
:10264000F0FFFEFDFCAB0BAA0AA909A808C31231D2
:10265000A87008901021E0FF12A14FE51014FF9020
:102660001021E06F703B901462E0C395104032E49B
:10267000901025F0901025E0FFC39510501B747941
:102680002FF582E43412F583E06006901024740183
:10269000F0901025E004F080DB901024E07002C27E
:1026A000192290100FEB120F25A3EDF0E4A3F01206
:1026B0000EDC501590100F120CA1901013E0FFF5D6
:1026C00082121383120C6880E67B017A017945122D
:1026D0000D40740CF07F73122D047A017962120D93
:1026E00040740CF07F85122D047A017951120D404F
:1026F00004F07F807E0312C0BB7B017A01796E12E9
:102700000D4004F07F927E0312C0BB120F107B01BC
:102710007A0179451281EA120F8B7002EEF46003A0
:1027200002289E1212E160030227DCA3F0120EDCE5
:102730005005120C5C80F6120CC612D1C07B017AD7
:10274000017935120D40122C707A017939120D4041
:10275000122C10120DE250151215CC121112243940
:10276000F582E4340112135C120C8280E61215D655
:10277000120CF7122C037A0079FF120CF7122C3C82
:102780007A017940120D40122BF4120DBF50101235
:10279000142B74062FF582E43401120C8280EB12A4
:1027A00015DD120CF7122C7D7A017943120D4012BF
:1027B0002CD7900109F0900144120CEC122C497AAC
:1027C00001793D120D40122C2D120DBF4003022A3B
:1027D000FD1215E4121237120C8280ED90016E1278
:1027E00012E46003022BF1A3F0120EDC5005120C70
:1027F0005C80F6120CC612D1D37B017A01793512B6
:102800000D40122C707A017939120D40122C1012E1
:102810000DE250181215CC12149C12111E2439F519
:1028200082E43401121369120C8280E31215EE1255
:102830000CF7122C207A01791C120CF7122C897AD1
:10284000017940120D40122BF4120DBF50101214DA
:102850002B74232FF582E43401120C8280EB1215C5
:10286000F5120CF7122CB37A017943120D40122C99
:10287000D7900126F09001441213F2120CF7122C9B
:10288000BF7A01793D120D40122C2D120DBF40036D
:10289000022BD71215E4121244120C8280ED120F93
:1028A000107B017A0179621281EA120F8B7002EEBD
:1028B000F46003022A371212E16003022972A3F0C6
:1028C000120EDC50081215FC120C6580F3120CC6B7
:1028D00012D1C07B017A017952120D40122CA67AD6
:1028E000017956120D40122C96120DE25015121657
:1028F000061211122456F582E4340112135C120CF4
:102900008280E61215D6120CF7122C037A0079FF9A
:10291000120CF7122C3C7A01795D120D40122C56E4
:10292000120DBF501012143974062FF582E43401D1
:10293000120C8280EB1215DD120CF7122C7D7A013D
:102940007960120D40122CE6900109F0900161129D
:102950000CEC122C497A01795A120D40122CF51206
:102960000DBF500B121610121237120C8280F0029B
:102970002AFD90016E1212E46003022BF1A3F01203
:102980000EDC50081215FC120C6580F3120CC612F6
:10299000D1D37B017A017952120D40122CA67A0113
:1029A0007956120D40122C96120DE250181216068E
:1029B00012149C12111E2456F582E434011213697C
:1029C000120C8280E31215EE120CF7122C207A0101
:1029D000791C120CF7122C897A01795D120D4012C4
:1029E0002C56120DBF501012143974232FF582E4A7
:1029F0003401120C8280EB1215F5120CF7122CB375
:102A00007A017960120D40122CE6900126F09001B7
:102A1000611213F2120CF7122CBF7A01795A120DBF
:102A200040122CF5120DBF500B1216101212441248
:102A30000C8280F0022BD7901012E0640160030238
:102A40002B0E120CC912D1C0E4901013F0120DE23B
:102A50005018E0FF24FBF582E43400F583E4F01223
:102A60001360F583E4120C8580E31215D6120CF77F
:102A70007404F07FA07E031265F37B017A0079FF76
:102A8000120CF77404F07F32122C65120DBF50182F
:102A9000E0FF2406F582E43401F583E4F012123BF2
:102AA000F583E4120C8580E31215DD120CF7740334
:102AB000F07F3BFE1265F37B017A017903120CF77C
:102AC0007403F07F37122D0C120FCE501074092FA3
:102AD000F582E43401F583E4120C8580EB120CF1ED
:102AE0007402F07F3F122C65901013E0FF120DC3AB
:102AF000500B12123BF583E4120C8580EB7B017ABC
:102B0000017903120CF77403F07F37022BE5901064
:102B100012E064026003022BEB120CC912D1D3E461
:102B2000901013F0120DE25018E0FF2418F582E423
:102B30003401F583E4F012136DF583E4120C858003
:102B4000E31215EE120CF77404F07FA67E031265F3
:102B5000F37B017A01791C120CF77404F07F4212A6
:102B60002CCC120DBF5018E0FF2423F582E4340171
:102B7000F583E4F0121248F583E4120C8580E31229
:102B800015F5120CF77403F07F4BFE1265F37B0111
:102B90007A017920120CF77403F07F47122D0C1282
:102BA0000FCE501074262FF582E43401F583E41221
:102BB0000C8580EB1213F7120CF77402F07F4F12A2
:102BC0002CCC901013E0FF120DC3500B121248F5DD
:102BD00083E4120C8580EB7B017A017920120CF7DB
:102BE0007403F07F47FE1265F38006120CC612D103
:102BF000C07FFF227403F07F5BFE12C0BBE4901025
:102C000013F0227404F07FA07E031265F37B01228F
:102C10007404F07F527E0312C0BBE4901013F022C4
:102C20007404F07FA67E031265F37B01227403F027
:102C30007F57FE12C0BBE4901013F0227404F07FA3
:102C4000327E031265F37B01227402F07F3F7E0324
:102C50001265F37B01227403F07F6BFE12C0BBE4AC
:102C6000901013F0227E031265F3E4901013F0220B
:102C70007404F07FAD7E0312C0BB7B01227403F0AD
:102C80007F3BFE1265F37B01227404F07F427E03DA
:102C90001265F37B01227404F07F627E0312C0BBD5
:102CA000E4901013F0227404F07FB47E0312C0BBD2
:102CB0007B01227403F07F4BFE1265F37B012274CB
:102CC00002F07F4F7E031265F37B01227E031265C3
:102CD000F3E4901013F0227402F07F5F7E0312C0C1
:102CE000BB900143E0227402F07F6F7E0312C0BBF1
:102CF000900160E0227403F07F67FE12C0BBE49095
:102D00001013F0227E0312C0BB7B0122FE1265F37A
:102D1000E4901013F022E709F608DFFA8046E7098D
:102D2000F208DFFA803E88828C83E709F0A3DFFA9D
:102D30008032E309F608DFFA8078E309F208DFFA67
:102D4000807088828C83E309F0A3DFFA8064898233
:102D50008A83E0A3F608DFFA805889828A83E0A399
:102D6000F208DFFA804C80D280FA80C680D4806975
:102D700080F28033801080A680EA809A80A880DA72
:102D800080E280CA803389828A83ECFAE493A3C804
:102D9000C582C8CCC583CCF0A3C8C582C8CCC583C6
:102DA000CCDFE9DEE7800D89828A83E493A3F6080D
:102DB000DFF9ECFAA9F0EDFB2289828A83ECFAE0D4
:102DC000A3C8C582C8CCC583CCF0A3C8C582C8CC73
:102DD000C583CCDFEADEE880DB89828A83E493A3C3
:102DE000F208DFF980CC88F0EF60010E4E60C388F6
:102DF000F0ED2402B4040050B9F582EB2402B404CF
:102E00000050AF2323458223902D6673BB010689B2
:102E1000828A83E0225002E722BBFE02E3228982FB
:102E20008A83E49322BB010CE58229F582E5833A8B
:102E3000F583E0225006E92582F8E622BBFE06E98A
:102E40002582F8E222E58229F582E5833AF583E4DA
:102E50009322BB010FF8E58229F582E5833AF583D9
:102E6000E028F0225009C58229F8E58226F622BB27
:102E7000FE09C58229F8E22582F222F8EA2583F5C7
:102E800083E9932822BB010689828A83F0225002BB
:102E9000F722BBFE01F322F8BB010DE58229F58282
:102EA000E5833AF583E8F0225006E92582C8F62248
:102EB000BBFE05E92582C8F222EF8DF0A4A8F0CF71
:102EC0008CF0A428CE8DF0A42EFE22BC000BBE00F8
:102ED00029EF8DF084FFADF022E4CCF875F008EF17
:102EE0002FFFEE33FEEC33FCEE9DEC984005FCEE3C
:102EF0009DFE0FD5F0E9E4CEFD22EDF8F5F0EE846D
:102F000020D21CFEADF075F008EF2FFFED33FD4031
:102F100007985006D5F0F222C398FD0FD5F0EA22AB
:102F2000C2D5EC30E709B2D5E4C39DFDE49CFCEECC
:102F300030E715B2D5E4C39FFFE49EFE122ECBC34B
:102F4000E49DFDE49CFC8003122ECB30D507C3E446
:102F50009FFFE49EFE22C5F0F8A3E028F0C5F0F83C
:102F6000E582158270021583E038F022A3F8E0C5EF
:102F7000F025F0F0E582158270021583E0C838F084
:102F8000E822BB010A89828A83E0F5F0A3E022509F
:102F90000687F009E71922BBFE07E3F5F009E319FC
:102FA0002289828A83E493F5F074019322BB011095
:102FB000E58229F582E5833AF583E0F5F0A3E02286
:102FC0005009E92582F886F008E622BBFE0AE925C9
:102FD00082F8E2F5F008E222E5832AF583E993F529
:102FE000F0A3E99322BB010DC58229C582C5833AAE
:102FF000C583022F565011C58229F808E5F026F640
:1030000018F5F0E58236F622BBFE11C58229F808D4
:10301000E225F0F5F0F218E23582F222F8E5822995
:10302000F582E5832AF58374019325F0F5F0E493A6
:103030003822BB010A89828A83F0E5F0A3F022508E
:1030400006F709A7F01922BBFE06F3E5F009F3190C
:1030500022F8BB0111E58229F582E5833AF583E880
:10306000F0E5F0A3F0225009E92582C8F608A6F0A1
:1030700022BBFE09E92582C8F2E5F008F222E88FBA
:10308000F0A4CC8BF0A42CFCE98EF0A42CFC8AF0EC
:10309000EDA42CFCEA8EF0A4CDA8F08BF0A42DCCEE
:1030A0003825F0FDE98FF0A42CCD35F0FCEB8EF047
:1030B000A4FEA9F0EB8FF0A4CFC5F02ECD39FEE42D
:1030C0003CFCEAA42DCE35F0FDE43CFC2275F00872
:1030D000758200EF2FFFEE33FECD33CDCC33CCC560
:1030E0008233C5829BED9AEC99E58298400CF5827B
:1030F000EE9BFEED9AFDEC99FC0FD5F0D6E4CEFBED
:10310000E4CDFAE4CCF9A88222B800C1B90059BADA
:10311000002DEC8BF084CFCECDFCE5F0CBF9781808
:10312000EF2FFFEE33FEED33FDEC33FCEB33FB1002
:10313000D703994004EB99FB0FD8E5E4F9FA22781C
:1031400018EF2FFFEE33FEED33FDEC33FCC933C92E
:1031500010D7059BE99A4007EC9BFCE99AF90FD838
:10316000E0E4C9FAE4CCFB2275F010EF2FFFEE3358
:10317000FEED33FDCC33CCC833C810D7079BEC9A97
:10318000E899400AED9BFDEC9AFCE899F80FD5F020
:10319000DAE4CDFBE4CCFAE4C8F922CFF4CFCEF4E4
:1031A000CECDF4CDCCF4CC22EB9FF5F0EA9E42F0EC
:1031B000E99D42F0E89C45F022E8600FECC313FC67
:1031C000ED13FDEE13FEEF13FFD8F122E8600FEFD1
:1031D000C333FFEE33FEED33FDEC33FCD8F1227444
:1031E00001FF3395E0FEFDFCA3A3A3E0CF2FF0E5A4
:1031F00082158270021583E0CE3EF0E58215827062
:10320000021583E0CD3DF0E582158270021583E062
:10321000CC3CF022ECF0A3EDF0A3EEF0A3EFF02213
:10322000A8828583F0D083D08212323712323712CF
:103230003237123237E473E493A3C583C5F0C583F4
:10324000C8C582C8F0A3C583C5F0C583C8C582C8F8
:1032500022A42582F582E5F03583F58322D083D040
:1032600082F8E4937012740193700DA3A393F87421
:103270000193F5828883E4737402936860EFA3A3DB
:10328000A380DFEC8EF0A4CCC5F0CCCDF8EFA4CEBB
:10329000C5F02DFDE43CFCE8A42EC8C5F03DFDE4DE
:1032A0003CFCEFA4FFE5F028FEE43DFDE43CFC22FD
:1032B0009012E9E030E60554BFF0804F9012E9E04B
:1032C00030E74B12504690100F1232149012E9E082
:1032D000547FF0E4FBEBC3940474809480502C90F2
:1032E000100FE0FCA3E0FDA3E0FEA3E0FFEB75F010
:1032F00008A4FAC374189AF9F81231B974132BF5AB
:1033000082E43414F583EFF00B80CA12D4BAC39070
:103310000491E09420900490E0940050037FFF22F9
:1033200030021EE4FFFEFDFC90100FE0F8A3E0F970
:10333000A3E0FAA3E0FBC31231A87002C2027FFF30
:1033400022901416E0FF54806006A374FFF08005FD
:10335000E4901417F0EF5420600890141874FFF0F4
:103360008005E4901418F0901415E0FF54046008F0
:1033700090141974FFF08005E4901419F0EF5410C4
:10338000600890141A74FFF08005E490141AF0900D
:103390001416E0FF5410600890141B74FFF08005B1
:1033A000E490141BF0901415E0FE54016008901492
:1033B0001C74FFF08005E490141CF0EE54206008AB
:1033C00090141D74FFF08005E490141DF0EF540874
:1033D000600890141E74FFF08005E490141EF090B5
:1033E0001416E0FF5440600890141F74FFF080052D
:1033F000E490141FF0901415E0FE544060089014FF
:103400002074FFF08005E4901420F0EF540460086D
:1034100090142274FFF08005E4901422F0EE5480A2
:10342000600890142174FFF08005E4901421F020CE
:10343000C20890142374FFF08005E4901423F01266
:10344000CE90BEFF0CBFFF09901428E07003023538
:103450008990141812CE93BEFF13BFFF109014284A
:10346000E06401700890142B04F00236A090141947
:1034700012CE93BEFF0EBFFF0B901428E0640270C3
:10348000030235B190141A12CE93BEFF0EBFFF0B8C
:10349000901428E0640370030235C690141B12CE0A
:1034A00093BEFF0EBFFF0B901428E064047003026C
:1034B00035DB90141C12CE93BEFF0EBFFF0B901491
:1034C00028E0640570030235F090141D12CE93BEFF
:1034D000FF0EBFFF0B901428E06406700302360550
:1034E00090141E12CE93BEFF0EBFFF0B901428E067
:1034F0006407700302361A90141F12CE93BEFF0E9B
:10350000BFFF0B901428E06408700302362E90145D
:103510002012CE93BEFF0EBFFF0B901428E064096B
:10352000700302364290142112CE93BEFF0EBFFFED
:103530000B901428E0640B7003023656901422128C
:10354000CE93BEFF0EBFFF0B901428E0640A7003F9
:1035500002366A90142312CE93BEFF0EBFFF0B906B
:103560001428E0640D700302367E90142712CE9367
:10357000BEFF0CBFFF09A3E0640C70030236921279
:10358000CE90BEFF0BBFFF08E490142BF00236A0D4
:1035900090141812CE93BEFF0CBFFF0990142B7429
:1035A00001F00236A090141912CE93BEFF0CBFFF9B
:1035B0000990142B7402F00236A090141A12CE93C4
:1035C000BEFF0CBFFF0990142B7403F00236A090CD
:1035D000141B12CE93BEFF0CBFFF0990142B740472
:1035E000F00236A090141C12CE93BEFF0CBFFF0950
:1035F00090142B7405F00236A090141D12CE93BEC9
:10360000FF0CBFFF0990142B7406F00236A0901433
:103610001E12CE93BEFF0BBFFF0890142B7407F051
:10362000807E90141F12CE93BEFF0BBFFF08901434
:103630002B7408F0806A90142012CE93BEFF0BBF4B
:10364000FF0890142B7409F0805690142112CE9329
:10365000BEFF0BBFFF0890142B740BF08042901438
:103660002212CE93BEFF0BBFFF0890142B740AF0FA
:10367000802E90142312CE93BEFF0BBFFF08901430
:103680002B740DF0801A90142712CE93BEFF0BBF3F
:10369000FF0890142B740CF0800690142B74FFF02C
:1036A00090142BE0FF900603F0F4607B901428E068
:1036B000FD90142BE0FC6D6015EF640D901013600D
:1036C00004ECF0800374FFF0901428EC8073C39036
:1036D0001429E09401500FA3E004F070069014291F
:1036E000E004F012CEA6901429E0FEA3E0FFD394EC
:1036F00060EE9400402CE4B50712EEB4010EA3E096
:10370000640D7008901013741BF0800312CEA69005
:103710001411E004F0D3947F748094804029E4F085
:10372000802512CEA68020901428E0FF640D901012
:10373000137004EFF0800374FFF090142BE09014EA
:1037400028F0E4A3F0A3F0901013E0FF229010966D
:10375000123BC4E490109E123BA2A3123BA2901015
:1037600096123B9A4A4B7002FF22901096123B9A97
:10377000F990000F123ECFC002C001901099123D87
:103780008D9010CDC9123BC590109CE0FFA3E09036
:1037900010D0CFF0A3EFF0D001D00212459BEF7014
:1037A00002FF22901096123B9AF9123DAB24FE6064
:1037B000761470030238FE1470030239E7240360A4
:1037C00003023B43E49010ACF0A3F0901096123B40
:1037D0009A123CB995F0500D123D3870EE9010AC35
:1037E000E004F080E6901096123B9A123C0BED6BD1
:1037F0007001EC6003023B53901096E0FBA3A39092
:103800000007123D13FDACF0123DC7900008123CBA
:10381000453E123C3D123CE26003023B5390109641
:10382000123B9AF9023B3A123F45129AE3901096E6
:10383000123B9AF9900005123D13FDACF0123F3F88
:10384000900006123C453E90109EF0A3EFF0123E11
:10385000C8123F01900008123DCD900009123D09A9
:103860002DFFE5F03CFE90000A123C4F9010AA128A
:103870003F4C7C057DA0122ECB90109E123F177CF2
:10388000007D06122EB9EF2BFFEE3A9010A2F0FC4D
:10389000A3EFF0FD901096123B9A2416F9E43AFA41
:1038A000C004C0059010AA123D9C9010CFECF0A36C
:1038B000EDF0D005D00412690B78CA7C10123C964A
:1038C000901096123B9A78E27C10123E23123B67CE
:1038D000123B9A123CE16003023B539010B0123C41
:1038E000DA94FDEE6480947F5003023B53D3EF944F
:1038F0000FEE648094804003023B53023B3A123F38
:1039000045129AE3E49010ACF0A3F0901096123BAD
:103910009A123CB995F0500D123D3870EE9010ACF3
:10392000E004F080E6901096123B9A123C0BED6B8F
:103930007001EC6003023B53901096E0FBA3A312CE
:103940003EC875F0038475F00AA4FF900006123C8F
:103950004F35F090002E8FF0123051123EC875F0A6
:103960000384E5F075F00AA4FF900008122E252FBD
:10397000900030123E7F90002E123EAEC3EE9400B7
:103980005003023B53D3EF9417EE94004003023BE5
:1039900053901096123B9AF9900030122FADFDAC67
:1039A000F0D39FEC9E5003023B53D3ED9418EC945C
:1039B000004003023B53123CE26003023B53900081
:1039C0002E122FADFF9010B8123CC495F050030298
:1039D0003B53900030122FADFFC3ED9FEC95F040AC
:1039E00003023B53023B3A123F4512A8F690109651
:1039F000123B9AF9900004123D1324E3FFE5F034E2
:103A000007FE900005123C4F9010A0123F4C901002
:103A1000B2123E084003023B53C39010A1E09DFF49
:103A20009010A0E09CFEC3EF9403EE9400400302CC
:103A30003B53901096A3A3123DC7123F019000077D
:103A4000123DCD900008123D092DFFE5F03CFE909F
:103A50000009123C4F3EFE9010ACF0A3EFF0C3946F
:103A600051EE94224003023B539010ACE0FAA3E0E5
:103A7000FB7D18123D6A9010A2EEF0A3EFF07C00DF
:103A80007D18AF03AE02122ECB9010A8ECF0A3ED80
:103A9000F09010A0E0FEA3E0A3123E687410F0A323
:103AA00074A6F07B017A1079A412792590109612F1
:103AB0003B9A2416F9E43AFA9010A0E0FCA3E0FD4A
:103AC0009010A4E0FFA3E09010CFCFF0A3EFF09010
:103AD00010A6E0FFA3E09010D1CFF0A3EFF090107C
:103AE000A8E0FFA3E09010D3CFF0A3EFF012AB1F3C
:103AF000901096123B9A78CA7C10123E2378E27C92
:103B000010123C96123B67123B9A123CE17044D370
:103B10009010B1E094009010B0E064809480403345
:103B2000900024122FADFF9010C0123F21E5F09CB1
:103B3000FEC3EF94E7EE9403501990000FE475F084
:103B400001800D901096123B9AF990000FE4F5F069
:103B5000123051901096123B9AF990000F123CE5EA
:103B60007F0070027F012212AD379010B0EEF0A3FB
:103B7000EFF09010962290005BE41230519010CD3F
:103B8000E0FBA3E0FAA3E09010D8F9E0FEA3E0F593
:103B9000828E83122E25FF9010CAE0FBA3E0FAA3C9
:103BA000E022F0A3F0A3F0A3F0A3F0A3F0A3F0A30E
:103BB000F0A3F0A3F022A3E0FAA3E024049010D332
:103BC000F9E43AFAEBF0A3EAF0A3E9F022F9900065
:103BD0000E122FADFFAEF07C007D06122ECB9000B2
:103BE00010EE8FF012305190000E122FADFFAEF09C
:103BF0007C00227D3C122EB9900008122FAD90005F
:103C00000C2FFFEE35F08FF0023051F990000912C1
:103C10002E25FFFDC39010AFE09DF09010AEE09414
:103C200000F0EFFB7D0AE0FEA3E0FF7C00022ECB5C
:103C30003EFE900008122FAD2FFFEE35F0900014DD
:103C40008FF002305175F064A42DFFE5F03CFE12B8
:103C50002E257C002FFFEC22900001122E25FF90D4
:103C60000041E48FF0123051900002122E25900096
:103C700043FFE48FF0023051900012122FADFFAEDF
:103C8000F07C057DA0022EB9900012F9EC8DF012A7
:103C90003051900006227B017A1079B27E007D01BE
:103CA0007F18022DE67C007D64122ECB7F0A7E00F9
:103CB000CFCDCFCECCCE022ECBF990000D122FADB2
:103CC0009010ACFFE0FCA3E0FDC39FEC22E0C454E5
:103CD0000F75F00AA4FFE0540F22E0FEA3E0FFC33B
:103CE00022F990005D122FAD640145F022FF122EE3
:103CF00025FD12D3E7AE0790109622F9122E25FF6C
:103D0000AD0612D2BE9010962275F064A42DFDEC83
:103D100035F0FC122E2575F00AA422CFF0A3EFF0A7
:103D20007B017A10793622F990000D022FADFFE069
:103D3000FD12D2BE901096228D828C83122E25FF0A
:103D40009010AFE02FF09010AEE03400F09010AD86
:103D5000E004F0227D017BFF7E00022DE69000064C
:103D60008FF0023051E0FAA3E0FBFFAE02022ECB4F
:103D7000F9E0FEA3E0FFF5828E83022E25F9E0FC38
:103D8000A3E0F5828C83EF022E9790102CE0F9A32C
:103D9000E0FAA3E022A3ECF0A3EDF0227C057DA0E5
:103DA000E0FEA3E0FF022ECB122E97900011022E10
:103DB00025F9900002EF122E97900003022E25F9AC
:103DC000900005EF122E97900006022E25AC06AD4E
:103DD00007022E25900002F9EE8FF0023051FFE02D
:103DE000FD12D3E79010962234F8FE7C007D0F126E
:103DF0002ECBED24E3FFEC340722E0FFA3E090009C
:103E000004CF8FF0023051FFE0FCA3E0FDD39FEC24
:103E10009E222FFEEC35F0F0A3CEF0227C277D1001
:103E2000022ECB2416F9E43AFA7D017E007F1802B7
:103E30002DE6A3E0FAA3E02406F9E43AFA9010D6BE
:103E400022A3E0FAA3E02408F9E43AFA9010D92278
:103E5000F98D828C83122E25FF22F9900008EF1233
:103E60002E97900009022E25FFE0FCA3E0FD9010A4
:103E7000E27401F0A32224FFFFE5F034FFFE22FFED
:103E8000EC35F08FF0023051A37407F0A374E3F027
:103E9000227D017BFFFE022DE633FE74EB2FF582BF
:103EA00074103EF58322F98F828E83022E25122F05
:103EB000ADFFAEF022A3E0FEA3E0FFED6F22901075
:103EC000E0FFE4F0A3EFF022900007022E25F9E4D2
:103ED000F5F0023051AF05AE04AD03AC02022ECBBB
:103EE00074FF2DF58274FF3CF583229010D0E0FE24
:103EF000A3E09010D42224FFF58274FF35F0F583FF
:103F000022FF7E007C037DE8022EB9C98DF00230CD
:103F100032C98FF0023032AA06AB07E0FEA3E0FF01
:103F200022E0FCA3E0FDC3EF9DFF229400CF24011B
:103F3000FBE43FFA22F9900012122FAD25E0229007
:103F40000004022E257B017A1079B2223EFEF0A3F6
:103F5000EFF0229004C6E0706E9000D2E0702690E0
:103F600004D1E06402701E9000D5E0701812129B1C
:103F70007407120E5E7F3E12D2EA12D2AF120CFE0E
:103F80007D0E0241D99004D1E0FF7E006401700EE5
:103F90009000D5E0120FD350028001C35014EF649B
:103FA000024E701C9000D4E012153C50028001C3F8
:103FB000400E120E55124269120C8D7D240241D919
:103FC00074011214A9F0229004C6E06401705074C8
:103FD00003F0E49013C2121142700512CFCE800399
:103FE00012CFE79004CAEFF0120E19E490100EF011
:103FF00090100EE0FF120EE05008120F931213B350
:1040000080EE1211397B5270047D4C80027D4E7F10
:104010006612D30512D2AF120D7A7D1E0241D990DD
:1040200004C6E0640360030240D212D2AFE4FD7F15
:104030000512B9531215B760030240BF9013D8D3CD
:1040400012121A4059E490100EF090100E120EDF6A
:10405000501EE0FF24C7F582E43413F583E0FE74BC
:10406000A82FF582E43413F583EEF01213B380DA4F
:10407000120E13E490100EF090100EE0FF120EE0FE
:104080005008120F931213B380EE1211397B527045
:10409000047D4C80027D4E7F6812D305802C740312
:1040A000120E15E490100EF090100EE0FF120EE0CC
:1040B0005008120F931213B380EE121376800B1276
:1040C00015BE700612129B12161A120D7A7D1E0270
:1040D00041D99004C6E064047050FD7F0512B953C5
:1040E0009013D912127B70329013D8E0D312121BA6
:1040F00040079004C67405F022120E13E490100ECF
:10410000F090100EE0FD120EE0500B74C72D120F50
:10411000961213B380EB12137622EF64034E600302
:1041200002426812129B12161A229004C6E064051D
:1041300060030241DE7B0190101704F0A37413F0BA
:10414000A374C7F07A1379A81281EA120F8B700258
:10415000EEF4707312139E129372EF704D12139E51
:104160009004CAE0FD1226A2120F8B7002EEF470CA
:104170002C9004C67412F09004C8120E607D3212A6
:104180004279120C507D247F0312707A1211437011
:10419000059000D580039000D4E004F022120E5563
:1041A000124269120C8D7D24802F12129B7404120E
:1041B0000E5E7D527F5612D25212D2AF7AF379D56B
:1041C000120F2D7D24801212129B7409120E5E7D37
:1041D00034124279120CBA7D247F0302707A900463
:1041E000C6E0641270281213FE120D14507A90006B
:1041F000D2E07012121143700D9000D5E06401708E
:104200000512D312800312D32C7F06025C2F900478
:10421000C6E0641370521213FE120D14504A90043B
:10422000C7E0FF7E00640C700E9000D2E070089032
:1042300000D5E0700280119000D2E0700F1211439F
:10424000700A9000D5E07004120D6422EF64064EEF
:10425000600E9004C7E0FF640C6005EF6407700512
:10426000121143800012D32C227F5812D2EA7F64AD
:104270007E0012D4A512D2AF227F4412D25212D2A3
:10428000AF229000CC120CB3BEFF0EBFFF0B900408
:10429000C57424F07F0412B37C9005A0E07006740E
:1042A00020F012BC3E900596E0640470799000ED19
:1042B00074FFF090059EA3E09000F3F012CD181269
:1042C000118070069000F104802C121451600302DA
:1042D00043BD9000EF120CB3BEFF0ABFFF07900072
:1042E000F1740680119000EE120CB3BEFF0EBFFFFA
:1042F0000B9000F174041245900243899000F7E09E
:10430000700B7F7A12D2EA9000F702438F120E2BC5
:1043100050030243BDEF64017003120D739000F768
:10432000E014F00243BD900596E06405600302438B
:10433000BD120F887002EEF4705A900599E0641671
:10434000703CA3E064D47036A3E064DB7030A3E07B
:10435000643C702A9006ECE0701F12BFE090060BE0
:10436000120CB3BEFF13BFFF107D327F4412D25236
:104370009006EC74C0F012CD18120D73803F9000BF
:10438000F1740712459012CD189000F5E4F0A37473
:1043900080F08029E49000EDF09000F104F09000AE
:1043A000F31211BB120E607F4012D2EA9000C912C4
:1043B0000DE55005E004F080041210FBF0126F07C9
:1043C0009001F4E0642870709000EE74FFF09001AA
:1043D000EFA3E0049000F212117F70089000F174D6
:1043E0000302446912145160030244A39000ED12C9
:1043F0000CB3BEFF0ABFFF079000F17404806A90FF
:1044000000EF120CB3BEFF0ABFFF079000F1740566
:1044100080579000F7E0700A7F7A12D2EA9000F796
:104420008053120E2B407CEF640170049001F4F075
:104430009000F7E014F0806B9001F4E06429706361
:10444000A3E0642B70089000FA7402F08005E490F9
:1044500000FAF0121109BEFF21BFFF1E9000FAE022
:10446000640260169000F17407F012C47774201291
:1044700011BFE4F0A37480F08029E49000EEF09086
:1044800000F17403F0E4A31211BC120E607F40121D
:10449000D2EA9000C8120DE55005E004F080041245
:1044A00010FBF01276DE900496E0640A705C9000D7
:1044B000EF74FFF09004A4E09000F412117F600804
:1044C0009000F0E0640170079000F17402805112D6
:1044D0001451600302457F9000ED120CB3BEFF0A39
:1044E000BFFF079000F1740680369000EE120CB307
:1044F000BEFF0ABFFF079000F1740580237F7A1288
:10450000D2EA1213A59000F78026900496E0640B7F
:10451000704F121109BEFF1DBFFF1A9000F1740702
:10452000F012C4779004C57420F09000F5E4F0A375
:104530007480F0804AE49000EFF09000F17402F093
:104540009000F41211BB120E607F4012D2EA90006C
:10455000CA120DE55005E004F080241210FBF08033
:104560001E121510640C700E900477F0A3F09004E6
:10457000C57423F08009EF640D4E700312D3461208
:104580006D8C90048EE07002A3E0700312D2AF2213
:10459000F012C4779004C57420F0229010CA123B28
:1045A000C4E49010D2123BAE9010D0E0FCA3E0FD2A
:1045B0009010D6ECF0A3EDF0123B97123F35FBE5DF
:1045C000F033FAED24FAFFEC34FFFE7C007D051297
:1045D0002ECB90075675F0C8ED123251EC75F0C82D
:1045E000A42583F583E5822BF582E5833AF583E004
:1045F000FEA3E0FBAA067C007D64FF122ECB901088
:10460000D8EEF0A3EFF0AF03AE02123CA5A3EEF09C
:10461000A3EFF0AE02AF037C007D0A122ECB123D59
:1046200095E4123BAD9010D1E024F5FE9010D0E05F
:1046300034FF9010E2F0A3CEF0123B974A4B700289
:10464000FF22123B97F9900012123EAED39400EE77
:1046500094004008EF9464EE940040037F002290A1
:1046600010D6123CDA9406EE94004009D3EF940C75
:10467000EE940040037F00229010E2123CDAEE94A8
:1046800000405BD3EF9402EE940050529010D9E0BA
:104690009F9010D8E09E500CA3E0240AF09010D810
:1046A000E03400F0D39010DBE09F9010DAE09E50F1
:1046B0000CA3E0240AF09010DAE03400F09010E24D
:1046C000E0FEA3E0FFD39010DDE09F9010DCE09EC1
:1046D000500CA3E0240AF09010DCE03400F09010BD
:1046E000D4E4F0A304F0123EEB123E0750339010D6
:1046F000D8123EB67002EC6E6017123EB57002EC36
:104700006E600E123EB57002EC6E6005123D958033
:10471000109010D5E004F070CD9010D4E004F0803B
:10472000C5E49010D4F0A3F0123EEB123CC39E50AF
:10473000269010CD123B9A123E509010D3E02FF0ED
:104740009010D2E03400F09010D5E004F070D990D1
:1047500010D4E004F080D1123B97F9123DABFF6416
:10476000016008EF64036003024812123C58123DD6
:10477000B9900045123C71123F3FFF900047123C38
:1047800072900005122E25123EBE75F005123B7682
:10479000F9900041122FAD6F7002E5F060030248FE
:1047A000889010CD123B9A9010DA123B8AF9900053
:1047B00043122FAD6F7002E5F0600302488890103D
:1047C000CD123B9AF99010DC123B8BF99000451208
:1047D0002FAD6F7002E5F060030248889010CD1293
:1047E0003B9AF99010DE123B8BF9900047122FADE7
:1047F0006F7002E5F060030248889010D2123C24EA
:104800009010E0E06C7003A3E06D707C123B97F9B0
:10481000805B123B97F9123DABFF64026005EF64C9
:10482000047053123C58123DB9123EBE75F003128B
:104830003B76F9900041122FAD6F7002E5F07048A1
:104840009010CD123B9AF99010DA123B8BF9900040
:1048500043122FAD6F7002E5F0702D9010D2123C14
:10486000249010E0E0B50420A3E0B5051B90005DA6
:10487000E475F001800F123B9790005B123ECE90E2
:10488000005DE4F5F0123051123B97123CE17F00DD
:1048900070027F0122900460EEF0A3EFF0900467B5
:1048A000E07013741E120F63A37401F0E4A3F0A36D
:1048B000F07F6C024A3C900467E0641E7005741F30
:1048C000024A6B900467E0FE641F7042120F5A7038
:1048D0002F900592E0FD7C00700890046774200220
:1048E0004A8EED64034C6011900592E0FD64026015
:1048F00008ED64F960030249DF900467741EF0223A
:104900009004621210514003024B38024B2EEE64A9
:104910002070139004677421120FBF900464E0FFAD
:1049200012C264024AFD900467E0642160030249F8
:10493000F3120F5A60030249E5900592E07064900B
:104940000464E0FF7E0064017025900466E0FD339E
:1049500095E0FCBCFF19BDFF16900464E004F090E4
:1049600004677424F0E4900466F0900462802CC321
:10497000EF9405EE648094809004675017120F61E5
:10498000A3E004F0124B39120D537D0E7F03127019
:104990007A024A8F7417F0900462E4F0A37480F0F6
:1049A000024A8F900592E0FF64066005EF64037091
:1049B0002E900465120DC29004675015120F6112FB
:1049C000CD18124B39120D537D0E7F0312707A8071
:1049D000077429F0A3740BF0900465E004F02290B2
:1049E0000467024B1E900462120D0D4003024B3807
:1049F000024B2E900467E06424700F7425120FBFE1
:104A00007B32FAFDFC7F0102B88A900467E06425DE
:104A1000704F120F5A703C900592E0FF7E00700BB1
:104A20009004677429F0A3740AF022EF64094E9091
:104A30000467701C120F6112CD187F6E12D2EA7FCC
:104A4000967E0012D4A5120D537D0E7F0302707A5C
:104A5000024B1E900462120D0D4003024B38024BB4
:104A60002E900467E0642270087423120FBF02D0F6
:104A700048900467E0FD7C006423702A120F5A708E
:104A800017900592E0640290046760067422F002B9
:104A9000CD18741E120F6322900462120D0D400394
:104AA000024B38024B2EED64174C700D9004677466
:104AB00018120FBF12CEE58044900467E0FF7E001D
:104AC0006418701E120F5A700F900592E0900467E0
:104AD00070047419F02280469004621210515058EC
:104AE000804CEF64194E701C900467741A120FBF4B
:104AF000900460E0FCA3E0FD7F0112BB37900462EC
:104B0000120E6022900467E0641A702C120F5A7023
:104B100015900592E090046770047428F0227429BF
:104B2000F0A3740BF022900462120D0D500A900451
:104B3000677429F0A37401F0227F6E12D2EA7F9687
:104B40007E0012D4A522900739E0703D7BFF7AF3F6
:104B500079A1901038F07D1C7F01127C817BFF7A57
:104B6000F77955E41210F47F0112707A7BFF7AF323
:104B700079A3E4901038F07D5C7F01127C81E49091
:104B800000CFF090073904F022900739E0640170FB
:104B90001F7BFF7AF779601210F47F0412707A128B
:104BA000B45D12C7D390073A12163F7402024C97B5
:104BB000900739E064027031A3120CB3BEFF0BBF43
:104BC000FF08120DEE1214B28006120DEE1214B987
:104BD000124DA9120D0A4003024DA87403124DB7DD
:104BE0007BFF7AF7795A024D66900739E0640370CB
:104BF0005B12B4CA9000CFE064027037900590F069
:104C00007F0112C1D8E490100EF090100E1212C362
:104C100050177F0A7E0012D4A512D4AE120F5A602C
:104C20000890100EE004F080E190073B12163F74EC
:104C30000480649000CFE064036003024DA89007F5
:104C40003BF0740412116A7F07024DA5900739E00A
:104C50006404703390073B120CB3BEFF0BBFFF0818
:104C6000120DEE1214B28006120DEE1214B9124D8E
:104C7000A9120D0A4003024DA87405124DB77BFF1F
:104C80007AF7795D024D66900739E06405701090FF
:104C9000073C12163F740612116D7F02024DA5905B
:104CA0000739E06406703790073C120CB3BEFF0B67
:104CB000BFFF08120DEE1214B28006120DEE121490
:104CC000B9124DC6120D0A4003024DA8900739745F
:104CD00007F0124DD47BFF7AF77963024D66900797
:104CE00039E06407701090073D74FFF074081211EA
:104CF0006A7F02024DA5900739E06408707C900736
:104D00003D120CB3BEFF0BBFFF08120DEE1214B222
:104D10008006120DEE1214B9124DC6120D0A400390
:104D2000024DA8900739740912116D124DD49007E5
:104D30003B120CB3EFF47002EEF4703090073A12AD
:104D40000CB3EFF47002EEF4702290073C120CB337
:104D5000BEFF19BFFF16A3120CB3BEFF0FBFFF0C9F
:104D60007BFF7AF77966E41210F480097AF7796BA1
:104D70001215447D1C7F0402707A900739E06409A3
:104D80007026120D0A50219000DBE060046401706F
:104D90000E7F7412D2EAE49000DAF01214C022E41A
:104DA000120D647F0612CAA522F0E4A3F07B107DE9
:104DB0004B7F0412AF3E22900739F07F0412CB29BB
:104DC0007F0512CB2922F0E4A3F07B107D4B7F04FA
:104DD00012AF3E227F0412CB297F0512CB29227805
:104DE0000E7C107AF67912120FA178147C107AF6E4
:104DF0007918120FA1781A7C107AF6791E7F0512A5
:104E000010E990048BE07003024FAA7428120DF091
:104E100074F2F0A37415F0E4A3F07B347D48FF1224
:104E2000AF3E9000F1E0640170157AF379AC121096
:104E30000E12501E120C441250259000F380349034
:104E400000F1E06403701112100A12501E120C449B
:104E50001250259000F2801B9000F1E06402701D5A
:104E60007AF379B11210AF12502C120C4412503355
:104E70009000F41210B97D287F04024F289000F1B1
:104E8000E06404703712100AFDFF12707A120C44AD
:104E900012502C1210B67D247F021280D87AF3793A
:104EA000AC120C48125033120C44FD7F0612707A7B
:104EB0009000F31210B97D287F06806C9000F1E01D
:104EC0006405702A12100AFDFF12707A120C44FD5C
:104ED0007F0212707A1210B612503A120C54FD7FF3
:104EE0000412707A120C441250097F06803A900026
:104EF000F1E0640670377BFF7AF379AC90106BF0C9
:104F0000FDFF12707A120C44FD7F0212707A90003D
:104F1000F31210B912503A120C91FD7F0412707AFC
:104F2000120C441250097F061280D880159000F1AF
:104F3000E06407700D7A10791A12159CFD7F031238
:104F4000707A7B017A107914E490106BF07D407FC9
:104F50000612707A90048BE064037016900485E06A
:104F6000B4010FA3E0B43B0A7F2C12D2EA7F030204
:104F7000500590048BE0640460030250089004879D
:104F8000E07004A3E0640370167F2E12D2EA900052
:104F9000F512139090048E121390E4FF025C2F9090
:104FA0000487E07004A3E06401221213979010615B
:104FB0007428120DF374F1F0A3744DF0E4A3F07BA8
:104FC000287D2CFF12AF3E7B017A10790EE412107F
:104FD000F47F0612707A9000F51215A36480948015
:104FE0004015EF64404E700890048EF0A37441F0B9
:104FF0009000F61214FC22121447120E8790048EB1
:10500000F0A3F07F0212B37C22FD7F0612707A902B
:1050100000F4E0FB7A00E4901023F07D2822FD7F6D
:105020000212707A22FD7F0412707A22FD7F021232
:10503000707A22FD7F0412707A227D287F0212800E
:10504000D87AF379B122E4901015F0A3123220003F
:1050500000000090101A12322000000000E49010AE
:105060001EF0A3F030040302517112D4BD500302AC
:10507000516312CA1A901016123214E4901014F0F0
:10508000901014E0C3951050399010161285AC782A
:10509000011231B990101612321430D720128580C7
:1050A000C000C00190101412856FE0F9F81231CCE5
:1050B000D001D0001285B8901015E004F01285F7E9
:1050C00080BE901015E0FF7E00C39402748094802F
:1050D0004018D219EF940374809480400512D4C014
:1050E000800812D41BEF6002C219201923E4FFFECE
:1050F000FDFC128580C31231A860109012F9E00403
:10510000F070069012F8E004F0801D1285E380181C
:105110009012E8E004F070069012E7E004F09010BE
:105120001A1232200000000012D398D39012F9E036
:105130009F9012F8E09E400612D4C01285E3D390EF
:1051400012E8E0942C9012E7E0940150030252938D
:1051500012D4C090131F7401F0E49012E7F0A3F092
:1051600002529390FB9EE4740193FF125A7C025208
:105170009320050302525D128580C000C001901388
:105180002012856FE0F9F81231CCD001D0001285E1
:10519000B812850D1285FE90101EF0A3EFF090134B
:1051A00020E0FF12D463AD07AC06ED7802CEA2E793
:1051B00013CE13D8F8FFC3ED9FFFEC9EFED39010E3
:1051C0001FE09FEE6480F890101EE06480985058B5
:1051D000E490129DF0A3F0901260E004F094057446
:1051E0008094804010E4F0C204C20590101A12327C
:1051F0002000000000E4901014F0901014E0FFC3B1
:105200009510400302529312611F2004169010144F
:10521000E0FF901320E06F600A901014E012851DEB
:105220001285CA1285F780D2E4901260F012D398EA
:1052300090129DE475F001122F56FCD3E5F09FEC1F
:105240009E405012D4C0E490129DF0A3F0C204C25C
:105250000590101A123220000000008036785506A2
:10526000E6D39405748094804004E4F6C204E4908C
:105270001014F0901014E0FFC39510501612611F27
:1052800020040B901014E0FF12851D1285CA1285B0
:10529000F780E090101A1285AC22900455E060036C
:1052A00002533F9000D2E0704E9000D5E0704890DD
:1052B00004C57414F074031214A9F09004CA04F025
:1052C0009004D1120E18E490100EF090100EE0FF32
:1052D000120EE0500B120F9390100EE004F080EBD2
:1052E0001213767B527D4C7F6612D30512D2AF7BB0
:1052F000FF7AF379BF8042120E197409121573E414
:10530000F0A374F0F0E490100EF09013D7E0FF904B
:10531000100EE0FEC39F500E74C72E120F96901011
:105320000EE004F080E4740112162B7F5A12D2EAC8
:1053300012D2AF7BFF7AF7790612163502707A9097
:105340000455E0640160030254547D107F0612B9D5
:10535000531215B770509004557403F012139E1237
:10536000937290045EEFF0600B120DC35006900430
:10537000557402F01213A5900455E06403701C12DA
:1053800054A8120D471254A090045D7480F0900050
:10539000CB120DE5501EE004F080191254B1120D2D
:1053A000CB1254A0800E1215BE70099004557404DF
:1053B000F01213A5126F079001F4E06428702CC35B
:1053C0009001F0E0940A9001EFE09400501D740207
:1053D00012162B1254B1120DCB7D247F0312707A5A
:1053E0009001F37401F07F0302549C9001F4E0FFFC
:1053F0006429601EEF6428600302549F9001F0E06E
:105400009001EF1212FCD3EF940AEE9400500302C5
:10541000549F9001F5E0642B90045F70057402F0D6
:1054200080037401F0E49001F4F09004557403F0EB
:1054300090045D7480F01254A8120D477D247F0300
:1054400012707A7F0212B37C9000CB120DE5504FA0
:10545000E004F02290045512127B700912D312E47A
:105460009000CBF022EF64034E701F90045DE014B7
:10547000F0120D2650299000CB120DE54005A31225
:1054800010FEF0120E877F018012900455E0640434
:10549000700D7F6012D2EA120E877F0112B37C2258
:1054A0007D247F0312707A227F4012D2EA12D2AF9B
:1054B000227D327F5A12D25212D2AF227D017F0456
:1054C0001254C60D7F04EFF582758300C374809477
:1054D000804024D3E5829405748094805019EDF5C2
:1054E00082C374809480400FE58294087480948015
:1054F00050057582018003900000E58264014583B8
:1055000060030256BFEF1460641470030255B214B6
:1055100070030255F714700302563C1470030256D0
:105520007E240560030256BFEB14601D14602D2419
:105530000260030256BFA8057401088002C333D875
:10554000FCFF429AEFF4529B22A8057401088002E6
:10555000C333D8FCFFF4529AEF429B22A805740192
:10556000088002C333D8FCF4529A529B22EB146099
:105570001D14602D240260030256BFA805740108A3
:105580008002C333D8FCFF4291EFF4529222A80567
:105590007401088002C333D8FCFFF45291EF4292A9
:1055A00022A8057401088002C333D8FCF45291523A
:1055B0009222EB14601D14602D240260030256BF7A
:1055C000A8057401088002C333D8FCFF42A1EFF4A0
:1055D00052A222A8057401088002C333D8FCFFF44C
:1055E00052A1EF42A222A8057401088002C333D859
:1055F000FCF452A152A222EB14601D14602D24026F
:1056000060030256BFA8057401088002C333D8FCAA
:10561000FF42B1EFF452B222A8057401088002C320
:1056200033D8FCFFF452B1EF42B222A8057401084E
:105630008002C333D8FCF452B152B222EB14601A88
:1056400014602A24027078A8057401088002C3330C
:10565000D8FCFF42C1EFF452C222A80574010880B1
:1056600002C333D8FCFFF452C1EF42C222A8057432
:1056700001088002C333D8FCF452C152C222EB1499
:10568000601A14602A24027036A80574010880028A
:10569000C333D8FCFF42D9EFF452DA22A8057401D3
:1056A000088002C333D8FCFFF452D9EF42DA22A8B3
:1056B000057401088002C333D8FCF452D952DA22AF
:1056C000901116128314901115EFF090112074FEB2
:1056D000F0E4A3F0A3F0EF24F4601024FE70169021
:1056E00011217412F0A37410F0800A90112174201B
:1056F000F0A37430F0901121E04480FD7F0212D2BB
:10570000F87D807F0412CD9C1258B17D807F0A12F3
:10571000CDDCE4901124F0A3F0901119E0FF90117A
:1057200024E0FCA3E0FDC39FEC94005023901116ED
:1057300012830B8D828C83122E25FD7F0912D2F8E5
:10574000901125E004F070D1901124E004F080C99C
:10575000901115E0FD7F0112D2F8901115E0640C54
:1057600070077D807F0D12CDDC12D2DC901124E415
:10577000F0A37464F07F0412D187901123EFF090AE
:105780001125E024FFF0901124E034FFF0E07002D6
:10579000A3E06011901123E0FF20E009901122E0C6
:1057A000FEEF5E60D07D807F0D12CD9C901124E0D5
:1057B0007002A3E0700302589E7F0612D187EF5457
:1057C0001B6003025896901120F0A3E0FF90112374
:1057D000E05F30E00690112074FFF0901115E06456
:1057E0000C60030258A17F0A12D187901123EFF0B9
:1057F0007F0C12D187EF5407FD6029901123E0241C
:10580000FFFFE434FFFEEF7803C333CE33CED8F985
:105810007C002DFFEC3EF990111DE0FBA3E0FAA304
:10582000E0C98011901123E075F008A4FF90111DCC
:1058300012830BE5F08FF0123032901123E07002EA
:1058400004F0901123E0D394127480948040037488
:1058500012F0E4901124F0A3F0901123E0FFC39024
:105860001125E09F901124E0940050357F0912D15A
:105870008790111A12830B901124E0FCA3E0F582AB
:105880008C83EF122E97901125E004F070CB9011CD
:1058900024E004F080C390112074FEF0800312D441
:1058A0004E7D807F0C12CDDC1258B1901120E0FFAC
:1058B00022E4FD7F0112D2F822900479E0FF7E00FD
:1058C000700504F0A3F022EF64014E704B12D2AFCA
:1058D0007AF379F61212A37D0A7F0212707A7AF3B4
:1058E00079FF1212A37D0A7F0412707A120CB0EFB6
:1058F000F47002EEF46003025A70120E4A40030282
:105900005A70EE75F004A424DDF974F535F0FA7BD5
:10591000FF12C2EC12109D22900479E06403701C07
:1059200012D2AF7AF7794B1215447D0E7F031270B5
:105930007A9004797402F07F4202D2EA900479E00E
:105940006402701E12CBF4EF3395E0FEBEFF11BF70
:10595000FF0E9004797404121586E490047CF02202
:105960008066900479E06404706F12BF4D90060465
:10597000E0FF7E006412703774051212AB9000D104
:10598000F0A3F0FDED1214664003025A70ED25E01D
:1059900025E02400F582E43400F58374FFF0A3F0E1
:1059A000ED120F4CE4F0ED121192E4F00D80D5EF02
:1059B00064134E6003025A7090047C120DE5500887
:1059C000E00412158602CD189004797408F07D3435
:1059D000125A717AF379D08055900479E064057099
:1059E0001890047B120D214003025A7012C84474AF
:1059F000061212AB9000D3F022900479E064067096
:105A00003690047B120D21506712CC1B12CC401231
:105A1000D0A412C8E890047974071212AE9000D591
:105A2000F09000D4F07D32125A717AF379CBE412FF
:105A300010F47F0302707A900479E0FF7E0064071F
:105A4000701090047BE0FD14F0C3ED120D27502080
:105A5000800EEF64084E700D90047B120D215010E3
:105A6000E4120D6422900479E06409700312D339C2
:105A7000227F4212D25212D2AF7BFF22901020EF2F
:105A8000F0901460E0C39403748094804048E4F084
:105A900090131FE07035901021F0901021E0C39515
:105AA000105028E0FF75F002A424FBF582E5F034E5
:105AB00012F583E0FCA3E0FDEF25E02425F8A60421
:105AC00008A605901021E004F080CF12B823C21A76
:105AD000E490131FF02290145AE004F0901020E09C
:105AE000FF90145AE0B5070812C91CE490145BF04B
:105AF000901020E0FF90145AE0D39F5003025C2ED8
:105B0000E4901021F0901021E0C395104003025B57
:105B1000DAE0FF75F002A424FBF582E5F03412F51B
:105B200083E0FCA3E0FD75F002EFA42461F582E5BB
:105B3000F03412F583E0FEA3E0C39DFFEE9CAD07B9
:105B4000FC90131FE070429012FAE0FB3395E0FAEC
:105B5000FEEB7802C333CE33CED8F9FFD3ED9FEE00
:105B60006480F8EC6480984060E49BFFE49AFEEF68
:105B70007802C333CE33CED8F9FFC3ED9FEE6480F5
:105B8000F8EC648098504280519012FAE0FB339513
:105B9000E0FAFEEB7803C333CE33CED8F9FFD3ED72
:105BA0009FEE6480F8EC648098401EE49BFFE49ACA
:105BB000FEEF7803C333CE33CED8F9FFC3ED9FEEAB
:105BC0006480F8EC6480984011901021E0FF12612D
:105BD0001F901021E004F0025B05901021E0B51049
:105BE0000690145BE004F0901020E0FD75F008A42E
:105BF000FF90145AE0C39FE5F06480F874809840E9
:105C00002DE4F0C219901460E004F0ED75F004A4E6
:105C1000FF90145BE0C39FE5F06480F874809840C7
:105C20000DE4901460F012CAFE12B823C21A22EFDB
:105C300070701215546401700B1210814404F090BE
:105C400000F3804FED64034C7009121081F0900056
:105C5000F280401215546402700B1210814402F05D
:105C60009000F4802EED64044C7009121081F090C5
:105C700000F2801F12155464057009121081F09013
:105C800000F2800FED64064C70111210814402F096
:105C90009000F4E0120E6FF0025D7E9000F1E0647F
:105CA0000722EFFD7C0064027012121081F0900454
:105CB000C0A3E0120E6F4420F0025D7EED64034C41
:105CC0007012121081F09004D8A3E0120E6F4430CD
:105CD000F0025D7EEFFD7C0064047009120E6744E3
:105CE00040F0025D7EED64054C7009120E67445071
:105CF000F0025D7EEFFD7C0064067012121081449C
:105D000002F09004CAE0120E6F4460F08070ED64FF
:105D1000074C70121210814402F09004E0E0120E61
:105D20006F4470F08058EFFD7C006408700D121015
:105D3000814402120E6D4480F08043ED64094C7082
:105D4000121210814404F0900173E0120E6F44901F
:105D5000F0802BEFFD7C00640A7012121081440465
:105D6000F09001E9E0120E6F44A0F08011ED640B99
:105D70004C706B1210814404120E6D44B0F0781F09
:105D80007C107D017B017A01799E120DDB12645D2E
:105D90009004B31232149004B07455F0A374AAF0B6
:105DA0009004AAE0FEA3E0FF12CCD2C39004ABE0C3
:105DB00094FF9004AAE09401500DA3E004F0700653
:105DC0009004AAE004F0229004B2E0FF5401F454DD
:105DD00001FEEF54FE4EF0E49004AAF0A3F02290EE
:105DE0001096123BC4E4123BAFFFFE123E1CA3EF21
:105DF000F07F007E00123E1C7E037FE8123CB0A3C1
:105E0000EFF07C037DE87F007E00122ECB7E007FCA
:105E100064123CB0A3EFF07F007E00123CA5A3EF1C
:105E2000F07C007D0A7F007E00122ECBAC05E4A33F
:105E3000F0901096123B9A4A4B7002FF22901096F7
:105E4000123B9A123F35FFE5F033FE743E2FF58288
:105E5000740B3EF583E0FFA3E0901099CFF0A3EF21
:105E6000F0A37401F090109BE0FFD394067480942B
:105E7000805033A3E0FEEF6E6024A3E0FF90109B00
:105E8000E0FE6F601990109EE0FFEE6F6010A3E0DF
:105E9000FFEE6F6009EE6C6005A3EEF080089010D5
:105EA0009BE004F080BF901096123B9AF99000019D
:105EB000122E2590109C123D2E123B9AF990000153
:105EC000EF122E97900002122E2590109D123D2E5B
:105ED000123B9A123DB1FF90109E123D2F123B9A39
:105EE000F9900003EF122E97123F3FFF90109F1280
:105EF0003D2F123B9AF9900004EF122E9790000567
:105F0000122E25FFAD04123D31123B9A123DBFFF08
:105F10009010A0123D2F123B9AF9900006EF122E1E
:105F200097123EC8FFAE04AD06123DE1123B9AF94E
