:03000000026E5439
:03000B00028B4520
:03001300028FEF6A
:03001B0002842A32
:030023000299C37C
:03003300029B7CB1
:03004B00028C46DE
:03005B00028DB063
:03006B00028F0FF2
:03007B0002971FCA
:0300830002863DB5
:03008B0002868F5B
:10010000900527E0600302070F1229A7901325EF3F
:10011000F0F46003129401900563E0121F37017040
:1001200000025901029A0202F40503280603630B38
:1001300003E60C03F40D03FF0E04290F043710042B
:100140004112045B1304681404921504B51604C824
:100150001704F21A06411B051E1C05561E06FC2636
:1001600005692706A02B05CA2C068A2D0000070F5B
:10017000901325E0FF640D6011EF641B700C900577
:1001800063741AF09005157403F0900534E0FF6471
:1001900007600302022D1225055033EF6407600348
:1001A00002070F90134204F0741012239F12263F8F
:1001B000122607500E74312E1223D4900C2FE00417
:1001C000F080ED9005347408F07F010291F4122460
:1001D0005C70217F011291F490019D122466BEFF94
:1001E00006BFFF03E4F022E490052CF0A3F0900595
:1001F0003104F022901325E0640B600302070F9096
:10020000019D12237270137F011291F490056374A3
:100210001EF0E490045512265E2212944490052AA2
:10022000E4F0A37496F0900563741FF022901325F8
:10023000E0FFF4700302070FEF640C700302070F76
:1002400012265F900534E06409600302070F7F0106
:100250001291F41226820205611224C8700302046E
:10026000231224CF70030204EC122614700302043C
:100270008C901325E06404700302055012245C6026
:100280000302070F1207B91223C17F60129A0E7F73
:10029000647E00129BC0E402069B901325E0FF647D
:1002A00001600AEF64026005EF64037004E4120762
:1002B000B91224C8700E120710E4900561F0900581
:1002C000630203551224CF700E120710E4900561EB
:1002D000F090056302047F122614700D12071D12A0
:1002E0002657900563740EF02212245C6003020707
:1002F0000F0203E01224C8700F12071D90056374EB
:1003000012F0E490016FF0221224CF701012072A2D
:100310009005637414F0900519740AF02212245C9D
:10032000600302070F0203E01224C8700912072AB3
:100330001225B104F0221224CF70091207371225BA
:10034000B1020686122614701012073790056374E6
:1003500017F0900669740FF02212245C6003020704
:100360000F807D1224C8700A120744900563741C24
:10037000800D1224CF700C120744900563742CF08A
:10038000E4802B1226147010120751900563742715
:10039000F0E49005F5F08016901325E064047018E1
:1003A000120751900563741BF0E4900643F090131C
:1003B0002EF090132D020510901325E0640570189F
:1003C00012075E900563741AF0E4900515F090131F
:1003D0002EF090132D02068612245C600302070F94
:1003E00012075E029A2A900561E064016003020729
:1003F0000F0204C01225DB600302070F0204C09045
:100400000666E06408600302070F1225A7700B90D0
:100410000667F09006667409F022EF640A4E6003E6
:1004200002070F12076B029B67900561E064016091
:100430000302070F0204C01225DB600302070F80CE
:100440007F90016FE064017008901325E0FF127D3A
:100450005B12245C600302070F80319001E1E064CD
:1004600001600302070F8058900519E0640B6003D8
:1004700002070F1225A7700B90051AF0900519744A
:100480000CF022EF640A4E600302070F12076B02A2
:100490009B75900564E0640170028024900564E01F
:1004A00064037003020561900564E0640460030264
:1004B000070F02056190057BE06401600302070FEE
:1004C000901325E0FF027D5B900669E064106003F5
:1004D00002070F1225A7700B90066AF09006697448
:1004E00011F022EF640A4E600302070F1207780230
:1004F0009B6E900515E06401600302070F901325C1
:10050000E0640B700F120778E4900516F090051563
:100510007403F02212245C600302070F803212245D
:10052000C8700D7AA37991120785E49001EB8011D0
:100530001224CF70137AA379941207859001EB747B
:10054000FFF0128D3902063E12245C600302070F91
:1005500012079202063E900455E064016003020710
:100560000F901325E0FF0206F99005F5E0640160A5
:100570000302070F1224C870139000F8F09005F5DD
:100580007402F07BFF7AA379BB02065B1224CF7062
:10059000289000F804F09005F504F0128A3EEF333D
:1005A00095E04F70087F7A129A0E0207087BFF7A57
:1005B000A379BE128B8602070812245C600302072F
:1005C0000F1207929005F50206861224C8701A9041
:1005D00000F9122466BEFF08BFFF05E4F01296037F
:1005E0007AA379A912079F80551224CF70459000F5
:1005F000F9122372703474FFF0E490051DF0A3F03B
:10060000900521F0A3F0129252EF2412FEE43390F1
:10061000051FF0A3CEF0900523E4F0A37408F0903A
:1006200005277402F0E4900526F07AA379AC12074E
:100630009F800B12245C600302070F1207AC029A22
:1006400038900643E06401600302070F1224C8706B
:100650001090064412269D7AA379D0128B86020749
:10066000081224CF701290064474FF12269D7AA3BC
:1006700079D3128B8602070812245C600302070FED
:100680001207AC9006437402F022901325E0FF6439
:100690000B6005EF640A70771223C1900563F022A6
:1006A000900534E0FF64077038122505502FEF6481
:1006B00007705C90134204F090134174101223A24F
:1006C00012263F122607500E74312E1223D4900C9E
:1006D0002FE004F080ED9005347408F02212245CC1
:1006E00022901325E0FFF46026900534E064097041
:1006F0001E900536F0A374F0F00274C1901325E04B
:10070000F4600C7F30129A0E7F647E00129BC02230
:100710007F011291F47F647E00129BC0227F011240
:1007200091F47F647E00129BC0227F011291F47FBE
:10073000647E00129BC0227F011291F47F647E00D0
:10074000129BC0227F011291F47F647E00129BC035
:10075000227F011291F47F647E00129BC0227F01F0
:100760001291F47F647E00129BC0227F011291F4EB
:100770007F647E00129BC0227F011291F47F647E11
:1007800000129BC0227BFF128B867F647E00129B2F
:10079000C0227F011291F47F647E00129BC0227BF5
:1007A000FF128B867F647E00129BC0227F01129114
:1007B000F47F647E00129BC0229001F3F07F01124F
:1007C000780022900C4AEFF0E4900C52F0900C4A22
:1007D000E0FF25E02424F8E6FC08E6FD75F002EFD2
:1007E000A42424F582E5F03412F583E0FEA3E0C3EF
:1007F0009DFFEE9C900C4BF0A3EFF0E47F01FEFD1B
:10080000FC900C4AE0F9F8121E768F0F8E0E8D0DBB
:100810008C0CAF01129B28900C50EEF0A3EFF0C3AC
:10082000900C4CE09FEE6480F8900C4BE064809854
:100830004008900C4D7401F08005E4900C4DF09050
:100840000C4DE064016003020A3F900C4AE0FF2473
:100850003CF582E43412F583E0C394FA748094800A
:10086000500D743C2FF582E43412F583E004F0E57A
:100870000B550FFFE50A550EFEE509550DFDE50880
:10088000550CFCE4FBFAF9F8C3121E526003020A8D
:1008900005901208E0900C4FF0129BAEEF6047E419
:1008A000900C4DF0A3F0900C4EE0FFC39510502239
:1008B000743C2FF582E43412F583E0C39401748014
:1008C00094804006900C4DE004F0900C4EE004F053
:1008D00080D4900C4DE0C3940374809480400790C2
:1008E0000C4FE0240FF0900C4AE0243CF582E434F5
:1008F00012F583E0FF900C4FE0FEEFC39E50030221
:100900000A05E4900C4DF0129B00EF60030209927F
:10091000900C4EF0900C4EE0FFC39510502C900CB4
:100920004AE06F601D129AA5900C4EE0243CF582BF
:10093000E43412F583E0C39F4008900C4D7401F03D
:100940008008900C4EE004F080CA129BAEEF339505
:10095000E04F60030209E3900C4DE060030209E3FD
:10096000A3F0900C4EE0FFC395105077900C4AE036
:100970006F6017129AA5900C4EE02448F582E4347B
:1009800012F583E0C39F40028053900C4EE004F0C8
:1009900080D0129BAEEF3395E04F7047900C4FF034
:1009A000900C4EF0900C4EE0FFC395105022743C1A
:1009B0002FF582E43412F583E0C3940274809480AE
:1009C0004006900C4FE004F0900C4EE004F080D410
:1009D000900C4FE0C39403748094804006900C4DBB
:1009E0007401F0900C4DE064017002D216E50B45E5
:1009F0000FF50BE50A450EF50AE509450DF509E584
:100A000008450CF508900C4AE0FF247AF582E4349E
:100A100012F583E4F074D62FF582E43412F583E402
:100A2000F075F002EFA42462F582E5F03412F5834C
:100A3000E4F0A3F0740B2FF582E43412020DCE9093
:100A40000C4AE0FF129839900C4BE0FCA3E0FDD378
:100A50009FEE6480F8EC6480984012900C4AE02489
:100A600048F582E43412F583E004F080159013CC4D
:100A7000E004F0900C4AE02448F582E43412F58357
:100A8000E4F09012BDE0FF3395E0FEC3E49FFBE489
:100A90009EFAC3ED9BEA6480F8EC648098500302F0
:100AA0000B97D3900C4CE09FEE6480F8900C4BE0D9
:100AB0006480984003020B97900C4AE0FF247AF57B
:100AC00082E43412F583E4F0740B2FF582E43412DF
:100AD000F583E4F0FFFEFDFCAB0BAA0AA909A80808
:100AE000C3121E526003020CD3900C4BE0FEA3E035
:100AF000FF900C4AE075F002A42462F582E5F03420
:100B000012F583EE8FF0121C78129A84900C4AE052
:100B100075F002A42462F582E5F03412F583E0FC5E
:100B2000A3E0C39FEE6480F8EC6480984013900CBF
:100B30004AE0FF25E02424F80806E6187043068002
:100B400040129A84C3E49FFFE49EFE900C4AE07535
:100B5000F002A42462F582E5F03412F583E0FCA3F0
:100B6000E0C39FEE6480F8EC6480984003020CD3ED
:100B7000900C4AE0FF25E02424F808E616187001DE
:100B80001675F002EFA42462F582E5F03412F583C5
:100B9000E4F0A3F0020CD39012BDE0FF3395E0FE29
:100BA000C3E49FFFE49EFEC3900C4CE09FEE648084
:100BB000F8900C4BE06480984003020C49900C4A7A
:100BC000E0FF247AF582E43412F583E004F0740B3C
:100BD0002FF582E43412F583E4F0747A2FF582E481
:100BE0003412F583E0FF75F00A84E5F07046C3EF38
:100BF000946474809480900C4AE04014247AF582C6
:100C0000E43412F583E4F0D2179012E204F0802469
:100C100025E02424F8C000E6FE08E6FF9012BDE0BF
:100C2000A2E713FD3395E0FCC3EF9DFFEE9CD000DF
:100C3000F608A607900C4AE0FF9013C5E06F60032A
:100C4000020CD374FFF0020CD39012BDE0FF339579
:100C5000E0FED3900C4CE09FEE6480F8900C4BE0EB
:100C6000648098406E900C4AE0247AF582E4341255
:100C7000F583E4F0FFFEFDFCAB0BAA0AA909A80866
:100C8000C3121E52704D900C4AE0FF240BF582E413
:100C90003412F583E004F0740B2FF582E43412F57E
:100CA00083E06420702D900C4AE0FF240BF582E471
:100CB0003412F583E4F09012BDE0A2E713A2E7132B
:100CC000FD3395E0FCEF25E02424F808ED26F61826
:100CD000EC36F6E50B550FFFE50A550EFEE5095516
:100CE0000DFDE508550C4D4E4F7003020DE4900CC0
:100CF00050E0FCA3E0FDAE047802CEA2E713CE13D1
:100D0000D8F8FFC3ED9FFFEC9EFEC3900C4CE09F14
:100D1000EE6480F8900C4BE06480984003020DD3A1
:100D2000900C4AE024D6F582E43412F583E004F016
:100D3000129B08900C4FEFF0E4900C4EF0900C4E8C
:100D4000E0FFC395105022743C2FF582E43412F575
:100D500083E0C39401748094804006900C4DE004BD
:100D6000F0900C4EE004F080D4900C4DE0C394035E
:100D7000748094804008901208E0900C4FF0900C22
:100D80004AE0FB24D6F582E43412F583E0FF900CB0
:100D90004FE0FEEFC39E5003020E5374D62BF58234
:100DA000E43412F583E4F0AF0FAE0EAD0DAC0C12CF
:100DB0001E45E50B5FF50BE50A5EF50AE5095DF5F5
:100DC00009E5085CF508743C2BF582E43412F583E0
:100DD000E4F022900C4AE024D6F582E43412F58344
:100DE000E014F022900C4AE0243CF582E43412F541
:100DF00083E4F0FFFEFDFCAB0BAA0AA909A808C317
:100E0000121E527008900C4AE0FF126DB5E51014E6
:100E1000FF900C4AE06F703B9013CCE0C3951040FC
:100E200032E4900C4EF0900C4EE0FFC39510501B36
:100E3000743C2FF582E43412F583E06006900C4D8B
:100E40007401F0900C4EE004F080DB900C4DE070EB
:100E500002C216224413D4000000004213D800003E
:100E6000C114C115C10FC10CC10DC10EC110C111FA
:100E7000C112C1134113ED024113EE004112E20011
:100E8000C103C102C100C101C104015400411223C8
:100E90000042126000004113CA00C1184113F30060
:100EA000C119C11AC109C106C10AC107C10BC108D4
:100EB0004113D30044137D000000005813650080E7
:100EC0000020040010000010010020000008004075
:100ED0004000000480004612E5FFFFFFFFFFFF64B3
:100EE00000082800000000000000000000000000D2
:100EF00000000000000000000000000000000000F2
:100F000000000000000000000000000000000000E1
:100F100000000000000000000000000000000000D1
:100F200000000000000000000000000000000000C1
:1012E000000000561381736C5F67656E65726963F9
:1012F0005F76312E302E302E303037004213AA0068
:1013000000411397004213E400004C13AD1F1C1F53
:101310001E1F1E1F1F1E1F1E1F411325FFC11B4125
:1013200013C3004A13B9112233000000000000006B
:10133000613110D7000000008080800000000000B4
:1013400000000000000000000080C0E0F0F8F8F8A5
:10135000FCFCFCFCFCF8F8F8F0E0C08000000000A9
:1013600000000000000000000000808080000000FD
:101370000080F07C0F03C1F03C0E82E07818000082
:101380000000C0F0FCFFFFFFFFFFFFFFFFFFFFFFBC
:10139000FFFFFFFFFFFFFFFFFFFFFCF8C0000000A3
:1013A000001878E0820E3CF0C1010F7EF080031F30
:1013B000FCE000071F78E0830F3C300000C0FCFF1A
:1013C000FFFFFFFFFFFFFFFFFFFFFFFFFFFFFFFF2D
:1013D000FFFFFFFFFFFFFFFFFFFFFCE00000303CCF
:1013E0000F83E0781F0780E07C1F030000000103EB
:1013F00003020000000000F0FCFF9F0F070303033F
:10140000010101013078FCFCFCFCFCFCFC783001A3
:10141000010101030303070F9FFFFCF00000000020
:1014200000020303010000000000000000000000B3
:1014300000000000000307070F0E1C1C3C38383862
:101440007070707070707070707070707038383844
:10145000381C1C1E0F0707030000000000000000DE
:1014600000000000004213F100006020134501025B
:10147000020203020502080409020B040F02100114
:10148000130119001A001B0031003200D400411072
:101490009800440ED60000000000900042E4121CA8
:1014A000FB900CB9E0FBA3E0FAA3E0900CC4F9E0D8
:1014B000FEA3E0F5828E83121B7AFF900CB6E0FB50
:1014C000A3E0FAA3E0F9229000FC75F01DED121ED6
:1014D000FBEC75F01DA42583F58322E4F0A3F0A3B3
:1014E000F0A3F0A3F0A3F0A3F0A3F0A3F0A3F022E5
:1014F000900CA6E0FEA3E0FF7C007D1D121BDB909C
:101500000CBD74062FF974013EFA7B01E4F0A322AE
:10151000900CA6E0FEA3E0FF7C007D1D121BDB907B
:101520000CBD74092FF974013EFA7B01E4F0A3228B
:101530007D1D121BDB900CBD74FB2FF974003EFA6D
:101540007B01E4F0A3227D1D121BDB900CBD74FF18
:101550002FF974003EFA7B01E4F0A3227D1D121BDB
:10156000DB900CBD74032FF974013EFA7B01E4F0AB
:10157000A322900CA6E0FEA3E0FF7C007D1D121BC1
:10158000DB74352FF97401900CBD3EFA7B01E4F059
:10159000A322900ECEE47B017A017918F0A3229069
:1015A0000CA6E0FEA3E0FF7C007D1D021BDB7B019F
:1015B0007A017943E4F0A3227B017A017960E4F0B7
:1015C000A3227B017A01793DE4F0A3227B017A0119
:1015D000795AE4F0A322E47B017A017945F0A32251
:1015E000E0F9A3E0FAA3E0900CB2C9F0A3EAF0A3FB
:1015F000E9F022900001121B7AFF900028E48FF09E
:10160000121CFB900002121B7AFF90002AE48FF05C
:10161000121CFB900003121B7AFF90002CE48FF049
:10162000121CFB900004121B7A90002EFFE48FF036
:10163000021CFBE47B017A017962F0A322EFF0AF98
:10164000037C007D64AE02121BED7F0A7E00CFCDCD
:10165000CFCECCCE021BEDE47B017A0079FBF0A368
:1016600022900010E475F001121CFB900CB0E4F025
:10167000A304F0900CA8E0FCA3E0FD7F017E002213
:10168000E47B017A0079FFF0A322E47A0179067BFA
:1016900001F0A37403F022E0FBA3E0FAA3E04A4BBD
:1016A00022E47B017A01791CF0A322E47B017A0118
:1016B0007923F0A322E47B017A017909F0A3229037
:1016C0000CBCE0FEA3E0900CC0FFE0FCA3E0FD2218
:1016D000E47B017A017926F0A322E47B017A017987
:1016E00003F0A32275F00AA42DFFE5F03CFE121BC7
:1016F0007A7C002FFFEC3E9000158FF0121CFB90BF
:101700000044121CA4640145F022E47B017A0179B3
:1017100020F0A322900CA6E0FEA3E0FF64014E227D
:10172000EEF0A3EFF0E4A3F0A3F0EF4E22121B7A49
:10173000FF7E007C037DE8121BDBAC06AD07227C3C
:10174000002FFFEC3EFEF0A3EFF022CFF0A3EFF06E
:101750007B017A0C795922FF121B7AFD129ADDAEB9
:1017600007900CA222EEF0A3EFF0900CA8E0FEA3ED
:10177000E0FF229400CF2401FBE43FFAE0FEA3E067
:10178000FF7C00227B01900ECEE4F0A322FFE0FD5F
:101790001299FF900CA222121B7AFFAD061299FF3C
:1017A000900CA22275F00AA42DFFE5F03CFE75F026
:1017B0001DEB121EFBEA2290000E021CA4900CC02E
:1017C000E0FEA3E0FFC322121B7A75F064A42DFD96
:1017D000EC35F0FC22900CBDE024FFFE900CBCE048
:1017E000900CC034FFF0A3CEF022900CC8E0FEA312
:1017F000E0FFED6F22900005EF121BB9900006028A
:101800001B7A7B01900CBDF0A37404F022900002BF
:10181000EF121BB9900003021B7A900008EF121B15
:10182000B9900009021B7A900C47E0F9A3E0FAA3F3
:10183000E022E0FEA3E0FFF5828E83021B7AE0FC4B
:10184000A3E0F5828C83EF021BB9FFE0FD129ADD65
:10185000900CD222FFE0FCA3E0FDC39FEC227C00B1
:101860002FFFEC3EFEF0A3EFF022900017121CA415
:10187000FFC3900CB1E09F900CB0E095F0228D82F8
:101880008C83121B7AFF22E4F0A3F0A3F022EFF086
:10189000900007021B7A7D0A121BEDAF05AE04AD66
:1018A00003AC02021BEDF0900008021B7AF09000DE
:1018B00005021B7AFB75F01D121EFBEA2290001038
:1018C000E475F001121CFB900CB1E004F0229000D2
:1018D00012021B7A900013021CA4A3ECF0A3EDF0FB
:1018E000227C277D10021BED7403F07F37FE2274EB
:1018F00004F07FA67E03227404F07F327E032274FC
:1019000004F07F427E03227402F07F3F7E03227444
:1019100002F07F4F7E0322FC7D1D021BDB90001531
:10192000021CA4900C4AE0FFA3E0900CA6CFF0A309
:10193000EFF0227D017BFF7E00021B3B900003EF56
:10194000121BB9900004121B7AFF22900CC1E024F4
:10195000FFF0900CC0E034FFF022900001EF121B6A
:10196000B9900002021B7AF090000A021B7A9000E4
:1019700017121CA4FF900CB4E065F022FFE0FD12EA
:101980009ADD900CA222E4F0A3F0A3F0227403F0FD
:101990007F4BFE227403F07F47FE22900CA6FFE0EF
:1019A000FCA3E0FD2275F064A42BFFE5F03AFEA352
:1019B000E022900010E4F5F022E0FBA3E0FAA3E0BF
:1019C000227C007D0A021BED740CF07F737E0322E3
:1019D000740CF07F857E03227404F07FA07E0322C6
:1019E000EFF090000C021B7A900CB6E0FCA3E02212
:1019F000A3F0A37401F0A322FF900CB5E5F0F0A3CF
:101A0000EFF02274FF2DF58274FF3CF58322F582FE
:101A100074FF3EF583021B7A900CC4E0FCA3E0FD4A
:101A2000EF6D2224FFF58274FF35F0F583227B01F0
:101A3000900CBDF0A37403F022A3F0A3F0900CBDB2
:101A4000227B01900CBDE4F0A304F022F090000B87
:101A5000021B7AEF121BB97F0122F58374FFF00F8E
:101A600022FFAEF0C39410EE942722E709F608DFB8
:101A7000FA8046E709F208DFFA803E88828C83E725
:101A800009F0A3DFFA8032E309F608DFFA8078E391
:101A900009F208DFFA807088828C83E309F0A3DF03
:101AA000FA806489828A83E0A3F608DFFA80588985
:101AB000828A83E0A3F208DFFA804C80D280FA8029
:101AC000C680D4806980F28033801080A680EA804E
:101AD0009A80A880DA80E280CA803389828A83EC87
:101AE000FAE493A3C8C582C8CCC583CCF0A3C8C50B
:101AF00082C8CCC583CCDFE9DEE7800D89828A838A
:101B0000E493A3F608DFF9ECFAA9F0EDFB22898251
:101B10008A83ECFAE0A3C8C582C8CCC583CCF0A305
:101B2000C8C582C8CCC583CCDFEADEE880DB898209
:101B30008A83E493A3F208DFF980CC88F0EF600198
:101B40000E4E60C388F0ED2402B4040050B9F58253
:101B5000EB2402B4040050AF2323458223901ABB28
:101B600073BB010689828A83E0225002E722BBFE12
:101B700002E32289828A83E49322BB010CE5822955
:101B8000F582E5833AF583E0225006E92582F8E6FE
:101B900022BBFE06E92582F8E222E58229F582E5EC
:101BA000833AF583E49322BB010689828A83F0227B
:101BB0005002F722BBFE01F322F8BB010DE582299A
:101BC000F582E5833AF583E8F0225006E92582C8DC
:101BD000F622BBFE05E92582C8F222EF8DF0A4A80B
:101BE000F0CF8CF0A428CE8DF0A42EFE22BC000BEA
:101BF000BE0029EF8DF084FFADF022E4CCF875F043
:101C000008EF2FFFEE33FEEC33FCEE9DEC98400521
:101C1000FCEE9DFE0FD5F0E9E4CEFD22EDF8F5F0E7
:101C2000EE8420D21CFEADF075F008EF2FFFED33EF
:101C3000FD4007985006D5F0F222C398FD0FD5F06D
:101C4000EA22C2D5EC30E709B2D5E4C39DFDE49C9D
:101C5000FCEE30E715B2D5E4C39FFFE49EFE121BF5
:101C6000EDC3E49DFDE49CFC8003121BED30D50721
:101C7000C3E49FFFE49EFE22C5F0F8A3E028F0C570
:101C8000F0F8E582158270021583E038F022A3F89F
:101C9000E0C5F025F0F0E582158270021583E0C8FA
:101CA00038F0E822BB0110E58229F582E5833AF598
:101CB00083E0F5F0A3E0225009E92582F886F008D8
:101CC000E622BBFE0AE92582F8E2F5F008E222E509
:101CD000832AF583E993F5F0A3E99322BB010A89EE
:101CE000828A83F0E5F0A3F0225006F709A7F019E5
:101CF00022BBFE06F3E5F009F31922F8BB0111E55A
:101D00008229F582E5833AF583E8F0E5F0A3F02235
:101D10005009E92582C8F608A6F022BBFE09E9258C
:101D200082C8F2E5F008F222E88FF0A4CC8BF0A490
:101D30002CFCE98EF0A42CFC8AF0EDA42CFCEA8E9D
:101D4000F0A4CDA8F08BF0A42DCC3825F0FDE98FC0
:101D5000F0A42CCD35F0FCEB8EF0A4FEA9F0EB8FB7
:101D6000F0A4CFC5F02ECD39FEE43CFCEAA42DCE84
:101D700035F0FDE43CFC2275F008758200EF2FFF82
:101D8000EE33FECD33CDCC33CCC58233C5829BED53
:101D90009AEC99E58298400CF582EE9BFEED9AFD57
:101DA000EC99FC0FD5F0D6E4CEFBE4CDFAE4CCF907
:101DB000A88222B800C1B90059BA002DEC8BF0847A
:101DC000CFCECDFCE5F0CBF97818EF2FFFEE33FE48
:101DD000ED33FDEC33FCEB33FB10D703994004EB00
:101DE00099FB0FD8E5E4F9FA227818EF2FFFEE33CC
:101DF000FEED33FDEC33FCC933C910D7059BE99ADE
:101E00004007EC9BFCE99AF90FD8E0E4C9FAE4CC6E
:101E1000FB2275F010EF2FFFEE33FEED33FDCC33D8
:101E2000CCC833C810D7079BEC9AE899400AED9BC1
:101E3000FDEC9AFCE899F80FD5F0DAE4CDFBE4CCA0
:101E4000FAE4C8F922CFF4CFCEF4CECDF4CDCCF461
:101E5000CC22EB9FF5F0EA9E42F0E99D42F0E89C2F
:101E600045F022E8600FECC313FCED13FDEE13FE0A
:101E7000EF13FFD8F122E8600FEFC333FFEE33FE1C
:101E8000ED33FDEC33FCD8F1227401FF3395E0FE15
:101E9000FDFCA3A3A3E0CF2FF0E58215827002150D
:101EA00083E0CE3EF0E582158270021583E0CD3DE1
:101EB000F0E582158270021583E0CC3CF022ECF054
:101EC000A3EDF0A3EEF0A3EFF022A8828583F0D07B
:101ED00083D082121EE1121EE1121EE1121EE1E405
:101EE00073E493A3C583C5F0C583C8C582C8F0A3B6
:101EF000C583C5F0C583C8C582C822A42582F582E2
:101F0000E5F03583F58322BB010DE58229F582E5F5
:101F1000833AF583021F935007E92582F8021F8A4E
:101F2000BBFE07E92582F8021FBCE58229F582E5A0
:101F3000833AF583021FC5D083D082F8E4937012F0
:101F4000740193700DA3A393F8740193F5828883B1
:101F5000E4737402936860EFA3A3A380DFEC8EF0B8
:101F6000A4CCC5F0CCCDF8EFA4CEC5F02DFDE43C5B
:101F7000FCE8A42EC8C5F03DFDE43CFCEFA4FFE561
:101F8000F028FEE43DFDE43CFC22E6FB08E6FA080E
:101F9000E6F922E0FBA3E0FAA3E0F922F8E0FBA3D4
:101FA000A3E0F925F0F0E582158270021583E0FACE
:101FB00038F022EBF0A3EAF0A3E9F022E2FB08E21A
:101FC000FA08E2F922E493FB740193FA740293F99C
:101FD00022900CB6EB1215EBE4900CBE1214E890B4
:101FE0000CBCE0FCA3E0FD900CC2ECF0A3EDF01201
:101FF00014BB1218D425E0FBE5F033FAED24FAFF08
:10200000EC34FFFE7C007D05121BED909BD575F036
:10201000C8ED121EFBEC75F0C8A42583F583E5829C
:102020002BF582E5833AF583E493FE740193FBAAD2
:10203000067C007D64FF121BED900CC4EEF0A31231
:10204000163DA3EEF0A3EFF0AE02AF031219C112DA
:1020500018DAE41214E7900CBCE0FCA3E0FD24F5D0
:10206000FEEC34FF900CCEF0A3CEF0900CB612161E
:10207000977002FF221214BB1218D4FFAEF0D39453
:1020800000EE94004008EF9464EE940040037F005B
:1020900022900CC21217C09406EE94004009D3EFB0
:1020A000940CEE940040037F0022C002C001900C0B
:1020B000B912182A900CD51215EA1218DAD001D0EC
:1020C0000212645B900CCE1217C0EE9400405BD3FA
:1020D000EF9402EE94005052900CC5E09F900CC417
:1020E000E09E500CA3E0240AF0900CC4E03400F011
:1020F000D3900CC7E09F900CC6E09E500CA3E02448
:102100000AF0900CC6E03400F0900CCEE0FEA3E0A4
:10211000FFD3900CC9E09F900CC8E09E500CA3E048
:10212000240AF0900CC8E03400F0900CC0E4F0A356
:1021300004F01216BFD39FEC9E5035900CC41217BA
:10214000ED7002EC6E6019A31217ED7002EC6E6078
:102150000FA31217ED7002EC6E60051218DA8010F2
:10216000900CC1E004F070CA900CC0E004F080C292
:10217000E4900CC0F0A3F01216BFC39FEC9E502653
:10218000900CB91214BE12187E900CBFE02FF09084
:102190000CBEE03400F0900CC1E004F070D9900C5B
:1021A000C0E004F080D11214BB1218CE64066003A4
:1021B000022292900CD0F0A3F01217D51217BDEEA8
:1021C00094004036121A187002EE6C6028A31216A2
:1021D000C26F7002EC6E601D1217EA7002EC6E6046
:1021E00014A31217ED7002EC6E600A900CD0ECF0A4
:1021F000A3EDF0800512194B80C21214BB1215F327
:102200001218AE90003012162C75F00512149A9028
:102210000028121CA46F7002E5F0600302235290A4
:102220000CB91219B9900CC61214AE90002A121CE7
:10223000A46F7002E5F06003022352900CB91214EF
:10224000BE900CC81214AF90002C121CA46F700228
:10225000E5F06003022352900CB91214BE900CCA30
:102260001214AF90002E121CA46F7002E5F06003F0
:10227000022352900CB91214BE900CD01214AF90DD
:102280000030121CA46F7002E5F0600302235202BA
:1022900023351214BB1218CE6407600302233D12CB
:1022A00017D51217BDEE94004027121A187002EECF
:1022B0006C6019A31216C26F7002EC6E600E1217DA
:1022C000EA7002EC6E60051218DA800512194B8074
:1022D000D11214BB1215F375F00412149A90002851
:1022E000121CA46F7002E5F07068900CB91214BE55
:1022F000900CC61214AF90002A121CA46F7002E555
:10230000F0704F900CB91214BE900CC81214AF901C
:10231000002C121CA46F7002E5F07036900CB912FC
:1023200014BE900CCA1214AF90002E121CA4B50754
:1023300021E4B5F01D90004475F00180121214BB29
:10234000900042E4F5F0121CFB900044E4F5F0121A
:102350001CFB1214BB1216FF7F0070027F0122903B
:102360000560E0FF14F0EFC3940174809480229024
:10237000063FE0FF3395E0FEEF4E22E4900563F068
:102380009005347407F0E49001F4F09005F87407B8
:10239000F0227404900564F0E4901342F0740C9001
:1023A0001341F09013437401F022740E900579F0FC
:1023B00090057874802290132DE0FFA3E0FEC39F68
:1023C000229005347407F09005F8F0E49001F4F0E1
:1023D0002274312FF582E43413F58374FFF022FF69
:1023E00024FCF58274FF3EF583ECF0A3EDF074FE5F
:1023F0002FF58274FF3EF5837401F074FF2FF58290
:1024000074FF3EF5832290082674FFF5F0121C78C5
:10241000FCC3E5F09401EC9400229000F7E0FF7E0D
:1024200000D394007480948022E4F09005637423B8
:10243000F09000F5E4F0A37480F022900561740C34
:10244000F0900468E0900562F09005607480F022DE
:102450009000CBE0C394047480948022901325E014
:10246000640A229000EFE0FF3395E0FE22900577AA
:10247000E024FFFF900576E034FFFE22900C2FE071
:10248000FFC3940C748094802290132EE004F022F9
:102490009005667402F0A37480F090056FE064010B
:1024A00022F09000C8E4F0A3F0A3F022900821F0FD
:1024B000900826E4F0A37440F022E49000CCF0A34E
:1024C000742BF0A374F2F022901325E064012290A3
:1024D0001325E0640222FF24FCF58274FF3EF5839D
:1024E00074FFF0A3F074FE2FF58274FF3EF583E4D1
:1024F0002290056674FFF5F0121C8EFEC3E5F09481
:1025000001EE940022901325E0FDC3940A74809498
:10251000802204F0E490132CF02290132CE0FF7E34
:1025200000640222F0A37401F07BFF7AA379DE221B
:102530009005647413F0A322900515F090051774AC
:1025400040F0E4227E0090055EEEF0A3EFF024FF61
:10255000FFEE34FFFE22900579740EF0A3740CF0A8
:10256000E422F0A37403F0A37480F07D347F48224A
:10257000901328E0FCA3E0FD900576ECF0A3EDF0CD
:1025800022E004F090055EE0FCA3E0FDAE047802DA
:1025900022900578E014F022900C2FE004F02290B5
:1025A0000821E0FF7E0022901325E0FF7E00640BEF
:1025B000229005637415F0E4900564F090056F2295
:1025C0009000F8E06401229005347407F02274034F
:1025D000F0E4900467F090132CF022900579E06409
:1025E0000122900000F0A3F0229005F2E0640122A5
:1025F000E014F0900576E0FEA3E0780222A3740ECA
:10260000F09005F4742622901341E0FF900C2FE027
:10261000FEC39F22901325E0640322E024FFF09084
:1026200000F5E034FFF0229005797402F0E49006A2
:1026300040F022901342E0D394057480948022905D
:102640001331EDF0900C2F7401F0229005667402A6
:10265000F0A37480F022F09006667411F022F090DE
:10266000019D74FFF022900563F07F0122F0E49059
:1026700005F2F0227B017A1379312290057FE06424
:102680000122900536E4F0A374F0F0227B037D0371
:102690007F0322E49000EDF0A3F0A3F022F0900677
:1026A000437402F07BFF22E4900C2EF0900C2DF08E
:1026B000229000CC122372700B9005637426F07F79
:1026C00004127800900602E070067420F012825125
:1026D0009005F8E0640470799000ED74FFF09006C6
:1026E00000A3E09000F3F01294011224A29000F8ED
:1026F000E070069000F10480291225C060030227D3
:10270000DC122463BEFF0ABFFF079000F17406804D
:10271000119000EE122466BEFF0EBFFF0B9000F179
:1027200074041229820227AC9000F7E0700A7F7AC5
:10273000129A0E9000F7807A12241A50030227DCB6
:10274000EF6401700312238B9000F7E014F002276E
:10275000DC9005F8E0640560030227DC12299E7016
:10276000569005FBE064167038A3E064D47032A381
:10277000E064DB702CA3E0643C702690074EE070B0
:102780001B129BD290066D12237270107D327F4413
:1027900012999390074E74C0F012940112238B800B
:1027A0003B9000F174071229821294019000F5E425
:1027B000F0A37480F08025E49000EDF09000F10427
:1027C000F09000F31224297F40129A0E9000C91253
:1027D00024535005E004F080031224BA12453990C6
:1027E00001F4E0642870709000EE74FFF09001EF47
:1027F000A3E0049000F21224A19000F8E07007908A
:1028000000F17403807E1225C060030228B190009D
:10281000ED122466BEFF0ABFFF079000F17404802A
:1028200063122463BEFF0ABFFF079000F1740580A6
:10283000539000F7E0700A7F7A129A0E9000F780AA
:102840004612241A406BEF640170049001F4F0907A
:1028500000F7E014F0805A9001F4E064297052A36C
:10286000E0642B70089000FA7402F08005E4900098
:10287000FAF012299E70159000FAE06402600D9043
:1028800000F1740712298D7480F08025E49000EE29
:10289000F09000F17403F0E4A312242A7F40129A0E
:1028A0000E9000C81224535005E004F08003122457
:1028B000BA125123900534E0640A70609000EF74FE
:1028C000FFF0900542E09000F41224A19000F8E09F
:1028D00060089000F0E0640170079000F1740280DD
:1028E000521225C060030229819000ED122466BEB9
:1028F000FF0ABFFF079000F1740680379000EE12C8
:102900002466BEFF0ABFFF079000F1740580247F94
:102910007A129A0E1225C79000F7801A900534E0BB
:10292000640B703C129622EF3395E04F700C9000D0
:10293000F1740712298D7480F022E49000EFF0907A
:1029400000F17402F09000F41224297F40129A0ED4
:102950009000CA1224535004E004F0221224BA2238
:10296000900534E0FF7E00640C700D90047BF0A3B2
:10297000F09005637425F022EF640D4E70031299F8
:102980004F22F0128CC09005637422F022F0128C5A
:10299000C09005637422F09000F5E4F0A322129633
:1029A00022EF3395E04F22128594900C30121EBE18
:1029B00012898960071289A0A3121EBEC390052F39
:1029C000E0942090052EE0940050037FFF22301BFE
:1029D0000A1289897002C21B7FFF221289A0124F3E
:1029E000F320C207E49013A4F080069013A474FFB0
:1029F000F012897070099013A9E07003022AEB901D
:102A00001399128973700B9013A9E064017003028B
:102A10002AFA90139A128973700B9013A9E064023A
:102A20007003022B0A90139B128973700B9013A9E9
:102A3000E064037003022B1B90139C128973700BCC
:102A40009013A9E064047003022B2C90139D12894B
:102A500073700B9013A9E064057003022B3D901373
:102A60009E128973700B9013A9E064067003022B09
:102A70004D90139F128973700B9013A9E064077037
:102A800003022B5D9013A0128973700B9013A9E0C1
:102A900064087003022B6D9013A1128973700B9060
:102AA00013A9E064097003022B7D9013A2128973AD
:102AB000700B9013A9E0640B7003022B8D9013A38D
:102AC000128973700B9013A9E0640A7003022B9DA6
:102AD0009013A4128973700E9013A9E0640D700610
:102AE0009013AC022BB012897070079013ACF002F7
:102AF0002BB890139912897370089013AC04F002EC
:102B00002BB890139A12897370099013AC7402F069
:102B1000022BB890139B12897370099013AC740345
:102B2000F0022BB890139C12897370099013AC7447
:102B300004F0022BB890139D12897370089013ACA7
:102B40007405F0807390139E12897370089013AC13
:102B50007406F0806390139F12897370089013AC11
:102B60007407F080539013A012897370089013AC0F
:102B70007408F080439013A112897370089013AC0D
:102B80007409F080339013A212897370089013AC0B
:102B9000740BF080239013A312897370089013AC08
:102BA000740AF080139013A41289739013AC70050B
:102BB000740DF0800374FFF09013ACE0FF90066595
:102BC000F0F47003022C489013A9E0FD9013ACE0E0
:102BD000FC6D6015EF640D900C386004ECF0800320
:102BE00074FFF09013A9EC8079D39013ABE094C0FC
:102BF0009013AAE09400500FA3E004F07006901325
:102C0000AAE004F01289AF9013AAE0FEA3E0FFD37C
:102C10009460EE9400402CEF94C0EE9400400EA31C
:102C2000E0640D7008900C38741BF080031289AFBB
:102C3000901397E004F0D3947F748094804029E44B
:102C4000F080251289AF80209013A9E0FF640D90D9
:102C50000C387004EFF0800374FFF09013ACE09038
:102C600013A9F0E4A3F0A3F0900C38E0FF22900544
:102C700064E070779000D2E0701D90056FE0640210
:102C800070159000D5E0700F1225307407F0A31274
:102C900024347F3E029A0E90056FE0FF7E006401AF
:102CA00070129000D5E0C39402748094805002802A
:102CB00001C35018EF64024E70289000D4E0C39412
:102CC000087480948050028001C34016122530742D
:102CD00006F0A31224347F58129A0E7F647E0002FD
:102CE0009BC0900564740112251322900564E06472
:102CF00001703F7403F0E490132C122499700512B4
:102D000097C98003129738900568EFF0122398E472
:102D1000900C2FF012247C50081223D11225988099
:102D2000F31224907B5270047D4C80027D4E7F66AE
:102D30008068900564E064036003022DC190134332
:102D4000E06402706F1226334053E4900C2FF09031
:102D50000C2FE0122481501EE0FF2431F582E43470
:102D600013F583E0FE74192FF582E43413F583EE36
:102D7000F012259880D9122392E4900C2FF012249F
:102D80007C50081223D112259880F31224907B5294
:102D900070047D4C80027D4E7F68029A4674031257
:102DA0002394E4900C2FF012247C50541223D1125F
:102DB000259880F3901343E064036003022F25807D
:102DC0004C900564E064047051FD7F051299729087
:102DD000134312251D702D1226334007900564748D
:102DE00005F022122392E4900C2FF0900C2FE0FDBE
:102DF000122481500B74312D1223D412259880EBAC
:102E000012264B22EF64034E6003022F2512253059
:102E1000740CF0A3E4F0A304F022900564E06405D0
:102E20006003022EAB7B01900C3304F0A37413F00B
:102E3000A37431F07A1379191258EEEF3395E04FFD
:102E400070581226741256C8EF703F1226749005FF
:102E500068E0FD126F88EF3395E0FEEFF47002EE4C
:102E6000F46003022F259005647412F09005661239
:102E700024347D327F4412999312249A7005900075
:102E8000D580039000D4E004F0221225307404F0C1
:102E9000A31224347D527F56800E1225307409F01F
:102EA000A31224347D347F44029993900564E06436
:102EB00012701B1224F1506D9000D2E07064122445
:102EC0009A705F9000D5E064017057029A2A9005CD
:102ED00064E06413704F1224F1504A900565E0FFDE
:102EE0007E00640C700E9000D2E070089000D5E077
:102EF000700280119000D2E0700F12249A700A9034
:102F000000D5E0700412237C22EF64064E600E9020
:102F10000565E0FF640C6005EF6407700512249AF4
:102F20008000129B6E22900460EEF0A3EFF09004FC
:102F300067E07015741E1267E4A37401F0E4A3F057
:102F4000A374FFF07F6C0230B8900467E0641E70D9
:102F500005741F0230DE900467E0641F703F126743
:102F6000D1702B9005F4E070089004677420023053
:102F7000FE9005F4E0FF6403600AEF64026005EF71
:102F800064F97007900467741EF02202305A1267C9
:102F90009A6480948040030231AA0231A0900467B1
:102FA000E06420701074211267DB900464E0FF126B
:102FB00089B6023171900467E06421600302306FCA
:102FC0001267D160030230609005F4E07052900403
:102FD00064E0FF7E0064017020900466E0FD33959C
:102FE000E0FCED4C7013900464E004F0900467740E
:102FF00024F090046674FF8020C3EF9408EE648090
:10300000948090046750101267E2A3E004F012313C
:10301000AB129BC00230FF7417F01268440230FFFD
:103020009005F4E0FF64066005EF6403702C9004E3
:1030300065E0C3940374809480900467500E126717
:10304000E21294011231AB129BC080077429F0A3E5
:10305000740BF0900465E004F02290046702318F55
:1030600012679A6480948040030231AA0231A090D2
:103070000467E06424700F74251267DB7B32FAFD6D
:10308000FC7F01028061900467E06425704612674E
:10309000D170329005F4E0FF7E00700B90046774ED
:1030A00029F0A3740AF022EF64094E9004677012AD
:1030B0001267E21294017F6E129A0E7F967E0002D2
:1030C0009BC002318F12679A648094804003023162
:1030D000AA0231A0900467E064227008742312678A
:1030E000DB029781900467E06423702B1267D17034
:1030F000179005F4E0640290046760067422F00201
:103100009401741E1267E42212679A6480948040CE
:10311000030231AA0231A0900467E06417700A74B8
:10312000181267DB1296B38048900467E0FF7E00B8
:10313000641870221267D1700F9005F4E090046754
:1031400070047419F022804790046212683564801C
:1031500094805056804AEF64194E70199004677439
:103160001A1267DB900460E0FCA3E0FD7F0112848B
:10317000E212684422900467E0641A702D1267D14D
:1031800070159005F4E090046770047428F02274C0
:1031900029F0A3740BF02212679A64809480500A7D
:1031A0009004677429F0A37401F0227F6E129A0EC6
:1031B0007F967E0022900CA2EB1215EB900CAC12C5
:1031C00014DB900CA21216977002FF22900CA21230
:1031D00014BE1219B2121CFBC002C001900CA51241
:1031E000182A900CB91215EA900CAAE0FFA3E090FF
:1031F0000CBCCFF0A3EFF0D001D002121FD1EF70C2
:1032000002FF22900CA21214BE1218CE24F960699B
:1032100004600302341290000612172D900007126A
:1032200017C71218A79000091216E4600302341E93
:1032300012176A127A02900CACEEF0A3EFF0900C29
:10324000A21214BE12191D121A61400302341E90FC
:103250000CAC1218559E5002800FBC2716BD0F13E0
:10326000C3EF940BEE9400500A900010E475F00147
:1032700002341B1219B202341B900CA21214BE129B
:1032800017FC75F00AA4FDACF01218AE75F064A43A
:103290002DFFE5F03CFE1218907C002FFFEC3E90D5
:1032A00000178FF0121CFB90000812172D900009D8
:1032B0001217C712196890000B1216E4600302344B
:1032C0001E12176A127AFB900CAE121765127BF26F
:1032D000900CB0121765127E48900CB4121765124C
:1032E000818E900CB2EEF0A3EFF0900CA21214BEFF
:1032F00012191D121A61400302341E900CAEE0FC3C
:10330000A3E0FDC3940FEC94275073C3ED9FEC9E94
:1033100050030233C8900CA21214BE12191DFF9064
:103320000CAEE065F07003A3E06F704612196E708A
:1033300003A3E06F60030233C8900CA21214BE1204
:1033400018D4FF900CB2E065F07003A3E06F600644
:10335000121661126607900CA21214BE12186A406F
:103360000302341E1218BD7006900CB0E004F00287
:103370003400900CA21214BE1219B202341B900C2D
:10338000AEE064277004A3E0640F600302341E9073
:103390000CA21214BE12191DC3940BE5F094005038
:1033A00006121661126607900CA21214BE12191DA5
:1033B000FF900CAEE065F07003A3E06F706012192F
:1033C0006E7003A3E06F60051216618040900CA23E
:1033D0001214BE1218D4FF900CB2E065F07003A373
:1033E000E06F6006121661126607900CA21214BEFE
:1033F00012186A50291218BD7006900CB0E004F043
:10340000900CB0E0FEA3E0900CA812199E12660783
:10341000800C900CA21214BE1219B2121CFB900C5C
:10342000A21214BE9000101217027F0070027F01DA
:1034300022900CA2EB1215EBA3EDF0900CA2121649
:103440009770030236A1A3E0640660030234FD9086
:103450000CA2A3A3E0F91217FC12199B9000FB75B4
:10346000F01D1214CE12188EFF1214C7EF1218A6F8
:10347000FF9000FD1214CAEFF0121821FF9000FE19
:103480001214CAEFF09000FB1214CAE0FF9001354D
:103490001214CAEFF01214C7E0FF9001361214CADA
:1034A000EFF09000FD1214CAE0FF9001371214CA29
:1034B000EFF09000FE1214CAE0FF9001381214CA17
:1034C000EFF0ED4C701A900CA612177C121530120A
:1034D00019D812422B1215727404F07FAD02369C7B
:1034E00012171460030236A1FC1215301218EF12E5
:1034F000422B1215727404F07FB402369C900CA516
:10350000E0640760030236A1900CA21214BE1218E8
:10351000A712199B9000FF75F01D1214CEEFF01248
:103520001821FF9001001214CAEF121967FF9001D1
:10353000011214CAEF121A4CFF9001021214CAEFC2
:103540001218ADFF9001061214CAEFF01217FCFF1B
:103550009001071214CA12188EFF9001081214CAA3
:10356000EFF0121B61FF9001091214CA1219E0FE5C
:1035700090010A1214CAEE1218A6FE900139121414
:10358000CAEEF0121821FE90013A1214CAEE121976
:1035900067FE90013B1214CAEE121A4CFE90013CD9
:1035A0001214CAEE1218ADFE9001401214CAEEF0C9
:1035B0001217FCFE9001411214CAEE12188FFE90F1
:1035C00001421214CAEEF09001431214CA1219E01B
:1035D000FF9001441214CAEFF0ED4C7062900CA6FB
:1035E00012177C1215461218F712422B1214F0749F
:1035F00003F07F3BFE12422B1215101219071242E4
:103600002B12159F74392FF974011215877404F069
:103610007F527E0312422B12159F74402FF97401C2
:103620001215877403F07F5BFE12422B12159F74F4
:10363000432FF974011215877402F07F5F805D12C9
:103640001714705DFC1215461218FF12422B12144B
:10365000F012198D12422B12151012190F12422B53
:1036600012159F74392FF974011215877404F07FB5
:10367000627E0312422B12159F74402FF9740112BF
:1036800015877403F07F6BFE12422B12159F744353
:103690002FF974011215877402F07F6F7E031242B6
:1036A0002B22E4900C3EF0A3121ECA0000000090F2
:1036B0000C43121ECA00000000E4900C47F0A3F077
:1036C0003003030237CD129BB750030237BF12916C
:1036D000C5900C3F121EBEE4900C3DF0900C3DE0F6
:1036E000C395105039900C3F125CA67801121E63EE
:1036F000900C3F121EBE30D720125C7AC000C00171
:10370000900C3D125C69E0F9F8121E76D001D000F1
:10371000125CB2900C3EE004F0125CF180BE900CA2
:103720003EE0FF7E00C39402748094804018D2165D
:10373000EF9403748094804005129BBA8008129B1A
:1037400000EF6002C216201623E4FFFEFDFC125CAF
:103750007AC3121E5260109012BCE004F070069002
:1037600012BBE004F0801D125CDD80189012ABE00B
:1037700004F070069012AAE004F0900C43121ECAE6
:1037800000000000129A79D39012BCE09F9012BB07
:10379000E09E4006129BBA125CDDD39012ABE0941F
:1037A0002C9012AAE0940150030238EF129BBA90B9
:1037B00012E27401F0E49012AAF0A3F00238EF9044
:1037C000A4ECE4740193FF123ED80238EF20040306
:1037D0000238B9125C7AC000C0019012E3125C6931
:1037E000E0F9F8121E76D001D000125CB2125C072C
:1037F000125CF8900C47F0A3EFF09012E3E0FF1298
:103800009B28AD07AC06ED7802CEA2E713CE13D805
:10381000F8FFC3ED9FFFEC9EFED3900C48E09FEEB7
:103820006480F8900C47E06480985058E4901260EF
:10383000F0A3F0901223E004F0940574809480408B
:1038400010E4F0C203C204900C43121ECA00000030
:1038500000E4900C3DF0900C3DE0FFC39510400358
:103860000238EF12408B200316900C3DE0FF9012BF
:10387000E3E06F600A900C3DE0125C17125CC4122A
:103880005CF180D2E4901223F0129A79901260E4F5
:1038900075F001121C78FCD3E5F09FEC9E405012AD
:1038A0009BBAE4901260F0A3F0C203C204900C43F0
:1038B000121ECA000000008036785406E6D3940534
:1038C000748094804004E4F6C203E4900C3DF090D0
:1038D0000C3DE0FFC39510501612408B20030B9057
:1038E0000C3DE0FF125C17125CC4125CF180E090AA
:1038F0000C43125CA6227D017F041239000D7F0467
:10390000EFF582758300C3748094804024D3E582F0
:103910009405748094805019EDF582C3748094806E
:10392000400FE58294087480948050057582018070
:1039300003900000E582640145836003023AF9EFD9
:103940001460641470030239EC147003023A3114E9
:103950007003023A76147003023AB8240560030239
:103960003AF9EB14601D14602D24026003023AF949
:10397000A8057401088002C333D8FCFF429AEFF413
:10398000529B22A8057401088002C333D8FCFFF4BF
:10399000529AEF429B22A8057401088002C333D8D3
:1039A000FCF4529A529B22EB14601D14602D2402E9
:1039B0006003023AF9A8057401088002C333D8FCF9
:1039C000FF4291EFF4529222A8057401088002C3CD
:1039D00033D8FCFFF45291EF429222A805740108FB
:1039E0008002C333D8FCF45291529222EB14601D32
:1039F00014602D24026003023AF9A80574010880BE
:103A000002C333D8FCFF42A1EFF452A222A80574EE
:103A100001088002C333D8FCFFF452A1EF42A22276
:103A2000A8057401088002C333D8FCF452A152A245
:103A300022EB14601D14602D24026003023AF9A8E1
:103A4000057401088002C333D8FCFF42B1EFF45281
:103A5000B222A8057401088002C333D8FCFFF452D7
:103A6000B1EF42B222A8057401088002C333D8FC2A
:103A7000F452B152B222EB14601A14602A2402707C
:103A800078A8057401088002C333D8FCFF42C1EF57
:103A9000F452C222A8057401088002C333D8FCFF87
:103AA000F452C1EF42C222A8057401088002C33358
:103AB000D8FCF452C152C222EB14601A14602A24BA
:103AC000027036A8057401088002C333D8FCFF4297
:103AD000D9EFF452DA22A8057401088002C333D862
:103AE000FCFFF452D9EF42DA22A8057401088002E3
:103AF000C333D8FCF452D952DA22900C4D125A1723
:103B0000900C4CEFF0900C5774FEF0E4A3F0A3F08F
:103B1000EF24F4601024FE7016900C587412F0A379
:103B20007410F0800A900C587420F0A37430F09058
:103B30000C58E04480FD7F02129A537D807F04126E
:103B400094A6123CEB7D807F0A1295E4E4900C5B16
:103B5000F0A3F0900C50E0FF900C5BE0FCA3E0FDC4
:103B6000C39FEC94005023900C4D125A0E8D828C02
:103B700083121B7AFD7F09129A53900C5CE004F0CB
:103B800070D1900C5BE004F080C9900C4CE0FD7F9C
:103B900001129A53900C4CE0640C70077D807F0DED
:103BA0001295E4129A1C900C5BE4F0A37464F07F0D
:103BB000041298F4900C5AEFF0900C5CE024FFF0A3
:103BC000900C5BE034FFF0E07002A3E06011900C19
:103BD0005AE0FF20E009900C59E0FEEF5E60D07DD6
:103BE000807F0D1294A6900C5BE07002A3E070033E
:103BF000023CD87F061298F4EF541B6003023CD0BD
:103C0000900C57F0A3E0FF900C5AE05F30E0069074
:103C10000C5774FFF0900C4CE0640C6003023CDB2A
:103C20007F0A1298F4900C5AEFF07F0C1298F4EF80
:103C30005407FD6029900C5AE024FFFFE434FFFE96
:103C4000EF7803C333CE33CED8F97C002DFFEC3EA2
:103C5000F9900C54E0FBA3E0FAA3E0C98011900CAA
:103C60005AE075F008A4FF900C54125A0EE5F08F3C
:103C7000F0121CDC900C5AE0700204F0900C5AE038
:103C8000D394127480948040037412F0E4900C5B1F
:103C9000F0A3F0900C5AE0FFC3900C5CE09F900CF6
:103CA0005BE0940050357F091298F4900C51125A41
:103CB0000E900C5BE0FCA3E0F5828C83EF121BB945
:103CC000900C5CE004F070CB900C5BE004F080C3DF
:103CD000900C5774FEF08003129B607D807F0C1265
:103CE00095E4123CEB900C57E0FF22E4FD7F0112BB
:103CF0009A5322900455E06003023D7F9000D2E089
:103D000070439000D5E0703D9005637415F0900508
:103D100064740312251390056804F090056F122354
:103D200097E4900C2FF0900C2F12247F500B12234D
:103D3000D1900C2FE004F080ED12264B7B527D4C8D
:103D40007F66029A461223989005347409F0122671
:103D500082E4900C2FF0901341E0FF900C2FE0FED6
:103D6000C39F500E74312E1223D4900C2FE004F018
:103D700080E490045574011223CA7F5A029A0E906F
:103D80000455E064016003023E8B7D107F061299AA
:103D900072901343E06402704B9004557403F01268
:103DA00026741256C890045EEFF0600FC39403743B
:103DB00080948050069004557402F01225C7900438
:103DC00055E0640370157F40129A0E90045D748074
:103DD000F0122450501FE004F0801A7D327F5A12F6
:103DE00099938011901343E0640370099004557413
:103DF00004F01225C71245399001F4E064287029B7
:103E0000C39001F0E0940A9001EFE09400501A9002
:103E1000045574021223CA7D327F5A12999390017D
:103E2000F37401F07F03023ED49001F4E0FF6429B3
:103E30006022EF64286003023ED79001F0E0240185
:103E4000FF9001EFE03400FED3EF940AEE940050AF
:103E500003023ED79001F5E0642B90045F70057477
:103E600002F080037401F0E49001F4F090045574C2
:103E700003F090045D7480F07F40129A0E7F02126E
:103E800078001224505050E004F022900455E06471
:103E9000027009129A2AE49000CBF022900455E0B7
:103EA0006403701D90045DE014F012236750281223
:103EB00024504005E4A31224BE1223C112266680BA
:103EC00013900455E06404700E7F60129A0E122362
:103ED000C112266612780022900C49EFF09013CAA6
:103EE000E0C39403748094804048E4F09012E2E0D0
:103EF0007035900C4AF0900C4AE0C395105028E0C1
:103F0000FF75F002A424BEF582E5F03412F583E0DB
:103F1000FCA3E0FDEF25E02424F8A60408A6059004
:103F20000C4AE004F080CF127FFAC217E49012E24C
:103F3000F0229013C4E004F0900C49E0FF9013C409
:103F4000E0B507081290F9E49013C5F0900C49E031
:103F5000FF9013C4E0D39F500302408AE4900C4AC0
:103F6000F0900C4AE0C395104003024036E0FF7524
:103F7000F002A424BEF582E5F03412F583E0FCA340
:103F8000E0FD75F002EFA42424F582E5F03412F58B
:103F900083E0FEA3E0C39DFFEE9CAD07FC9012E220
:103FA000E070429012BDE0FB3395E0FAFEEB780240
:103FB000C333CE33CED8F9FFD3ED9FEE6480F8EC57
:103FC0006480984060E49BFFE49AFEEF7802C3337C
:103FD000CE33CED8F9FFC3ED9FEE6480F8EC648059
:103FE00098504280519012BDE0FB3395E0FAFEEB11
:103FF0007803C333CE33CED8F9FFD3ED9FEE648080
:10400000F8EC648098401EE49BFFE49AFEEF78038E
:10401000C333CE33CED8F9FFC3ED9FEE6480F8EC06
:104020006480984011900C4AE0FF12408B900C4A3B
:10403000E004F0023F61900C4AE0B510069013C511
:10404000E004F0900C49E0FD75F008A4FF9013C463
:10405000E0C39FE5F06480F8748098402DE4F0C2DE
:10406000169013CAE004F0ED75F004A4FF9013C598
:10407000E0C39FE5F06480F8748098400DE49013ED
:10408000CAF01292AD127FFAC21722900C4BEFF0D9
:10409000F9E0FF75F002A424BEF582E5F03412F5D4
:1040A00083E0FCA3E0FD75F002EFA42424F582E593
:1040B000F03412F583E0FEA3E0C39DFFEE9C900C6C
:1040C0004CF0A3EFF0AF01129B28AD07AC06900CAB
:1040D0004CE0FEA3E0FFD39DEC6480F8EE64809892
:1040E0005014C3E49DFBE49CFAC3EF9BEA6480F8A0
:1040F000EE648098502F900C4BE0FF75F002A424E2
:1041000024F582E5F03412F583E0FCA3E0FD75F0C0
:1041100002EFA424BEF582E5F03412F583ECF0A39F
:10412000EDF00241FEECA2E713FEED13FF900C4C04
:10413000E0FAA3E0FBD39FEE6480F8EA6480985035
:104140001CECA2E713FEED13FFC3E49FFFE49EFE09
:10415000C3EB9FEE6480F8EA648098503E900C4B6D
:10416000E0FD75F002A424BEF582E5F03412F5837B
:10417000E0FAA3E0FBEAC313FEEB13FFC3EB9FFBE4
:10418000EA9EFA75F002EDA42424F582E5F03412DB
:10419000F583E0C313FEA3E0138047900C4BE0FDD2
:1041A00075F002A424BEF582E5F03412F583E0FA3E
:1041B000A3E0FBAE027803CEC313CE13D8F9FFC33E
:1041C000EB9FFBEA9EFA75F002EDA42424F582E54C
:1041D000F03412F583E0FEA3E07803CEC313CE13D0
:1041E000D8F92BFFEA3EFE900C4BE075F002A424B8
:1041F000BEF582E5F03412F583EEF0A3EFF0900CFB
:104200004BE0FF75F002A424BEF582E5F03412F510
:1042100083E0FCA3E0FD75F002EFA42424F582E521
:10422000F03412F583ECF0A3EDF022900CB812728A
:104230002F78BF7C0C7D017BFF7AA079E47E027F22
:1042400000121B3B12724B900EC5F0A3F0900CB8FD
:10425000E0FFA3E0900EC7CFF0A3EFF0900EC5E013
:10426000FEA3E0FF900CBDE0FCA3E0FDD39FEC9E1D
:1042700040EA900EC7E05401FEA3E0FF900EC1EEAD
:10428000F0A3EFF0900EC6E02400FB900EC5E034E2
:1042900002CBC39FFFEB9EFED3ED9FEC9E407412BA
:1042A00072534E60061271EB1243AC12723E1272E0
:1042B00053C3E49FFF7402127266501E127207709D
:1042C00006900EC3E004F012725C900EC0E004F0A1
:1042D0007006900EBFE004F080D412437E900ECEA4
:1042E0001271FA128C83127253C3E49FFF74029E00
:1042F000FE900EC6E02FF0900EC5E03EF0900EC886
:10430000E02FF0900EC7E03EF07F057E0012967B16
:1043100002425C127253C31271EB1243AC12723E32
:10432000900EC5E0FEA3E0FFC3900CBEE09FFF909F
:104330000CBDE0127266501E1272077006900EC31A
:10434000E004F012725C900EC0E004F07006900E73
:10435000BFE004F080CA12437E7B017A0C79BF90E3
:104360000ECE127200128C83900CBDE0FFA3E09081
:104370000EC5CFF0A3EFF07F057E0002967B900E76
:10438000C1E0FEA3E0FFC3900EC8E09FFF900EC700
:10439000E09EFE1286DF900EC1E0FEA3E0FFC39018
:1043A0000EC8E09FFF900EC7E09EFE2212880D7F90
:1043B000017E0012967B22900515E0FF7E007005BD
:1043C00004F0A3F022EF64014E702612236F600305
:1043D0000245381223B64003024538EE75F004A4B6
:1043E00024D6F974A335F0FA7BFF128B8612248948
:1043F00022900515E0640370087402F07F42029A6F
:104400000E900515E06402701F129399EF3395E04A
:10441000FEBEFF11BFFF0E9005157404122656E470
:10442000900518F0220244A9900515E06404600389
:104430000244B312836E900666E0FF7E0064127041
:104440004F74051225389000D1F0A3F0FDEDC39410
:1044500032748094804003024538ED25E025E02445
:1044600000F582E43400F58374FFF0A3F0ED25E05D
:1044700025E02402F582E43400F583E4F0ED25E044
:1044800025E02403F582E43400F583E4F00D80BDDB
:10449000EF64134E60030245389005181224535000
:1044A00008E0041226560294019005157408F07D68
:1044B000348048900515E0640570159005171223A7
:1044C00062507512912D74061225389000D3F02297
:1044D000900515E064067028900517122362505865
:1044E0001293011292D81298A29005157407122502
:1044F0003B9000D5F09000D4F07D327F420299933A
:10450000900515E0FF7E0064077010900517E0FD30
:1045100014F0C3ED122368501F800EEF64084E7034
:104520000C900517122362500F12237B2290051561
:10453000E064097003129A38229001F4E0FF7E00D3
:104540007004741EF022EF641E4E700B741F12670D
:10455000D81297690246549001F4E0641F70341237
:1045600067D1701C9005F4E070099001F47420F09C
:104570000294019005F4E0640270028011E4800E60
:104580009001F112679D940040030246B5E490014A
:10459000F4F0229001F4E06426700B74271267DBBC
:1045A0001295C50246549001F4E0642770491267E1
:1045B000D170319005F4E070257B017A0579DE1227
:1045C0008779EF3395E04F9001F470097420F090F3
:1045D00001F10246877429F0A3742B0246AB1267DF
:1045E000F00246AB9001F112679D94004003024631
:1045F000B51267F00246AB9001F4E06420700C74D1
:10460000211267DB7F011289B680499001F4E0FF37
:104610007E00642170291267D170159005F4E09036
:1046200001F470047424F0227429F0A37406807BD2
:104630009001F11268359400507B1267F0806CEFA6
:1046400064244E701674251267D87B32FAFDFC7F05
:10465000011280619001F1126847229001F4E06438
:104660002570521267D170369005F4E0FF7E00701D
:104670001A9001F47428F09005D0E0FDA3E09001B9
:10468000EFCDF0A3EDF0A31267E822EF64174E9090
:1046900001F47002F0227429F0A37408800D9001D7
:1046A000F112679D9400500D1267F0F09001F1E453
:1046B000F0A374C0F022900C47EB1215EB1218DA3D
:1046C00078597C0C7AA079857F47121933E4900CD5
:1046D000A0F0A3F0121827900CA51215EA900C4C2C
:1046E000E0FFA3E0900CA8CFF0A3EFF0900C4E12E7
:1046F000182A900CAA1215EA900C51E0FFA3E09042
:104700000CAD12174B1260CBEF7002FF2212175044
:10471000125498121750127DD21217501261B21211
:104720001750125DFB121750127983EF7002FF22AF
:10473000121750124C37121827900CA51215EA9038
:104740000C4AE0FFA3E0900CA8CFF0A3EFF0900C90
:104750004CE0FFA3E0900CAA12174B1231B5900C5D
:1047600053121697603DA31216976037900C6BE0BA
:10477000FF900C531214BEE48FF0121CDC900C6BF3
:10478000E0B40713900C70E0F9A3E0FF900C561210
:1047900019B9C98FF08009900C561214BEE4F5F0D7
:1047A000121CDC900C6BE0B40619900C69E07004EC
:1047B000A3E0640170731217501219237D0612349E
:1047C000318066900C6BE06407705E900C69E0705D
:1047D00004A3E06401700B1217501219237D071215
:1047E0003431900C4AE0FEA3E0FF127BF2900CA063
:1047F000EEF0A3EFF0C3900C71E09F900C70E09E80
:104800005027900CA1E094E7900CA0E09403401294
:10481000E4F0A3F0900C4AE0FCA3E0FDE4FFFE12FC
:104820006607E4900C69F0A3F0900C69A3E0FF2206
:10483000F9121B7AFF900C30E0FBA3E0FAA3E0F939
:1048400022EFFD7C00E92DF9EC3AFA900C34E0FC03
:10485000A3E029F9EA3CFA121B61FEEFC313FD90B5
:104860000C33E075F008A42481F582E43405F58367
:10487000E58222EF75F008A42487F582E43405F57B
:104880008374FFF0EF75F008A42480F582E434050A
:10489000F583227A0C79317B01900ECEE4F0A304EB
:1048A000F022EF75F008A42487F582E43405F5833F
:1048B00022E490132EF0740490132DF090056322DF
:1048C0002DF582E43583F583227B017A057980E436
:1048D000F0A322EEC3940A7480948022EBF0A3EA42
:1048E000F0A3E9F0227B01900CBDE4F0A304F022D8
:1048F000E490132EF0740390132DF090056322EED4
:10490000C394067480948022900000E0FEA3E0FF30
:10491000021BEDE0D394007480948022900C34E06C
:10492000FAA3E0FB7C007D02FFAE02021C42EFC353
:1049300094027480948022E0FDC4540F75F00AA4A0
:1049400022900C31E0FF3395E0FE22900C33E0FB27
:10495000A3E0FAA3E022740AF09005367401F0A3F4
:104960007440F022901328E0FEA3E0FF7C007D0A53
:1049700022EFF07E00C394097480948022EC04FF3F
:104980001297B1EF3395E04F2290132BE0FF901375
:104990002AE09F222FF582E5833EF583E02212254F
:1049A0009F700A9000CFF090082104F022EF64017C
:1049B0004E70131282B1128ED5E4900822F0900846
:1049C000217402024A6C90082112251D700F1224D6
:1049D000064003024AED9008217403F022EF6403BD
:1049E0004E70641276679000CFE06402703E9005CE
:1049F000F2F07F0112892AE4900C2FF0900C2FE046
:104A0000C394197480948050177F0A7E00129BC053
:104A1000129BC61225E96008900C2FE004F080DCA0
:104A2000E4900823F0900821740480409000CFE0C7
:104A300064036003024AED90082374FFF0740412CB
:104A400024AC7F07024AEA12259F6404700F1224E7
:104A5000064003024AED9008217405F022EF640538
:104A60004E7010900824F090082174061224AF7F35
:104A700002807712259F6406700C122406506E90F7
:104A800008217407F022EF64074E700D900825F09E
:104A900074081224AC7F02805112259F6408700EA6
:104AA000122406504890082174091224AF22EF64A2
:104AB000094E703990082674FFF5F0121C78122404
:104AC000FB502A9000DBE06004640170187F7412D0
:104AD0009A0E9000DA74FFF09000DC7480F090057C
:104AE000637421F02212237B7F061291F42290132B
:104AF00018E004F0D3943F74809480404F901327C3
:104B0000E06401F0E4901318F020C229900563E0FE
:104B100070239001EB122466BEFF12BFFF0FE4F07A
:104B20007F011291F49001EB74FFF080057F011278
:104B300091F41294019001F3E0122421400EE0045C
:104B4000F0E064047006F07F01127800901318E022
:104B5000541F7007901330E06401F0900602E012D9
:104B600024214003E014F090074EE012242140037A
:104B7000E014F030C1411226A7900C2DE0C39464DC
:104B80007480948050187F027E0012969730C10680
:104B9000900C2EE004F0900C2DE004F080DB900CE3
:104BA0002EE0D3945A74809480404290047712236C
:104BB00072703AA3F080361226A7900C2DE01225D1
:104BC0000A50187F017E0012969720C106900C2E85
:104BD000E004F0900C2DE004F080DF900C2EE0D388
:104BE0009408748094804005E4900477F0900478F1
:104BF000122372703C900563E0FF642B6033EF6416
:104C000020602EEF641B6029EF641A602490064434
:104C1000122372701C900563742BF0900479F0A33A
:104C200074F212237F7F147E00129BC07F041278DF
:104C30000012010002637E900CA2EB1215EBE4A3BC
:104C4000F0A3F0FFFE1218E1A3EFF07F007E001248
:104C500018E17E037FE812164EA3EFF07C037DE897
:104C60007F007E00121BED7F6412164CA3EFF07CD8
:104C7000007D647F007E00121647A3EFF07F007E68
:104C8000001219C1AC05E4A3F0FF900CA212169714
:104C9000700122900CA21214BE1218D425E0FFE578
:104CA000F033FE74BD2FF582749F3EF583E493FFCD
:104CB000740193900CA5CFF0A3EFF07F01EFD39494
:104CC00006748094805022900CA7E06F6018A3E0D7
:104CD0006F6013A3E06F600EA3E06F6009EF6C607C
:104CE00005A3EFF080030F80D4900CA21214BE90A5
:104CF0000001121B7A900CA712178D1214BE121904
:104D00005A900CA812178D1214BE12180DFF900C99
:104D1000A912178E1214BE12193C900CAA12178EEB
:104D20001214BE900004EF121BB91218AEFFAD04AE
:104D30001217901214BE1217F5FF900CAB12178EBB
:104D40001214BE900006EF121BB9121890FFAE04A9
:104D5000AD0612197F1214BE900007EF121BB91294
:104D600018A7900CAA12197C1214BE12181A900CD3
:104D7000A912197C1214BE900009121A532212793A
:104D80007B64017026D390051EE0940090051DE021
:104D90009400400AA3E024FFF090051D8069127979
:104DA00044402A9005277403F08069EF64034E7035
:104DB0001E127944400AA3E024FFF09005218047A9
:104DC00012795240089005277402F0804780401203
:104DD000797B6402701E127952400AA3E024FFF02E
:104DE00090051F802212796040089005277404F016
:104DF0008022801BEF64044E7015127960400EA370
:104E0000E024FFF0900523E034FFF080078000E409
:104E1000900527F0900527E064027035C2D990050F
:104E20002612793B7028900C2DF0A3F012792C50AB
:104E300014D2D8129A9AC2D8124EA770EF900C2DA5
:104E4000E004F080E790052674FFF0D2D822D2D893
:104E500022900527E064017035C2D89005251279AB
:104E60003B7028900C2DF0A3F012792C5014D2D95D
:104E7000129A9AC2D9124EA770EF900C2DE004F04E
:104E800080E790052574FFF0D2D922D2D922127979
:104E90007B640370028006EF64044E7005D2D9D2A1
:104EA000D822C2D9C2D822900C2DE0FEA3E0FFC3C5
:104EB00074C89FFFE49EFE129A9A900C2EE004F0B4
:104EC00022E4900C2EF0A3F0A3121ECA00000000F2
:104ED00043CF10129B2F129AC2129B52129AD412D5
:104EE000993D43CF10E49013E6F0A3F0A3F0A3F0B4
:104EF000E49005F2F01295A6E4900C2DF0900C2DA4
:104F0000E0C3941974809480507A43CF107F147E4C
:104F100000129BC0129BC69005F2E06401702B90BA
:104F200005F4E0700520C302804B9013E9E004F023
:104F300070069013E8E004F0D39013E9E0945E90DB
:104F400013E8E09401403DE4802B900C2DE0D394D5
:104F5000177480948040249013E7E004F07006906A
:104F600013E6E004F0D39013E7E094029013E6E038
:104F700094004007E4900528F08009900C2DE0048F
:104F8000F0024EFD43CF10900528E06003024EF082
:104F9000129AAFC2C07F037E00129BC0900531E021
:104FA00064017023900C2DF0900C2DE0C3940A74D2
:104FB000809480501243CF107F017E00129BC090DE
:104FC0000C2DE004F080E11293751298CC129BD363
:104FD000129025E4900C2DF0900C2DE064016012ED
:104FE000129BB14008900C2D7401F080EB128F4899
:104FF00080E622900C39EEF0A3EFF0E4FFEFC394CB
:105000000C748094804003025122E4FEEF25E024DA
:1050100065F582E43413F583E0FCA3E0FD900C39E0
:10502000E05CFCA3E05DD39400EC940040010EEF43
:10503000B40C00400302511E90503FF82828730220
:1050400050630250740250850250960250A50250DF
:10505000B40250C30250D20250E10250F00250FF9D
:1050600002510EEE6008E4901398F002511E901366
:105070009802511BEE6008E4901399F002511E90C3
:10508000139902511BEE6008E490139AF002511E2E
:1050900090139A02511BEE6007E490139BF0807E00
:1050A00090139B8076EE6007E490139CF0806F90E5
:1050B000139C8067EE6007E490139DF0806090136E
:1050C0009D8058EE6007E490139EF0805190139EEF
:1050D0008049EE6007E490139FF0804290139F8018
:1050E0003AEE6007E49013A0F080339013A0802B79
:1050F000EE6007E49013A1F080249013A1801CEED1
:105100006007E49013A3F080159013A3800DEE6068
:1051100007E49013A2F080069013A274FFF00F0230
:105120004FFD22900534E0FF7E00640770030252B9
:105130004DEF6408700F900536F0A374F0F0900501
:10514000347409F022EF64094E600302524DFD7F72
:1051500004129972901343E0640260030252381201
:105160009622EF3395E04F7071901331E064017037
:1051700039A3E064017033A3E06401702DA3E064FF
:10518000017027A3E064017021A3E06401701BA3F8
:10519000E064017015901339E06401700DA3E064C0
:1051A000017007900534740CF022901331E0640113
:1051B0007021A3E06403701BA3E064057015A3E0F5
:1051C0006407700F901342E0640470079005347414
:1051D0000DF022900534740BF0227B017A137931A3
:1051E0001256C8900542EFF0600C900534124956F3
:1051F000E49000F0F022901342E0FF640C6005EFB1
:10520000640D70247B017A137931901342E0FD7CA8
:10521000001255B0900542EFF0900534600D124930
:10522000569000F07401F022900534740BF0900554
:1052300036E4F0A374C0F022901343E06403700DD1
:105240009005347407F0E4900566F0A3F022900115
:105250006FE070389000D2E070129000D5E0700CD2
:105260001269B674071269247F3E801D9000D3E056
:1052700012695490016F500C7401F0E490132CF0FB
:105280007F64800512691F7F58129A0E90016FE0AB
:105290006401701D129799900173EFF090016F7483
:1052A00007F09001717401F0A37440F07F70029ACE
:1052B0000E90016FE0640770307B017A01797412FF
:1052C0007CE3EF3395E0FEBEFF09BFFF0690016F60
:1052D0007403F012692D40030253721269B674010F
:1052E0001269247D347F44805D90016FE064037017
:1052F000587B017A01797412812AEF703F90017313
:10530000E0FD1287C4EF3395E0FEBEFF1DBFFF1A1C
:1053100090016F7404F09001711269267D327F4410
:105320001299939000D3E004F02290016F12691F4C
:105330007F58129A0E7F647E00029BC01269B612DB
:1053400069247D547F5602999390016FE064047044
:105350000712692D501C801790016FE064057012D0
:1053600090017174FFF5F0121C8E12693750031210
:105370009B752243CF107F017E00129BC0128E9B33
:10538000E4FBFD7F02123900D2A0129BA012987894
:10539000129BBD129B441298E0D2C0900528740164
:1053A000F07F057E00129BC0129B8E7F057E00124F
:1053B0009BC0129BB4129A601291609001EDE0FFC5
:1053C000129B597F017E00129BC0E4900C2DF0903F
:1053D0000C2DE0FFC3946474809480501AEF75F034
:1053E0000A84E5F0700343CF10129B941273A290CD
:1053F0000C2DE004F080D89000DBE0FF6401600336
:10540000EF70137F74129A0E9000DC7480F0900598
:10541000637421F0803AE4900563F09005347407DA
:10542000F0E49001F4F09005F87407F0129622EF82
:105430003395E04F70077F3E129A0E80139005322D
:10544000E0FF64026005EF640170057F061291F4CD
:10545000E4900531F0900C2DF0900C2DE0C39419E0
:1054600074809480503143CF10E49005F2F0900C9A
:105470003574FFF07B017D017F011280C67F147EB1
:1054800000129BC0129BC69005F2E0640160089078
:105490000C2DE004F080C222900CA2EB1215EBE47C
:1054A0001214E3900CA21216977002FF22E4900CE3
:1054B000A5F0A3F0900CA21214BE1217B724FFFFA0
:1054C000E5F034FFFE900CA51218559E50201218DE
:1054D0007E900CAAE02FF0900CA9E03400F0900C24
:1054E000A6E004F070CE900CA5E004F080C6900C0D
:1054F000A21214BE1217B7121A23121B7AFFC0078A
:10550000900CA912177C7D0A121C42D0071299FF39
:10551000900CA21214BE1217B7121A23EF121BB965
:10552000E4900CA5F0A3F0900CA21214BE1217B7D1
:10553000FFC3900CA6E09F900CA5E095F0506EE4A0
:10554000900CA7F0A3F0900CA21214BE1217B79003
:105550000CA712185495F05043900CA5E0FEA3E060
:10556000FF6D7002EE6C60248F828E83121B7AFFB7
:10557000900CA7A3E0F5828C83121B7AFD129ADDB2
:10558000900CA21214BE900CA712183E900CA8E02A
:1055900004F070B2900CA7E004F080AA900CA6E092
:1055A00004F07006900CA5E004F00255277F01225C
:1055B000900C301248DCA3ECF0A3EDF0E4900C4327
:1055C000F0A3F0A3F0A3F0900C35F0900C35E012AE
:1055D000492F40030256C5E4A3F0FFEF12490050E3
:1055E0003C900C35E0FE1248632F1248C1E0C454D1
:1055F0000FFDEF25E02437F582E4340CF583EDF060
:10560000EE1248632F1248C1E0540FFEEF25E0244C
:1056100038F582E4340CF583EEF00F80BEE4FFEF42
:10562000FDD3900C34E09D900C33E094004019744D
:10563000372FF582E4340CF583E01248D4500990FA
:105640000C36E004F00F80D7900C35E075F008A41C
:105650002481F9740535F0FA7B01C003C002C00152
:10566000E0FD7C00A3E0FF900C4CE4F0A3EFF09091
:105670000C30E0F9A3E0FAA3E0900C4EC91248DD2B
:10568000900C33E0FFA3E0900C51CFF0A3EFF0A318
:10569000EBF0A3740CF0A37443F0A3EBF0A3740C31
:1056A000F0A37445F0D001D002D0031246B6D3EF78
:1056B0001249154007900C35E004FF22900C35E0AC
:1056C00004F00255CB7F0022900C301248DCE4A39A
:1056D000F0900C33E0FF1248D440030257DA12482E
:1056E000A2E064AA60030257D1900C36F0900C340B
:1056F000F0A3740BF0900C34E0FEA3E0FFC3EE6463
:1057000080948040467C007D02121C42ED64014C76
:10571000701112491C12485F124994540F640F60B3
:105720001A801012491C12485F124994C4540F6425
:105730000F6008EB04900C36F08010900C35E024DC
:10574000FFF0900C34E034FFF080AAE4900C34F0C9
:10575000A3F0900C36E0FFC374119FFFE49400FEA9
:10576000C3900C35E09FEE6480F8900C34E06480C8
:1057700098505EE4FF900C36E0FEEFC39E5031EF90
:10578000540164017014900C3012483812484112D0
:1057900048C0E0540F6E60158016900C30124838E7
:1057A0001248411248C0E0C4540FB506030F80C52B
:1057B000900C36E0B5070A900C33E0124885E0FF04
:1057C00022900C35E004F07006900C34E004F08078
:1057D00081900C33E004F00256D17F0022D3900672
:1057E00007E09400900606E09400400CA3E024FF3C
:1057F000F0900606E034FFF0900606E07002A3E0A9
:1058000060030258ED900604E014603C14605D14DF
:1058100070030258B21470030258E48000D2DC30E6
:10582000DB22C390063EE094DC90063DE0940550F8
:105830000DA3E004F0700690063DE004F022E49031
:10584000063FF02212686A22C2DC900606E4F0A34A
:10585000741BF09006047402F090063BE02409F5F6
:1058600082E43406F583E0900608F02220DC12D2B0
:10587000DC1269056005E4F0A38033E4F0A304F0D2
:1058800022C2DC1269056007E4F0A304F08006E49C
:10589000F0A37403F0900608E0C313F0900605E04F
:1058A00004F0C3940874809480404290060474030A
:1058B000F022D2DC90063BE004F0A3E0FF90063B30
:1058C000E0C39F50109006047404F0900606E4F0C4
:1058D000A3740AF022E4900604F090060604F0A3F4
:1058E000744DF0229006047401F0E4A3F022900CB1
:1058F000301248DCA3124838121B61124834121BC4
:10590000616F60030259FA12494B9000011248304E
:10591000900001121B7A6F60030259FA12494B90F2
:105920000002124830900002121B7A6F6003025985
:10593000FA900C331248389000031248319000035B
:10594000121B7A6F60030259FA900C331248389098
:105950000004124831900004121B7A6F6003025950
:10596000FA900C3312483890000512483190000527
:10597000121B7A6F60030259FA900C331248389068
:105980000006124831900006121B7A6F706C900C62
:1059900033124838900007124831900007121B7AE2
:1059A0006F7057900C3312483890000812483190AD
:1059B0000008121B7A6F7042900C33124838900026
:1059C00009124831900009121B7A6F702D900C3328
:1059D00012483890000A12483190000A121B7AB51A
:1059E0000718900C3312483890000B124831900081
:1059F0000B121B7AB507037F00227FFF22740490ED
:105A00000C50F0A37401F0A322E0900000FEE0FB34
:105A1000A3E0FAA3E0F922EBF0A3EAF0A3E9F02275
:105A2000EFFD3395E04D22F0EFA3F0900C4E7401A2
:105A3000F0A3227400F07400A3F07B017A007900D7
:105A4000227400F07400A3F07B017A00790022EF49
:105A5000F0FD9000007401F0A37413F0A37412F031
:105A60007B017A1279E57F60228E82758300021BAA
:105A70007A24EBF582E43412F583EFF0900000E035
:105A800004F0227400F07400A3F07B017A00790026
:105A9000227450F0E4A3F07B01900C4E04F0A3229A
:105AA000900000E0FFC3940A7480948022743A2F1F
:105AB000F582E4340CF583E022EEC39410748094F4
:105AC0008022EFC3940474809480227B017A13793E
:105AD0001222EFFD3395E0FCED64FE4C2235F0FA26
:105AE0007B01E025E025E02274EB2FF582E43412FF
:105AF000F583228F82758300EE021BB97400F0A338
:105B00007400227400F0A3740022900666E0641111
:105B100070087408122524028B86900666E0FF64E4
:105B2000087003025C06EF640970187D28FC7F0A88
:105B3000FE12853B900666740AF090066874801227
:105B4000266D22900666E0640A6003025BD112258E
:105B5000E970649005F4E0705790066674121223A1
:105B6000AFF07D327F48129993E49000D1F07D0A26
:105B7000FCAE04ED7802C333CE33CED8F9FF240057
:105B8000F58274003EF58374FFF0A3F074022FF5E4
:105B90008274003EF583E4F074032FF58274003EB6
:105BA000F583E4F00DBD00010CED64324C70C222AF
:105BB0009006667413801012259112236750479047
:105BC00006667413122600F0900668122568029982
:105BD00093900666E06412700D900668E014F0126F
:105BE00023675022801D900666E06413700D9006B6
:105BF00068E014F0122367500D8008900666E06498
:105C0000147003129B67229012E3E0FF25E0242426
:105C1000F8E6FC08E6FDEF25E02424F582E43412E2
:105C2000F5832275F008A42404F582E434A5F583F5
:105C3000E493FEED75F008A42405F582E434A5F59F
:105C400083E4937C002400FFEC3EFE2275F008A460
:105C50002401F582E434A5F583E4939012B9FF7E24
:105C600000E0FCA3E0FD021BDBE47F01FEFDFCE0A5
:105C70002417F582E43412F58322900C43E0F8A354
:105C8000E0F9A3E0FAA3E0FB229012E3E0243CF564
:105C900082E43412F583229012E3E0FF249EF58221
:105CA000E43412F58322E0FCA3E0FDA3E0FEA3E0D0
:105CB000FF22EB4FFFEA4EFEE94DFDE84CFC900C55
:105CC00043021EBEE0FCA3E0FDEF25E02424F8A67D
:105CD0000408A60522C3940C7480948022E49012D8
:105CE000BBF0A3F02225E02486F582E43412F5838C
:105CF00022900C3DE004F022E0FEA3E0C39DFFEE05
:105D00009C22C201D2EE7587020000000000000054
:105D100000D2EE7587020000000000000000E4F5EC
:105D200013C3E513125CD64003025DDE74552513E0
:105D3000F8E69012E3F0E0FF24ADF582E43412F5CA
:105D400083E0F5E2EF125CE5E0FEA3E08EE7F5E626
:105D50009012E3E0FD2454F582E43412F583E0F57B
:105D6000E87587020000000000000000AEE5E5E4F1
:105D70007803C333CE33CED8F9FFED25E02424F8E1
:105D8000E6FC08E6FDC3EF9DF512EE9CF5119012BE
:105D9000E3E0FD25E0243CF8E6FE08E6FFC3E5125B
:105DA0009FEE6480F8E5116480984004D200802E54
:105DB000901209E0B40022A3E0B5131DAE11E51264
:105DC0007802CEA2E713CE13D8F8FFED25E0242405
:105DD000F808EF26F618EE36F60513025D2190124C
:105DE00009E475F001121C78FEC3E5F09418EE94F6
:105DF000004007E4901209F0A3F022900CA2EB12ED
:105E000015EBE41214E7900CA21216977002FF2211
:105E1000E4900CA9F0A3F0900CA21214BE1217B7D4
:105E2000FDACF024FEFEEC900CAB1217E3121A034B
:105E3000121B7AFF900CADE4F0A3EFF0C3900CAC12
:105E4000E09400FF900CABE0900CAD1217731218A9
:105E500096900CADECF0A3EDF04C7002FF22E490B4
:105E60000CA5F0A3F0900CAD1217C0900CA6E09F0B
:105E7000900CA5E09E5072900CA21214BE900CA93A
:105E8000121832900CAFF0EF2401FFE43E900CA703
:105E9000F0A3EFF0900CABE0FEA3E0900CA712167D
:105EA000C9D39FEC9E5020900CA21214BE12187EF3
:105EB000121A03EF121BB9900CA8E004F0700690C0
:105EC0000CA7E004F080CD900CAFE0FF900CA21284
:105ED00014BE900CAB12183E900CA6E004F07006B5
:105EE000900CA5E004F0025E657F0122900C29125F
:105EF0001ECA00000000129BD1126B27E4900C28F0
:105F0000F0900C28E0C3943274809480500E129B61
:105F1000941273A2900C28E004F080E57F011278BF
:105F2000001296EB900647E064017001F09006487D
:105F3000E064017001F090064AE06401707BF012A9
