:03000000029BFA66
:03000B0002BE66CC
:0300130002C31312
:03001B0002B5BE6D
:0300230002CD9576
:0300330002CF8277
:03004B0002BFA74A
:03005B0002C0D50B
:03006B0002C1FBD4
:0300830002B7754C
:03008B0002B0BC04
:10010000900422E06003020B4C1239FE9014A3EF1E
:10011000F0F4600312C84D90045EE01222EA017C04
:100120000002690102E40203400503740602B109FA
:1001300003B00A04490B04570C04620D048C0E042E
:100140009A0F04A41104BE1204CB1304F51405186D
:1001500015052B1605551708241909761A08511B81
:10016000088B1D0A3C25089E260A52270B282909C0
:10017000D72A08FF2B09BE2C00000B4C9014A3E0DB
:10018000FF640D6011EF641B700C90045E7419F035
:100190009004107403F090042FE0FF6407600302E2
:1001A000023A12265A5033EF64076003020B4C9058
:1001B00014C004F074101223E212280F1227B75053
:1001C0000E74AF2E122490900F9DE004F080ED90FD
:1001D000042F7408F07F01020B1E12241470217F7B
:1001E0000112C57290012912251DBEFF06BFFF0333
:1001F000E4F022E4900427F0A3F090042C04F02211
:100200001227C46003020B4C90012912235D701762
:100210007F0112C57290045E741DF0E49003E1F05A
:1002200090012974FFF02212C890900425E4F0A3F5
:100230007496F090045E741EF0229014A3E0FFF414
:100240007003020B4CEF640C7003020B4C900129FD
:1002500074FFF090042FE064096003020B4C7F01EF
:1002600012C5721228770208961225DF7003020465
:10027000861225B5700302054F1227CB70030204C6
:10028000EF9014A3E06404700302084B9014A3E001
:1002900064057003020B461224146003020B4C1217
:1002A0000C4F1224757F6012CDFE120C47E4020938
:1002B000D21225DF700F120B4D90045E7427F0E40C
:1002C0009003FBF0221225B5700F120B4D90045EC7
:1002D0007429F0E49003DEF0221224146003020B70
:1002E0004C0204439014A3E0FF6401600AEF64022F
:1002F0006005EF64037004E4120C4F1225DF700FE9
:10030000120B5AE490045CF090045E740EF022121A
:1003100025B5700F120B5AE490045CF090045E74E3
:100320000BF0221227CB700D120B671228329004AB
:100330005E740DF0221224146003020B4C0204437D
:100340001225DF700F120B6790045E7411F0E490B9
:1003500000FBF0221225B57010120B7490045E742D
:1003600013F0900414740AF0221224146003020B98
:100370004C0204431225DF7009120B741227440447
:10038000F0221225B57009120B81122744020B3D91
:100390001227CB7010120B8190045E7416F090053A
:1003A00064740FF0221224146003020B4C02044305
:1003B0001225DF7017120B8E90045E741712261927
:1003C0001260DB1228AC12240D02C5121225B57082
:1003D0000A120B8E90045E741B800D1227CB700CDA
:1003E000120B9B90045E742BF0E4802E9014A3E01B
:1003F00064047010120B9B90045E7426F0E4900469
:10040000F0F080169014A3E064057014120BA8900D
:10041000045E741AF0E490053EF01227AF02083F24
:100420009014A3E064067013120BA890045E741974
:10043000F0E49004101227AE020B3D122414600366
:10044000020B4C120BB502CE1A90045CE064016002
:1004500003020B4C0205231227746003020B4C02AB
:100460000523900561E064086003020B4C12273AF3
:10047000700B900562F09005617409F022EF640A38
:100480004E6003020B4C120BB502CF5F90045CE090
:1004900064016003020B4C020523122774600302FF
:1004A0000B4C807F9000FBE0640170089014A3E087
:1004B000FF12A9D51224146003020B4C8031900165
:1004C0006DE064016003020B4C8058900414E064FA
:1004D0000B6003020B4C12273A700B900415F0903E
:1004E0000414740CF022EF640A4E6003020B4C12E9
:1004F0000BC202CF6D90045FE06401700280249013
:10050000045FE06403700302089690045FE06404F3
:100510006003020B4C020896900476E064016003CD
:10052000020B4C9014A3E0FF02A9D5900564E0648F
:10053000106003020B4C12273A700B900565F09087
:1005400005647411F022EF640A4E6003020B4C1232
:100550000BC202CF669014A4E0701C1224BC4008A9
:10056000EF640960030207A6120BF690040F12262F
:10057000677401F00207A69014A4E06401702D12C4
:10058000241470030207811224BC4008EF64096040
:10059000030207A67F0112C57290040F1225BC90BA
:1005A000040FF09014A47402F00207A69014A4E0C3
:1005B0006402701B9014A3E012262B40030207A6CE
:1005C000120BF690040E1226677403F00207A69031
:1005D00014A4E06403704112241470030207819094
:1005E00014A3E0D31224C440030207A67F0112C55E
:1005F0007290040E1225BC90040EF0D394127480F5
:10060000948040037412F090040EE0700204F090A5
:1006100014A47404F00207A69014A4E064047022E9
:1006200012241470030207819014A31225114003B1
:100630000207A6120C1190040C1226677405F00232
:1006400007A69014A4E064057041122414700302FC
:1006500007811224BC4008EF640960030207A67FEB
:100660000112C57290040C1225BC90040CF0D394B6
:10067000317480948040037431F090040CE0700277
:1006800004F09014A47406F00207A69014A4E06489
:1006900006702312241470030207819014A3E01241
:1006A000268240030207A6120C1190040B12266743
:1006B0007407F00207A69014A4E0640770391224AE
:1006C0001470030207811224BC4008EF6409600320
:1006D0000207A67F0112C57290040B1225BC90047C
:1006E0000BF0D394237480948040037423F090140F
:1006F000A47408F00207A69014A4E06408701E1207
:1007000024147002807B12281B40030207A6120CDF
:100710003990040A1226677409F00207A69014A4FF
:10072000E064097028122414700280551224BC4021
:1007300005EF640970707F0112C57290040A1225DA
:10074000BC90040AF09014A4740AF080599014A488
:10075000E0640A701F1224147002802512281B50B6
:1007600045120C39900409E0548F2FF09014A474B2
:100770000BF080329014A4E0640B702A12241470E1
:10078000077F0112C57280191224BC4005EF64096D
:1007900070147F0112C5729004091225BC900409DF
:1007A000F0E49014A4F01227C4705990040FE0FFF5
:1007B00090040EE0FD90040CE0FB129794EF33954B
:1007C000E04F702D7F0112C57212C4E178AE7C0F2C
:1007D0007D017B017A01792A12240D124ED19003FA
:1007E000FE1222A1120C477D327F4412CD65020910
:1007F000737F647E0012CFD17B347D827F7612CEF0
:10080000360209731224146003020B4C120BCF1230
:10081000CE2812261A1260DB1228AC12240DE490A6
:1008200014A4F022900410E064016003020B4C1247
:1008300027C4700F120BCFE4900411F090041074D1
:1008400003F0221224146003020B4C120BDC020989
:10085000731225DF70127AF47969120BE9E49001C2
:1008600077F012C05E0209731225B570107AF47920
:100870006C120BE912289212C05E02097312241442
:100880006003020B4C120BDC0209739003E1E0647D
:10089000016003020B4C9014A3E0FF020A3990049C
:1008A000F0E064016003020B4C1225DF701390002E
:1008B000F8F09004F07402F07BFF7AF47993020967
:1008C000901225B570289000F804F09004F004F020
:1008D00012BD5FEF3395E04F70087F7A12CDFE02B4
:1008E0000A4B7BFF7AF4799612BEA7020A4B1224B8
:1008F000146003020B4C120C049004F0020B3D1226
:1009000025DF701A9000F912251DBEFF08BFFF05F4
:10091000E4F012C94E7AF47981120C1F8055122529
:10092000B570459000F912235D703474FFF0E490C7
:100930000418F0A3F090041CF0A3F012C5A1EF245A
:1009400012FEE43390041AF0A3CEF090041EE4F0FB
:10095000A37408F09004227402F0E4900421F07A69
:10096000F47984120C1F800B1224146003020B4CC8
:10097000120C0402CE2890053EE064016003020BD5
:100980004C1225DF701090053F1228B37AF479A835
:1009900012BEA7020A4B1225B5701290053F74FFD4
:1009A0001228B37AF479AB12BEA7020A4B122414B0
:1009B0006003020B4C120C2C90053E020B3D901470
:1009C000A3E0FF640B6008EF640A6003020B4C12A3
:1009D000247590045EF02290042FE0FF6407703BC2
:1009E00012265A5032EF64076003020B4C9014C079
:1009F00004F09014BF74101223E512280F1227B7C9
:100A0000500E74AF2E122490900F9DE004F080EDF4
:100A100090042F7408F022122414229014A3E0FFF3
:100A2000F47003020B4C90042FE064096003020B86
:100A30004C900431F0A374F0F002A3019014A3E0F1
:100A4000F47003020B4C7F3012CDFE7F647E0002F7
:100A5000CFD19003FBE064026003020B4C1225B57A
:100A6000704DD39003F8E094009003F7E0940040B9
:100A70003A7F0112C5729003F8E024FFF09003F76B
:100A8000E034FFF074011227D2C3900446E09F9037
:100A90000445E09E500DA3E004F07006900445E08C
:100AA00004F022E4900445F0A3F0227F07806F90C9
:100AB00014A3E06408706A1226B8D39003F6E09F8E
:100AC0009003F5E09E40557F0112C57290044512D7
:100AD00028479400400DE024FFF0900445E034FFE7
:100AE000F0802AEF4E7026041227D212C798EF33F7
:100AF00095E0FEBEFF17BFFF1490F72C74019324FE
:100B0000FFFEE49334FF900445F0A3CEF09003F889
:100B1000E004F070069003F7E004F0227F0702C5BE
:100B2000721224147026801E9003DEE06401701C93
:100B30001227C4700C7F0112C5729003DE7402F09C
:100B4000221224147006120C2C12CF74227F011270
:100B5000C5727F647E0012CFD1227F0112C5727FE1
:100B6000647E0012CFD1227F0112C5727F647E00A5
:100B700012CFD1227F0112C5727F647E0012CFD1C5
:100B8000227F0112C5727F647E0012CFD1227F01C5
:100B900012C5727F647E0012CFD1227F0112C5720E
:100BA0007F647E0012CFD1227F0112C5727F647EE6
:100BB0000012CFD1227F0112C5727F647E0012CF56
:100BC000D1227F0112C5727F647E0012CFD1227FB5
:100BD0000112C5727F647E0012CFD1227F0112C53F
:100BE000727F647E0012CFD1227BFF12BEA77F648A
:100BF0007E0012CFD1227F0112C5729014A3E0C4EF
:100C000054F0FF227F0112C5727F647E0012CFD1A3
:100C1000227F0112C5729014A3E0C454F0FF227B1E
:100C2000FF12BEA77F647E0012CFD1227F0112C5C2
:100C3000727F647E0012CFD1227F0112C5729014A0
:100C4000A3E0C454F0FF227F647E0012CFD1229033
:100C5000017FF07F0112A852224415050000000018
:100C60004215090000C115C116C109C106C107C15D
:100C700008C10AC10BC10CC10D41151D0241151E51
:100C8000004113DE00C103C102C100C101C1040162
:100C9000540041131F0042135C00004114FB00C1CB
:100CA0001B41152100C11CC11D4213E00000C110F1
:100CB000C10EC111C10F411504004414DB00000036
:100CC000005814C304008000000400104000000815
:100CD000002020000080004010000100461463FF47
:100CE000FFFFFFFFFF64000B950000000000000005
:100CF00000000000000000000000000000000000F4
:100D000000000000000000000000000000000000E3
:100D100000000000000000000000000000000000D3
:100D200000000000000000000000000000000000C3
:1010E0000000000000000000005606CF736C5F6730
:1010F000656E657269635F76312E302E302E30302A
:10110000330063E806E5013B01A400FE006902012B
:10111000019A01C201A9019F015E020B007D00D26C
:10112000008F008600C9013A00FA006600D601C3AC
:101130000087008201B3006800990191013001C469
:1011400000EA00CC01A5012D008C00840195014529
:101150000208013101AE016000F1019D00FD012E88
:101160000091007800F0019C021401F500FB01449D
:10117000019201410159013601F700E700D501F65E
:10118000015F021F008E0162020C00EB02160138A3
:1011900001FE00CB0154009A020200D700F3021EA8
:1011A000021200960200021C01C500E6021D007C2E
:1011B00001F8019301550209015601B001AF006722
:1011C00000CD01A70213007B00F50140009800CE7E
:1011D0000234028D01A00278008C0209028002080C
:1011E00000F5027A00A4007E01A4025B00E6007C08
:1011F000006601FA01F50200026200880212006A2C
:1012000001CF020100EB020B009A0146008201406F
:10121000025D009101AA0136013B01CD0155010893
:10122000020C028101F800960193020E019502332F
:1012300001F600FD01B0019601A5028A016C0231A0
:1012400001B40109008601AE0068012D01B301AFB0
:1012500000F30271021E008E009C0267010500A0CF
:1012600000F00132027000A20266028E00CD008FF3
:101270000276026F00D6021D028301FE00A5014422
:1012800002300098019C021400D5016400D202854E
:1012900001F7025A00FB020B022301FE016400AFBA
:1012A0000108013C00D6028202C000CF008C01C4BC
:1012B000016000FD020E01C50202025B016F02F037
:1012C00002DB013302A101D7014600A502FC006A3E
:1012D00002C902F801C2019D006900F3020F027702
:1012E00001DB0278027A02DC025D019101A702E5CE
:1012F0000240007E0132015E00A2026902D500A018
:1013000001F700F6010100A300E700C9028A01D33A
:101310000285019C0214015601590201009C00D271
:1013200002FD006B01000197019302080165029E16
:1013300001B5010F013800F7023100EB0234009DC6
:1013400002F202A201CF02D3014000AA00D701D8C5
:10135000016C02E4019201730237016D011202E790
:1013600001F70277027401A0011E030F00F702A02B
:10137000016C017C026401D402C800A2015A02A8D7
:10138000035902A3032700ED013C0169008E0265A9
:1013900002E0009E03450288015F01AE016002DEAB
:1013A00000800164021F010E032F01A403390331E1
:1013B00002CE02BE019F034902A601AC0270025B8D
:1013C00000AA0209006A019503690134025902BDAD
:1013D000020E02CC02EE009A0204034E00A40107A2
:1013E0000269017001E7019D02380092036C01B0AF
:1013F0000231031201D8023001A101AF01FE02E95E
:1014000001FB007D032601E2017A034F027D02FD0C
:1014100002C20100034D01DC023A01410146020112
:1014200000EE02EA02FB00AE00C000D203BD02D013
:10143000035B00B202F603BE0069015A023301A346
:101440000252037C024500D001120317015C02081E
:10145000017302DF025903B7009E02F000CF033987
:10146000032F035C018E03D402BF03480169027499
:1014700000D601B400F800DA034B023B019C038A5A
:10148000009F03C202C900C9028703CA00E60349DC
:10149000033F037E01DE03860181024400A700BEF4
:1014A000024F036A029300BD02A302FC00BA016767
:1014B000016D009401A403AC01E2024E018002E040
:1014C00002F2036703C8017203B101B303A4019AD6
:1014D00002070366018801D5013602B60187018241
:1014E000013A03D7038C017803220129039160C8D4
:1014F0000ACDBB2B32FEA12B47C19CF2953F64263F
:10150000B6E1B40376D3C72A2A908F602943484AAC
:101510006DA1C4A6525E4C5177EACF7590B678841F
:101520006BACCAFFB919C5B4BBBBA0157C10C3F224
:10153000DE45B6D5A455A7DAE71FCC5D6D4C395A08
:101540007C24CBD7D23BDC083A804C5BDF5E3F98F3
:1015500090D97DC58D1D34E4549B30B4BF379D5662
:101560002A4D3A3BD68973BE44E2283A909AA8FBAA
:101570005E5D7FFD4FE56D6F7BC46EB988CABC3080
:10158000CB49BB319FD5D623378064BD8794A74113
:1015900038E39B42518AE3344D167E9128FFBCF715
:1015A000BC2F92E2555EBD0D6BACE350A192DAD830
:1015B0005C98393A65C0B8CD6FCBC192C114C113E4
:1015C0004214F200004114DF0042151900004114DA
:1015D000A3FF41151600C11E41152200613111D330
:1015E000000000008080800000000000000000007B
:1015F000000000000080C0E0F0F8F8F8FCFCFCFC03
:10160000FCF8F8F8F0E0C0800000000000000000E6
:101610000000000000008080800000000080F07C5E
:101620000F03C1F03C0E82E0781800000000C0F00B
:10163000FCFFFFFFFFFFFFFFFFFFFFFFFFFFFFFFBD
:10164000FFFFFFFFFFFFFCF8C0000000001878E07C
:10165000820E3CF0C1010F7EF080031FFCE000070A
:101660001F78E0830F3C300000C0FCFFFFFFFFFF4E
:10167000FFFFFFFFFFFFFFFFFFFFFFFFFFFFFFFF7A
:10168000FFFFFFFFFFFFFCE00000303C0F83E0782E
:101690001F0780E07C1F030000000103030200001D
:1016A000000000F0FCFF9F0F07030303010101018D
:1016B0003078FCFCFCFCFCFCFC78300101010103EF
:1016C0000303070F9FFFFCF000000000000203036C
:1016D0000100000000000000000000000000000009
:1016E000000307070F0E1C1C3C38383870707070F0
:1016F000707070707070707070383838381C1C1EC4
:101700000F070703000000000000000000000000B9
:101710000000900FB8EFF0E4900FC0F0900FB8E029
:10172000FF25E02424F8E6FC08E6FD75F002EFA4AE
:101730002420F582E5F03413F583E0FEA3E0C39D99
:10174000FFEE9C900FB9F0A3EFF0E47F01FEFDFCEB
:10175000900FB8E0F9F81222598F0F8E0E8D0D8C74
:101760000CAF0112CF27900FBEEEF0A3EFF0C390A5
:101770000FBAE09FEE6480F8900FB9E06480984063
:1017800008900FBB7401F08005E4900FBBF0900F40
:10179000BBE06401600302198E900FB8E0FF2438AB
:1017A000F582E43413F583E0C394FA748094805096
:1017B0000D74382FF582E43413F583E004F0E50B63
:1017C000550FFFE50A550EFEE509550DFDE50855D7
:1017D0000CFCE4FBFAF9F8C3122235600302195439
:1017E000901304E0900FBDF012CFBFEF6047E4907C
:1017F0000FBBF0A3F0900FBCE0FFC3951050227414
:10180000382FF582E43413F583E0C3940174809497
:10181000804006900FBBE004F0900FBCE004F08025
:10182000D4900FBBE0C39403748094804007900F62
:10183000BDE0240FF0900FB8E02438F582E43413B3
:10184000F583E0FF900FBDE0FEEFC39E5003021949
:1018500054E4900FBBF012CF0FEF60030218E19039
:101860000FBCF0900FBCE0FFC39510502C900FB848
:10187000E06F601D12CEAB900FBCE02438F582E41F
:101880003413F583E0C39F4008900FBB7401F080D0
:1018900008900FBCE004F080CA12CFBFEF3395E090
:1018A0004F6003021932900FBBE06003021932A3AC
:1018B000F0900FBCE0FFC395105077900FB8E06F29
:1018C000601712CEAB900FBCE02444F582E43413D1
:1018D000F583E0C39F40028053900FBCE004F0808A
:1018E000D012CFBFEF3395E04F7047900FBDF0900F
:1018F0000FBCF0900FBCE0FFC39510502274382F3E
:10190000F582E43413F583E0C3940274809480403C
:1019100006900FBDE004F0900FBCE004F080D4907E
:101920000FBDE0C39403748094804006900FBB7495
:1019300001F0900FBBE064017002D217E50B450F78
:10194000F50BE50A450EF50AE509450DF509E5082B
:10195000450CF508900FB8E0FF2476F582E43413C7
:10196000F583E4F074D22FF582E43413F583E4F0C8
:1019700075F002EFA4245EF582E5F03413F583E4FC
:10198000F0A3F074072FF582E43413021D1D900FAD
:10199000B8E0FF12CBC2900FB9E0FCA3E0FDD39FEB
:1019A000EE6480F8EC6480984012900FB8E0244414
:1019B000F582E43413F583E004F080159014FDE023
:1019C00004F0900FB8E02444F582E43413F583E486
:1019D000F09013B9E0FF3395E0FEC3E49FFBE49E73
:1019E000FAC3ED9BEA6480F8EC6480985003021A15
:1019F000E6D3900FBAE09FEE6480F8900FB9E064F0
:101A000080984003021AE6900FB8E0FF2476F58232
:101A1000E43413F583E4F074072FF582E43413F50E
:101A200083E4F0FFFEFDFCAB0BAA0AA909A808C3DA
:101A30001222356003021C22900FB9E0FEA3E0FFE2
:101A4000900FB8E075F002A4245EF582E5F034133F
:101A5000F583EE8FF0121FE312CE74900FB8E0758D
:101A6000F002A4245EF582E5F03413F583E0FCA3D4
:101A7000E0C39FEE6480F8EC6480984013900FB848
:101A8000E0FF25E02424F80806E6187043068040AD
:101A900012CE74C3E49FFFE49EFE900FB8E075F091
:101AA00002A4245EF582E5F03413F583E0FCA3E0A4
:101AB000C39FEE6480F8EC6480984003021C22907F
:101AC0000FB8E0FF25E02424F808E6161870011688
:101AD00075F002EFA4245EF582E5F03413F583E49B
:101AE000F0A3F0021C229013B9E0FF3395E0FEC38F
:101AF000E49FFFE49EFEC3900FBAE09FEE6480F87F
:101B0000900FB9E06480984003021B98900FB8E0F2
:101B1000FF2476F582E43413F583E004F074072F94
:101B2000F582E43413F583E4F074762FF582E4341F
:101B300013F583E0FF75F00A84E5F07046C3EF9477
:101B40006474809480900FB8E040142476F582E4A9
:101B50003413F583E4F0D2189013DE04F0802425CA
:101B6000E02424F8C000E6FE08E6FF9013B9E0A2E6
:101B7000E713FD3395E0FCC3EF9DFFEE9CD000F62C
:101B800008A607900FB8E0FF9014F6E06F6003021C
:101B90001C2274FFF0021C229013B9E0FF3395E081
:101BA000FED3900FBAE09FEE6480F8900FB9E06426
:101BB0008098406E900FB8E02476F582E43413F5F7
:101BC00083E4F0FFFEFDFCAB0BAA0AA909A808C339
:101BD000122235704D900FB8E0FF2407F582E434EF
:101BE00013F583E004F074072FF582E43413F583D2
:101BF000E06420702D900FB8E0FF2407F582E434F4
:101C000013F583E4F09013B9E0A2E713A2E713FD04
:101C10003395E0FCEF25E02424F808ED26F618ECD7
:101C200036F6E50B550FFFE50A550EFEE509550D95
:101C3000FDE508550C4D4E4F7003021D33900FBE4D
:101C4000E0FCA3E0FDAE047802CEA2E713CE13D8E9
:101C5000F8FFC3ED9FFFEC9EFEC3900FBAE09FEE2E
:101C60006480F8900FB9E06480984003021D2290D0
:101C70000FB8E024D2F582E43413F583E004F012C7
:101C8000CF17900FBDEFF0E4900FBCF0900FBCE0C9
:101C9000FFC39510502274382FF582E43413F58376
:101CA000E0C39401748094804006900FBBE004F080
:101CB000900FBCE004F080D4900FBBE0C394037499
:101CC0008094804008901304E0900FBDF0900FB80E
:101CD000E0FB24D2F582E43413F583E0FF900FBDDE
:101CE000E0FEEFC39E5003021DA274D22BF582E4E6
:101CF0003413F583E4F0AF0FAE0EAD0DAC0C122231
:101D000028E50B5FF50BE50A5EF50AE5095DF509C7
:101D1000E5085CF50874382BF582E43413F583E4A8
:101D2000F022900FB8E024D2F582E43413F583E07A
:101D300014F022900FB8E02438F582E43413F583D0
:101D4000E4F0FFFEFDFCAB0BAA0AA909A808C31228
:101D500022357008900FB8E0FF129ABCE51014FF0E
:101D6000900FB8E06F703B9014FDE0C395104032C7
:101D7000E4900FBCF0900FBCE0FFC39510501B74B3
:101D8000382FF582E43413F583E06006900FBB74BE
:101D900001F0900FBCE004F080DB900FBBE070021C
:101DA000C21722E709F608DFFA8046E709F208DFE2
:101DB000FA803E88828C83E709F0A3DFFA8032E361
:101DC00009F608DFFA8078E309F208DFFA80708804
:101DD000828C83E309F0A3DFFA806489828A83E03E
:101DE000A3F608DFFA805889828A83E0A3F208DF2D
:101DF000FA804C80D280FA80C680D4806980F280DC
:101E000033801080A680EA809A80A880DA80E28001
:101E1000CA803389828A83ECFAE493A3C8C582C856
:101E2000CCC583CCF0A3C8C582C8CCC583CCDFE9C0
:101E3000DEE7800D89828A83E493A3F608DFF9EC5C
:101E4000FAA9F0EDFB2289828A83ECFAE0A3C8C5E7
:101E500082C8CCC583CCF0A3C8C582C8CCC583CC0E
:101E6000DFEADEE880DB89828A83E493A3F208DF7D
:101E7000F980CC88F0EF60010E4E60C388F0ED244D
:101E800002B4040050B9F582EB2402B4040050AF50
:101E90002323458223901DF373BB010689828A8325
:101EA000E0225002E722BBFE02E32289828A83E419
:101EB0009322BB010CE58229F582E5833AF583E0A4
:101EC000225006E92582F8E622BBFE06E92582F8C3
:101ED000E222E58229F582E5833AF583E49322BB89
:101EE000010FF8E58229F582E5833AF583E028F0D1
:101EF000225009C58229F8E58226F622BBFE09C5D3
:101F00008229F8E22582F222F8EA2583F583E99313
:101F10002822BB010689828A83F0225002F722BB65
:101F2000FE01F322F8BB010DE58229F582E5833A33
:101F3000F583E8F0225006E92582C8F622BBFE05AB
:101F4000E92582C8F222EF8DF0A4A8F0CF8CF0A48E
:101F500028CE8DF0A42EFE22BC000BBE0029EF8DF2
:101F6000F084FFADF022E4CCF875F008EF2FFFEE1F
:101F700033FEEC33FCEE9DEC984005FCEE9DFE0F2D
:101F8000D5F0E9E4CEFD22EDF8F5F0EE8420D21C88
:101F9000FEADF075F008EF2FFFED33FD40079850D0
:101FA00006D5F0F222C398FD0FD5F0EA22C2D5EC97
:101FB00030E709B2D5E4C39DFDE49CFCEE30E715A3
:101FC000B2D5E4C39FFFE49EFE121F58C3E49DFDFB
:101FD000E49CFC8003121F5830D507C3E49FFFE444
:101FE0009EFE22C5F0F8A3E028F0C5F0F8E58215C2
:101FF0008270021583E038F022A3F8E0C5F025F0E6
:10200000F0E582158270021583E0C838F0E822BB43
:10201000010A89828A83E0F5F0A3E022500687F066
:1020200009E71922BBFE07E3F5F009E319228982CB
:102030008A83E493F5F074019322BB0110E58229B1
:10204000F582E5833AF583E0F5F0A3E0225009E953
:102050002582F886F008E622BBFE0AE92582F8E22E
:10206000F5F008E222E5832AF583E993F5F0A3E988
:102070009322BB010DC58229C582C5833AC583025F
:102080001FE35011C58229F808E5F026F618F5F08F
:10209000E58236F622BBFE11C58229F808E225F05A
:1020A000F5F0F218E23582F222F8E58229F582E5B0
:1020B000832AF58374019325F0F5F0E4933822BB6D
:1020C000010A89828A83F0E5F0A3F0225006F7091D
:1020D000A7F01922BBFE06F3E5F009F31922F8BBBD
:1020E0000111E58229F582E5833AF583E8F0E5F010
:1020F000A3F0225009E92582C8F608A6F022BBFE0B
:1021000009E92582C8F2E5F008F222E88FF0A4CCB4
:102110008BF0A42CFCE98EF0A42CFC8AF0EDA42C0E
:10212000FCEA8EF0A4CDA8F08BF0A42DCC3825F0DD
:10213000FDE98FF0A42CCD35F0FCEB8EF0A4FEA9C8
:10214000F0EB8FF0A4CFC5F02ECD39FEE43CFCEAD5
:10215000A42DCE35F0FDE43CFC2275F0087582001C
:10216000EF2FFFEE33FECD33CDCC33CCC58233C55C
:10217000829BED9AEC99E58298400CF582EE9BFEED
:10218000ED9AFDEC99FC0FD5F0D6E4CEFBE4CDFA48
:10219000E4CCF9A88222B800C1B90059BA002DECEC
:1021A0008BF084CFCECDFCE5F0CBF97818EF2FFF84
:1021B000EE33FEED33FDEC33FCEB33FB10D703992C
:1021C0004004EB99FB0FD8E5E4F9FA227818EF2FD9
:1021D000FFEE33FEED33FDEC33FCC933C910D705F8
:1021E0009BE99A4007EC9BFCE99AF90FD8E0E4C917
:1021F000FAE4CCFB2275F010EF2FFFEE33FEED3347
:10220000FDCC33CCC833C810D7079BEC9AE8994073
:102210000AED9BFDEC9AFCE899F80FD5F0DAE4CDD5
:10222000FBE4CCFAE4C8F922CFF4CFCEF4CECDF45F
:10223000CDCCF4CC22EB9FF5F0EA9E42F0E99D4232
:10224000F0E89C45F022E8600FECC313FCED13FDB1
:10225000EE13FEEF13FFD8F122E8600FEFC333FF58
:10226000EE33FEED33FDEC33FCD8F1227401FF3385
:1022700095E0FEFDFCA3A3A3E0CF2FF0E58215823D
:1022800070021583E0CE3EF0E58215827002158360
:10229000E0CD3DF0E582158270021583E0CC3CF084
:1022A00022ECF0A3EDF0A3EEF0A3EFF022A88285DC
:1022B00083F0D083D0821222C41222C41222C4120C
:1022C00022C4E473E493A3C583C5F0C583C8C58263
:1022D000C8F0A3C583C5F0C583C8C582C822A4259C
:1022E00082F582E5F03583F58322D083D082F8E44D
:1022F000937012740193700DA3A393F8740193F576
:10230000828883E4737402936860EFA3A3A380DFE1
:10231000EC8EF0A4CCC5F0CCCDF8EFA4CEC5F02D5A
:10232000FDE43CFCE8A42EC8C5F03DFDE43CFCEF18
:10233000A4FFE5F028FEE43DFDE43CFC227AF279BE
:102340006B7BFFE4900FFAF0227AF279827BFFE454
:10235000900FFAF022E49014ADF090053AE0FF33CC
:1023600095E0FEEF4E227AF279877BFFE4900FFA38
:10237000F0227AF279C27BFFE4900FFAF022900407
:102380005BE0FF14F0EFC3940174809480227BFF24
:102390007AF27958E4900FFAF0227AF279A87BFF6A
:1023A000E4900FFAF0227AF279A07BFFE4900FFA22
:1023B000F022E490045EF090042F7407F0E49001A2
:1023C00080F09004F37407F0227AF279767BFFE4D0
:1023D000900FFAF022740490045FF0E49014C0F0BF
:1023E000740C9014BFF09014C17401F0227AF1794A
:1023F000867BFFE4900FFAF02235F0FA7BFFE025B0
:10240000E0FFE4900FFAF0FD227D017BFF7E007F6C
:1024100007021E739014A3E0640A229014ABE0FF3D
:10242000A3E0FEC39F22E0C4540FFB900FC57401CC
:10243000F0229006CD74FFF5F0121FE3FEC3E5F025
:102440009401EE940022740E900474F0900473745E
:1024500080227418900FF0F0A374FFF0A3227BFF8A
:10246000E4900FFAF0229000F7E0FF7E00D3940092
:10247000748094802290042F7407F09004F3F0E4A9
:10248000900180F0227BFFE4900FFAF02274AF2FCE
:10249000F582E43414F58374FFF022E0FEA3E0FF3C
:1024A0007C007D64121F587F0A7E00CFCDCFCECC3A
:1024B000CE121F58AB07E4900FC5F0229014A3E092
:1024C000FF7E00C3940974809480227BFFE4900F08
:1024D000FAF022FF24FCF58274FF3EF583ECF0A3B2
:1024E000EDF074FE2FF58274FF3EF5837401F074F5
:1024F000FF2FF58274FF3EF583227AF279497BFF44
:10250000900FFAF022900461F0A37480F022900002
:10251000CBE0C3940474809480229000EEE0FF33FB
:1025200095E0FE227D017BFF7E007F06021E737B0D
:10253000FFE4900FFAF022E4F090045E7422F09031
:1025400000F5E4F0A37480F0227AF279BB7BFF906F
:102550000FFAF02290045C740CF09003F4E0900405
:102560005DF090045B7480F0229014AEE064012270
:102570007BFFE4900FFAF0229014ACE004F022907C
:102580000472E024FFFF900471E034FFFE22E0FBC0
:10259000E4900FF0F022900F9DE0FFC3940C748044
:1025A0009480227D017BFF7E00021E737BFF900FD3
:1025B000FAF07D24229014A3E0640222E054F0FF9C
:1025C0009014A3E02F22F09000C8E4F0A3F0A3F051
:1025D000229006C8F09006CDE4F0A37440F022905B
:1025E00014A3E0640122E49000CCF0A3742BF0A3C8
:1025F00074F2F022FF24FCF58274FF3EF58374FF31
:10260000F0A3F074FE2FF58274FF3EF583E4229070
:10261000045FF0E49014AAF022F09003FEE0FCA323
:10262000E0FDA3E0FEA3E0FF22E0FFC3940274807C
:102630009480229004617402F0A37480F022F0A3CD
:102640007401F07BFF7AF479B62290045F7413F082
:10265000A3227BFFE4900FFAF0229014A3E0FDC3C5
:10266000940A7480948022E0540F2FF09014A422D6
:1026700090046AE06401227D017BFF7E00021E73EC
:10268000E0FFC3940374809480227C007D0AE0FE06
:10269000A3E0FF021F589014ACC3E094057480942B
:1026A0008022900410F09004127440F0E422901400
:1026B000AAE0FF7E006402229003F8E09003F72472
:1026C00001FFE03400FE227E00900459EEF0A3EFFB
:1026D000F024FFFFEE34FFFE22900474740EF0A38A
:1026E000740CF0E422F0A37403F0A37480F07D3442
:1026F0007F48229014A6E0FCA3E0FD900471ECF06A
:10270000A3EDF0229000F8E0640122E004F09004D0
:1027100059E0FCA3E0FDAE04780222900473E014BB
:10272000F022900F9DE004F0227BFFE4900FFAF07E
:1027300022E0C3946474809480229014A3E0FF7E0E
:1027400000640B2290045E7414F0E490045FF09037
:10275000046A2274EAF0A374AFF0E4A3F07B1B22B6
:1027600090042F7407F0227403F0E49003F3F090C8
:1027700014AAF022900474E0640122900000F0A3F7
:10278000F0229004EDE0640122E014F0900471E086
:10279000FEA3E0780222A3740EF09004EF742622C8
:1027A00074EEF0A374342274EEF0A3745422F0900B
:1027B00014ACF09014AB229014BFE0FF900F9DE09A
:1027C000FEC39F229014A3E0640B229014A3E06444
:1027D000032290F72C9324FFFFE49334FFFE22E0C2
:1027E00024FFF09000F5E034FFF0229004747402AE
:1027F000F0E490053BF022EF3395E0FEEFF4227B0E
:10280000FFE4900FC7F0227B01E4900FC7F0229005
:1028100014AFEDF0900F9D7401F0229014A3E0C36B
:102820009406748094802290046174FFF5F0021F76
:10283000F9F09005617411F0229000F1E064032238
:102840007BFF900FFAF022E0FEA3E0FFD39400EEAE
:102850002290045EF07F0122F0E49004EDF02274F7
:102860000CF0A3E4F0A304F0227B017A1479AF22E8
:1028700090047AE0640122900431E4F0A374F0F053
:1028800022E4900FFAF07D1E7F03227B037D037FFD
:10289000032290017774FFF022E49000EDF0A3F0A2
:1028A000A3F0227D017BFF7E00021E73782A7C014B
:1028B0007D0122F090053E7402F07BFF22E4900F30
:1028C0009CF0900F9BF022901025122D3EE490106A
:1028D0002D122D1CA3122D1C901025122D144A4BC5
:1028E0007002FF22901025122D14F990000F123063
:1028F00049C002C001901028122F0790105CC91225
:102900002D3F90102BE0FFA3E090105FCFF0A3EFDE
:10291000F0D001D002123704EF7002FF2290102590
:10292000122D14F9122F2524FE6076147003022A4A
:1029300078147003022B6124036003022CBDE49021
:10294000103BF0A3F0901025122D14122E3395F0A9
:10295000500D122EB270EE90103BE004F080E69025
:102960001025122D14122D85ED6B7001EC60030201
:102970002CCD901025E0FBA3A3900007122E8DFD17
:10298000ACF0122F41900008122DBF3E122DB7124D
:102990002E5C6003022CCD901025122D14F9022C10
:1029A000B41230BF1294F5901025122D14F9900036
:1029B00005122E8DFDACF01230B9900006122DBF1D
:1029C0003E90102DF0A3EFF012304212307B9000B9
:1029D00008122F47900009122E832DFFE5F03CFED0
:1029E00090000A122DC99010391230C67C057DA0C6
:1029F000121F5890102D1230917C007D06121F4638
:102A0000EF2BFFEE3A901031F0FCA3EFF0FD9010A9
:102A100025122D142416F9E43AFAC004C0059010CA
:102A200039122F1690105EECF0A3EDF0D005D00413
:102A3000125F5678597C10122E10901025122D140A
:102A400078717C10122F9D122CE1122D14122E5B26
:102A50006003022CCD90103F122E5494FDEE648042
:102A6000947F5003022CCDD3EF940FEE64809480BA
:102A70004003022CCD022CB41230BF1294F5E49026
:102A8000103BF0A3F0901025122D14122E3395F068
:102A9000500D122EB270EE90103BE004F080E690E4
:102AA0001025122D14122D85ED6B7001EC600302C0
:102AB0002CCD901025E0FBA3A312304275F00384C7
:102AC00075F00AA4FF900006122DC935F090002E73
:102AD0008FF01220DE12304275F00384E5F075F0BD
:102AE0000AA4FF900008121EB22F900030122FF996
:102AF00090002E123028C3EE94005003022CCDD348
:102B0000EF9417EE94004003022CCD901025122D67
:102B100014F990003012203AFDACF0D39FEC9E5097
:102B200003022CCDD3ED9418EC94004003022CCD7D
:102B3000122E5C6003022CCD90002E12203AFF90E2
:102B40001047122E3E95F05003022CCD900030120B
:102B5000203AFFC3ED9FEC95F04003022CCD022CF0
:102B6000B41230BF12A390901025122D14F99000CA
:102B700004122E8D24E3FFE5F03407FE90000512C9
:102B80002DC990102F1230C6901041122F82400391
:102B9000022CCDC3901030E09DFF90102FE09CFEE2
:102BA000C3EF9403EE94004003022CCD901025A3B4
:102BB000A3122F4112307B900007122F479000087C
:102BC000122E832DFFE5F03CFE900009122DC93E28
:102BD000FE90103BF0A3EFF0C39451EE942240031B
:102BE000022CCD90103BE0FAA3E0FB7D18122EE4FE
:102BF000901031EEF0A3EFF07C007D18AF03AE0231
:102C0000121F58901037ECF0A3EDF090102FE0FE5B
:102C1000A3E0A3122FE27410F0A37435F07B017AC5
:102C2000107933127303901025122D142416F9E431
:102C30003AFA90102FE0FCA3E0FD901033E0FFA3E0
:102C4000E090105ECFF0A3EFF0901035E0FFA3E02E
:102C5000901060CFF0A3EFF0901037E0FFA3E0906A
:102C60001062CFF0A3EFF012A63E901025122D14A3
:102C700078597C10122F9D78717C10122E10122C16
:102C8000E1122D14122E5B7044D3901040E094009A
:102C900090103FE064809480403390002412203AEA
:102CA000FF90104F12309BE5F09CFEC3EF94E7EECF
:102CB0009403501990000FE475F001800D901025D9
:102CC000122D14F990000FE4F5F01220DE9010257B
:102CD000122D14F990000F122E5F7F0070027F01F9
:102CE0002212A74A90103FEEF0A3EFF09010252299
:102CF00090005BE41220DE90105CE0FBA3E0FAA3FE
:102D0000E0901067F9E0FEA3E0F5828E83121EB218
:102D1000FF901059E0FBA3E0FAA3E022F0A3F0A398
:102D2000F0A3F0A3F0A3F0A3F0A3F0A3F0A3F0228C
:102D3000A3E0FAA3E02404901062F9E43AFAEBF07D
:102D4000A3EAF0A3E9F022F990000E12203AFFAEB8
:102D5000F07C007D06121F58900010EE8FF01220BC
:102D6000DE90000E12203AFFAEF07C00227D3C1275
:102D70001F4690000812203A90000C2FFFEE35F00D
:102D80008FF00220DEF9900009121EB2FFFDC39001
:102D9000103EE09DF090103DE09400F0EFFB7D0AC6
:102DA000E0FEA3E0FF7C00021F583EFE90000812E8
:102DB000203A2FFFEE35F09000148FF00220DE75E0
:102DC000F064A42DFFE5F03CFE121EB27C002FFF44
:102DD000EC22900001121EB2FF900041E48FF0122D
:102DE00020DE900002121EB2900043FFE48FF0023A
:102DF00020DE90001212203AFFAEF07C057DA0028A
:102E00001F46900012F9EC8DF01220DE9000062291
:102E10007B017A1079417E007D017F18021E737C50
:102E2000007D64121F587F0A7E00CFCDCFCECCCE5E
:102E3000021F58F990000D12203A90103BFFE0FC61
:102E4000A3E0FDC39FEC22E0C4540F75F00AA4FF79
:102E5000E0540F22E0FEA3E0FFC322F990005D12D0
:102E6000203A640145F022FF121EB2FD12CEECAEF4
:102E70000790102522F9121EB2FFAD0612CDD19097
:102E800010252275F064A42DFDEC35F0FC121EB265
:102E900075F00AA422CFF0A3EFF07B017A0F79C579
:102EA00022F990000D02203AFFE0FD12CDD19010E2
:102EB00025228D828C83121EB2FF90103EE02FF0EF
:102EC00090103DE03400F090103CE004F0227D01D1
:102ED0007BFF7E00021E739000068FF00220DEE072
:102EE000FAA3E0FBFFAE02021F58F9E0FEA3E0FFE9
:102EF000F5828E83021EB2F9E0FCA3E0F5828C839A
:102F0000EF021F24900FBBE0F9A3E0FAA3E022A395
:102F1000ECF0A3EDF0227C057DA0E0FEA3E0FF0233
:102F20001F58121F24900011021EB2F9900002EFE8
:102F3000121F24900003021EB2F9900005EF121F29
:102F400024900006021EB2AC06AD07021EB290002D
:102F500002F9EE8FF00220DEFFE0FD12CEEC9010C1
:102F6000252234F8FE7C007D0F121F58ED24E3FF6C
:102F7000EC340722E0FFA3E0900004CF8FF00220A2
:102F8000DEFFE0FCA3E0FDD39FEC9E222FFEEC359C
:102F9000F0F0A3CEF0227C277D10021F582416F9F2
:102FA000E43AFA7D017E007F18021E73A3E0FAA3C3
:102FB000E02406F9E43AFA90106522A3E0FAA3E0CF
:102FC0002408F9E43AFA90106822F98D828C831271
:102FD0001EB2FF22F9900008EF121F249000090290
:102FE0001EB2FFE0FCA3E0FD9010717401F0A3227B
:102FF00024FFFFE5F034FFFE22FFEC35F08FF002F6
:1030000020DEA37407F0A374E3F0227D017BFFFEB2
:10301000021E7333FE747A2FF58274103EF58322FC
:10302000F98F828E83021EB212203AFFAEF022A3E5
:10303000E0FEA3E0FFED6F2290106FFFE4F0A3EF3E
:10304000F022900007021EB2F9E4F5F00220DEAF94
:1030500005AE04AD03AC02021F5874FF2DF5827457
:10306000FF3CF5832290105FE0FEA3E09010632206
:1030700024FFF58274FF35F0F58322FF7E007C0388
:103080007DE8021F46C98DF00220BFC98FF00220E3
:10309000BFAA06AB07E0FEA3E0FF22E0FCA3E0FD31
:1030A000C3EF9DFF229400CF2401FBE43FFA22F9F5
:1030B00090001212203A25E022900004021EB27BFA
:1030C000017A107941223EFEF0A3EFF02290045FD6
:1030D000E0600302315C9000D2E0702890046AE066
:1030E000640270209000D5E0701A12264A7407F02E
:1030F000A31225427F3E12CDFE12CDE01223A67D03
:103100000E02335690046AE0FF7E006401700E9058
:1031100000D5E012262B50028001C35018EF640244
:103120004E70339000D4E0C39408748094805002B1
:103130008001C3402112264A7406F0A31225427F63
:103140005812CDFE7F647E0012CFD112CDE0122343
:103150009A7D24023356740112260F2290045FE0F8
:103160006401704E7403122612122670700512CB81
:1031700051800312CAC0900463EFF01223DBE49085
:103180000F9DF0122596500812248D12272280F3ED
:1031900074021225051226707B5270047D4C800249
:1031A0007D4E7F6612CE3612CDE01223C97D1E02FF
:1031B000335690045FE06403600302325F12CDE097
:1031C000E41233EFE0640260030232499014C0D38A
:1031D00012269A4058E4900F9DF0900F9DE0122522
:1031E0009B501EE0FF24AFF582E43414F583E0FE2B
:1031F00074972FF582E43414F583EEF012272280C1
:10320000D91223D5E4900F9DF01225965008122470
:103210008D12272280F31226331226707B527004FF
:103220007D4C80027D4E7F6812CE36802A74031258
:1032300023D7E4900F9DF0122596500812248D128A
:10324000272280F3122633800E9014C1E0640370AD
:103250000612264A12285F1223C97D1E0233569099
:10326000045FE06404704A1233EF1226B1703290AA
:1032700014C0E0D312269B400790045F7405F0222F
:103280001223D5E4900F9DF0900F9DE0FD12259B39
:10329000500B74AF2D12249012272280EB1226338C
:1032A00022EF64034E60030233E512264A12285FC0
:1032B0002290045FE06405600302335B7B01900FA2
:1032C000A104F0A37414F0A374AFF07A14799712E8
:1032D0007A9FEF3395E04F7069122869127424EFDA
:1032E0007041122869900463E0FD129EF91227F7DD
:1032F0007002EEF460030233E590045F7412F0E4B0
:103300001225057D321233E61223497D247F0312F4
:1033100066B012267070059000D580039000D4E04E
:1033200004F02212264A7404F0A31225427D527F33
:103330005612CD6512CDE07AF2798C1224857D2467
:10334000801412264A7409F0A31225427D341233E8
:10335000E61223667D247F030266B090045FE0647A
:1033600012702812282712243C507A9000D2E07064
:1033700012122670700D9000D5E06401700512CE17
:103380001A800312CF667F0602508C90045FE064BF
:1033900013705212282712243C504A900460E0FF18
:1033A0007E00640C700E9000D2E070089000D5E0B2
:1033B000700280119000D2E0700F122670700A9097
:1033C00000D5E070041223B322EF64064E600E9025
:1033D0000460E0FF640C6005EF640770051226705E
:1033E000800012CF66227F4412CD6512CDE022FD0F
:1033F0007F0512B4439014C1229000CC12235D705B
:103400000B90045E7425F07F0412A8529004FDE036
:1034100070067420F012B3E39004F3E06404707952
:103420009000ED74FFF09004FBA3E09000F3F01225
:10343000C84D1225C79000F8E070069000F1048096
:103440002912270460030235249000EF12251DBEC7
:10345000FF0ABFFF079000F17406800E12251ABE06
:10346000FF0EBFFF0B9000F174041236DF0234F43C
:103470009000F7E0700A7F7A12CDFE9000F7807A14
:103480001224665003023524EF640170031223C234
:103490009000F7E014F00235249004F3E064056036
:1034A000030235241236FB70569004F6E064167061
:1034B00038A3E064D47032A3E064DB702CA3E06432
:1034C0003C7026900649E0701B12BCD8900568122B
:1034D000235D70107D327F4412CD6590064974C023
:1034E000F012C84D1223C2803B9000F174071236CF
:1034F000DF12C84D9000F5E4F0A37480F08025E45D
:103500009000EDF09000F104F09000F31225377F69
:103510004012CDFE9000C91225115005E004F08044
:10352000031225E61263D2900180E0642870749043
:1035300000EE74FFF090017BA3E0049000F21225EE
:10354000C69000F8E070089000F174030235D012C4
:10355000270460030235FD9000ED12251DBEFF0A11
:10356000BFFF079000F1740480669000EF12251DE4
:10357000BEFF0ABFFF079000F1740580539000F76B
:10358000E0700A7F7A12CDFE9000F7804612246622
:10359000406BEF64017004900180F09000F7E0143C
:1035A000F0805A900180E064297052A3E0642B708F
:1035B000089000FA7402F08005E49000FAF01236E8
:1035C000FB70159000FAE06402600D9000F1740742
:1035D0001236EA7480F08025E49000EEF09000F15D
:1035E0007403F0E4A31225387F4012CDFE9000C88A
:1035F0001225115005E004F080031225E6126D1B20
:1036000090042FE0640A705D9000EF74FFF0900466
:103610003DE09000F41225C69000F8E060089000AC
:10362000F0E0640170079000F17402804F122704EB
:1036300060030236CE9000ED12251DBEFF0ABFFFCB
:10364000079000F17406803412251ABEFF0ABFFFEE
:10365000079000F1740580247F7A12CDFE12276056
:103660009000F7801A90042FE0640B703F12C96D30
:10367000EF3395E04F700D9000F174071236EA7445
:1036800080F0804AE49000EFF09000F17402F09036
:1036900000F41225377F4012CDFE9000CA1225118A
:1036A0005005E004F080271225E6802290042FE0E8
:1036B000FF7E00640C700E900407F0A3F090045E8F
:1036C0007424F08009EF640D4E700312CD21126254
:1036D0005C900427E07002A3E0700312CDE022F0BA
:1036E00012C02190045E7421F022F012C0219004D7
:1036F0005E7421F09000F5E4F0A32212C96DEF335F
:1037000095E04F22901059122D3EE4901061122D39
:103710002890105FE0FCA3E0FD901065ECF0A3EDB5
:10372000F0122D111230AFFBE5F033FAED24FAFF61
:10373000EC34FFFE7C007D05121F589006E575F005
:10374000C8ED1222DEEC75F0C8A42583F583E5826E
:103750002BF582E5833AF583E0FEA3E0FBAA067C25
:10376000007D64FF121F58901067EEF0A3EFF0AFDA
:1037700003AE02122E1FA3EEF0A3EFF0AE02AF03D2
:103780007C007D0A121F58122F0FE4122D27901073
:1037900060E024F5FE90105FE034FF901071F0A31C
:1037A000CEF0122D114A4B7002FF22122D11F9900A
:1037B0000012123028D39400EE94004008EF946475
:1037C000EE940040037F0022901065122E54940660
:1037D000EE94004009D3EF940CEE940040037F0078
:1037E00022901071122E54EE9400405BD3EF94029D
:1037F000EE94005052901068E09F901067E09E5049
:103800000CA3E0240AF0901067E03400F0D390108D
:103810006AE09F901069E09E500CA3E0240AF090AB
:103820001069E03400F0901071E0FEA3E0FFD39047
:10383000106CE09F90106BE09E500CA3E0240AF007
:1038400090106BE03400F0901063E4F0A304F012E9
:103850003065122F8150339010671230307002ECB7
:103860006E601712302F7002EC6E600E12302F70E7
:1038700002EC6E6005122F0F8010901064E004F0CF
:1038800070CD901063E004F080C5E4901063F0A365
:10389000F0123065122E3D9E502690105C122D14B1
:1038A000122FCA901062E02FF0901061E03400F007
:1038B000901064E004F070D9901063E004F080D1BF
:1038C000122D11F9122F25FF64016008EF640360C7
:1038D0000302397B122DD2122F33900045122DEBAB
:1038E0001230B9FF900047122DEC900005121EB265
:1038F00012303875F005122CF0F990004112203A80
:103900006F7002E5F060030239F190105C122D1423
:10391000901069122D04F990004312203A6F700242
:10392000E5F060030239F190105C122D14F990104B
:103930006B122D05F990004512203A6F7002E5F0E8
:1039400060030239F190105C122D14F990106D1281
:103950002D05F990004712203A6F7002E5F06003E0
:103960000239F1901061122D9E90106FE06C70037F
:10397000A3E06D707C122D11F9805B122D11F912EC
:103980002F25FF64026005EF64047053122DD212DC
:103990002F3312303875F003122CF0F990004112D9
:1039A000203A6F7002E5F0704890105C122D14F907
:1039B000901069122D05F990004312203A6F7002A1
:1039C000E5F0702D901061122D9E90106FE0B504FF
:1039D00020A3E0B5051B90005DE475F001800F1297
:1039E0002D1190005B12304890005DE4F5F012203C
:1039F000DE122D11122E5B7F0070027F012212B6A3
:103A0000CC900F9E1222A112BB0E600712BB25A301
:103A10001222A1C390042AE09420900429E094008B
:103A200050037FFF22301E0A12BB0E7002C21E7F9F
:103A3000FF2212BB25126F8020C207E49014ECF025
:103A400080069014EC74FFF012BAF570099014F12E
:103A5000E07003023B429014E112BAF8700B90142C
:103A6000F1E064017003023B519014E212BAF87065
:103A70000B9014F1E064027003023B619014E312B6
:103A8000BAF8700B9014F1E064037003023B72907B
:103A900014E412BAF8700B9014F1E064047003029D
:103AA0003B839014E512BAF8700B9014F1E06405B2
:103AB0007003023B949014E612BAF8700B9014F164
:103AC000E064067003023BA49014E712BAF8700B8E
:103AD0009014F1E064077003023BB49014E812BA4A
:103AE000F8700B9014F1E064087003023BC490146A
:103AF000E912BAF8700B9014F1E064097003023B0C
:103B0000D49014EA12BAF8700B9014F1E0640B70C0
:103B100003023BE49014EB12BAF8700B9014F1E03E
:103B2000640A7003023BF49014EC12BAF8700E9021
:103B300014F1E0640D70069014F4023C0712BAF51B
:103B400070079014F4F0023C0F9014E112BAF87070
:103B5000089014F404F0023C0F9014E212BAF870CA
:103B6000099014F47402F0023C0F9014E312BAF8B6
:103B700070099014F47403F0023C0F9014E412BA2C
:103B8000F870099014F47404F0023C0F9014E512DC
:103B9000BAF870089014F47405F080739014E6126B
:103BA000BAF870089014F47406F080639014E71269
:103BB000BAF870089014F47407F080539014E81267
:103BC000BAF870089014F47408F080439014E91265
:103BD000BAF870089014F47409F080339014EA1263
:103BE000BAF870089014F4740BF080239014EB1260
:103BF000BAF870089014F4740AF080139014EC1260
:103C0000BAF89014F47005740DF0800374FFF0900E
:103C100014F4E0FF900560F0F47003023C9F9014F0
:103C2000F1E0FD9014F4E0FC6D6015EF640D900F71
:103C3000A66004ECF0800374FFF09014F1EC80793E
:103C4000D39014F3E094C09014F2E09400500FA3CA
:103C5000E004F070069014F2E004F012BB3490140B
:103C6000F2E0FEA3E0FFD39460EE9400402CEF94CA
:103C7000C0EE9400400EA3E0640D7008900FA6748F
:103C80001BF0800312BB349014DFE004F0D3947F68
:103C9000748094804029E4F0802512BB3480209009
:103CA00014F1E0FF640D900FA67004EFF080037430
:103CB000FFF09014F4E09014F1F0E4A3F0A3F0907E
:103CC0000FA6E0FF229006C8E0703D7BFF7AF079F6
:103CD000BC900FC7F07D1C7F011276527BFF7AF1FA
:103CE00079CFE41225AE7F011266B07BFF7AF079BE
:103CF000BEE4900FC7F07D5C7F01127652E4900025
:103D0000CFF09006C804F0229006C8E0640170214C
:103D10007BFF7AF179DA1225AE7F041266B012B415
:103D2000A312C4B0E49006C9F09006C87402023E23
:103D3000279006C8E064027034A312235D900FF050
:103D4000700A74101224571227A0800874101224CD
:103D5000571227A7123F321224324003023F317418
:103D600003123F407BFF7AF179D4023E6E9006C881
:103D7000E06403706412A41D9000CFE06402703E02
:103D80009004EDF07F0112BAAFE4900F9DF0900F18
:103D90009DE0C394197480948050177F0A7E0012AE
:103DA000CFD112CFD71227826008900F9DE004F088
:103DB00080DCE49006CAF09006C874048069900024
:103DC000CFE064036003023F319006CA74FFF074D1
:103DD000041225D17F07023F2E9006C8E0640470CC
:103DE000359006CA12235D900FF0700A74101224E9
:103DF000571227A0800874101224571227A7123FC9
:103E0000321224324003023F317405123F407BFFDF
:103E10007AF179D780589006C8E064057011900651
:103E2000CBF09006C874061225D47F02023F2E9074
:103E300006C8E06406703A9006CB12235D900FF03E
:103E4000700A74101224571227A0800874101224CC
:103E5000571227A7123F4F1224324003023F3190DE
:103E600006C87407F0123F5D7BFF7AF179DDE480CC
:103E7000729006C8E06407700E9006CCF0740812C9
:103E800025D17F02023F2E9006C8E06408706B9037
:103E900006CC12235D900FF0700A74101224571292
:103EA00027A0800874101224571227A7123F4F1220
:103EB0002432507D9006C874091225D4123F5D90BB
:103EC00006CA12235D70219006C912235D701990F5
:103ED00006CB12235D7011A312235D700B7BFF7A5A
:103EE000F179E01225AE800D7BFF7AF179E5E4905F
:103EF0000FFAF07D1C7F040266B09006C8E06409EA
:103F0000702F122432502A9000DBE06004640170AC
:103F1000187F7412CDFE9000DA74FFF09000DC740C
:103F200080F090045E7420F0221223B27F0612C546
:103F30007222F0E4A3F07B107D4B7F0412AAD322FF
:103F40009006C8F07F0412C6A97F0512C6A922F008
:103F5000E4A3F07B107D4B7F0412AAD3227F0412CE
:103F6000C6A97F0512C6A9229003ECEEF0A3EFF0DC
:103F70009003F3E07015741E129036A37401F0E400
:103F8000A3F0A374FFF07F6C0240F29003F3E064AF
:103F90001E7005741F0241269003F3E0641F703BFE
:103FA000129023702B9004EFE070089003F37420BC
:103FB0000241469004EFE0FF6403600DEF6402608D
:103FC00008EF64F960030240989003F3741EF02236
:103FD000128FEA40030241E60241DC9003F3E06401
:103FE000207010742112902D9003F0E0FF12BB3B63
:103FF0000241B19003F3E0642160030240A91290F2
:1040000023600302409E9004EFE070529003F0E0C2
:10401000FF7E00640170209003F2E0FD3395E0FC28
:10402000ED4C70139003F0E004F09003F37424F06F
:104030009003F274FF8020C3EF9405EE64809480B7
:104040009003F35010129034A3E004F01241E712F1
:1040500066B00241477417F01290980241479004ED
:10406000EFE0FF64066005EF6403702C9003F1E05D
:10407000C39403748094809003F3500E1290341212
:10408000C84D1241E71266B080077429F0A3740B83
:10409000F09003F1E004F0229003F30241CF128F7D
:1040A000EA40030241E60241DC9003F3E06424703D
:1040B0000F742512902D7B32FAFDFC7F0102B1F2C4
:1040C0009003F3E06425705412902370449004EF41
:1040D000E0FF7E00700B9003F37429F0A3740AF0E4
:1040E00022EF64094E9003F3702412903412C84DED
:1040F0007F6E12CDFE7F967E0012CFD17BFF7AF2CB
:10410000796FE4900FFAF07D0E7F030266B00241F2
:10411000CF128FEA40030241E60241DC9003F3E054
:1041200064227008742312902D02CB099003F3E0EF
:104130006423702712902370179004EFE0640290BC
:1041400003F360067422F002C84D741E12903622EA
:10415000128FEA40030241E60241DC9003F3E0647F
:1041600017700A741812902D12CA5480449003F3E9
:10417000E0FF7E006418701E129023700F9004EF11
:10418000E09003F370047419F02280439003EE1260
:10419000906950528046EF64194E70199003F37481
:1041A0001A12902D9003ECE0FCA3E0FD7F0112B603
:1041B0001A129098229003F3E0641A702912902347
:1041C00070159004EFE09003F370047428F02274EB
:1041D00029F0A3740BF022128FEA500A9003F374B3
:1041E00029F0A37401F0227F6E12CDFE7F967E002F
:1041F00012CFD17BFF7AF2796FE4900FFAF07D0E47
:104200007F0322789D7C0F7AF079C012252478A351
:104210007C0F7AF079C612252478A97C0F7AF07980
:10422000CC7F051225A3900422E070030243C374DF
:104230002812245474EDF0A37430F0E4A3F07B341E
:104240007D48FF12AAD39000F1E0640170157AF264
:10425000794E1224FE12446F12233D1244619000E5
:10426000F3803412283970111224FA12446F122389
:104270003D1244619000F2801E9000F1E0640270F3
:10428000267AF2795312254DFD7F021266B0122371
:104290003D1244689000F4E0FB7A00E4900FB2F025
:1042A0007D287F040243389000F1E06404702B12F3
:1042B00024FAFDFF1266B012233D12443B7D247F99
:1042C0000212787C7AF2794E12234112446812234A
:1042D0003D7F0612444E7F06805E9000F1E064054B
:1042E00070261224FAFDFF1266B012233D12443BE1
:1042F0007D2812447612234DFD7F041266B01223EE
:104300003D1244267F0680309000F1E06406702D57
:104310007AF2794E122840FDFF1266B012233D7FDB
:104320000212444E12447612236AFD7F041266B0D4
:1043300012233D1244267F0612787C80189000F1EB
:10434000E0640770107B017A0F79A9900FFAF0FDF5
:104350007F031266B07B017A0F79A3E4900FFAF025
:104360007D407F061266B0900422E06403701690D0
:10437000041CE0B4010FA3E0B43B0A7F2C12CDFE75
:104380007F0302A852900422E064046003024425E3
:1043900090041EE07004A3E06403701C7F2E12CD15
:1043A000FE9000F5E4F0A374C0F0900427E4F0A3BD
:1043B00074C0F0E4FF02508C90041EE07004A3E08F
:1043C000640122E49014ADF0900FF0742812245789
:1043D00074ECF0A37468F0E4A3F07B287D2CFF124A
:1043E000AAD37B017A0F799DE41225AE7F0612666F
:1043F000B09000F5122847648094804015EF644027
:104400004E7008900427F0A37441F09000F6122734
:10441000DF229000ED1225CA12247590045EF09000
:104420000427F0A3F022FD7F061266B09000F4E0AE
:10443000FB7A00E4900FB2F07D2822FD7F02126625
:10444000B09000F2E0FB7A00E4900FB2F022FD128F
:1044500066B09000F3E0FB7A00E4900FB2F07D28A4
:1044600022FD7F041266B022FD7F041266B022FD99
:104470007F021266B0227F0212787C7AF279532290
:10448000E4900FACF0A31222AD00000000900FB139
:104490001222AD00000000E4900FB5F0A3F030034D
:1044A000030245AB12CFC8500302459D12C543908D
:1044B0000FAD1222A1E4900FABF0900FABE0C395CB
:1044C000105039900FAD127E677801122246900F7E
:1044D000AD1222A130D720127E3BC000C001900F48
:1044E000AB127E2AE0F9F8122259D001D000127ED8
:1044F00073900FACE004F0127EB280BE900FACE07F
:10450000FF7E00C39402748094804018D217EF9409
:104510000374809480400512CFCB800812CF0FEF38
:104520006002C217201723E4FFFEFDFC127E3BC38E
:1045300012223560109013B8E004F070069013B7A3
:10454000E004F0801D127E9E80189013A7E004F016
:1045500070069013A6E004F0900FB11222AD000097
:10456000000012CE69D39013B8E09F9013B7E09E7D
:10457000400612CFCB127E9ED39013A7E0942C90CE
:1045800013A6E0940150030246CD12CFCB9013DE68
:104590007401F0E49013A6F0A3F00246CD90F680EB
:1045A000E4740193FF1252460246CD2004030246F2
:1045B00097127E3BC000C0019013DF127E2AE0F903
:1045C000F8122259D001D000127E73127DC8127EDB
:1045D000B9900FB5F0A3EFF09013DFE0FF12CF27F3
:1045E000AD07AC06ED7802CEA2E713CE13D8F8FFE4
:1045F000C3ED9FFFEC9EFED3900FB6E09FEE64806C
:10460000F8900FB5E06480985058E490135CF0A3E4
:10461000F090131FE004F09405748094804010E43F
:10462000F0C203C204900FB11222AD00000000E4FA
:10463000900FABF0900FABE0FFC395104003024624
:10464000CD1258EA200316900FABE0FF9013DFE085
:104650006F600A900FABE0127DD8127E85127EB299
:1046600080D2E490131FF012CE6990135CE475F0D1
:1046700001121FE3FCD3E5F09FEC9E405012CFCB1C
:10468000E490135CF0A3F0C203C204900FB11222B5
:10469000AD000000008036785406E6D3940574809F
:1046A00094804004E4F6C203E4900FABF0900FABAB
:1046B000E0FFC3951050161258EA20030B900FAB81
:1046C000E0FF127DD8127E85127EB280E0900FB19D
:1046D000127E67229003E1E060030247779000D2E8
:1046E000E0704B9000D5E0704590045E7414F07457
:1046F0000312260F90046304F090046A1223DAE494
:10470000900F9DF0900F9D122599500B12248D90C3
:104710000F9DE004F080ED1226337B527D4C7F66C6
:1047200012CE3612CDE07BFF7AF2797680431223E7
:10473000DB90042F7409F0122877E4900F9DF0901D
:1047400014BFE0FF900F9DE0FEC39F500E74AF2E8C
:10475000122490900F9DE004F080E49003E1740136
:1047600012247E7F5A12CDFE12CDE07BFF7AF179C2
:10477000801228810266B09003E1E06401600302C8
:10478000488F7D107F0612B4439014C1E06402701C
:104790004D9003E17403F01228691274249003EA27
:1047A000EFF0600B12268250069003E17402F012C3
:1047B00027609003E1E0640370191248E412238E2D
:1047C0001248DC9003E97480F012250E5021E004B9
:1047D000F0801C1248ED1223ED1248DC8011901479
:1047E000C1E0640370099003E17404F012276012C1
:1047F00063D2900180E06428702FC390017CE09424
:104800000A90017BE0940050209003E1740212248E
:104810007E1248ED1223ED7D247F031266B09001D5
:104820007F7401F07F030248D8900180E0FF642983
:10483000601EEF642860030248DB90017CE0900179
:104840007B1226BFD3EF940AEE940050030248DB9C
:10485000900181E0642B9003EB70057402F08003FB
:104860007401F0E4900180F09003E17403F0900390
:10487000E97480F01248E412238E7D247F031266CF
:10488000B07F0212A85212250E5050E004F0229080
:1048900003E1E06402700912CE1AE49000CBF0222A
:1048A0009003E1E06403701D9003E9E014F012232B
:1048B00086502812250E4005E4A31225EA1224751D
:1048C00012285180139003E1E06404700E7F60129F
:1048D000CDFE12247512285112A852227D247F0386
:1048E0001266B0227F4012CDFE12CDE0227D327FD3
:1048F0005A12CD6512CDE0227D017F041249020DCE
:104900007F04EFF582758300C3748094804024D3C4
:10491000E5829405748094805019EDF582C374800B
:104920009480400FE58294087480948050057582CD
:10493000018003900000E582640145836003024A20
:10494000FBEF1460641470030249EE147003024A12
:1049500033147003024A78147003024ABA240560C3
:1049600003024AFBEB14601D14602D240260030255
:104970004AFBA8057401088002C333D8FCFF429AA1
:10498000EFF4529B22A8057401088002C333D8FCBF
:10499000FFF4529AEF429B22A8057401088002C3DB
:1049A00033D8FCF4529A529B22EB14601D14602DF4
:1049B00024026003024AFBA8057401088002C33385
:1049C000D8FCFF4291EFF4529222A80574010880AE
:1049D00002C333D8FCFFF45291EF429222A805742F
:1049E00001088002C333D8FCF45291529222EB1496
:1049F000601D14602D24026003024AFBA8057401A7
:104A0000088002C333D8FCFF42A1EFF452A222A8CF
:104A1000057401088002C333D8FCFFF452A1EF42B1
:104A2000A222A8057401088002C333D8FCF452A165
:104A300052A222EB14601D14602D24026003024A6E
:104A4000FBA8057401088002C333D8FCFF42B1EF14
:104A5000F452B222A8057401088002C333D8FCFFC7
:104A6000F452B1EF42B222A8057401088002C333A8
:104A7000D8FCF452B152B222EB14601A14602A240A
:104A8000027078A8057401088002C333D8FCFF4285
:104A9000C1EFF452C222A8057401088002C333D8C2
:104AA000FCFFF452C1EF42C222A805740108800243
:104AB000C333D8FCF452C152C222EB14601A146002
:104AC0002A24027036A8057401088002C333D8FC7A
:104AD000FF42D9EFF452DA22A8057401088002C31C
:104AE00033D8FCFFF452D9EF42DA22A8057401084A
:104AF0008002C333D8FCF452D952DA229010A512A6
:104B00007BC89010A4EFF09010AF74FEF0E4A3F017
:104B1000A3F0EF24F4601024FE70169010B074120D
:104B2000F0A37410F0800A9010B07420F0A37430D9
:104B3000F09010B0E04480FD7F0212CE437D807F74
:104B40000412C8D1124CED7D807F0A12C92FE49067
:104B500010B3F0A3F09010A8E0FF9010B3E0FCA316
:104B6000E0FDC39FEC940050239010A5127BBF8DF5
:104B7000828C83121EB2FD7F0912CE439010B4E0E6
:104B800004F070D19010B3E004F080C99010A4E05C
:104B9000FD7F0112CE439010A4E0640C70077D806D
:104BA0007F0D12C92F12CE0C9010B3E4F0A37464E1
:104BB000F07F0412CC7D9010B2EFF09010B4E0249E
:104BC000FFF09010B3E034FFF0E07002A3E060115A
:104BD0009010B2E0FF20E0099010B1E0FEEF5E60BF
:104BE000D07D807F0D12C8D19010B3E07002A3E099
:104BF0007003024CDA7F0612CC7DEF541B60030277
:104C00004CD29010AFF0A3E0FF9010B2E05F30E024
:104C1000069010AF74FFF09010A4E0640C600302E3
:104C20004CDD7F0A12CC7D9010B2EFF07F0C12CCDD
:104C30007DEF5407FD60299010B2E024FFFFE434BB
:104C4000FFFEEF7803C333CE33CED8F97C002DFFBF
:104C5000EC3EF99010ACE0FBA3E0FAA3E0C98011B0
:104C60009010B2E075F008A4FF9010AC127BBFE585
:104C7000F08FF01220BF9010B2E0700204F090109C
:104C8000B2E0D394127480948040037412F0E490E4
:104C900010B3F0A3F09010B2E0FFC39010B4E09F07
:104CA0009010B3E0940050357F0912CC7D9010A98C
:104CB000127BBF9010B3E0FCA3E0F5828C83EF126F
:104CC0001F249010B4E004F070CB9010B3E004F017
:104CD00080C39010AF74FEF0800312CFDF7D807F21
:104CE0000C12C92F124CED9010AFE0FF22E4FD7FB3
:104CF0000112CE4322900410E0FF7E00700504F004
:104D0000A3F022EF64014E704512CDE07AF279AD46
:104D10001227297D0A7F021266B07AF279B612272D
:104D2000297D0A7F041266B012235A6003024EC521
:104D300012241B4003024EC5EE75F004A424AEF904
:104D400074F435F0FA7BFF12BEA712257822900486
:104D500010E06403702012CDE07BFF7AF179C5E4A6
:104D6000900FFAF07D0E7F031266B090041074026B
:104D7000F07F4202CDFE900410E06402701F12C862
:104D800007EF3395E0FEBEFF11BFFF0E90041074D5
:104D900004122831E4900413F022024E1E900410F5
:104DA000E064046003024E2F12B560900561E0FFDD
:104DB0007E006412704F74051226A29000D1F0A3F9
:104DC000F0FDEDC39432748094804003024EC5ED33
:104DD00025E025E02400F582E43400F58374FFF03B
:104DE000A3F0ED25E025E02402F582E43400F5830C
:104DF000E4F0ED25E025E02403F582E43400F583BA
:104E0000E4F00D80BDEF64134E6003024EC59004C4
:104E1000131225115008E00412283102C84D9004E5
:104E2000107408F07D34124EC67AF279878055905E
:104E30000410E064057018900412122381400302EC
:104E40004EC512C41974061226A29000D3F0229007
:104E50000410E0640670369004121223815066122A
:104E6000C74B12C6FC12CC2B12C3B29004107407AD
:104E70001226A59000D5F09000D4F07D32124EC6D7
:104E80007AF27982E41225AE7F030266B0900410B4
:104E9000E0FF7E0064077010900412E0FD14F0C380
:104EA000ED122387501F800EEF64084E700C9004A3
:104EB00012122381500F1223B222900410E06409D1
:104EC000700312CE28227F4212CD6512CDE07BFF07
:104ED00022900FB51222AD00000000900FB91222EF
:104EE000AD00000000128FAD900FBDE0FEA3E0FF0B
:104EF000D394D0EE94074058EF24FFFFEE34FFFE2A
:104F0000EF54037005128FA47013900FBEE024FFBE
:104F1000FF900FBDE034FFFE128F5F700A900FB953
:104F2000128F36246E8008900FB9128F36246DFFD1
:104F3000EE3401FEE43DFDE43CFC900FB91222A1E9
:104F4000900FBEE024FFF0900FBDE034FFF080989A
:104F5000128FADE4A3F0900FBF128FDE400302501A
:104F600003EF64017020900FBD128FC77005128F80
:104F7000A47008900FBD128F5A700B900FC0E4F010
:104F8000A3741DF08011900FBFE090F71C93FF9069
:104F90000FC0E4F0A3EFF090012FE0FF12CDEFEF90
:104FA00014FF900FBFE0FEEFD39E4025900FB91283
:104FB0008F4B900FC0E0FEA3E0FFE4FCFDEB2FFF62
:104FC000EA3EFEED39FDEC38FC900FB91222A180CB
:104FD00029900FB9128F4B90012DE0FF12CDEF9069
:104FE0000FB9128F7C900FB9128F36C39401FFEE68
:104FF0009400900FB9128F708009900FBFE004F0F9
:10500000024F56900FAFE0FF12CDEF7E007C007D87
:105010003C122310C004C005C006C007A3E0FF1265
:10502000CDEF7E007C0E7D10122310D003D002D075
:1050300001D000EF2BFBEE3AFAED39F9EC38F8909D
:105040000FAEE0FF12CDEF900FB5128F7C900FB531
:10505000128F4BC000C001C002C0037F807E517D13
:10506000017C00A3128F4B12210BD003D002D00180
:10507000D000EB2FFFEA3EFEE93DFDE83CFC900F3F
:10508000B51222A1900FB5128F36FF22EF70701269
:10509000AE116401700B12ADC24404F09000F380B5
:1050A0004FED64034C700912ADC2F09000F28040E5
:1050B00012AE116402700B12ADC24402F09000F403
:1050C000802EED64044C700912ADC2F09000F280A5
:1050D0001F12AE116405700912ADC2F09000F2808B
:1050E0000FED64064C701112ADC24402F09000F452
:1050F000E012ADB7F00251DB9000F1E0640722EF5F
:10510000FD7C006402701212ADC2F0900459A3E05D
:1051100012ADB74420F00251DBED64034C70121263
:10512000ADC2F0900471A3E012ADB74430F002516B
:10513000DBEFFD7C006404700912ADAF4440F00267
:1051400051DBED64054C700912ADAF4450F00251D3
:10515000DBEFFD7C006406701212ADC24402F090D9
:105160000463E012ADB74460F08070ED64074C70EA
:105170001212ADC24402F0900479E012ADB744704F
:10518000F08058EFFD7C006408700D12ADC244023F
:1051900012ADB54480F08043ED64094C701212AD3D
:1051A000C24404F09000FFE012ADB74490F0802BB1
:1051B000EFFD7C00640A701212ADC24404F090014D
:1051C00075E012ADB744A0F08011ED640B4C707522
:1051D00012ADC2440412ADB544B0F078AE7C0F7D80
:1051E000017B017A01792A7E007F07121E73124E1D
:1051F000D190044C1222A190F72AE493900449F034
:1052000090F72BE49390044AF0900443E0FEA3E06F
:10521000FF12C62812ADF5C3900444E09F900443EA
:10522000E09E500DA3E004F07006900443E004F00B
:105230002290044BE0FF5401F45401FEEF54FE4E63
:10524000F0E412AE2022900FB7EFF09014FBE0C311
:105250009403748094804048E4F09013DEE070354D
:10526000900FB8F0900FB8E0C395105028E0FF758C
:10527000F002A424BAF582E5F03413F583E0FCA330
:10528000E0FDEF25E02424F8A60408A605900FB859
:10529000E004F080CF12B124C218E49013DEF022B3
:1052A0009014F5E004F0900FB7E0FF9014F5E0B52E
:1052B000070812C37EE49014F6F0900FB7E0FF9059
:1052C00014F5E0D39F50030253F8E4900FB8F09028
:1052D0000FB8E0C3951040030253A4E0FF75F0023D
:1052E000A424BAF582E5F03413F583E0FCA3E0FDD5
:1052F00075F002EFA42420F582E5F03413F583E085
:10530000FEA3E0C39DFFEE9CAD07FC9013DEE070B2
:10531000429013B9E0FB3395E0FAFEEB7802C33319
:10532000CE33CED8F9FFD3ED9FEE6480F8EC6480E5
:10533000984060E49BFFE49AFEEF7802C333CE33DB
:10534000CED8F9FFC3ED9FEE6480F8EC64809850EE
:105350004280519013B9E0FB3395E0FAFEEB7803FD
:10536000C333CE33CED8F9FFD3ED9FEE6480F8EC93
:10537000648098401EE49BFFE49AFEEF7803C333F9
:10538000CE33CED8F9FFC3ED9FEE6480F8EC648095
:10539000984011900FB8E0FF1258EA900FB8E0045F
:1053A000F00252CF900FB8E0B510069014F6E0046A
:1053B000F0900FB7E0FD75F008A4FF9014F5E0C37E
:1053C0009FE5F06480F8748098402DE4F0C2179057
:1053D00014FBE004F0ED75F004A4FF9014F6E0C3B4
:1053E0009FE5F06480F8748098400DE49014FBF021
:1053F00012C65412B124C21822900FA4EEF0A3EFEB
:10540000F012ADED70087BFF7AF279C7804812ADDB
:10541000EDFF6402600AEF64066005EF640970093D
:105420007BFF7AF279CDE4802D12ADEDFF6403604D
:105430001EEF64056019EF64076014EF640A600FE3
:10544000EF6404600AEF640B6005EF640870117B81
:10545000FF7AF279D3E4900FFAF07D18FF1266B06C
:10546000900FA4E0FAA3E0FBE4900FB2F07D58FFA8
:1054700012787C900454E0FCA3E0FDA3E0FEA3E0DE
:10548000FF1260DB78A67C0F7D017E007F07121E75
:1054900073900FAC12ADC97D1C1255897BDB7D2C3E
:1054A0007F021292DC900FAB12ADC97D3412558988
:1054B0007BDB7D447F021292DC900FA912ADC97D87
:1054C0004C7F0212872E900FA812ADC97D1C125579
:1054D000947D2C7F041292DC900FA712ADC97D340D
:1054E0001255947D447F041292DC900FA612ADC930
:1054F0007D4C7F0412872E12ADE4640270087BFF9E
:105500007AF2794E802912ADE470087BFF7AF27945
:1055100049801C12ADE4640170087BFF7AF2795374
:10552000800D12ADE4640470117BFF7AF279DC9097
:105530000FFAF07D147F061266B07BFF7AF77928A8
:10554000E4900FC7F07D507F0612765212ADEDFF4A
:105550006404600FEF6405600AEF640B6005EF649C
:105560000870127BFF7AF279D9E4900FFAF07D5C33
:105570007F060266B0900458E0FB7A00E4900FB218
:10558000F07D5C7F0612787C227F0212872EE490E9
:105590000FB0F0227F0412872EE4900FB0F07BD280
:1055A00022F9121EB2FF900F9EE0FBA3E0FAA3E0E7
:1055B000F922EFFD7C00E92DF9EC3AFA900FA2E018
:1055C000FCA3E029F9EA3CFA121E99FEEFC313FD91
:1055D000900FA1E075F008A4247CF582E43404F572
:1055E00083E58222EF75F008A42482F582E4340476
:1055F000F58374FFF0EF75F008A4247BF582E434A2
:1056000004F583227A0F799F7B019011CBE4F0A3FC
:1056100004F0227B017A04797BE4F0A322EF75F099
:1056200008A42482F582E43404F583222EF582E472
:105630003583F58322E49014ACF074049014ABF03D
:1056400090045E227D0AE0FEA3E0FF7C00021F586A
:10565000E0FF9014A8E075F008A4900000FEE02E92
:10566000FDE4900FB0F0227B01900FBAE4F0A304A8
:10567000F022EEC3940A7480948022EBF0A3EAF047
:10568000A3E9F022EEC3940674809480227D017B0E
:10569000FF7E007F08021E73E49014ACF074039048
:1056A00014ABF090045E22900F9FE0FF3395E0FE74
:1056B00022900FA2E0FAA3E0FB7C007D02FFAE0285
:1056C000021FADEFC394027480948022E0FDC454A5
:1056D0000F75F00AA422E0D3940074809480229085
:1056E0000FA1E0FBA3E0FAA3E022740AF0900431DA
:1056F0007401F0A37440F022EFF07E00C3940974AB
:1057000080948022EC04FF12CB39EF3395E04F22D6
:105710009014A9E0FF9014A8E09F227D017BFF7EFA
:1057200000021E737B017A05796922F0A374E0F010
:105730007FC17E03222FF582E5833EF583E0227B45
:1057400001E4900FC7F07D14229000FBE0705990A7
:1057500000D2E0701E9000D5E0701812899E740788
:105760001288FC7F3E1258E37AF279A01289347DC8
:105770000E80309000D3E012892C9000FB501774FB
:1057800001F0E49014AAF07F641258E37AF2799160
:10579000128934FD800D1288F77F5812CDFE125801
:1057A000D47D247F031266B09000FBE06401702C6E
:1057B00012CB219000FFEFF09000FB7407F09000F7
:1057C000FD7401F0A37440F07F7012CDFE12CDE0A5
:1057D0007AF279971289697D2802589F9000FBE040
:1057E0006407703F7B017A01790012AD37EF339582
:1057F000E0FEBEFF09BFFF069000FB7403F01289B4
:105800000540030258D312899E74011288FC7D342E
:105810007F4412CD6512CDE07AF279871289697DD5
:1058200024807C9000FBE0640370797B017A01792D
:105830000012B2BBEF70549000FFE0FD12B990EF80
:105840003395E0FEEFF47002EEF49000FB702674E6
:1058500004F09000FD1288FE7D327F4412CD651267
:10586000CDE07AF279821289B17F031266B090009E
:10587000D3E004F0221288F77F5812CDFE7F647EB9
:105880000012CFD11258D47D24801412899E128820
:10589000FC7D547F5612CD657AF2799B1289B17FD7
:1058A000030266B09000FBE06404700D128905509D
:1058B0002212CF6D7F0902508C9000FBE0640570CE
:1058C000129000FD74FFF5F0121FF912890F5003BA
:1058D00012CF6D2212CDE07BFF7AF279A8E4900F0F
:1058E000FAF02212CDFE12CDE022900FB9EFF0F9BE
:1058F000E0FF75F002A424BAF582E5F03413F583D5
:10590000E0FCA3E0FD75F002EFA42420F582E5F0B1
:105910003413F583E0FEA3E0C39DFFEE9C900FBA25
:10592000F0A3EFF0AF0112CF27AD07AC06900FBA8E
:10593000E0FEA3E0FFD39DEC6480F8EE6480985015
:1059400014C3E49DFBE49CFAC3EF9BEA6480F8EE89
:10595000648098502F900FB9E0FF75F002A42420C6
:10596000F582E5F03413F583E0FCA3E0FD75F00269
:10597000EFA424BAF582E5F03413F583ECF0A3ED3F
:10598000F0025A5DECA2E713FEED13FF900FBAE0B0
:10599000FAA3E0FBD39FEE6480F8EA648098501C81
:1059A000ECA2E713FEED13FFC3E49FFFE49EFEC3EA
:1059B000EB9FEE6480F8EA648098503E900FB9E067
:1059C000FD75F002A424BAF582E5F03413F583E006
:1059D000FAA3E0FBEAC313FEEB13FFC3EB9FFBEA62
:1059E0009EFA75F002EDA42420F582E5F03413F55B
:1059F00083E0C313FEA3E0138047900FB9E0FD7569
:105A0000F002A424BAF582E5F03413F583E0FAA39A
:105A1000E0FBAE027803CEC313CE13D8F9FFC3EB7D
:105A20009FFBEA9EFA75F002EDA42420F582E5F0D2
:105A30003413F583E0FEA3E07803CEC313CE13D86E
:105A4000F92BFFEA3EFE900FB9E075F002A424BAEC
:105A5000F582E5F03413F583EEF0A3EFF0900FB983
:105A6000E0FF75F002A424BAF582E5F03413F58363
:105A7000E0FCA3E0FD75F002EFA42420F582E5F040
:105A80003413F583ECF0A3EDF022901025122D3E97
:105A9000E4122D29FFFE122F96A3EFF07F007E0067
:105AA000122F967E037FE8122E2AA3EFF07C037D4F
:105AB000E87F007E00121F587E007F64122E2AA30A
:105AC000EFF07F007E00122E1FA3EFF07C007D0A16
:105AD0007F007E00121F58AC05E4A3F09010251241
:105AE0002D144A4B7002FF22901025122D141230F3
:105AF000AFFFE5F033FE74CD2FF582740A3EF583D7
:105B0000E0FFA3E0901028CFF0A3EFF0A37401F022
:105B100090102AE0FFD39406748094805033A3E061
:105B2000FEEF6E6024A3E0FF90102AE0FE6F601984
:105B300090102DE0FFEE6F6010A3E0FFEE6F6009A4
:105B4000EE6C6005A3EEF0800890102AE004F0806F
:105B5000BF901025122D14F9900001121EB2901062
:105B60002B122EA8122D14F9900001EF121F249071
:105B70000002121EB290102C122EA8122D14122FF9
:105B80002BFF90102D122EA9122D14F9900003EF67
:105B9000121F241230B9FF90102E122EA9122D14AC
:105BA000F9900004EF121F24900005121EB2FFAD01
:105BB00004122EAB122D14122F39FF90102F122E1B
:105BC000A9122D14F9900006EF121F24123042FF83
:105BD000AE04AD06122F5B122D14F9900007EF12E0
:105BE0001F24900008121EB290102E122F58122D52
:105BF00014122FD490102D122F58122D14F990003A
:105C000009EF122F22B4021F901025122D14F990C3
:105C1000000A121EB2FF90102C122F59122D14F9E7
:105C200090000AEF121F247F01227AF17959122481
:105C3000857D1CFF1266B07AF1795E1227FF7D1810
:105C40007F0312765290040F12258E7D287F031257
:105C5000872E90040E12258E7D407F0312872E9092
:105C6000040C12258E7D587F0312872E7AF17969F4
:105C70001227FF7D187F0612765290040B12258E94
:105C80007D187F0612872E90040A12258E7D307FA4
:105C90000612872E90040912258E7D487F061287F2
:105CA0002E9014A4E0700F122569700A90040F1250
:105CB00024267D2880749014A4E0640170101225BD
:105CC00069700B90040FE01224287D30805C9014E2
:105CD000A4E06402700F122569700A90040E122469
:105CE000267D4080459014A4E0640370101225695D
:105CF000700B90040EE01224287D48802D9014A48F
:105D0000E06404700F122569700A90040C122426B6
:105D10007D5880169014A4E06405701312256970F4
:105D20000E90040CE01224287D607F03025DC69073
:105D300014A4E064067011122569700C90040B1213
:105D400024267D187F06807E9014A4E064077012DC
:105D5000122569700D90040BE01224287D207F0627
:105D600080649014A4E064087011122569700C908E
:105D7000040A1224267D307F06804B9014A4E06430
:105D8000097012122569700D90040AE01224287D12
:105D9000387F0680319014A4E0640A7011122569DE
:105DA000700C9004091224267D487F0680189014F8
:105DB000A4E0640B7013122569700E900409E012C0
:105DC00024287D507F061296EF22900FB512A10174
:105DD00078BC7C0F7D017BFF7AEE79BC7E027F0070
:105DE000121E7312A11D9011C2F0A3F0900FB5E026
:105DF000FFA3E09011C4CFF0A3EFF09011C2E0FE3A
:105E0000A3E0FF900FBAE0FCA3E0FDD39FEC9E401F
:105E1000EA9011C4E05401FEA3E0FF9011BEEEF041
:105E2000A3EFF09011C3E02400FB9011C2E0340214
:105E3000CBC39FFFEB9EFED3ED9FEC9E407412A15F
:105E4000254E600612A0BD125F4B12A11012A125B3
:105E5000C3E49FFF740212A138501E12A0D970062D
:105E60009011C0E004F012A12E9011BDE004F0707A
:105E7000069011BCE004F080D4125F1D9011CB128B
:105E8000A0CC12BFE412A125C3E49FFF74029EFEC2
:105E90009011C3E02FF09011C2E03EF09011C5E0E8
:105EA0002FF09011C4E03EF07F057E0012CA1C0264
:105EB0005DFB12A125C312A0BD125F4B12A1109071
:105EC00011C2E0FEA3E0FFC3900FBBE09FFF900F65
:105ED000BAE012A138501E12A0D970069011C0E08D
:105EE00004F012A12E9011BDE004F070069011BCD8
:105EF000E004F080CA125F1D7B017A0F79BC90111B
:105F0000CB12A0D212BFE4900FBAE0FFA3E0901131
:105F1000C2CFF0A3EFF07F057E0002CA1C9011BE35
:105F2000E0FEA3E0FFC39011C5E09FFF9011C4E025
:105F30009EFE12B8199011BEE0FEA3E0FFC39011BF
:105F4000C5E09FFF9011C4E09EFE2212B9D97F01E7
