:0300000002730E7A
:03000B000290CB95
:03001300029575DE
:03001B000289B6A1
:03002300029F50E9
:0300330002A10324
:03004B000291CC53
:03005B00029336D7
:03006B0002949567
:03007B00028C678D
:03008300028BC924
:03008B00029933A4
:10010000900523E0600302070F122603901120EFF1
:10011000F0F4600312997790055FE0121ED301702E
:1001200000025901029A0202F40503280603630B38
:1001300003E60C03F40D03FF0E04290F043710042B
:100140004112045B1304681404921504B51604C824
:100150001704F21A06411B051E1C05561E06FC2636
:1001600005692706A02B05CA2C068A2D0000070F5B
:10017000901120E0FF640D6011EF641B700C90057E
:100180005F741AF09005117403F0900530E0FF647D
:1001900007600302022D12245A5033EF64076003F4
:1001A00002070F90113D04F074101222F4122591F1
:1001B000122565500E742C2E122329900C2BE0046E
:1001C000F080ED9005307408F07F0102974812230B
:1001D000A570217F0112974890019D1223AFBEFFA9
:1001E00006BFFF03E4F022E4900528F0A3F0900599
:1001F0002D04F022901120E0640B600302070F90A1
:10020000019D1222C770137F0112974890055F74F9
:100210001EF0E49004551225B0221299BA900526DA
:10022000E4F0A37496F090055F741FF02290112003
:10023000E0FFF4700302070FEF640C700302070F76
:100240001225B1900530E06409600302070F7F01B9
:100250001297481225D402056112241D700302046E
:100260002312242470030204EC122572700302048A
:100270008C901120E0640470030205501223A560E5
:100280000302070F1207B91223167F60129FAA7F7D
:10029000647E0012A14CE402069B901120E0FF64F2
:1002A00001600AEF64026005EF64037004E4120762
:1002B000B912241D700E120710E490055DF0900530
:1002C0005F020355122424700E120710E490055D9E
:1002D000F090055F02047F122572700D12071D1247
:1002E00025A990055F740EF0221223A56003020772
:1002F0000F0203E012241D700F12071D90055F749A
:1003000012F0E490016FF022122424701012072AD8
:1003100090055F7414F0900515740AF0221223A55D
:10032000600302070F0203E012241D700912072A5E
:1003300012250F04F0221224247009120737122507
:100340000F020686122572701012073790055F742F
:1003500017F0900665740FF0221223A560030207C0
:100360000F807D12241D700A12074490055F741CD3
:10037000800D122424700C12074490055F742CF039
:10038000E4802B122572701012075190055F7427BC
:10039000F0E49005F1F08016901120E064047018EC
:1003A00012075190055F741BF0E490063FF0901126
:1003B00029F0901128020510901120E064057018B2
:1003C00012075E90055F741AF0E4900511F0901129
:1003D00029F09011280206861223A5600302070F58
:1003E00012075E029FC690055DE06401600302078C
:1003F0000F0204C0122539600302070F0204C090E7
:100400000662E06408600302070F122505700B9076
:100410000663F09006627409F022EF640A4E6003EE
:1004200002070F12076B02A0EE90055DE064016009
:100430000302070F0204C0122539600302070F8070
:100440007F90016FE064017008901120E0FF12823C
:100450001D1223A5600302070F80319001E1E064C3
:1004600001600302070F8058900515E0640B6003DC
:1004700002070F122505700B900516F090051574F4
:100480000CF022EF640A4E600302070F12076B02A2
:10049000A0FC900560E0640170028024900560E09B
:1004A00064037003020561900560E0640460030268
:1004B000070F020561900577E06401600302070FF2
:1004C000901120E0FF02821D900665E06410600339
:1004D00002070F122505700B900666F090066574F2
:1004E00011F022EF640A4E600302070F1207780230
:1004F000A0F5900511E06401600302070F90112040
:10050000E0640B700F120778E4900512F09005116B
:100510007403F0221223A5600302070F8032122415
:100520001D700D7AA9791C120785E49001EB8011EA
:1005300012242470137AA9791F1207859001EB7495
:10054000FFF01292BF02063E1223A5600302070FBE
:1005500012079202063E900455E064016003020710
:100560000F901120E0FF0206F99005F1E0640160B0
:100570000302070F12241D70139000F8F09005F18C
:100580007402F07BFF7AA9794602065B122424707C
:10059000289000F804F09005F104F0128FC4EF33B6
:1005A00095E04F70087F7A129FAA0207087BFF7AB6
:1005B000A9794912910C0207081223A560030207CA
:1005C0000F1207929005F102068612241D701A90F0
:1005D00000F91223AFBEFF08BFFF05E4F0129B79BC
:1005E0007AA9793412079F8055122424704590000F
:1005F000F91222C7703474FFF0E4900519F0A3F0EB
:1006000090051DF0A3F01297A6EF2412FEE433909C
:10061000051BF0A3CEF090051FE4F0A37408F09042
:1006200005237402F0E4900522F07AA979371207C5
:100630009F800B1223A5600302070F1207AC029FD5
:10064000D490063FE06401600302070F12241D707E
:10065000109006401225EF7AA9795B12910C0207DF
:1006600008122424701290064074FF1225EF7AA914
:10067000795E12910C0207081223A5600302070F8E
:100680001207AC90063F7402F022901120E0FF6444
:100690000B6005EF640A707712231690055FF02255
:1006A000900530E0FF6407703812245A502FEF6431
:1006B00007705C90113D04F090113C74101222F709
:1006C000122591122565500E742C2E122329900CA0
:1006D0002BE004F080ED9005307408F0221223A581
:1006E00022901120E0FFF46026900530E06409704C
:1006F0001E900532F0A374F0F0027A0D901120E004
:10070000F4600C7F30129FAA7F647E0012A14C22FD
:100710007F011297487F647E0012A14C227F011254
:1007200097487F647E0012A14C227F011297487F78
:10073000647E0012A14C227F011297487F647E00E4
:1007400012A14C227F011297487F647E0012A14CB7
:10075000227F011297487F647E0012A14C227F0104
:100760001297487F647E0012A14C227F01129748A5
:100770007F647E0012A14C227F011297487F647E25
:100780000012A14C227BFF12910C7F647E0012A10B
:100790004C227F011297487F647E0012A14C227B7D
:1007A000FF12910C7F647E0012A14C227F011297F0
:1007B000487F647E0012A14C229001F3F07F011269
:1007C0007CC222900C46EFF0E4900C4EF0900C4668
:1007D000E0FF25E02424F8E6FC08E6FD75F002EFD2
:1007E000A4241FF582E5F03410F583E0FEA3E0C3F6
:1007F0009DFFEE9C900C47F0A3EFF0E47F01FEFD1F
:10080000FC900C46E0F9F8121E428F0F8E0E8D0DF3
:100810008C0CAF0112A0AF900C4CEEF0A3EFF0C324
:10082000900C48E09FEE6480F8900C47E06480985C
:100830004008900C497401F08005E4900C49F09058
:100840000C49E064016003020A3F900C46E0FF247B
:1008500037F582E43410F583E0C394FA7480948011
:10086000500D74372FF582E43410F583E004F0E581
:100870000B550FFFE50A550EFEE509550DFDE50880
:10088000550CFCE4FBFAF9F8C3121E1E6003020AC1
:1008900005901003E0900C4BF012A13AEF6047E492
:1008A000900C49F0A3F0900C4AE0FFC39510502241
:1008B00074372FF582E43410F583E0C3940174801B
:1008C00094804006900C49E004F0900C4AE004F05B
:1008D00080D4900C49E0C3940374809480400790C6
:1008E0000C4BE0240FF0900C46E02437F582E43402
:1008F00010F583E0FF900C4BE0FEEFC39E50030227
:100900000A05E4900C49F012A08FEF6003020992EF
:10091000900C4AF0900C4AE0FFC39510502C900CBC
:1009200046E06F601D12A034900C4AE02437F58237
:10093000E43410F583E0C39F4008900C497401F043
:100940008008900C4AE004F080CA12A13AEF339577
:10095000E04F60030209E3900C49E060030209E301
:10096000A3F0900C4AE0FFC395105077900C46E03E
:100970006F601712A034900C4AE02443F582E434EF
:1009800010F583E0C39F40028053900C4AE004F0CE
:1009900080D012A13AEF3395E04F7047900C4BF0A6
:1009A000900C4AF0900C4AE0FFC395105022743727
:1009B0002FF582E43410F583E0C3940274809480B0
:1009C0004006900C4BE004F0900C4AE004F080D418
:1009D000900C4BE0C39403748094804006900C49C3
:1009E0007401F0900C49E064017002D216E50B45E9
:1009F0000FF50BE50A450EF50AE509450DF509E584
:100A000008450CF508900C46E0FF2475F582E434A7
:100A100010F583E4F074D12FF582E43410F583E40B
:100A2000F075F002EFA4245DF582E5F03410F58353
:100A3000E4F0A3F074062FF582E43410020DCE909A
:100A40000C46E0FF129DB1900C47E0FCA3E0FDD303
:100A50009FEE6480F8EC6480984012900C46E0248D
:100A600043F582E43410F583E004F080159011A77B
:100A7000E004F0900C46E02443F582E43410F58362
:100A8000E4F09010B8E0FF3395E0FEC3E49FFBE490
:100A90009EFAC3ED9BEA6480F8EC648098500302F0
:100AA0000B97D3900C48E09FEE6480F8900C47E0E1
:100AB0006480984003020B97900C46E0FF2475F584
:100AC00082E43410F583E4F074062FF582E43410E8
:100AD000F583E4F0FFFEFDFCAB0BAA0AA909A80808
:100AE000C3121E1E6003020CD3900C47E0FEA3E06D
:100AF000FF900C46E075F002A4245DF582E5F03429
:100B000010F583EE8FF0121C4412A013900C46E0F7
:100B100075F002A4245DF582E5F03410F583E0FC65
:100B2000A3E0C39FEE6480F8EC6480984013900CBF
:100B300046E0FF25E02424F80806E6187043068006
:100B40004012A013C3E49FFFE49EFE900C46E075A4
:100B5000F002A4245DF582E5F03410F583E0FCA3F7
:100B6000E0C39FEE6480F8EC6480984003020CD3ED
:100B7000900C46E0FF25E02424F808E616187001E2
:100B80001675F002EFA4245DF582E5F03410F583CC
:100B9000E4F0A3F0020CD39010B8E0FF3395E0FE30
:100BA000C3E49FFFE49EFEC3900C48E09FEE648088
:100BB000F8900C47E06480984003020C49900C4682
:100BC000E0FF2475F582E43410F583E004F0740648
:100BD0002FF582E43410F583E4F074752FF582E488
:100BE0003410F583E0FF75F00A84E5F07046C3EF3A
:100BF000946474809480900C46E040142475F582CF
:100C0000E43410F583E4F0D2179010DD04F0802472
:100C100025E02424F8C000E6FE08E6FF9010B8E0C6
:100C2000A2E713FD3395E0FCC3EF9DFFEE9CD000DF
:100C3000F608A607900C46E0FF9011A0E06F600355
:100C4000020CD374FFF0020CD39010B8E0FF339580
:100C5000E0FED3900C48E09FEE6480F8900C47E0F3
:100C6000648098406E900C46E02475F582E4341060
:100C7000F583E4F0FFFEFDFCAB0BAA0AA909A80866
:100C8000C3121E1E704D900C46E0FF2406F582E450
:100C90003410F583E004F074062FF582E43410F587
:100CA00083E06420702D900C46E0FF2406F582E47A
:100CB0003410F583E4F09010B8E0A2E713A2E71334
:100CC000FD3395E0FCEF25E02424F808ED26F61826
:100CD000EC36F6E50B550FFFE50A550EFEE5095516
:100CE0000DFDE508550C4D4E4F7003020DE4900CC0
:100CF0004CE0FCA3E0FDAE047802CEA2E713CE13D5
:100D0000D8F8FFC3ED9FFFEC9EFEC3900C48E09F18
:100D1000EE6480F8900C47E06480984003020DD3A5
:100D2000900C46E024D1F582E43410F583E004F021
:100D300012A097900C4BEFF0E4900C4AF0900C4A04
:100D4000E0FFC39510502274372FF582E43410F57C
:100D500083E0C39401748094804006900C49E004C1
:100D6000F0900C4AE004F080D4900C49E0C3940366
:100D7000748094804008901003E0900C4BF0900C2D
:100D800046E0FB24D1F582E43410F583E0FF900CBB
:100D90004BE0FEEFC39E5003020E5374D12BF5823D
:100DA000E43410F583E4F0AF0FAE0EAD0DAC0C12D1
:100DB0001E11E50B5FF50BE50A5EF50AE5095DF529
:100DC00009E5085CF50874372BF582E43410F583E7
:100DD000E4F022900C46E024D1F582E43410F5834F
:100DE000E014F022900C46E02437F582E43410F54C
:100DF00083E4F0FFFEFDFCAB0BAA0AA909A808C317
:100E0000121E1E7008900C46E0FF12726FE510145F
:100E1000FF900C46E06F703B9011A7E0C395104027
:100E200032E4900C4AF0900C4AE0FFC39510501B3E
:100E300074372FF582E43410F583E06006900C4996
:100E40007401F0900C4AE004F080DB900C49E070F3
:100E500002C216224411AF000000004211B300008C
:100E6000C114C115C10FC10CC10DC10EC110C111FA
:100E7000C112C1134111C8024111C9004110DD0066
:100E8000C103C102C100C101C10401540041101ECF
:100E90000042105B00004111A500C1184111CC00B7
:100EA000C119C11AC109C106C10AC107C10BC108D4
:100EB0004111AE004411580000000058114000409C
:100EC0004000800000042000100000080100040021
:100ED0000010008000204610E0FFFFFFFFFFFF64CE
:100EE00000082400000000000000000000000000D6
:100EF00000000000000000000000000000000000F2
:100F000000000000000000000000000000000000E1
:100F100000000000000000000000000000000000D1
:100F200000000000000000000000000000000000C1
:1012E00000000056115C736C5F67656E6572696320
:1012F0005F76312E302E302E30303700421185008F
:1013000000411172004211BF00004C11881F1C1FC8
:101310001E1F1E1F1F1E1F1E1F411120FFC11B412C
:10132000119E004A119411223300000000000000B9
:1013300061310ED2000000008080800000000000BB
:1013400000000000000000000080C0E0F0F8F8F8A5
:10135000FCFCFCFCFCF8F8F8F0E0C08000000000A9
:1013600000000000000000000000808080000000FD
:101370000080F07C0F03C1F03C0E82E07818000082
:101380000000C0F0FCFFFFFFFFFFFFFFFFFFFFFFBC
:10139000FFFFFFFFFFFFFFFFFFFFFCF8C0000000A3
:1013A000001878E0820E3CF0C1010F7EF080031F30
:1013B000FCE000071F78E0830F3C300000C0FCFF1A
:1013C000FFFFFFFFFFFFFFFFFFFFFFFFFFFFFFFF2D
:1013D000FFFFFFFFFFFFFFFFFFFFFCE00000303CCF
:1013E0000F83E0781F0780E07C1F030000000103EB
:1013F00003020000000000F0FCFF9F0F070303033F
:10140000010101013078FCFCFCFCFCFCFC783001A3
:10141000010101030303070F9FFFFCF00000000020
:1014200000020303010000000000000000000000B3
:1014300000000000000307070F0E1C1C3C38383862
:101440007070707070707070707070707038383844
:10145000381C1C1E0F0707030000000000000000DE
:10146000000000000000900042E4121CC7900CB580
:10147000E0FBA3E0FAA3E0900CC0F9E0FEA3E0F5E6
:10148000828E83121B46FF900CB2E0FBA3E0FAA30E
:10149000E0F9229000FC75F01DED121EC7EC75F00E
:1014A0001DA42583F58322E4F0A3F0A3F0A3F0A309
:1014B000F0A3F0A3F0A3F0A3F0A3F022900CA2E01D
:1014C000FEA3E0FF7C007D1D121BA7900CB97406E3
:1014D0002FF974013EFA7B01E4F0A322900CA2E004
:1014E000FEA3E0FF7C007D1D121BA7900CB97409C0
:1014F0002FF974013EFA7B01E4F0A3227D1D121B3B
:10150000A7900CB974FB2FF974003EFA7B01E4F04C
:10151000A3227D1D121BA7900CB974FF2FF9740034
:101520003EFA7B01E4F0A3227D1D121BA7900CB9AB
:1015300074032FF974013EFA7B01E4F0A322900CAE
:10154000A2E0FEA3E0FF7C007D1D121BA774352FD7
:10155000F97401900CB93EFA7B01E4F0A322900EDD
:10156000CAE47B017A017918F0A322900CA2E0FE74
:10157000A3E0FF7C007D1D021BA77B017A0179435C
:10158000E4F0A3227B017A017960E4F0A3227B01DD
:101590007A01793DE4F0A3227B017A01795AE4F0E3
:1015A000A322E47B017A017945F0A322E0F9A3E0CC
:1015B000FAA3E0900CAEC9F0A3EAF0A3E9F0229000
:1015C0000001121B46FF900028E48FF0121CC79008
:1015D0000002121B46FF90002AE48FF0121CC790F5
:1015E0000003121B46FF90002CE48FF0121CC790E2
:1015F0000004121B4690002EFFE48FF0021CC7E48B
:101600007B017A017962F0A322EFF0AF037C007DC9
:1016100064AE02121BB97F0A7E00CFCDCFCECCCEF6
:10162000021BB9E47B017A0079FBF0A32290001041
:10163000E475F001121CC7900CACE4F0A304F09028
:101640000CA4E0FCA3E0FD7F017E0022E47B017A94
:101650000079FFF0A322E47A0179067B01F0A374FC
:1016600003F022E0FBA3E0FAA3E04A4B22E47B0173
:101670007A01791CF0A322E47B017A017923F0A39B
:1016800022E47B017A017909F0A322900CB8E0FEF4
:10169000A3E0900CBCFFE0FCA3E0FD22E47B017A18
:1016A000017926F0A322E47B017A017903F0A322D9
:1016B00075F00AA42DFFE5F03CFE121B467C002FBE
:1016C000FFEC3E9000158FF0121CC7900044121CD6
:1016D00070640145F022E47B017A017920F0A322B5
:1016E000900CA2E0FEA3E0FF64014E22EEF0A3EF17
:1016F000F0E4A3F0A3F0EF4E22121B46FF7E007C25
:10170000037DE8121BA7AC06AD07227C002FFFEC7F
:101710003EFEF0A3EFF022CFF0A3EFF07B017A0CB6
:10172000795522FF121B46FD12A06CAE07900C9E4D
:1017300022EEF0A3EFF0900CA4E0FEA3E0FF2294D1
:1017400000CF2401FBE43FFAE0FEA3E0FF7C00228F
:101750007B01900ECAE4F0A322FFE0FD129F8C9063
:101760000C9E22121B46FFAD06129F8C900C9E22EF
:1017700075F00AA42DFFE5F03CFE75F01DEB121E7E
:10178000C7EA2290000E021C70900CBCE0FEA3E0A1
:10179000FFC322121B4675F064A42DFDEC35F0FC4E
:1017A00022900CB9E024FFFE900CB8E0900CBC3401
:1017B000FFF0A3CEF022900CC4E0FEA3E0FFED6F9B
:1017C00022900005EF121B85900006021B467B014C
:1017D000900CB9F0A37404F022900002EF121B8564
:1017E000900003021B46900008EF121B8590000931
:1017F000021B46900C43E0F9A3E0FAA3E022E0FECE
:10180000A3E0FFF5828E83021B46E0FCA3E0F58295
:101810008C83EF021B85FFE0FD12A06C900CCE22A2
:10182000FFE0FCA3E0FDC39FEC227C002FFFEC3E19
:10183000FEF0A3EFF022900017121C70FFC3900C73
:10184000ADE09F900CACE095F0228D828C83121B52
:1018500046FF22E4F0A3F0A3F022EFF0900007028D
:101860001B467D0A121BB9AF05AE04AD03AC0202E4
:101870001BB9F0900008021B46F0900005021B46C1
:10188000FB75F01D121EC7EA22900010E475F001EE
:10189000121CC7900CADE004F022900012021B460F
:1018A000900013021C70A3ECF0A3EDF0227C277DC6
:1018B00010021BB97403F07F37FE227404F07FA678
:1018C0007E03227404F07F327E03227404F07F4290
:1018D0007E03227402F07F3F7E03227402F07F4F6A
:1018E0007E0322FC7D1D021BA7900015021C709038
:1018F0000C46E0FFA3E0900CA2CFF0A3EFF0227D16
:10190000017BFF7E00021B07900003EF121B8590F6
:101910000004121B46FF22900CBDE024FFF0900C47
:10192000BCE034FFF022900001EF121B8590000212
:10193000021B46F090000A021B46900017121C7012
:10194000FF900CB0E065F022FFE0FD12A06C900C5F
:101950009E22E4F0A3F0A3F0227403F07F4BFE225A
:101960007403F07F47FE22900CA2FFE0FCA3E0FD91
:101970002275F064A42BFFE5F03AFEA3E02290006C
:1019800010E4F5F022E0FBA3E0FAA3E0227C007D66
:101990000A021BB9740CF07F737E0322740CF07F73
:1019A000857E03227404F07FA07E0322EFF0900076
:1019B0000C021B46900CB2E0FCA3E022A3F0A3743F
:1019C00001F0A322FF900CB1E5F0F0A3EFF0227438
:1019D000FF2DF58274FF3CF58322F58274FF3EF5FE
:1019E00083021B46900CC0E0FCA3E0FDEF6D2224B7
:1019F000FFF58274FF35F0F583227B01900CB9F07E
:101A0000A37403F022A3F0A3F0900CB9227B019001
:101A10000CB9E4F0A304F022F090000B021B46EF97
:101A2000121B857F0122F58374FFF00F22FFAEF0B9
:101A3000C39410EE942722E709F608DFFA8046E700
:101A400009F208DFFA803E88828C83E709F0A3DF81
:101A5000FA8032E309F608DFFA8078E309F208DF5A
:101A6000FA807088828C83E309F0A3DFFA806489AE
:101A7000828A83E0A3F608DFFA805889828A83E0AD
:101A8000A3F208DFFA804C80D280FA80C680D4802E
:101A90006980F28033801080A680EA809A80A880D6
:101AA000DA80E280CA803389828A83ECFAE493A3E5
:101AB000C8C582C8CCC583CCF0A3C8C582C8CCC574
:101AC00083CCDFE9DEE7800D89828A83E493A3F685
:101AD00008DFF9ECFAA9F0EDFB2289828A83ECFA9F
:101AE000E0A3C8C582C8CCC583CCF0A3C8C582C852
:101AF000CCC583CCDFEADEE880DB89828A83E4938D
:101B0000A3F208DFF980CC88F0EF60010E4E60C3CD
:101B100088F0ED2402B4040050B9F582EB2402B43D
:101B2000040050AF2323458223901A8773BB01061C
:101B300089828A83E0225002E722BBFE02E32289E7
:101B4000828A83E49322BB010CE58229F582E58336
:101B50003AF583E0225006E92582F8E622BBFE062C
:101B6000E92582F8E222E58229F582E5833AF583C8
:101B7000E49322BB010689828A83F0225002F72275
:101B8000BBFE01F322F8BB010DE58229F582E58356
:101B90003AF583E8F0225006E92582C8F622BBFE1A
:101BA00005E92582C8F222EF8DF0A4A8F0CF8CF0D1
:101BB000A428CE8DF0A42EFE22BC000BBE0029EF7F
:101BC0008DF084FFADF022E4CCF875F008EF2FFF24
:101BD000EE33FEEC33FCEE9DEC984005FCEE9DFEF2
:101BE0000FD5F0E9E4CEFD22EDF8F5F0EE8420D239
:101BF0001CFEADF075F008EF2FFFED33FD400798A8
:101C00005006D5F0F222C398FD0FD5F0EA22C2D5D6
:101C1000EC30E709B2D5E4C39DFDE49CFCEE30E76F
:101C200015B2D5E4C39FFFE49EFE121BB9C3E49D29
:101C3000FDE49CFC8003121BB930D507C3E49FFF71
:101C4000E49EFE22C5F0F8A3E028F0C5F0F8E58296
:101C5000158270021583E038F022A3F8E0C5F02564
:101C6000F0F0E582158270021583E0C838F0E822B2
:101C7000BB0110E58229F582E5833AF583E0F5F0B2
:101C8000A3E0225009E92582F886F008E622BBFE8F
:101C90000AE92582F8E2F5F008E222E5832AF583D5
:101CA000E993F5F0A3E99322BB010A89828A83F0C4
:101CB000E5F0A3F0225006F709A7F01922BBFE06B3
:101CC000F3E5F009F31922F8BB0111E58229F58249
:101CD000E5833AF583E8F0E5F0A3F0225009E92521
:101CE00082C8F608A6F022BBFE09E92582C8F2E503
:101CF000F008F222E88FF0A4CC8BF0A42CFCE98E43
:101D0000F0A42CFC8AF0EDA42CFCEA8EF0A4CDA863
:101D1000F08BF0A42DCC3825F0FDE98FF0A42CCD6C
:101D200035F0FCEB8EF0A4FEA9F0EB8FF0A4CFC54C
:101D3000F02ECD39FEE43CFCEAA42DCE35F0FDE4D6
:101D40003CFC2275F008758200EF2FFFEE33FECDCC
:101D500033CDCC33CCC58233C5829BED9AEC99E56B
:101D60008298400CF582EE9BFEED9AFDEC99FC0FFB
:101D7000D5F0D6E4CEFBE4CDFAE4CCF9A88222B8C3
:101D800000C1B90059BA002DEC8BF084CFCECDFC48
:101D9000E5F0CBF97818EF2FFFEE33FEED33FDECD5
:101DA00033FCEB33FB10D703994004EB99FB0FD8BE
:101DB000E5E4F9FA227818EF2FFFEE33FEED33FD5C
:101DC000EC33FCC933C910D7059BE99A4007EC9B5B
:101DD000FCE99AF90FD8E0E4C9FAE4CCFB2275F0EB
:101DE00010EF2FFFEE33FEED33FDCC33CCC833C8FC
:101DF00010D7079BEC9AE899400AED9BFDEC9AFC02
:101E0000E899F80FD5F0DAE4CDFBE4CCFAE4C8F9B0
:101E100022CFF4CFCEF4CECDF4CDCCF4CC22EB9FB8
:101E2000F5F0EA9E42F0E99D42F0E89C45F022E898
:101E3000600FECC313FCED13FDEE13FEEF13FFD8A0
:101E4000F122E8600FEFC333FFEE33FEED33FDEC1C
:101E500033FCD8F1227401FF3395E0FEFDFCA3A30F
:101E6000A3E0CF2FF0E582158270021583E0CE3E0D
:101E7000F0E582158270021583E0CD3DF0E5821514
:101E80008270021583E0CC3CF022ECF0A3EDF0A3CD
:101E9000EEF0A3EFF022A8828583F0D083D08212E7
:101EA0001EAD121EAD121EAD121EADE473E493A35F
:101EB000C583C5F0C583C8C582C8F0A3C583C5F076
:101EC000C583C8C582C822A42582F582E5F0358382
:101ED000F58322D083D082F8E4937012740193705A
:101EE0000DA3A393F8740193F5828883E4737402BD
:101EF000936860EFA3A3A380DFEC8EF0A4CCC5F0C1
:101F0000CCCDF8EFA4CEC5F02DFDE43CFCE8A42E2A
:101F1000C8C5F03DFDE43CFCEFA4FFE5F028FEE47D
:101F20003DFDE43CFC22900CB2EB1215B7E4900CA2
:101F3000BA1214B4900CB8E0FCA3E0FD900CBEEC17
:101F4000F0A3EDF01214871218A025E0FBE5F033A2
:101F5000FAED24FAFFEC34FFFE7C007D05121BB97C
:101F600090A16075F0C8ED121EC7EC75F0C8A425ED
:101F700083F583E5822BF582E5833AF583E493FECE
:101F8000740193FBAA067C007D64FF121BB9900CC0
:101F9000C0EEF0A3121609A3EEF0A3EFF0AE02AF6D
:101FA0000312198D1218A6E41214B3900CB8E0FCB9
:101FB000A3E0FD24F5FEEC34FF900CCAF0A3CEF0B4
:101FC000900CB21216637002FF221214871218A02E
:101FD000FFAEF0D39400EE94004008EF9464EE94CA
:101FE0000040037F0022900CBE12178C9406EE94E2
:101FF000004009D3EF940CEE940040037F0022C010
:1020000002C001900CB51217F6900CD11215B61241
:1020100018A6D001D002126915900CCA12178CEEC6
:102020009400405BD3EF9402EE94005052900CC1A8
:10203000E09F900CC0E09E500CA3E0240AF0900CAE
:10204000C0E03400F0D3900CC3E09F900CC2E09E3F
:10205000500CA3E0240AF0900CC2E03400F0900C85
:10206000CAE0FEA3E0FFD3900CC5E09F900CC4E053
:102070009E500CA3E0240AF0900CC4E03400F090D1
:102080000CBCE4F0A304F012168BD39FEC9E5035E9
:10209000900CC01217B97002EC6E6019A31217B938
:1020A0007002EC6E600FA31217B97002EC6E60053F
:1020B0001218A68010900CBDE004F070CA900CBC01
:1020C000E004F080C2E4900CBCF0A3F012168BC3C5
:1020D0009FEC9E5026900CB512148A12184A900C50
:1020E000BBE02FF0900CBAE03400F0900CBDE0049F
:1020F000F070D9900CBCE004F080D1121487121853
:102100009A640660030221E7900CCCF0A3F012174A
:10211000A1121789EE940040361219E47002EE6C99
:102120006028A312168E6F7002EC6E601D1217B637
:102130007002EC6E6014A31217B97002EC6E600AA4
:10214000900CCCECF0A3EDF0800512191780C212B0
:1021500014871215BF12187A9000301215F875F016
:1021600005121466900028121C706F7002E5F06072
:10217000030222A7900CB5121985900CC212147A92
:1021800090002A121C706F7002E5F060030222A713
:10219000900CB512148A900CC412147B90002C126F
:1021A0001C706F7002E5F060030222A7900CB5125C
:1021B000148A900CC612147B90002E121C706F7043
:1021C00002E5F060030222A7900CB512148A900C6D
:1021D000CC12147B900030121C706F7002E5F0601E
:1021E000030222A702228A12148712189A64076037
:1021F000030222921217A1121789EE9400402712AF
:1022000019E47002EE6C6019A312168E6F7002EC66
:102210006E600E1217B67002EC6E60051218A68082
:102220000512191780D11214871215BF75F0041208
:102230001466900028121C706F7002E5F0706890B0
:102240000CB512148A900CC212147B90002A121C36
:10225000706F7002E5F0704F900CB512148A900CFC
:10226000C412147B90002C121C706F7002E5F07089
:1022700036900CB512148A900CC612147B90002E66
:10228000121C70B50721E4B5F01D90004475F001F3
:102290008012121487900042E4F5F0121CC79000DF
:1022A00044E4F5F0121CC71214871216CB7F00709D
:1022B000027F012290055CE0FF14F0EFC3940174EB
:1022C0008094802290063BE0FF3395E0FEEF4E22A3
:1022D000E490055FF09005307407F0E49001F4F0AD
:1022E0009005F47407F0227404900560F0E49011F6
:1022F0003DF0740C90113CF090113E7401F022748A
:102300000E900575F0900574748022901128E0FFFE
:10231000A3E0FEC39F229005307407F09005F4F00F
:10232000E49001F4F022742C2FF582E43411F5834B
:1023300074FFF022FF24FCF58274FF3EF583ECF07D
:10234000A3EDF074FE2FF58274FF3EF5837401F067
:1023500074FF2FF58274FF3EF5832290082274FFEC
:10236000F5F0121C44FCC3E5F09401EC94002290BB
:1023700000F7E0FF7E00D394007480948022E4F0A4
:1023800090055F7423F09000F5E4F0A37480F022D0
:1023900090055D740CF0900468E090055EF0900587
:1023A0005C7480F022901120E0640A229000EFE03B
:1023B000FF3395E0FE22900573E024FFFF90057245
:1023C000E034FFFE22900C2BE0FFC3940C74809449
:1023D0008022901129E004F0229005627402F0A39B
:1023E0007480F090056BE0640122F09000C8E4F086
:1023F000A3F0A3F02290081DF0900822E4F0A3744B
:1024000040F022E49000CCF0A3742BF0A374F2F01F
:10241000229000CBC3E09405748094802290112018
:10242000E0640122901120E0640222FF24FCF58286
:1024300074FF3EF58374FFF0A3F074FE2FF58274F1
:10244000FF3EF583E42290056274FFF5F0121C5AFA
:10245000FEC3E5F09401EE940022901120E0FDC34C
:10246000940A748094802204F0E4901127F0229062
:102470001127E0FF7E00640222F0A37401F07BFFCD
:102480007AA97969229005607413F0A3229005114E
:10249000F09005137440F0E422E0C3940474809437
:1024A00080227E0090055AEEF0A3EFF024FFFFEEAD
:1024B00034FFFE22900575740EF0A3740CF0E42234
:1024C000F0A37403F0A37480F07D347F4822901150
:1024D00023E0FCA3E0FD900572ECF0A3EDF022E018
:1024E00004F090055AE0FCA3E0FDAE0478022290CF
:1024F0000574E014F022900C2BE004F02290081DEB
:10250000E0FF7E0022901120E0FF7E00640B22900D
:10251000055F7415F0E4900560F090056B22900063
:10252000F8E06401229005307407F0227403F0E4AF
:10253000900467F0901127F022900575E064012265
:10254000900000F0A3F0229005EEE0640122E01478
:10255000F0900572E0FEA3E0780222A3740EF090E2
:1025600005F074262290113CE0FF900C2BE0FEC396
:102570009F22901120E0640322E024FFF09000F5F8
:10258000E034FFF0229005757402F0E490063CF010
:102590002290112CEDF0900C2B7401F0229005622A
:1025A0007402F0A37480F022F09006627411F0229D
:1025B000F090019D74FFF02290055FF07F0122F002
:1025C000E49005EEF0227B017A11792C2290057BB4
:1025D000E0640122900532E4F0A374F0F0227B0362
:1025E0007D037F0322E49000EDF0A3F0A3F022F03E
:1025F00090063F7402F07BFF22E4900C2AF0900CCE
:1026000029F022128B20900C2C121E8A128F5460FB
:1026100007128F6BA3121E8AC390052BE0942090A3
:10262000052AE0940050037FFF22301B0A128F54CA
:102630007002C21B7FFF22128F6B12511520C2073E
:10264000E490117FF0800690117F74FFF0128F3CB0
:102650007009901184E07003022758901174128F52
:102660003F700B901184E0640170030227679011A2
:1026700075128F3F700B901184E064027003022783
:1026800077901176128F3F700B901184E064037085
:1026900003022788901177128F3F700B901184E00E
:1026A00064047003022799901178128F3F700B9089
:1026B0001184E0640570030227AA901179128F3FFC
:1026C000700B901184E0640670030227BB90117AAE
:1026D000128F3F700B901184E0640770030227CBC8
:1026E00090117B128F3F700B901184E0640870038F
:1026F0000227DB90117C128F3F700B901184E064F5
:102700000970030227EB90117D128F3F700B90111F
:1027100084E0640B70030227FB90117E128F3F70E0
:102720000B901184E0640A700302280B90117F1251
:102730008F3F700B901184E0640D700302281B9092
:102740001183128F3F700CA3E0640C700690118708
:1027500002282E128F3C7007901187F002283690C5
:102760001174128F3F700890118704F00228369080
:102770001175128F3F70099011877402F00228368C
:10278000901176128F3F70099011877403F0022820
:1027900036901177128F3F70099011877404F00200
:1027A0002836901178128F3F70099011877405F0C8
:1027B000022836901179128F3F70089011877406A5
:1027C000F0807390117A128F3F7008901187740710
:1027D000F0806390117B128F3F700890118774080E
:1027E000F0805390117C128F3F700890118774090C
:1027F000F0804390117D128F3F7008901187740B09
:10280000F0803390117E128F3F7008901187740A08
:10281000F0802390117F128F3F7008901187740D04
:10282000F08013901183128F3F9011877005740C04
:10283000F0800374FFF0901187E0FF900661F0F4E0
:1028400070030228C6901184E0FD901187E0FC6DB2
:102850006015EF640D900C346004ECF0800374FF9D
:10286000F0901184EC8079D3901186E094C090119F
:1028700085E09400500FA3E004F07006901185E00D
:1028800004F0128F7A901185E0FEA3E0FFD39460EC
:10289000EE9400402CEF94C0EE9400400EA3E06450
:1028A0000D7008900C34741BF08003128F7A901115
:1028B00072E004F0D3947F748094804029E4F08027
:1028C00025128F7A8020901184E0FF640D900C34E3
:1028D0007004EFF0800374FFF0901187E090118492
:1028E000F0E4A3F0A3F0900C34E0FF227A017935F4
:1028F0001217507404F07FAD7E03128D9490013551
:10290000E0F4600FA3E0F4600AA3E0F46005A3E044
:10291000F47017E49001351214B4900CB912162417
:102920007404F07FAD7E031245BF12155E7404F08F
:102930007FB47E03128D94900152E0F4600FA3E007
:10294000F4600AA3E0F46005A3E0F47015E49001DC
:10295000521214B47A0179521217CE7FB47E031248
:1029600045BF7A0179391217507404F07F527E0303
:10297000128D94900139E0F4600FA3E0F4600AA393
:10298000E0F46005A3E0F47015E49001391214B48A
:102990007A0179391217CE7F527E031245BF7B012F
:1029A0007A0179561217527404F07F627E03128DF9
:1029B00094900156E0F4600FA3E0F4600AA3E0F401
:1029C0006005A3E0F47017E49001561214B47B0183
:1029D0007A0179561217D07F627E031245BF7B01C0
:1029E0007A0179401217527403F07F5BFE128D94C6
:1029F000900140E0F4600AA3E0F46005A3E0F47005
:102A0000139001401218537A0179401219FA7F5B32
:102A1000FE1245BF7B017A01795D1217527403F0F3
:102A20007F6BFE128D9490015DE0F4600AA3E0F4E8
:102A30006005A3E0F4701390015D1218537A0179D8
:102A40005D1219FA7F6BFE1245BF900ECA12157AFD
:102A50007402F07F5F7E03128D94900143E0F46076
:102A600005A3E0F47010900CB912157A7402F07F8F
:102A70005F7E031245BF900ECA1215847402F07F68
:102A80006F7E03128D94900160E0F46005A3E0F482
:102A90007010900CB91215847402F07F6F7E0312CF
:102AA00045BF900ECA12158E1218B4128D94900163
:102AB0003DE0F4600AA3E0F46005A3E0F4700F9039
:102AC0000CB912158E7403F07F57FE1245BF900E9D
:102AD000CA1215987403F07F67FE128D9490015A04
:102AE000E0F4600AA3E0F46005A3E0F4700F900C3A
:102AF000B91215987403F07F67FE1245BF900ECA95
:102B00001215A2121994128D94900145E0F46037C9
:102B1000A3E0F46032A3E0F4602DA3E0F46028A306
:102B2000E0F46023A3E0F4601EA3E0F46019A3E0E6
:102B3000F46014A3E0F4600FA3E0F4600AA3E0F4EF
:102B40006005A3E0F470129001451214A7121A0553
:102B50001215A31219941245BF900ECA1215FF1236
:102B6000199C128D94900162E0F46037A3E0F46048
:102B700032A3E0F4602DA3E0F46028A3E0F4602326
:102B8000A3E0F4601EA3E0F46019A3E0F46014A3D2
:102B9000E0F4600FA3E0F4600AA3E0F46005A3E0B2
:102BA000F47013E49001621214A8121A05121600B0
:102BB00012199C1245BF22900560E070779000D2F8
:102BC000E0701D90056BE0640270159000D5E07018
:102BD0000F1224857407F0A31223897F3E029FAA57
:102BE00090056BE0FF7E00640170129000D5E0C399
:102BF00094027480948050028001C35018EF6402E4
:102C00004E70289000D4E0C39408748094805002E1
:102C10008001C340161224857406F0A31223897F15
:102C200058129FAA7F647E0002A14C900560740137
:102C300012246822900560E06401703F7403F0E4A0
:102C40009011271223E27005129CC88003129C95F4
:102C5000900564EFF01222EDE4900C2BF01223C5E6
:102C600050081223261224F680F31223D97B5270C7
:102C7000047D4C80027D4E7F66806C900560E06430
:102C8000036003022D0E90113EE0640270739011F8
:102C90003DD31224154053E4900C2BF0900C2BE004
:102CA0001223CA501EE0FF242CF582E43411F58370
:102CB000E0FE74142FF582E43411F583EEF0122453
:102CC000F680D91222E7E4900C2BF01223C55008AD
:102CD0001223261224F680F31223D97B5270047D2E
:102CE0004C80027D4E7F68029FE274031222E9E469
:102CF000900C2BF01223C550591223261224F68073
:102D0000F390113EE064036003022E77805190053A
:102D100060E064047056FD7F05129EFF90113E1224
:102D20002472703290113DE0D312241640079005B2
:102D3000607405F0221222E7E4900C2BF0900C2B2B
:102D4000E0FD1223CA500B742C2D1223291224F6F5
:102D500080EB12259D22EF64034E6003022E771252
:102D60002485740CF0A3E4F0A304F022900560E045
:102D700064056003022DFD7B01900C2F04F0A37409
:102D800011F0A3742CF07A117914125C9FEF339533
:102D9000E04F70581225C6125A79EF703F1225C6BF
:102DA000900564E0FD127442EF3395E0FEEFF4709D
:102DB00002EEF46003022E779005607412F0900525
:102DC000621223897D327F44129F201223E3700513
:102DD0009000D580039000D4E004F0221224857482
:102DE00004F0A31223897D527F56800E122485742D
:102DF00009F0A31223897D347F44029F209005604F
:102E0000E06412701B122446506D9000D2E0706492
:102E10001223E3705F9000D5E064017057029FC6F3
:102E2000900560E06413704F122446504A9005618B
:102E3000E0FF7E00640C700E9000D2E070089000FD
:102E4000D5E0700280119000D2E0700F1223E37081
:102E50000A9000D5E070041222D122EF64064E6081
:102E60000E900561E0FF640C6005EF6407700512C9
:102E700023E3800012A0F522900C2BEEF0A3EFF0DC
:102E8000900467E07015741E126C9EA37401F0E448
:102E9000A3F0A374FFF07F6C02300A900467E06433
:102EA0001E7005741F023030900467E0641F703F8D
:102EB000126C8B702B9005F0E07008900467742002
:102EC0000230509005F0E0FF6403600AEF64026096
:102ED00005EF64F97007900467741EF022022FACAE
:102EE000126C546480948040030230FC0230F290F3
:102EF0000467E0642070107421126C95900464E003
:102F0000FF128EF70230C3900467E0642160030271
:102F10002FC1126C8B6003022FB29005F0E070524B
:102F2000900464E0FF7E0064017020900466E0FD80
:102F30003395E0FCED4C7013900464E004F09004D1
:102F4000677424F090046674FF8020C3EF9408EE49
:102F5000648094809004675010126C9CA3E004F08D
:102F60001230FD12A14C0230517417F0126CFE02A7
:102F700030519005F0E0FF64066005EF6403702CAB
:102F8000900465E0C3940374809480900467500EAD
:102F9000126C9C1299771230FD12A14C8007742993
:102FA000F0A3740BF0900465E004F0229004670233
:102FB00030E1126C546480948040030230FC023093
:102FC000F2900467E06424700F7425126C957B32D4
:102FD000FAFDFC7F0102858E900467E0642570464F
:102FE000126C8B70329005F0E0FF7E00700B900445
:102FF000677429F0A3740AF022EF64094E90046705
:103000007012126C9C1299777F6E129FAA7F967E27
:103010000002A14C0230E1126C54648094804003A1
:103020000230FC0230F2900467E0642270087423DE
:10303000126C95029D11900467E06423702B126C52
:103040008B70179005F0E0640290046760067422AC
:10305000F0029977741E126C9E22126C5464809454
:103060008040030230FC0230F2900467E064177085
:103070000A7418126C95129C298048900467E0FF2E
:103080007E0064187022126C8B700F9005F0E09037
:10309000046770047419F0228047900462126CEF88
:1030A000648094805056804AEF64194E70199004E1
:1030B00067741A126C95900C2BE0FCA3E0FD7F0165
:1030C000128A6E126CFE22900467E0641A702D1250
:1030D0006C8B70159005F0E090046770047428F014
:1030E000227429F0A3740BF022126C546480948033
:1030F000500A9004677429F0A37401F0227F6E12C5
:103100009FAA7F967E0022900C9EEB1215B7900C22
:10311000A81214A7900C9E1216637002FF22900C46
:103120009E12148A12197E121CC7C002C001900C94
:10313000A11217F6900CB51215B6900CA6E0FFA3DD
:10314000E0900CB8CFF0A3EFF0D001D002121F2610
:10315000EF7002FF22900C9E12148A12189A24F922
:1031600060690460030233649000061216F990004F
:10317000071217931218739000091216B060030219
:103180003370121736127EC4900CA8EEF0A3EFF045
:10319000900C9E12148A1218E9121A2D4003023361
:1031A00070900CA81218219E5002800FBC2716BDEB
:1031B0000F13C3EF940BEE9400500A900010E475C7
:1031C000F00102336D12197E02336D900C9E1214C1
:1031D0008A1217C875F00AA4FDACF012187A75F0BF
:1031E00064A42DFFE5F03CFE12185C7C002FFFEC80
:1031F0003E9000178FF0121CC79000081216F9902D
:10320000000912179312193490000B1216B06003C4
:10321000023370121736127FBD900CAA12173112AA
:1032200080B4900CAC12173112830A900CB01217B4
:10323000311286BB900CAEEEF0A3EFF0900C9E1214
:10324000148A1218E9121A2D4003023370900CAA46
:10325000E0FCA3E0FDC3940FEC94275073C3ED9FF3
:10326000EC9E500302331A900C9E12148A1218E935
:10327000FF900CAAE065F07003A3E06F704612198E
:103280003A7003A3E06F600302331A900C9E12148D
:103290008A1218A0FF900CAEE065F07003A3E06FF7
:1032A000600612162D126AC1900C9E12148A121812
:1032B0003640030233701218897006900CACE0049B
:1032C000F0023352900C9E12148A12197E02336D52
:1032D000900CAAE064277004A3E0640F600302333B
:1032E00070900C9E12148A1218E9C3940BE5F094A6
:1032F00000500612162D126AC1900C9E12148A12EA
:1033000018E9FF900CAAE065F07003A3E06F70600D
:1033100012193A7003A3E06F600512162D804090D9
:103320000C9E12148A1218A0FF900CAEE065F0708B
:1033300003A3E06F600612162D126AC1900C9E1254
:10334000148A12183650291218897006900CACE0B5
:1033500004F0900CACE0FEA3E0900CA412196A12E9
:103360006AC1800C900C9E12148A12197E121CC71E
:10337000900C9E12148A9000101216CE7F007002DC
:103380007F0122900C9EEB1215B7A3EDF0900C9EDE
:1033900012166370030235F3A3E06406600302347F
:1033A0004F900C9EA3A3E0F91217C8121967900062
:1033B000FB75F01D12149A12185AFF121493EF1293
:1033C0001872FF9000FD121496EFF01217EDFF90A7
:1033D00000FE121496EFF09000FB121496E0FF909E
:1033E0000135121496EFF0121493E0FF900136129B
:1033F0001496EFF09000FD121496E0FF9001371242
:103400001496EFF09000FE121496E0FF900138122F
:103410001496EFF0ED4C701A900CA212174812148B
:10342000FC1219A41245BF12153E7404F07FAD02C0
:1034300035EE1216E060030235F3FC1214FC12188C
:10344000BB1245BF12153E7404F07FB40235EE90F6
:103450000CA1E0640760030235F3900C9E12148AFD
:103460001218731219679000FF75F01D12149AEF6D
:10347000F01217EDFF900100121496EF121933FFAE
:10348000900101121496EF121A18FF900102121403
:1034900096EF121879FF900106121496EFF01217AA
:1034A000C8FF90010712149612185AFF90010812D3
:1034B0001496EFF0121B2DFF9001091214961219A9
:1034C000ACFE90010A121496EE121872FE900139A9
:1034D000121496EEF01217EDFE90013A121496EEC9
:1034E000121933FE90013B121496EE121A18FE9038
:1034F000013C121496EE121879FE900140121496B7
:10350000EEF01217C8FE900141121496EE12185BED
:10351000FE900142121496EEF0900143121496129E
:1035200019ACFF900144121496EFF0ED4C706290CC
:103530000CA21217481215121218C31245BF12140A
:10354000BC7403F07F3BFE1245BF1214DC1218D38B
:103550001245BF12156B74392FF97401121553748B
:1035600004F07F527E031245BF12156B74402FF991
:1035700074011215537403F07F5BFE1245BF1215E0
:103580006B74432FF974011215537402F07F5F803E
:103590005D1216E0705DFC1215121218CB1245BFB9
:1035A0001214BC1219591245BF1214DC1218DB1286
:1035B00045BF12156B74392FF97401121553740439
:1035C000F07F627E031245BF12156B74402FF974B1
:1035D000011215537403F07F6BFE1245BF12156B79
:1035E00074432FF974011215537402F07F6F7E0338
:1035F0001245BF229000CC1222C7700B90055F7459
:1036000026F07F04127CC29005FEE070067420F064
:1036100012877E9005F4E0640470649000ED74FFFE
:10362000F09005FCA3E09000F3F01299771223EBE1
:103630009000F8E070047F01802012251E707C123B
:1036400023ACBEFF07BFFF047F06800E9000EE1282
:1036500023AFBEFF0ABFFF077F04129D29805C9045
:1036600000F7E0700512383F805112236F404CEF95
:10367000640170031222E09000F7E014F0803C90A7
:1036800005F4E06405703412384B700A7F08129D0F
:10369000291299778025E49000EDF09000F104F074
:1036A0009000F312237E7F40129FAA9000C912243B
:1036B000995005E004F080031224031248D09001D1
:1036C000F4E0642870629000EE74FFF09001EFA3C4
:1036D000E0049000F21223EA9000F8E070047F0307
:1036E000807012251E600302377C9000ED1223AF1C
:1036F000BEFF07BFFF047F0480581223ACBEFF0744
:10370000BFFF047F05804B9000F7E0700512383F43
:10371000806A12236F4065EF640170049001F4F039
:103720009000F7E014F080549001F4E06429704CAC
:10373000A3E0642B70089000FA7402F08005E49016
:1037400000FAF012384B700F9000FAE06402600744
:103750007F08129D298025E49000EEF09000F1741E
:1037600003F0E4A312237F7F40129FAA9000C812A7
:1037700024995005E004F080031224031254CB90E6
:103780000530E0640A70599000EF74FFF090053E38
:10379000E09000F41223EA9000F8E060089000F056
:1037A000E0640170047F02804B12251E6003023822
:1037B0003E9000ED1223AFBEFF07BFFF047F0680DF
:1037C000339000EE1223AFBEFF07BFFF047F0580DA
:1037D000237F7A129FAA1225259000F77480F02289
:1037E000900530E0640B7035129B98EF3395E04FF5
:1037F00070057F08029D29E49000EFF09000F174BD
:1038000002F09000F412237E7F40129FAA9000CA1B
:103810001224995004E004F022122403229005306F
:10382000E0FF7E00640C700D90047BF0A3F0900527
:103830005F7425F022EF640D4E7003129EDC227F30
:103840007A129FAA9000F77480F022129B98EF33AF
:1038500095E04F22E4900C3AF0A3121E960000006F
:1038600000900C3F121E9600000000E4900C43F004
:10387000A3F030030302397F12A1435003023971D0
:10388000129719900C3B121E8AE4900C39F0900CA0
:1038900039E0C395105039900C3B126160780112E9
:1038A0001E2F900C3B121E8A30D720126134C000AC
:1038B000C001900C39126123E0F9F8121E42D001C8
:1038C000D00012616C900C3AE004F01261AB80BE43
:1038D000900C3AE0FF7E00C39402748094804018FC
:1038E000D216EF940374809480400512A14680089C
:1038F00012A08FEF6002C216201623E4FFFEFDFC2B
:10390000126134C3121E1E60109010B7E004F070F4
:10391000069010B6E004F0801D1261978018901098
:10392000A6E004F070069010A5E004F0900C3F12A1
:103930001E960000000012A008D39010B7E09F90E0
:1039400010B6E09E400612A146126197D39010A6D1
:10395000E0942C9010A5E094015003023AA112A12A
:10396000469010DD7401F0E49010A5F0A3F0023A47
:10397000A190AA77E4740193FF12426C023AA1204D
:103980000403023A6B126134C000C0019010DE12D1
:103990006123E0F9F8121E42D001D00012616C12CE
:1039A00060C11261B2900C43F0A3EFF09010DEE022
:1039B000FF12A0AFAD07AC06ED7802CEA2E713CEA2
:1039C00013D8F8FFC3ED9FFFEC9EFED3900C44E0AC
:1039D0009FEE6480F8900C43E06480985058E49027
:1039E000105BF0A3F090101EE004F0940574809436
:1039F000804010E4F0C203C204900C3F121E9600F7
:103A0000000000E4900C39F0900C39E0FFC39510F1
:103A10004003023AA112441F200316900C39E0FF24
:103A20009010DEE06F600A900C39E01260D11261F4
:103A30007E1261AB80D2E490101EF012A0089010AC
:103A40005BE475F001121C44FCD3E5F09FEC9E4052
:103A50005012A146E490105BF0A3F0C203C20490A0
:103A60000C3F121E96000000008036785406E6D304
:103A70009405748094804004E4F6C203E4900C3909
:103A8000F0900C39E0FFC39510501612441F20032C
:103A90000B900C39E0FF1260D112617E1261AB8095
:103AA000E0900C3F126160227D017F04123AB20D5A
:103AB0007F04EFF582758300C3748094804024D323
:103AC000E5829405748094805019EDF582C374806A
:103AD0009480400FE582940874809480500575822C
:103AE000018003900000E582640145836003023C8D
:103AF000ABEF146064147003023B9E147003023B2E
:103B0000E3147003023C28147003023C6A2405602D
:103B100003023CABEB14601D14602D240260030211
:103B20003CABA8057401088002C333D8FCFF429A5D
:103B3000EFF4529B22A8057401088002C333D8FC1D
:103B4000FFF4529AEF429B22A8057401088002C339
:103B500033D8FCF4529A529B22EB14601D14602D52
:103B600024026003023CABA8057401088002C33341
:103B7000D8FCFF4291EFF4529222A805740108800C
:103B800002C333D8FCFFF45291EF429222A805748D
:103B900001088002C333D8FCF45291529222EB14F4
:103BA000601D14602D24026003023CABA805740163
:103BB000088002C333D8FCFF42A1EFF452A222A82E
:103BC000057401088002C333D8FCFFF452A1EF4210
:103BD000A222A8057401088002C333D8FCF452A1C4
:103BE00052A222EB14601D14602D24026003023CDB
:103BF000ABA8057401088002C333D8FCFF42B1EFC3
:103C0000F452B222A8057401088002C333D8FCFF25
:103C1000F452B1EF42B222A8057401088002C33306
:103C2000D8FCF452B152B222EB14601A14602A2468
:103C3000027078A8057401088002C333D8FCFF42E3
:103C4000C1EFF452C222A8057401088002C333D820
:103C5000FCFFF452C1EF42C222A8057401088002A1
:103C6000C333D8FCF452C152C222EB14601A146060
:103C70002A24027036A8057401088002C333D8FCD8
:103C8000FF42D9EFF452DA22A8057401088002C37A
:103C900033D8FCFFF452D9EF42DA22A805740108A8
:103CA0008002C333D8FCF452D952DA22900C491264
:103CB0005DC8900C48EFF0900C5374FEF0E4A3F054
:103CC000A3F0EF24F4601024FE7016900C547412CC
:103CD000F0A37410F0800A900C547420F0A3743098
:103CE000F0900C54E04480FD7F02129FEF7D807FB6
:103CF00004129A1C123E9D7D807F0A129B5AE4900A
:103D00000C57F0A3F0900C4CE0FF900C57E0FCA394
:103D1000E0FDC39FEC94005023900C49125DBF8DD1
:103D2000828C83121B46FD7F09129FEF900C58E096
:103D300004F070D1900C57E004F080C9900C48E07A
:103D4000FD7F01129FEF900C48E0640C70077D80AE
:103D50007F0D129B5A129FB8900C57E4F0A3746425
:103D6000F07F04129E81900C56EFF0900C58E024E6
:103D7000FFF0900C57E034FFF0E07002A3E0601118
:103D8000900C56E0FF20E009900C55E0FEEF5E60DD
:103D9000D07D807F0D129A1C900C57E07002A3E03A
:103DA0007003023E8A7F06129E81EF541B6003025D
:103DB0003E82900C53F0A3E0FF900C56E05F30E0A1
:103DC00006900C5374FFF0900C48E0640C60030202
:103DD0003E8D7F0A129E81900C56EFF07F0C129E52
:103DE00081EF5407FD6029900C56E024FFFFE43476
:103DF000FFFEEF7803C333CE33CED8F97C002DFF1E
:103E0000EC3EF9900C50E0FBA3E0FAA3E0C980116E
:103E1000900C56E075F008A4FF900C50125DBFE5C1
:103E2000F08FF0121CA8900C56E0700204F0900C79
:103E300056E0D394127480948040037412F0E4909E
:103E40000C57F0A3F0900C56E0FFC3900C58E09F85
:103E5000900C57E0940050357F09129E81900C4DD4
:103E6000125DBF900C57E0FCA3E0F5828C83EF124B
:103E70001B85900C58E004F070CB900C57E004F0D8
:103E800080C3900C5374FEF0800312A0E77D807F06
:103E90000C129B5A123E9D900C53E0FF22E4FD7FD2
:103EA00001129FEF22900455E06003023F31900021
:103EB000D2E070439000D5E0703D90055F7415F03E
:103EC000900560740312246890056404F090056BFB
:103ED0001222ECE4900C2BF0900C2B1223C8500B08
:103EE000122326900C2BE004F080ED12259D7B52CE
:103EF0007D4C7F66029FE21222ED9005307409F03E
:103F00001225D4E4900C2BF090113CE0FF900C2B88
:103F1000E0FEC39F500E742C2E122329900C2BE030
:103F200004F080E4900455740112231F7F5A029F0D
:103F3000AA900455E06401600302403D7D107F06B5
:103F4000129EFF90113EE06402704B900455740382
:103F5000F01225C6125A7990045EEFF0600FC394F8
:103F6000037480948050069004557402F012252545
:103F7000900455E0640370157F40129FAA90045D81
:103F80007480F0122411501FE004F0801A7D327FFB
:103F90005A129F20801190113EE064037009900432
:103FA000557404F01225251248D09001F4E06428DD
:103FB0007029C39001F0E0940A9001EFE094005062
:103FC0001A900455740212231F7D327F5A129F20CB
:103FD0009001F37401F07F030240869001F4E0FF4A
:103FE00064296022EF642860030240899001F0E0B8
:103FF0002401FF9001EFE03400FED3EF940AEE9429
:104000000050030240899001F5E0642B90045F703A
:10401000057402F080037401F0E49001F4F0900460
:10402000557403F090045D7480F07F40129FAA7F66
:1040300002127CC21224115050E004F02290045568
:10404000E064027009129FC6E49000CBF022900455
:1040500055E06403701D90045DE014F01222BC5022
:10406000281224114005E4A3122407122316122556
:10407000B88013900455E06404700E7F60129FAA0C
:104080001223161225B8127CC222900ECA121623D1
:104090001219A4128D949000FBE0F4600FA3E0F4D9
:1040A000600AA3E0F46005A3E0F47017E49000FB5D
:1040B0001214B47B017A0079FB1217D07FA07E0323
:1040C0001245BF12155E1218BB128D94900118E0B4
:1040D000F4600FA3E0F4600AA3E0F46005A3E0F449
:1040E0007013E49001181214B4900CB912156212F6
:1040F00018BB1245BF900ECA12164C1218C3128D6F
:10410000949000FFE0F4600FA3E0F4600AA3E0F4F1
:104110006005A3E0F47013E49000FF1214B4900C57
:10412000B912164D1218C31245BF900ECA12166D61
:104130001218CB128D9490011CE0F4600FA3E0F4F0
:10414000600AA3E0F46005A3E0F47013E490011C9E
:104150001214B4900CB912166E1218CB1245BF90FF
:104160000ECA1216567F3BFE128D94900106E0F4A3
:10417000600AA3E0F46005A3E0F470129001061257
:104180001952900CB91216577F3BFE1245BF900E84
:10419000CA121677121959128D94900123E0F46017
:1041A0000AA3E0F46005A3E0F47012900123121951
:1041B00052900CB91216781219591245BF900ECAB6
:1041C0001216811218D3128D94900109E0F4600543
:1041D000A3E0F47010E4900109121A06121682127C
:1041E00018D31245BF900ECA12169C1218DB128DFE
:1041F00094900126E0F46005A3E0F47010E49001CF
:1042000026121A0612169D1218DB1245BF900ECA0E
:104210001216A61218B4128D94900103E0F4600AED
:10422000A3E0F46005A3E0F47011E4900103F01240
:104230001A051216A71218B41245BF900ECA12160C
:10424000D6121960128D94900120E0F4600AA3E068
:10425000F46005A3E0F47011E4900120F0121A0557
:104260001216D71219601245BF0228EC900C45EFC8
:10427000F09011A5E0C39403748094804048E4F06A
:104280009010DDE07035900C46F0900C46E0C39540
:10429000105028E0FF75F002A424B9F582E5F0344F
:1042A00010F583E0FCA3E0FDEF25E02424F8A6044C
:1042B00008A605900C46E004F080CF128527C217AF
:1042C000E49010DDF02290119FE004F0900C45E0A6
:1042D000FF90119FE0B50708129680E49011A0F0BE
:1042E000900C45E0FF90119FE0D39F500302441EC5
:1042F000E4900C46F0900C46E0C395104003024356
:10430000CAE0FF75F002A424B9F582E5F03410F597
:1043100083E0FCA3E0FD75F002EFA4241FF582E525
:10432000F03410F583E0FEA3E0C39DFFEE9CAD07E3
:10433000FC9010DDE070429010B8E0FB3395E0FA9D
:10434000FEEB7802C333CE33CED8F9FFD3ED9FEE28
:104350006480F8EC6480984060E49BFFE49AFEEF90
:104360007802C333CE33CED8F9FFC3ED9FEE64801D
:10437000F8EC648098504280519010B8E0FB33957F
:10438000E0FAFEEB7803C333CE33CED8F9FFD3ED9A
:104390009FEE6480F8EC648098401EE49BFFE49AF2
:1043A000FEEF7803C333CE33CED8F9FFC3ED9FEED3
:1043B0006480F8EC6480984011900C46E0FF124451
:1043C0001F900C46E004F00242F5900C46E0B51058
:1043D000069011A0E004F0900C45E0FD75F008A4F3
:1043E000FF90119FE0C39FE5F06480F874809840CF
:1043F0002DE4F0C2169011A5E004F0ED75F004A4D0
:10440000FF9011A0E0C39FE5F06480F874809840AD
:104410000DE49011A5F0129801128527C217229081
:104420000C47EFF0F9E0FF75F002A424B9F582E53E
:10443000F03410F583E0FCA3E0FD75F002EFA42456
:104440001FF582E5F03410F583E0FEA3E0C39DFF85
:10445000EE9C900C48F0A3EFF0AF0112A0AFAD07B7
:10446000AC06900C48E0FEA3E0FFD39DEC6480F81E
:10447000EE6480985014C3E49DFBE49CFAC3EF9B68
:10448000EA6480F8EE648098502F900C47E0FF7546
:10449000F002A4241FF582E5F03410F583E0FCA3BC
:1044A000E0FD75F002EFA424B9F582E5F03410F5D3
:1044B00083ECF0A3EDF0024592ECA2E713FEED13BE
:1044C000FF900C48E0FAA3E0FBD39FEE6480F8EA8B
:1044D000648098501CECA2E713FEED13FFC3E49F29
:1044E000FFE49EFEC3EB9FEE6480F8EA6480985080
:1044F0003E900C47E0FD75F002A424B9F582E5F08A
:104500003410F583E0FAA3E0FBEAC313FEEB13FFDC
:10451000C3EB9FFBEA9EFA75F002EDA4241FF5821F
:10452000E5F03410F583E0C313FEA3E01380479059
:104530000C47E0FD75F002A424B9F582E5F03410D3
:10454000F583E0FAA3E0FBAE027803CEC313CE13EB
:10455000D8F9FFC3EB9FFBEA9EFA75F002EDA424A5
:104560001FF582E5F03410F583E0FEA3E07803CE7A
:10457000C313CE13D8F92BFFEA3EFE900C47E0752B
:10458000F002A424B9F582E5F03410F583EEF0A32F
:10459000EFF0900C47E0FF75F002A424B9F582E536
:1045A000F03410F583E0FCA3E0FD75F002EFA424E5
:1045B0001FF582E5F03410F583ECF0A3EDF02290C6
:1045C0000CB41276E978BB7C0C7D017BFF7AA6796E
:1045D0006F7E027F00121B07127705900EC1F0A3B9
:1045E000F0900CB4E0FFA3E0900EC3CFF0A3EFF087
:1045F000900EC1E0FEA3E0FF900CB9E0FCA3E0FD4B
:10460000D39FEC9E40EA900EC3E05401FEA3E0FF6E
:10461000900EBDEEF0A3EFF0900EC2E02400FB90F0
:104620000EC1E03402CBC39FFFEB9EFED3ED9FECA7
:104630009E407412770D4E60061276A51247401206
:1046400076F812770DC3E49FFF7402127720501E94
:104650001276C17006900EBFE004F0127716900E2D
:10466000BCE004F07006900EBBE004F080D412476A
:1046700012900ECA1276B412920912770DC3E49FFB
:10468000FF74029EFE900EC2E02FF0900EC1E03E3D
:10469000F0900EC4E02FF0900EC3E03EF07F057E58
:1046A00000129BF10245F012770DC31276A5124756
:1046B000401276F8900EC1E0FEA3E0FFC3900CBA62
:1046C000E09FFF900CB9E0127720501E1276C17067
:1046D00006900EBFE004F0127716900EBCE004F0D6
:1046E0007006900EBBE004F080CA1247127B017A7C
:1046F0000C79BB900ECA1276BA129209900CB9E0EE
:10470000FFA3E0900EC1CFF0A3EFF07F057E000283
:104710009BF1900EBDE0FEA3E0FFC3900EC4E09FAE
:10472000FF900EC3E09EFE128C19900EBDE0FEA31A
:10473000E0FFC3900EC4E09FFF900EC3E09EFE22F8
:10474000128D947F017E00129BF122900511E0FFF3
:104750007E00700504F0A3F022EF64014E70261273
:1047600022C460030248CF12230B40030248CFEE5D
:1047700075F004A42461F974A935F0FA7BFF129155
:104780000C1223D222900511E0640370087402F029
:104790007F42029FAA900511E06402701F1298EDFB
:1047A000EF3395E0FEBEFF11BFFF0E9005117404BC
:1047B0001225A8E4900514F02202483D900511E06E
:1047C000640460030248471288FA900662E0FF7EA4
:1047D000006412704F740512248D9000D1F0A3F084
:1047E000FDEDC394327480948040030248CFED25E0
:1047F000E025E02400F582E43400F58374FFF0A3A3
:10480000F0ED25E025E02402F582E43400F583E4B0
:10481000F0ED25E025E02403F582E43400F583E49F
:10482000F00D80BDEF64134E60030248CF90051475
:104830001224995008E0041225A8029977900511D6
:104840007408F07D34804B900511E064057015907C
:1048500005131222B750781296B4740612248D9064
:1048600000D3F022900511E06406702B900513121E
:1048700022B7505B12584012985512982C129E2F56
:1048800090051174071224909000D5F09000D4F098
:104890007D327F42029F20900511E0FF7E00640779
:1048A0007010900513E0FD14F0C3ED1222BD501FEF
:1048B000800EEF64084E700C9005131222B7500F53
:1048C0001222D022900511E064097003129FD422B5
:1048D0009001F4E0FF7E007004741EF022EF641E6D
:1048E0004E700B741F126C92129CF90249EB9001EE
:1048F000F4E0641F7034126C8B701C9005F0E07053
:10490000099001F47420F00299779005F0E06402B8
:1049100070028011E4800E9001F1126C57940040F7
:1049200003024A4CE49001F4F0229001F4E0642682
:10493000700B7427126C95129B3B0249EB9001F4AB
:10494000E064277049126C8B70319005F0E070259F
:104950007B017A0579DA128D00EF3395E04F9001F3
:10496000F470097420F09001F1024A1E7429F0A33A
:10497000742B024A42126CAA024A429001F1126C54
:104980005794004003024A4C126CAA024A4290011A
:10499000F4E06420700C7421126C957F01128EF784
:1049A00080499001F4E0FF7E0064217029126C8B35
:1049B00070159005F0E09001F470047424F02274F6
:1049C00029F0A37406807B9001F1126CEF940050E3
:1049D0007B126CAA806CEF64244E70167425126CE6
:1049E000927B32FAFDFC7F0112858E9001F1126DEF
:1049F00001229001F4E064257052126C8B703690A5
:104A000005F0E0FF7E00701A9001F47428F0900524
:104A1000CCE0FDA3E09001EFCDF0A3EDF0A3126C8C
:104A2000A222EF64174E9001F47002F0227429F074
:104A3000A37408800D9001F1126C579400500D1270
:104A40006CAAF09001F1E4F0A374C0F022900C4342
:104A5000EB1215B71218A678557C0C7AA679107F40
:104A6000471218FFE4900C9CF0A3F01217F3900C7F
:104A7000A11215B6900C48E0FFA3E0900CA4CFF073
:104A8000A3EFF0900C4A1217F6900CA61215B690F0
:104A90000C4DE0FFA3E0900CA9121717126585EFEB
:104AA0007002FF2212171C12596112171C128294F5
:104AB00012171C12666C12171C1262B512171C1208
:104AC0007E45EF7002FF2212171C124FCE1217F311
:104AD000900CA11215B6900C46E0FFA3E0900CA438
:104AE000CFF0A3EFF0900C48E0FFA3E0900CA612EB
:104AF0001717123107900C4F121663603DA3121660
:104B0000636037900C67E0FF900C4F12148AE48FBB
:104B1000F0121CA8900C67E0B40713900C6CE0F93D
:104B2000A3E0FF900C52121985C98FF08009900CF8
:104B30005212148AE4F5F0121CA8900C67E0B40637
:104B400019900C65E07004A3E06401707312171CE7
:104B50001218EF7D061233838066900C67E06407BD
:104B6000705E900C65E07004A3E06401700B121796
:104B70001C1218EF7D07123383900C46E0FEA3E071
:104B8000FF1280B4900C9CEEF0A3EFF0C3900C6D7C
:104B9000E09F900C6CE09E5027900C9DE094E79075
:104BA0000C9CE094034012E4F0A3F0900C46E0FC6F
:104BB000A3E0FDE4FFFE126AC1E4900C65F0A3F0EF
:104BC000900C65A3E0FF22F9121B46FF900C2CE02D
:104BD000FBA3E0FAA3E0F922EFFD7C00E92DF9EC5C
:104BE0003AFA900C30E0FCA3E029F9EA3CFA121BF7
:104BF0002DFEEFC313FD900C2FE075F008A4247D6B
:104C0000F582E43405F583E58222EF75F008A424EB
:104C100083F582E43405F58374FFF0EF75F008A4A2
:104C2000247CF582E43405F583227A0C792D7B010E
:104C3000900ECAE4F0A304F022EF75F008A42483D8
:104C4000F582E43405F58322E4901129F074049090
:104C50001128F090055F222DF582E43583F583223B
:104C60007B017A05797CE4F0A322EEC3940A748078
:104C7000948022EBF0A3EAF0A3E9F0227B01900CF0
:104C8000B9E4F0A304F022E4901129F07403901128
:104C900028F090055F22EEC39406748094802290E1
:104CA0000000E0FEA3E0FF021BB9E0D39400748093
:104CB000948022900C30E0FAA3E0FB7C007D02FFA0
:104CC000AE02021C0EEFC394027480948022E0FDB9
:104CD000C4540F75F00AA422900C2DE0FF3395E028
:104CE000FE22900C2FE0FBA3E0FAA3E022740AF06E
:104CF0009005327401F0A37440F022901123E0FE7D
:104D0000A3E0FF7C007D0A22EFF07E00C3940974CB
:104D100080948022EC04FF129D41EF3395E04F22F6
:104D2000901126E0FF901125E09F222FF582E58368
:104D30003EF583E0221224FD700A9000CFF0900827
:104D40001D04F022EF64014E701312883D12945B33
:104D5000E490081EF090081D7402024E0390081D96
:104D6000122472700F12235B4003024E8490081DC0
:104D70007403F022EF64034E7064127B299000CF1D
:104D8000E06402703E9005EEF07F01128EB1E49077
:104D90000C2BF0900C2BE0C3941974809480501766
:104DA0007F0A7E0012A14C12A15212254760089082
:104DB0000C2BE004F080DCE490081FF090081D74D8
:104DC0000480409000CFE064036003024E849008AA
:104DD0001F74FFF074041223F57F07024E81122422
:104DE000FD6404700F12235B4003024E8490081D83
:104DF0007405F022EF64054E7010900820F09008C2
:104E00001D74061223F87F0280771224FD64067059
:104E10000C12235B506E90081D7407F022EF64079C
:104E20004E700D900821F074081223F57F02805116
:104E30001224FD6408700E12235B504890081D7404
:104E4000091223F822EF64094E703990082274FF8A
:104E5000F5F0121C44122450502A9000DBE060044C
:104E6000640170187F74129FAA9000DA74FFF090AA
:104E700000DC7480F090055F7421F0221222D07F54
:104E80000612974822901113E004F0D3943F7480E7
:104E90009480404F901122E06401F0E4901113F0EF
:104EA00020C22990055FE070239001EB1223AFBE72
:104EB000FF12BFFF0FE4F07F011297489001EB74DF
:104EC000FFF080057F011297481299779001F3E077
:104ED000122376400EE004F0E064047006F07F01D7
:104EE000127CC2901113E0541F700790112BE064E4
:104EF00001F09005FEE01223764003E014F09007E5
:104F00004AE01223764003E014F030C1411225F943
:104F1000900C29E0C394647480948050187F027EC2
:104F200000129C0D30C106900C2AE004F0900C2970
:104F3000E004F080DB900C2AE0D3945A74809480D3
:104F400040429004771222C7703AA3F080361225AF
:104F5000F9900C29E012245F50187F017E00129C0A
:104F60000D20C106900C2AE004F0900C29E004F01A
:104F700080DF900C2AE0D39408748094804005E48C
:104F8000900477F09004781222C7703C90055FE09F
:104F9000FF642B6033EF6420602EEF641B6029EF09
:104FA000641A60249006401222C7701C90055F743A
:104FB0002BF0900479F0A374F21222D47F147E00B7
:104FC00012A14C7F04127CC2120100026838900CBE
:104FD0009EEB1215B7E4A3F0A3F0FFFE1218ADA3E9
:104FE000EFF07F007E001218AD7E037FE812161AE4
:104FF000A3EFF07C037DE87F007E00121BB97F6485
:10500000121618A3EFF07C007D647F007E0012165C
:1050100013A3EFF07F007E0012198DAC05E4A3F01E
:10502000FF900C9E121663700122900C9E12148A3F
:105030001218A025E0FFE5F033FE74482FF58274C6
:10504000A53EF583E493FF740193900CA1CFF0A3E8
:10505000EFF07F01EFD39406748094805022900C7F
:10506000A3E06F6018A3E06F6013A3E06F600EA36E
:10507000E06F6009EF6C6005A3EFF080030F80D450
:10508000900C9E12148A900001121B46900CA312E1
:10509000175912148A121926900CA41217591214B7
:1050A0008A1217D9FF900CA512175A12148A1219D6
:1050B00008900CA612175A12148A900004EF121BC3
:1050C0008512187AFFAD0412175C12148A1217C1E8
:1050D000FF900CA712175A12148A900006EF121BA9
:1050E0008512185CFFAE04AD0612194B12148A909B
:1050F0000007EF121B85121873900CA612194812A4
:10510000148A1217E6900CA512194812148A9000FE
:1051100009121A1F22900C35EEF0A3EFF0E4FFEF16
:10512000C3940D748094804003025258E4FEEF252E
:10513000E02440F582E43411F583E0FCA3E0FD9027
:105140000C35E05CFCA3E05DD39400EC94004001DE
:105150000EEFB40D004003025254905161F828281C
:10516000730251880251990251AA0251BB0251CCDB
:105170000251DB0251EA0251F902520802521702AF
:105180005226025235025244EE6008E4901173F048
:10519000025254901173025251EE6008E49011745F
:1051A000F0025254901174025251EE6008E49011D2
:1051B00075F0025254901175025251EE6008E4905D
:1051C0001176F0025254901176025251EE6007E4CB
:1051D000901177F0807E9011778076EE6007E490F2
:1051E0001178F0806F9011788067EE6007E490117D
:1051F00079F080609011798058EE6007E490117A20
:10520000F0805190117A8049EE6007E490117BF0B4
:10521000804290117B803AEE6007E490117CF08030
:105220003390117C802BEE6007E490117EF0802497
:1052300090117E801CEE6007E490117DF080159047
:10524000117D800DEE6007E4901183F080069011CF
:105250008374FFF00F02511F22127E3D64017026FD
:10526000D390051AE09400900519E09400400AA339
:10527000E024FFF09005198069127E06402A90050F
:10528000237403F08069EF64034E701E127E0640A3
:105290000AA3E024FFF090051D8047127E14400809
:1052A0009005237402F080478040127E3D640270B6
:1052B0001E127E14400AA3E024FFF090051B8022FA
:1052C000127E2240089005237404F08022801BEF98
:1052D00064044E7015127E22400EA3E024FFF0906D
:1052E000051FE034FFF080078000E4900523F09074
:1052F0000523E064027035C2D9900522127DFD704D
:1053000028900C29F0A3F0127DEE5014D2D812A0F0
:1053100029C2D812538270EF900C29E004F080E784
:1053200090052274FFF0D2D822D2D822900523E033
:1053300064017035C2D8900521127DFD7028900C53
:1053400029F0A3F0127DEE5014D2D912A029C2D9AF
:1053500012538270EF900C29E004F080E790052151
:1053600074FFF0D2D922D2D922127E3D640370029A
:105370008006EF64044E7005D2D9D2D822C2D9C2B9
:10538000D822900C29E0FEA3E0FFC374C89FFFE47D
:105390009EFE12A029900C2AE004F02243CF1012A6
:1053A000A0B612A05112A0D912A063129ECA43CF78
:1053B00010E49011C1F0A3F0A3F0A3F0E49005EE87
:1053C000F0129B1C129F9B43CF107F147E0012A1F2
:1053D0004C12A1529005EEE06401702B9005F0E0B4
:1053E000700520C302804A9011C4E004F07006905A
:1053F00011C3E004F0D39011C4E0945E9011C3E0B7
:1054000094014050E4802AD3900C2AE09417129F14
:10541000A340249011C2E004F070069011C1E00492
:10542000F0D39011C2E094029011C1E094004007C3
:10543000E4900524F0801D900C2AE004F0700690A2
:105440000C29E004F0C3900C2AE09419129FA35099
:10545000030253C743CF10900524E060030253BCFE
:1054600012A03EC2C07F037E0012A14C90052DE029
:1054700064017027129F9C43CF107F017E0012A110
:105480004C900C2AE004F07006900C29E004F0C364
:10549000900C2AE0940A129FA340DC1298C9129E35
:1054A0005912A15E1295E1129F9B900C29E07004A5
:1054B000A3E06401601412A13D400A900C29E4F0BD
:1054C000A304F080E51294CE80E022900530E0FF46
:1054D0007E00640770030255F5EF6408700F9005B5
:1054E00032F0A374F0F09005307409F022EF6409F3
:1054F0004E60030255F5FD7F04129EFF90113EE0C1
:10550000640260030255E0129B98EF3395E04F7000
:105510007190112CE064017039A3E064017033A331
:10552000E06401702DA3E064017027A3E0640170C2
:1055300021A3E06401701BA3E06401701590113495
:10554000E06401700DA3E064017007900530740CF5
:10555000F02290112CE064017021A3E06403701B21
:10556000A3E064057015A3E06407700F90113DE09F
:1055700064047007900530740DF022900530740BB0
:10558000F0227B017A11792C125A7990053EEFF0C6
:10559000600C900530124CEDE49000F0F022901178
:1055A0003DE0FF640C6005EF640D70247B017A110F
:1055B000792C90113DE0FD7C00125EBB90053EEF22
:1055C000F0900530600D124CED9000F07401F02267
:1055D000900530740BF0900532E4F0A374C0F02213
:1055E00090113EE06403700D9005307407F0E49074
:1055F0000562F0A3F02290016FE070389000D2E0D5
:1056000070129000D5E0700C126E707407126DDE8F
:105610007F3E801D9000D3E0126E0E90016F500C03
:105620007401F0E4901127F07F648005126DD97F3A
:1056300058129FAA90016FE06401701D129CAF90F8
:105640000173EFF090016F7407F09001717401F035
:10565000A37440F07F70029FAA90016FE06407700E
:10566000307B017A0179741281A5EF3395E0FEBE9B
:10567000FF09BFFF0690016F7403F0126DE740034E
:1056800002571A126E707401126DDE7D347F4480F1
:105690005D90016FE0640370587B017A01797412A8
:1056A0008657EF703F900173E0FD128D4BEF3395FD
:1056B000E0FEBEFF1DBFFF1A90016F7404F0900161
:1056C00071126DE07D327F44129F209000D3E00480
:1056D000F02290016F126DD97F58129FAA7F647ECD
:1056E0000002A14C126E70126DDE7D547F56029F37
:1056F0002090016FE064047007126DE7501C801762
:1057000090016FE06405701290017174FFF5F01262
:105710001C5A126DF1500312A0FC2243CF107F01DE
:105720007E0012A14C129421E4FBFD7F02123AB2DA
:10573000D2A012A127129DF012A14912A0CB129E55
:105740006DD2C09005247401F07F057E0012A14C3B
:1057500012A1157F057E0012A14C12A140129E1AC3
:105760001295AB9001EDE0FF12A0E07F017E0012E8
:10577000A14CE4900C29F0900C29E0FFC3946474D0
:10578000809480501AEF75F00A84E5F0700343CFDF
:105790001012A11B1278EE900C29E004F080D89032
:1057A00000DBE0FF64016003EF70137F74129FAAB7
:1057B0009000DC7480F090055F7421F0803AE490F2
:1057C000055FF09005307407F0E49001F4F0900567
:1057D000F47407F0129B98EF3395E04F70077F3E0B
:1057E000129FAA801390052EE0FF64026005EF640B
:1057F0000170057F06129748E490052DF0900C2962
:10580000F0900C29E0C3941974809480503143CFF8
:1058100010E49005EEF0900C3174FFF07B017D01F7
:105820007F011285F37F147E0012A14C12A15290C9
:1058300005EEE064016008900C29E004F080C222CB
:10584000E4FFEFC3940474809480503474FB2FF50C
:1058500082E43400F58374FFF074182FF582E43489
:1058600001F58374FFF074FF2FF582E43400F583B3
:1058700074FFF0741C2FF582E43401121A2680C2E2
:10588000900CB91216231219A41245BF900CB9122C
:1058900015611218BB1245BF900CB912164C1218A4
:1058A000C31245BF900CB912166D1218CB1245BF2A
:1058B000E4FFEFC3940374809480503474062FF592
:1058C00082E43401F58374FFF074232FF582E4340D
:1058D00001F58374FFF074032FF582E43401F5833E
:1058E00074FFF074202FF582E43401121A2680C26E
:1058F000900CB91216567F3BFE1245BF900CB912A0
:1059000016771219591245BF900CB91216A6121823
:10591000B41245BF900CB91216D61219601245BFC9
:10592000E4FFEFC3940274809480501A74092FF539
:1059300082E43401F58374FFF074262FF582E43499
:1059400001121A2680DC900CB91216811218D3129B
:1059500045BF900CB912169C1218DB1245BF027796
:10596000CA900C9EEB1215B7E41214AF900C9E1265
:1059700016637002FF22E4900CA1F0A3F0900C9E3D
:1059800012148A12178324FFFFE5F034FFFE900CF7
:10599000A11218219E502012184A900CA6E02FF058
:1059A000900CA5E03400F0900CA2E004F070CE90D2
:1059B0000CA1E004F080C6900C9E12148A1217838A
:1059C0001219EF121B46FFC007900CA51217487D55
:1059D0000A121C0ED007129F8C900C9E12148A1271
:1059E00017831219EFEF121B85E4900CA1F0A3F0BE
:1059F000900C9E12148A121783FFC3900CA2E09F92
:105A0000900CA1E095F0506EE4900CA3F0A3F09000
:105A10000C9E12148A121783900CA312182095F072
:105A20005043900CA1E0FEA3E0FF6D7002EE6C60AD
:105A3000248F828E83121B46FF900CA3A3E0F58275
:105A40008C83121B46FD12A06C900C9E12148A903F
:105A50000CA312180A900CA4E004F070B2900CA3EE
:105A6000E004F080AA900CA2E004F07006900CA173
:105A7000E004F00259F07F0122900C2C124C73E4E8
:105A8000A3F0900C2FE0FF124C6B4003025B8B12D3
:105A90004C39E064AA6003025B82900C32F0900CF7
:105AA00030F0A3740BF0900C30E0FEA3E0FFC3EEE7
:105AB0006480948040467C007D02121C0EED6401DF
:105AC0004C7011124CB3124BF6124D2B540F640F45
:105AD000601A8010124CB3124BF6124D2BC4540FA7
:105AE000640F6008EB04900C32F08010900C31E0F1
:105AF00024FFF0900C30E034FFF080AAE4900C30EA
:105B0000F0A3F0900C32E0FFC374119FFFE4940007
:105B1000FEC3900C31E09FEE6480F8900C30E0649E
:105B20008098505EE4FF900C32E0FEEFC39E50314F
:105B3000EF540164017014900C2C124BCF124BD80F
:105B4000124C57E0540F6E60158016900C2C124BBF
:105B5000CF124BD8124C57E0C4540FB506030F8038
:105B6000C5900C32E0B5070A900C2FE0124C1CE0F7
:105B7000FF22900C31E004F07006900C30E004F04D
:105B80008081900C2FE004F0025A827F0022D39093
:105B90000603E09400900602E09400400CA3E02489
:105BA000FFF0900602E034FFF0900602E07002A3DE
:105BB000E06003025C9E900600E014603C14605DAF
:105BC000147003025C63147003025C958000D2DCE5
:105BD00030DB22C390063AE094DC900639E094056D
:105BE000500DA3E004F07006900639E004F022E4C2
:105BF00090063BF022126D2422C2DC900602E4F0F3
:105C0000A3741BF09006007402F0900637E02405A0
:105C1000F582E43406F583E0900604F02220DC12DD
:105C2000D2DC126DBF6005E4F0A38033E4F0A3047E
:105C3000F022C2DC126DBF6007E4F0A304F080061E
:105C4000E4F0A37403F0900604E0C313F09006019F
:105C5000E004F0C39408748094804042900600747D
:105C600003F022D2DC900637E004F0A3E0FF9006B8
:105C700037E0C39F50109006007404F0900602E4D1
:105C8000F0A3740AF022E4900600F090060204F0FB
:105C9000A3744DF0229006007401F0E4A3F022906A
:105CA0000C2C124C73A3124BCF121B2D124BCB1288
:105CB0001B2D6F6003025DAB124CE2900001124B92
:105CC000C7900001121B466F6003025DAB124CE2ED
:105CD000900002124BC7900002121B466F60030235
:105CE0005DAB900C2F124BCF900003124BC890006D
:105CF00003121B466F6003025DAB900C2F124BCF5B
:105D0000900004124BC8900004121B466F600302FF
:105D10005DAB900C2F124BCF900005124BC890003A
:105D200005121B466F6003025DAB900C2F124BCF28
:105D3000900006124BC8900006121B466F706C90C4
:105D40000C2F124BCF900007124BC8900007121B6C
:105D5000466F7057900C2F124BCF900008124BC813
:105D6000900008121B466F7042900C2F124BCF9080
:105D70000009124BC8900009121B466F702D900C41
:105D80002F124BCF90000A124BC890000A121B46EC
:105D9000B50718900C2F124BCF90000B124BC890E8
:105DA000000B121B46B507037F00227FFF227404FD
:105DB000900C4CF0A37401F0A322E0900000FEE0F0
:105DC000FBA3E0FAA3E0F922EBF0A3EAF0A3E9F0E9
:105DD00022EFFD3395E04D22F0EFA3F0900C4A74D2
:105DE00001F0A3227400F07400A3F07B017A007923
:105DF00000227400F07400A3F07B017A0079002285
:105E0000EFF0FD9000007401F0A37411F0A3740D85
:105E1000F07B017A1079E07F60228E827583000228
:105E20001B4624E6F582E43410F583EFF090000081
:105E3000E004F0227400F07400A3F07B017A007992
:105E400000227450F0E4A3F07B01900C4A04F0A30C
:105E500022900000E0FFC3940A748094802274367C
:105E60002FF582E4340CF583E022EEC394107480A5
:105E7000948022EFC3940474809480227B017A1171
:105E8000790D22EFFD3395E0FCED64FE4C2235F0F8
:105E9000FA7B01E025E025E02274E62FF582E43468
:105EA00010F583228F82758300EE021B857400F04B
:105EB000A37400227400F0A3740022900C2C124CE6
:105EC00073A3ECF0A3EDF0E4900C3FF0A3F0A3F08B
:105ED000A3F0129F30E4900C31F0900C31E0124CA2
:105EE000C64003025FC1E4A3F0FFEF124C97503CA1
:105EF000900C31E0FE124BFA2F124C58E0C4540FB4
:105F0000FDEF25E02433F582E4340CF583EDF0EE6B
:105F1000124BFA2F124C58E0540FFEEF25E02434B8
:105F2000F582E4340CF583EEF00F80BEE4FFEFFD64
:105F3000D3900C30E09D900C2FE094004019743306
