:03000000029C530C
:03000B0002BEA290
:0300130002C38B9A
:03001B0002B6A585
:0300230002CE2AE0
:0300330002D020D8
:03004B0002BFE30E
:03005B0002C111CE
:03006B0002C2AB23
:0300830002B805BB
:03008B0002B1A31C
:10010000900422E06003020B70123D03901490EF04
:10011000F0F4600312C8C6900461E0122319017C58
:100120000002660102E102033B05036F0602AE090D
:1001300003AB0B04440C04590D04640E048A0F0431
:10014000A31004AE1204C81304D51404FF1505440B
:100150001605571705811808501A09A21C087D1D9D
:1001600008B71F0A602708CA280A76290B4C2B0AF1
:10017000032C092B2D09EA2E00000B70901490E03F
:10018000FF640D6011EF641B700C900461741AF031
:100190009004107403F090042FE0FF6407600302E2
:1001A000023A12267D5033EF64076003020B709011
:1001B00014AD04F0741012241112285C1227F850A8
:1001C0000E749C2E122498900F8AE004F080ED901B
:1001D000042F7408F07F01020B4212242870217F43
:1001E0000112C5EB900129122549BEFF06BFFF038E
:1001F000E4F022E4900427F0A3F090042C04F02211
:100200001228056003020B7090012912238C7017CD
:100210007F0112C5EB900461741FF0E49003E1F0DC
:1002200090012974FFF02212C909900425E4F0A37B
:100230007496F09004617420F022901490E0FFF422
:100240007003020B70EF640C7003020B70900129B5
:1002500074FFF090042FE064096003020B707F01CB
:1002600012C5EB0208C212261F700302049D12255C
:10027000DB700302057B12280C70030204F9901452
:1002800090E064047003020877901490E0640570B5
:1002900003020B6A1224286003020B70120C7C12FA
:1002A00024B27F6012CE93120C74E40209FE12266F
:1002B0001F700F120B719004617429F0E49003FB1E
:1002C000F0221225DB700F120B71900461742BF079
:1002D000E49003DEF0221224286003020B70020473
:1002E0003E901490E0FF6401600AEF64026005EF45
:1002F00064037004E4120C7C12261F700E120B7E35
:10030000E490045FF090046102039C1225DB700E00
:10031000120B7EE490045FF09004610204EC12285A
:100320000C700D120B8B12288A900461740EF0224F
:100330001224286003020B7002043E12261F700F65
:10034000120B8B9004617412F0E49000FBF0221207
:1003500025DB7010120B989004617414F090041453
:10036000740AF0221224286003020B7002043E1269
:10037000261F7009120B9812278504F0221225DB24
:100380007009120BA5122785020B6112280C701040
:10039000120BA59004617417F0900569740FF02298
:1003A0001224286003020B7002043E12261F7017ED
:1003B000120BB2900461741812264F12615D12285C
:1003C000E212244302C58B1225DB700A120BB29095
:1003D0000461741D800D12280C700C120BBF900468
:1003E00061742DF0E4802E901490E064047010127B
:1003F0000BBF9004617428F0E49004F5F08016902F
:100400001490E064057014120BCC900461741CF01D
:10041000E4900543F01227F002086B901490E0641A
:10042000067013120BCC900461741AF0E49004105F
:100430001227EF020B611224286003020B70120BCB
:10044000D902CEAF90045FE064017003120C5D121C
:1004500024286003020B7080441227B56003020B4E
:100460007002054F900566E064086003020B70128D
:10047000277B700B900567F09005667409F022EFFA
:10048000640A4E6003020B70801390045FE0640105
:100490007003120C5D1224286003020B70120BD93A
:1004A00002CFFD1227B56003020B7002054F9000CA
:1004B000FBE064017008901490E0FF12A47712240E
:1004C000286003020B70803190016DE064016003CD
:1004D000020B70807A900414E0640B6003020B70CE
:1004E00012277B700B900415F0900414740CF0220A
:1004F000EF640A4E6003020B70120BE602D00B9001
:100500000462E06401700A901490E0FF12A4778006
:100510001A900462E0640370028008900462E06450
:10052000047008901490E0FF12A2CB9000D2E0700B
:10053000099000D5E07003020B70122428600302BA
:100540000B70803790047BE064016003020B7090B5
:100550001490E0FF02A477900569E0641060030244
:100560000B7012277B700B90056AF090056974116F
:10057000F022EF640A4E6003020B70120BE602D009
:1005800004901491E0701C1224EB4008EF640960A1
:10059000030207D2120C1A90040F12268A7401F07B
:1005A0000207D2901491E06401702D122428700388
:1005B0000207AD1224EB4008EF640960030207D282
:1005C0007F0112C5EB90040F1225E290040FF0900A
:1005D00014917402F00207D2901491E06402701B2F
:1005E000901490E012266140030207D2120C1A9078
:1005F000040E12268A7403F00207D2901491E0646C
:1006000003704112242870030207AD901490E0D3C8
:100610001224F340030207D27F0112C5EB90040EAF
:100620001225E290040EF0D394127480948040035B
:100630007412F090040EE0700204F09014917404AF
:10064000F00207D2901491E0640470221224287002
:10065000030207AD9014901225FD40030207D21249
:100660000C3590040C12268A7405F00207D29014FF
:1006700091E06405704112242870030207AD122432
:10068000EB4008EF640960030207D27F0112C5EB5B
:1006900090040C1225E290040CF0D39431748094F1
:1006A0008040037431F090040CE0700204F0901468
:1006B000917406F00207D2901491E0640670231240
:1006C000242870030207AD901490E01226BC40036A
:1006D0000207D2120C3590040B12268A7407F0021E
:1006E00007D2901491E06407703912242870030235
:1006F00007AD1224EB4008EF640960030207D27FC4
:100700000112C5EB90040B1225E290040BF0D39478
:10071000237480948040037423F09014917408F043
:100720000207D2901491E06408701E12242870020F
:10073000807B12286840030207D2120C6690040ADC
:1007400012268A7409F00207D2901491E0640970AD
:1007500028122428700280551224EB4005EF64090A
:1007600070707F0112C5EB90040A1225E290040A12
:10077000F0901491740AF08059901491E0640A701A
:100780001F122428700280251228685045120C661A
:10079000900409E0548F2FF0901491740BF0803284
:1007A000901491E0640B702A12242870077F0112C4
:1007B000C5EB80191224EB4005EF640970147F012A
:1007C00012C5EB9004091225E2900409F0E490149C
:1007D00091F0122805705990040FE0FF90040EE08C
:1007E000FD90040CE0FB1297F4EF3395E04F702D71
:1007F0007F0112C5EB12C55A789B7C0F7D017B01EE
:100800007A01792A122443124F539003FE1222D008
:10081000120C747D327F4412CDFA02099F7F647EF0
:100820000012D06A7B347D827F7612CECB02099F84
:100830001224286003020B70120BF312CEBD122695
:100840005012615D1228E2122443E4901491F022C8
:10085000900410E064016003020B70122805700F11
:10086000120BF3E4900411F09004107403F02212C0
:1008700024286003020B70120C0002099F12261F2D
:1008800070127AF57901120C0DE4900177F012C024
:100890009A02099F1225DB70107AF57904120C0D6B
:1008A0001228C812C09A02099F1224286003020B62
:1008B00070120C0002099F9003E1E06401600302E2
:1008C0000B70901490E0FF020A5D9004F5E0640163
:1008D0006003020B7012261F70139000F8F0900452
:1008E000F57402F07BFF7AF5792B0209BC1225DB47
:1008F00070289000F804F09004F504F012BD9BEF0E
:100900003395E04F70087F7A12CE93020A6F7BFF17
:100910007AF5792E12BEE3020A6F122428600302D0
:100920000B70120C289004F5020B6112261F701A2E
:100930009000F9122549BEFF08BFFF05E4F012C977
:10094000C77AF57919120C4380551225DB70459052
:1009500000F912238C703474FFF0E4900418F0A3B3
:10096000F090041CF0A3F012C61AEF2412FEE43338
:1009700090041AF0A3CEF090041EE4F0A37408F0E3
:100980009004227402F0E4900421F07AF5791C12AC
:100990000C43800B1224286003020B70120C2802F7
:1009A000CEBD900543E064016003020B7012261F68
:1009B00070109005441228E97AF5794012BEE302DE
:1009C0000A6F1225DB701290054474FF1228E97A31
:1009D000F5794312BEE3020A6F1224286003020B6A
:1009E00070120C50900543020B61901490E0FF646C
:1009F0000B6008EF640A6003020B701224B29004CB
:100A000061F02290042FE0FF6407703B12267D50B6
:100A100032EF64076003020B709014AD04F0901481
:100A2000AC741012241412285C1227F8500E749C17
:100A30002E122498900F8AE004F080ED90042F7419
:100A400008F02212242822901490E0FFF470030290
:100A50000B7090042FE064096003020B7002A2CBBC
:100A6000901490E0F47003020B707F3012CE937FED
:100A7000647E0002D06A9003FBE064026003020B14
:100A8000701225DB704DD39003F8E094009003F7CB
:100A9000E09400403A7F0112C5EB9003F8E024FF98
:100AA000F09003F7E034FFF07401122813C39004B0
:100AB00049E09F900448E09E500DA3E004F07006CA
:100AC000900448E004F022E4900448F0A3F0227F70
:100AD00007806F901490E06408706A1226F9D39032
:100AE00003F6E09F9003F5E09E40557F0112C5EBB1
:100AF0009004481228989400400DE024FFF09004E0
:100B000048E034FFF0802AEF4E70260412281312BA
:100B1000C811EF3395E0FEBEFF17BFFF1490F7C476
:100B200074019324FFFEE49334FF900448F0A3CEB5
:100B3000F09003F8E004F070069003F7E004F02270
:100B40007F0702C5EB1224287026801E9003DEE08A
:100B50006401701C122805700C7F0112C5EB900314
:100B6000DE7402F0221224287006120C5012D012E9
:100B7000227F0112C5EB7F647E0012D06A227F01C2
:100B800012C5EB7F647E0012D06A227F0112C5EB92
:100B90007F647E0012D06A227F0112C5EB7F647EE3
:100BA0000012D06A227F0112C5EB7F647E0012D052
:100BB0006A227F0112C5EB7F647E0012D06A227F19
:100BC0000112C5EB7F647E0012D06A227F0112C53C
:100BD000EB7F647E0012D06A227F0112C5EB7F6436
:100BE0007E0012D06A227F0112C5EB7F647E001264
:100BF000D06A227F0112C5EB7F647E0012D06A2288
:100C00007F0112C5EB7F647E0012D06A227BFF1247
:100C1000BEE37F647E0012D06A227F0112C5EB9092
:100C20001490E0C454F0FF227F0112C5EB7F647E74
:100C30000012D06A227F0112C5EB901490E0C454D8
:100C4000F0FF227BFF12BEE37F647E0012D06A2297
:100C50007F0112C5EB7F647E0012D06A229014904F
:100C6000E0FF12A477227F0112C5EB901490E0C43C
:100C700054F0FF227F647E0012D06A2290017FF040
:100C80007F0112A936224414F9000000004214FD2D
:100C90000000C112C113C109C106C107C108C10AC0
:100CA000C10BC10CC10D41150B0241150C004113C4
:100CB000CB00C103C102C100C101C1040154004104
:100CC000130C0042134900004114E800C1184115FB
:100CD0000F00C119C11A4213CD0000C110C10EC1CD
:100CE00011C10F4114F1004414C800000000581451
:100CF000B0040000400020000420001000000801A3
:100D0000000010400000808000461450FFFFFFFFED
:100D1000FFFF64000B8600000000000000000000E0
:100D200000000000000000000000000000000000C3
:100D300000000000000000000000000000000000B3
:100D400000000000000000000000000000000000A3
:100D50000000000000000000000000000000000093
:101110000000000000005606C0736C5F67656E65D6
:101120007269635F76312E302E302E30303300639B
:10113000E806D6013B01A400FE00690201019A0104
:10114000C201A9019F015E020B007D00D2008F0049
:101150008600C9013A00FA006600D601C300870084
:101160008201B3006800990191013001C400EA00D6
:10117000CC01A5012D008C008401950145020801D8
:101180003101AE016000F1019D00FD012E009100D2
:101190007800F0019C021401F500FB01440192016A
:1011A000410159013601F700E700D501F6015F0260
:1011B0001F008E0162020C00EB0216013801FE00D6
:1011C000CB0154009A020200D700F3021E02120063
:1011D000960200021C01C500E6021D007C01F80118
:1011E0009301550209015601B001AF006700CD011E
:1011F000A70213007B00F50140009800CE023402E4
:101200008D01A00278008C02090280020800F5021C
:101210007A00A4007E01A4025B00E6007C00660167
:10122000FA01F50200026200880212006A01CF0290
:101230000100EB020B009A014600820140025D00B2
:101240009101AA0136013B01CD01550108020C02B2
:101250008101F800960193020E0195023301F60018
:10126000FD01B0019601A5028A016C023101B401B1
:1012700009008601AE0068012D01B301AF00F30241
:1012800071021E008E009C0267010500A000F001A3
:1012900032027000A20266028E00CD008F0276023A
:1012A0006F00D6021D028301FE00A501440230003A
:1012B00098019C021400D5016400D2028501F70256
:1012C0005A00FB020B022301FE016400AF0108017A
:1012D0003C00D6028202C000CF008C01C401600035
:1012E000FD020E01C50202025B016F02F002DB018A
:1012F0003302A101D7014600A502FC006A02C9021F
:10130000F801C2019D006900F3020F027701DB02C0
:1013100078027A02DC025D019101A702E502400039
:101320007E0132015E00A2026902D500A001F70031
:10133000F6010100A300E700C9028A01D30285017A
:101340009C0214015601590201009C00D202FD00CA
:101350006B01000197019302080165029E01B5012E
:101360000F013800F7023100EB0234009D02F20257
:10137000A201CF02D3014000AA00D701D8016C021C
:10138000E4019201730237016D011202E701F702D5
:1013900077027401A0011E030F00F702A0016C0187
:1013A0007C026401D402C800A2015A02A8035902B7
:1013B000A3032700ED013C0169008E026502E000F5
:1013C0009E03450288015F01AE016002DE008001DC
:1013D00064021F010E032F01A40339033102CE0260
:1013E000BE019F034902A601AC0270025B00AA0283
:1013F00009006A019503690134025902BD020E0217
:10140000CC02EE009A0204034E00A4010702690117
:101410007001E7019D02380092036C01B0023103B4
:101420001201D8023001A101AF01FE02E901FB0067
:101430007D032601E2017A034F027D02FD02C20113
:1014400000034D01DC023A01410146020100EE02B7
:10145000EA02FB00AE00C000D203BD02D0035B0075
:10146000B202F603BE0069015A023301A30252031D
:101470007C024500D001120317015C0208017302CF
:10148000DF025903B7009E02F000CF0339032F0398
:101490005C018E03D402BF03480169027400D601C7
:1014A000B400F800DA034B023B019C038A009F035F
:1014B000C202C900C9028703CA00E60349033F0309
:1014C0007E01DE03860181024400A700BE024F03B5
:1014D0006A029300BD02A302FC00BA0167016D001D
:1014E0009401A403AC01E2024E018002E002F20387
:1014F0006703C8017203B101B303A4019A02070391
:1015000066018801D5013602B601870182013A03DE
:10151000D7038C017803220129039160C80ABEBB5E
:101520002B32FEA12B47C19CF2953F6426B6E1B455
:101530000376D3C72A2A908F602943484A6DA1C4F5
:10154000A6525E4C5177EACF7590B678846BACCAE0
:10155000FFB919C5B4BBBBA0157C10C3F2DE45B6FC
:10156000D5A455A7DAE71FCC5D6D4C395A7C24CB46
:10157000D7D23BDC083A804C5BDF5E3F9890D97D48
:10158000C58D1D34E4549B30B4BF379D562A4D3A67
:101590003BD68973BE44E2283A909AA8FB5E5D7FF1
:1015A000FD4FE56D6F7BC46EB988CABC30CB49BBBB
:1015B000319FD5D623378064BD8794A74138E39BFC
:1015C00042518AE3344D167E9128FFBCF7BC2F921E
:1015D000E2555EBD0D6BACE350A192DAD85C983950
:1015E0003A65C0B8CD6FCB4214DF00004114CC0087
:1015F0004215070000411490FF4114F8004114F611
:10160000FF4114F700C11B41151000613111C000EA
:10161000000000808080000000000000000000004A
:101620000000000080C0E0F0F8F8F8FCFCFCFCFCD6
:10163000F8F8F8F0E0C080000000000000000000B2
:1016400000000000008080800000000080F07C0F1F
:1016500003C1F03C0E82E0781800000000C0F0FCEE
:10166000FFFFFFFFFFFFFFFFFFFFFFFFFFFFFFFF8A
:10167000FFFFFFFFFFFCF8C0000000001878E082C9
:101680000E3CF0C1010F7EF080031FFCE000071F3D
:1016900078E0830F3C300000C0FCFFFFFFFFFFFF3E
:1016A000FFFFFFFFFFFFFFFFFFFFFFFFFFFFFFFF4A
:1016B000FFFFFFFFFFFCE00000303C0F83E0781FDE
:1016C0000780E07C1F03000000010303020000000C
:1016D0000000F0FCFF9F0F0703030301010101302D
:1016E00078FCFCFCFCFCFCFC7830010101010303EC
:1016F00003070F9FFFFCF00000000000020303013E
:1017000000000000000000000000000000000000D9
:101710000307070F0E1C1C3C38383870707070704F
:101720007070707070707070383838381C1C1E0FF4
:101730000707030000000000000000000000000098
:1017400000900FA5EFF0E4900FADF0900FA5E0FF33
:1017500025E02424F8E6FC08E6FD75F002EFA42459
:101760000DF582E5F03413F583E0FEA3E0C39DFFA1
:10177000EE9C900FA6F0A3EFF0E47F01FEFDFC903D
:101780000FA5E0F9F81222888F0F8E0E8D0D8C0CAC
:10179000AF0112CFBE900FABEEF0A3EFF0C3900FEE
:1017A000A7E09FEE6480F8900FA6E0648098400860
:1017B000900FA87401F08005E4900FA8F0900FA896
:1017C000E0640160030219BD900FA5E0FF2425F538
:1017D00082E43413F583E0C394FA74809480500D4E
:1017E00074252FF582E43413F583E004F0E50B55FE
:1017F0000FFFE50A550EFEE509550DFDE508550CF0
:10180000FCE4FBFAF9F8C312226460030219839026
:1018100012F1E0900FAAF012D058EF6047E4900F59
:10182000A8F0A3F0900FA9E0FFC3951050227425F3
:101830002FF582E43413F583E0C39401748094801F
:101840004006900FA8E004F0900FA9E004F080D4C7
:10185000900FA8E0C39403748094804007900FAA6F
:10186000E0240FF0900FA5E02425F582E43413F571
:1018700083E0FF900FAAE0FEEFC39E50030219839E
:10188000E4900FA8F012CFA6EF6003021910900F9A
:10189000A9F0900FA9E0FFC39510502C900FA5E080
:1018A0006F601D12CF4B900FA9E02425F582E43420
:1018B00013F583E0C39F4008900FA87401F08008DF
:1018C000900FA9E004F080CA12D058EF3395E04F92
:1018D0006003021961900FA8E06003021961A3F090
:1018E000900FA9E0FFC395105077900FA5E06F60AF
:1018F0001712CF4B900FA9E02431F582E43413F591
:1019000083E0C39F40028053900FA9E004F080D091
:1019100012D058EF3395E04F7047900FAAF0900F18
:10192000A9F0900FA9E0FFC39510502274252FF560
:1019300082E43413F583E0C39402748094804006FB
:10194000900FAAE004F0900FA9E004F080D4900F6B
:10195000AAE0C39403748094804006900FA8740199
:10196000F0900FA8E064017002D214E50B450FF56A
:101970000BE50A450EF50AE509450DF509E50845AB
:101980000CF508900FA5E0FF2463F582E43413F50D
:1019900083E4F074BF2FF582E43413F583E4F0752B
:1019A000F002EFA4244BF582E5F03413F583E4F064
:1019B000A3F074F42FF582E43412021D4C900FA5AD
:1019C000E0FF12CC55900FA6E0FCA3E0FDD39FEE04
:1019D0006480F8EC6480984012900FA5E02431F503
:1019E00082E43413F583E004F080159014EAE004F7
:1019F000F0900FA5E02431F582E43413F583E4F090
:101A00009013A6E0FF3395E0FEC3E49FFBE49EFA4B
:101A1000C3ED9BEA6480F8EC6480985003021B15C8
:101A2000D3900FA7E09FEE6480F8900FA6E064804B
:101A3000984003021B15900FA5E0FF2463F582E494
:101A40003413F583E4F074F42FF582E43412F58353
:101A5000E4F0FFFEFDFCAB0BAA0AA909A808C3121B
:101A600022646003021C51900FA6E0FEA3E0FF90E9
:101A70000FA5E075F002A4244BF582E5F03413F5D0
:101A800083EE8FF012201212CF09900FA5E075F0AF
:101A900002A4244BF582E5F03413F583E0FCA3E0C7
:101AA000C39FEE6480F8EC6480984013900FA5E02B
:101AB000FF25E02424F80806E6187043068040124B
:101AC000CF09C3E49FFFE49EFE900FA5E075F002EE
:101AD000A4244BF582E5F03413F583E0FCA3E0C3C6
:101AE0009FEE6480F8EC6480984003021C51900FD4
:101AF000A5E0FF25E02424F808E616187001167505
:101B0000F002EFA4244BF582E5F03413F583E4F002
:101B1000A3F0021C519013A6E0FF3395E0FEC3E44E
:101B20009FFFE49EFEC3900FA7E09FEE6480F890B5
:101B30000FA6E06480984003021BC7900FA5E0FF4A
:101B40002463F582E43413F583E004F074F42FF594
:101B500082E43412F583E4F074632FF582E43413E5
:101B6000F583E0FF75F00A84E5F07046C3EF9464F6
:101B700074809480900FA5E040142463F582E434CF
:101B800013F583E4F0D2159013CB04F0802425E004
:101B90002424F8C000E6FE08E6FF9013A6E0A2E7C2
:101BA00013FD3395E0FCC3EF9DFFEE9CD000F608DB
:101BB000A607900FA5E0FF9014E3E06F6003021CFE
:101BC0005174FFF0021C519013A6E0FF3395E0FE24
:101BD000D3900FA7E09FEE6480F8900FA6E064809A
:101BE00098406E900FA5E02463F582E43413F583EA
:101BF000E4F0FFFEFDFCAB0BAA0AA909A808C3127A
:101C00002264704D900FA5E0FF24F4F582E43412B5
:101C1000F583E004F074F42FF582E43412F583E0E8
:101C20006420702D900FA5E0FF24F4F582E43412B7
:101C3000F583E4F09013A6E0A2E713A2E713FD33C7
:101C400095E0FCEF25E02424F808ED26F618EC36A4
:101C5000F6E50B550FFFE50A550EFEE509550DFD9E
:101C6000E508550C4D4E4F7003021D62900FABE01E
:101C7000FCA3E0FDAE047802CEA2E713CE13D8F8A1
:101C8000FFC3ED9FFFEC9EFEC3900FA7E09FEE64A5
:101C900080F8900FA6E06480984003021D51900FD9
:101CA000A5E024BFF582E43413F583E004F012CFFD
:101CB000AE900FAAEFF0E4900FA9F0900FA9E0FF0B
:101CC000C39510502274252FF582E43413F583E078
:101CD000C39401748094804006900FA8E004F090B3
:101CE0000FA9E004F080D4900FA8E0C3940374809F
:101CF000948040089012F1E0900FAAF0900FA5E0B8
:101D0000FB24BFF582E43413F583E0FF900FAAE0D3
:101D1000FEEFC39E5003021DD174BF2BF582E43445
:101D200013F583E4F0AF0FAE0EAD0DAC0C122257DD
:101D3000E50B5FF50BE50A5EF50AE5095DF509E5DA
:101D4000085CF50874252BF582E43413F583E4F080
:101D500022900FA5E024BFF582E43413F583E0144C
:101D6000F022900FA5E02425F582E43413F583E4F6
:101D7000F0FFFEFDFCAB0BAA0AA909A808C31222BA
:101D8000647008900FA5E0FF129A7AE51014FF9096
:101D90000FA5E06F703B9014EAE0C395104032E469
:101DA000900FA9F0900FA9E0FFC39510501B742568
:101DB0002FF582E43413F583E06006900FA87401D8
:101DC000F0900FA9E004F080DB900FA8E07002C251
:101DD0001422E709F608DFFA8046E709F208DFFA7D
:101DE000803E88828C83E709F0A3DFFA8032E30922
:101DF000F608DFFA8078E309F208DFFA807088825B
:101E00008C83E309F0A3DFFA806489828A83E0A3EC
:101E1000F608DFFA805889828A83E0A3F208DFFAA5
:101E2000804C80D280FA80C680D4806980F2803372
:101E3000801080A680EA809A80A880DA80E280CA3A
:101E4000803389828A83ECFAE493A3C8C582C8CC24
:101E5000C583CCF0A3C8C582C8CCC583CCDFE9DE7E
:101E6000E7800D89828A83E493A3F608DFF9ECFA10
:101E7000A9F0EDFB2289828A83ECFAE0A3C8C5822F
:101E8000C8CCC583CCF0A3C8C582C8CCC583CCDF81
:101E9000EADEE880DB89828A83E493A3F208DFF933
:101EA00080CC88F0EF60010E4E60C388F0ED240214
:101EB000B4040050B9F582EB2402B4040050AF23FF
:101EC00023458223901E2273BB010689828A83E008
:101ED000225002E722BBFE02E32289828A83E49336
:101EE00022BB010CE58229F582E5833AF583E022E5
:101EF0005006E92582F8E622BBFE06E92582F8E2D3
:101F000022E58229F582E5833AF583E49322BB0139
:101F10000FF8E58229F582E5833AF583E028F0227F
:101F20005009C58229F8E58226F622BBFE09C58242
:101F300029F8E22582F222F8EA2583F583E993283D
:101F400022BB010689828A83F0225002F722BBFE5F
:101F500001F322F8BB010DE58229F582E5833AF50C
:101F600083E8F0225006E92582C8F622BBFE05E987
:101F70002582C8F222EF8DF0A4A8F0CF8CF0A4281F
:101F8000CE8DF0A42EFE22BC000BBE0029EF8DF0FA
:101F900084FFADF022E4CCF875F008EF2FFFEE33AC
:101FA000FEEC33FCEE9DEC984005FCEE9DFE0FD55B
:101FB000F0E9E4CEFD22EDF8F5F0EE8420D21CFE2F
:101FC000ADF075F008EF2FFFED33FD400798500698
:101FD000D5F0F222C398FD0FD5F0EA22C2D5EC303D
:101FE000E709B2D5E4C39DFDE49CFCEE30E715B2F1
:101FF000D5E4C39FFFE49EFE121F87C3E49DFDE46A
:102000009CFC8003121F8730D507C3E49FFFE49E2A
:10201000FE22C5F0F8A3E028F0C5F0F8E5821582AD
:1020200070021583E038F022A3F8E0C5F025F0F047
:10203000E582158270021583E0C838F0E822BB0102
:102040000A89828A83E0F5F0A3E022500687F0092E
:10205000E71922BBFE07E3F5F009E3192289828A1A
:1020600083E493F5F074019322BB0110E58229F516
:1020700082E5833AF583E0F5F0A3E0225009E925F3
:1020800082F886F008E622BBFE0AE92582F8E2F52E
:10209000F008E222E5832AF583E993F5F0A3E993BA
:1020A00022BB010DC58229C582C5833AC5830220A2
:1020B000125011C58229F808E5F026F618F5F0E56A
:1020C0008236F622BBFE11C58229F808E225F0F51A
:1020D000F0F218E23582F222F8E58229F582E583F2
:1020E0002AF58374019325F0F5F0E4933822BB01BF
:1020F0000A89828A83F0E5F0A3F0225006F709A747
:10210000F01922BBFE06F3E5F009F31922F8BB0132
:1021100011E58229F582E5833AF583E8F0E5F0A33D
:10212000F0225009E92582C8F608A6F022BBFE0974
:10213000E92582C8F2E5F008F222E88FF0A4CC8B02
:10214000F0A42CFCE98EF0A42CFC8AF0EDA42CFC6D
:10215000EA8EF0A4CDA8F08BF0A42DCC3825F0FDAC
:10216000E98FF0A42CCD35F0FCEB8EF0A4FEA9F0A5
:10217000EB8FF0A4CFC5F02ECD39FEE43CFCEAA4F1
:102180002DCE35F0FDE43CFC2275F008758200EFA1
:102190002FFFEE33FECD33CDCC33CCC58233C58299
:1021A0009BED9AEC99E58298400CF582EE9BFEED52
:1021B0009AFDEC99FC0FD5F0D6E4CEFBE4CDFAE421
:1021C000CCF9A88222B800C1B90059BA002DEC8B15
:1021D000F084CFCECDFCE5F0CBF97818EF2FFFEEF1
:1021E00033FEED33FDEC33FCEB33FB10D7039940AA
:1021F00004EB99FB0FD8E5E4F9FA227818EF2FFFEA
:10220000EE33FEED33FDEC33FCC933C910D7059B2B
:10221000E99A4007EC9BFCE99AF90FD8E0E4C9FA87
:10222000E4CCFB2275F010EF2FFFEE33FEED33FD13
:10223000CC33CCC833C810D7079BEC9AE899400A36
:10224000ED9BFDEC9AFCE899F80FD5F0DAE4CDFBB4
:10225000E4CCFAE4C8F922CFF4CFCEF4CECDF4CD5D
:10226000CCF4CC22EB9FF5F0EA9E42F0E99D42F0DF
:10227000E89C45F022E8600FECC313FCED13FDEE83
:1022800013FEEF13FFD8F122E8600FEFC333FFEE28
:1022900033FEED33FDEC33FCD8F1227401FF3395AE
:1022A000E0FEFDFCA3A3A3E0CF2FF0E58215827032
:1022B000021583E0CE3EF0E582158270021583E0C0
:1022C000CD3DF0E582158270021583E0CC3CF02212
:1022D000ECF0A3EDF0A3EEF0A3EFF022A88285834B
:1022E000F0D083D0821222F31222F31222F31222B0
:1022F000F3E473E493A3C583C5F0C583C8C582C85E
:10230000F0A3C583C5F0C583C8C582C822A42582B1
:10231000F582E5F03583F58322D083D082F8E4930B
:102320007012740193700DA3A393F8740193F58256
:102330008883E4737402936860EFA3A3A380DFEC47
:102340008EF0A4CCC5F0CCCDF8EFA4CEC5F02DFD19
:10235000E43CFCE8A42EC8C5F03DFDE43CFCEFA441
:10236000FFE5F028FEE43DFDE43CFC227AF379032E
:102370007BFFE4900FDFF0227AF3791A7BFFE49081
:102380000FDFF022E490149AF090053FE0FF3395C0
:10239000E0FEEF4E227AF3791F7BFFE4900FDFF02F
:1023A000227AF3795A7BFFE4900FDFF02290045EEB
:1023B000E0FF14F0EFC3940174809480227BFF7AD5
:1023C000F279F0E4900FDFF0227AF379407BFFE4BA
:1023D000900FDFF0227AF379387BFFE4900FDFF083
:1023E00022E4900461F090042F7407F0E4900180DF
:1023F000F09004F87407F0227AF3790E7BFFE490F2
:102400000FDFF0227404900462F0E49014ADF074D5
:102410000C9014ACF09014AE7401F0227AF2791E94
:102420007BFFE4900FDFF022901490E0640A2235E5
:10243000F0FA7BFFE025E0FFE4900FDFF0FD227D66
:10244000017BFF7E007F07021EA2901498E0FFA38D
:10245000E0FEC39F22E0C4540FFB900FB27401F062
:10246000229006BE74FFF5F0122012FEC3E5F09430
:1024700001EE940022740E900479F0900478748038
:10248000227418900FDDF0A374FFF0A3227BFFE409
:10249000900FDFF022749C2FF582E43414F58374DE
:1024A000FFF0229000F7E0FF7E00D3940074809448
:1024B000802290042F7407F09004F8F0E4900180DB
:1024C000F0227BFFE4900FDFF022E0FEA3E0FF7C30
:1024D000007D64121F877F0A7E00CFCDCFCECCCE89
:1024E000121F87AB07E4900FB2F022901490E0FF28
:1024F0007E00C3940974809480229004627413F067
:102500007401A3F0A3E4F0A37480F0227BFFE490B5
:102510000FDFF022FF24FCF58274FF3EF583ECF020
:10252000A3EDF074FE2FF58274FF3EF5837401F085
:1025300074FF2FF58274FF3EF583227AF279E17BF6
:10254000FF900FDFF0229000EEE0FF3395E0FE22D7
:102550007D017BFF7E007F06021EA27BFFE4900FC1
:10256000DFF022900F8AE0FFC3940C7480948022E5
:102570007AF379537BFF900FDFF02290045F740CA5
:10258000F09003F4E0900460F090045E7480F02218
:1025900090149BE06401227BFFE4900FDFF0229017
:1025A00000CBC3E094057480948022901499E004D9
:1025B000F022900477E024FFFF900476E034FFFEE1
:1025C00022E0FBE4900FDDF0227D017BFF7E000224
:1025D0001EA27BFF900FDFF07D2422901490E06418
:1025E0000222E054F0FF901490E02F2290046474D3
:1025F00002F0A37480F090046DE0640122E0C394C3
:10260000047480948022F09000C8E4F0A3F0A3F05A
:10261000229006B9F09006BEE4F0A37440F0229038
:102620001490E0640122E49000CCF0A3742BF0A39A
:1026300074F2F022FF24FCF58274FF3EF58374FFF0
:10264000F0A3F074FE2FF58274FF3EF583E422F0D0
:102650009003FEE0FCA3E0FDA3E0FEA3E0FF22E088
:10266000FFC394027480948022F0A37401F07BFF76
:102670007AF5794E227BFFE4900FDFF022901490E0
:10268000E0FDC3940A7480948022E0540F2FF090F0
:1026900014912204F0E4901497F02290046E74FFD9
:1026A000F5F0122028FEC3E5F09401EE64809480DA
:1026B000227D017BFF7E00021EA2E0FFC394037413
:1026C000809480227C007D0AE0FEA3E0FF021F8749
:1026D000900410F09004127440F0E422E4F09004AE
:1026E000617424F09000F522901497E0FF7E00645E
:1026F0000222900F8AE004F0229003F8E09003F7A2
:102700002401FFE03400FE227E0090045CEEF0A382
:10271000EFF024FFFFEE34FFFE22900479740EF0F8
:10272000A3740CF0E422F0A37403F0A37480F07D92
:10273000347F4822901493E0FCA3E0FD900476ECF3
:10274000F0A3EDF0229000F8E0640122E004F090A4
:10275000045CE0FCA3E0FDAE04780222900478E083
:1027600014F0229004627413F0227BFFE4900FDFD8
:10277000F022E0C394647480948022901490E0FF6F
:102780007E00640B229004617415F0E4900462F002
:1027900090046D2274EBF0A37447F0E4A3F07B1B6C
:1027A0002290042F7407F0227403F0E49003F3F0F6
:1027B000901497F022900479E0640122900000F0D8
:1027C000A3F0229004F2E0640122E014F090047679
:1027D000E0FEA3E0780222A3740EF09004F47426C5
:1027E0002274EEF0A374CC2274EEF0A374EC22F009
:1027F000901499F0901498229014ACE0FF900F8AF6
:10280000E0FEC39F22901490E0640B22901490E0AD
:1028100064032290F7C49324FFFFE49334FFFE2265
:10282000E024FFF09000F5E034FFF022900479748A
:1028300002F0E4900540F022F090046E7401F0A3E1
:102840007440F022EF3395E0FEEFF4227BFFE4903A
:102850000FB4F0227B01E4900FB4F02290149CEDB1
:10286000F0900F8A7401F022901490E0C3940674E3
:10287000809480229004647402F0A37480F022900B
:10288000046474FFF5F0022028F09005667411F0DE
:10289000227BFF900FDFF022E0FEA3E0FFD3940045
:1028A000EE22F0E49004F2F0227B017A14799C226B
:1028B00090047FE0640122E4900FDFF07D1E7F032F
:1028C000227B037D037F032290017774FFF022E4D3
:1028D0009000EDF0A3F0A3F0227D017BFF7E0002CB
:1028E0001EA2782A7C017D0122F09005437402F03B
:1028F0007BFF22E4900F89F0900F88F02290101255
:10290000122D74E490101A122D52A3122D52901011
:1029100012122D4A4A4B7002FF22901012122D4AB9
:10292000F990000F12307FC002C001901015122FD5
:102930003D901049C9122D75901018E0FFA3E0904A
:10294000104CCFF0A3EFF0D001D00212346DEF7035
:1029500002FF22901012122D4AF9122F5B24FE6002
:1029600076147003022AAE147003022B97240360BE
:1029700003022CF3E4901028F0A3F0901012122D13
:102980004A122E6995F0500D122EE870EE90102824
:10299000E004F080E6901012122D4A122DBBED6B70
:1029A0007001EC6003022D03901012E0FBA3A390D2
:1029B0000007122EC3FDACF0122F77900008122DE5
:1029C000F53E122DED122E926003022D039010128F
:1029D000122D4AF9022CEA1230F51294A890101226
:1029E000122D4AF9900005122EC3FDACF01230EF03
:1029F000900006122DF53E90101AF0A3EFF0123061
:102A0000781230B1900008122F7D900009122EB973
:102A10002DFFE5F03CFE90000A122DFF90102612CB
:102A200030FC7C057DA0121F8790101A1230C77CE5
:102A3000007D06121F75EF2BFFEE3A90101EF0FC82
:102A4000A3EFF0FD901012122D4A2416F9E43AFA81
:102A5000C004C005901026122F4C90104BECF0A330
:102A6000EDF0D005D004125FD878467C10122E46C7
:102A7000901012122D4A785E7C10122FD3122D174F
:102A8000122D4A122E916003022D0390102C122E4B
:102A90008A94FDEE6480947F5003022D03D3EF945B
:102AA0000FEE648094804003022D03022CEA123062
:102AB000F51294A8E4901028F0A3F0901012122DB3
:102AC0004A122E6995F0500D122EE870EE901028E3
:102AD000E004F080E6901012122D4A122DBBED6B2F
:102AE0007001EC6003022D03901012E0FBA3A3120F
:102AF000307875F0038475F00AA4FF900006122D5B
:102B0000FF35F090002E8FF012210D12307875F005
:102B10000384E5F075F00AA4FF900008121EE12F6F
:102B200090003012302F90002E12305EC3EE9400D1
:102B30005003022D03D3EF9417EE94004003022DAF
:102B400003901012122D4AF9900030122069FDAC4A
:102B5000F0D39FEC9E5003022D03D3ED9418EC9418
:102B6000004003022D03122E926003022D039000F9
:102B70002E122069FF901034122E7495F05003022B
:102B80002D03900030122069FFC3ED9FEC95F040BB
:102B900003022D03022CEA1230F512A3EA90101260
:102BA000122D4AF9900004122EC324E3FFE5F034FD
:102BB00007FE900005122DFF90101C1230FC9010A3
:102BC0002E122FB84003022D03C390101DE09DFF6D
:102BD00090101CE09CFEC3EF9403EE9400400302AF
:102BE0002D03901012A3A3122F771230B19000077B
:102BF000122F7D900008122EB92DFFE5F03CFE90BB
:102C00000009122DFF3EFE901028F0A3EFF0C394B0
:102C100051EE94224003022D03901028E0FAA3E025
:102C2000FB7D18122F1A90101EEEF0A3EFF07C001F
:102C30007D18AF03AE02121F87901024ECF0A3EDB5
:102C4000F090101CE0FEA3E0A31230187410F0A363
:102C50007422F07B017A10792012711790101212F1
:102C60002D4A2416F9E43AFA90101CE0FCA3E0FD8A
:102C7000901020E0FFA3E090104BCFF0A3EFF09076
:102C80001022E0FFA3E090104DCFF0A3EFF09010E2
:102C900024E0FFA3E090104FCFF0A3EFF012A722A3
:102CA000901012122D4A78467C10122FD3785E7C39
:102CB00010122E46122D17122D4A122E917044D347
:102CC00090102DE0940090102CE0648094804033AC
:102CD000900024122069FF90103C1230D1E5F09C46
:102CE000FEC3EF94E7EE9403501990000FE475F0E3
:102CF00001800D901012122D4AF990000FE4F5F0AA
:102D000012210D901012122D4AF990000F122E95DB
:102D10007F0070027F012212A82E90102CEEF0A3EB
:102D2000EFF09010122290005BE412210D901049F8
:102D3000E0FBA3E0FAA3E0901054F9E0FEA3E0F575
:102D4000828E83121EE1FF901046E0FBA3E0FAA3FF
:102D5000E022F0A3F0A3F0A3F0A3F0A3F0A3F0A36C
:102D6000F0A3F0A3F022A3E0FAA3E0240490104F14
:102D7000F9E43AFAEBF0A3EAF0A3E9F022F99000C3
:102D80000E122069FFAEF07C007D06121F879000B6
:102D900010EE8FF012210D90000E122069FFAEF0A0
:102DA0007C00227D3C121F75900008122069900063
:102DB0000C2FFFEE35F08FF002210DF99000091273
:102DC0001EE1FFFDC390102BE09DF090102AE094CF
:102DD00000F0EFFB7D0AE0FEA3E0FF7C00021F870E
:102DE0003EFE9000081220692FFFEE35F09000148F
:102DF0008FF002210D75F064A42DFFE5F03CFE126A
:102E00001EE17C002FFFEC22900001121EE1FF90DA
:102E10000041E48FF012210D900002121EE190009B
:102E200043FFE48FF002210D900012122069FFAEE3
:102E3000F07C057DA0021F75900012F9EC8DF01258
:102E4000210D900006227B017A10792E7E007D01F3
:102E50007F18021EA27C007D64121F877F0A7E00FD
:102E6000CFCDCFCECCCE021F87F990000D122069B6
:102E7000901028FFE0FCA3E0FDC39FEC22E0C454C7
:102E80000F75F00AA4FFE0540F22E0FEA3E0FFC399
:102E900022F990005D122069640145F022FF121EA4
:102EA000E1FD12CF83AE0790101222F9121EE1FF4E
:102EB000AD0612CE669010122275F064A42DFDECC2
:102EC00035F0FC121EE175F00AA422CFF0A3EFF05A
:102ED0007B017A0F79B222F990000D022069FFE0A0
:102EE000FD12CE66901012228D828C83121EE1FF9D
:102EF00090102BE02FF090102AE03400F090102971
:102F0000E004F0227D017BFF7E00021EA2900006FD
:102F10008FF002210DE0FAA3E0FBFFAE02021F8753
:102F2000F9E0FEA3E0FFF5828E83021EE1F9E0FCEA
:102F3000A3E0F5828C83EF021F53900FA8E0F9A362
:102F4000E0FAA3E022A3ECF0A3EDF0227C057DA043
:102F5000E0FEA3E0FF021F87121F53900011021E24
:102F6000E1F9900002EF121F53900003021EE1F9F5
:102F7000900005EF121F53900006021EE1AC06AD53
:102F800007021EE1900002F9EE8FF002210DFFE032
:102F9000FD12CF839010122234F8FE7C007D0F12B8
:102FA0001F87ED24E3FFEC340722E0FFA3E090004D
:102FB00004CF8FF002210DFFE0FCA3E0FDD39FECD6
:102FC0009E222FFEEC35F0F0A3CEF0227C277D1060
:102FD000021F872416F9E43AFA7D017E007F180269
:102FE0001EA2A3E0FAA3E02406F9E43AFA901052F4
:102FF00022A3E0FAA3E02408F9E43AFA901055225B
:10300000F98D828C83121EE1FF22F9900008EF12E5
:103010001F53900009021EE1FFE0FCA3E0FD9010A9
:103020005E7401F0A32224FFFFE5F034FFFE22FFCF
:10303000EC35F08FF002210DA37407F0A374E3F0D8
:10304000227D017BFFFE021EA233FE74672FF582F4
:1030500074103EF58322F98F828E83021EE11220C6
:1030600069FFAEF022A3E0FEA3E0FFED6F22901017
:103070005CFFE4F0A3EFF022900007021EE1F9E408
:10308000F5F002210DAF05AE04AD03AC02021F87BF
:1030900074FF2DF58274FF3CF5832290104CE0FE06
:1030A000A3E09010502224FFF58274FF35F0F583E1
:1030B00022FF7E007C037DE8021F75C98DF002208F
:1030C000EEC98FF00220EEAA06AB07E0FEA3E0FFF8
:1030D00022E0FCA3E0FDC3EF9DFF229400CF24017A
:1030E000FBE43FFA22F990001212206925E02290B9
:1030F0000004021EE17B017A10792E223EFEF0A32D
:10310000EFF022900462E060030231A59000D2E06B
:10311000702690046DE06402701E9000D5E0701877
:1031200012276374071225027F3E12CE9312CE75CA
:103130001223D57D0E0233BF90046DE0FF7E006444
:1031400001700E9000D5E012266150028001C3503C
:1031500018EF64024E70329000D4E0C3940874807B
:10316000948050028001C34020122763A37406128A
:1031700025037F5812CE937F647E0012D06A12CE50
:10318000751223C97D240233BF9004627401122694
:1031900094900F8AF0122563400302344E12249556
:1031A0001226F280F0900462E06401704D74031204
:1031B0002838E49014971225F5700512CB6C800323
:1031C00012CB39900466EFF012240AE4900F8AF0D3
:1031D00012256350081224951226F280F31225EC72
:1031E0007B5270047D4C80027D4E7F6612CECB12E6
:1031F000CE751223F87D1E0233BF900462E0640393
:1032000060030232AE12CE751223F87D1E7F0312C8
:103210006737E4123463E0640270739014ADD31224
:1032200025A34053E4900F8AF0900F8AE01225689E
:10323000501EE0FF249CF582E43414F583E0FE7414
:10324000842FF582E43414F583EEF01226F280D94F
:10325000122404E4900F8AF012256350081224957A
:103260001226F280F31225EC7B5270047D4C800212
:103270007D4E7F6802CECB7403122406E4900F8A41
:10328000F012256350661224951226F280F39014F2
:10329000AEE064037002805E12269B400302344E4F
:1032A0001224FA12344F1223957D240233BF900466
:1032B00062E0640470641234631226EB703290147E
:1032C000ADE0D31225A440079004627405F02212E9
:1032D0002404E4900F8AF0900F8AE0FD12256850D4
:1032E0000B749C2D1224981226F280EB1228742263
:1032F000EF64034E700E122763A3740CF0A3E4F086
:10330000A304F02212269B400302344E1224FA1228
:10331000344F1223957D240233BF900462E064058C
:1033200060030233C47B01900F8E04F0A37414F089
:10333000A3749CF07A147984127BFDEF3395E04FEF
:10334000706A1228A9127472EF70431228A99004AF
:1033500066E0FD129F521228447002EEF4600302F0
:10336000344E9004627412F09004641225057D328C
:1033700012345A1223787D247F031267371225F600
:1033800070059000D580039000D4E004F02212274D
:1033900063A374041225037D527F5612CDFA12CE18
:1033A000757AF379241224C27D248013122763A333
:1033B00074091225037D3412345A1223957D247F1B
:1033C00003026737900462E06412702812287F12AB
:1033D000246B507A9000D2E070121225F6700D9096
:1033E00000D5E06401700512CEAF800312D0047FD7
:1033F0000602510E900462E06413705212287F128C
:10340000246B504A900463E0FF7E00640C700E90C1
:1034100000D2E070089000D5E0700280119000D2D8
:10342000E0700F1225F6700A9000D5E070041223A8
:10343000E222EF64064E600E900463E0FF640C60CD
:1034400005EF640770051225F6800012D004227D76
:10345000347F4412CDFA12CE75227F4412CDFA1277
:10346000CE7522FD7F0512B52A9014AE229010462B
:10347000122D74E490104E122D5E90104CE0FCA3BF
:10348000E0FD901052ECF0A3EDF0122D471230E564
:10349000FBE5F033FAED24FAFFEC34FFFE7C007D0F
:1034A00005121F879006D675F0C8ED12230DEC7536
:1034B000F0C8A42583F583E5822BF582E5833AF5F0
:1034C00083E0FEA3E0FBAA067C007D64FF121F8759
:1034D000901054EEF0A3EFF0AF03AE02122E55A3FE
:1034E000EEF0A3EFF0AE02AF037C007D0A121F875F
:1034F000122F45E4122D5D90104DE024F5FE901042
:103500004CE034FF90105EF0A3CEF0122D474A4BF2
:103510007002FF22122D47F990001212305ED394F0
:1035200000EE94004008EF9464EE940040037F00A6
:1035300022901052122E8A9406EE94004009D3EF86
:10354000940CEE940040037F002290105E122E8AAD
:10355000EE9400405BD3EF9402EE94005052901032
:1035600055E09F901054E09E500CA3E0240AF09088
:103570001054E03400F0D3901057E09F901056E0C4
:103580009E500CA3E0240AF0901056E03400F09016
:10359000105EE0FEA3E0FFD3901059E09F9010581A
:1035A000E09E500CA3E0240AF0901058E03400F0A4
:1035B000901050E4F0A304F012309B122FB7503358
:1035C0009010541230667002EC6E60171230657005
:1035D00002EC6E600E1230657002EC6E6005122F08
:1035E000458010901051E004F070CD901050E00430
:1035F000F080C5E4901050F0A3F012309B122E73AF
:103600009E5026901049122D4A12300090104FE023
:103610002FF090104EE03400F0901051E004F07064
:10362000D9901050E004F080D1122D47F9122F5B91
:10363000FF64016008EF640360030236E4122E08A1
:10364000122F69900045122E211230EFFF90004793
:10365000122E22900005121EE112306E75F0051236
:103660002D26F99000411220696F7002E5F0600389
:1036700002375A901049122D4A901056122D3AF9DD
:103680009000431220696F7002E5F0600302375A20
:10369000901049122D4AF9901058122D3BF99000C4
:1036A000451220696F7002E5F0600302375A9010EE
:1036B00049122D4AF990105A122D3BF990004712E9
:1036C00020696F7002E5F0600302375A90104E12C5
:1036D0002DD490105CE06C7003A3E06D707C122D13
:1036E00047F9805B122D47F9122F5BFF64026005DA
:1036F000EF64047053122E08122F6912306E75F0A9
:1037000003122D26F99000411220696F7002E5F036
:103710007048901049122D4AF9901056122D3BF91D
:103720009000431220696F7002E5F0702D90104EEA
:10373000122DD490105CE0B50420A3E0B5051B90D9
:10374000005DE475F001800F122D4790005B123090
:103750007E90005DE4F5F012210D122D47122E919E
:103760007F0070027F01229003ECEEF0A3EFF09057
:1037700003F3E07015741E128F12A37401F0E4A31A
:10378000F0A374FFF07F6C02391D9003F3E0641E18
:103790007005741F0239559003F3E0641F706312C3
:1037A0008EFF704F9004F4E070089003F3742002D1
:1037B00039729004F4E0FF6403600DEF6402600866
:1037C000EF64F960030238BF9003F3741EF0128FA8
:1037D000836003023A1E9003EFE024FFF09003EEB3
:1037E000E034FFF0128ECB648094804003023A1ED6
:1037F000023A14128EC8648094804003023A1E027A
:103800003A149003F3E0642070107421128F099031
:1038100003F0E0FF12BB770239E59003F3E0642187
:1038200060030238D4128EFF60030238C59004F49E
:10383000E070529003F0E0FF7E006401702090037E
:10384000F2E0FD3395E0FCED4C70139003F0E004E2
:10385000F09003F37424F09003F274FF8020C3EF20
:103860009405EE648094809003F35010128F10A39F
:10387000E004F0123A1F1267370239737417F0121E
:103880008F720239739004F4E0FF64066005EF6400
:1038900003702C9003F1E0C3940374809480900330
:1038A000F3500E128F1012C8C6123A1F12673780DB
:1038B000077429F0A3740BF09003F1E004F0229058
:1038C00003F3023A03128EC8648094804003023AE4
:1038D0001E023A149003F3E06424700F7425128FD3
:1038E000097B32FAFDFC7F0102B2D99003F3E06458
:1038F000257058128EFF70449004F4E0FF7E007033
:103900000B9003F37429F0A3740AF022EF64094EBC
:103910009003F37024128F1012C8C67F6E12CE93DC
:103920007F967E0012D06A7BFF7AF37907E4900FCE
:10393000DFF07D0E7F03026737023A03128EC86400
:103940008094804003023A1E023A149003F3E0642C
:103950002270087423128F0902CBB59003F3E06440
:10396000237028128EFF7014128F839003F3600669
:103970007422F002C8C6741E128F1222128EC864FE
:103980008094804003023A1E023A149003F3E064EC
:1039900017700A7418128F0912CACD80489003F369
:1039A000E0FF7E0064187022128EFF700F9004F406
:1039B000E09003F370047419F02280479003EE1234
:1039C0008F63648094805056804AEF64194E70195A
:1039D0009003F3741A128F099003ECE0FCA3E0FD4E
:1039E0007F0112B701128F72229003F3E0641A7004
:1039F0002D128EFF70159004F4E09003F3700474A0
:103A000028F0227429F0A3740BF022128EC864806F
:103A10009480500A9003F37429F0A37401F0227F7C
:103A20006E12CE937F967E0012D06A7BFF7AF37976
:103A300007E4900FDFF07D0E7F03229000CC12236D
:103A40008C700B9004617427F07F0412A9369005E6
:103A500002E070067420F012B4CA9004F8E0640426
:103A6000706D9000ED74FFF0900500A3E09000F3FE
:103A7000F012C8C61226079000F8E070047F01809B
:103A8000231227456003023B4E9000EF122549BEEA
:103A9000FF07BFFF047F06800B122546BEFF0BBF4A
:103AA000FF087F0412CBCD023B4E9000F7E070067A
:103AB000123CEE023B4E1224A35003023B4EEF6435
:103AC0000170031223F19000F7E014F0023B4E90D6
:103AD00004F8E064057077123CFA704A9004FBE049
:103AE00064167038A3E064D47032A3E064DB702CF9
:103AF000A3E0643C702690064EE0701B12BD14904B
:103B0000056D12238C70107D327F4412CDFA900621
:103B10004E74C0F012C8C61223F180327F0912CB56
:103B2000CD12C8C68028E49000EDF09000F104F0BA
:103B30009000F31226DC1225057F4012CE939000F0
:103B4000C91225FD5005E004F080031226261262FA
:103B5000DE900180E0642870659000EE74FFF090C4
:103B6000017BA3E0049000F21226069000F8E070BA
:103B7000047F0380731227456003023C159000ED1B
:103B8000122549BEFF07BFFF047F04805B9000EF52
:103B9000122549BEFF07BFFF047F05804B9000F749
:103BA000E07005123CEE806D1224A34068EF6401C2
:103BB0007004900180F09000F7E014F080579001BD
:103BC00080E06429704FA3E0642B70089000FA74C1
:103BD00002F08005E49000FAF0123CFA700F9000B9
:103BE000FAE0640260077F0912CBCD8028E49000E0
:103BF000EEF09000F17403F0E4A31226DD12250527
:103C00007F4012CE939000C81225FD5005E004F0CD
:103C1000800312262612735990042FE0640A70570D
:103C20009000EF74FFF090043DE09000F41226063F
:103C30009000F8E060089000F0E0640170047F02FA
:103C400080491227456003023CDD9000ED122549B2
:103C5000BEFF07BFFF047F068031122546BEFF0767
:103C6000BFFF047F0580247F7A12CE931227A19094
:103C700000F77480F0806690042FE0640B703C12B3
:103C8000C9E6EF3395E04F70077F0912CBCD804D29
:103C9000E49000EFF09000F17402F09000F412262E
:103CA000DC1225057F4012CE939000CA1225FD50EC
:103CB00005E004F08027122626802290042FE0FFE2
:103CC0007E00640C700E900407F0A3F09004617401
:103CD00026F08009EF640D4E700312CDC7126458B0
:103CE000900427E07002A3E0700312CE75227F7A61
:103CF00012CE939000F77480F02212C9E6EF33954C
:103D0000E04F2212ADA4900F8B1222D012BB4A605A
:103D10000712BB61A31222D0C390042AE094209022
:103D20000429E0940050037FFF22301B0A12BB4A93
:103D30007002C21B7FFF2212BB61126C6D20C20792
:103D4000E49014D9F080069014D974FFF012BB31BE
:103D500070099014DEE07003023E479014CE12BB4F
:103D600034700B9014DEE064017003023E56901430
:103D7000CF12BB34700B9014DEE064027003023E7D
:103D8000669014D012BB34700B9014DEE0640370A4
:103D900003023E779014D112BB34700B9014DEE016
:103DA00064047003023E889014D212BB34700B90EE
:103DB00014DEE064057003023E999014D312BB3404
:103DC000700B9014DEE064067003023EA99014D4D8
:103DD00012BB34700B9014DEE064077003023EB92E
:103DE0009014D512BB34700B9014DEE0640870039D
:103DF000023EC99014D612BB34700B9014DEE064FE
:103E0000097003023ED99014D712BB34700B901482
:103E1000DEE0640B7003023EE99014D812BB3470EC
:103E20000B9014DEE0640A7003023EF99014D9127C
:103E3000BB34700E9014DEE0640D70069014E10245
:103E40003F0C12BB3170079014E1F0023F14901444
:103E5000CE12BB3470089014E104F0023F149014A9
:103E6000CF12BB3470099014E17402F0023F149039
:103E700014D012BB3470099014E17403F0023F14A3
:103E80009014D112BB3470099014E17404F0023F15
:103E9000149014D212BB3470089014E17405F080B1
:103EA000739014D312BB3470089014E17406F08040
:103EB000639014D412BB3470089014E17407F0803E
:103EC000539014D512BB3470089014E17408F0803C
:103ED000439014D612BB3470089014E17409F0803A
:103EE000339014D712BB3470089014E1740BF08037
:103EF000239014D812BB3470089014E1740AF08037
:103F0000139014D912BB349014E17005740DF08035
:103F10000374FFF09014E1E0FF900565F0F4700386
:103F2000023FA49014DEE0FD9014E1E0FC6D60150A
:103F3000EF640D900F936004ECF0800374FFF09039
:103F400014DEEC8079D39014E0E094C09014DFE0AC
:103F50009400500FA3E004F070069014DFE004F02A
:103F600012BB709014DFE0FEA3E0FFD39460EE94E8
:103F700000402CEF94C0EE9400400EA3E0640D705E
:103F800008900F93741BF0800312BB709014CCE068
:103F900004F0D3947F748094804029E4F08025124B
:103FA000BB7080209014DEE0FF640D900F937004CE
:103FB000EFF0800374FFF09014E1E09014DEF0E481
:103FC000A3F0A3F0900F93E0FF229006B9E0703DBC
:103FD0007BFF7AF17954900FB4F07D1C7F0112764B
:103FE000A07BFF7AF27967E41225D47F011267374C
:103FF0007BFF7AF17956E4900FB4F07D5C7F01127B
:1040000076A0E49000CFF09006B904F0229006B9B3
:10401000E0640170217BFF7AF279721225D47F046B
:1040200012673712B58A12C529E49006BAF09006D5
:10403000B9740202412C9006B9E064027034A312F4
:10404000238C900FDD700A74101224861227E180F1
:104050000874101224861227E81242371224614095
:104060000302423674031242457BFF7AF2796C02F6
:1040700041739006B9E06403706412A5019000CF0B
:10408000E06402703E9004F2F07F0112BAEBE4901B
:104090000F8AF0900F8AE0C39419748094805017AF
:1040A0007F0A7E0012D06A12D0701227C360089077
:1040B0000F8AE004F080DCE49006BBF09006B9744F
:1040C0000480699000CFE0640360030242369006EA
:1040D000BB74FFF074041226117F0702423390066E
:1040E000B9E0640470359006BB12238C900FDD702C
:1040F0000A74101224861227E18008741012248694
:104100001227E81242371224614003024236740536
:104110001242457BFF7AF2796F80589006B9E064CD
:104120000570119006BCF09006B974061226147F33
:10413000020242339006B9E06406703A9006BC125F
:10414000238C900FDD700A74101224861227E180F0
:104150000874101224861227E81242541224614077
:10416000030242369006B97407F01242627BFF7A6E
:10417000F27975E480729006B9E06407700E9006DB
:10418000BDF074081226117F020242339006B9E096
:104190006408706B9006BD12238C900FDD700A745A
:1041A000101224861227E180087410122486122728
:1041B000E8124254122461507D9006B97409122607
:1041C000141242629006BB12238C70219006BA1220
:1041D000238C70199006BC12238C7011A312238CAF
:1041E000700B7BFF7AF279781225D4800D7BFF7AF1
:1041F000F2797DE4900FDFF07D1C7F040267379039
:1042000006B9E06409702F122461502A9000DBE0A7
:104210006004640170187F7412CE939000DA74FF0A
:10422000F09000DC7480F09004617422F02212237C
:10423000E17F0612C5EB22F0E4A3F07B107D4B7FFB
:104240000412AB37229006B9F07F0412C7227F0513
:1042500012C72222F0E4A3F07B107D4B7F0412AB47
:1042600037227F0412C7227F0512C72222788A7C58
:104270000F7AF1795812255078907C0F7AF1795E97
:1042800012255078967C0F7AF179647F051225C942
:10429000900422E07003024430742812248374EDE9
:1042A000F0A374C8F0E4A3F07B347D48FF12AB3771
:1042B0009000F1E0640170157AF279E612253F1260
:1042C00044DC12236C1244CE9000F380379000F14E
:1042D000E06403701112253B1244DC12236C12447B
:1042E000CE9000F2801E9000F1E0640270267AF217
:1042F00079EB122574FD7F0212673712236C12448A
:10430000D59000F4E0FB7A00E4900F9FF07D287FC9
:10431000040243A59000F1E06404702B12253BFDDC
:10432000FF12673712236C1244A87D247F02127893
:10433000CA7AF279E61223701244D512236C7F06F2
:104340001244BB7F06805E9000F1E0640570261287
:10435000253BFDFF12673712236C1244A87D2812FB
:1043600044E312237CFD7F0412673712236C12444E
:10437000937F0680309000F1E06406702D7AF27928
:10438000E6122891FDFF12673712236C7F02124458
:10439000BB1244E3122399FD7F0412673712236C8A
:1043A0001244937F061278CA80189000F1E06409E5
:1043B00070107B017A0F7996900FDFF0FD7F03126A
:1043C00067377B017A0F7990E4900FDFF07D407FB3
:1043D00006126737900422E06403701690041CE014
:1043E000B4010FA3E0B43B0A7F2C12CE937F0302EB
:1043F000A936900422E06404600302449290041EF3
:10440000E07004A3E06403701C7F2E12CE93900032
:10441000F5E4F0A374C0F0900427E4F0A374C0F0B6
:10442000E4FF02510E90041EE07004A3E064012238
:10443000E490149AF0900FDD742812248674EDF045
:10444000A37400F0E4A3F07B287D2CFF12AB377B34
:10445000017A0F798AE41225D47F0612673790001B
:10446000F5122898648094804015EF64404E7008DF
:10447000900427F0A37441F09000F61228202290B7
:1044800000ED12260A1224B2900461F0900427F085
:10449000A3F022FD7F061267379000F4E0FB7A005C
:1044A000E4900F9FF07D2822FD7F02126737900075
:1044B000F2E0FB7A00E4900F9FF022FD1267379044
:1044C00000F3E0FB7A00E4900F9FF07D2822FD7F4F
:1044D0000412673722FD7F0412673722FD7F021224
:1044E0006737227F021278CA7AF279EB22E4900FC2
:1044F00099F0A31222DC00000000900F9E1222DC33
:1045000000000000E4900FA2F0A3F0300303024685
:104510001812D061500302460A12C5BC900F9A12BD
:1045200022D0E4900F98F0900F98E0C39510503986
:10453000900F9A127EB87801122275900F9A12226B
:10454000D030D720127E8CC000C001900F98127E10
:104550007BE0F9F8122288D001D000127EC4900FBF
:1045600099E004F0127F0C80BE900F99E0FF7E006E
:10457000C39402748094804018D214EF9403748022
:104580009480400512D064800812CFA6EF6002C26A
:1045900014201423E4FFFEFDFC127E8CC31222645F
:1045A00060109013A5E004F070069013A4E004F0EE
:1045B000801D127EF88018901394E004F07006902D
:1045C0001393E004F0900F9E1222DC000000001212
:1045D000CEFED39013A5E09F9013A4E09E40061258
:1045E000D064127EF8D3901394E0942C901393E04F
:1045F0009401500302473412D0649013CB7401F03D
:10460000E4901393F0A3F002473490F718E4740198
:1046100093FF1252C8024734200403024701127E5E
:104620008CC000C0019013CC127E7BE0F9F81222FE
:1046300088D001D000127EC4127E19127F13900F11
:10464000A2F0A3EFF09013CCE0FF12CFBEAD07AC09
:1046500006ED7802CEA2E713CE13D8F8FFC3ED9F84
:10466000FFEC9EFED3900FA3E09FEE6480F8900FC6
:10467000A2E06480985055E4901349F0A3F09013A1
:104680000CE004F0127EF14010E4F0C203C204908A
:104690000F9E1222DC00000000E4900F98F0900FB3
:1046A00098E0FFC39510400302473412596C200371
:1046B00016900F98E0FF9013CCE06F600A900F986F
:1046C000E0127E29127ED6127F0C80D2E490130C69
:1046D000F012CEFE901349E475F001122012FCD3C3
:1046E000E5F09FEC9E404D12D064E4901349F0A396
:1046F000F0C203C204900F9E1222DC000000008072
:1047000033785406E6D3127EF14004E4F6C203E4A3
:10471000900F98F0900F98E0FFC395105016125923
:104720006C20030B900F98E0FF127E29127ED612A8
:104730007F0C80E0900F9E127EB8229003E1E06033
:10474000030247E09000D2E070509000D5E0704A3C
:104750009004617415122838900462740312269430
:1047600090046604F090046D122409E4900F8AF01E
:10477000900F8A122566500B122495900F8AE00440
:10478000F080ED1228747B527D4C7F6612CECB12E6
:10479000CE757BFF7AF3790E804012240A90042FA5
:1047A0007409F0E4900F8AF09014ACE0FF900F8A47
:1047B000E0FEC39F500E749C2E122498900F8AE046
:1047C00004F080E49003E174011224BB7F5A12CEFE
:1047D0009312CE757BFF7AF279181228B7026737E9
:1047E0009003E1E0640160030248F87D107F061247
:1047F000B52A9014AEE06402704D9003E17403F0AA
:104800001228A91274729003EAEFF0600B1226BC12
:1048100050069003E17402F01227A19003E1E064D6
:104820000370191249531223BD12494B9003E974C6
:1048300080F012259F5021E004F0801C12495C1288
:10484000241C12494B80119014AEE064037009904F
:1048500003E17404F01227A11262DE900180E0648B
:1048600028702FC390017CE0940A90017BE09400B3
:1048700050209003E174021224BB12495C12241CE4
:104880007D247F0312673790017F7401F07F03025C
:104890004947900180E0FF6429601EEF64286003AF
:1048A00002494A90017CE090017B122700D3EF94EB
:1048B0000AEE9400500302494A900181E0642B9073
:1048C00003EB70057402F080037401F0E490018042
:1048D000F09003E17403F09003E97480F0124953FF
:1048E0001223BD7D247F031267377F0212A936127F
:1048F000259F5056E004F0229003E1E06402700925
:1049000012CEAFE49000CBF0229003E1E06403709C
:10491000209003E9E014F01223B5502E12259F4099
:1049200005E4A312262A1224B2900461F07F0180CC
:10493000169003E1E0640470117F6012CE9312249C
:10494000B2900461F07F0112A936227D247F031208
:104950006737227F4012CE9312CE75227D327F5A66
:1049600012CDFA12CE75227D017F041249710D7F9E
:1049700004EFF582758300C3748094804024D3E5EE
:10498000829405748094805019EDF582C3748094EC
:1049900080400FE5829408748094805005758201F0
:1049A0008003900000E582640145836003024B6A46
:1049B000EF146064147003024A5D147003024AA28B
:1049C000147003024AE7147003024B2924056003A4
:1049D000024B6AEB14601D14602D24026003024B2D
:1049E0006AA8057401088002C333D8FCFF429AEF1D
:1049F000F4529B22A8057401088002C333D8FCFF3F
:104A0000F4529AEF429B22A8057401088002C33336
:104A1000D8FCF4529A529B22EB14601D14602D2492
:104A2000026003024B6AA8057401088002C333D8F0
:104A3000FCFF4291EFF4529222A805740108800213
:104A4000C333D8FCFFF45291EF429222A8057401BF
:104A5000088002C333D8FCF45291529222EB1460C6
:104A60001D14602D24026003024B6AA8057401081E
:104A70008002C333D8FCFF42A1EFF452A222A80562
:104A80007401088002C333D8FCFFF452A1EF42A2A4
:104A900022A8057401088002C333D8FCF452A15245
:104AA000A222EB14601D14602D24026003024B6AE5
:104AB000A8057401088002C333D8FCFF42B1EFF4AB
:104AC00052B222A8057401088002C333D8FCFFF457
:104AD00052B1EF42B222A8057401088002C333D854
:104AE000FCF452B152B222EB14601A14602A240270
:104AF0007078A8057401088002C333D8FCFF42C156
:104B0000EFF452C222A8057401088002C333D8FC16
:104B1000FFF452C1EF42C222A8057401088002C30B
:104B200033D8FCF452C152C222EB14601A14602A2A
:104B300024027036A8057401088002C333D8FCFF34
:104B400042D9EFF452DA22A8057401088002C33377
:104B5000D8FCFFF452D9EF42DA22A805740108808C
:104B600002C333D8FCF452D952DA22901092127D4B
:104B700026901091EFF090109C74FEF0E4A3F0A347
:104B8000F0EF24F4601024FE701690109D7412F063
:104B9000A37410F0800A90109D7420F0A37430F07C
:104BA00090109DE04480FD7F0212CED87D807F046E
:104BB00012C94A124D5C7D807F0A12C9A8E4901088
:104BC000A0F0A3F0901095E0FF9010A0E0FCA3E00F
:104BD000FDC39FEC94005023901092127D1D8D8296
:104BE0008C83121EE1FD7F0912CED89010A1E00443
:104BF000F070D19010A0E004F080C9901091E0FD19
:104C00007F0112CED8901091E0640C70077D807FF8
:104C10000D12C9A812CEA19010A0E4F0A37464F004
:104C20007F0412CD1090109FEFF09010A1E024FFB0
:104C3000F09010A0E034FFF0E07002A3E06011906B
:104C4000109FE0FF20E00990109EE0FEEF5E60D034
:104C50007D807F0D12C94A9010A0E07002A3E07021
:104C600003024D497F0612CD10EF541B6003024D25
:104C70004190109CF0A3E0FF90109FE05F30E006B1
:104C800090109C74FFF0901091E0640C6003024D52
:104C90004C7F0A12CD1090109FEFF07F0C12CD10B8
:104CA000EF5407FD602990109FE024FFFFE434FFDC
:104CB000FEEF7803C333CE33CED8F97C002DFFEC62
:104CC0003EF9901099E0FBA3E0FAA3E0C9801190AF
:104CD000109FE075F008A4FF901099127D1DE5F07B
:104CE0008FF01220EE90109FE0700204F090109F61
:104CF000E0D394127480948040037412F0E4901016
:104D0000A0F0A3F090109FE0FFC39010A1E09F904F
:104D100010A0E0940050357F0912CD10901096122B
:104D20007D1D9010A0E0FCA3E0F5828C83EF121FA4
:104D3000539010A1E004F070CB9010A0E004F0803C
:104D4000C390109C74FEF0800312CFF67D807F0C20
:104D500012C9A8124D5C90109CE0FF22E4FD7F0177
:104D600012CED822900410E0FF7E00700504F0A35C
:104D7000F022EF64014E704512CE757AF379451238
:104D8000276A7D0A7F021267377AF3794E12276A03
:104D90007D0A7F041267371223896003024F47128E
:104DA000244A4003024F47EE75F004A42446F974E8
:104DB000F535F0FA7BFF12BEE31225AB229004100A
:104DC000E06403702012CE757BFF7AF2795DE49087
:104DD0000FDFF07D0E7F031267379004107402F02E
:104DE0007F4202CE93900410E06402701F12C880CC
:104DF000EF3395E0FEBEFF11BFFF0E900410740468
:104E0000122889E4900413F022024E8D900410E0E1
:104E100064046003024E9E12B647900566E0FF7E72
:104E2000006412704F74051226D09000D1F0A3F0E8
:104E3000FDEDC39432748094804003024F47ED250A
:104E4000E025E02400F582E43400F58374FFF0A34C
:104E5000F0ED25E025E02402F582E43400F583E45A
:104E6000F0ED25E025E02403F582E43400F583E449
:104E7000F00D80BDEF64134E6003024F47900413A2
:104E80001225FD5008E00412288902C8C6900410BB
:104E90007408F07D34124F487AF3791F80559004DE
:104EA00010E0640570189004121223B04003024F02
:104EB0004712C49174061226D09000D3F0229004B9
:104EC00010E0640670369004121223B0507912C7B5
:104ED000C412C77512CCBE12C42A900410740712F3
:104EE00026D39000D5F09000D4F07D32124F487A4E
:104EF000F3791AE41225D47F03026737900410E097
:104F0000640770139004121223B0503BE4900461C4
:104F1000F012C8C6E4801E900410E0FF7E00640812
:104F2000701C900412E0FD14F0C3ED1223B650176C
:104F3000E4900461F09014DFF0A31223E522EF6403
:104F4000094E700312CEBD227F4212CDFA12CE75E9
:104F50007BFF22900FA21222DC00000000900FA61F
:104F60001222DC000000001290CD900FAAE0FEA3F8
:104F7000E0FFD394D0EE94074058EF24FFFFEE34C7
:104F8000FFFEEF540370051290C47013900FABE056
:104F900024FFFF900FAAE034FFFE12907F700A906A
:104FA0000FA6129056246E8008900FA612905624D9
:104FB0006DFFEE3401FEE43DFDE43CFC900FA612D3
:104FC00022D0900FABE024FFF0900FAAE034FFF066
:104FD00080981290CDE4A3F0900FAC1290FE4003A5
:104FE000025085EF64017020900FAA1290E77005BF
:104FF0001290C47008900FAA12907A700B900FADA7
:10500000E4F0A3741DF08011900FACE090F7B4931E
:10501000FF900FADE4F0A3EFF090012FE0FF12CE70
:1050200084EF14FF900FACE0FEEFD39E4025900F6D
:10503000A612906B900FADE0FEA3E0FFE4FCFDEB49
:105040002FFFEA3EFEED39FDEC38FC900FA6122250
:10505000D08029900FA612906B90012DE0FF12CE08
:1050600084900FA612909C900FA6129056C39401A4
:10507000FFEE9400900FA61290908009900FACE084
:1050800004F0024FD8900F9CE0FF12CE847E007C8B
:10509000007D3C12233FC004C005C006C007A3E04A
:1050A000FF12CE847E007C0E7D1012233FD003D0F1
:1050B00002D001D000EF2BFBEE3AFAED39F9EC38D3
:1050C000F8900F9BE0FF12CE84900FA212909C905C
:1050D0000FA212906BC000C001C002C0037F807E8F
:1050E000517D017C00A312906B12213AD003D002B3
:1050F000D001D000EB2FFFEA3EFEE93DFDE83CFC8D
:10510000900FA21222D0900FA2129056FF22EF70A1
:105110007012AD8E6401700B12AD3C4404F090002F
:10512000F3804FED64034C700912AD3CF09000F237
:10513000804012AD8E6402700B12AD3C4402F090C0
:1051400000F4802EED64044C700912AD3CF0900028
:10515000F2801F12AD8E6405700912AD3CF0900014
:10516000F2800FED64064C701112AD3C4402F090D9
:1051700000F4E012AD31F002525D9000F1E06409FC
:1051800022EFFD7C006402701212AD3CF090045CD2
:10519000A3E012AD314420F002525DED64034C7087
:1051A0001212AD3CF0900476A3E012AD314430F021
:1051B00002525DEFFD7C006404700912AD29444089
:1051C000F002525DED64054C700912AD294450F0B7
:1051D00002525DEFFD7C006406701212AD3C440289
:1051E000F0900466E012AD314460F08070ED640729
:1051F0004C701212AD3C4402F090047EE012AD31CE
:105200004470F08058EFFD7C006408700D12AD3CD6
:10521000440212AD2F4480F08043ED64094C7012BB
:1052200012AD3C4404F09000FFE012AD314490F028
:10523000802BEFFD7C00640A701212AD3C4404F038
:10524000900175E012AD3144A0F08011ED640B4C7B
:10525000707512AD3C440412AD2F44B0F0789B7CC5
:105260000F7D017B017A01792A7E007F07121EA241
:10527000124F5390044F1222D090F7C2E49390043F
:105280004CF090F7C3E49390044DF0900446E0FE98
:10529000A3E0FF12C6A112AD7FC3900447E09F9028
:1052A0000446E09E500DA3E004F07006900446E032
:1052B00004F02290044EE0FF5401F45401FEEF5438
:1052C000FE4EF0E412AD9D22900FA4EFF09014E892
:1052D000E0C39403748094804048E4F09013CBE0E2
:1052E0007035900FA5F0900FA5E0C395105028E001
:1052F000FF75F002A424A7F582E5F03413F583E0EE
:10530000FCA3E0FDEF25E02424F8A60408A6059000
:105310000FA5E004F080CF12B20BC215E49013CBBE
:10532000F0229014E2E004F0900FA4E0FF9014E269
:10533000E0B5070812C3F6E49014E3F0900FA4E080
:10534000FF9014E2E0D39F500302547AE4900FA53B
:10535000F0900FA5E0C395104003025426E0FF75BE
:10536000F002A424A7F582E5F03413F583E0FCA352
:10537000E0FD75F002EFA4240DF582E5F03413F59D
:1053800083E0FEA3E0C39DFFEE9CAD07FC9013CB32
:10539000E070429013A6E0FB3395E0FAFEEB780252
:1053A000C333CE33CED8F9FFD3ED9FEE6480F8EC53
:1053B0006480984060E49BFFE49AFEEF7802C33378
:1053C000CE33CED8F9FFC3ED9FEE6480F8EC648055
:1053D00098504280519013A6E0FB3395E0FAFEEB23
:1053E0007803C333CE33CED8F9FFD3ED9FEE64807C
:1053F000F8EC648098401EE49BFFE49AFEEF78038B
:10540000C333CE33CED8F9FFC3ED9FEE6480F8EC02
:105410006480984011900FA5E0FF12596C900FA581
:10542000E004F0025351900FA5E0B510069014E38C
:10543000E004F0900FA4E0FD75F008A4FF9014E2E2
:10544000E0C39FE5F06480F8748098402DE4F0C2DA
:10545000149014E8E004F0ED75F004A4FF9014E358
:10546000E0C39FE5F06480F8748098400DE49014E8
:10547000E8F012C6CD12B20BC21522900F91EEF0D9
:10548000A3EFF012AD7770087BFF7AF3795F804865
:1054900012AD77FF6402600AEF64066005EF6409ED
:1054A00070097BFF7AF37965E4802D12AD77FF6494
:1054B00003601EEF64056019EF64076014EF640A6F
:1054C000600FEF6404600AEF640B6005EF6408701E
:1054D000117BFF7AF3796BE4900FDFF07D18FF12F8
:1054E0006737900F91E0FAA3E0FBE4900F9FF07D07
:1054F00058FF1278CA900457E0FCA3E0FDA3E0FE39
:10550000A3E0FF12615D78937C0F7D017E007F0731
:10551000121EA2900F9912AD537D1C12560B7BDB0D
:105520007D2C7F0212933D900F9812AD537D341263
:10553000560B7BDB7D447F0212933D900F9612AD9C
:10554000537D4C7F02128782900F9512AD537D1CC4
:105550001256167D2C7F0412933D900F9412AD537A
:105560007D341256167D447F0412933D900F9312A2
:10557000AD537D4C7F0412878212AD6E64027008B9
:105580007BFF7AF279E6802912AD6E70087BFF7A94
:10559000F279E1801C12AD6E640170087BFF7AF233
:1055A00079EB800D12AD6E640470117BFF7AF37994
:1055B00074900FDFF07D147F061267377BFF7AF758
:1055C00079C0E4900FB4F07D507F061276A012AD42
:1055D00077FF6404600FEF6405600AEF640B6005F9
:1055E000EF640870127BFF7AF37971E4900FDFF0BB
:1055F0007D5C7F0602673790045BE0FB7A00E490F5
:105600000F9FF07D5C7F061278CA227F021287828C
:10561000E4900F9DF0227F04128782E4900F9DF0AA
:105620007BD222F9121EE1FF900F8BE0FBA3E0FA80
:10563000A3E0F922EFFD7C00E92DF9EC3AFA900F96
:105640008FE0FCA3E029F9EA3CFA121EC8FEEFC382
:1056500013FD900F8EE075F008A42481F582E434E8
:1056600004F583E58222EF75F008A42487F582E42F
:105670003404F58374FFF0EF75F008A42480F582FC
:10568000E43404F583227A0F798C7B019011B8E41D
:10569000F0A304F0227B017A047980E4F0A322EFE6
:1056A00075F008A42487F582E43404F583222EF5EE
:1056B00082E43583F58322E4901499F07404901405
:1056C00098F0900461227D0AE0FEA3E0FF7C0002D6
:1056D0001F87E0FF901495E075F008A4900000FE8D
:1056E000E02EFDE4900F9DF022740190046EF0A373
:1056F0007440F0227B01900FA7E4F0A304F022EEA7
:10570000C3940A7480948022EBF0A3EAF0A3E9F03A
:1057100022EEC394067480948022E4901499F0746D
:1057200003901498F090046122900F8CE0FF339561
:10573000E0FE22900F8FE0FAA3E0FB7C007D02FFE9
:10574000AE02021FDCEFC3940274809480227D01BC
:105750007BFF7E00021EA2E0FDC4540F75F00AA478
:1057600022E0D394007480948022900F8EE0FBA3FB
:10577000E0FAA3E02290046E04F0A37440F09004D9
:1057800061E022EFF07E00C394097480948022ECE3
:1057900004FF12CBE5EF3395E04F22901496E0FF23
:1057A000901495E09F227B017A05796E22F0A37414
:1057B000E0F07FC17E03222FF582E5833EF583E092
:1057C000227B01E4900FB4F07D14229000FBE07086
:1057D000599000D2E0701E9000D5E070181289F246
:1057E00074071289507F3E1259657AF3793812890D
:1057F000887D0E80309000D3E01289809000FB50AD
:10580000177401F0E4901497F07F641259657AF3ED
:105810007929128988FD800D12894B7F5812CE9309
:105820001259567D247F031267379000FBE0640114
:10583000702C12CB539000FFEFF09000FB7407F038
:105840009000FD7401F0A37440F07F7012CE9312AB
:10585000CE757AF3792F1289BD7D280259219000E7
:10586000FBE06407703F7B017A01790012AE95EF8F
:105870003395E0FEBEFF09BFFF069000FB7403F006
:1058800012895940030259551289F2740112895044
:105890007D347F4412CDFA12CE757AF3791F1289C6
:1058A000BD7D24807C9000FBE0640370797B017AED
:1058B00001790012B3A2EF70549000FFE0FD12B91D
:1058C00085EF3395E0FEEFF47002EEF49000FB708C
:1058D000267404F09000FD1289527D327F4412CD6F
:1058E000FA12CE757AF3791A128A057F0312673796
:1058F0009000D3E004F02212894B7F5812CE937FA0
:10590000647E0012D06A1259567D2480141289F2E6
:105910001289507D547F5612CDFA7AF37933128A68
:10592000057F030267379000FBE06404700D128965
:1059300059502212D00B7F0902510E9000FBE064F7
:105940000570129000FD74FFF5F012202812896393
:10595000500312D00B2212CE757BFF7AF37940E40C
:10596000900FDFF02212CE9312CE7522900FA6EF89
:10597000F0F9E0FF75F002A424A7F582E5F03413F6
:10598000F583E0FCA3E0FD75F002EFA4240DF582A1
:10599000E5F03413F583E0FEA3E0C39DFFEE9C9099
:1059A0000FA7F0A3EFF0AF0112CFBEAD07AC06908A
:1059B0000FA7E0FEA3E0FFD39DEC6480F8EE6480C7
:1059C000985014C3E49DFBE49CFAC3EF9BEA648007
:1059D000F8EE648098502F900FA6E0FF75F002A4B7
:1059E000240DF582E5F03413F583E0FCA3E0FD75AA
:1059F000F002EFA424A7F582E5F03413F583ECF070
:105A0000A3EDF0025ADFECA2E713FEED13FF900FB7
:105A1000A7E0FAA3E0FBD39FEE6480F8EA648098E5
:105A2000501CECA2E713FEED13FFC3E49FFFE49EBE
:105A3000FEC3EB9FEE6480F8EA648098503E900FBE
:105A4000A6E0FD75F002A424A7F582E5F03413F575
:105A500083E0FAA3E0FBEAC313FEEB13FFC3EB9F63
:105A6000FBEA9EFA75F002EDA4240DF582E5F03410
:105A700013F583E0C313FEA3E0138047900FA6E065
:105A8000FD75F002A424A7F582E5F03413F583E058
:105A9000FAA3E0FBAE027803CEC313CE13D8F9FF0E
:105AA000C3EB9FFBEA9EFA75F002EDA4240DF5828C
:105AB000E5F03413F583E0FEA3E07803CEC313CE04
:105AC00013D8F92BFFEA3EFE900FA6E075F002A472
:105AD00024A7F582E5F03413F583EEF0A3EFF09000
:105AE0000FA6E0FF75F002A424A7F582E5F03413B9
:105AF000F583E0FCA3E0FD75F002EFA4240DF58230
:105B0000E5F03413F583ECF0A3EDF02290101212BF
:105B10002D74E4122D5FFFFE122FCCA3EFF07F0057
:105B20007E00122FCC7E037FE8122E60A3EFF07C64
:105B3000037DE87F007E00121F877E007F64122EA7
:105B400060A3EFF07F007E00122E55A3EFF07C00E3
:105B50007D0A7F007E00121F87AC05E4A3F0901041
:105B600012122D4A4A4B7002FF22901012122D4A37
:105B70001230E5FFE5F033FE74BE2FF582740A3E65
:105B8000F583E0FFA3E0901015CFF0A3EFF0A3742E
:105B900001F0901017E0FFD3940674809480503386
:105BA000A3E0FEEF6E6024A3E0FF901017E0FE6F0D
:105BB000601990101AE0FFEE6F6010A3E0FFEE6F27
:105BC0006009EE6C6005A3EEF08008901017E00409
:105BD000F080BF901012122D4AF9900001121EE1C0
:105BE000901018122EDE122D4AF9900001EF121FAC
:105BF00053900002121EE1901019122EDE122D4A4F
:105C0000122F61FF90101A122EDF122D4AF9900008
:105C100003EF121F531230EFFF90101B122EDF12F2
:105C20002D4AF9900004EF121F53900005121EE157
:105C3000FFAD04122EE1122D4A122F6FFF90101C9F
:105C4000122EDF122D4AF9900006EF121F53123068
:105C500078FFAE04AD06122F91122D4AF99000077D
:105C6000EF121F53900008121EE190101B122F8E8E
:105C7000122D4A12300A90101A122F8E122D4AF944
:105C8000900009EF122F58B4021F901012122D4AE3
:105C9000F990000A121EE1FF901019122F8F122D99
:105CA0004AF990000AEF121F537F01227AF179F12D
:105CB0001224C27D1CFF1267377AF179F612284C44
:105CC0007D187F031276A090040F1225C17D287FD6
:105CD0000312878290040E1225C17D407F03128734
:105CE0008290040C1225C17D587F031287827AF2BC
:105CF000790112284C7D187F061276A090040B12B1
:105D000025C17D187F0612878290040A1225C17D65
:105D1000307F061287829004091225C17D487F06D4
:105D2000128782901491E0700F122590700A9004EF
:105D30000F1224557D288074901491E06401701036
:105D4000122590700B90040FE01224577D30805C78
:105D5000901491E06402700F122590700A90040E66
:105D60001224557D408045901491E0640370101218
:105D70002590700B90040EE01224577D48802D90E2
:105D80001491E06404700F122590700A90040C12B4
:105D900024557D588016901491E0640570131225E7
:105DA00090700E90040CE01224577D607F03025E19
:105DB00048901491E064067011122590700C9004C4
:105DC0000B1224557D187F06807E901491E06407A5
:105DD0007012122590700D90040BE01224577D2054
:105DE0007F068064901491E0640870111225907011
:105DF0000C90040A1224557D307F06804B9014913C
:105E0000E064097012122590700D90040AE01224CB
:105E1000577D387F068031901491E0640A7011122A
:105E20002590700C9004091224557D487F06801837
:105E3000901491E0640B7013122590700E90040979
:105E4000E01224577D507F0612974F22900FA21226
:105E5000A15A78A97C0F7D017BFF7AEF79547E02ED
:105E60007F00121EA212A1769011AFF0A3F0900F46
:105E7000A2E0FFA3E09011B1CFF0A3EFF09011AF3B
:105E8000E0FEA3E0FF900FA7E0FCA3E0FDD39FECB2
:105E90009E40EA9011B1E05401FEA3E0FF9011ABE7
:105EA000EEF0A3EFF09011B0E02400FB9011AFE012
:105EB0003402CBC39FFFEB9EFED3ED9FEC9E40745C
:105EC00012A17E4E600612A116125FCD12A16912B8
:105ED000A17EC3E49FFF740212A191501E12A13251
:105EE00070069011ADE004F012A1879011AAE004B1
:105EF000F070069011A9E004F080D4125F9F901119
:105F0000B812A12512C02012A17EC3E49FFF740223
:105F10009EFE9011B0E02FF09011AFE03EF0901196
:105F2000B2E02FF09011B1E03EF07F057E0012CA82
:105F300095025E7D12A17EC312A116125FCD12A141
:105F4000699011AFE0FEA3E0FFC3900FA8E09FFFB0
