:03000000026DF29C
:03000B00028CA4C0
:0300130002910651
:03001B0002854813
:03003300029C9399
:03004B00028D64BF
:03005B00028E9280
:03006B00028FB74A
:03007B000287F900
:0300830002875B96
:03008B0002949547
:10010000900502E06003020779122052900BE1EFA4
:10011000F0F460031294D990053EE0121934017096
:1001200000025C0102A10202FB05032F06036B0B18
:1001300004210C04360D04410E04690F04821004DE
:100140008D1204A71304B41404E015052516053810
:100150001705641A06B31C05901D05C81F076627FE
:1001600005DB2807122C063C2D06FC2E0000077923
:10017000121F59640D602BEF641B700E90053E74C6
:100180001AF09004F17403F08018EF640C4E7012B2
:1001900012951C900505E4F0A37496F090053E744A
:1001A00020F090050FE0FF64076003020233121E87
:1001B0009F5032EF64076003020779900BFE04F052
:1001C0007410121D28121FE1121FB0500E74ED2E74
:1001D000121D5D90080CE004F080ED90050F74088E
:1001E000F07F01804B121DA370217F011292A1901C
:1001F000019B121DF5BEFF06BFFF03E4F022E49051
:100200000507F0A3F090050C04F022900BE1E064E8
:100210000B600302077990019B121CEB7F017010A9
:100220001292A190053E741FF0900417121FED2248
:100230000292A1900BE1E0FFF47003020779EF64F2
:100240000C7003020779121FEF90050FE06409603C
:10025000030207797F011292A10205D3121E897051
:100260000302047C121E90700302055E1220377098
:10027000030204DA900BE1E0640470030205C21289
:100280001DA3600302077912082C121D4A7F601219
:100290009B237F647E00129CDCE490053EF0029478
:1002A000D9900BE1E0FF6401600AEF64026005EFA2
:1002B00064037004E412082C121E89700E12077A6F
:1002C000E490053CF090053E02035C121E90700E17
:1002D00012077AE490053CF090053E0204CD12200E
:1002E00037700D12078712200A90053E740EF02217
:1002F000121DA3600302077902041B121E89700FEE
:1003000012078790053E7412F0E490016FF02212FC
:100310001E90701012079490053E7414F09004F52E
:10032000740AF022121DA3600302077902041B1253
:100330001E897009120794121F6104F022121E9088
:1003400070091207A1121F610206F81220377010FF
:100350001207A190053E7417F0900646740FF02224
:10036000121DA3600302077902041BE490080DF03C
:10037000E02401121E3BB5070EECB5060A1207AECB
:1003800090053E741D801890080DE02402121E3B5B
:10039000B50710ECB5060C1207AE90053E742DF0B3
:1003A000E4803E90080DE02403121E3BB50714ECD8
:1003B000B506101207BB90053E7428F0E49005D2F4
:1003C000F0801E90080DE02404121E3BB5071CECC3
:1003D000B506181207BB90053E741CF0E490062089
:1003E000F0900BEAF0900BE902058290080DE024F2
:1003F00005121E3BB5071CECB506181207C8900580
:100400003E741AF0E49004F1F0900BEAF0900BE9DE
:100410000206F8121DA360030207791207C8029BA7
:100420003F90053CE064017003120823121DA36095
:10043000030207798046121F8460030207790205D0
:1004400030900643E064086003020779121F596484
:100450000B700B900644F09006437409F022EF6491
:100460000A4E6003020779801390053CE064017036
:1004700003120823121DA360030207791207D50295
:100480009C7E121F84600302077902053090016F81
:10049000E064017008900BE1E0FF1278C5121DA323
:1004A000600302077980339001A3E06401600302D6
:1004B0000779807C9004F5E0640B600302077912F1
:1004C0001F59640B700B9004F6F09004F5740CF057
:1004D00022EF640A4E60030207791207D5029C8C52
:1004E00090053FE06401700A900BE1E0FF1278C5CF
:1004F000801A90053FE064037002800890053FE099
:1005000064047008900BE1E0FF1274F59000D2E0F3
:1005100070099000D5E07003020779121DA36003F3
:100520000207798039900558E06401600302077979
:10053000900BE1E0FF0278C5900646E0641060038E
:10054000020779121F59640B700B900647F0900652
:10055000467411F022EF640A4E6003020779120715
:10056000E2029C859004F1E0640160030207799047
:100570000BE1E0640B700F1207E2E49004F2F090DC
:1005800004F17403F022121DA36003020779803284
:10059000121E89700D7AA479BB1207EFE49001ADA9
:1005A0008011121E9070137AA479BE1207EF900189
:1005B000AD74FFF012935A0206B0121DA36003023D
:1005C00007791207FC0206B0900417E0640160038B
:1005D000020779900BE1E0FF0207639005D2E06427
:1005E000016003020779121E8970139000F8F090E1
:1005F00005D27402F07BFF7AA479E50206CD121EC3
:100600009070289000F804F09005D204F0128B9DB1
:10061000EF3395E04F70087F7A129B230207727BBD
:10062000FF7AA479E81289FC020772121DA3600305
:100630000207791207FC9005D20206F8121E897093
:100640001A9000F9121DF5BEFF08BFFF05E4F01275
:1006500096FB7AA479D31208098055121E90704532
:100660009000F9121CEB703474FFF0E49004F8F081
:10067000A3F09004FCF0A3F01292FFEF2412FEE42A
:10068000339004FAF0A3CEF09004FEE4F0A37408D3
:10069000F09005027402F0E4900501F07AA479D696
:1006A000120809800B121DA36003020779120816B5
:1006B000029B4D900620E064016003020779121E40
:1006C00089701090062112203E7AA479FA1289FCD2
:1006D000020772121E90701290062174FF12203EC3
:1006E0007AA479FD1289FC020772121DA36003022D
:1006F00007791208169006207402F022900BE1E0B0
:10070000FF640B6005EF640A706F121D4A90053E8E
:10071000F02290050FE0FF64077038121E9F502FE3
:10072000EF64077054900BFE04F0900BFD741012F0
:100730001D2B121FE1121FB0500E74ED2E121D5D05
:1007400090080CE004F080ED90050F7408F0221280
:100750001DA322900BE1E0FFF4601E90050FE06402
:100760000970160274F5900BE1E0F4600C7F301212
:100770009B237F647E00129CDC227F011292A17F6A
:10078000647E00129CDC227F011292A17F647E00B5
:10079000129CDC227F011292A17F647E00129CDCFD
:1007A000227F011292A17F647E00129CDC227F01D5
:1007B0001292A17F647E00129CDC227F011292A122
:1007C0007F647E00129CDC227F011292A17F647EF6
:1007D00000129CDC227F011292A17F647E00129C99
:1007E000DC227F011292A17F647E00129CDC227BBE
:1007F000FF1289FC7F647E00129CDC227F01129232
:10080000A17F647E00129CDC227BFF1289FC7F6446
:100810007E00129CDC227F011292A17F647E001276
:100820009CDC22900BE1E0FF1278C5229001B5F02C
:100830007F011276A122900828EFF0E4900830F0B2
:10084000900828E0FF25E02424F8E6FC08E6FD7582
:10085000F002EFA424D1F582E5F0340AF583E0FE3E
:10086000A3E0C39DFFEE9C900829F0A3EFF0E47F86
:1008700001FEFDFC900828E0F9F81218A38F0F8EF6
:100880000E8D0D8C0CAF01129C3F90082EEEF0A344
:10089000EFF0C390082AE09FEE6480F8900829E00A
:1008A000648098400890082B7401F08005E490085B
:1008B0002BF090082BE064016003020AB290082834
:1008C000E0FF24EBF582E4340AF583E0C394FA7484
:1008D000809480500D74EB2FF582E4340AF583E0A8
:1008E00004F0E50B550FFFE50A550EFEE509550D21
:1008F000FDE508550CFCE4FBFAF9F8C312187F601B
:1009000003020A78900AB3E090082DF0129CCAEF17
:100910006047E490082BF0A3F090082CE0FFC3950B
:1009200010502274EB2FF582E4340AF583E0C3946F
:100930000174809480400690082BE004F090082C0D
:10094000E004F080D490082BE0C39403748094807A
:10095000400790082DE0240FF0900828E024EBF5E4
:1009600082E4340AF583E0FF90082DE0FEEFC39E99
:100970005003020A78E490082BF0129C1FEF6003EA
:10098000020A0590082CF090082CE0FFC395105047
:100990002C900828E06F601D129BC490082CE02466
:1009A000EBF582E4340AF583E0C39F400890082BFE
:1009B0007401F0800890082CE004F080CA129CCAF0
:1009C000EF3395E04F6003020A5690082BE0600376
:1009D000020A56A3F090082CE0FFC39510507790C0
:1009E0000828E06F6017129BC490082CE024F8F5EB
:1009F00082E4340AF583E0C39F4002805390082CC0
:100A0000E004F080D0129CCAEF3395E04F7047901D
:100A1000082DF090082CF090082CE0FFC3951050A2
:100A20002274EB2FF582E4340AF583E0C394027458
:100A3000809480400690082DE004F090082CE0049B
:100A4000F080D490082DE0C3940374809480400615
:100A500090082B7401F090082BE064017002D2140E
:100A6000E50B450FF50BE50A450EF50AE509450DC1
:100A7000F509E508450CF508900828E0FF242EF557
:100A800082E4340BF583E4F074912FF582E4340BA7
:100A9000F583E4F075F002EFA42414F582E5F03458
:100AA0000BF583E4F0A3F074B62FF582E4340A0268
:100AB0000E41900828E0FF129939900829E0FCA324
:100AC000E0FDD39FEE6480F8EC64809840129008BB
:100AD00028E024F8F582E4340AF583E004F0801578
:100AE000900C5EE004F0900828E024F8F582E434ED
:100AF0000AF583E4F0900B76E0FF3395E0FEC3E463
:100B00009FFBE49EFAC3ED9BEA6480F8EC64809856
:100B10005003020C0AD390082AE09FEE6480F890FC
:100B20000829E06480984003020C0A900828E0FF3E
:100B3000242EF582E4340BF583E4F074B62FF582AD
:100B4000E4340AF583E4F0FFFEFDFCAB0BAA0AA92E
:100B500009A808C312187F6003020D46900829E017
:100B6000FEA3E0FF900828E075F002A42414F582AB
:100B7000E5F0340BF583EE8FF01216A5129B9890DA
:100B80000828E075F002A42414F582E5F0340BF592
:100B900083E0FCA3E0C39FEE6480F8EC648098409F
:100BA00013900828E0FF25E02424F80806E61870D2
:100BB00043068040129B98C3E49FFFE49EFE90088A
:100BC00028E075F002A42414F582E5F0340BF583D7
:100BD000E0FCA3E0C39FEE6480F8EC6480984003DF
:100BE000020D46900828E0FF25E02424F808E616C8
:100BF0001870011675F002EFA42414F582E5F034A4
:100C00000BF583E4F0A3F0020D46900B76E0FF3382
:100C100095E0FEC3E49FFFE49EFEC390082AE09F98
:100C2000EE6480F8900829E06480984003020CBCD0
:100C3000900828E0FF242EF582E4340BF583E004CD
:100C4000F074B62FF582E4340AF583E4F0742E2FA5
:100C5000F582E4340BF583E0FF75F00A84E5F0706B
:100C600046C3EF946474809480900828E040142474
:100C70002EF582E4340BF583E4F0D215900B9E043C
:100C8000F0802425E02424F8C000E6FE08E6FF906A
:100C90000B76E0A2E713FD3395E0FCC3EF9DFFEE7A
:100CA0009CD000F608A607900828E0FF900C57E0BB
:100CB0006F6003020D4674FFF0020D46900B76E064
:100CC000FF3395E0FED390082AE09FEE6480F89011
:100CD0000829E0648098406E900828E0242EF58270
:100CE000E4340BF583E4F0FFFEFDFCAB0BAA0AA98C
:100CF00009A808C312187F704D900828E0FF24B699
:100D0000F582E4340AF583E004F074B62FF582E44A
:100D1000340AF583E06420702D900828E0FF24B6A3
:100D2000F582E4340AF583E4F0900B76E0A2E71351
:100D3000A2E713FD3395E0FCEF25E02424F808ED4D
:100D400026F618EC36F6E50B550FFFE50A550EFEB4
:100D5000E509550DFDE508550C4D4E4F7003020E8B
:100D60005790082EE0FCA3E0FDAE047802CEA2E787
:100D700013CE13D8F8FFC3ED9FFFEC9EFEC390087F
:100D80002AE09FEE6480F8900829E0648098400390
:100D9000020E46900828E02491F582E4340BF58396
:100DA000E004F0129C2790082DEFF0E490082CF05E
:100DB00090082CE0FFC39510502274EB2FF582E4CD
:100DC000340AF583E0C3940174809480400690084F
:100DD0002BE004F090082CE004F080D490082BE085
:100DE000C39403748094804008900AB3E090082D67
:100DF000F0900828E0FB2491F582E4340BF583E0C1
:100E0000FF90082DE0FEEFC39E5003020EC67491C2
:100E10002BF582E4340BF583E4F0AF0FAE0EAD0D8D
:100E2000AC0C121872E50B5FF50BE50A5EF50AE5EE
:100E3000095DF509E5085CF50874EB2BF582E434EF
:100E40000AF583E4F022900828E02491F582E43446
:100E50000BF583E014F022900828E024EBF582E4FF
:100E6000340AF583E4F0FFFEFDFCAB0BAA0AA909E6
:100E7000A808C312187F7008900828E0FF126D536D
:100E8000E51014FF900828E06F703B900C5EE0C303
:100E900095104032E490082CF090082CE0FFC395A8
:100EA00010501B74EB2FF582E4340AF583E06006E2
:100EB00090082B7401F090082CE004F080DB90087F
:100EC0002BE07002C21422900042E412172890080E
:100ED00096E0FBA3E0FAA3E09008A1F9E0FEA3E00E
:100EE000F5828E831215A7FF900893E0FBA3E0FA2A
:100EF000A3E0F9229000FC75F01DED121928EC75A5
:100F0000F01DA42583F58322E4F0A3F0A3F0A3F061
:100F1000A3F0A3F0A3F0A3F0A3F0A3F02290088322
:100F2000E0FEA3E0FF7C007D1D12160890089A7475
:100F3000062FF974013EFA7B01E4F0A322900883A6
:100F4000E0FEA3E0FF7C007D1D12160890089A7455
:100F5000092FF974013EFA7B01E4F0A3227D1D12F2
:100F6000160890089A74FB2FF974003EFA7B01E48E
:100F7000F0A3227D1D12160890089A74FF2FF974B1
:100F8000003EFA7B01E4F0A3227D1D1216089008B2
:100F90009A74032FF974013EFA7B01E4F0A32290C6
:100FA0000883E0FEA3E0FF7C007D1D121608743567
:100FB0002FF9740190089A3EFA7B01E4F0A3229085
:100FC0000AABE47B017A017918F0A322900883E050
:100FD000FEA3E0FF7C007D1D0216087B017A0179EB
:100FE00043E4F0A3227B017A017960E4F0A3227B41
:100FF000017A01793DE4F0A3227B017A01795AE478
:10100000F0A322E47B017A017945F0A322E0F9A361
:10101000E0FAA3E090088FC9F0A3EAF0A3E9F02278
:101020009000011215A7FF900028E48FF0121728F6
:101030009000021215A7FF90002AE48FF0121728E3
:101040009000031215A7FF90002CE48FF0121728D0
:101050009000041215A790002EFFE48FF0021728CD
:10106000E47B017A017962F0A322EFF0AF037C0008
:101070007D64AE0212161A7F0A7E00CFCDCFCECC91
:10108000CE02161AE47B017A0079FBF0A3229000CD
:1010900010E475F00112172890088DE4F0A304F015
:1010A000900885E0FCA3E0FD7F017E0022E47B0147
:1010B0007A0079FFF0A322E47A0179067B01F0A39C
:1010C0007403F022E0FBA3E0FAA3E04A4B22E47BA6
:1010D000017A01791CF0A322E47B017A017923F0E3
:1010E000A322E47B017A017909F0A322900899E018
:1010F000FEA3E090089DFFE0FCA3E0FD22E47B015D
:101100007A017926F0A322E47B017A017903F0A326
:101110002275F00AA42DFFE5F03CFE1215A77C0015
:101120002FFFEC3E9000158FF0121728900044120C
:1011300016D1640145F022E47B017A017920F0A305
:1011400022900883E0FEA3E0FF64014E22EEF0A3AC
:10115000EFF0E4A3F0A3F0EF4E221215A7FF7E00FC
:101160007C037DE8121608AC06AD07227C002FFF39
:10117000EC3EFEF0A3EFF022CFF0A3EFF07B017A7C
:1011800008793622FF1215A7FD129BFCAE079008C6
:101190007F22EEF0A3EFF0900885E0FEA3E0FF22AF
:1011A0009400CF2401FBE43FFAE0FEA3E0FF7C00C3
:1011B000227B01900AABE4F0A322FFE0FD129B0525
:1011C00090087F221215A7FFAD06129B0590087F9D
:1011D0002275F00AA42DFFE5F03CFE75F01DEB1220
:1011E0001928EA2290000E0216D190089DE0FEA375
:1011F000E0FFC3221215A775F064A42DFDEC35F0B5
:10120000FC2290089AE024FFFE900899E090089D47
:1012100034FFF0A3CEF0229008A5E0FEA3E0FFED9E
:101220006F22900005EF1215E69000060215A77BCD
:101230000190089AF0A37404F022900002EF1215B6
:10124000E69000030215A7900008EF1215E6900043
:10125000090215A7900824E0F9A3E0FAA3E022E030
:10126000FEA3E0FFF5828E830215A7E0FCA3E0F564
:10127000828C83EF0215E6FFE0FD129BFC9008AF25
:1012800022FFE0FCA3E0FDC39FEC227C002FFFECDB
:101290003EFEF0A3EFF0229000171216D1FFC3908C
:1012A000088EE09F90088DE095F0228D828C83124D
:1012B00015A7FF22E4F0A3F0A3F022EFF0900007BF
:1012C0000215A77D0A12161AAF05AE04AD03AC02D3
:1012D00002161AF09000080215A7F09000050215FA
:1012E000A7FB75F01D121928EA22900010E475F092
:1012F0000112172890088EE004F0229000120215C7
:10130000A79000130216D1A3ECF0A3EDF0227C27E6
:101310007D1002161A7403F07F37FE227404F07FEA
:10132000A67E03227404F07F327E03227404F07FD1
:10133000427E03227402F07F3F7E03227402F07F1C
:101340004F7E0322FC7D1D0216089000150216D167
:10135000900827E0FFA3E0900883CFF0A3EFF022EE
:101360007D017BFF7E00021568900003EF1215E6F9
:101370009000041215A7FF2290089EE024FFF09031
:10138000089DE034FFF022900001EF1215E6900076
:10139000020215A7F090000A0215A7900017121676
:1013A000D1FF900891E065F022FFE0FD129BFC90D8
:1013B000087F22E4F0A3F0A3F0227403F07F4BFE39
:1013C000227403F07F47FE22900883FFE0FCA3E035
:1013D000FD2275F064A42BFFE5F03AFEA3E0229015
:1013E0000010E4F5F022E0FBA3E0FAA3E0227C0089
:1013F0007D0A02161A740CF07F737E0322740CF0BF
:101400007F857E03227404F07FA07E0322EFF0909C
:10141000000C0215A7900893E0FCA3E022A3F0A320
:101420007401F0A322FF900892E5F0F0A3EFF02200
:1014300074FF2DF58274FF3CF58322F58274FF3E24
:10144000F5830215A79008A1E0FCA3E0FDEF6D2253
:1014500024FFF58274FF35F0F583227B0190089A12
:10146000F0A37403F022A3F0A3F090089A227B016A
:1014700090089AE4F0A304F022F090000B0215A764
:10148000EF1215E67F0122F58374FFF00F22FFAE05
:10149000F0C39410EE942722E709F608DFFA80469D
:1014A000E709F208DFFA803E88828C83E709F0A31F
:1014B000DFFA8032E309F608DFFA8078E309F20800
:1014C000DFFA807088828C83E309F0A3DFFA8064FE
:1014D00089828A83E0A3F608DFFA805889828A83AA
:1014E000E0A3F208DFFA804C80D280FA80C680D474
:1014F000806980F28033801080A680EA809A80A87C
:1015000080DA80E280CA803389828A83ECFAE493AD
:10151000A3C8C582C8CCC583CCF0A3C8C582C8CC3B
:10152000C583CCDFE9DEE7800D89828A83E493A35B
:10153000F608DFF9ECFAA9F0EDFB2289828A83EC48
:10154000FAE0A3C8C582C8CCC583CCF0A3C8C582C5
:10155000C8CCC583CCDFEADEE880DB89828A83E4FD
:1015600093A3F208DFF980CC88F0EF60010E4E60A3
:10157000C388F0ED2402B4040050B9F582EB2402D4
:10158000B4040050AF23234582239014E873BB01B9
:101590000689828A83E0225002E722BBFE02E32210
:1015A00089828A83E49322BB010CE58229F582E5D6
:1015B000833AF583E0225006E92582F8E622BBFE55
:1015C00006E92582F8E222E58229F582E5833AF5EB
:1015D00083E49322BB010689828A83F0225002F7BA
:1015E00022BBFE01F322F8BB010DE58229F582E55D
:1015F000833AF583E8F0225006E92582C8F622BB3B
:10160000FE05E92582C8F222EF8DF0A4A8F0CF8C68
:10161000F0A428CE8DF0A42EFE22BC000BBE002923
:10162000EF8DF084FFADF022E4CCF875F008EF2FD9
:10163000FFEE33FEEC33FCEE9DEC984005FCEE9D96
:10164000FE0FD5F0E9E4CEFD22EDF8F5F0EE8420B2
:10165000D21CFEADF075F008EF2FFFED33FD400713
:10166000985006D5F0F222C398FD0FD5F0EA22C2B9
:10167000D5EC30E709B2D5E4C39DFDE49CFCEE3027
:10168000E715B2D5E4C39FFFE49EFE12161AC3E429
:101690009DFDE49CFC800312161A30D507C3E49F1D
:1016A000FFE49EFE22C5F0F8A3E028F0C5F0F8E5BF
:1016B00082158270021583E038F022A3F8E0C5F0AD
:1016C00025F0F0E582158270021583E0C838F0E855
:1016D00022BB0110E58229F582E5833AF583E0F526
:1016E000F0A3E0225009E92582F886F008E622BB43
:1016F000FE0AE92582F8E2F5F008E222E5832AF500
:1017000083E993F5F0A3E99322BB010A89828A83D6
:10171000F0E5F0A3F0225006F709A7F01922BBFE6E
:1017200006F3E5F009F31922F8BB0111E58229F56A
:1017300082E5833AF583E8F0E5F0A3F0225009E969
:101740002582C8F608A6F022BBFE09E92582C8F268
:10175000E5F008F222E88FF0A4CC8BF0A42CFCE991
:101760008EF0A42CFC8AF0EDA42CFCEA8EF0A4CD23
:10177000A8F08BF0A42DCC3825F0FDE98FF0A42C37
:10178000CD35F0FCEB8EF0A4FEA9F0EB8FF0A4CFEA
:10179000C5F02ECD39FEE43CFCEAA42DCE35F0FD9B
:1017A000E43CFC2275F008758200EF2FFFEE33FE5B
:1017B000CD33CDCC33CCC58233C5829BED9AEC9929
:1017C000E58298400CF582EE9BFEED9AFDEC99FCCB
:1017D0000FD5F0D6E4CEFBE4CDFAE4CCF9A8822212
:1017E000B800C1B90059BA002DEC8BF084CFCECD32
:1017F000FCE5F0CBF97818EF2FFFEE33FEED33FD6B
:10180000EC33FCEB33FB10D703994004EB99FB0F4F
:10181000D8E5E4F9FA227818EF2FFFEE33FEED3326
:10182000FDEC33FCC933C910D7059BE99A4007EC9E
:101830009BFCE99AF90FD8E0E4C9FAE4CCFB2275E5
:10184000F010EF2FFFEE33FEED33FDCC33CCC83379
:10185000C810D7079BEC9AE899400AED9BFDEC9ADB
:10186000FCE899F80FD5F0DAE4CDFBE4CCFAE4C853
:10187000F922CFF4CFCEF4CECDF4CDCCF4CC22EB04
:101880009FF5F0EA9E42F0E99D42F0E89C45F02287
:10189000E8600FECC313FCED13FDEE13FEEF13FF36
:1018A000D8F122E8600FEFC333FFEE33FEED33FDD6
:1018B000EC33FCD8F1227401FF3395E0FEFDFCA36C
:1018C000A3A3E0CF2FF0E582158270021583E0CE4E
:1018D0003EF0E582158270021583E0CD3DF0E58291
:1018E000158270021583E0CC3CF022ECF0A3EDF001
:1018F000A3EEF0A3EFF022A8828583F0D083D082FC
:1019000012190E12190E12190E12190EE473E49325
:10191000A3C583C5F0C583C8C582C8F0A3C583C568
:10192000F0C583C8C582C822A42582F582E5F035BA
:1019300083F58322D083D082F8E4937012740193EC
:10194000700DA3A393F8740193F5828883E47374F4
:1019500002936860EFA3A3A380DF900893EB1210BB
:1019600018E490089B120F15900899E0FCA3E0FD85
:1019700090089FECF0A3EDF0120EE812130125E0A1
:10198000FBE5F033FAED24FAFFEC34FFFE7C007D3A
:101990000512161A909CF375F0C8ED121928EC7513
:1019A000F0C8A42583F583E5822BF582E5833AF51B
:1019B00083E493FE740193FBAA067C007D64FF120E
:1019C000161A9008A1EEF0A312106AA3EEF0A3EF8E
:1019D000F0AE02AF031213EE121307E4120F1490CD
:1019E0000899E0FCA3E0FD24F5FEEC34FF9008AB81
:1019F000F0A3CEF09008931210C47002FF22120ED2
:101A0000E8121301FFAEF0D39400EE94004008EF0B
:101A10009464EE940040037F002290089F1211ED21
:101A20009406EE94004009D3EF940CEE940040032A
:101A30007F0022C002C0019008961212579008B28F
:101A4000121017121307D001D0021263F09008ABE6
:101A50001211EDEE9400405BD3EF9402EE9400502F
:101A6000529008A2E09F9008A1E09E500CA3E024B1
:101A70000AF09008A1E03400F0D39008A4E09F9011
:101A800008A3E09E500CA3E0240AF09008A3E034E1
:101A900000F09008ABE0FEA3E0FFD39008A6E09F23
:101AA0009008A5E09E500CA3E0240AF09008A5E061
:101AB0003400F090089DE4F0A304F01210ECD39FE2
:101AC000EC9E50359008A112121A7002EC6E60194B
:101AD000A312121A7002EC6E600FA312121A700297
:101AE000EC6E6005121307801090089EE004F07001
:101AF000CA90089DE004F080C2E490089DF0A3F035
:101B00001210ECC39FEC9E5026900896120EEB121A
:101B100012AB90089CE02FF090089BE03400F0900E
:101B2000089EE004F070D990089DE004F080D11286
:101B30000EE81212FB64066003021C1B9008ADF055
:101B4000A3F01212021211EAEE940040361214456C
:101B50007002EE6C6028A31210EF6F7002EC6E60E2
:101B60001D1212177002EC6E6014A312121A70028A
:101B7000EC6E600A9008ADECF0A3EDF08005121356
:101B80007880C2120EE81210201212DB9000301280
:101B9000105975F005120EC79000281216D16F70FB
:101BA00002E5F06003021CDB9008961213E6900831
:101BB000A3120EDB90002A1216D16F7002E5F060BE
:101BC00003021CDB900896120EEB9008A5120EDCA7
:101BD00090002C1216D16F7002E5F06003021CDB3E
:101BE000900896120EEB9008A7120EDC90002E12B1
:101BF00016D16F7002E5F06003021CDB90089612AC
:101C00000EEB9008AD120EDC9000301216D16F7002
:101C100002E5F06003021CDB021CBE120EE8121289
:101C2000FB64076003021CC61212021211EAEE9452
:101C30000040271214457002EE6C6019A31210EFD9
:101C40006F7002EC6E600E1212177002EC6E60057F
:101C5000121307800512137880D1120EE81210209B
:101C600075F004120EC79000281216D16F7002E5AD
:101C7000F07068900896120EEB9008A3120EDC909C
:101C8000002A1216D16F7002E5F0704F900896127C
:101C90000EEB9008A5120EDC90002C1216D16F707E
:101CA00002E5F07036900896120EEB9008A7120E1F
:101CB000DC90002E1216D1B50721E4B5F01D90007E
:101CC0004475F0018012120EE8900042E4F5F01223
:101CD0001728900044E4F5F0121728120EE81211AC
:101CE0002C7F0070027F012290061CE0FF3395E0FC
:101CF000FEEF4E2290053BE0FF14F0EFC394017419
:101D000080948022E490053EF090050F7407F0E483
:101D10009001B6F09005D57407F022740490053F49
:101D2000F0E4900BFEF0740C900BFDF0900BFF7440
:101D300001F022900BE9E0FFA3E0FEC39F22740EA6
:101D4000900556F090055574802290050F7407F0A9
:101D50009005D5F0E49001B6F02274ED2FF582E401
:101D6000340BF58374FFF022FF24FCF58274FF3EF0
:101D7000F583ECF0A3EDF074FE2FF58274FF3EF5D1
:101D8000837401F074FF2FF58274FF3EF583229077
:101D9000080374FFF5F01216A5FCC3E5F09401ECFE
:101DA000940022900BE1E0640A229000F7E0FF7EAD
:101DB00000D394007480948022E4F090053E742453
:101DC000F09000F5E4F0A37480F02290054B74FFCE
:101DD000F5F01216BBFEC3E5F09401EE2290053C2F
:101DE000740CF090042AE090053DF090053B74805F
:101DF000F0229000EFE0FF3395E0FE22900BEAE046
:101E000004F022900554E024FFFF900553E034FFD6
:101E1000FE2290080CE0FFC3940C74809480229002
:101E200005417402F0A37480F090054AE064012239
:101E3000F09000C8E4F0A3F0A3F022FFE433FE909A
:101E40000BE1E07C00229007FEF0900803E4F0A391
:101E50007440F022E49000CCF0A3742BF0A374F251
:101E6000F0229000CBC3E094057480948022FF247C
:101E7000FCF58274FF3EF58374FFF0A3F074FE2F2F
:101E8000F58274FF3EF583E422900BE1E0640122C9
:101E9000900BE1E064022290053F7413F0A32290BE
:101EA0000BE1E0FDC3940A748094802204F0E49076
:101EB0000BE8F022900BE8E0FF7E00640222F0A322
:101EC0007401F07BFF7AA57908229004F1F0900468
:101ED000F37440F0E422E0C3940474809480227E82
:101EE00000900539EEF0A3EFF024FFFFEE34FFFE83
:101EF00022900556740EF0A3740CF0E422F0A37443
:101F000003F0A37480F07D347F4822900BE4E0FC62
:101F1000A3E0FD900553ECF0A3EDF02290050F74C3
:101F200007F022E004F0900539E0FCA3E0FDAE04E8
:101F3000780222900555E014F02290080CE004F09D
:101F400022E075F004A424A0F974A435F0FA7BFF14
:101F5000229007FEE0FF7E0022900BE1E0FF7E0072
:101F60002290053E7415F0E490053FF090054A225A
:101F70009000F8E06401227403F0E4900429F090EA
:101F80000BE8F022900556E0640122900000F0A3D7
:101F9000F0229005CFE0640122E014F0900553E0B8
:101FA000FEA3E0780222A3740EF09005D1742622DD
:101FB000900BFDE0FF90080CE0FEC39F22E024FFA1
:101FC000F09000F5E034FFF0229005567402F0E442
:101FD00090061DF022F090054B7401F0A37440F0C0
:101FE00022900BEDEDF090080C7401F022E4F090DB
:101FF000019B74FFF022C3940274809480229005A8
:10200000417402F0A37480F022F09006437411F042
:1020100022F0E49005CFF0227B017A0B79ED22903B
:10202000055CE06401227B037D037F0322E49000D2
:10203000EDF0A3F0A3F022900BE1E0640322F09016
:1020400006207402F07BFF22E490080BF090080A4F
:10205000F0221286B290080E1218EB128B2D600738
:10206000128B44A31218EBC390050AE0942090054C
:1020700009E0940050037FFF2230190A128B2D7063
:1020800002C2197FFF22128B44124BF220C207E4D6
:10209000900C42F08006900C4274FFF0128B157089
:1020A00009900C47E070030221A7900C37128B189F
:1020B000700B900C47E0640170030221B6900C385D
:1020C000128B18700B900C47E0640270030221C65B
:1020D000900C39128B18700B900C47E0640370035E
:1020E0000221D7900C3A128B18700B900C47E064C9
:1020F0000470030221E8900C3B128B18700B900CBB
:1021000047E0640570030221F9900C3C128B1870B3
:102110000B900C47E06406700302220A900C3D12FB
:102120008B18700B900C47E06407700302221A9022
:102130000C3E128B18700B900C47E0640870030281
:10214000222A900C3F128B18700B900C47E0640908
:10215000700302223A900C40128B18700B900C47BF
:10216000E0640B700302224A900C41128B18700B32
:10217000900C47E0640A700302225A900C42128BC2
:1021800018700B900C47E0640D700302226A900CEB
:1021900046128B18700CA3E0640C7006900C4A0277
:1021A000227D128B157007900C4AF0022285900C4C
:1021B00037128B187008900C4A04F0022285900C9C
:1021C00038128B187009900C4A7402F00222859024
:1021D0000C39128B187009900C4A7403F002228596
:1021E000900C3A128B187009900C4A7404F0022279
:1021F00085900C3B128B187009900C4A7405F00204
:102200002285900C3C128B187008900C4A7406F0D2
:102210008073900C3D128B187008900C4A7407F074
:102220008063900C3E128B187008900C4A7408F072
:102230008053900C3F128B187008900C4A7409F070
:102240008043900C40128B187008900C4A740BF06D
:102250008033900C41128B187008900C4A740AF06D
:102260008023900C42128B187008900C4A740DF069
:102270008013900C46128B18900C4A7005740CF069
:10228000800374FFF0900C4AE0FF900642F0F47077
:1022900003022315900C47E0FD900C4AE0FC6D60B2
:1022A00015EF640D9008166004ECF0800374FFF0E5
:1022B000900C47EC8079D3900C49E094C0900C4886
:1022C000E09400500FA3E004F07006900C48E00486
:1022D000F0128B53900C48E0FEA3E0FFD39460EE25
:1022E0009400402CEF94C0EE9400400EA3E0640DE7
:1022F0007008900816741BF08003128B53900C35F5
:10230000E004F0D3947F748094804029E4F0802529
:10231000128B538020900C47E0FF640D90081670DC
:1023200004EFF0800374FFF0900C4AE0900C47F04B
:10233000E4A3F0A3F0900816E0FF2290053FE070C0
:10234000739000D2E0701D90054AE0640270159011
:1023500000D5E0700F121E977407F0A3121DC47F02
:102360003E029B2390054AE0FF7E006401700E90C0
:1023700000D5E0121FF650028001C35018EF64022E
:102380004E70289000D4E0C394087480948050026A
:102390008001C34016121E977406F0A3121DC47F5D
:1023A00058129B237F647E00029CDC90053F7401E1
:1023B000121EAD2290053FE0640170417403121FAC
:1023C000D5E4900BE8121E2870051298668003125F
:1023D0009833900543EFF0121D21E490080CF012A1
:1023E0001E125008121D5A121F3A80F3121E1F7B34
:1023F0005270047D4C80027D4E7F66806C90053F5C
:10240000E06403600302249B900BFFE0640270739E
:10241000900BFED3121E664053E490080CF0900817
:102420000CE0121E17501EE0FF24EDF582E4340B81
:10243000F583E0FE74D52FF582E4340BF583EEF0DE
:10244000121F3A80D9121D1BE490080CF0121E12C4
:102450005008121D5A121F3A80F3121E1F7B527031
:10246000047D4C80027D4E7F68029B5B7403121DCD
:102470001DE490080CF0121E125064121D5A121F17
:102480003A80F3900BFFE064037002805C121DCB76
:1024900064809480400302261F806790053FE064BB
:1024A000047067FD7F05129A87900BFF121EB770AC
:1024B00032900BFEE0D3121E67400790053F740573
:1024C000F022121D1BE490080CF090080CE0FD12A5
:1024D0001E17500B74ED2D121D5D121F3A80EB126A
:1024E0001FFE22EF64034E700D121E97740CF0A3B2
:1024F000E4F0A304F022121DCB6480948040030218
:10250000261F121E97740102258F90053FE0640577
:10251000600302259B7B0190081004F0A3740BF06C
:10252000A374EDF07A0B79D5125771EF3395E04F24
:10253000705812201812554BEF703F12201890055A
:1025400043E0FD126F26EF3395E0FEEFF47002EEEC
:10255000F4600302261F90053F7412F090054112AB
:102560001DC47D327F44129AA8121E297005900066
:10257000D580039000D4E004F022121E977404F07A
:10258000A3121DC47D527F56800E121E977409F04F
:10259000A3121DC47D347F44029AA890053FE064D5
:1025A000127020900541121DCE940050729000D2FE
:1025B000E07069121E2970649000D5E06401705CBF
:1025C000029B3F90053FE064137054900541121D3B
:1025D000CE9400504A900540E0FF7E00640C700EDF
:1025E0009000D2E070089000D5E070028011900059
:1025F000D2E0700F121E29700A9000D5E07004120C
:102600001D0522EF64064E600E900540E0FF640C4D
:102610006005EF64077005121E298000129C852258
:102620007A0179351211B17404F07FAD7E031289FD
:1026300026900135E0F4600FA3E0F4600AA3E0F413
:102640006005A3E0F47017E4900135120F159008AF
:102650009A1210857404F07FAD7E0312420B120FA4
:10266000BF7404F07FB47E03128926900152E0F417
:10267000600FA3E0F4600AA3E0F46005A3E0F47047
:1026800015E4900152120F157A01795212122F7F20
:10269000B47E0312420B7A0179391211B17404F03D
:1026A0007F527E03128926900139E0F4600FA3E087
:1026B000F4600AA3E0F46005A3E0F47015E490016F
:1026C00039120F157A01793912122F7F527E0312B7
:1026D000420B7B017A0179561211B37404F07F62C8
:1026E0007E03128926900156E0F4600FA3E0F460A7
:1026F0000AA3E0F46005A3E0F47017E49001561219
:102700000F157B017A0179561212317F627E031216
:10271000420B7B017A0179401211B37403F07F5BA5
:10272000FE128926900140E0F4600AA3E0F46005FF
:10273000A3E0F470139001401212B47A01794012B0
:10274000145B7F5BFE12420B7B017A01795D1211F3
:10275000B37403F07F6BFE12892690015DE0F46094
:102760000AA3E0F46005A3E0F4701390015D121277
:10277000B47A01795D12145B7F6BFE12420B900AF2
:10278000AB120FDB7402F07F5F7E0312892690018B
:1027900043E0F46005A3E0F4701090089A120FDB98
:1027A0007402F07F5F7E0312420B900AAB120FE5BA
:1027B0007402F07F6F7E03128926900160E0F4605E
:1027C00005A3E0F4701090089A120FE57402F07FF0
:1027D0006F7E0312420B900AAB120FEF1213151209
:1027E000892690013DE0F4600AA3E0F46005A3E0CF
:1027F000F4700F90089A120FEF7403F07F57FE12D7
:10280000420B900AAB120FF97403F07F67FE128936
:102810002690015AE0F4600AA3E0F46005A3E0F416
:10282000700F90089A120FF97403F07F67FE12423E
:102830000B900AAB1210031213F512892690014572
:10284000E0F46037A3E0F46032A3E0F4602DA3E08D
:10285000F46028A3E0F46023A3E0F4601EA3E0F496
:102860006019A3E0F46014A3E0F4600FA3E0F46047
:102870000AA3E0F46005A3E0F47012900145120F82
:10288000081214661210041213F512420B900AABD0
:102890001210601213FD128926900162E0F4603775
:1028A000A3E0F46032A3E0F4602DA3E0F46028A379
:1028B000E0F46023A3E0F4601EA3E0F46019A3E059
:1028C000F46014A3E0F4600FA3E0F4600AA3E0F462
:1028D0006005A3E0F47013E4900162120F09121472
:1028E000661210611213FD12420B2290080CEEF0DA
:1028F000A3EFF0900429E07015741E126779A37499
:1029000001F0E4A3F0A374FFF07F6C022AA190040D
:1029100029E0641E7005741F022AC7900429E06430
:102920001F7063126766704F9005D1E070089004C5
:10293000297420022AE49005D1E0FF6403600AEFC5
:1029400064026005EF64F9702B900429741EF01284
:1029500067EA6003022B90900425E024FFF09004C6
:1029600024E034FFF0126732648094804003022B2D
:1029700090022B86022A4312672F648094804003C2
:10298000022B90022B86900429E0642070107421A1
:10299000126770900426E0FF128AD0022B57900431
:1029A00029E064216003022A581267666003022A44
:1029B000499005D1E07052900426E0FF7E0064014A
:1029C0007020900428E0FD3395E0FCED4C701390EE
:1029D0000426E004F09004297424F090042874FF85
:1029E0008020C3EF9405EE648094809004295010F9
:1029F000126777A3E004F0122B91129CDC022AE507
:102A00007417F01267D9022AE59005D1E0FF640639
:102A10006005EF6403702C900427E0C39403748076
:102A20009480900429500E1267771294D9122B913A
:102A3000129CDC80077429F0A3740BF0900427E04B
:102A400004F022900429022B7512672F6480948071
:102A50004003022B90022B86900429E06424700F1F
:102A600074251267707B32FAFDFC7F0102811C9095
:102A70000429E06425704612676670329005D1E043
:102A8000FF7E00700B9004297429F0A3740AF022D1
:102A9000EF64094E90042970121267771294D97F5F
:102AA0006E129B237F967E00029CDC022B751267C0
:102AB0002F648094804003022B90022B869004297F
:102AC000E06422700874231267700298AF900429A2
:102AD000E06423702812676670141267EA90042974
:102AE00060067422F00294D9741E1267792212676C
:102AF0002F648094804003022B90022B869004293F
:102B0000E06417700A74181267701297AB804890CF
:102B10000429E0FF7E0064187022126766700F902F
:102B200005D1E090042970047419F02280479004C4
:102B3000241267CA648094805056804AEF64194E0C
:102B40007019900429741A12677090080CE0FCA3A5
:102B5000E0FD7F011286001267D922900429E0640B
:102B60001A702D12676670159005D1E090042970D7
:102B7000047428F0227429F0A3740BF02212672F3A
:102B800064809480500A9004297429F0A37401F0A1
:102B9000227F6E129B237F967E002290087FEB128D
:102BA0001018900889120F0890087F1210C4700244
:102BB000FF2290087F120EEB1213DF121728C002BB
:102BC000C0019008821212579008961210179008B0
:102BD00087E0FFA3E0900899CFF0A3EFF0D001D0F9
:102BE0000212195AEF7002FF2290087F120EEB12A8
:102BF00012FB24F96069046003022DF890000612AC
:102C0000115A9000071211F41212D49000091211F7
:102C1000116003022E04121197127AC5900889EEF2
:102C2000F0A3EFF090087F120EEB12134A12148EED
:102C30004003022E049008891212829E5002800FD7
:102C4000BC2716BD0F13C3EF940BEE9400500A90EF
:102C50000010E475F001022E011213DF022E019024
:102C6000087F120EEB12122975F00AA4FDACF012C7
:102C700012DB75F064A42DFFE5F03CFE1212BD7C62
:102C8000002FFFEC3E9000178FF0121728900008DD
:102C900012115A9000091211F412139590000B12A0
:102CA00011116003022E04121197127C3A90088BC6
:102CB000121192127D3190088D121192127E98900D
:102CC00008911211921282AC90088FEEF0A3EFF0EF
:102CD00090087F120EEB12134A12148E4003022E3C
:102CE0000490088BE0FCA3E0FDC3940FEC94275004
:102CF00073C3ED9FEC9E5003022DAE90087F120E21
:102D0000EB12134AFF90088BE065F07003A3E06FAD
:102D1000704612139B7003A3E06F6003022DAE9008
:102D2000087F120EEB121301FF90088FE065F07020
:102D300003A3E06F600612108E12659C90087F124C
:102D40000EEB1212974003022E041212EA70069044
:102D5000088DE004F0022DE690087F120EEB1213AE
:102D6000DF022E0190088BE064277004A3E0640F5B
:102D70006003022E0490087F120EEB12134AC394D4
:102D80000BE5F09400500612108E12659C90087F9F
:102D9000120EEB12134AFF90088BE065F07003A34C
:102DA000E06F706012139B7003A3E06F6005121058
:102DB0008E804090087F120EEB121301FF90088F57
:102DC000E065F07003A3E06F600612108E12659C40
:102DD00090087F120EEB12129750291212EA700619
:102DE00090088DE004F090088DE0FEA3E090088547
:102DF0001213CB12659C800C90087F120EEB1213FD
:102E0000DF12172890087F120EEB90001012112F7E
:102E10007F0070027F01229000CC121CEB700B909F
:102E2000053E7427F07F041276A19005DFE070065E
:102E30007420F012836F9005D5E0640470649000F4
:102E4000ED74FFF09005DDA3E09000F3F01294D94B
:102E5000121E319000F8E070047F018020121F7074
:102E6000707C121DF2BEFF07BFFF047F06800E902C
:102E700000EE121DF5BEFF0ABFFF077F041298C7C0
:102E8000805C9000F7E0700512307A8051121DAA24
:102E9000404CEF64017003121D149000F7E014F031
:102EA000803C9005D5E064057034123086700A7F4E
:102EB000091298C71294D98025E49000EDF0900093
:102EC000F104F09000F3121DB97F40129B23900093
:102ED000C9121ED65005E004F08003121E5412469B
:102EE000959001B6E0642870629000EE74FFF09057
:102EF00001B1A3E0049000F2121E309000F8E070DF
:102F0000047F038070121F706003022F9F9000EDFA
:102F1000121DF5BEFF07BFFF047F048058121DF28B
:102F2000BEFF07BFFF047F05804B9000F7E07005F0
:102F300012307A806A121DAA4065EF640170049015
:102F400001B6F09000F7E014F080549001B6E06410
:102F500029704CA3E0642B70089000FA7402F08092
:102F600005E49000FAF0123086700F9000FAE064E9
:102F70000260077F091298C78025E49000EEF09068
:102F800000F17403F0E4A3121DBA7F40129B23905A
:102F900000C8121ED65005E004F08003121E541221
:102FA000543690050FE0640A705F9000EF74FFF0F4
:102FB00090051DE09000F4121E309000F8E0600EC5
:102FC0009000F0E0FF64016005EF640270047F028E
:102FD000804B121F7060030230799000ED121DF5D6
:102FE000BEFF07BFFF047F0680339000EE121DF581
:102FF000BEFF07BFFF047F0580237F7A129B231249
:103000001F1C9000F77480F02290050FE0640B7095
:103010003512971AEF3395E04F70057F090298C774
:10302000E49000EFF09000F17402F09000F4121DB3
:10303000B97F40129B239000CA121ED65004E004B0
:10304000F022121E542290050FE0FF7E00640C70E7
:103050000D90043DF0A3F090053E7426F022EF643D
:103060000D4E7003029A6490050FE0641C700A7D97
:10307000327F44129AA8121F1C227F7A129B23903F
:1030800000F77480F02212971AEF3395E04F2290E8
:10309000087FEB121018A3EDF090087F1210C47097
:1030A000030232FFA3E06406600302315B90087FF5
:1030B000A3A3E0F91212291213C89000FB75F01DAA
:1030C000120EFB1212BBFF120EF4EF1212D3FF907E
:1030D00000FD120EF7EFF012124EFF9000FE120EDE
:1030E000F7EFF09000FB120EF7E0FF900135120EA3
:1030F000F7EFF0120EF4E0FF900136120EF7EFF04A
:103100009000FD120EF7E0FF900137120EF7EFF07E
:103110009000FE120EF7E0FF900138120EF7EFF06C
:10312000ED4C701A9008831211A9120F5D1214054C
:1031300012420B120F9F7404F07FAD0232FA12118B
:103140004160030232FFFC120F5D12131C12420B8E
:10315000120F9F7404F07FB40232FA900882E06488
:103160000760030232FF90087F120EEB1212D41296
:1031700013C89000FF75F01D120EFBEFF012124EF7
:10318000FF900100120EF7EF121394FF900101124D
:103190000EF7EF121479FF900102120EF7EF1212E0
:1031A000DAFF900106120EF7EFF0121229FF9001DC
:1031B00007120EF71212BBFF900108120EF7EFF084
:1031C00012158EFF900109120EF712140DFE9001D8
:1031D0000A120EF7EE1212D3FE900139120EF7EE1C
:1031E000F012124EFE90013A120EF7EE121394FEF8
:1031F00090013B120EF7EE121479FE90013C120E74
:10320000F7EE1212DAFE900140120EF7EEF01212F3
:1032100029FE900141120EF7EE1212BCFE900142FF
:10322000120EF7EEF0900143120EF712140DFF90FC
:103230000144120EF7EFF0ED4C706290088312110A
:10324000A9120F7312132412420B120F1D7403F0F4
:103250007F3BFE12420B120F3D12133412420B122F
:103260000FCC74392FF97401120FB47404F07F522B
:103270007E0312420B120FCC74402FF97401120F0F
:10328000B47403F07F5BFE12420B120FCC74432F19
:10329000F97401120FB47402F07F5F805D12114166
:1032A000705DFC120F7312132C12420B120F1D12C1
:1032B00013BA12420B120F3D12133C12420B120FA3
:1032C000CC74392FF97401120FB47404F07F627E4C
:1032D0000312420B120FCC74402FF97401120FB479
:1032E0007403F07F6BFE12420B120FCC74432FF964
:1032F0007401120FB47402F07F6F7E0312420B222E
:10330000E490081CF0A31218F700000000900821B8
:103310001218F700000000E4900825F0A3F0300335
:103320000302342B129CD3500302341D129272906C
:10333000081D1218EBE490081BF090081BE0C395E1
:1033400010503990081D125C3278011218909008C4
:103350001D1218EB30D720125C06C000C001900887
:103360001B125BF5E0F9F81218A3D001D000125C33
:103370003E90081CE004F0125C7D80BE90081CE0CA
:10338000FF7E00C39402748094804018D214EF949E
:1033900003748094804005129CD68008129C1FEF15
:1033A0006002C214201423E4FFFEFDFC125C06C37D
:1033B00012187F6010900B75E004F07006900B748B
:1033C000E004F0801D125C618018900B63E004F053
:1033D0007006900B62E004F09008211218F70000CC
:1033E0000000129B8DD3900B75E09F900B74E09EB4
:1033F0004006129CD6125C61D3900B63E0942C9033
:103400000B62E09401500302354D129CD6900B9E46
:103410007401F0E4900B62F0A3F002354D90A61613
:10342000E4740193FF123D1D02354D200403023563
:1034300017125C06C000C001900B9F125BF5E0F90B
:10344000F81218A3D001D000125C3E125B93125CFC
:1034500084900825F0A3EFF0900B9FE0FF129C3FB3
:10346000AD07AC06ED7802CEA2E713CE13D8F8FF75
:10347000C3ED9FFFEC9EFED3900826E09FEE648094
:10348000F8900825E06480985058E4900B12F0A35F
:10349000F0900AD0E004F09405748094804010E429
:1034A000F0C203C2049008211218F700000000E4E3
:1034B00090081BF090081BE0FFC3951040030235F5
:1034C0004D123ED020031690081BE0FF900B9FE0AA
:1034D0006F600A90081BE0125BA3125C50125C7DC7
:1034E00080D2E4900AD0F0129B8D900B12E475F01C
:1034F000011216A5FCD3E5F09FEC9E4050129CD61D
:10350000E4900B12F0A3F0C203C204900821121839
:10351000F7000000008036785806E6D394057480E2
:1035200094804004E4F6C203E490081BF090081B6A
:10353000E0FFC395105016123ED020030B90081BDD
:10354000E0FF125BA3125C50125C7D80E0900821CA
:10355000125C32227D017F0412355E0D7F04EFF58F
:1035600082758300C3748094804024D3E5829405DF
:10357000748094805019EDF582C374809480400F5C
:10358000E5829408748094805005758201800390D0
:103590000000E582640145836003023757EF146041
:1035A0006414700302364A14700302368F147003D9
:1035B0000236D4147003023716240560030237570D
:1035C000EB14601D14602D24026003023757A80518
:1035D0007401088002C333D8FCFF429AEFF4529B77
:1035E00022A8057401088002C333D8FCFFF4529A64
:1035F000EF429B22A8057401088002C333D8FCF473
:10360000529A529B22EB14601D14602D2402600319
:10361000023757A8057401088002C333D8FCFF4263
:1036200091EFF4529222A8057401088002C333D8A6
:10363000FCFFF45291EF429222A805740108800227
:10364000C333D8FCF45291529222EB14601D1460E3
:103650002D24026003023757A8057401088002C3B5
:1036600033D8FCFF42A1EFF452A222A8057401084E
:103670008002C333D8FCFFF452A1EF42A222A80576
:103680007401088002C333D8FCF452A152A222EB89
:1036900014601D14602D24026003023757A80574BE
:1036A00001088002C333D8FCFF42B1EFF452B222CA
:1036B000A8057401088002C333D8FCFFF452B1EFAF
:1036C00042B222A8057401088002C333D8FCF45228
:1036D000B152B222EB14601A14602A24027078A846
:1036E000057401088002C333D8FCFF42C1EFF452D5
:1036F000C222A8057401088002C333D8FCFFF4522B
:10370000C1EF42C222A8057401088002C333D8FC6D
:10371000F452C152C222EB14601A14602A240270BF
:1037200036A8057401088002C333D8FCFF42D9EFE4
:10373000F452DA22A8057401088002C333D8FCFFD2
:10374000F452D9EF42DA22A8057401088002C3338B
:10375000D8FCF452D952DA2290082A12589A9008CA
:1037600029EFF090083474FEF0E4A3F0A3F0EF2406
:10377000F4601024FE70169008357412F0A37410D3
:10378000F0800A9008357420F0A37430F09008356A
:10379000E04480FD7F02129B687D807F0412959E2D
:1037A0001239497D807F0A1296DCE4900838F0A334
:1037B000F090082DE0FF900838E0FCA3E0FDC39FE7
:1037C000EC9400502390082A1258918D828C831219
:1037D00015A7FD7F09129B68900839E004F070D1AD
:1037E000900838E004F080C9900829E0FD7F0112BC
:1037F0009B68900829E0640C70077D807F0D12960D
:10380000DC129B31900838E4F0A37464F07F04125A
:103810009A09900837EFF0900839E024FFF09008FB
:1038200038E034FFF0E07002A3E06011900837E068
:10383000FF20E009900836E0FEEF5E60D07D807FDB
:103840000D12959E900838E07002A3E070030239D3
:10385000367F06129A09EF541B600302392E900836
:1038600034F0A3E0FF900837E05F30E006900834C2
:1038700074FFF0900829E0640C60030239397F0A74
:10388000129A09900837EFF07F0C129A09EF54074B
:10389000FD6029900837E024FFFFE434FFFEEF7855
:1038A00003C333CE33CED8F97C002DFFEC3EF99024
:1038B0000831E0FBA3E0FAA3E0C98011900837E0EB
:1038C00075F008A4FF900831125891E5F08FF012BE
:1038D0001709900837E0700204F0900837E0D3949D
:1038E000127480948040037412F0E4900838F0A3BE
:1038F000F0900837E0FFC3900839E09F900838E067
:10390000940050357F09129A0990082E1258919010
:103910000838E0FCA3E0F5828C83EF1215E69008EE
:1039200039E004F070CB900838E004F080C39008D0
:103930003474FEF08003129C777D807F0C1296DC3D
:10394000123949900834E0FF22E4FD7F01129B68A0
:1039500022900417E060030239DC9000D2E0704549
:103960009000D5E0703F90053E7415121FD590056C
:103970003F7403121EAD90054304F090054A121DDA
:1039800020E490080CF090080C121E15500B121D2C
:103990005A90080CE004F080ED121FFE7B527D4C23
:1039A0007F66029B5B121D2190050F7409F0E49065
:1039B000080CF0900BFDE0FF90080CE0FEC39F5058
:1039C0000E74ED2E121D5D90080CE004F080E49062
:1039D00004177401121D537F5A029B23900417E0B1
:1039E00064016003023AE87D107F06129A87900B0B
:1039F000FFE06402704B9004177403F01220181259
:103A0000554B900420EFF0600FC3940374809480B2
:103A100050069004177402F0121F1C900417E06403
:103A20000370157F40129B2390041F7480F0121EB8
:103A300062501FE004F0801A7D327F5A129AA880EB
:103A400011900BFFE0640370099004177404F012E6
:103A50001F1C1246959001B6E064287029C390019E
:103A6000B2E0940A9001B1E09400501A90041774E7
:103A700002121D537D327F5A129AA89001B574012B
:103A8000F07F03023B379001B6E0FF64296022EF2C
:103A900064286003023B3A9001B2E02401FF9001E8
:103AA000B1E03400FED3EF940AEE94005003023BE1
:103AB0003A9001B7E0642B90042170057402F08005
:103AC000037401F0E49001B6F09004177403F090D1
:103AD000041F7480F07F40129B237F021276A11294
:103AE0001E625056E004F022900417E06402700950
:103AF000129B3FE49000CBF022900417E064037027
:103B00002090041FE014F0121CFC502E121E624084
:103B100005E4A3121E58121D4A90053EF07F018055
:103B200016900417E0640470117F60129B23121D2D
:103B30004A90053EF07F011276A122900AAB121046
:103B4000841214051289269000FBE0F4600FA3E0B4
:103B5000F4600AA3E0F46005A3E0F47017E49000B9
:103B6000FB120F157B017A0079FB1212317FA07EC8
:103B70000312420B120FBF12131C12892690011858
:103B8000E0F4600FA3E0F4600AA3E0F46005A3E0B2
:103B9000F47013E4900118120F1590089A120FC3D5
:103BA00012131C12420B900AAB1210AD1213241206
:103BB00089269000FFE0F4600FA3E0F4600AA3E020
:103BC000F46005A3E0F47013E49000FF120F159069
:103BD000089A1210AE12132412420B900AAB121064
:103BE000CE12132C12892690011CE0F4600FA3E082
:103BF000F4600AA3E0F46005A3E0F47013E490011C
:103C00001C120F1590089A1210CF12132C12420B8F
:103C1000900AAB1210B77F3BFE128926900106E096
:103C2000F4600AA3E0F46005A3E0F47012900106CA
:103C30001213B390089A1210B87F3BFE12420B90F9
:103C40000AAB1210D81213BA128926900123E0F49D
:103C5000600AA3E0F46005A3E0F47012900123125F
:103C600013B390089A1210D91213BA12420B900A89
:103C7000AB1210E2121334128926900109E0F460AD
:103C800005A3E0F47010E49001091214671210E328
:103C900012133412420B900AAB1210FD12133C1295
:103CA0008926900126E0F46005A3E0F47010E4900A
:103CB00001261214671210FE12133C12420B900AD6
:103CC000AB121107121315128926900103E0F4605C
:103CD0000AA3E0F46005A3E0F47011E4900103F09E
:103CE00012146612110812131512420B900AAB122D
:103CF00011371213C1128926900120E0F4600AA343
:103D0000E0F46005A3E0F47011E4900120F01214D7
:103D1000661211381213C112420B02262090082796
:103D2000EFF0900C5CE0C39403748094804048E40E
:103D3000F0900B9EE07035900828F0900828E0C3C2
:103D400095105028E0FF75F002A42477F582E5F085
:103D5000340BF583E0FCA3E0FDEF25E02424F8A676
:103D60000408A605900828E004F080CF1280B5C2B0
:103D700015E4900B9EF022900C56E004F09008277A
:103D8000E0FF900C56E0B507081291A6E4900C579E
:103D9000F0900827E0FF900C56E0D39F5003023EBE
:103DA000CFE4900828F0900828E0C3951040030263
:103DB0003E7BE0FF75F002A42477F582E5F0340B3A
:103DC000F583E0FCA3E0FD75F002EFA424D1F582B9
:103DD000E5F0340AF583E0FEA3E0C39DFFEE9CAD61
:103DE00007FC900B9EE07042900B76E0FB3395E071
:103DF000FAFEEB7802C333CE33CED8F9FFD3ED9F72
:103E0000EE6480F8EC6480984060E49BFFE49AFEE6
:103E1000EF7802C333CE33CED8F9FFC3ED9FEE6403
:103E200080F8EC64809850428051900B76E0FB3330
:103E300095E0FAFEEB7803C333CE33CED8F9FFD347
:103E4000ED9FEE6480F8EC648098401EE49BFFE4F4
:103E50009AFEEF7803C333CE33CED8F9FFC3ED9F7C
:103E6000EE6480F8EC6480984011900828E0FF121E
:103E70003ED0900828E004F0023DA6900828E0B566
:103E80001006900C57E004F0900827E0FD75F0084C
:103E9000A4FF900C56E0C39FE5F06480F87480980E
:103EA000402DE4F0C214900C5CE004F0ED75F004D9
:103EB000A4FF900C57E0C39FE5F06480F8748098ED
:103EC000400DE4900C5CF01293861280B5C215226E
:103ED000900829EFF0F9E0FF75F002A42477F5824D
:103EE000E5F0340BF583E0FCA3E0FD75F002EFA4F0
:103EF00024D1F582E5F0340AF583E0FEA3E0C39D0A
:103F0000FFEE9C90082AF0A3EFF0AF01129C3FADAA
:103F100007AC0690082AE0FEA3E0FFD39DEC648086
:103F2000F8EE6480985014C3E49DFBE49CFAC3EF60
:103F30009BEA6480F8EE648098502F900829E0FF97
:103F400075F002A424D1F582E5F0340AF583E0FC93
:103F5000A3E0FD75F002EFA42477F582E5F0340BC1
:103F6000F583ECF0A3EDF0024043ECA2E713FEED85
:103F700013FF90082AE0FAA3E0FBD39FEE6480F8D9
:103F8000EA648098501CECA2E713FEED13FFC3E433
:103F90009FFFE49EFEC3EB9FEE6480F8EA64809886
:103FA000503E900829E0FD75F002A42477F582E5E3
:103FB000F0340BF583E0FAA3E0FBEAC313FEEB1346
:103FC000FFC3EB9FFBEA9EFA75F002EDA424D1F546
:103FD00082E5F0340AF583E0C313FEA3E0138047C3
:103FE000900829E0FD75F002A42477F582E5F0340D
:103FF0000BF583E0FAA3E0FBAE027803CEC313CE49
:1040000013D8F9FFC3EB9FFBEA9EFA75F002EDA40B
:1040100024D1F582E5F0340AF583E0FEA3E07803CD
:10402000CEC313CE13D8F92BFFEA3EFE900829E049
:1040300075F002A42477F582E5F0340BF583EEF0F9
:10404000A3EFF0900829E0FF75F002A42477F58231
:10405000E5F0340BF583E0FCA3E0FD75F002EFA47E
:1040600024D1F582E5F0340AF583ECF0A3EDF022DB
:104070009004F1E0FF7E00700504F0A3F022EF64ED
:10408000014E7026121CE8600302420A121D3340E2
:104090000302420AEE75F004A42400F974A535F079
:1040A000FA7BFF1289FC121DFC229004F1E06403EC
:1040B00070087402F07F42029B239004F1E06402D6
:1040C000701F129472EF3395E0FEBEFF11BFFF0E1A
:1040D0009004F17404122009E49004F4F0220241E7
:1040E000629004F1E06404600302416C12848C90DD
:1040F0000643E0FF7E006412704F7405121ECA90E2
:1041000000D1F0A3F0FDEDC394327480948040039D
:1041100002420AED25E025E02400F582E43400F5B2
:104120008374FFF0A3F0ED25E025E02402F582E49E
:104130003400F583E4F0ED25E025E02403F582E486
:104140003400F583E4F00D80BDEF64134E6003028C
:10415000420A9004F4121ED65008E004122009020C
:1041600094D99004F17408F07D34804E9004F1E00D
:10417000640570189004F3121CF7400302420A12FF
:1041800091DA7406121ECA9000D3F0229004F1E076
:104190006406702B9004F3121CF7506E1251FD123E
:1041A00093DA1293B11299B79004F17407121ECDED
:1041B0009000D5F09000D4F07D327F42029AA89012
:1041C00004F1E0640770139004F3121CF7503BE411
:1041D00090053EF01294D9E4801E9004F1E0FF7E39
:1041E000006408701C9004F3E0FD14F0C3ED121C91
:1041F000FD5017E490053EF0900C48F0A3121D0806
:1042000022EF64094E7003129B4D229008951272A2
:1042100060789C7C087D017BFF7AA279027E027F18
:104220000012156812727C900AA2F0A3F090089513
:10423000E0FFA3E0900AA4CFF0A3EFF0900AA2E081
:10424000FEA3E0FF90089AE0FCA3E0FDD39FEC9E64
:1042500040EA900AA4E05401FEA3E0FF900A9EEE1B
:10426000F0A3EFF0900AA3E02400FB900AA2E03450
:1042700002CBC39FFFEB9EFED3ED9FEC9E407412DA
:1042800072844E600612721C12438C12726F12728C
:1042900084C3E49FFF7402127297501E127238702A
:1042A00006900AA0E004F012728D900A9DE004F0DE
:1042B0007006900A9CE004F080D412435E900AAB32
:1042C00012722B128DA1127284C3E49FFF74029E9E
:1042D000FE900AA3E02FF0900AA2E03EF0900AA51B
:1042E000E02FF0900AA4E03EF07F057E0012977365
:1042F00002423C127284C312721C12438C12726FFF
:10430000900AA2E0FEA3E0FFC390089BE09FFF900D
:10431000089AE0127297501E1272387006900AA026
:10432000E004F012728D900A9DE004F07006900A8D
:104330009CE004F080CA12435E7B017A08799C906D
:104340000AAB127231128DA190089AE0FFA3E0909F
:104350000AA2CFF0A3EFF07F057E00029773900AC8
:104360009EE0FEA3E0FFC3900AA5E09FFF900AA491
:10437000E09EFE1287AB900A9EE0FEA3E0FFC39092
:104380000AA5E09FFF900AA4E09EFE221289267FE4
:10439000017E0012977322F91215A7FF90080DE015
:1043A000FBA3E0FAA3E0F922EFFD7C00E92DF9EC94
:1043B0003AFA900811E0FCA3E029F9EA3CFA121558
:1043C0008EFEEFC313FD900810E075F008A4245E84
:1043D000F582E43405F583E58222EF75F008A42424
:1043E00064F582E43405F58374FFF0EF75F008A4FA
:1043F000245DF582E43405F58322EF75F008A424EA
:1044000064F582E43405F58322E4900BEAF0740449
:10441000900BE9F090053E227A08790E7B01900A14
:10442000ABE4F0A304F0222DF582E43583F583227A
:10443000740190054BF0A37440F022EEC3940A740B
:1044400080948022EBF0A3EAF0A3E9F0227B017ACA
:1044500005795DE4F0A322E4900BEAF07403900B7D
:10446000E9F090053E22EEC3940674809480229079
:104470000000E0FEA3E0FF02161AE0D3940074806F
:10448000948022900811E0FAA3E0FB7C007D02FFFB
:10449000AE0202166F7B0190089AE4F0A304F022AA
:1044A000EFC394027480948022E0FDC4540F75F031
:1044B0000AA42290080EE0FF3395E0FE2290081037
:1044C000E0FBA3E0FAA3E02290054B04F0A37440C4
:1044D000F090053EE022900BE4E0FEA3E0FF7C00BC
:1044E0007D0A22EFF07E00C394097480948022EC50
:1044F00004FF1298DFEF3395E04F227B01F0A30415
:10450000F07FFD7E0722900BE7E0FF900BE6E09F37
:10451000222FF582E5833EF583E022900824EB12FA
:10452000101812130778367C087AA179A37F4712F6
:104530001360E490087DF0A3F012125490088212E8
:104540001017900829E0FFA3E0900885CFF0A3EFB3
:10455000F090082B12125790088712101790082E0F
:10456000E0FFA3E090088A121178126145EF700213
:10457000FF2212117D12531E12117D127E22121182
:104580007D12622C12117D125E7E12117D127A460E
:10459000EF7002FF2212117D124AAB1212549008E2
:1045A00082121017900827E0FFA3E0900885CFF053
:1045B000A3EFF0900829E0FFA3E09008871211789C
:1045C000122B9B9008301210C4603DA31210C460DF
:1045D00037900848E0FF900830120EEBE48FF0129D
:1045E0001709900848E0B4071390084DE0F9A3E0DC
:1045F000FF9008331213E6C98FF080099008331238
:104600000EEBE4F5F0121709900848E0B406199093
:104610000846E07004A3E06401707312117D121368
:10462000507D0612308F8066900848E06407705E07
:10463000900846E07004A3E06401700B12117D1233
:1046400013507D0712308F900827E0FEA3E0FF1281
:104650007D3190087DEEF0A3EFF0C390084EE09F0F
:1046600090084DE09E502790087EE094E790087DEA
:10467000E094034012E4F0A3F0900827E0FCA3E0EC
:10468000FDE4FFFE12659CE4900846F0A3F090085C
:1046900046A3E0FF229001B6E0FF7E007004741E86
:1046A000F022EF641E4E700B741F12676D12989704
:1046B0000247AD9001B6E0641F7031126766701951
:1046C0009005D1E070099001B67420F00294D912DF
:1046D00067EA70028011E4800E9001B31267329491
:1046E00000400302480EE49001B6F0229001B6E0CB
:1046F0006426700B74271267701296BD0247AD9046
:1047000001B6E06427704912676670319005D1E008
:1047100070257B017A0579BB128892EF3395E04FC3
:104720009001B670097420F09001B30247E074293B
:10473000F0A3742B0248041267850248049001B369
:104740001267329400400302480E12678502480443
:104750009001B6E06420700C74211267707F011222
:104760008AD080499001B6E0FF7E00642170291252
:10477000676670159005D1E09001B670047424F05E
:10478000227429F0A37406807B9001B31267CA9447
:1047900000507B126785806CEF64244E7016742580
:1047A00012676D7B32FAFDFC7F0112811C9001B310
:1047B0001267DC229001B6E06425705212676670C1
:1047C000369005D1E0FF7E00701A9001B67428F093
:1047D0009005ADE0FDA3E09001B1CDF0A3EDF0A315
:1047E00012677D22EF64174E9001B67002F02274BA
:1047F00029F0A37408800D9001B312673294005021
:104800000D126785F09001B3E4F0A374C0F022129A
:104810001F51700A9000CFF09007FE04F022EF6461
:10482000014E7013128249129060E49007FFF090DD
:1048300007FE74020248DD9007FE121EB7700F12C9
:104840001D8F40030249609007FE7403F022EF645D
:10485000034E706412772C9000CFE06402703E909B
:1048600005CFF07F01128A8AE490080CF090080CC2
:10487000E0C394197480948050177F0A7E00129CC4
:10488000DC129CE5121F92600890080CE004F08096
:10489000DCE4900800F09007FE740480409000CFA4
:1048A000E06403600302496090080074FFF0740440
:1048B000121E467F0702495D121F516404700F12D9
:1048C0001D8F40030249609007FE7405F022EF64DB
:1048D000054E7010900801F09007FE7406121E49F4
:1048E0007F028079121F516406700C121D8F507068
:1048F0009007FE7407F022EF64074E700D900802D7
:10490000F07408121E467F028053121F5164087013
:104910000E121D8F504A9007FE7409121E4922EF95
:1049200064094E703B90080374FFF5F01216A5124F
:104930001DD59400502A9000DBE0600464017018DB
:104940007F74129B239000DA74FFF09000DC748077
:10495000F090053E7422F022121D047F061292A1EF
:1049600022900BD4E004F0D3943F74809480404FA5
:10497000900BE3E06401F0E4900BD4F020C22990A6
:10498000053EE070239001AD121DF5BEFF12BFFF82
:104990000FE4F07F011292A19001AD74FFF0800549
:1049A0007F011292A11294D99001B5E0121DB1407D
:1049B0000EE004F0E064047006F07F011276A1902E
:1049C0000BD4E0541F7007900BECE06401F09005ED
:1049D000DFE0121DB14003E014F090072BE0121D40
:1049E000B14003E014F030C14112204890080AE0C1
:1049F000C394647480948050187F027E0012978F55
:104A000030C10690080BE004F090080AE004F08042
:104A1000DB90080BE0D3945A748094804042900459
:104A200039121CEB703AA3F0803612204890080A25
:104A3000E0121EA450187F017E0012978F20C1063D
:104A400090080BE004F090080AE004F080DF900882
:104A50000BE0D39408748094804005E4900439F00E
:104A600090043A121CEB703D90053EE0FF642C6010
:104A700034EF6421602FEF641C602AEF641A602514
:104A8000900621121CEB701D90053E742CF09004D2
:104A90003B14F0A374F2121D087F147E00129CDCFC
:104AA0007F041276A112010002631390087FEB12BB
:104AB0001018E4A3F0A3F0FFFE12130EA3EFF07F93
:104AC000007E0012130E7E037FE812107BA3EFF02E
:104AD0007C037DE87F007E0012161A7F6412107935
:104AE000A3EFF07C007D647F007E00121074A3EFC2
:104AF000F07F007E001213EEAC05E4A3F0FF9008F7
:104B00007F1210C470012290087F120EEB12130165
:104B100025E0FFE5F033FE74DB2FF58274A03EF54F
:104B200083E493FF740193900882CFF0A3EFF07FAA
:104B300001EFD39406748094805022900884E06F33
:104B40006018A3E06F6013A3E06F600EA3E06F60D6
:104B500009EF6C6005A3EFF080030F80D490087F0D
:104B6000120EEB9000011215A79008841211BA12D0
:104B70000EEB1213879008851211BA120EEB121267
:104B80003AFF9008861211BB120EEB1213699008BF
:104B9000871211BB120EEB900004EF1215E61212F1
:104BA000DBFFAD041211BD120EEB121222FF9008B2
:104BB000881211BB120EEB900006EF1215E61212CE
:104BC000BDFFAE04AD061213AC120EEB900007EF62
:104BD0001215E61212D49008871213A9120EEB12C6
:104BE00012479008861213A9120EEB9000091214B6
:104BF0008022900817EEF0A3EFF0E4FFEFC3940DCE
:104C0000748094804003024D35E4FEEF25E02401DA
:104C1000F582E4340CF583E0FCA3E0FD900817E096
:104C20005CFCA3E05DD39400EC940040010EEFB473
:104C30000D004003024D31904C3EF8282873024C81
:104C400065024C76024C87024C98024CA9024CB883
:104C5000024CC7024CD6024CE5024CF4024D030252
:104C60004D12024D21EE6008E4900C36F0024D31F9
:104C7000900C36024D2EEE6008E4900C37F0024D99
:104C800031900C37024D2EEE6008E4900C38F002A3
:104C90004D31900C38024D2EEE6008E4900C39F046
:104CA000024D31900C39024D2EEE6007E4900C3A23
:104CB000F0807E900C3A8076EE6007E4900C3BF03A
:104CC000806F900C3B8067EE6007E4900C3CF080B6
:104CD00060900C3C8058EE6007E4900C3DF08051F1
:104CE000900C3D8049EE6007E4900C3EF0804290CD
:104CF0000C3E803AEE6007E4900C3FF08033900C5D
:104D00003F802BEE6007E4900C41F08024900C4132
:104D1000801CEE6007E4900C40F08015900C408001
:104D20000DEE6007E4900C46F08006900C4674FF90
:104D3000F00F024BFC22127A3E64017026D39004DD
:104D4000F9E094009004F8E09400400AA3E024FF06
:104D5000F09004F88069127A07402A9005027403E3
:104D6000F08069EF64034E701E127A07400AA3E0D8
:104D700024FFF09004FC8047127A15400890050249
:104D80007402F080478040127A3E6402701E127AEC
:104D900015400AA3E024FFF09004FA8022127A233F
:104DA00040089005027404F08022801BEF64044EDA
:104DB0007015127A23400EA3E024FFF09004FEE069
:104DC00034FFF080078000E4900502F0900502E0D7
:104DD00064027035C2D99005011279FE70289008DE
:104DE0000AF0A3F01279EF5014D2D8129BAEC2D8B9
:104DF000124E5F70EF90080AE004F080E790050122
:104E000074FFF0D2D822D2D822900502E06401705B
:104E100035C2D89005001279FE702890080AF0A3D8
:104E2000F01279EF5014D2D9129BAEC2D9124E5F54
:104E300070EF90080AE004F080E790050074FFF03E
:104E4000D2D922D2D922127A3E640370028006EFB0
:104E500064044E7005D2D9D2D822C2D9C2D82290C9
:104E6000080AE0FEA3E0FFC374C89FFFE49EFE12A1
:104E70009BAE90080BE004F02243CF10129C461228
:104E80009BE1129C69129BF3129A5243CF10E4905B
:104E90000C72F0A3F0A3F0A3F0E49005CFF012960B
:104EA0009E129B1443CF107F147E00129CDC129C38
:104EB000E59005CFE06401702B9005D1E0700520EE
:104EC000C302804A900C75E004F07006900C74E008
:104ED00004F0D3900C75E0945E900C74E094014063
:104EE00050E4802AD390080BE09417129B1C4024B6
:104EF000900C73E004F07006900C72E004F0D39014
:104F00000C73E09402900C72E094004007E490056A
:104F100003F0801D90080BE004F0700690080AE092
:104F200004F0C390080BE09419129B1C5003024E2E
:104F3000A443CF10900503E06003024E99129BCE6C
:104F4000C2C07F037E00129CDCE4900C65F09005EB
:104F50000CE064017027129B1543CF107F017E0087
:104F6000129CDC90080BE004F0700690080AE00444
:104F7000F0C390080BE0940A129B1C40DC12944E84
:104F80001299E1129CF112913C129B1490080AE0D4
:104F90007004A3E064016014129CCD400A90080ADA
:104FA000E4F0A304F080E5128FF080E02243CF10FC
:104FB0007F017E00129CDC128F7DE4FBFD7F0212DC
:104FC000355ED2A0129CB7129978129CD9129C5BC4
:104FD000D2A1D2A2D2A31299F5D2C0900503740136
:104FE000F07F057E00129CDC129CAB7F057E0012D8
:104FF0009CDC129CD01299A2128E1B9001AFE0FF94
:10500000129C707F017E00129CDCE490080AF090F4
:10501000080AE0FFC3946474809480501AEF75F01E
:105020000A84E5F0700343CF10129CB112746590AE
:10503000080AE004F080D89000DBE0FF6401600320
:10504000EF70137F74129B239000DC7480F0900546
:105050003E7422F0803AE490053EF090050F74070C
:10506000F0E49001B6F09005D57407F012971AEFAE
:105070003395E04F70077F3E129B23801390050D00
:10508000E0FF64026005EF640170057F061292A1E3
:10509000E490050CF090080AF090080AE0C3941917
:1050A00074809480503143CF10E49005CFF0900885
:1050B0001374FFF07B017D017F011281817F147EDB
:1050C00000129CDC129CE59005CFE0640160089022
:1050D000080AE004F080C22290016FE0703890006E
:1050E000D2E070129000D5E0700C1269547407126F
:1050F00068C27F3E801D9000D3E01268F290016F7D
:10510000500C7401F0E4900BE8F07F6480051268A5
:10511000BD7F58129B2390016FE06401701D1298AF
:105120004D900173EFF090016F7407F0900171746E
:1051300001F0A37440F07F70029B2390016FE06444
:105140000770307B017A017974127DAAEF3395E004
:10515000FEBEFF09BFFF0690016F7403F01268CB1B
:1051600040030251FC12695474011268C27D347FFD
:1051700044805D90016FE0640370587B017A01798F
:10518000741281E5EF703F900173E0FD1288DDEF4E
:105190003395E0FEBEFF1DBFFF1A90016F7404F04F
:1051A0009001711268C47D327F44129AA89000D396
:1051B000E004F02290016F1268BD7F58129B237F9C
:1051C000647E00029CDC1269541268C27D547F56D2
:1051D000029AA890016FE0640470071268CB501C1B
:1051E000801790016FE06405701290017174FFF5F3
:1051F000F01216BB1268D55003129C8C22E4FFEF0C
:10520000C3940474809480503474FB2FF582E4348A
:1052100000F58374FFF074182FF582E43401F583F0
:1052200074FFF074FF2FF582E43400F58374FFF00F
:10523000741C2FF582E4340112148780C290089AFE
:1052400012108412140512420B90089A120FC21207
:10525000131C12420B90089A1210AD121324124222
:105260000B90089A1210CE12132C12420BE4FFEF8F
:10527000C3940374809480503474062FF582E43410
:1052800001F58374FFF074232FF582E43401F58374
:1052900074FFF074032FF582E43401F58374FFF09A
:1052A00074202FF582E4340112148780C290089A8A
:1052B0001210B77F3BFE12420B90089A1210D812C0
:1052C00013BA12420B90089A1211071213151242C8
:1052D0000B90089A1211371213C112420BE4FFEF20
:1052E000C3940274809480501A74092FF582E434B8
:1052F00001F58374FFF074262FF582E43401121453
:105300008780DC90089A1210E212133412420B903C
:10531000089A1210FD12133C12420B0273419008BE
:105320007FEB121018E4120F1090087F1210C47057
:1053300002FF22E4900882F0A3F090087F120EEBA7
:105340001211E424FFFFE5F034FFFE9008821212F0
:10535000829E50201212AB900887E02FF0900886B2
:10536000E03400F0900883E004F070CE900882E012
:1053700004F080C690087F120EEB1211E412145054
:105380001215A7FFC0079008861211A97D0A1216F0
:105390006FD007129B0590087F120EEB1211E412DA
:1053A0001450EF1215E6E4900882F0A3F090087F05
:1053B000120EEB1211E4FFC3900883E09F90088265
:1053C000E095F0506EE4900884F0A3F090087F120E
:1053D0000EEB1211E490088412128195F050439064
:1053E0000882E0FEA3E0FF6D7002EE6C60248F8205
:1053F0008E831215A7FF900884A3E0F5828C831298
:1054000015A7FD129BFC90087F120EEB90088412EA
:10541000126B900885E004F070B2900884E004F00C
:1054200080AA900883E004F07006900882E004F0FF
:105430000253AD7F012290050FE0FF7E00640770EC
:105440000302554AEF640870047409F022EF6409FE
:105450004E600302554A900BFFE064026003025560
:105460003512971AEF3395E04F706A900BEDE064B8
:10547000017039A3E064017033A3E06401702DA3CF
:10548000E064017027A3E064017021A3E06401706F
:105490001BA3E064017015900BF5E06401700DA38F
:1054A000E06401700790050F740CF022900BEDE0A2
:1054B00064017048A3E064037042A3E06405706E69
:1054C000A3E064077068900BFEE0640470609005D0
:1054D0000F740DF0227B017A0B79ED12554B90057C
:1054E0001DEFF0600C90050F740AF0E49000F0F0EE
:1054F00022900BFEE0FF7E00640A70028030EF64B1
:105500000C4E6006EF640D4E70247B017A0B79ED32
:10551000900BFEE0FD7C0012598D90051DEFF09080
:10552000050F600D740AF09000F07401F0229005F0
:105530000F740BF022900BFFE06403700D90050FC9
:105540007407F0E4900541F0A3F02290080D124496
:1055500044E4A3F0900810E0FF12443C40030256DC
:105560005D1243FAE064AA6003025654900813F0F7
:10557000900811F0A3740BF0900811E0FEA3E0FF77
:10558000C3EE6480948040467C007D0212166FED6D
:1055900064014C70111244831243C6124511540F1A
:1055A000640F601A80101244831243C6124511C45E
:1055B000540F640F6008EB04900813F080109008FB
:1055C00012E024FFF0900811E034FFF080AAE4908C
:1055D0000811F0A3F0900813E0FFC374119FFFE4DB
:1055E0009400FEC3900812E09FEE6480F8900811CA
:1055F000E0648098505EE4FF900813E0FEEFC39EE5
:105600005031EF54016401701490080D12439F1241
:1056100043A8124427E0540F6E6015801690080DC1
:1056200012439F1243A8124427E0C4540FB5060347
:105630000F80C5900813E0B5070A900810E01243E8
:10564000ECE0FF22900812E004F07006900811E0F0
:1056500004F08081900810E004F00255547F00228D
:10566000D39005E4E094009005E3E09400400CA39F
:10567000E024FFF09005E3E034FFF09005E3E070F4
:1056800002A3E060030257709005E1E014603C144F
:10569000605D147003025735147003025767800071
:1056A000D2DC30DB22C390061BE094DC90061AE0CB
:1056B0009405500DA3E004F0700690061AE004F083
:1056C00022E490061CF02212719E22C2DC9005E3B7
:1056D000E4F0A3741BF09005E17402F0900618E06A
:1056E00024E6F582E43405F583E09005E5F0222018
:1056F000DC12D2DC1272126005E4F0A38033E4F015
:10570000A304F022C2DC1272126007E4F0A304F0DA
:105710008006E4F0A37403F09005E5E0C313F09075
:1057200005E2E004F0C39408748094804042900540
:10573000E17403F022D2DC900618E004F0A3E0FF4D
:10574000900618E0C39F50109005E17404F0900596
:10575000E3E4F0A3740AF022E49005E1F09005E39D
:1057600004F0A3744DF0229005E17401F0E4A3F07D
:105770002290080D124444A312439F12158E124327
:105780009B12158E6F600302587D1244BD9000017C
:105790001243979000011215A76F600302587D1203
:1057A00044BD9000021243979000021215A76F604B
:1057B0000302587D90081012439F900003124398F3
:1057C0009000031215A76F600302587D9008101215
:1057D000439F9000041243989000041215A76F6035
:1057E0000302587D90081012439F900005124398C1
:1057F0009000051215A76F600302587D90081012E3
:10580000439F9000061243989000061215A76F70F0
:105810006C90081012439F90000712439890000765
:105820001215A76F705790081012439F900008122E
:1058300043989000081215A76F7042900810124309
:105840009F9000091243989000091215A76F702DC0
:1058500090081012439F90000A12439890000A1279
:1058600015A7B5071890081012439F90000B12431C
:105870009890000B1215A7B507037F00227FFF2227
:10588000740490082DF0A37401F0A322E0900000AE
:10589000FEE0FBA3E0FAA3E0F922EBF0A3EAF0A319
:1058A000E9F022EFFD3395E04D22F0EFA3F09008F0
:1058B0002B7401F0A3227400F07400A3F07B017A32
:1058C000007900227400F07400A3F07B017A007963
:1058D0000022EFF0FD9000007401F0A3740BF0A320
:1058E00074CEF07B017A0B79A17F60228E82758362
:1058F000000215A724A7F582E4340BF583EFF0909E
:105900000000E004F0227400F07400A3F07B017A40
:10591000007900227450F0E4A3F07B0190082B047E
:10592000F0A322900000E0FFC3940A7480948022C8
:1059300074172FF582E43408F583E022EEC3941047
:105940007480948022EFC3940474809480227B013D
:105950007A0B79CE22EFFD3395E0FCED64FE4C220C
:1059600035F0FA7B01E025E025E02274A72FF582CF
:10597000E4340BF583228F82758300EE0215E67402
:1059800000F0A37400227400F0A374002290080DAC
:10599000124444A3ECF0A3EDF0E4900820F0A3F04F
:1059A000A3F0A3F0129AB8E4900812F0900812E065
:1059B0001244A14003025A93E4A3F0FFEF1244679C
:1059C000503C900812E0FE1243CA2F124428E0C453
:1059D000540FFDEF25E02414F582E43408F583ED3F
:1059E000F0EE1243CA2F124428E0540FFEEF25E0D8
:1059F0002415F582E43408F583EEF00F80BEE4FF51
:105A0000EFFDD3900811E09D900810E0940040193C
:105A100074142FF582E43408F583E012443C5009F5
:105A2000900813E004F00F80D7900812E0FD7C008E
:105A3000A3E0FF900829E4F0A3EFF090080DE0F94F
:105A4000A3E0FAA3E090082BC9124445900810E0A7
:105A5000FFA3E090082ECFF0A3EFF0A37401F0A312
:105A60007408F0A37420F0A37401F0A37408F0A3E9
:105A70007422F07B017A08791412451BD3EF12448B
:105A80007C4007900812E004FF22900812E004F026
:105A90000259AC7F0022900643E06411700874083C
:105AA000121EBE0289FC900643E0FF6408700302E8
:105AB0005B92EF640970187D28FC7F0AFE128659FC
:105AC000900643740AF090064574801220112290CB
:105AD0000643E0640A6003025B5D121F92706490EB
:105AE00005D1E070579006437412121D43F07D32C9
:105AF0007F48129AA8E49000D1F07D0AFCAE04ED34
:105B00007802C333CE33CED8F9FF2400F582740077
:105B10003EF58374FFF0A3F074022FF58274003E0B
:105B2000F583E4F074032FF58274003EF583E4F00E
:105B30000DBD00010CED64324C70C222900643741E
:105B4000138010121F33121CFC504790064374132D
:105B5000121FA9F0900645121F03029AA89006434F
:105B6000E06412700D900645E014F0121CFC502207
:105B7000801D900643E06413700D900645E014F01C
:105B8000121CFC500D8008900643E0641470031250
:105B90009C7E22900B9FE0FF25E02424F8E6FC0881
