:03000000029C2B34
:03000B0002BE81B1
:0300130002C330F5
:03001B0002B67DAD
:0300230002CDE427
:0300330002CFC831
:03004B0002BFC22F
:03005B0002C0F0F0
:03006B0002C2507E
:0300830002B7DDE4
:03008B0002B17B44
:10010000900422E06003020B70123CEC90148DEF1F
:10011000F0F4600312C87290045EE0122315017CB3
:100120000002660102E102033B05036F0602AE090D
:1001300003AB0B04440C04590D04640E048A0F0431
:10014000A31004AE1204C81304D51404FF1505440B
:100150001605571705811808501A09A21C087D1D9D
:1001600008B71F0A602708CA280A76290B4C2B0AF1
:10017000032C092B2D09EA2E00000B7090148DE042
:10018000FF640D6011EF641B700C90045E741AF034
:100190009004107403F090042FE0FF6407600302E2
:1001A000023A1226795033EF64076003020B709015
:1001B00014AA04F0741012240D1228581227F450B7
:1001C0000E74992E1224BB900F87E004F080ED90FE
:1001D000042F7408F07F01020B4212242470217F47
:1001E0000112C5C4900129122545BEFF06BFFF03B9
:1001F000E4F022E4900427F0A3F090042C04F02211
:100200001228016003020B709001291223887017D5
:100210007F0112C5C490045E741FF0E49003E1F006
:1002200090012974FFF02212C8B5900425E4F0A3D0
:100230007496F090045E7420F02290148DE0FFF428
:100240007003020B70EF640C7003020B70900129B5
:1002500074FFF090042FE064096003020B707F01CB
:1002600012C5C40208C212261B700302049D122587
:10027000D7700302057B12280870030204F990145A
:100280008DE06404700302087790148DE0640570BB
:1002900003020B6A1224246003020B70120C7C12FE
:1002A00024A07F6012CE4D120C74E40209FE1226C7
:1002B0001B700F120B7190045E7429F0E49003FB25
:1002C000F0221225D7700F120B7190045E742BF080
:1002D000E49003DEF0221224246003020B70020477
:1002E0003E90148DE0FF6401600AEF64026005EF48
:1002F00064037004E4120C7C12261B700E120B7E39
:10030000E490045CF090045E02039C1225D7700E0A
:10031000120B7EE490045CF090045E0204EC122860
:1003200008700D120B8B12288690045E740EF0225A
:100330001224246003020B7002043E12261B700F6D
:10034000120B8B90045E7412F0E49000FBF022120A
:1003500025D77010120B9890045E7414F09004145A
:10036000740AF0221224246003020B7002043E126D
:10037000261B7009120B9812278104F0221225D730
:100380007009120BA5122781020B61122808701048
:10039000120BA590045E7417F0900566740FF0229E
:1003A0001224246003020B7002043E12261B7017F5
:1003B000120BB290045E741812264B12614612287A
:1003C000DE12243F02C5641225D7700A120BB290C8
:1003D000045E741D800D122808700C120BBF90046F
:1003E0005E742DF0E4802E90148DE0640470101281
:1003F0000BBF90045E7428F0E49004F2F080169035
:10040000148DE064057014120BCC90045E741CF023
:10041000E4900540F01227EC02086B90148DE06424
:10042000067013120BCC90045E741AF0E490041062
:100430001227EB020B611224246003020B70120BD3
:10044000D902CE6990045CE064017003120C5D1265
:1004500024246003020B7080441227B16003020B56
:100460007002054F900563E064086003020B701290
:100470002777700B900564F09005637409F022EF04
:10048000640A4E6003020B70801390045CE0640108
:100490007003120C5D1224246003020B70120BD93E
:1004A00002CFAC1227B16003020B7002054F90001F
:1004B000FBE06401700890148DE0FF12A44F122439
:1004C000246003020B70803190016DE064016003D1
:1004D000020B70807A900414E0640B6003020B70CE
:1004E000122777700B900415F0900414740CF0220E
:1004F000EF640A4E6003020B70120BE602CFBA9053
:10050000045FE06401700A90148DE0FF12A44F8034
:100510001A90045FE064037002800890045FE06456
:1005200004700890148DE0FF12A2A39000D2E07036
:10053000099000D5E07003020B70122424600302BE
:100540000B708037900478E064016003020B7090B8
:10055000148DE0FF02A44F900566E0641060030272
:100560000B70122777700B900567F0900566741179
:10057000F022EF640A4E6003020B70120BE602CF0A
:10058000B390148EE0701C1224E74008EF640960F9
:10059000030207D2120C1A90040F1226867401F07F
:1005A0000207D290148EE06401702D12242470038F
:1005B0000207AD1224E74008EF640960030207D286
:1005C0007F0112C5C490040F1225DE90040FF09035
:1005D000148E7402F00207D290148EE06402701B35
:1005E00090148DE012265D40030207D2120C1A907F
:1005F000040E1226867403F00207D290148EE06473
:1006000003704112242470030207AD90148DE0D3CF
:100610001224EF40030207D27F0112C5C490040EDA
:100620001225DE90040EF0D394127480948040035F
:100630007412F090040EE0700204F090148E7404B2
:10064000F00207D290148EE0640470221224247009
:10065000030207AD90148D1225F940030207D21250
:100660000C3590040C1226867405F00207D2901403
:100670008EE06405704112242470030207AD122439
:10068000E74008EF640960030207D27F0112C5C486
:1006900090040C1225DE90040CF0D39431748094F5
:1006A0008040037431F090040CE0700204F0901468
:1006B0008E7406F00207D290148EE0640670231246
:1006C000242470030207AD90148DE01226B8400375
:1006D0000207D2120C3590040B1226867407F00222
:1006E00007D290148EE0640770391224247003023C
:1006F00007AD1224E74008EF640960030207D27FC8
:100700000112C5C490040B1225DE90040BF0D394A3
:10071000237480948040037423F090148E7408F046
:100720000207D290148EE06408701E122424700216
:10073000807B12286440030207D2120C6690040AE0
:100740001226867409F00207D290148EE0640970B4
:1007500028122424700280551224E74005EF640912
:1007600070707F0112C5C490040A1225DE90040A3D
:10077000F090148E740AF0805990148EE0640A7020
:100780001F122424700280251228645045120C6622
:10079000900409E0548F2FF090148E740BF0803287
:1007A00090148EE0640B702A12242470077F0112CB
:1007B000C5C480191224E74005EF640970147F0155
:1007C00012C5C49004091225DE900409F0E49014C7
:1007D0008EF0122801705990040FE0FF90040EE093
:1007E000FD90040CE0FB1297CCEF3395E04F702D99
:1007F0007F0112C5C412C53378987C0F7D017B013F
:100800007A01792A12243F124F3C9003FE1222CC27
:10081000120C747D327F4412CDB402099F7F647E36
:100820000012D0187B347D827F7612CE8502099F1C
:100830001224246003020B70120BF312CE771226DF
:100840004C1261461228DE12243FE490148EF022EE
:10085000900410E064016003020B70122801700F15
:10086000120BF3E4900411F09004107403F02212C0
:1008700024246003020B70120C0002099F12261B35
:1008800070127AF479B0120C0DE4900177F012C076
:100890007902099F1225D770107AF479B3120C0DE2
:1008A0001228C412C07902099F1224246003020B8B
:1008B00070120C0002099F9003E1E06401600302E2
:1008C0000B7090148DE0FF020A5D9004F2E0640169
:1008D0006003020B7012261B70139000F8F0900456
:1008E000F27402F07BFF7AF479DA0209BC1225D7A0
:1008F00070289000F804F09004F204F012BD7AEF32
:100900003395E04F70087F7A12CE4D020A6F7BFF5D
:100910007AF479DD12BEC2020A6F12242460030247
:100920000B70120C289004F2020B6112261B701A35
:100930009000F9122545BEFF08BFFF05E4F012C97B
:10094000947AF479C8120C4380551225D7704590DB
:1009500000F9122388703474FFF0E4900418F0A3B7
:10096000F090041CF0A3F012C5F3EF2412FEE43360
:1009700090041AF0A3CEF090041EE4F0A37408F0E3
:100980009004227402F0E4900421F07AF479CB12FE
:100990000C43800B1224246003020B70120C2802FB
:1009A000CE77900540E064016003020B7012261BB5
:1009B00070109005411228E57AF479EF12BEC20258
:1009C0000A6F1225D7701290054174FF1228E57A3C
:1009D000F479F212BEC2020A6F1224246003020BE1
:1009E00070120C50900540020B6190148DE0FF6472
:1009F0000B6008EF640A6003020B701224A09004DD
:100A00005EF02290042FE0FF6407703B12267950BD
:100A100032EF64076003020B709014AA04F0901484
:100A2000A974101224101228581227F4500E749929
:100A30002E1224BB900F87E004F080ED90042F74F9
:100A400008F0221224242290148DE0FFF470030297
:100A50000B7090042FE064096003020B7002A2A3E4
:100A600090148DE0F47003020B707F3012CE4D7F36
:100A7000647E0002D0189003FBE064026003020B66
:100A8000701225D7704DD39003F8E094009003F7CF
:100A9000E09400403A7F0112C5C49003F8E024FFBF
:100AA000F09003F7E034FFF0740112280FC39004B4
:100AB00046E09F900445E09E500DA3E004F07006D0
:100AC000900445E004F022E4900445F0A3F0227F76
:100AD00007806F90148DE06408706A1226EED39040
:100AE00003F6E09F9003F5E09E40557F0112C5C4D8
:100AF0009004451228949400400DE024FFF09004E7
:100B000045E034FFF0802AEF4E70260412280F12C1
:100B1000C7BDEF3395E0FEBEFF17BFFF1490F7731C
:100B200074019324FFFEE49334FF900445F0A3CEB8
:100B3000F09003F8E004F070069003F7E004F02270
:100B40007F0702C5C41224247026801E9003DEE0B5
:100B50006401701C122801700C7F0112C5C490033F
:100B6000DE7402F0221224247006120C5012CFC13F
:100B7000227F0112C5C47F647E0012D018227F013B
:100B800012C5C47F647E0012D018227F0112C5C432
:100B90007F647E0012D018227F0112C5C47F647E5C
:100BA0000012D018227F0112C5C47F647E0012D0CB
:100BB00018227F0112C5C47F647E0012D018227FE4
:100BC0000112C5C47F647E0012D018227F0112C5B5
:100BD000C47F647E0012D018227F0112C5C47F64D6
:100BE0007E0012D018227F0112C5C47F647E0012DD
:100BF000D018227F0112C5C47F647E0012D0182253
:100C00007F0112C5C47F647E0012D018227BFF12C0
:100C1000BEC27F647E0012D018227F0112C5C4902C
:100C2000148DE0C454F0FF227F0112C5C47F647E9E
:100C30000012D018227F0112C5C490148DE0C45454
:100C4000F0FF227BFF12BEC27F647E0012D018220A
:100C50007F0112C5C47F647E0012D0182290148DCB
:100C6000E0FF12A44F227F0112C5C490148DE0C48E
:100C700054F0FF227F647E0012D0182290017FF092
:100C80007F0112A90E224414EF000000004214F369
:100C90000000C112C113C109C106C107C108C10AC0
:100CA000C10BC10CC10D41150702411508004113CC
:100CB000C800C103C102C100C101C1040154004107
:100CC00013090042134600004114E500C118411504
:100CD0000B00C119C11A4213CA0000C110C10EC1D4
:100CE00011C10F4114EE004414C500000000581457
:100CF000AD008080000400000440002000000810C7
:100D000000004000100100002046144DFFFFFFFFCF
:100D1000FFFF64000B8300000000000000000000E3
:100D200000000000000000000000000000000000C3
:100D300000000000000000000000000000000000B3
:100D400000000000000000000000000000000000A3
:100D50000000000000000000000000000000000093
:101110000000000000005606BD736C5F67656E65D9
:101120007269635F76312E302E302E30303300639B
:10113000E806D3013B01A400FE00690201019A0107
:10114000C201A9019F015E020B007D00D2008F0049
:101150008600C9013A00FA006600D601C300870084
:101160008201B3006800990191013001C400EA00D6
:10117000CC01A5012D008C008401950145020801D8
:101180003101AE016000F1019D00FD012E009100D2
:101190007800F0019C021401F500FB01440192016A
:1011A000410159013601F700E700D501F6015F0260
:1011B0001F008E0162020C00EB0216013801FE00D6
:1011C000CB0154009A020200D700F3021E02120063
:1011D000960200021C01C500E6021D007C01F80118
:1011E0009301550209015601B001AF006700CD011E
:1011F000A70213007B00F50140009800CE023402E4
:101200008D01A00278008C02090280020800F5021C
:101210007A00A4007E01A4025B00E6007C00660167
:10122000FA01F50200026200880212006A01CF0290
:101230000100EB020B009A014600820140025D00B2
:101240009101AA0136013B01CD01550108020C02B2
:101250008101F800960193020E0195023301F60018
:10126000FD01B0019601A5028A016C023101B401B1
:1012700009008601AE0068012D01B301AF00F30241
:1012800071021E008E009C0267010500A000F001A3
:1012900032027000A20266028E00CD008F0276023A
:1012A0006F00D6021D028301FE00A501440230003A
:1012B00098019C021400D5016400D2028501F70256
:1012C0005A00FB020B022301FE016400AF0108017A
:1012D0003C00D6028202C000CF008C01C401600035
:1012E000FD020E01C50202025B016F02F002DB018A
:1012F0003302A101D7014600A502FC006A02C9021F
:10130000F801C2019D006900F3020F027701DB02C0
:1013100078027A02DC025D019101A702E502400039
:101320007E0132015E00A2026902D500A001F70031
:10133000F6010100A300E700C9028A01D30285017A
:101340009C0214015601590201009C00D202FD00CA
:101350006B01000197019302080165029E01B5012E
:101360000F013800F7023100EB0234009D02F20257
:10137000A201CF02D3014000AA00D701D8016C021C
:10138000E4019201730237016D011202E701F702D5
:1013900077027401A0011E030F00F702A0016C0187
:1013A0007C026401D402C800A2015A02A8035902B7
:1013B000A3032700ED013C0169008E026502E000F5
:1013C0009E03450288015F01AE016002DE008001DC
:1013D00064021F010E032F01A40339033102CE0260
:1013E000BE019F034902A601AC0270025B00AA0283
:1013F00009006A019503690134025902BD020E0217
:10140000CC02EE009A0204034E00A4010702690117
:101410007001E7019D02380092036C01B0023103B4
:101420001201D8023001A101AF01FE02E901FB0067
:101430007D032601E2017A034F027D02FD02C20113
:1014400000034D01DC023A01410146020100EE02B7
:10145000EA02FB00AE00C000D203BD02D0035B0075
:10146000B202F603BE0069015A023301A30252031D
:101470007C024500D001120317015C0208017302CF
:10148000DF025903B7009E02F000CF0339032F0398
:101490005C018E03D402BF03480169027400D601C7
:1014A000B400F800DA034B023B019C038A009F035F
:1014B000C202C900C9028703CA00E60349033F0309
:1014C0007E01DE03860181024400A700BE024F03B5
:1014D0006A029300BD02A302FC00BA0167016D001D
:1014E0009401A403AC01E2024E018002E002F20387
:1014F0006703C8017203B101B303A4019A02070391
:1015000066018801D5013602B601870182013A03DE
:10151000D7038C017803220129039160C80ABBBB61
:101520002B32FEA12B47C19CF2953F6426B6E1B455
:101530000376D3C72A2A908F602943484A6DA1C4F5
:10154000A6525E4C5177EACF7590B678846BACCAE0
:10155000FFB919C5B4BBBBA0157C10C3F2DE45B6FC
:10156000D5A455A7DAE71FCC5D6D4C395A7C24CB46
:10157000D7D23BDC083A804C5BDF5E3F9890D97D48
:10158000C58D1D34E4549B30B4BF379D562A4D3A67
:101590003BD68973BE44E2283A909AA8FB5E5D7FF1
:1015A000FD4FE56D6F7BC46EB988CABC30CB49BBBB
:1015B000319FD5D623378064BD8794A74138E39BFC
:1015C00042518AE3344D167E9128FFBCF7BC2F921E
:1015D000E2555EBD0D6BACE350A192DAD85C983950
:1015E0003A65C0B8CD6FCB4214DC00004114C9008D
:1015F000421503000041148DFF411500004114FF06
:10160000FFC11B41150C00613111BD0000000080BD
:1016100080800000000000000000000000000000CA
:1016200080C0E0F0F8F8F8FCFCFCFCFCF8F8F8F0FE
:10163000E0C080000000000000000000000000008A
:10164000008080800000000080F07C0F03C1F03C2F
:101650000E82E0781800000000C0F0FCFFFFFFFFE2
:10166000FFFFFFFFFFFFFFFFFFFFFFFFFFFFFFFF8A
:10167000FFFCF8C0000000001878E0820E3CF0C1CA
:10168000010F7EF080031FFCE000071F78E0830F4E
:101690003C300000C0FCFFFFFFFFFFFFFFFFFFFF2C
:1016A000FFFFFFFFFFFFFFFFFFFFFFFFFFFFFFFF4A
:1016B000FFFCE00000303C0F83E0781F0780E07CF7
:1016C0001F03000000010303020000000000F0FC03
:1016D000FF9F0F07030303010101013078FCFCFCAD
:1016E000FCFCFCFC783001010101030303070F9FA0
:1016F000FFFCF000000000000203030100000000F6
:101700000000000000000000000000000307070FB9
:101710000E1C1C3C383838707070707070707070AF
:1017200070707070383838381C1C1E0F07070300A3
:1017300000000000000000000000000000900FA268
:10174000EFF0E4900FAAF0900FA2E0FF25E0242430
:10175000F8E6FC08E6FD75F002EFA4240AF582E540
:10176000F03413F583E0FEA3E0C39DFFEE9C900FE1
:10177000A3F0A3EFF0E47F01FEFDFC900FA2E0F9DF
:10178000F81222848F0F8E0E8D0D8C0CAF0112CFAC
:101790006D900FA8EEF0A3EFF0C3900FA4E09FEEC2
:1017A0006480F8900FA3E06480984008900FA574BF
:1017B00001F08005E4900FA5F0900FA5E0640160B2
:1017C000030219B9900FA2E0FF2422F582E434133A
:1017D000F583E0C394FA74809480500D74222FF541
:1017E00082E43413F583E004F0E50B550FFFE50ABE
:1017F000550EFEE509550DFDE508550CFCE4FBFA18
:10180000F9F8C3122260600302197F9012EEE09093
:101810000FA7F012D006EF6047E4900FA5F0A3F0F9
:10182000900FA6E0FFC39510502274222FF582E49A
:101830003413F583E0C39401748094804006900FC4
:10184000A5E004F0900FA6E004F080D4900FA5E08E
:10185000C39403748094804007900FA7E0240FF096
:10186000900FA2E02422F582E43413F583E0FF9088
:101870000FA7E0FEEFC39E500302197FE4900FA56F
:10188000F012CF55EF600302190C900FA6F0900FE5
:10189000A6E0FFC39510502C900FA2E06F601D12C0
:1018A000CEFA900FA6E02422F582E43413F583E00B
:1018B000C39F4008900FA57401F08008900FA6E028
:1018C00004F080CA12D006EF3395E04F600302198E
:1018D0005D900FA5E0600302195DA3F0900FA6E0F4
:1018E000FFC395105077900FA2E06F601712CEFAE9
:1018F000900FA6E0242EF582E43413F583E0C39F15
:1019000040028053900FA6E004F080D012D006EF82
:101910003395E04F7047900FA7F0900FA6F0900F0F
:10192000A6E0FFC39510502274222FF582E43413F1
:10193000F583E0C39402748094804006900FA7E082
:1019400004F0900FA6E004F080D4900FA7E0C394B9
:1019500003748094804006900FA57401F0900FA549
:10196000E064017002D214E50B450FF50BE50A4562
:101970000EF50AE509450DF509E508450CF5089051
:101980000FA2E0FF2460F582E43413F583E4F074E1
:10199000BC2FF582E43413F583E4F075F002EFA474
:1019A0002448F582E5F03413F583E4F0A3F074F1F4
:1019B0002FF582E43412021D48900FA2E0FF12CCF2
:1019C00022900FA3E0FCA3E0FDD39FEE6480F8EC2F
:1019D0006480984012900FA2E0242EF582E4341324
:1019E000F583E004F080159014E7E004F0900FA276
:1019F000E0242EF582E43413F583E4F09013A3E0A1
:101A0000FF3395E0FEC3E49FFBE49EFAC3ED9BEA3F
:101A10006480F8EC6480985003021B11D3900FA4EB
:101A2000E09FEE6480F8900FA3E06480984003028A
:101A30001B11900FA2E0FF2460F582E43413F583BC
:101A4000E4F074F12FF582E43412F583E4F0FFFE44
:101A5000FDFCAB0BAA0AA909A808C3122260600307
:101A6000021C4D900FA3E0FEA3E0FF900FA2E075D3
:101A7000F002A42448F582E5F03413F583EE8FF0EC
:101A800012200E12CEC3900FA2E075F002A42448DB
:101A9000F582E5F03413F583E0FCA3E0C39FEE6428
:101AA00080F8EC6480984013900FA2E0FF25E024BA
:101AB00024F80806E618704306804012CEC3C3E43B
:101AC0009FFFE49EFE900FA2E075F002A42448F56B
:101AD00082E5F03413F583E0FCA3E0C39FEE64805D
:101AE000F8EC6480984003021C4D900FA2E0FF25A3
:101AF000E02424F808E6161870011675F002EFA429
:101B00002448F582E5F03413F583E4F0A3F0021CD9
:101B10004D9013A3E0FF3395E0FEC3E49FFFE49EE6
:101B2000FEC3900FA4E09FEE6480F8900FA3E064E2
:101B300080984003021BC3900FA2E0FF2460F5824F
:101B4000E43413F583E004F074F12FF582E43412E9
:101B5000F583E4F074602FF582E43413F583E0FF3D
:101B600075F00A84E5F07046C3EF94647480948045
:101B7000900FA2E040142460F582E43413F583E46E
:101B8000F0D2159013C804F0802425E02424F8C076
:101B900000E6FE08E6FF9013A3E0A2E713FD3395ED
:101BA000E0FCC3EF9DFFEE9CD000F608A607900F67
:101BB000A2E0FF9014E0E06F6003021C4D74FFF0A0
:101BC000021C4D9013A3E0FF3395E0FED3900FA4C9
:101BD000E09FEE6480F8900FA3E0648098406E90E0
:101BE0000FA2E02460F582E43413F583E4F0FFFEF5
:101BF000FDFCAB0BAA0AA909A808C3122260704D0C
:101C0000900FA2E0FF24F1F582E43412F583E004A2
:101C1000F074F12FF582E43412F583E06420702D26
:101C2000900FA2E0FF24F1F582E43412F583E4F092
:101C30009013A3E0A2E713A2E713FD3395E0FCEFB6
:101C400025E02424F808ED26F618EC36F6E50B55C9
:101C50000FFFE50A550EFEE509550DFDE508550C8B
:101C60004D4E4F7003021D5E900FA8E0FCA3E0FDF7
:101C7000AE047802CEA2E713CE13D8F8FFC3ED9FCF
:101C8000FFEC9EFEC3900FA4E09FEE6480F8900FDF
:101C9000A3E06480984003021D4D900FA2E024BC95
:101CA000F582E43413F583E004F012CF5D900FA7C2
:101CB000EFF0E4900FA6F0900FA6E0FFC395105050
:101CC0002274222FF582E43413F583E0C394017467
:101CD0008094804006900FA5E004F0900FA6E004E9
:101CE000F080D4900FA5E0C39403748094804008E2
:101CF0009012EEE0900FA7F0900FA2E0FB24BCF54D
:101D000082E43413F583E0FF900FA7E0FEEFC39E5B
:101D10005003021DCD74BC2BF582E43413F583E42B
:101D2000F0AF0FAE0EAD0DAC0C122253E50B5FF50C
:101D30000BE50A5EF50AE5095DF509E5085CF508BD
:101D400074222BF582E43413F583E4F022900FA281
:101D5000E024BCF582E43413F583E014F022900F04
:101D6000A2E02422F582E43413F583E4F0FFFEFDC3
:101D7000FCAB0BAA0AA909A808C31222607008903C
:101D80000FA2E0FF129A52E51014FF900FA2E06F2D
:101D9000703B9014E7E0C395104032E4900FA6F03A
:101DA000900FA6E0FFC39510501B74222FF582E41C
:101DB0003413F583E06006900FA57401F0900FA630
:101DC000E004F080DB900FA5E07002C21422E70966
:101DD000F608DFFA8046E709F208DFFA803E8882DB
:101DE0008C83E709F0A3DFFA8032E309F608DFFA13
:101DF0008078E309F208DFFA807088828C83E30937
:101E0000F0A3DFFA806489828A83E0A3F608DFFA10
:101E1000805889828A83E0A3F208DFFA804C80D25E
:101E200080FA80C680D4806980F28033801080A6DA
:101E300080EA809A80A880DA80E280CA8033898232
:101E40008A83ECFAE493A3C8C582C8CCC583CCF0DE
:101E5000A3C8C582C8CCC583CCDFE9DEE7800D8985
:101E6000828A83E493A3F608DFF9ECFAA9F0EDFB8C
:101E70002289828A83ECFAE0A3C8C582C8CCC583D4
:101E8000CCF0A3C8C582C8CCC583CCDFEADEE8802D
:101E9000DB89828A83E493A3F208DFF980CC88F09F
:101EA000EF60010E4E60C388F0ED2402B4040050D0
:101EB000B9F582EB2402B4040050AF2323458223FA
:101EC000901E1E73BB010689828A83E0225002E7BE
:101ED00022BBFE02E32289828A83E49322BB010CA7
:101EE000E58229F582E5833AF583E0225006E9256B
:101EF00082F8E622BBFE06E92582F8E222E5822985
:101F0000F582E5833AF583E49322BB010FF8E5827D
:101F100029F582E5833AF583E028F0225009C5824D
:101F200029F8E58226F622BBFE09C58229F8E225BA
:101F300082F222F8EA2583F583E9932822BB010681
:101F400089828A83F0225002F722BBFE01F322F835
:101F5000BB010DE58229F582E5833AF583E8F0229D
:101F60005006E92582C8F622BBFE05E92582C8F2A3
:101F700022EF8DF0A4A8F0CF8CF0A428CE8DF0A491
:101F80002EFE22BC000BBE0029EF8DF084FFADF0C9
:101F900022E4CCF875F008EF2FFFEE33FEEC33FCB3
:101FA000EE9DEC984005FCEE9DFE0FD5F0E9E4CEE9
:101FB000FD22EDF8F5F0EE8420D21CFEADF075F0B8
:101FC00008EF2FFFED33FD4007985006D5F0F222C1
:101FD000C398FD0FD5F0EA22C2D5EC30E709B2D59F
:101FE000E4C39DFDE49CFCEE30E715B2D5E4C39F4D
:101FF000FFE49EFE121F83C3E49DFDE49CFC80036E
:10200000121F8330D507C3E49FFFE49EFE22C5F074
:10201000F8A3E028F0C5F0F8E58215827002158378
:10202000E038F022A3F8E0C5F025F0F0E582158253
:1020300070021583E0C838F0E822BB010A89828A61
:1020400083E0F5F0A3E022500687F009E71922BBF0
:10205000FE07E3F5F009E3192289828A83E493F508
:10206000F074019322BB0110E58229F582E5833AE1
:10207000F583E0F5F0A3E0225009E92582F886F027
:1020800008E622BBFE0AE92582F8E2F5F008E22222
:10209000E5832AF583E993F5F0A3E99322BB010DCB
:1020A000C58229C582C5833AC58302200E5011C559
:1020B0008229F808E5F026F618F5F0E58236F622D2
:1020C000BBFE11C58229F808E225F0F5F0F218E20E
:1020D0003582F222F8E58229F582E5832AF58374B8
:1020E000019325F0F5F0E4933822BB010A89828A36
:1020F00083F0E5F0A3F0225006F709A7F01922BB00
:10210000FE06F3E5F009F31922F8BB0111E5822977
:10211000F582E5833AF583E8F0E5F0A3F022500973
:10212000E92582C8F608A6F022BBFE09E92582C887
:10213000F2E5F008F222E88FF0A4CC8BF0A42CFC9E
:10214000E98EF0A42CFC8AF0EDA42CFCEA8EF0A41D
:10215000CDA8F08BF0A42DCC3825F0FDE98FF0A4AC
:102160002CCD35F0FCEB8EF0A4FEA9F0EB8FF0A4A3
:10217000CFC5F02ECD39FEE43CFCEAA42DCE35F0DF
:10218000FDE43CFC2275F008758200EF2FFFEE3372
:10219000FECD33CDCC33CCC58233C5829BED9AECDA
:1021A00099E58298400CF582EE9BFEED9AFDEC9944
:1021B000FC0FD5F0D6E4CEFBE4CDFAE4CCF9A8824E
:1021C00022B800C1B90059BA002DEC8BF084CFCEF3
:1021D000CDFCE5F0CBF97818EF2FFFEE33FEED33B1
:1021E000FDEC33FCEB33FB10D703994004EB99FB78
:1021F0000FD8E5E4F9FA227818EF2FFFEE33FEED61
:1022000033FDEC33FCC933C910D7059BE99A40076D
:10221000EC9BFCE99AF90FD8E0E4C9FAE4CCFB2284
:1022200075F010EF2FFFEE33FEED33FDCC33CCC84D
:1022300033C810D7079BEC9AE899400AED9BFDEC58
:102240009AFCE899F80FD5F0DAE4CDFBE4CCFAE497
:10225000C8F922CFF4CFCEF4CECDF4CDCCF4CC223D
:10226000EB9FF5F0EA9E42F0E99D42F0E89C45F0D4
:1022700022E8600FECC313FCED13FDEE13FEEF1329
:10228000FFD8F122E8600FEFC333FFEE33FEED33EA
:10229000FDEC33FCD8F1227401FF3395E0FEFDFC28
:1022A000A3A3A3E0CF2FF0E582158270021583E08F
:1022B000CE3EF0E582158270021583E0CD3DF0E55B
:1022C00082158270021583E0CC3CF022ECF0A3ED85
:1022D000F0A3EEF0A3EFF022A8828583F0D083D0A4
:1022E000821222EF1222EF1222EF1222EFE473E4A5
:1022F00093A3C583C5F0C583C8C582C8F0A3C583B1
:10230000C5F0C583C8C582C822A42582F582E5F040
:102310003583F58322D083D082F8E4937012740160
:1023200093700DA3A393F8740193F5828883E473EB
:102330007402936860EFA3A3A380DFEC8EF0A4CCBB
:10234000C5F0CCCDF8EFA4CEC5F02DFDE43CFCE803
:10235000A42EC8C5F03DFDE43CFCEFA4FFE5F02849
:10236000FEE43DFDE43CFC227AF279B27BFFE4908E
:102370000FDCF0227AF279C97BFFE4900FDCF022C7
:10238000E4901497F090053CE0FF3395E0FEEF4EAB
:10239000227AF279CE7BFFE4900FDCF0227AF37997
:1023A000097BFFE4900FDCF02290045BE0FF14F067
:1023B000EFC3940174809480227BFF7AF2799FE4CA
:1023C000900FDCF0227AF279EF7BFFE4900FDCF0E3
:1023D000227AF279E77BFFE4900FDCF022E49004AC
:1023E0005EF090042F7407F0E4900180F09004F503
:1023F0007407F0227AF279BD7BFFE4900FDCF022C3
:10240000740490045FF0E49014AAF0740C9014A982
:10241000F09014AB7401F0227AF179CD7BFFE49057
:102420000FDCF02290148DE0640A2235F0FA7BFF75
:10243000E025E0FFE4900FDCF0FD227D017BFF7ED4
:10244000007F07021E9E901495E0FFA3E0FEC39F4D
:1024500022E0C4540FFB900FAF7401F0229006BB32
:1024600074FFF5F012200EFEC3E5F09401EE940027
:1024700022740E900476F090047574802274189083
:102480000FDAF0A374FFF0A3227BFFE4900FDCF0DF
:10249000229000F7E0FF7E00D394007480948022A5
:1024A00090042F7407F09004F5F0E4900180F0227E
:1024B0007BFFE4900FDCF02274992FF582E4341452
:1024C000F58374FFF022E0FEA3E0FF7C007D641240
:1024D0001F837F0A7E00CFCDCFCECCCE121F83AB21
:1024E00007E4900FAFF02290148DE0FF7E00C394BC
:1024F00009748094802290045F7413F07401A3F037
:10250000A3E4F0A37480F0227BFFE4900FDCF022C0
:10251000FF24FCF58274FF3EF583ECF0A3EDF0742C
:10252000FE2FF58274FF3EF5837401F074FF2FF5E2
:102530008274FF3EF583227AF279907BFF900FDC64
:10254000F0229000EEE0FF3395E0FE227D017BFF5C
:102550007E007F06021E9E7BFFE4900FDCF0227A55
:10256000F379027BFF900FDCF02290045C740CF096
:102570009003F4E090045DF090045B7480F022908E
:102580001498E06401227BFFE4900FDCF0229000BD
:10259000CBC3E094057480948022901496E004F0FC
:1025A00022900474E024FFFF900473E034FFFE22C5
:1025B000E0FBE4900FDAF022900F87E0FFC3940C69
:1025C00074809480227D017BFF7E00021E9E7BFF33
:1025D000900FDCF07D242290148DE0640222E05400
:1025E000F0FF90148DE02F229004617402F0A37428
:1025F00080F090046AE0640122E0C3940474809443
:102600008022F09000C8E4F0A3F0A3F0229006B678
:10261000F09006BBE4F0A37440F02290148DE064C7
:102620000122E49000CCF0A3742BF0A374F2F0220A
:10263000FF24FCF58274FF3EF58374FFF0A3F07471
:10264000FE2FF58274FF3EF583E422F09003FEE056
:10265000FCA3E0FDA3E0FEA3E0FF22E0FFC39402A1
:102660007480948022F0A37401F07BFF7AF479FDEA
:10267000227BFFE4900FDCF02290148DE0FDC394E8
:102680000A7480948022E0540F2FF090148E22045C
:10269000F0E4901494F02290046B74FFF5F0122093
:1026A00024FEC3E5F09401EE64809480227D017BDA
:1026B000FF7E00021E9EE0FFC3940374809480227C
:1026C0007C007D0AE0FEA3E0FF021F83900410F06F
:1026D0009004127440F0E422E4F090045E7424F05C
:1026E0009000F522901494E0FF7E00640222900393
:1026F000F8E09003F72401FFE03400FE227E009012
:102700000459EEF0A3EFF024FFFFEE34FFFE229019
:102710000476740EF0A3740CF0E422F0A37403F0BA
:10272000A37480F07D347F4822901490E0FCA3E0F5
:10273000FD900473ECF0A3EDF0229000F8E064014A
:1027400022E004F0900459E0FCA3E0FDAE0478021E
:1027500022900475E014F02290045F7413F022902C
:102760000F87E004F0227BFFE4900FDCF022E0C34F
:102770009464748094802290148DE0FF7E00640B3A
:102780002290045E7415F0E490045FF090046A22D5
:1027900074EAF0A374F6F0E4A3F07B1B2290042FFC
:1027A0007407F0227403F0E49003F3F0901494F0B3
:1027B00022900476E0640122900000F0A3F02290C1
:1027C00004EFE0640122E014F0900473E0FEA3E063
:1027D000780222A3740EF09004F174262274EEF0B5
:1027E000A3747B2274EEF0A3749B22F0901496F0F5
:1027F000901495229014A9E0FF900F87E0FEC39FEC
:102800002290148DE0640B2290148DE064032290DA
:10281000F7739324FFFFE49334FFFE22E024FFF0DC
:102820009000F5E034FFF0229004767402F0E4901A
:10283000053DF022F090046B7401F0A37440F02287
:10284000EF3395E0FEEFF4227BFFE4900FB1F0222E
:102850007B01E4900FB1F022901499EDF0900F8776
:102860007401F02290148DE0C39406748094802249
:102870009004617402F0A37480F02290046174FFEC
:10288000F5F0022024F09005637411F0227BFF9094
:102890000FDCF022E0FEA3E0FFD39400EE22F0E490
:1028A0009004EFF0227B017A1479992290047CE065
:1028B000640122E4900FDCF07D1E7F03227B037D08
:1028C000037F032290017774FFF022E49000EDF083
:1028D000A3F0A3F0227D017BFF7E00021E9E782ADA
:1028E0007C017D0122F09005407402F07BFF22E420
:1028F000900F86F0900F85F02290100F122D70E44B
:10290000901017122D4EA3122D4E90100F122D461F
:102910004A4B7002FF2290100F122D46F990000FC3
:1029200012307BC002C001901012122F3990104655
:10293000C9122D71901015E0FFA3E0901049CFF05F
:10294000A3EFF0D001D002123456EF7002FF2290B4
:10295000100F122D46F9122F5724FE6076147003C3
:10296000022AAA147003022B9324036003022CEFA3
:10297000E4901025F0A3F090100F122D46122E6552
:1029800095F0500D122EE470EE901025E004F080CA
:10299000E690100F122D46122DB7ED6B7001EC6012
:1029A00003022CFF90100FE0FBA3A3900007122E50
:1029B000BFFDACF0122F73900008122DF13E122DC6
:1029C000E9122E8E6003022CFF90100F122D46F993
:1029D000022CE61230F112948590100F122D46F958
:1029E000900005122EBFFDACF01230EB90000612E5
:1029F0002DF13E901017F0A3EFF01230741230ADAD
:102A0000900008122F79900009122EB52DFFE5F0E5
:102A10003CFE90000A122DFB9010231230F87C052A
:102A20007DA0121F839010171230C37C007D061208
:102A30001F71EF2BFFEE3A90101BF0FCA3EFF0FD9F
:102A400090100F122D462416F9E43AFAC004C0057E
:102A5000901023122F48901048ECF0A3EDF0D00511
:102A6000D004125FC178437C10122E4290100F12D6
:102A70002D46785B7C10122FCF122D13122D46128B
:102A80002E8D6003022CFF901029122E8694FDEEED
:102A90006480947F5003022CFFD3EF940FEE648088
:102AA00094804003022CFF022CE61230F112948530
:102AB000E4901025F0A3F090100F122D46122E6511
:102AC00095F0500D122EE470EE901025E004F08089
:102AD000E690100F122D46122DB7ED6B7001EC60D1
:102AE00003022CFF90100FE0FBA3A312307475F0CB
:102AF000038475F00AA4FF900006122DFB35F090B8
:102B0000002E8FF012210912307475F00384E5F065
:102B100075F00AA4FF900008121EDD2F90003012FD
:102B2000302B90002E12305AC3EE94005003022C2A
:102B3000FFD3EF9417EE94004003022CFF90100F88
:102B4000122D46F9900030122065FDACF0D39FECB9
:102B50009E5003022CFFD3ED9418EC940040030226
:102B60002CFF122E8E6003022CFF90002E12206587
:102B7000FF901031122E7095F05003022CFF900040
:102B800030122065FFC3ED9FEC95F04003022CFF4F
:102B9000022CE61230F112A3C290100F122D46F94A
:102BA000900004122EBF24E3FFE5F03407FE9000EE
:102BB00005122DFB9010191230F890102B122FB423
:102BC0004003022CFFC390101AE09DFF901019E003
:102BD0009CFEC3EF9403EE94004003022CFF901080
:102BE0000FA3A3122F731230AD900007122F79900C
:102BF0000008122EB52DFFE5F03CFE900009122DC5
:102C0000FB3EFE901025F0A3EFF0C39451EE94220A
:102C10004003022CFF901025E0FAA3E0FB7D181280
:102C20002F1690101BEEF0A3EFF07C007D18AF0381
:102C3000AE02121F83901021ECF0A3EDF09010195A
:102C4000E0FEA3E0A31230147410F0A3741FF07B15
:102C5000017A10791D12710090100F122D46241662
:102C6000F9E43AFA901019E0FCA3E0FD90101DE0A1
:102C7000FFA3E0901048CFF0A3EFF090101FE0FF0B
:102C8000A3E090104ACFF0A3EFF0901021E0FFA353
:102C9000E090104CCFF0A3EFF012A6FA90100F12B4
:102CA0002D4678437C10122FCF785B7C10122E4279
:102CB000122D13122D46122E8D7044D390102AE03F
:102CC0009400901029E06480948040339000241296
:102CD0002065FF9010391230CDE5F09CFEC3EF94D3
:102CE000E7EE9403501990000FE475F001800D9009
:102CF000100F122D46F990000FE4F5F01221099003
:102D0000100F122D46F990000F122E917F007002C5
:102D10007F012212A806901029EEF0A3EFF0901088
:102D20000F2290005BE4122109901046E0FBA3E023
:102D3000FAA3E0901051F9E0FEA3E0F5828E831231
:102D40001EDDFF901043E0FBA3E0FAA3E022F0A316
:102D5000F0A3F0A3F0A3F0A3F0A3F0A3F0A3F0A3DB
:102D6000F022A3E0FAA3E0240490104CF9E43AFA2C
:102D7000EBF0A3EAF0A3E9F022F990000E1220652F
:102D8000FFAEF07C007D06121F83900010EE8FF0E6
:102D900012210990000E122065FFAEF07C00227D0A
:102DA0003C121F7190000812206590000C2FFFEE5E
:102DB00035F08FF0022109F9900009121EDDFFFDA8
:102DC000C3901028E09DF0901027E09400F0EFFBF6
:102DD0007D0AE0FEA3E0FF7C00021F833EFE900020
:102DE000081220652FFFEE35F09000148FF00221BD
:102DF0000975F064A42DFFE5F03CFE121EDD7C0099
:102E00002FFFEC22900001121EDDFF900041E48FA5
:102E1000F0122109900002121EDD900043FFE48FA2
:102E2000F0022109900012122065FFAEF07C057DB2
:102E3000A0021F71900012F9EC8DF0122109900090
:102E400006227B017A10792B7E007D017F18021EFD
:102E50009E7C007D64121F837F0A7E00CFCDCFCE83
:102E6000CCCE021F83F990000D122065901025FF33
:102E7000E0FCA3E0FDC39FEC22E0C4540F75F00A10
:102E8000A4FFE0540F22E0FEA3E0FFC322F990006C
:102E90005D122065640145F022FF121EDDFD12CF98
:102EA00032AE0790100F22F9121EDDFFAD0612CED2
:102EB0002090100F2275F064A42DFDEC35F0FC126B
:102EC0001EDD75F00AA422CFF0A3EFF07B017A0F8C
:102ED00079AF22F990000D022065FFE0FD12CE20AF
:102EE00090100F228D828C83121EDDFF901028E03F
:102EF0002FF0901027E03400F0901026E004F0222C
:102F00007D017BFF7E00021E9E9000068FF0022155
:102F100009E0FAA3E0FBFFAE02021F83F9E0FEA383
:102F2000E0FFF5828E83021EDDF9E0FCA3E0F5826E
:102F30008C83EF021F4F900FA5E0F9A3E0FAA3E006
:102F400022A3ECF0A3EDF0227C057DA0E0FEA3E03F
:102F5000FF021F83121F4F900011021EDDF9900027
:102F600002EF121F4F900003021EDDF9900005EFE3
:102F7000121F4F900006021EDDAC06AD07021EDDDB
:102F8000900002F9EE8FF0022109FFE0FD12CF322E
:102F900090100F2234F8FE7C007D0F121F83ED2469
:102FA000E3FFEC340722E0FFA3E0900004CF8FF0B2
:102FB000022109FFE0FCA3E0FDD39FEC9E222FFE3F
:102FC000EC35F0F0A3CEF0227C277D10021F832485
:102FD00016F9E43AFA7D017E007F18021E9EA3E0F6
:102FE000FAA3E02406F9E43AFA90104F22A3E0FA9B
:102FF000A3E02408F9E43AFA90105222F98D828C69
:1030000083121EDDFF22F9900008EF121F4F90007F
:1030100009021EDDFFE0FCA3E0FD90105B7401F0EF
:10302000A32224FFFFE5F034FFFE22FFEC35F08FF2
:10303000F0022109A37407F0A374E3F0227D017B61
:10304000FFFE021E9E33FE74642FF58274103EF55F
:103050008322F98F828E83021EDD122065FFAEF07F
:1030600022A3E0FEA3E0FFED6F22901059FFE4F0F1
:10307000A3EFF022900007021EDDF9E4F5F0022133
:1030800009AF05AE04AD03AC02021F8374FF2DF53A
:103090008274FF3CF58322901049E0FEA3E090107B
:1030A0004D2224FFF58274FF35F0F58322FF7E0068
:1030B0007C037DE8021F71C98DF00220EAC98FF000
:1030C0000220EAAA06AB07E0FEA3E0FF22E0FCA391
:1030D000E0FDC3EF9DFF229400CF2401FBE43FFA03
:1030E00022F990001212206525E022900004021EB1
:1030F000DD7B017A10792B223EFEF0A3EFF02290C7
:10310000045FE0600302318E9000D2E070269004EC
:103110006AE06402701E9000D5E07018122758749F
:10312000071224FE7F3E12CE4D12CE2F1223D17DE8
:103130000E0233A890046AE0FF7E006401700E90D6
:1031400000D5E012265D50028001C35018EF6402E2
:103150004E70329000D4E0C3940874809480500282
:103160008001C34020122758A374061224FF7F5801
:1031700012CE4D7F647E0012D01812CE2F1223C5BE
:103180007D240233A890045F7401122690229004DB
:103190005FE06401704D7403122834E490149412BB
:1031A00025F1700512CB39800312CB06900463EF32
:1031B000F0122406E4900F87F01225B8500812246C
:1031C000B812275F80F31225E87B5270047D4C8093
:1031D000027D4E7F6612CE8512CE2F1223F47D1E05
:1031E0000233A890045FE06403600302329712CEBA
:1031F0002F1223F47D1E7F03126720E412344CE06B
:10320000640270739014AAD31225924053E4900F75
:1032100087F0900F87E01225BD501EE0FF2499F53E
:1032200082E43414F583E0FE74812FF582E43414D3
:10323000F583EEF012275F80D9122400E4900F8707
:10324000F01225B850081224B812275F80F3122517
:10325000E87B5270047D4C80027D4E7F6802CE85F3
:103260007403122402E4900F87F01225B8506612FE
:1032700024B812275F80F39014ABE06403700280DF
:103280005E12269740030234371224F612343812A5
:1032900023917D240233A890045FE06404706412DB
:1032A000344C1226E770329014AAE0D312259340D2
:1032B0000790045F7405F022122400E4900F87F059
:1032C000900F87E0FD1225BD500B74992D1224BB81
:1032D00012275F80EB12287022EF64034E700E12EB
:1032E0002758A3740CF0A3E4F0A304F0221226974D
:1032F00040030234371224F61234381223917D240D
:103300000233A890045FE0640560030233AD7B01E3
:10331000900F8B04F0A37414F0A37499F07A1479CD
:1033200081127BE6EF3395E04F706A1228A5127484
:103330005BEF70431228A5900463E0FD129F2A12F0
:1033400028407002EEF4600302343790045F741278
:10335000F09004611225017D321234431223747DF2
:10336000247F031267201225F270059000D5800398
:103370009000D4E004F022122758A374041224FF12
:103380007D527F5612CDB412CE2F7AF279D3122409
:10339000B07D248013122758A374091224FF7D34B2
:1033A0001234431223917D247F0302672090045F2F
:1033B000E06412702812287B122467507A9000D2A1
:1033C000E070121225F2700D9000D5E064017005D6
:1033D00012CE69800312CFB37F060250F790045FCC
:1033E000E06413705212287B122467504A900460E4
:1033F000E0FF7E00640C700E9000D2E07008900038
:10340000D5E0700280119000D2E0700F1225F270AA
:103410000A9000D5E070041223DE22EF64064E60AD
:103420000E900460E0FF640C6005EF640770051205
:1034300025F2800012CFB3227D347F4412CDB41226
:10344000CE2F227F4412CDB412CE2F22FD7F051243
:10345000B5029014AB22901043122D70E490104BE3
:10346000122D5A901049E0FCA3E0FD90104FECF0B3
:10347000A3EDF0122D431230E1FBE5F033FAED2419
:10348000FAFFEC34FFFE7C007D05121F839006D30B
:1034900075F0C8ED122309EC75F0C8A42583F583F7
:1034A000E5822BF582E5833AF583E0FEA3E0FBAAF3
:1034B000067C007D64FF121F83901051EEF0A3EF95
:1034C000F0AF03AE02122E51A3EEF0A3EFF0AE0266
:1034D000AF037C007D0A121F83122F41E4122D5985
:1034E00090104AE024F5FE901049E034FF90105B04
:1034F000F0A3CEF0122D434A4B7002FF22122D434F
:10350000F990001212305AD39400EE94004008EF64
:103510009464EE940040037F002290104F122E8698
:103520009406EE94004009D3EF940CEE940040030F
:103530007F002290105B122E86EE9400405BD3EF4A
:103540009402EE94005052901052E09F901051E07F
:103550009E500CA3E0240AF0901051E03400F0D308
:10356000901054E09F901053E09E500CA3E0240A6A
:10357000F0901053E03400F090105BE0FEA3E0FF09
:10358000D3901056E09F901055E09E500CA3E0247D
:103590000AF0901055E03400F090104DE4F0A304D0
:1035A000F0123097122FB3503390105112306270D6
:1035B00002EC6E60171230617002EC6E600E123019
:1035C000617002EC6E6005122F41801090104EE089
:1035D00004F070CD90104DE004F080C5E490104DE3
:1035E000F0A3F0123097122E6F9E502690104612C4
:1035F0002D46122FFC90104CE02FF090104BE03431
:1036000000F090104EE004F070D990104DE004F0FE
:1036100080D1122D43F9122F57FF64016008EF6427
:103620000360030236CD122E04122F65900045125E
:103630002E1D1230EBFF900047122E1E9000051237
:103640001EDD12306A75F005122D22F9900041122C
:1036500020656F7002E5F060030237439010461258
:103660002D46901053122D36F99000431220656FAD
:103670007002E5F06003023743901046122D46F9C0
:10368000901055122D37F99000451220656F700289
:10369000E5F06003023743901046122D46F9901072
:1036A00057122D37F99000471220656F7002E5F030
:1036B000600302374390104B122DD0901059E06CEC
:1036C0007003A3E06D707C122D43F9805B122D43D3
:1036D000F9122F57FF64026005EF64047053122E35
:1036E00004122F6512306A75F003122D22F9900032
:1036F000411220656F7002E5F07048901046122D5F
:1037000046F9901053122D37F99000431220656F3F
:103710007002E5F0702D90104B122DD0901059E0F2
:10372000B50420A3E0B5051B90005DE475F00180B1
:103730000F122D4390005B12307A90005DE4F5F09B
:10374000122109122D43122E8D7F0070027F01225B
:103750009003ECEEF0A3EFF09003F3E07015741E0D
:10376000128EEFA37401F0E4A3F0A374FFF07F6C5A
:103770000239069003F3E0641E7005741F02393E9F
:103780009003F3E0641F7063128EDC704F9004F1BD
:10379000E070089003F3742002395B9004F1E0FFBD
:1037A0006403600DEF64026008EF64F9600302389F
:1037B000A89003F3741EF0128F606003023A079022
:1037C00003EFE024FFF09003EEE034FFF0128EA848
:1037D000648094804003023A070239FD128EA5648A
:1037E0008094804003023A070239FD9003F3E064BD
:1037F0002070107421128EE69003F0E0FF12BB9A45
:103800000239CE9003F3E0642160030238BD128ECA
:10381000DC60030238AE9004F1E070529003F0E0F7
:10382000FF7E00640170209003F2E0FD3395E0FC20
:10383000ED4C70139003F0E004F09003F37424F067
:103840009003F274FF8020C3EF9405EE64809480AF
:103850009003F35010128EEDA3E004F0123A081218
:10386000672002395C7417F0128F4F02395C9004A4
:10387000F1E0FF64066005EF6403702C9003F1E053
:10388000C39403748094809003F3500E128EED1253
:10389000C872123A0812672080077429F0A3740BCB
:1038A000F09003F1E004F0229003F30239EC128E61
:1038B000A5648094804003023A070239FD9003F327
:1038C000E06424700F7425128EE67B32FAFDFC7FD3
:1038D0000102B2B19003F3E064257058128EDC70DF
:1038E000449004F1E0FF7E00700B9003F37429F024
:1038F000A3740AF022EF64094E9003F37024128E31
:10390000ED12C8727F6E12CE4D7F967E0012D018D7
:103910007BFF7AF279B6E4900FDCF07D0E7F030234
:1039200067200239EC128EA5648094804003023A2D
:10393000070239FD9003F3E0642270087423128EAD
:10394000E602CB829003F3E064237028128EDC70D1
:1039500014128F609003F360067422F002C8727430
:103960001E128EEF22128EA5648094804003023ACC
:10397000070239FD9003F3E06417700A7418128E81
:10398000E612CA9A80489003F3E0FF7E0064187044
:1039900022128EDC700F9004F1E09003F370047437
:1039A00019F02280479003EE128F4064809480507B
:1039B00056804AEF64194E70199003F3741A128EF0
:1039C000E69003ECE0FCA3E0FD7F0112B6D9128F74
:1039D0004F229003F3E0641A702D128EDC70159064
:1039E00004F1E09003F370047428F0227429F0A32A
:1039F000740BF022128EA564809480500A9003F319
:103A00007429F0A37401F0227F6E12CE4D7F967E52
:103A10000012D0187BFF7AF279B6E4900FDCF07DCB
:103A20000E7F03229000CC122388700B90045E74EA
:103A300027F07F0412A90E9004FFE070067420F0B6
:103A400012B4A29004F5E06404706D9000ED74FF70
:103A5000F09004FDA3E09000F3F012C87212260368
:103A60009000F8E070047F01802312273A6003027F
:103A70003B379000EF122545BEFF07BFFF047F06CE
:103A8000800B122542BEFF0BBFFF087F0412CB9AAA
:103A9000023B379000F7E07006123CD7023B37122A
:103AA00024915003023B37EF640170031223ED9021
:103AB00000F7E014F0023B379004F5E064057077FE
:103AC000123CE3704A9004F8E064167038A3E06496
:103AD000D47032A3E064DB702CA3E0643C702690C9
:103AE000064BE0701B12BCF390056A12238870101D
:103AF0007D327F4412CDB490064B74C0F012C87270
:103B00001223ED80327F0912CB9A12C8728028E40A
:103B10009000EDF09000F104F09000F31226D8121E
:103B200025017F4012CE4D9000C91225F95005E0C5
:103B300004F080031226221262C7900180E06428FC
:103B400070659000EE74FFF090017BA3E00490009C
:103B5000F21226029000F8E070047F0380731227AF
:103B60003A6003023BFE9000ED122545BEFF07BF01
:103B7000FF047F04805B9000EF122545BEFF07BF66
:103B8000FF047F05804B9000F7E07005123CD78062
:103B90006D1224914068EF64017004900180F090F0
:103BA00000F7E014F08057900180E06429704FA383
:103BB000E0642B70089000FA7402F08005E4900035
:103BC000FAF0123CE3700F9000FAE0640260077FA5
:103BD0000912CB9A8028E49000EEF09000F1740373
:103BE000F0E4A31226D91225017F4012CE4D900099
:103BF000C81225F95005E004F08003122622127342
:103C00004290042FE0640A70579000EF74FFF09028
:103C1000043DE09000F41226029000F8E060089065
:103C200000F0E0640170047F02804912273A6003CB
:103C3000023CC69000ED122545BEFF07BFFF047F82
:103C4000068031122542BEFF07BFFF047F05802496
:103C50007F7A12CE4D12279D9000F77480F0806617
:103C600090042FE0640B703C12C9B3EF3395E04F22
:103C700070077F0912CB9A804DE49000EFF090001E
:103C8000F17402F09000F41226D81225017F401240
:103C9000CE4D9000CA1225F95005E004F08027129D
:103CA0002622802290042FE0FF7E00640C700E908C
:103CB0000407F0A3F090045E7426F08009EF640D11
:103CC0004E700312CD81126441900427E07002A36C
:103CD000E0700312CE2F227F7A12CE4D9000F7743F
:103CE00080F02212C9B3EF3395E04F2212AD7C90E1
:103CF0000F881222CC12BB6D600712BB84A3122264
:103D0000CCC390042AE09420900429E0940050034E
:103D10007FFF22301B0A12BB6D7002C21B7FFF2285
:103D200012BB84126C5620C207E49014D6F08006B1
:103D30009014D674FFF012BB5470099014DBE0703D
:103D400003023E309014CB12BB57700B9014DBE093
:103D500064017003023E3F9014CC12BB57700B906D
:103D600014DBE064027003023E4F9014CD12BB5787
:103D7000700B9014DBE064037003023E609014CE7D
:103D800012BB57700B9014DBE064047003023E71A9
:103D90009014CF12BB57700B9014DBE064057003D6
:103DA000023E829014D012BB57700B9014DBE0647B
:103DB000067003023E929014D112BB57700B901400
:103DC000DBE064077003023EA29014D212BB57706E
:103DD0000B9014DBE064087003023EB29014D3121F
:103DE000BB57700B9014DBE064097003023EC29075
:103DF00014D412BB57700B9014DBE0640B700302F9
:103E00003ED29014D512BB57700B9014DBE0640ABD
:103E10007003023EE29014D612BB57700E9014DB72
:103E2000E0640D70069014DE023EF512BB5470077C
:103E30009014DEF0023EFD9014CB12BB5770089038
:103E400014DE04F0023EFD9014CC12BB57700990B2
:103E500014DE7402F0023EFD9014CD12BB577009BF
:103E60009014DE7403F0023EFD9014CE12BB577026
:103E7000099014DE7404F0023EFD9014CF12BB577B
:103E800070089014DE7405F080739014D012BB5744
:103E900070089014DE7406F080639014D112BB5742
:103EA00070089014DE7407F080539014D212BB5740
:103EB00070089014DE7408F080439014D312BB573E
:103EC00070089014DE7409F080339014D412BB573C
:103ED00070089014DE740BF080239014D512BB5739
:103EE00070089014DE740AF080139014D612BB5739
:103EF0009014DE7005740DF0800374FFF09014DEF2
:103F0000E0FF900562F0F47003023F8D9014DBE057
:103F1000FD9014DEE0FC6D6015EF640D900F906075
:103F200004ECF0800374FFF09014DBEC8079D39004
:103F300014DDE094C09014DCE09400500FA3E00482
:103F4000F070069014DCE004F012BB939014DCE0F7
:103F5000FEA3E0FFD39460EE9400402CEF94C0EEFB
:103F60009400400EA3E0640D7008900F90741BF055
:103F7000800312BB939014C9E004F0D3947F748043
:103F800094804029E4F0802512BB9380209014DBBC
:103F9000E0FF640D900F907004EFF0800374FFF069
:103FA0009014DEE09014DBF0E4A3F0A3F0900F9007
:103FB000E0FF229006B6E0703D7BFF7AF179039036
:103FC0000FB1F07D1C7F011276897BFF7AF27916A2
:103FD000E41225D07F011267207BFF7AF17905E496
:103FE000900FB1F07D5C7F01127689E49000CFF0F4
:103FF0009006B604F0229006B6E0640170217BFFC3
:104000007AF279211225D07F0412672012B562124C
:10401000C502E49006B7F09006B67402024115900E
:1040200006B6E064027034A3122388900FDA700A97
:1040300074101224821227DD800874101224821258
:1040400027E412422012245D400302421F7403122F
:10405000422E7BFF7AF2791B02415C9006B6E06447
:1040600003706412A4D99000CFE06402703E900403
:10407000EFF07F0112BB0EE4900F87F0900F87E006
:10408000C394197480948050177F0A7E0012D01850
:1040900012D01E1227BF6008900F87E004F080DC6A
:1040A000E49006B8F09006B6740480699000CFE002
:1040B0006403600302421F9006B874FFF074041298
:1040C000260D7F0702421C9006B6E064047035900E
:1040D00006B8122388900FDA700A74101224821224
:1040E00027DD800874101224821227E41242201265
:1040F000245D400302421F740512422E7BFF7AF2B8
:10410000791E80589006B6E0640570119006B9F0EB
:104110009006B674061226107F0202421C9006B664
:10412000E06406703A9006B9122388900FDA700A9C
:1041300074101224821227DD800874101224821257
:1041400027E412423D12245D400302421F9006B64E
:104150007407F012424B7BFF7AF27924E48072906C
:1041600006B6E06407700E9006BAF0740812260DC9
:104170007F0202421C9006B6E06408706B9006BA9B
:10418000122388900FDA700A74101224821227DD2D
:10419000800874101224821227E412423D12245D1A
:1041A000507D9006B6740912261012424B9006B844
:1041B00012238870219006B712238870199006B9CF
:1041C0001223887011A3122388700B7BFF7AF27977
:1041D000271225D0800D7BFF7AF2792CE4900FDC3A
:1041E000F07D1C7F040267209006B6E06409702F02
:1041F00012245D502A9000DBE06004640170187F97
:104200007412CE4D9000DA74FFF09000DC7480F0F0
:1042100090045E7422F0221223DD7F0612C5C422B0
:10422000F0E4A3F07B107D4B7F0412AB0F229006CD
:10423000B6F07F0412C6CE7F0512C6CE22F0E4A3EC
:10424000F07B107D4B7F0412AB0F227F0412C6CE91
:104250007F0512C6CE2278877C0F7AF17907122566
:104260004C788D7C0F7AF1790D12254C78937C0F68
:104270007AF179137F051225C5900422E0700302BC
:104280004419742812247F74EDF0A37477F0E4A32A
:10429000F07B347D48FF12AB0F9000F1E0640170B9
:1042A000157AF2799512253B1244C51223681244FF
:1042B000B79000F380379000F1E06403701112258D
:1042C000371244C51223681244B79000F2801E9042
:1042D00000F1E0640270267AF2799A122563FD7F7C
:1042E000021267201223681244BE9000F4E0FB7AA9
:1042F00000E4900F9CF07D287F0402438E9000F133
:10430000E06404702B122537FDFF1267201223682A
:104310001244917D247F021278B37AF279951223A8
:104320006C1244BE1223687F061244A47F06805E8E
:104330009000F1E064057026122537FDFF1267201A
:104340001223681244917D281244CC122378FD7FF9
:104350000412672012236812447C7F06803090008C
:10436000F1E06406702D7AF2799512288DFDFF1226
:1043700067201223687F021244A41244CC122395B2
:10438000FD7F0412672012236812447C7F06127896
:10439000B380189000F1E0640970107B017A0F7906
:1043A00093900FDCF0FD7F031267207B017A0F7979
:1043B0008DE4900FDCF07D407F0612672090042290
:1043C000E06403701690041CE0B4010FA3E0B43B5A
:1043D0000A7F2C12CE4D7F0302A90E900422E064C6
:1043E00004600302447B90041EE07004A3E06403B5
:1043F000701C7F2E12CE4D9000F5E4F0A374C0F037
:10440000900427E4F0A374C0F0E4FF0250F7900496
:104410001EE07004A3E0640122E4901497F0900F72
:10442000DA742812248274ECF0A374AFF0E4A3F0E1
:104430007B287D2CFF12AB0F7B017A0F7987E4126A
:1044400025D07F061267209000F51228946480948E
:10445000804015EF64404E7008900427F0A374412B
:10446000F09000F612281C229000ED12260612246D
:10447000A090045EF0900427F0A3F022FD7F0612C6
:1044800067209000F4E0FB7A00E4900F9CF07D2818
:1044900022FD7F021267209000F2E0FB7A00E49098
:1044A0000F9CF022FD1267209000F3E0FB7A00E4FD
:1044B000900F9CF07D2822FD7F0412672022FD7F53
:1044C0000412672022FD7F02126720227F021278E9
:1044D000B37AF2799A22E4900F96F0A31222D800D0
:1044E000000000900F9B1222D800000000E4900F03
:1044F0009FF0A3F030030302460112D00F500302D5
:1045000045F312C595900F971222CCE4900F95F0C9
:10451000900F95E0C395105039900F97127EA178B7
:1045200001122271900F971222CC30D720127E7583
:10453000C000C001900F95127E64E0F9F812228449
:10454000D001D000127EAD900F96E004F0127EF5FF
:1045500080BE900F96E0FF7E00C39402748094802A
:104560004018D214EF940374809480400512D01246
:10457000800812CF55EF6002C214201423E4FFFE1E
:10458000FDFC127E75C312226060109013A2E0043D
:10459000F070069013A1E004F0801D127EE18018F7
:1045A000901391E004F07006901390E004F0900FE7
:1045B0009B1222D80000000012CEB8D39013A2E0C4
:1045C0009F9013A1E09E400612D012127EE1D3907C
:1045D0001391E0942C901390E09401500302471D36
:1045E00012D0129013C87401F0E4901390F0A3F06D
:1045F00002471D90F6C7E4740193FF1252B10247BF
:104600001D2004030246EA127E75C000C00190130B
:10461000C9127E64E0F9F8122284D001D000127E23
:10462000AD127E02127EFC900F9FF0A3EFF090136C
:10463000C9E0FF12CF6DAD07AC06ED7802CEA2E760
:1046400013CE13D8F8FFC3ED9FFFEC9EFED3900F5F
:10465000A0E09FEE6480F8900F9FE0648098505532
:10466000E4901346F0A3F0901309E004F0127EDA10
:104670004010E4F0C203C204900F9B1222D8000045
:104680000000E4900F95F0900F95E0FFC395104067
:104690000302471D125955200316900F95E0FF9015
:1046A00013C9E06F600A900F95E0127E12127EBF70
:1046B000127EF580D2E4901309F012CEB890134622
:1046C000E475F00112200EFCD3E5F09FEC9E404D06
:1046D00012D012E4901346F0A3F0C203C204900F6C
:1046E0009B1222D8000000008033785406E6D312D3
:1046F0007EDA4004E4F6C203E4900F95F0900F9543
:10470000E0FFC39510501612595520030B900F95DA
:10471000E0FF127E12127EBF127EF580E0900F9BAA
:10472000127EA1229003E1E060030247C99000D20B
:10473000E070509000D5E0704A90045E7415122825
:104740003490045F740312269090046304F0900484
:104750006A122405E4900F87F0900F871225BB5052
:104760000B1224B8900F87E004F080ED1228707BC4
:10477000527D4C7F6612CE8512CE2F7BFF7AF27966
:10478000BD804012240690042F7409F0E4900F8736
:10479000F09014A9E0FF900F87E0FEC39F500E74C5
:1047A000992E1224BB900F87E004F080E49003E17F
:1047B00074011224A97F5A12CE4D12CE2F7BFF7A9C
:1047C000F179C71228B30267209003E1E064016029
:1047D000030248E17D107F0612B5029014ABE0643D
:1047E00002704D9003E17403F01228A512745B90DF
:1047F00003EAEFF0600B1226B850069003E1740252
:10480000F012279D9003E1E06403701912493C12F5
:1048100023B91249349003E97480F012258E502197
:10482000E004F0801C12494512241812493480110A
:104830009014ABE0640370099003E17404F0122754
:104840009D1262C7900180E06428702FC390017CA4
:10485000E0940A90017BE0940050209003E1740200
:104860001224A91249451224187D247F03126720BF
:1048700090017F7401F07F03024930900180E0FFD6
:104880006429601EEF6428600302493390017CE0D4
:1048900090017B1226F5D3EF940AEE9400500302A8
:1048A0004933900181E0642B9003EB70057402F0B2
:1048B00080037401F0E4900180F09003E17403F050
:1048C0009003E97480F012493C1223B97D247F03E0
:1048D0001267207F0212A90E12258E5056E004F0B6
:1048E000229003E1E06402700912CE69E49000CBEB
:1048F000F0229003E1E0640370209003E9E014F0FB
:104900001223B1502E12258E4005E4A31226261242
:1049100024A090045EF07F0180169003E1E064041F
:1049200070117F6012CE4D1224A090045EF07F01C2
:1049300012A90E227D247F03126720227F4012CE0F
:104940004D12CE2F227D327F5A12CDB412CE2F229D
:104950007D017F0412495A0D7F04EFF582758300B3
:10496000C3748094804024D3E5829405748094803D
:104970005019EDF582C374809480400FE58294084D
:104980007480948050057582018003900000E58258
:10499000640145836003024B53EF14606414700399
:1049A000024A46147003024A8B147003024AD01460
:1049B0007003024B1224056003024B53EB14601D7D
:1049C00014602D24026003024B53A8057401088073
:1049D00002C333D8FCFF429AEFF4529B22A805741D
:1049E00001088002C333D8FCFFF4529AEF429B22A5
:1049F000A8057401088002C333D8FCF4529A529B74
:104A000022EB14601D14602D24026003024B53A896
:104A1000057401088002C333D8FCFF4291EFF452C1
:104A20009222A8057401088002C333D8FCFFF45217
:104A300091EF429222A8057401088002C333D8FC8A
:104A4000F45291529222EB14601D14602D240260E6
:104A500003024B53A8057401088002C333D8FCFF3E
:104A600042A1EFF452A222A8057401088002C333C8
:104A7000D8FCFFF452A1EF42A222A80574010880DD
:104A800002C333D8FCF452A152A222EB14601D14CD
:104A9000602D24026003024B53A8057401088002B4
:104AA000C333D8FCFF42B1EFF452B222A80574011F
:104AB000088002C333D8FCFFF452B1EF42B222A8FF
:104AC000057401088002C333D8FCF452B152B222FB
:104AD000EB14601A14602A24027078A80574010887
:104AE0008002C333D8FCFF42C1EFF452C222A805B2
:104AF0007401088002C333D8FCFFF452C1EF42C2F4
:104B000022A8057401088002C333D8FCF452C152B4
:104B1000C222EB14601A14602A24027036A80574AD
:104B200001088002C333D8FCFF42D9EFF452DA22E5
:104B3000A8057401088002C333D8FCFFF452D9EFF2
:104B400042DA22A8057401088002C333D8FCF4526B
:104B5000D952DA2290108F127D0F90108EEFF090C4
:104B6000109974FEF0E4A3F0A3F0EF24F460102495
:104B7000FE701690109A7412F0A37410F0800A90D0
:104B8000109A7420F0A37430F090109AE04480FDE5
:104B90007F0212CE927D807F0412C917124D457D8F
:104BA000807F0A12C975E490109DF0A3F0901092D6
:104BB000E0FF90109DE0FCA3E0FDC39FEC9400504B
:104BC0002390108F127D068D828C83121EDDFD7F57
:104BD0000912CE9290109EE004F070D190109DE0EA
:104BE00004F080C990108EE0FD7F0112CE929010EB
:104BF0008EE0640C70077D807F0D12C97512CE5B4C
:104C000090109DE4F0A37464F07F0412CCDD90104A
:104C10009CEFF090109EE024FFF090109DE034FF98
:104C2000F0E07002A3E0601190109CE0FF20E0092A
:104C300090109BE0FEEF5E60D07D807F0D12C91763
:104C400090109DE07002A3E07003024D327F0612C7
:104C5000CCDDEF541B6003024D2A901099F0A3E0C5
:104C6000FF90109CE05F30E00690109974FFF09088
:104C7000108EE0640C6003024D357F0A12CCDD908B
:104C8000109CEFF07F0C12CCDDEF5407FD602990F3
:104C9000109CE024FFFFE434FFFEEF7803C333CE23
:104CA00033CED8F97C002DFFEC3EF9901096E0FB56
:104CB000A3E0FAA3E0C9801190109CE075F008A46D
:104CC000FF901096127D06E5F08FF01220EA90100A
:104CD0009CE0700204F090109CE0D39412748094D5
:104CE0008040037412F0E490109DF0A3F090109CAB
:104CF000E0FFC390109EE09F90109DE0940050351F
:104D00007F0912CCDD901093127D0690109DE0FC7F
:104D1000A3E0F5828C83EF121F4F90109EE004F009
:104D200070CB90109DE004F080C390109974FEF059
:104D3000800312CFA57D807F0C12C975124D45905E
:104D40001099E0FF22E4FD7F0112CE922290041020
:104D5000E0FF7E00700504F0A3F022EF64014E70C6
:104D60004512CE2F7AF279F41227667D0A7F02125D
:104D700067207AF279FD1227667D0A7F0412672088
:104D80001223856003024F301224464003024F3045
:104D9000EE75F004A424F5F974F435F0FA7BFF12F3
:104DA000BEC212259A22900410E06403702012CE35
:104DB0002F7BFF7AF2790CE4900FDCF07D0E7F03FD
:104DC0001267209004107402F07F4202CE4D9004CE
:104DD00010E06402701F12C82CEF3395E0FEBEFF96
:104DE00011BFFF0E9004107404122885E490041380
:104DF000F022024E76900410E064046003024E87B5
:104E000012B61F900563E0FF7E006412704F7405B8
:104E10001226CC9000D1F0A3F0FDEDC39432748043
:104E200094804003024F30ED25E025E02400F58218
:104E3000E43400F58374FFF0A3F0ED25E025E024D1
:104E400002F582E43400F583E4F0ED25E025E0246A
:104E500003F582E43400F583E4F00D80BDEF6413C4
:104E60004E6003024F309004131225F95008E004FD
:104E700012288502C8729004107408F07D34124F15
:104E8000317AF279CE8055900410E0640570189064
:104E900004121223AC4003024F3012C46B7406128A
:104EA00026CC9000D3F022900410E0640670369077
:104EB00004121223AC507912C77012C72112CC8B86
:104EC00012C40490041074071226CF9000D5F090FD
:104ED00000D4F07D32124F317AF279C9E41225D034
:104EE0007F03026720900410E0640770139004129F
:104EF0001223AC503BE490045EF012C872E4801EB2
:104F0000900410E0FF7E006408701C900412E0FD25
:104F100014F0C3ED1223B25017E490045EF0901425
:104F2000DCF0A31223E122EF64094E700312CE7766
:104F3000227F4212CDB412CE2F7BFF22900F9F1200
:104F400022D800000000900FA31222D80000000019
:104F50001290AA900FA7E0FEA3E0FFD394D0EE94A6
:104F6000074058EF24FFFFEE34FFFEEF54037005B7
:104F70001290A17013900FA8E024FFFF900FA7E0FC
:104F800034FFFE12905C700A900FA3129033246ECF
:104F90008008900FA3129033246DFFEE3401FEE4DD
:104FA0003DFDE43CFC900FA31222CC900FA8E0241E
:104FB000FFF0900FA7E034FFF080981290AAE4A3CE
:104FC000F0900FA91290DB400302506EEF64017065
:104FD00020900FA71290C470051290A17008900F36
:104FE000A7129057700B900FAAE4F0A3741DF080E5
:104FF00011900FA9E090F76393FF900FAAE4F0A33C
:10500000EFF090012FE0FF12CE3EEF14FF900FA9BA
:10501000E0FEEFD39E4025900FA3129048900FAA78
:10502000E0FEA3E0FFE4FCFDEB2FFFEA3EFEED39DE
:10503000FDEC38FC900FA31222CC8029900FA31214
:10504000904890012DE0FF12CE3E900FA312907970
:10505000900FA3129033C39401FFEE9400900FA31E
:1050600012906D8009900FA9E004F0024FC1900FDB
:1050700099E0FF12CE3E7E007C007D3C12233BC0B7
:1050800004C005C006C007A3E0FF12CE3E7E007C30
:105090000E7D1012233BD003D002D001D000EF2BA5
:1050A000FBEE3AFAED39F9EC38F8900F98E0FF1280
:1050B000CE3E900F9F129079900F9F129048C000A3
:1050C000C001C002C0037F807E517D017C00A3121D
:1050D0009048122136D003D002D001D000EB2FFF30
:1050E000EA3EFEE93DFDE83CFC900F9F1222CC9089
:1050F0000F9F129033FF22EF707012AD6664017043
:105100000B12AD144404F09000F3804FED64034C97
:10511000700912AD14F09000F2804012AD66640286
:10512000700B12AD144402F09000F4802EED640474
:105130004C700912AD14F09000F2801F12AD66643D
:1051400005700912AD14F09000F2800FED64064C6A
:10515000701112AD144402F09000F4E012AD09F0A9
:105160000252469000F1E0640922EFFD7C006402E7
:10517000701212AD14F0900459A3E012AD0944204E
:10518000F0025246ED64034C701212AD14F090041C
:1051900073A3E012AD094430F0025246EFFD7C00EB
:1051A0006404700912AD014440F0025246ED6405FA
:1051B0004C700912AD014450F0025246EFFD7C00E4
:1051C0006406701212AD144402F0900463E012AD54
:1051D000094460F08070ED64074C701212AD144405
:1051E00002F090047BE012AD094470F08058EFFDAE
:1051F0007C006408700D12AD14440212AD074480A7
:10520000F08043ED64094C701212AD144404F09028
:1052100000FFE012AD094490F0802BEFFD7C0064AC
:105220000A701212AD144404F0900175E012AD0939
:1052300044A0F08011ED640B4C707512AD14440461
:1052400012AD0744B0F078987C0F7D017B017A01A4
:10525000792A7E007F07121E9E124F3C90044C124A
:1052600022CC90F771E493900449F090F772E493A4
:1052700090044AF0900443E0FEA3E0FF12C64D12F2
:10528000AD57C3900444E09F900443E09E500DA3AB
:10529000E004F07006900443E004F02290044BE038
:1052A000FF5401F45401FEEF54FE4EF0E412AD75CC
:1052B00022900FA1EFF09014E5E0C3940374809462
:1052C000804048E4F09013C8E07035900FA2F09051
:1052D0000FA2E0C395105028E0FF75F002A424A4AB
:1052E000F582E5F03413F583E0FCA3E0FDEF25E063
:1052F0002424F8A60408A605900FA2E004F080CFAD
:1053000012B1E3C215E49013C8F0229014DFE00458
:10531000F0900FA1E0FF9014DFE0B5070812C3D0B2
:10532000E49014E0F0900FA1E0FF9014DFE0D39F31
:105330005003025463E4900FA2F0900FA2E0C395D3
:1053400010400302540FE0FF75F002A424A4F5827C
:10535000E5F03413F583E0FCA3E0FD75F002EFA463
:10536000240AF582E5F03413F583E0FEA3E0C39D43
:10537000FFEE9CAD07FC9013C8E070429013A3E0D1
:10538000FB3395E0FAFEEB7802C333CE33CED8F987
:10539000FFD3ED9FEE6480F8EC6480984060E49B5E
:1053A000FFE49AFEEF7802C333CE33CED8F9FFC3C1
:1053B000ED9FEE6480F8EC64809850428051901329
:1053C000A3E0FB3395E0FAFEEB7803C333CE33CE94
:1053D000D8F9FFD3ED9FEE6480F8EC648098401E0E
:1053E000E49BFFE49AFEEF7803C333CE33CED8F9C3
:1053F000FFC3ED9FEE6480F8EC6480984011900F3D
:10540000A2E0FF125955900FA2E004F002533A9027
:105410000FA2E0B510069014E0E004F0900FA1E0B8
:10542000FD75F008A4FF9014DFE0C39FE5F06480F1
:10543000F8748098402DE4F0C2149014E5E004F074
:10544000ED75F004A4FF9014E0E0C39FE5F06480E4
:10545000F8748098400DE49014E5F012C67912B10A
:10546000E3C21522900F8EEEF0A3EFF012AD4F7055
:10547000087BFF7AF3790E804812AD4FFF6402601B
:105480000AEF64066005EF640970097BFF7AF3791F
:1054900014E4802D12AD4FFF6403601EEF640560BD
:1054A00019EF64076014EF640A600FEF6404600A88
:1054B000EF640B6005EF640870117BFF7AF3791AD3
:1054C000E4900FDCF07D18FF126720900F8EE0FA59
:1054D000A3E0FBE4900F9CF07D58FF1278B390049A
:1054E00054E0FCA3E0FDA3E0FEA3E0FF12614678D8
:1054F000907C0F7D017E007F07121E9E900F9612FA
:10550000AD2B7D1C1255F47BDB7D2C7F0212931A90
:10551000900F9512AD2B7D341255F47BDB7D447FCB
:105520000212931A900F9312AD2B7D4C7F021287BB
:105530006B900F9212AD2B7D1C1255FF7D2C7F04BA
:1055400012931A900F9112AD2B7D341255FF7D44AA
:105550007F0412931A900F9012AD2B7D4C7F041292
:10556000876B12AD46640270087BFF7AF2799580F2
:105570002912AD4670087BFF7AF27990801C12AD3B
:1055800046640170087BFF7AF2799A800D12AD466D
:10559000640470117BFF7AF37923900FDCF07D14A3
:1055A0007F061267207BFF7AF7796FE4900FB1F0E6
:1055B0007D507F0612768912AD4FFF6404600FEFB5
:1055C0006405600AEF640B6005EF640870127BFFEE
:1055D0007AF37920E4900FDCF07D5C7F060267208F
:1055E000900458E0FB7A00E4900F9CF07D5C7F060D
:1055F0001278B3227F0212876BE4900F9AF0227F19
:105600000412876BE4900F9AF07BD222F9121EDD10
:10561000FF900F88E0FBA3E0FAA3E0F922EFFD7C06
:1056200000E92DF9EC3AFA900F8CE0FCA3E029F99F
:10563000EA3CFA121EC4FEEFC313FD900F8BE07517
:10564000F008A4247EF582E43404F583E58222EF99
:1056500075F008A42484F582E43404F58374FFF023
:10566000EF75F008A4247DF582E43404F583227AF2
:105670000F79897B019011B5E4F0A304F0227B013E
:105680007A04797DE4F0A322EF75F008A42484F570
:1056900082E43404F583222EF582E43583F58322F7
:1056A000E4901496F07404901495F090045E227DBA
:1056B0000AE0FEA3E0FF7C00021F83E0FF9014924B
:1056C000E075F008A4900000FEE02EFDE4900F9A33
:1056D000F022740190046BF0A37440F0227B0190DF
:1056E0000FA4E4F0A304F022EEC3940A7480948023
:1056F00022EBF0A3EAF0A3E9F022EEC39406748053
:10570000948022E4901496F07403901495F0900421
:105710005E22900F89E0FF3395E0FE22900F8CE02F
:10572000FAA3E0FB7C007D02FFAE02021FD8EFC3AC
:10573000940274809480227D017BFF7E00021E9E75
:10574000E0FDC4540F75F00AA422E0D394007480E5
:10575000948022900F8BE0FBA3E0FAA3E022900458
:105760006B04F0A37440F090045EE022EFF07E0042
:10577000C394097480948022EC04FF12CBB2EF33FF
:1057800095E04F22901493E0FF901492E09F227BCB
:10579000017A05796B22F0A374E0F07FC17E0322C9
:1057A0002FF582E5833EF583E0227B01E4900FB183
:1057B000F07D14229000FBE070599000D2E0701E42
:1057C0009000D5E070181289DB74071289397F3E8A
:1057D00012594E7AF279E71289717D0E803090006D
:1057E000D3E01289699000FB50177401F0E4901423
:1057F00094F07F6412594E7AF279D8128971FD8043
:105800000D1289347F5812CE4D12593F7D247F03EB
:105810001267209000FBE06401702C12CB209000F6
:10582000FFEFF09000FB7407F09000FD7401F0A30F
:105830007440F07F7012CE4D12CE2F7AF279DE12C4
:1058400089A67D2802590A9000FBE06407703F7B1F
:10585000017A01790012AE6DEF3395E0FEBEFF09CB
:10586000BFFF069000FB7403F01289424003025907
:105870003E1289DB74011289397D347F4412CDB424
:1058800012CE2F7AF279CE1289A67D24807C9000E8
:10589000FBE0640370797B017A01790012B37AEF3F
:1058A00070549000FFE0FD12B9A8EF3395E0FEEFD1
:1058B000F47002EEF49000FB70267404F09000FD8A
:1058C00012893B7D327F4412CDB412CE2F7AF27909
:1058D000C91289EE7F031267209000D3E004F02202
:1058E0001289347F5812CE4D7F647E0012D0181278
:1058F000593F7D2480141289DB1289397D547F56EB
:1059000012CDB47AF279E21289EE7F030267209019
:1059100000FBE06404700D128942502212CFBA7F5E
:10592000090250F79000FBE0640570129000FD74CE
:10593000FFF5F012202412894C500312CFBA221224
:10594000CE2F7BFF7AF279EFE4900FDCF02212CEBB
:105950004D12CE2F22900FA3EFF0F9E0FF75F00269
:10596000A424A4F582E5F03413F583E0FCA3E0FD64
:1059700075F002EFA4240AF582E5F03413F583E014
:10598000FEA3E0C39DFFEE9C900FA4F0A3EFF0AF49
:105990000112CF6DAD07AC06900FA4E0FEA3E0FFAF
:1059A000D39DEC6480F8EE6480985014C3E49DFBB2
:1059B000E49CFAC3EF9BEA6480F8EE648098502F71
:1059C000900FA3E0FF75F002A4240AF582E5F034FD
:1059D00013F583E0FCA3E0FD75F002EFA424A4F529
:1059E00082E5F03413F583ECF0A3EDF0025AC8EC35
:1059F000A2E713FEED13FF900FA4E0FAA3E0FBD3A0
:105A00009FEE6480F8EA648098501CECA2E713FED5
:105A1000ED13FFC3E49FFFE49EFEC3EB9FEE6480A3
:105A2000F8EA648098503E900FA3E0FD75F002A460
:105A300024A4F582E5F03413F583E0FAA3E0FBEA51
:105A4000C313FEEB13FFC3EB9FFBEA9EFA75F00254
:105A5000EDA4240AF582E5F03413F583E0C313FEC8
:105A6000A3E0138047900FA3E0FD75F002A424A4E7
:105A7000F582E5F03413F583E0FAA3E0FBAE02789B
:105A800003CEC313CE13D8F9FFC3EB9FFBEA9EFAF4
:105A900075F002EDA4240AF582E5F03413F583E0F5
:105AA000FEA3E07803CEC313CE13D8F92BFFEA3E52
:105AB000FE900FA3E075F002A424A4F582E5F03473
:105AC00013F583EEF0A3EFF0900FA3E0FF75F00263
:105AD000A424A4F582E5F03413F583E0FCA3E0FDF3
:105AE00075F002EFA4240AF582E5F03413F583EC97
:105AF000F0A3EDF02290100F122D70E4122D5BFF39
:105B0000FE122FC8A3EFF07F007E00122FC87E0385
:105B10007FE8122E5CA3EFF07C037DE87F007E001F
:105B2000121F837E007F64122E5CA3EFF07F007E45
:105B300000122E51A3EFF07C007D0A7F007E001240
:105B40001F83AC05E4A3F090100F122D464A4B7052
:105B500002FF2290100F122D461230E1FFE5F033C4
:105B6000FE74BB2FF582740A3EF583E0FFA3E0903C
:105B70001012CFF0A3EFF0A37401F0901014E0FF27
:105B8000D39406748094805033A3E0FEEF6E6024BB
:105B9000A3E0FF901014E0FE6F6019901017E0FF73
:105BA000EE6F6010A3E0FFEE6F6009EE6C6005A37E
:105BB000EEF08008901014E004F080BF90100F12F7
:105BC0002D46F9900001121EDD901015122EDA12EA
:105BD0002D46F9900001EF121F4F900002121EDDBA
:105BE000901016122EDA122D46122F5DFF9010170C
:105BF000122EDB122D46F9900003EF121F4F1230C8
:105C0000EBFF901018122EDB122D46F9900004EFD6
:105C1000121F4F900005121EDDFFAD04122EDD1283
:105C20002D46122F6BFF901019122EDB122D46F904
:105C3000900006EF121F4F123074FFAE04AD061233
:105C40002F8D122D46F9900007EF121F4F9000087C
:105C5000121EDD901018122F8A122D461230069057
:105C60001017122F8A122D46F9900009EF122F54A7
:105C7000B4021F90100F122D46F990000A121EDD7B
:105C8000FF901016122F8B122D46F990000AEF127A
:105C90001F4F7F01227AF179A01224B07D1CFF12E0
:105CA00067207AF179A51228487D187F031276893A
:105CB00090040F1225B07D287F0312876B90040E8D
:105CC0001225B07D407F0312876B90040C1225B023
:105CD0007D587F0312876B7AF179B01228487D18BE
:105CE0007F0612768990040B1225B07D187F06126C
:105CF000876B90040A1225B07D307F0612876B9067
:105D000004091225B07D487F0612876B90148EE03F
:105D1000700F12257F700A90040F1224517D288085
:105D20007490148EE06401701012257F700B900443
:105D30000FE01224537D30805C90148EE06402707A
:105D40000F12257F700A90040E1224517D40804569
:105D500090148EE06403701012257F700B90040E77
:105D6000E01224537D48802D90148EE06404700F5F
:105D700012257F700A90040C1224517D58801690D1
:105D8000148EE06405701312257F700E90040CE0F1
:105D90001224537D607F03025E3190148EE064060E
:105DA000701112257F700C90040B1224517D187F06
:105DB00006807E90148EE06407701212257F700DAD
:105DC00090040BE01224537D207F06806490148E93
:105DD000E06408701112257F700C90040A1224519F
:105DE0007D307F06804B90148EE06409701212257E
:105DF0007F700D90040AE01224537D387F068031B5
:105E000090148EE0640A701112257F700C900409C2
:105E10001224517D487F06801890148EE0640B7028
:105E20001312257F700E900409E01224537D507FD9
:105E30000612972722900F9F12A13278A67C0F7D21
:105E4000017BFF7AEF79037E027F00121E9E12A172
:105E50004E9011ACF0A3F0900F9FE0FFA3E09011E3
:105E6000AECFF0A3EFF09011ACE0FEA3E0FF900FF7
:105E7000A4E0FCA3E0FDD39FEC9E40EA9011AEE0CD
:105E80005401FEA3E0FF9011A8EEF0A3EFF09011F3
:105E9000ADE02400FB9011ACE03402CBC39FFFEBDC
:105EA0009EFED3ED9FEC9E407412A1564E600612EA
:105EB000A0EE125FB612A14112A156C3E49FFF7477
:105EC0000212A169501E12A10A70069011AAE004E4
:105ED000F012A15F9011A7E004F070069011A6E007
:105EE00004F080D4125F889011B512A0FD12BFFF9C
:105EF00012A156C3E49FFF74029EFE9011ADE02FE5
:105F0000F09011ACE03EF09011AFE02FF09011AEA8
:105F1000E03EF07F057E0012CA62025E6612A15664
:105F2000C312A0EE125FB612A1419011ACE0FEA325
:105F3000E0FFC3900FA5E09FFF900FA4E012A169BE
:105F4000501E12A10A70069011AAE004F012A15F7F
