:0300000002A195C5
:03000B0002C289A5
:0300130002C740E1
:03001B0002B9C265
:0300230002D118EF
:0300330002D330C5
:0300430002D136B1
:03004B0002D36578
:03005B0002C5B229
:0300630002D32A9B
:03006B0002C627A3
:03007B0002CDF7BC
:0300830002BBCCF1
:03008B0002B5DAE1
:1001000090048BE06003020B461236D49013E6EFA6
:10011000F0F4600312CBB99004C5E0123258017CB0
:100120000002580102D70203330503670602A4093F
:1001300003A30A04360B04440C04520D047C0E0481
:100140008A0F04971104B11204BE1304E814050BBE
:1001500015051E16054817082419097E1A08511B93
:10016000088B1D0A4424089E250A5A260B222809BA
:10017000DF2908FA2A09C62B00000B469013E6E097
:10018000FF640D6011EF641B700C9004C57419F0CE
:100190009004797403F0900496E0FF640760030212
:1001A0000226120F6F5033EF64076003020B469074
:1001B000140A04F07410120E181215541214DD50A3
:1001C0000E74F92E120F8B901040E004F080ED9029
:1001D00004967408F07F0102D35F120E8770217FAE
:1001E0000112D35F90019D120FD3BEFF06BFFF0324
:1001F000E4F022E490048EF0A3F090049304F02243
:100200001214EA6003020B4690019D120CA87013B1
:100210007F0112D35F9004C5741DF0E49004551261
:1002200015862202CBFC9013E6E0FFF47003020B6C
:1002300046EF640C7003020B46121587900496E09B
:1002400064096003020B467F0112D35F900498E4B7
:10025000F0A374F0F0020896121174700302047691
:1002600012112470030205421214F170030204E219
:100270009013E6E06404700302084B9013E6E06418
:10028000057003020B40120E876003020B46120C2E
:1002900041120F007F6012D19E7F647E0012D359FD
:1002A000E40209DA121174700F120B479004C5743E
:1002B00026F0E490046FF022121124700F120B4705
:1002C0009004C57428F0E4900452F022120E876066
:1002D00003020B460204309013E6E0FF6401600A5B
:1002E000EF64026005EF64037004E4120C41121124
:1002F00074700F120B54E49004C3F09004C5740E94
:10030000F022121124700F120B54E49004C3F090E9
:1003100004C5740BF0221214F1700D120B6112154A
:100320007F9004C5740DF022120E876003020B4605
:10033000020430121174700F120B619004C5741115
:10034000F0E490016FF0221211247010120B6E90E5
:1003500004C57413F090047D740AF022120E8760B5
:1003600003020B460204301211747009120B6E1254
:10037000141604F0221211247009120B7B121416A9
:10038000020B371214F17010120B7B9004C5741617
:10039000F0900607740FF022120E876003020B46DE
:1003A0000204301211747010120B889004C5741777
:1003B000F01291BE120D8A22121124700A120B88BB
:1003C0009004C5741B800D1214F1700C120B9590E3
:1003D00004C5742AF0E4802E9013E6E064047010E3
:1003E000120B959004C57425F0E4900593F08016E7
:1003F0009013E6E064057014120BA29004C5741A01
:10040000F0E49005E1F012104E02083F9013E6E090
:1004100064067014120BA29004C57419F0E49004E1
:1004200079F012104E020B37120E876003020B4652
:10043000120BAF02D1C69004C3E064016003020B4B
:10044000460205169004DBE064016003020B4602DD
:100450000516900604E064086003020B461213D8E8
:10046000700B900605F09006047409F022EF640A00
:100470004E6003020B46120BAF02D1D39004C3E0CF
:1004800064016003020B460205169004DBE0640180
:100490006003020B46807F90016FE064017008905A
:1004A00013E6E0FF12AB30120E876003020B4680AA
:1004B000319001E1E064016003020B468058900432
:1004C0007DE0640B6003020B461213D8700B90049E
:1004D0007EF090047D740CF022EF640A4E600302FB
:1004E0000B46120BBC02D26C9004C6E06401700291
:1004F00080249004C6E0640370030208969004C64A
:10050000E064046003020B460208969004DDE06498
:10051000016003020B469013E6E0FF02AB30900649
:1005200007E064106003020B461213D8700B9006AC
:1005300008F09006077411F022EF640A4E6003027F
:100540000B46120BBC02D1E09013E7E0701C120EB8
:100550008E4008EF64096003020798120BF09013B5
:10056000EF1212287401F00207989013E7E064017B
:10057000702D120E877003020773120E8E4008EF63
:10058000640960030207987F0112D35F9013EF1292
:10059000112B9013EFF09013E77402F0020798907C
:1005A00013E7E06402701B9013E6E0120FC84003EB
:1005B000020798120BF09013EE1212287403F00247
:1005C00007989013E7E064037041120E87700302EE
:1005D0000773120E8E4008EF640960030207987FCC
:1005E0000112D35F9013EE12112B9013EEF0D394FF
:1005F000127480948040037412F09013EEE0700245
:1006000004F09013E77404F00207989013E7E06495
:10061000047022120E8770030207739013E6120D06
:10062000E94003020798120C0B9013EC1212287485
:1006300005F00207989013E7E064057041120E87F9
:100640007003020773120E8E4008EF640960030204
:1006500007987F0112D35F9013EC12112B9013ECCB
:10066000F0D394317480948040037431F09013EC93
:10067000E0700204F09013E77406F00207989013FC
:10068000E7E064067022120E87700302077390136E
:10069000E6120DC64003020798120C0B9013EB12E2
:1006A00012287407F00207989013E7E06407703986
:1006B000120E877003020773120E8E4008EF640952
:1006C00060030207987F0112D35F9013EB12112B86
:1006D0009013EBF0D394237480948040037423F040
:1006E0009013E77408F00207989013E7E06408702D
:1006F0001E120E877002807B1212B9400302079807
:10070000120C339013EA1212287409F00207989021
:1007100013E7E064097028120E8770028055120EEC
:100720008E4005EF640970707F0112D35F9013EA69
:1007300012112B9013EAF09013E7740AF08059908D
:1007400013E7E0640A701F120E87700280251212F0
:10075000B95045120C339013E9E0548F2FF09013E9
:10076000E7740BF080329013E7E0640B702A120EEE
:100770008770077F0112D35F8019120E8E4005EF3C
:10078000640970147F0112D35F9013E912112B904A
:1007900013E9F0E49013E7F01214EA706D9013EF90
:1007A000E0FF9013EEE0FD9013ECE0FB12ADC3EF21
:1007B0003395E04F600302097B7F0112D35F9013F2
:1007C000EFE09001A4F09013EEE09001A3F09013FD
:1007D000ECE09001A1F09013EDE09001A2F09013F5
:1007E000EBE09001A0F09013EAE090019FF09013ED
:1007F000E9E090019EF012BF037F647E0012D3599E
:100800007D327F4412D0F702097B120E876003020B
:100810000B46120BC912D1ED1291BE120D8AE49053
:1008200013E7F022900479E064016003020B4612A2
:1008300014EA700F120BC9E490047AF090047974F2
:1008400003F022120E876003020B46120BD6020938
:100850007B12117470127AF4794C120BE3E490015C
:10086000EBF012C0AC02097B12112470107AF479FB
:100870004F120BE312144A12C0AC02097B120E870E
:100880006003020B46120BD602097B900455E0640C
:10089000016003020B469013E6E0FF020A41900557
:1008A00093E064016003020B461211747013900010
:1008B000F8F09005937402F07BFF7AF479760209E0
:1008C0009812112470239000F804F090059304F01E
:1008D00012142570087F7A12D19E020A537BFF7A88
:1008E000F4797912BF91020A53120E876003020B4A
:1008F00046120BFE900593020B371211747037905D
:1009000000F9120FD3BEFF25BFFF22E4F012C96821
:10091000121073900485E4F0A37412F0E490048341
:10092000F0A3F0900487F0A3F0041215B47AF479E0
:1009300064120C19804512112470359000F9120CC4
:10094000A8702474FFF0E4900481F0A3F090048573
:10095000F0A3F012C96812124B7408F090048B7463
:1009600002F0E490048AF07AF47967120C19800B93
:10097000120E876003020B46120BFE02D1ED9005AA
:10098000E1E064016003020B4612117470109005DF
:10099000E21216567AF4798B12BF91020A531211A1
:1009A0002470129005E274FF1216567AF4798E12B2
:1009B000BF91020A53120E876003020B46120C26E7
:1009C0009005E1020B379013E6E0FF640B6008EF3F
:1009D000640A6003020B46120F009004C5F02290D7
:1009E0000496E0FF6407703B120F6F5032EF64070C
:1009F0006003020B4690140A04F09014097410125C
:100A00000E1B1215541214DD500E74F92E120F8B9A
:100A1000901040E004F080ED9004967408F02212EB
:100A20000E87229013E6E0FFF47003020B46900459
:100A300096E064096003020B46900498F0A374F0FA
:100A4000F002A6DC9013E6E0F47003020B467F3060
:100A500012D19E7F647E0002D35990046FE064023D
:100A60006003020B461211247049D390046CE09489
:100A70000090046BE094005003020B167F0112D328
:100A80005F90046CE024FFF090046BE034FFF0C34F
:100A90009004ADE094FF9004ACE09401500DA3E00D
:100AA00004F070069004ACE004F022E49004ACF092
:100AB000A3F0229013E6E0640870601212F7D3905E
:100AC000046AE09F900469E09E404B7F0112D35F6F
:100AD0009004AC1215A39400400DE024FFF09004A4
:100AE000ACE034FFF08020EF4E701C7FFF7E0112DF
:100AF000CD50EF3395E0FEBEFF0DBFFF0A9004AC72
:100B00007401F0A374FFF090046CE004F0700690A0
:100B1000046BE004F0227F0702C8DC120E87702607
:100B2000801E900452E06401701C1214EA700C7F65
:100B30000112D35F9004527402F022120E877006E5
:100B4000120C2612D207227F0112D35F7F647E002F
:100B500012D359227F0112D35F7F647E0012D359D2
:100B6000227F0112D35F7F647E0012D359227F015E
:100B700012D35F7F647E0012D359227F0112D35FAC
:100B80007F647E0012D359227F0112D35F7F647E7F
:100B90000012D359227F0112D35F7F647E0012D3EB
:100BA00059227F0112D35F7F647E0012D359227FC6
:100BB0000112D35F7F647E0012D359227F0112D3CA
:100BC0005F7F647E0012D359227F0112D35F7F645E
:100BD0007E0012D359227F0112D35F7F647E001200
:100BE000D359227BFF12BF917F647E0012D359221A
:100BF0007F0112D35F9013E6E0C454F0FF227F011F
:100C000012D35F7F647E0012D359227F0112D35F1B
:100C10009013E6E0C454F0FF227BFF12BF917F6483
:100C20007E0012D359227F0112D35F7F647E0012AF
:100C3000D359227F0112D35F9013E6E0C454F0FF32
:100C4000229001F3F07F0112B207227AF2796F7BD2
:100C5000FFE490109DF0227AF2797F7BFFE4901000
:100C60009DF022E0FF2445F582E43401F583E0FEA7
:100C7000901044E075F00EA424D5F582E43404F518
:100C800083E5822FF582E43583F583EEF0901045FD
:100C9000E004F0227AF279A57BFFE490109DF02227
:100CA000E49013F7F09005DDE0FF3395E0FEEF4EA2
:100CB00022F9122E20FF901046E0FBA3E0FAA3E0F9
:100CC000F9227AF279847BFFE490109DF022901053
:100CD00044E0FF75F00EA424D4F582E43404F583D7
:100CE000EFF0EF75F00EA424E1F582E43404F5830F
:100CF00074AAF022E090010AF07A0179097B019050
:100D0000105DE4F0A3227AF2799D7BFFE490109DC0
:100D1000F02290077074FFF5F0122F51FEC3E5F03A
:100D20009401EE9400229004C2E0FF14F0EFC3940B
:100D30000174809480227AF279BF7BFFE490109D49
:100D4000F0227A1079427B0190126EE4F0A3227BAC
:100D5000FF7AF2796AE490109DF0227AF579807B2F
:100D6000FFE490109DF022E49004C5F09004967486
:100D700007F0E49001F4F09005967407F0227AF2FF
:100D800079737BFFE490109DF0229001A4E0901312
:100D9000EFF09001A3E09013EEF09001A1E090132A
:100DA000ECF09001A2E09013EDF09001A0E0901320
:100DB000EBF090019FE09013EAF090019EE0901319
:100DC000E9F022901045E0C3940374809480227A65
:100DD000F579C07BFFE490109DF0227D017BFF7EC2
:100DE000007F07022DE1901045E0C39404748094C5
:100DF0008022EF75F00EA424E3F582E43404F58339
:100E0000E5822EF582E43583F5832274049004C6CE
:100E1000F0E490140AF0740C901409F090140B7420
:100E200001F0229000F7E0FF7E00D39400748094DC
:100E3000802235F0FA7BFFE025E0FFE490109DF082
:100E4000FD229013F5E0FFA3E0FEC39F229004C6AD
:100E50007413F07406A3F0A3E4F0A37480F022905E
:100E600004B2E054F1F0E49004B7F09004B2E0541E
:100E70000F22900477E0FEA3E0FF7C00022EC67BE9
:100E8000FFE490109DF0229013E6E0640A22901394
:100E9000E6E0FF7E00C3940974809480227D017B8C
:100EA000FF7E007F0C022DE1E0C4540FFB90106820
:100EB0007401F022740E9004DBF09004DA74802246
:100EC000901045E0C3940C74809480227BFFE490E2
:100ED000109DF0227418901093F0A374FFF0A322D9
:100EE000EF75F00EA424EFF582E43404F58374FF6B
:100EF000F0EF75F00EA424E2F582E43404F58322C9
:100F00009004967407F0900596F0E49001F4F022B6
:100F1000901044E075F00EA424D5F9740435F0FA6D
:100F20009010497401F0A3EAF0A3E9F0227BFFE4FA
:100F300090109DF022E004F0EFFB25E025E0240076
:100F4000F582E43400F583E4F0A3EBF025E025E03E
:100F50002402F582E43400F58322900590E06401D8
:100F6000227422F09004627401F0A37440F0229085
:100F700013E6E0FDC3940A74809480227D64E0FE51
:100F8000A3E0FF7C00022EC674F92FF582E434132F
:100F9000F58374FFF0227D017BFF7E007F06022D2A
:100FA000E1E0FBE4901093F022900604740AF090C4
:100FB00006067480F0E4900590F0227BFFE4901028
:100FC0009DF022901045E0FFC3940274809480222B
:100FD0009000EEE0FF3395E0FE22FF24FCF58274E2
:100FE000FF3EF583ECF0A3EDF074FE2FF58274FF65
:100FF0003EF5837401F074FF2FF58274FF3EF58394
:10100000227AF2795B7BFF90109DF0227BFFE490C7
:10101000109DF022EF75F006A424FBF582E5F03474
:1010200001F583227F0A7E00CFCDCFCECCCE122E0B
:10103000C6AB07E4901068F02212CCD9EF3395E0EC
:101040004F227D017BFF7E007F08022DE1E490139B
:10105000F6F09013F5229001F174FFF5F0122F5184
:10106000FCC3E5F09401EC940022E0C39464748026
:10107000948022900481EF2412FEE433F0A3CEF09A
:10108000227BFFE490109DF0229004B2E054F12204
:101090007AF279B87BFF90109DF0229004C3740C13
:1010A000F0900468E09004C4F09004C27480F022D0
:1010B0009013F6E004F0229013F8E064012290000F
:1010C000F2E0FB7A00E4901055F0229004D9E0247D
:1010D000FFFF9004D8E034FFFE22EF75F00EA42449
:1010E000EFF582E43404F583227BFFE490109DF059
:1010F00022F09000C8E4F0A3F0A3F0227D017BFF72
:101100007E00022DE17BFF90109DF07D2422F5836F
:10111000E0FE74FB2FF582E43400F583EEF09010CE
:1011200045E0FF229013E6E0640222E054F0FF90D5
:1011300013E6E02F229004C87402F0A37480F090AC
:1011400004D1E06401227C007D0AE0FEA3E0FF02FE
:101150002EC6901044E075F00EA424E3F582E4342A
:1011600004F583E5822290076BF0900770E4F0A30A
:101170007440F0229013E6E0640122E49000CCF089
:10118000A3742BF0A374F2227401F0EF25E025E0A4
:101190002403F582E43400F58322E0FDC4540F7586
:1011A000F00AA4FFED540F7C002FFFEC35F0CF24A4
:1011B000D0CF340722E4F074219004C5F09000F5FC
:1011C0002204F0E49013F4F07F6422FF24FCF58203
:1011D00074FF3EF58374FFF0A3F074FE2FF5827464
:1011E000FF3EF583E422EF75F006A424F6F582E5D0
:1011F000F03401F58322F012CDDD9000D3EFF01230
:10120000CFC59000D5EFF012CF319000D4EFF0228F
:101210009013F6C3E094057480948022F0A37401C7
:10122000F07BFF7AF4799922E0540F2FF09013E7C6
:1012300022F583E0FE74032FF582E4340122F58366
:10124000E0FE74202FF582E4340122EF2412FEE444
:1012500033900483F0A3CEF0900487E4F0A32290AF
:1012600001F47429F0A37426227D017BFF7E000225
:101270002DE19013F4E0FF7E00640222EF3395E04D
:10128000FEEFF4227B01E490106AF0229013F0E06C
:10129000FCA3E09004D8FDECF0A3EDF0229004C68E
:1012A0007413F0A3227BFFE490109DF02290047948
:1012B000F090047B7440F0E4229013E6E0C39406BF
:1012C0007480948022E0C394197480948022747C8A
:1012D0002EF582E43405F58322122E20FE75F006E9
:1012E000EFA422900151E0FF901044E06F2290049F
:1012F000BAE0C31354072290046CE090046B2401FD
:10130000FFE03400FE227E009004C0EEF0A3EFF078
:1013100024FFFFEE34FFFE22E004F09004C0E0FC66
:10132000A3E0FDAE04229004DB740EF0A3740CF075
:10133000E4229006047413F09005927426227B0137
:101340007A0179F67402F0A37458F07F207E0022AF
:10135000F0A37403F0A37480F07D347F4822EC0482
:10136000FF12CE42EF3395E04F22F583E0FE74FF8B
:101370002FF582E4340022F583E0FE741C2FF58201
:10138000E43401229004C87402F0A37480F0228F28
:1013900082758300022E2090105674FFF022E4F034
:1013A000A374C0F0227B017A1379F9229004967419
:1013B00007F0229000F8E06401229004DAE014F0D3
:1013C00022901040E004F0227BFFE490106AF022AB
:1013D0009004BAE0C4540F229013E6E0FF7E00644C
:1013E0000B22E0FDC4540F75F00AA4FCED540F2C41
:1013F0002275F006A424F0F582E5F03401F583228D
:10140000E0900127F07B017A017926229004C874CC
:10141000FFF5F0022F679004C57414F0E49004C641
:10142000F09004D12212C204EF3395E04F22E0FF86
:101430002440F582E43401F583E0FE22E0FF245DE0
:10144000F582E43401F583E0FE229001EB74FFF0B5
:101450002274EEF0A37448F0E4A3F07B1B22EFC3E8
:10146000943274809480227403F0E4900467F090C6
:1014700013F4F022900000F0A3F022E014F09004A6
:10148000D8E0FEA3E078022275F006A424F1F582EC
:10149000E5F0340122F583E0FE74182FF582E43480
:1014A00001229004C6F0E49013F42274F1F0A374C6
:1014B000CD2274F1F0A374ED229000DC7480F090E2
:1014C00004C5741FF0229000EDE4F0A3F0A3F02215
:1014D000900477E0FEA3E0FF7C037DE822901409EE
:1014E000E0FF901040E0FEC39F229013E6E0640B03
:1014F000229013E6E06403227B01E490109DF02229
:10150000E024FFF09000F5E034FFF0229001F4E0D9
:10151000FF7E0022900496E0FF7E00229004DB74A0
:1015200002F0E49005DEF022A424F5F582E5F03423
:1015300001F58322C3940874809480227BFFE49099
:10154000109DF0227B01E490106AF0229000F1E0FF
:10155000FD7C00229013F9EDF09010407401F02210
:101560009013F3E0FF9013F2E09F22900496F09026
:10157000049822901049E0FBA3E0FAA3E022F09047
:1015800006047411F022F090019D74FFF022900483
:10159000C57405F0227B017A06790C227BFF90103E
:1015A0009DF022E0FEA3E0FFD39400EE229004C55C
:1015B000F07F012290048BF0E4900489F022C39F15
:1015C000EE6480F87480982290140BE064022290FC
:1015D000140BE064032290016F7405F022E0FF24F5
:1015E00035F582E43401227B017A0079FB227B010C
:1015F0007A01790622E0FF243DF582E43401227B62
:10160000017A017918227B017A01792322E0FF24F3
:1016100062F582E4340122E0FF2452F582E43401D1
:1016200022E0FF245AF582E4340122740CF0A3E492
:10163000F0A304F0229004E1E0640122E490109D04
:10164000F07D1E7F03227B037D037F03227D017BD0
:10165000FF7E00022DE1F09005E17402F07BFF2295
:101660007B017A01797B22E490103FF090103EF0EC
:10167000224114B400421496000042149800004223
:10168000149A00004114950044149C00000000428C
:1016900014A00000C118C11950145E001122334477
:1016A0005566778899AABBCCDDEEFF44146E000026
:1016B0000000C11EC10BC108C109C10AC10FC10C84
:1016C000C10DC10EC110C111C112C1134C14761F3E
:1016D0001C1F1E1F1E1F1F1E1F1E1F421353000014
:1016E000C116C114C117C115C11FC1204114B500D5
:1016F000C12164000C380000000000000000000060
:1017000000000000000000000000000000000000D9
:1017100000000000000000000000000000000000C9
:1017200000000000000000000000000000000000B9
:1017300000000000000000000000000000000000A9
:101AF00000000000000046140EFFFFFFFFFFFF4242
:101B0000145B0000411443004414450000000041F0
:101B100014AF024114B0004114B100560772736C47
:101B20005F67656E657269635F76312E302E302E89
:101B30003030330063E80788013B01A400FE0069F0
:101B40000201019A01C201A9019F015E020B007D01
:101B500000D2008F008600C9013A00FA006600D664
:101B600001C30087008201B3006800990191013030
:101B700001C400EA00CC01A5012D008C0084019570
:101B800001450208013101AE016000F1019D00FD37
:101B9000012E0091007800F0019C021401F500FB79
:101BA0000144019201410159013601F700E700D5D6
:101BB00001F6015F021F008E0162020C00EB0216AB
:101BC000013801FE00CB0154009A020200D700F355
:101BD000021E021200960200021C01C500E6021D50
:101BE000007C01F8019301550209015601B001AFD3
:101BF000006700CD01A70213007B00F501400098AB
:101C000000CE0234028D01A00278008C020902800D
:101C1000020800F5027A00A4007E01A4025B00E63F
:101C2000007C006601FA01F50200026200880212DF
:101C3000006A01CF020100EB020B009A014600820C
:101C40000140025D009101AA0136013B01CD015521
:101C50000108020C028101F800960193020E019521
:101C6000023301F600FD01B0019601A5028A016C64
:101C7000023101B40109008601AE0068012D01B3F3
:101C800001AF00F30271021E008E009C0267010585
:101C900000A000F00132027000A20266028E00CDA8
:101CA000008F0276026F00D6021D028301FE00A59E
:101CB000014402300098019C021400D5016400D256
:101CC000028501F7025A00FB020B022301FE0164A8
:101CD00000AF0108013C00D6028202C000CF008C98
:101CE00001C4016000FD020E01C50202025B016F2A
:101CF00002F002DB013302A101D7014600A502FC7C
:101D0000006A02C902F801C2019D006900F3020FD6
:101D1000027701DB0278027A02DC025D019101A701
:101D200002E50240007E0132015E00A2026902D596
:101D300000A001F700F6010100A300E700C9028A34
:101D400001D30285019C0214015601590201009C35
:101D500000D202FD006B01000197019302080165AA
:101D6000029E01B5010F013800F7023100EB023489
:101D7000009D02F202A201CF02D3014000AA00D7C7
:101D800001D8016C02E4019201730237016D011266
:101D900002E701F70277027401A0011E030F00F7AA
:101DA00002A0016C017C026401D402C800A2015AA5
:101DB00002A8035902A3032700ED013C0169008E2C
:101DC000026502E0009E03450288015F01AE0160EA
:101DD00002DE00800164021F010E032F01A40339FB
:101DE000033102CE02BE019F034902A601AC02707C
:101DF000025B00AA0209006A0195036901340259D5
:101E000002BD020E02CC02EE009A0204034E00A4B0
:101E100001070269017001E7019D02380092036C1D
:101E200001B00231031201D8023001A101AF01FE5D
:101E300002E901FB007D032601E2017A034F027DE6
:101E400002FD02C20100034D01DC023A01410146DC
:101E5000020100EE02EA02FB00AE00C000D203BDA8
:101E600002D0035B00B202F603BE0069015A0233DE
:101E700001A30252037C024500D001120317015C4A
:101E80000208017302DF025903B7009E02F000CF7F
:101E90000339032F035C018E03D402BF0348016999
:101EA000027400D601B400F800DA034B023B019C37
:101EB000038A009F03C202C900C9028703CA00E661
:101EC0000349033F037E01DE03860181024400A72C
:101ED00000BE024F036A029300BD02A302FC00BAD7
:101EE0000167016D009401A403AC01E2024E018080
:101EF00002E002F2036703C8017203B101B303A455
:101F0000019A02070366018801D5013602B60187EE
:101F10000182013A03D7038C01780322012903913E
:101F200060C80B70BB2B32FEA12B47C19CF2953FC2
:101F30006426B6E1B40376D3C72A2A908F6029437A
:101F4000484A6DA1C4A6525E4C5177EACF7590B64F
:101F500078846BACCAFFB919C5B4BBBBA0157C10A3
:101F6000C3F2DE45B6D5A455A7DAE71FCC5D6D4CAC
:101F7000395A7C24CBD7D23BDC083A804C5BDF5EFD
:101F80003F9890D97DC58D1D34E4549B30B4BF3744
:101F90009D562A4D3A3BD68973BE44E2283A909A20
:101FA000A8FB5E5D7FFD4FE56D6F7BC46EB988CA8F
:101FB000BC30CB49BB319FD5D623378064BD8794D5
:101FC000A74138E39B42518AE3344D167E9128FFA6
:101FD000BCF7BC2F92E2555EBD0D6BACE350A192F5
:101FE000DAD85C98393A65C0B8CD6FCB4113E6FFBB
:101FF00041135100C104C102C107C103C100C101A5
:10200000C105015500411292004212CF0000411457
:10201000920000901053EFF0E490105BF09010539A
:10202000E0FF25E02425F8E6FC08E6FD75F002EF68
:10203000A42493F582E5F03412F583E0FEA3E0C317
:102040009DFFEE9C901054F0A3EFF0E47F01FEFDA5
:10205000FC901053E0F9F81231C78F0F8E0E8D0DE2
:102060008C0CAF0112D317901059EEF0A3EFF0C310
:10207000901055E09FEE6480F8901054E0648098D2
:1020800040089010567401F08005E4901056F090CE
:102090001056E06401600302228F901053E0FF2489
:1020A000ABF582E43412F583E0C394FA7480948033
:1020B000500D74AB2FF582E43412F583E004F0E5A3
:1020C0000B550FFFE50A550EFEE509550DFDE50818
:1020D000550CFCE4FBFAF9F8C31231A360030222A9
:1020E00055901276E0901058F012D368EF6047E4F4
:1020F000901056F0A3F0901057E0FFC395105022B7
:1021000074AB2FF582E43412F583E0C3940174803C
:1021100094804006901056E004F0901057E004F0D0
:1021200080D4901056E0C39403748094804007904C
:102130001058E0240FF0901053E024ABF582E43403
:1021400012F583E0FF901058E0FEEFC39E500302AB
:102150002255E4901056F012D2CFEF60030221E234
:10216000901057F0901057E0FFC39510502C90102E
:1021700053E06F601D12D276901057E024ABF582C9
:10218000E43412F583E0C39F40089010567401F0C8
:102190008008901057E004F080CA12D368EF33959E
:1021A000E04F6003022233901056E06003022233B6
:1021B000A3F0901057E0FFC395105077901053E0B4
:1021C0006F601712D276901057E024B7F582E4348E
:1021D00012F583E0C39F40028053901057E004F053
:1021E00080D012D368EF3395E04F7047901058F0CD
:1021F000901057F0901057E0FFC39510502274AB29
:102200002FF582E43412F583E0C394027480948045
:102210004006901058E004F0901057E004F080D48D
:10222000901058E0C3940374809480400690105638
:102230007401F0901056E064017002D21AE50B456B
:102240000FF50BE50A450EF50AE509450DF509E51B
:1022500008450CF508901053E0FF24E9F582E434BA
:1022600012F583E4F074452FF582E43413F583E42A
:10227000F075F002EFA424D1F582E5F03412F58375
:10228000E4F0A3F0747A2FF582E4341202261E9053
:102290001053E0FF12CFDA901054E0FCA3E0FDD31E
:1022A0009FEE6480F8EC6480984012901053E02414
:1022B000B7F582E43412F583E004F08015901494AD
:1022C000E004F0901053E024B7F582E43412F58373
:1022D000E4F090132CE0FF3395E0FEC3E49FFBE4B1
:1022E0009EFAC3ED9BEA6480F8EC64809850030288
:1022F00023E7D3901055E09FEE6480F8901054E0EF
:1023000064809840030223E7901053E0FF24E9F52E
:1023100082E43412F583E4F0747A2FF582E4341207
:10232000F583E4F0FFFEFDFCAB0BAA0AA909A8089F
:10233000C31231A36003022523901054E0FEA3E0F2
:10234000FF901053E075F002A424D1F582E5F0343B
:1023500012F583EE8FF0122F5112D257901053E0E6
:1023600075F002A424D1F582E5F03412F583E0FC87
:10237000A3E0C39FEE6480F8EC6480984013901053
:1023800053E0FF25E02425F80806E6187043068090
:102390004012D257C3E49FFFE49EFE901053E075B5
:1023A000F002A424D1F582E5F03412F583E0FCA319
:1023B000E0C39FEE6480F8EC64809840030225231C
:1023C000901053E0FF25E02425F808E61618700168
:1023D0001675F002EFA424D1F582E5F03412F583EE
:1023E000E4F0A3F002252390132CE0FF3395E0FEE8
:1023F000C3E49FFFE49EFEC3901055E09FEE64800F
:10240000F8901054E064809840030224999010538F
:10241000E0FF24E9F582E43412F583E004F0747AF5
:102420002FF582E43412F583E4F074E92FF582E4A9
:102430003412F583E0FF75F00A84E5F07046C3EFCF
:10244000946474809480901053E0401424E9F582E1
:10245000E43412F583E4F0D21B90135104F080248D
:1024600025E02425F8C000E6FE08E6FF90132CE0E6
:10247000A2E713FD3395E0FCC3EF9DFFEE9CD00077
:10248000F608A607901053E0FF90148DE06F6003EC
:1024900002252374FFF002252390132CE0FF3395CF
:1024A000E0FED3901055E09FEE6480F8901054E069
:1024B000648098406E901053E024E9F582E4341271
:1024C000F583E4F0FFFEFDFCAB0BAA0AA909A808FE
:1024D000C31231A3704D901053E0FF247AF582E4CB
:1024E0003412F583E004F0747A2FF582E43412F5A7
:1024F00083E06420702D901053E0FF247AF582E48D
:102500003412F583E4F090132CE0A2E713A2E71352
:10251000FD3395E0FCEF25E02425F808ED26F618BC
:10252000EC36F6E50B550FFFE50A550EFEE50955AD
:102530000DFDE508550C4D4E4F70030226349010EA
:1025400059E0FCA3E0FDAE047802CEA2E713CE135F
:10255000D8F8FFC3ED9FFFEC9EFEC3901055E09F9F
:10256000EE6480F8901054E06480984003022623C3
:10257000901053E02445F582E43413F583E004F031
:1025800012D2D7901058EFF0E4901057F0901057F7
:10259000E0FFC39510502274AB2FF582E43412F59E
:1025A00083E0C39401748094804006901056E00448
:1025B000F0901057E004F080D4901056E0C39403DC
:1025C000748094804008901276E0901058F090103B
:1025D00053E0FB2445F582E43413F583E0FF9010CB
:1025E00058E0FEEFC39E50030226A374452BF582EC
:1025F000E43413F583E4F0AF0FAE0EAD0DAC0C1266
:102600003196E50B5FF50BE50A5EF50AE5095DF528
:1026100009E5085CF50874AB2BF582E43412F58308
:10262000E4F022901053E02445F582E43413F5835E
:10263000E014F022901053E024ABF582E43412F55C
:1026400083E4F0FFFEFDFCAB0BAA0AA909A808C3AE
:102650001231A37008901053E0FF12A059E5101436
:10266000FF901053E06F703B901494E0C3951040BE
:1026700032E4901057F0901057E0FFC39510501BB4
:1026800074AB2FF582E43412F583E06006901056A7
:102690007401F0901057E004F080DB901056E07069
:1026A00002C21A22901041EB120F25A3EDF0E4A311
:1026B000F0120EC05015901041120CB9901045E068
:1026C000FFF582121391120C6F80E67B017A01797B
:1026D00045120D48740CF07F73122CF47A01796264
:1026E000120D48740CF07F85122CF47A0179511286
:1026F0000D4804F07F807E0312BE747B017A01795D
:102700006E120D4804F07F927E0312BE74120F10F9
:102710007A017945122CFC60030228971212E360BB
:10272000030227D5A3F0120EC05005120C6380F6E9
:10273000120CCE12D0657B017A017935120D481248
:102740002C607A017939120D48122C00120DE650D6
:10275000151215DD12110E2439F582E4340112131D
:102760006A120C8980E61215E7120CFF122BF37A1D
:102770000079FF120CFF122C2C7A017940120D48BF
:10278000122BE4120DC3501012142E74062FF58272
:10279000E43401120C8980EB1215EE120CFF122C9E
:1027A0006D7A017943120D48122CC7900109F090FF
:1027B0000144120CF4122C397A01793D120D4812A1
:1027C0002C1D120DC34003022AED1215F512123111
:1027D000120C8980ED90016E1212E66003022BE16B
:1027E000A3F0120EC05005120C6380F6120CCE122C
:1027F000D0787B017A017935120D48122C607A016C
:102800007939120D48122C00120DE650181215DD00
:1028100012149512111A2439F582E4340112137737
:10282000120C8980E31215FF120CFF122C107A0192
:10283000791C120CFF122C797A017940120D481282
:102840002BE4120DC3501012142E74232FF582E4C2
:102850003401120C8980EB121606120CFF122CA305
:102860007A017943120D48122CC7900126F090018D
:1028700044121400120CFF122CAF7A01793D120D94
:1028800048122C1D120DC34003022BC71215F5125E
:10289000123E120C8980ED120F107A017962122C0F
:1028A000FC6003022A271212E36003022962A3F0EC
:1028B000120EC0500812160D120C6C80F3120CCEC2
:1028C00012D0657B017A017952120D48122C967A4A
:1028D000017956120D48122C86120DE6501512166B
:1028E0001712110E2456F582E4340112136A120CE9
:1028F0008980E61215E7120CFF122BF37A0079FF9C
:10290000120CFF122C2C7A01795D120D48122C4604
:10291000120DC3501012143C74062FF582E43401DA
:10292000120C8980EB1215EE120CFF122C6D7A013D
:102930007960120D48122CD6900109F090016112B5
:102940000CF4122C397A01795A120D48122CE51226
:102950000DC3500B121621121231120C8980F00295
:102960002AED90016E1212E66003022BE1A3F01231
:102970000EC0500812160D120C6C80F3120CCE1201
:10298000D0787B017A017952120D48122C967A0187
:102990007956120D48122C86120DE6501812161791
:1029A00012149512111A2456F582E4340112137789
:1029B000120C8980E31215FF120CFF122C107A0101
:1029C000791C120CFF122C797A01795D120D4812D4
:1029D0002C46120DC3501012143C74232FF582E4C0
:1029E0003401120C8980EB121606120CFF122CA374
:1029F0007A017960120D48122CD6900126F09001D0
:102A000061121400120CFF122CAF7A01795A120DC8
:102A100048122CE5120DC3500B12162112123E1251
:102A20000C8980F0022BC7901044E064016003021F
:102A30002AFE120CD112D065E4901045F0120DE67A
:102A40005018E0FF24FBF582E43400F583E4F01233
:102A5000136EF583E4120C8C80E31215E7120CFF61
:102A60007404F07FA07E0312655E7B017A0079FF1B
:102A7000120CFF7404F07F32122C55120DC3501843
:102A8000E0FF2406F582E43401F583E4F012123508
:102A9000F583E4120C8C80E31215EE120CFF740324
:102AA000F07F3BFE12655E7B017A017903120CFF19
:102AB0007403F07F37122D07120FC3501074092FC3
:102AC000F582E43401F583E4120C8C80EB120CF9EE
:102AD0007402F07F3F122C55901045E0FF120DC795
:102AE000500B121235F583E4120C8C80EB7B017ACB
:102AF000017903120CFF7403F07F37022BD590107D
:102B000044E064026003022BDB120CD112D078E4A3
:102B1000901045F0120DE65018E0FF2418F582E4FD
:102B20003401F583E4F012137BF583E4120C8C80FE
:102B3000E31215FF120CFF7404F07FA67E031265EA
:102B40005E7B017A01791C120CFF7404F07F421243
:102B50002CBC120DC35018E0FF2423F582E434018D
:102B6000F583E4F0121242F583E4120C8C80E31238
:102B70001606120CFF7403F07F4BFE12655E7B019C
:102B80007A017920120CFF7403F07F47122D07128F
:102B90000FC3501074262FF582E43401F583E4123C
:102BA0000C8C80EB121405120CFF7402F07F4F1294
:102BB0002CBC901045E0FF120DC7500B121242F5CD
:102BC00083E4120C8C80EB7B017A017920120CFFDC
:102BD0007403F07F47FE12655E8006120CCE12D0A1
:102BE000657FFF227403F07F5BFE12BE74E49010D9
:102BF00045F0227404F07FA07E0312655E7B012203
:102C00007404F07F527E0312BE74E4901045F022EB
:102C10007404F07FA67E0312655E7B01227403F0CC
:102C20007F57FE12BE74E4901045F0227404F07FCA
:102C3000327E0312655E7B01227402F07F3F7E03C9
:102C400012655E7B01227403F07F6BFE12BE74E49A
:102C5000901045F0227E0312655EE4901045F0224C
:102C60007404F07FAD7E0312BE747B01227403F006
:102C70007F3BFE12655E7B01227404F07F427E037F
:102C800012655E7B01227404F07F627E0312BE74C3
:102C9000E4901045F0227404F07FB47E0312BE74F9
:102CA0007B01227403F07F4BFE12655E7B01227470
:102CB00002F07F4F7E0312655E7B01227E03126568
:102CC0005EE4901045F0227402F07F5F7E0312BE36
:102CD00074900143E0227402F07F6F7E0312BE7491
:102CE000900160E0227403F07F67FE12BE74E490EE
:102CF0001045F0227E0312BE747B01227B011281FB
:102D000024EF3395E04F22FE12655EE4901045F00B
:102D100022E709F608DFFA8046E709F208DFFA80C1
:102D20003E88828C83E709F0A3DFFA8032E309F65C
:102D300008DFFA8078E309F208DFFA807088828C75
:102D400083E309F0A3DFFA806489828A83E0A3F633
:102D500008DFFA805889828A83E0A3F208DFFA80CC
:102D60004C80D280FA80C680D4806980F280338023
:102D70001080A680EA809A80A880DA80E280CA80EB
:102D80003389828A83ECFAE493A3C8C582C8CCC590
:102D900083CCF0A3C8C582C8CCC583CCDFE9DEE70D
:102DA000800D89828A83E493A3F608DFF9ECFAA9FF
:102DB000F0EDFB2289828A83ECFAE0A3C8C582C8C1
:102DC000CCC583CCF0A3C8C582C8CCC583CCDFEA10
:102DD000DEE880DB89828A83E493A3F208DFF9804E
:102DE000CC88F0EF60010E4E60C388F0ED2402B491
:102DF000040050B9F582EB2402B4040050AF232341
:102E0000458223902D6173BB010689828A83E0226B
:102E10005002E722BBFE02E32289828A83E49322E6
:102E2000BB010CE58229F582E5833AF583E0225067
:102E300006E92582F8E622BBFE06E92582F8E222B1
:102E4000E58229F582E5833AF583E49322BB010FFD
:102E5000F8E58229F582E5833AF583E028F02250EF
:102E600009C58229F8E58226F622BBFE09C582291A
:102E7000F8E22582F222F8EA2583F583E9932822F5
:102E8000BB010689828A83F0225002F722BBFE0131
:102E9000F322F8BB010DE58229F582E5833AF5833B
:102EA000E8F0225006E92582C8F622BBFE05E92596
:102EB00082C8F222EF8DF0A4A8F0CF8CF0A428CE27
:102EC0008DF0A42EFE22BC000BBE0029EF8DF084F5
:102ED000FFADF022E4CCF875F008EF2FFFEE33FEE3
:102EE000EC33FCEE9DEC984005FCEE9DFE0FD5F01A
:102EF000E9E4CEFD22EDF8F5F0EE8420D21CFEAD23
:102F0000F075F008EF2FFFED33FD4007985006D520
:102F1000F0F222C398FD0FD5F0EA22C2D5EC30E7DB
:102F200009B2D5E4C39DFDE49CFCEE30E715B2D5B3
:102F3000E4C39FFFE49EFE122EC6C3E49DFDE49C05
:102F4000FC8003122EC630D507C3E49FFFE49EFE2B
:102F500022C5F0F8A3E028F0C5F0F8E582158270EC
:102F6000021583E038F022A3F8E0C5F025F0F0E583
:102F700082158270021583E0C838F0E822BB010A8E
:102F800089828A83E0F5F0A3E022500687F009E702
:102F90001922BBFE07E3F5F009E3192289828A832F
:102FA000E493F5F074019322BB0110E58229F582C8
:102FB000E5833AF583E0F5F0A3E0225009E92582A4
:102FC000F886F008E622BBFE0AE92582F8E2F5F071
:102FD00008E222E5832AF583E993F5F0A3E9932239
:102FE000BB010DC58229C582C5833AC583022F5115
:102FF0005011C58229F808E5F026F618F5F0E582AB
:1030000036F622BBFE11C58229F808E225F0F5F05C
:10301000F218E23582F222F8E58229F582E5832A68
:10302000F58374019325F0F5F0E4933822BB010A8F
:1030300089828A83F0E5F0A3F0225006F709A7F011
:103040001922BBFE06F3E5F009F31922F8BB0111C2
:10305000E58229F582E5833AF583E8F0E5F0A3F00F
:10306000225009E92582C8F608A6F022BBFE09E92C
:103070002582C8F2E5F008F222E88FF0A4CC8BF0AC
:10308000A42CFCE98EF0A42CFC8AF0EDA42CFCEA24
:103090008EF0A4CDA8F08BF0A42DCC3825F0FDE95E
:1030A0008FF0A42CCD35F0FCEB8EF0A4FEA9F0EB54
:1030B0008FF0A4CFC5F02ECD39FEE43CFCEAA42D60
:1030C000CE35F0FDE43CFC2275F008758200EF2F50
:1030D000FFEE33FECD33CDCC33CCC58233C5829BDE
:1030E000ED9AEC99E58298400CF582EE9BFEED9A04
:1030F000FDEC99FC0FD5F0D6E4CEFBE4CDFAE4CCA0
:10310000F9A88222B800C1B90059BA002DEC8BF0A1
:1031100084CFCECDFCE5F0CBF97818EF2FFFEE335E
:10312000FEED33FDEC33FCEB33FB10D70399400489
:10313000EB99FB0FD8E5E4F9FA227818EF2FFFEEB0
:1031400033FEED33FDEC33FCC933C910D7059BE9E1
:103150009A4007EC9BFCE99AF90FD8E0E4C9FAE43D
:10316000CCFB2275F010EF2FFFEE33FEED33FDCCDC
:1031700033CCC833C810D7079BEC9AE899400AEDC6
:103180009BFDEC9AFCE899F80FD5F0DAE4CDFBE46E
:10319000CCFAE4C8F922CFF4CFCEF4CECDF4CDCC26
:1031A000F4CC22EB9FF5F0EA9E42F0E99D42F0E874
:1031B0009C45F022E8600FECC313FCED13FDEE1309
:1031C000FEEF13FFD8F122E8600FEFC333FFEE33B9
:1031D000FEED33FDEC33FCD8F1227401FF3395E0B2
:1031E000FEFDFCA3A3A3E0CF2FF0E58215827002C1
:1031F0001583E0CE3EF0E582158270021583E0CDA6
:103200003DF0E582158270021583E0CC3CF022ECA3
:10321000F0A3EDF0A3EEF0A3EFF022A8828583F0F7
:10322000D083D08212323212323212323212323221
:10323000E473E493A3C583C5F0C583C8C582C8F011
:10324000A3C583C5F0C583C8C582C822A42582F55D
:1032500082E5F03583F58322D083D082F8E4937041
:1032600012740193700DA3A393F8740193F58288EF
:1032700083E4737402936860EFA3A3A380DFEC8EF2
:10328000F0A4CCC5F0CCCDF8EFA4CEC5F02DFDE474
:103290003CFCE8A42EC8C5F03DFDE43CFCEFA4FFD7
:1032A000E5F028FEE43DFDE43CFC229010C8123B12
:1032B00047E49010D0123B25A3123B259010C81272
:1032C0003B1D4A4B7002FF229010C8123B1DF99023
:1032D000000F123E52C002C0019010CB123D109060
:1032E00010FFC9123B489010CEE0FFA3E0901102FE
:1032F000CFF0A3EFF0D001D00212450DEF7002FF26
:10330000229010C8123B1DF9123D2E24FE60761447
:10331000700302345C147003023545240360030219
:1033200036A1E49010DEF0A3F09010C8123B1D12FD
:103330003C3C95F0500D123CBB70EE9010DEE0046A
:10334000F080E69010C8123B1D123B8EED6B7001B1
:10335000EC60030236B19010C8E0FBA3A390000715
:10336000123C96FDACF0123D4A900008123BC83E5C
:10337000123BC0123C6560030236B19010C8123B8C
:103380001DF9023698123EC8129A9E9010C8123B40
:103390001DF9900005123C96FDACF0123EC2900063
:1033A00006123BC83E9010D0F0A3EFF0123E4B1235
:1033B0003E84900008123D50900009123C8C2DFF75
:1033C000E5F03CFE90000A123BD29010DC123ECF9A
:1033D0007C057DA0122EC69010D0123E9A7C007DF6
:1033E00006122EB4EF2BFFEE3A9010D4F0FCA3EFB0
:1033F000F0FD9010C8123B1D2416F9E43AFAC004FF
:10340000C0059010DC123D1F901101ECF0A3EDF00F
:10341000D005D00412687678FC7C10123C1990100C
:10342000C8123B1D78147C11123DA61236C5123B02
:103430001D123C6460030236B19010E2123C5D94B0
:10344000FDEE6480947F50030236B1D3EF940FEE0B
:103450006480948040030236B1023698123EC8124E
:103460009A9EE49010DEF0A3F09010C8123B1D125B
:103470003C3C95F0500D123CBB70EE9010DEE00429
:10348000F080E69010C8123B1D123B8EED6B700170
:10349000EC60030236B19010C8E0FBA3A3123E4BD0
:1034A00075F0038475F00AA4FF900006123BD23534
:1034B000F090002E8FF012304C123E4B75F00384CA
:1034C000E5F075F00AA4FF900008122E202F90005E
:1034D00030123E0290002E123E31C3EE9400500393
:1034E0000236B1D3EF9417EE940040030236B19048
:1034F00010C8123B1DF9900030122FA8FDACF0D37C
:103500009FEC9E50030236B1D3ED9418EC9400402A
:10351000030236B1123C6560030236B190002E12F0
:103520002FA8FF9010EA123C4795F050030236B1E5
:10353000900030122FA8FFC3ED9FEC95F0400302DE
:1035400036B1023698123EC812A7F89010C8123B46
:103550001DF9900004123C9624E3FFE5F03407FEC9
:10356000900005123BD29010D2123ECF9010E41280
:103570003D8B40030236B1C39010D3E09DFF901005
:10358000D2E09CFEC3EF9403EE940040030236B1F8
:103590009010C8A3A3123D4A123E84900007123D2A
:1035A00050900008123C8C2DFFE5F03CFE90000985
:1035B000123BD23EFE9010DEF0A3EFF0C39451EE2A
:1035C000942240030236B19010DEE0FAA3E0FB7DC6
:1035D00018123CED9010D4EEF0A3EFF07C007D18B3
:1035E000AF03AE02122EC69010DAECF0A3EDF0900D
:1035F00010D2E0FEA3E0A3123DEB7410F0A374D848
:10360000F07B017A1079D612773F9010C8123B1DDB
:103610002416F9E43AFA9010D2E0FCA3E0FD9010F1
:10362000D6E0FFA3E0901101CFF0A3EFF09010D807
:10363000E0FFA3E0901103CFF0A3EFF09010DAE0E9
:10364000FFA3E0901105CFF0A3EFF012AAA990100C
:10365000C8123B1D78FC7C10123DA678147C111218
:103660003C191236C5123B1D123C647044D39010B5
:10367000E3E094009010E2E0648094804033900096
:1036800024122FA8FF9010F2123EA4E5F09CFEC376
:10369000EF94E7EE9403501990000FE475F0018069
:1036A0000D9010C8123B1DF990000FE4F5F0123098
:1036B0004C9010C8123B1DF990000F123C687F001F
:1036C00070027F012212AC3B9010E2EEF0A3EFF00B
:1036D0009010C82290131BE030E60554BFF0804FD5
:1036E00090131BE030E74B124FAF90104112320F96
:1036F00090131BE0547FF0E4FBEBC39404748094BC
:1037000080502C901041E0FCA3E0FDA3E0FEA3E07C
:10371000FFEB75F008A4FAC374189AF9F81231B4E3
:1037200074452BF582E43414F583EFF00B80CA1254
:10373000D36EC3900491E09420900490E0940050E4
:10374000037FFF2230021EE4FFFEFDFC901041E0EB
:10375000F8A3E0F9A3E0FAA3E0FBC31231A37002DF
:10376000C2027FFF22901448E0FF54046005E4A3E6
:10377000F0800690144974FFF0EF54206007E49045
:10378000144AF0800690144A74FFF0901447E0FF4A
:1037900054046007E490144BF0800690144B74FFBF
:1037A000F0EF54106007E490144CF0800690144C35
:1037B00074FFF0901448E0FF54406007E490144D0B
:1037C000F0800690144D74FFF0EF54806007E49091
:1037D000144EF0800690144E74FFF0901447E0FFF2
:1037E00054206007E490144FF0800690144F74FF4B
:1037F000F0901448E0FE54106007E4901450F080FC
:103800000690145074FFF0EF54016007E4901451D7
:10381000F0800690145174FFF0901447E0FF54407C
:103820006007E4901452F0800690145274FFF0EE9A
:1038300054086007E4901454F0800690145474FF08
:10384000F0EF54806007E4901453F0800690145316
:1038500074FFF020C207E4901455F08006901455D0
:1038600074FFF012CC7C700990145AE07003023996
:103870006E90144A12CC7F700B90145AE064017061
:103880000302397D90144B12CC7F700B90145AE0D8
:103890006402700302398D90144C12CC7F700B902F
:1038A000145AE06403700302399E90144D12CC7FC9
:1038B000700B90145AE0640470030239AF90144EF8
:1038C00012CC7F700B90145AE0640570030239C06B
:1038D00090144F12CC7F700B90145AE06406700362
:1038E0000239D190145012CC7F700B90145AE064BE
:1038F0000770030239E190145112CC7F700B9014C1
:103900005AE0640870030239F190145212CC7F70AF
:103910000B90145AE064097003023A019014531298
:10392000CC7F700B90145AE0640B7003023A119034
:10393000145412CC7F700B90145AE0640A70030286
:103940003A2190145512CC7F700B90145AE0640DFC
:103950007003023A3190145912CC7F700CA3E064CA
:103960000C700690145D023A4412CC7C70079014DF
:103970005DF0023A4C90144A12CC7F700890145DAE
:1039800004F0023A4C90144B12CC7F700990145DF5
:103990007402F0023A4C90144C12CC7F70099014CF
:1039A0005D7403F0023A4C90144D12CC7F70099074
:1039B000145D7404F0023A4C90144E12CC7F7009DE
:1039C00090145D7405F0023A4C90144F12CC7F7045
:1039D0000890145D7406F0807390145012CC7F70C0
:1039E0000890145D7407F0806390145112CC7F70BE
:1039F0000890145D7408F0805390145212CC7F70BC
:103A00000890145D7409F0804390145312CC7F70B9
:103A10000890145D740BF0803390145412CC7F70B6
:103A20000890145D740AF0802390145512CC7F70B6
:103A30000890145D740DF0801390145912CC7F908F
:103A4000145D7005740CF0800374FFF090145DE059
:103A5000FF900603F0F4607B90145AE0FD90145D33
:103A6000E0FC6D6015EF640D9010456004ECF08093
:103A70000374FFF090145AEC8073C390145BE094CD
:103A800001500FA3E004F0700690145BE004F01204
:103A9000CC9490145BE0FEA3E0FFD39460EE94001E
:103AA000402CE4B50712EEB4010EA3E0640D7008DB
:103AB000901045741BF0800312CC94901443E004E2
:103AC000F0D3947F748094804029E4F0802512CC58
:103AD00094802090145AE0FF640D9010457004EF1C
:103AE000F0800374FFF090145DE090145AF0E4A3AA
:103AF000F0A3F0901045E0FF2290005BE412304C00
:103B00009010FFE0FBA3E0FAA3E090110AF9E0FEB9
:103B1000A3E0F5828E83122E20FF9010FCE0FBA321
:103B2000E0FAA3E022F0A3F0A3F0A3F0A3F0A3F047
:103B3000A3F0A3F0A3F0A3F022A3E0FAA3E02404EF
:103B4000901105F9E43AFAEBF0A3EAF0A3E9F022C8
:103B5000F990000E122FA8FFAEF07C007D06122E09
:103B6000C6900010EE8FF012304C90000E122FA86D
:103B7000FFAEF07C00227D3C122EB4900008122F84
:103B8000A890000C2FFFEE35F08FF002304CF9902A
:103B90000009122E20FFFDC39010E1E09DF090106F
:103BA000E0E09400F0EFFB7D0AE0FEA3E0FF7C0084
:103BB000022EC63EFE900008122FA82FFFEE35F011
:103BC0009000148FF002304C75F064A42DFFE5F0E6
:103BD0003CFE122E207C002FFFEC22900001122EC2
:103BE00020FF900041E48FF012304C900002122E22
:103BF00020900043FFE48FF002304C900012122F0F
:103C0000A8FFAEF07C057DA0022EB4900012F9EC66
:103C10008DF012304C900006227B017A1079E47E00
:103C2000007D017F18022DE17C007D64122EC67F8D
:103C30000A7E00CFCDCFCECCCE022EC6F990000D9D
:103C4000122FA89010DEFFE0FCA3E0FDC39FEC2242
:103C5000E0C4540F75F00AA4FFE0540F22E0FEA365
:103C6000E0FFC322F990005D122FA8640145F02205
:103C7000FF122E20FD12D29BAE079010C822F9121F
:103C80002E20FFAD0612D1639010C82275F064A4F7
:103C90002DFDEC35F0FC122E2075F00AA422CFF099
:103CA000A3EFF07B017A10796822F990000D022FC2
:103CB000A8FFE0FD12D1639010C8228D828C831280
:103CC0002E20FF9010E1E02FF09010E0E03400F0A3
:103CD0009010DFE004F0227D017BFF7E00022DE1E9
:103CE0009000068FF002304CE0FAA3E0FBFFAE023A
:103CF000022EC6F9E0FEA3E0FFF5828E83022E209D
:103D0000F9E0FCA3E0F5828C83EF022E9290105E26
:103D1000E0F9A3E0FAA3E022A3ECF0A3EDF0227C0B
:103D2000057DA0E0FEA3E0FF022EC6122E929000B9
:103D300011022E20F9900002EF122E929000030241
:103D40002E20F9900005EF122E92900006022E20F0
:103D5000AC06AD07022E20900002F9EE8FF0023083
:103D60004CFFE0FD12D29B9010C82234F8FE7C007C
:103D70007D0F122EC6ED24E3FFEC340722E0FFA3F3
:103D8000E0900004CF8FF002304CFFE0FCA3E0FD98
:103D9000D39FEC9E222FFEEC35F0F0A3CEF0227CD8
:103DA000277D10022EC62416F9E43AFA7D017E0022
:103DB0007F18022DE1A3E0FAA3E02406F9E43AFA21
:103DC00090110822A3E0FAA3E02408F9E43AFA905B
:103DD000110B22F98D828C83122E20FF22F9900084
:103DE00008EF122E92900009022E20FFE0FCA3E0C3
:103DF000FD9011147401F0A32224FFFFE5F034FFBD
:103E0000FE22FFEC35F08FF002304CA37407F0A3D4
:103E100074E3F0227D017BFFFE022DE133FE741D71
:103E20002FF58274113EF58322F98F828E83022E44
:103E300020122FA8FFAEF022A3E0FEA3E0FFED6F5B
:103E400022901112FFE4F0A3EFF022900007022E5F
:103E500020F9E4F5F002304CAF05AE04AD03AC023E
:103E6000022EC674FF2DF58274FF3CF5832290115B
:103E700002E0FEA3E09011062224FFF58274FF35D4
:103E8000F0F58322FF7E007C037DE8022EB4C98D0D
:103E9000F002302DC98FF002302DAA06AB07E0FEEC
:103EA000A3E0FF22E0FCA3E0FDC3EF9DFF2294000E
:103EB000CF2401FBE43FFA22F9900012122FA8252B
:103EC000E022900004022E207B017A1079E4223E49
:103ED000FEF0A3EFF0229004C6E0706E9000D2E0F6
:103EE00070269004D1E06402701E9000D5E0701836
:103EF00012129D7407120E567F3E12D19E12D1549B
:103F0000120D067D0E02415A9004D1E0FF7E00643E
:103F100001700E9000D5E0120FC850028001C3500E
:103F200014EF64024E701C9000D4E012153450025D
:103F30008001C3400E120E4D1241EA120C947D24F2
:103F400002415A74011214A2F0229004C6E06401E6
:103F500070507403F0E49013F412113E700512CE09
:103F60005B800312CE749004CAEFF0120E11E4903D
:103F70001040F0901040E0FF120EC45008120F885D
:103F80001213C180EE1211357B5270047D4C8002F9
:103F90007D4E7F6612D1B912D154120D7E7D1E0264
:103FA000415A9004C6E06403600302405512D154A4
:103FB000E4FD7F0512B7DA1215C860030240429093
:103FC000140AD31212144059E4901040F09010409B
:103FD000120EC3501EE0FF24F9F582E43413F5837A
:103FE000E0FE74DA2FF582E43413F583EEF0121359
:103FF000C180DA120E0BE4901040F0901040E0FF08
:10400000120EC45008120F881213C180EE1211351F
:104010007B5270047D4C80027D4E7F6812D1B98046
:104020002C7403120E0DE4901040F0901040E0FF4D
:10403000120EC45008120F881213C180EE1213849E
:10404000800B1215CF700612129D12162B120D7EC8
:104050007D1E02415A9004C6E064047050FD7F0545
:1040600012B7DA90140B121275703290140AE0D362
:1040700012121540079004C67405F022120E0BE4CC
:10408000901040F0901040E0FD120EC4500B74F9F7
:104090002D120F8B1213C180EB12138422EF6403D5
:1040A0004E60030241E912129D12162B229004C6A3
:1040B000E06405600302415F7B0190104904F0A3B6
:1040C0007413F0A374F9F07A1379DA128124EF33C0
:1040D00095E04F70731213A5129288EF704D121372
:1040E000A59004CAE0FD1226A412127C7002EEF420
:1040F000702C9004C67412F09004C8120E587D32D1
:104100001241FA120C577D247F03126FD012113F17
:1041100070059000D580039000D4E004F022120EC8
:104120004D1241EA120C947D24802F12129D7404CA
:10413000120E567D527F5612D0F712D1547AF27970
:1041400089120F2D7D24801212129D7409120E56B1
:104150007D341241FA120CC27D247F03026FD0908D
:1041600004C6E06412702812140C120D1C507A90D0
:1041700000D2E0701212113F700D9000D5E0640182
:10418000700512D1C6800312D1E07F06025B9A90BF
:1041900004C6E06413705212140C120D1C504A90A5
:1041A00004C7E0FF7E00640C700E9000D2E070083F
:1041B0009000D5E0700280119000D2E0700F1211D3
:1041C0003F700A9000D5E07004120D6822EF64067B
:1041D0004E600E9004C7E0FF640C6005EF6407704A
:1041E0000512113F800012D1E0227F5812D19E7F2C
:1041F000647E0012D35912D154227F4412D0F71298
:10420000D154229000CC120CA8700B9004C57424D9
:10421000F07F0412B2079005A0E070067420F0123F
:10422000BB25900596E0640470799000ED74FFF072
:1042300090059EA3E09000F3F012CBB91210F2901B
:1042400000F8E070069000F10480291213B36003B7
:104250000243329000EF120FD3BEFF0ABFFF079058
:1042600000F17406800E120FD0BEFF0EBFFF0B9040
:1042700000F174041245020242FE9000F7E0700A59
:104280007F7A12D19E9000F7807A120E235003029B
:104290004332EF64017003120D779000F7E014F0E1
:1042A000024332900596E064056003024332121027
:1042B000397056900599E064167038A3E064D470A4
:1042C00032A3E064DB702CA3E0643C70269006EC23
:1042D000E0701B12BDE290060B120CA870107D322C
:1042E0007F4412D0F79006EC74C0F012CBB9120DD7
:1042F00077803F9000F1740712450212CBB990000D
:10430000F5E4F0A37480F08029E49000EDF09000D3
:10431000F104F09000F31211B5120E587F4012D143
:104320009E9000C9120DE95005E004F080041211BE
:104330007BF0126E649001F4E0642870749000EEDB
:1043400074FFF09001EFA3E0049000F21210F190DE
:1043500000F8E070089000F174030243DE1213B31A
:1043600060030244189000ED120FD3BEFF0ABFFF96
:10437000079000F1740480669000EF120FD3BEFF27
:104380000ABFFF079000F1740580539000F7E070BA
:104390000A7F7A12D19E9000F7804F120E23407848
:1043A000EF640170049001F4F09000F7E014F080E5
:1043B000679001F4E06429705FA3E0642B700890BB
:1043C00000FA7402F08005E49000FAF012103970DF
:1043D0001E9000FAE0640260169000F17407F0127B
:1043E000C44B74201211B9E4F0A37480F08029E466
:1043F0009000EEF09000F17403F0E4A31211B612F5
:104400000E587F4012D19E9000C8120DE95005E071
:1044100004F0800412117BF0127860900496E0643E
:104420000A705D9000EF74FFF09004A4E09000F437
:104430001210F19000F8E060089000F0E064017064
:10444000079000F17402804A1213B360030244F132
:104450009000ED120FD3BEFF0ABFFF079000F1746A
:1044600006802F120FD0BEFF0ABFFF079000F17425
:1044700005801F7F7A12D19E1213AC9000F7802224
:10448000900496E0640B704B121039701A9000F192
:104490007407F012C44B9004C57420F09000F5E44A
:1044A000F0A37480F0804AE49000EFF09000F17483
:1044B00002F09000F41211B5120E587F4012D19EF6
:1044C0009000CA120DE95005E004F0802412117B1F
:1044D000F0801E121514640C700E900477F0A3F097
:1044E0009004C57423F08009EF640D4E700312D15F
:1044F000FA126CF790048EE07002A3E0700312D100
:104500005422F012C44B9004C57420F0229010FC89
:10451000123B47E4901104123B31901102E0FCA3DE
:10452000E0FD901108ECF0A3EDF0123B1A123EB83A
:10453000FBE5F033FAED24FAFFEC34FFFE7C007D5E
:1045400005122EC690078875F0C8ED12324CEC7536
:10455000F0C8A42583F583E5822BF582E5833AF53F
:1045600083E0FEA3E0FBAA067C007D64FF122EC65A
:1045700090110AEEF0A3EFF0AF03AE02123C28A3B5
:10458000EEF0A3EFF0AE02AF037C007D0A122EC660
:10459000123D18E4123B30901103E024F5FE901117
:1045A00002E034FF901114F0A3CEF0123B1A4A4BF4
:1045B0007002FF22123B1AF9900012123E31D3947E
:1045C00000EE94004008EF9464EE940040037F00F6
:1045D00022901108123C5D9406EE94004009D3EF3E
:1045E000940CEE940040037F0022901114123C5D65
:1045F000EE9400405BD3EF9402EE94005052901181
:104600000BE09F90110AE09E500CA3E0240AF0906A
:10461000110AE03400F0D390110DE09F90110CE0EE
:104620009E500CA3E0240AF090110CE03400F090AE
:104630001114E0FEA3E0FFD390110FE09F90110E44
:10464000E09E500CA3E0240AF090110EE03400F03C
:10465000901106E4F0A304F0123E6E123D8A50332E
:1046600090110A123E397002EC6E6017123E3870DB
:1046700002EC6E600E123E387002EC6E6005123D68
:10468000188010901107E004F070CD901106E0043E
:10469000F080C5E4901106F0A3F0123E6E123C4685
:1046A0009E50269010FF123B1D123DD3901105E045
:1046B0002FF0901104E03400F0901107E004F07046
:1046C000D9901106E004F080D1123B1AF9123D2E68
:1046D000FF64016008EF64036003024784123BDB60
:1046E000123D3C900045123BF4123EC2FF90004741
:1046F000123BF5900005122E20123E4175F0051276
:104700003AF9F9900041122FA86F7002E5F06003AA
:104710000247FA9010FF123B1D90110C123B0DF94D
:10472000900043122FA86F7002E5F060030247FA71
:104730009010FF123B1DF990110E123B0EF99000E4
:1047400045122FA86F7002E5F060030247FA90103F
:10475000FF123B1DF9901110123B0EF99000471209
:104760002FA86F7002E5F060030247FA901104125F
:104770003BA7901112E06C7003A3E06D707C123BBC
:104780001AF9805B123B1AF9123D2EFF6402600594
:10479000EF64047053123BDB123D3C123E4175F056
:1047A00003123AF9F9900041122FA86F7002E5F058
:1047B00070489010FF123B1DF990110C123B0EF93E
:1047C000900043122FA86F7002E5F0702D90110435
:1047D000123BA7901112E0B50420A3E0B5051B9091
:1047E000005DE475F001800F123B1A90005B123EF1
:1047F0005190005DE4F5F012304C123B1A123C640B
:104800007F0070027F0122900460EEF0A3EFF09031
:104810000467E07015741E120F63A37401F0E4A323
:10482000F0A374FFF07F6C0249A8900467E0641E57
:104830007005741F0249D7900467E0FE641F704240
:10484000120F5A702F900592E0FD7C0070089004C2
:104850006774200249FAED64034C6011900592E000
:10486000FD64026008ED64F9600302494B9004673F
:10487000741EF0229004621210594003024AA402EE
:104880004A9AEE642070139004677421120FB4905A
:104890000464E0FF12C0F2024A69900467E06421F8
:1048A000600302495F120F5A60030249519005925A
:1048B000E0705C900464E0FF7E006401702090046E
:1048C00066E0FD3395E0FCED4C7013900464E00469
:1048D000F09004677424F090046674FF8027C3EF9F
:1048E0009408EE648094809004675017120F61A3BF
:1048F000E004F0124AA5120D5B7D0E7F03126FD00B
:104900000249FB7417F0900462120E580249FB90A2
:104910000592E0FF64066005EF6403702E90046565
:10492000120DC69004675015120F6112CBB9124ACE
:10493000A5120D5B7D0E7F03126FD080077429F0E6
:10494000A3740BF0900465E004F022900467024A1F
:104950008A900462120D154003024AA4024A9A90FA
:104960000467E06424700F7425120FB47B32FAFDE3
:10497000FC7F0102B711900467E06425704F120FAD
:104980005A703C900592E0FF7E00700B90046774B3
:1049900029F0A3740AF022EF64094E900467701C9A
:1049A000120F6112CBB97F6E12D19E7F967E0012DC
:1049B000D359120D5B7D0E7F03026FD0024A8A909D
:1049C0000462120D154003024AA4024A9A90046739
:1049D000E0642270087423120FB402CED5900467ED
:1049E000E0FD7C006423702A120F5A701790059224
:1049F000E0640290046760067422F002CBB9741E72
:104A0000120F6322900462120D154003024AA402A1
:104A10004A9AED64174C700D9004677418120FB425
:104A200012CDA58044900467E0FF7E006418701EDC
:104A3000120F5A700F900592E09004677004741979
:104A4000F02280469004621210595058804CEF6456
:104A5000194E701C900467741A120FB4900460E031
:104A6000FCA3E0FD7F0112BA1E900462120E5822D0
:104A7000900467E0641A702C120F5A70159005921A
:104A8000E090046770047428F0227429F0A3740B7A
:104A9000F022900462120D15500A9004677429F0F8
:104AA000A37401F0227F6E12D19E7F967E0012D3F6
:104AB000592290076BE0703D7BFF7AF27955901098
:104AC0006AF07D1C7F01127CD07BFF7AF67909E4C5
:104AD0001211077F01126FD07BFF7AF27957E490B1
:104AE000106AF07D5C7F01127CD0E49000CFF090E2
:104AF000076B04F02290076BE0640170217BFF7A62
:104B0000F679141211077F04126FD012B64212C642
:104B100060E490076CF090076B7402024C0F9007F2
:104B20006BE064027034A3120CA8901093700A74A6
:104B300010120ED91214AB80087410120ED9121470
:104B4000B2124D0D120D124003024D0C7403124DA2
:104B50001B7BFF7AF6790E024C5690076BE06403DC
:104B6000705F12B2E99000CFE06402703990059056
:104B7000F07F0112C066E4901040F09010401212D5
:104B8000C550177F0A7E0012D35912D362120F5AF2
:104B90006008901040E004F080E1E490076DF09030
:104BA000076B740480699000CFE064036003024DDA
:104BB0000C90076D74FFF074041211667F07024DAC
:104BC0000990076BE06404703590076D120CA89093
:104BD0001093700A7410120ED91214AB800874105E
:104BE000120ED91214B2124D0D120D124003024DC5
:104BF0000C7405124D1B7BFF7AF6791180589007D3
:104C00006BE06405701190076EF090076B740612EC
:104C100011697F02024D0990076BE06406703A90BB
:104C2000076E120CA8901093700A7410120ED9120D
:104C300014AB80087410120ED91214B2124D2A123D
:104C40000D124003024D0C90076B7407F0124D38A3
:104C50007BFF7AF67917E4807290076BE064077047
:104C60000E90076FF074081211667F02024D0990D2
:104C7000076BE06408706790076F120CA8901093A0
:104C8000700A7410120ED91214AB80087410120E30
:104C9000D91214B2124D2A120D12507090076B7473
:104CA00009121169124D3890076D120CA8702190ED
:104CB000076C120CA8701990076E120CA87011A343
:104CC000120CA8700B7BFF7AF6791A121107800973
:104CD0007AF6791F12153C7D1C7F04026FD0900775
:104CE0006BE064097026120D1250219000DBE06029
:104CF000046401700F7F7412D19E9000DA74FFF08B
:104D00001214B922120D677F0612C8DC22F0E4A348
:104D1000F07B107D4B7F0412AE422290076BF07F38
:104D20000412C9ED7F0512C9ED22F0E4A3F07B1057
:104D30007D4B7F0412AE42227F0412C9ED7F051223
:104D4000C9ED2278407C107AF479C6120F96784625
:104D50007C107AF479CC120F96784C7C107AF47926
:104D6000D27F051210FC90048BE07003024F0A748E
:104D700028120ED674F0F0A374C9F0E4A3F07B34CB
:104D80007D48FF12AE429000F1E0640170157AF2A6
:104D90007960121005124F87120C4B124F8E900043
:104DA000F380349000F1E064037011121001124F8F
:104DB00087120C4B124F8E9000F2801B9000F1E096
:104DC0006402701D7AF27965121094124F95120CDC
:104DD0004B124F9C9000F41210C17D287F04024EAC
:104DE000899000F1E064047037121001FDFF126F2A
:104DF000D0120C4B124F951210BE7D247F021280F0
:104E0000127AF27960120C4F124F9C120C4BFD7FFC
:104E100006126FD09000F31210C17D287F068069C2
:104E20009000F1E06405702A121001FDFF126FD0AE
:104E3000120C4BFD7F02126FD01210BE124FA31244
:104E40000C5BFD7F04126FD0120C4B124F727F0669
:104E500080379000F1E0640670347AF279601215C0
:104E60009CFDFF126FD0120C4BFD7F02126FD09091
:104E700000F31210C1124FA3120C98FD7F04126FA1
:104E8000D0120C4B124F727F0612801280189000C5
:104E9000F1E0640770107B017A10794C90109DF05E
:104EA000FD7F03126FD07A1079461214F87D407F8F
:104EB00006126FD090048BE064037016900485E0B6
:104EC000B4010FA3E0B43B0A7F2C12D19E7F0302F2
:104ED0004F6E90048BE064046003024F719004876E
:104EE000E07004A3E0640370167F2E12D19E900040
:104EF000F512139E90048E12139EE4FF025B9A90AB
:104F00000487E07004A3E0640122E49013F7F090BA
:104F100010937428120ED974F0F0A37401F0E4A376
:104F2000F07B287D2CFF12AE427B017A107940E4A1
:104F30001211077F06126FD09000F51215A364803E
:104F400094804015EF64404E700890048EF0A37476
:104F500041F09000F6121500229000ED1210F512AB
:104F60000F009004C5F090048EF0A3F07F0212B2FF
:104F70000722FD7F06126FD09000F4E0FB7A00E478
:104F8000901055F07D2822FD7F02126FD022FD7F08
:104F900004126FD022FD7F02126FD022FD7F041217
:104FA0006FD0227D287F021280127AF2796522E486
:104FB000901047F0A312321B0000000090104C121A
:104FC000321B00000000E4901050F0A3F030040306
:104FD0000250DA12D37150030250CC12C90B901058
:104FE0004812320FE4901046F0901046E0C395103E
:104FF00050399010481283E078011231B490104873
:1050000012320F30D7201283B4C000C00190104676
:105010001283A3E0F9F81231C7D001D0001283EC5B
:10502000901047E004F012842B80BE901047E0FF00
:105030007E00C39402748094804018D21AEF9403C7
:1050400074809480400512D374800812D2CFEF6030
:1050500002C21A201A23E4FFFEFDFC1283B4C3121D
:1050600031A3601090132BE004F0700690132AE037
:1050700004F0801D128417801890131AE004F07059
:1050800006901319E004F090104C12321B0000003F
:105090000012D24CD390132BE09F90132AE09E4035
:1050A0000612D374128417D390131AE0942C901321
:1050B00019E0940150030251FC12D37490135174FF
:1050C00001F0E4901319F0A3F00251FC90FA52E4BD
:1050D000740193FF1259E70251FC2005030251C6E7
:1050E0001283B4C000C0019013521283A3E0F9F8F8
:1050F0001231C7D001D0001283EC128341128432E6
:10510000901050F0A3EFF0901352E0FF12D317ADC0
:1051100007AC06ED7802CEA2E713CE13D8F8FFC392
:10512000ED9FFFEC9EFED3901051E09FEE6480F85F
:10513000901050E06480985058E49012CFF0A3F0A3
:10514000901292E004F09405748094804010E4F092
:10515000C204C20590104C12321B00000000E49003
:105160001046F0901046E0FFC3951040030251FC3A
:1051700012608A200416901046E0FF901352E06FF0
:10518000600A901046E01283511283FE12842B8035
:10519000D2E4901292F012D24C9012CFE475F0014A
:1051A000122F51FCD3E5F09FEC9E405012D374E4D3
:1051B0009012CFF0A3F0C204C20590104C12321B23
:1051C000000000008036785506E6D394057480947C
:1051D000804004E4F6C204E4901046F0901046E0EB
:1051E000FFC39510501612608A20040B901046E001
:1051F000FF1283511283FE12842B80E090104C1218
:1052000083E022900455E060030252AB9000D2E0AC
:10521000704E9000D5E070489004C57414F074038B
:105220001214A2F09004CA04F09004D1120E10E4FB
:10523000901040F0901040E0FF120EC4500B120F7F
:1052400088901040E004F080EB1213847B527D4C78
:105250007F6612D1B912D1547BFF7AF279738045FF
:10526000120E11740912156BE4F0A374F0F0E490BF
:105270001040F0901409E0FF901040E0FEC39F50F2
:105280000E74F92E120F8B901040E004F080E49021
:1052900004557401120F097F5A12D19E12D1547B0A
:1052A000FF7AF579BA12163C026FD0900455E0648B
:1052B0000160030253C37D107F0612B7DA1215C8CE
:1052C00070509004557403F01213A5129288900444
:1052D0005EEFF0600B120DC750069004557402F09B
:1052E0001213AC900455E06403701C12541A120D92
:1052F0004F12541290045D7480F09000CB120DE9AF
:10530000501EE004F08019125423120DCF125412D3
:10531000800E1215CF70099004557404F01213AC6E
:10532000126E649001F4E06428702FC39001F0E0E5
:10533000940A9001EFE094005020900455740212FA
:105340000F09125423120DCF7D247F03126FD090CA
:1053500001F37401F07F0302540E9001F4E0FF6446
:1053600029601EEF642860030254119001F0E09060
:1053700001EF1212FED3EF940AEE94005003025490
:10538000119001F5E0642B90045F70057402F080C9
:10539000037401F0E49001F4F09004557403F0906C
:1053A000045D7480F012541A120D4F7D247F031295
:1053B0006FD07F0212B2079000CB120DE95052E07D
:1053C00004F022900455121275700912D1C6E490AF
:1053D00000CBF022EF64034E702190045DE014F0E6
:1053E000120D2E502C9000CB120DE94006E4A312B2
:1053F000117FF0120F001215AD8013900455E06478
:1054000004700E7F6012D19E120F001215AD12B201
:1054100007227D247F03126FD0227F4012D19E127B
:10542000D154227D327F5A12D0F712D154227D01FD
:105430007F041254380D7F04EFF582758300C37426
:105440008094804024D3E582940574809480501920
:10545000EDF582C374809480400FE58294087480D7
:10546000948050057582018003900000E5826401FC
:1054700045836003025631EF1460641470030255D3
:10548000241470030255691470030255AE1470039E
:105490000255F024056003025631EB14601D1460C0
:1054A0002D24026003025631A8057401088002C34E
:1054B00033D8FCFF429AEFF4529B22A805740108EE
:1054C0008002C333D8FCFFF4529AEF429B22A80516
:1054D0007401088002C333D8FCF4529A529B22EB29
:1054E00014601D14602D24026003025631A8057457
:1054F00001088002C333D8FCFF4291EFF45292229C
:10550000A8057401088002C333D8FCFFF45291EF60
:10551000429222A8057401088002C333D8FCF452D9
:1055200091529222EB14601D14602D24026003023C
:105530005631A8057401088002C333D8FCFF42A18C
:10554000EFF452A222A8057401088002C333D8FCEC
:10555000FFF452A1EF42A222A8057401088002C301
:1055600033D8FCF452A152A222EB14601D14602D1A
:1055700024026003025631A8057401088002C33377
:10558000D8FCFF42B1EFF452B222A80574010880A2
:1055900002C333D8FCFFF452B1EF42B222A8057423
:1055A00001088002C333D8FCF452B152B222EB148A
:1055B000601A14602A24027078A805740108800219
:1055C000C333D8FCFF42C1EFF452C222A8057401D4
:1055D000088002C333D8FCFFF452C1EF42C222A8B4
:1055E000057401088002C333D8FCF452C152C222B0
:1055F000EB14601A14602A24027036A8057401089E
:105600008002C333D8FCFF42D9EFF452DA22A80556
:105610007401088002C333D8FCFFF452D9EF42DA98
:1056200022A8057401088002C333D8FCF452D95271
:10563000DA2290114812824E901147EFF0901152E9
:1056400074FEF0E4A3F0A3F0EF24F4601024FE70E5
:10565000169011537412F0A37410F0800A90115335
:105660007420F0A37430F0901153E04480FD7F0269
:1056700012D1AC7D807F0412CC3D1258237D807FF7
:105680000A12CC5DE4901156F0A3F090114BE0FFAC
:10569000901156E0FCA3E0FDC39FEC9400502390D2
:1056A00011481282458D828C83122E20FD7F0912B3
:1056B000D1AC901157E004F070D1901156E004F095
:1056C00080C9901147E0FD7F0112D1AC901147E0F5
:1056D000640C70077D807F0D12CC5D12D19090110B
:1056E00056E4F0A37464F07F0412D03F901155EF9C
:1056F000F0901157E024FFF0901156E034FFF0E0F5
:105700007002A3E06011901155E0FF20E0099011B4
:1057100054E0FEEF5E60D07D807F0D12CC3D901195
:1057200056E07002A3E070030258107F0612D03FCB
:10573000EF541B6003025808901152F0A3E0FF9051
:105740001155E05F30E00690115274FFF090114760
:10575000E0640C60030258137F0A12D03F90115589
:10576000EFF07F0C12D03FEF5407FD6029901155E8
:10577000E024FFFFE434FFFEEF7803C333CE33CEE3
:10578000D8F97C002DFFEC3EF990114FE0FBA3E02F
:10579000FAA3E0C98011901155E075F008A4FF90BC
:1057A000114F128245E5F08FF012302D901155E027
:1057B000700204F0901155E0D394127480948040EC
:1057C000037412F0E4901156F0A3F0901155E0FF2D
:1057D000C3901157E09F901156E0940050357F0917
:1057E00012D03F90114C128245901156E0FCA3E07C
:1057F000F5828C83EF122E92901157E004F070CB5B
:10580000901156E004F080C390115274FEF08003B2
:1058100012D3027D807F0C12CC5D1258239011525E
:10582000E0FF22E4FD7F0112D1AC22900479E0FF79
:105830007E00700504F0A3F022EF64014E70451263
:10584000D1547AF279AA1212A57D0A7F02126FD082
:105850007AF279B31212A57D0A7F04126FD0120C6E
:10586000A560030259DB120E4240030259DBEE75BC
:10587000F004A42491F974F435F0FA7BFF12BF917F
:105880001210B022900479E06403701C12D1547A93
:10589000F579FF12153C7D0E7F03126FD0900479CD
:1058A0007402F07F4202D19E900479E06402701E7F
:1058B00012CAB8EF3395E0FEBEFF11BFFF0E900491
:1058C00079740412157EE490047CF02280669004C2
:1058D00079E06404706F12BD4F900604E0FF7E0013
:1058E0006412703774051212AD9000D1F0A3F0FD70
:1058F000ED12145F40030259DBED25E025E02400A2
:10590000F582E43400F58374FFF0A3F0ED120F4C40
:10591000E4F0ED12118CE4F00D80D5EF64134E60CD
:10592000030259DB90047C120DE95008E0041215C3
:105930007E02CBB99004797408F07D341259DC7A78
:10594000F279848055900479E06405701890047BA6
:10595000120D2940030259DB12C6D174061212AD92
:105960009000D3F022900479E06406703690047BB6
:10597000120D29506612CADF12CB0412CFB012C723
:10598000AB90047974071212B09000D5F09000D457
:10599000F07D321259DC7AF2797FE41211077F032D
:1059A000026FD0900479E0FF7E00640770109004CD
:1059B0007BE0FD14F0C3ED120D2F501F800EEF643D
:1059C000084E700C90047B120D29500F120D6722A7
:1059D000900479E06409700312D1ED227F4212D065
:1059E000F712D1547BFF22901052EFF0901492E006
:1059F000C39403748094804048E4F0901351E070A5
:105A000035901053F0901053E0C395105028E0FFEC
:105A100075F002A4242DF582E5F03413F583E0FC43
:105A2000A3E0FDEF25E02425F8A60408A6059010C4
:105A300053E004F080CF12B6AAC21BE4901351F0D9
:105A40002290148CE004F0901052E0FF90148CE04F
:105A5000B5070812C7DFE490148DF0901052E0FFF4
:105A600090148CE0D39F5003025B99E4901053F0A4
:105A7000901053E0C395104003025B45E0FF75F0C2
:105A800002A4242DF582E5F03413F583E0FCA3E0B5
:105A9000FD75F002EFA42493F582E5F03412F5834E
:105AA000E0FEA3E0C39DFFEE9CAD07FC901351E028
:105AB000704290132CE0FB3395E0FAFEEB7802C3C2
:105AC00033CE33CED8F9FFD3ED9FEE6480F8EC648B
:105AD00080984060E49BFFE49AFEEF7802C333CEE7
:105AE00033CED8F9FFC3ED9FEE6480F8EC64809864
:105AF0005042805190132CE0FB3395E0FAFEEB7896
:105B000003C333CE33CED8F9FFD3ED9FEE6480F8D4
:105B1000EC648098401EE49BFFE49AFEEF7803C398
:105B200033CE33CED8F9FFC3ED9FEE6480F8EC643A
:105B300080984011901053E0FF12608A901053E05B
:105B400004F0025A70901053E0B5100690148DE0E6
:105B500004F0901052E0FD75F008A4FF90148CE062
:105B6000C39FE5F06480F8748098402DE4F0C21A79
:105B7000901492E004F0ED75F004A4FF90148DE011
:105B8000C39FE5F06480F8748098400DE49014920F
:105B9000F012C9C212B6AAC21B22EF707012154CC5
:105BA0006401700B1210894404F09000F3804FEDF3
:105BB00064034C7009121089F09000F280401215B5
:105BC0004C6402700B1210894402F09000F4802E95
:105BD000ED64044C7009121089F09000F2801F12DD
:105BE000154C64057009121089F09000F2800FEDD9
:105BF00064064C70111210894402F09000F4E01217
:105C00000E67F0025CE99000F1E0640722EFFD7C92
:105C10000064027012121089F09004C0A3E0120E0A
:105C2000674420F0025CE9ED64034C7012121089A5
:105C3000F09004D8A3E0120E674430F0025CE9EF64
:105C4000FD7C0064047009120E5F4440F0025CE9C0
:105C5000ED64054C7009120E5F4450F0025CE9EFF0
:105C6000FD7C00640670121210894402F09004CA90
:105C7000E0120E674460F08070ED64074C70121201
:105C800010894402F09004E0E0120E674470F08046
:105C900058EFFD7C006408700D1210894402120E4A
:105CA000654480F08043ED64094C70121210894401
:105CB00004F0900173E0120E674490F0802BEFFD2A
:105CC0007C00640A70121210894404F09001E9E02B
:105CD000120E6744A0F08011ED640B4C706B121033
:105CE000894404120E6544B0F078517C107D017B2C
:105CF000017A01799E120DDF1263C89004B312324B
:105D00000F9004B07455F0A374AAF09004AAE0FEBA
:105D1000A3E0FF12CB96C39004ABE094FF9004AADB
:105D2000E09401500DA3E004F070069004AAE00492
:105D3000F0229004B2E0FF5401F45401FEEF54FE4F
:105D40004EF0E49004AAF0A3F0229010C8123B4752
:105D5000E4123B32FFFE123D9FA3EFF07F007E0076
:105D6000123D9F7E037FE8123C33A3EFF07C037D5E
:105D7000E87F007E00122EC67E007F64123C33A3B3
:105D8000EFF07F007E00123C28A3EFF07C007D0A3C
:105D90007F007E00122EC6AC05E4A3F09010C8125E
:105DA0003B1D4A4B7002FF229010C8123B1D123E51
:105DB000B8FFE5F033FE74702FF582740B3EF58367
:105DC000E0FFA3E09010CBCFF0A3EFF0A37401F0BD
:105DD0009010CDE0FFD39406748094805033A3E0FC
:105DE000FEEF6E6024A3E0FF9010CDE0FE6F60191F
:105DF0009010D0E0FFEE6F6010A3E0FFEE6F60093F
:105E0000EE6C6005A3EEF080089010CDE004F08009
:105E1000BF9010C8123B1DF9900001122E20901067
:105E2000CE123CB1123B1DF9900001EF122E929060
:105E30000002122E209010CF123CB1123B1D123DD9
:105E400034FF9010D0123CB2123B1DF9900003EFCA
:105E5000122E92123EC2FF9010D1123CB2123B1D84
:105E6000F9900004EF122E92900005122E20FFAD43
:105E700004123CB4123B1D123D42FF9010D2123C62
:105E8000B2123B1DF9900006EF122E92123E4BFF0C
:105E9000AE04AD06123D64123B1DF9900007EF12EF
:105EA0002E92900008122E209010D1123D61123BCC
:105EB0001D123DDD9010D0123D61123B1DF9900086
:105EC00009EF123D2BB4021F9010C8123B1DF99030
:105ED000000A122E20FF9010CF123D62123B1DF9D6
:105EE00090000AEF122E927F01227AF57993120F19
:105EF0002D7D1CFF126FD07AF579981213C87D188A
:105F00007F03127CD09013EF120FA17D287F031224
:105F10008E6B9013EE120FA17D407F03128E6B905B
:105F200013EC120FA17D587F03128E6B7AF579A3C3
