:0300000002A81043
:03000B0002CADD49
:0300130002D255C1
:03001B0002C21905
:0300330002E2B92D
:03004B0002CCDD07
:03005B0002CEC012
:03006B0002D0CEF2
:03007B0002C52398
:0300830002C4852F
:03008B0002D92374
:10010000900502E060030207D412330C900C1DEF3F
:10011000F0F4600312D94590053EE0120EE7017637
:1001200000025B0102B102030B05033F0604420A11
:10013000037B0B04560C046B0D04760E049C0F0419
:10014000B51004C01204DA1304E71405111505569E
:100150001605691705931A05BF1B07091C05E61D3F
:10016000061E1F07C127063128076D2C06922D0792
:10017000572E000007D4900C1DE0FF640D6011EFB6
:10018000641B700C90053E741AF09004F17403F037
:1001900090050FE0FF640760030202321227B0509F
:1001A00033EF640760030207D4900C3A04F0741034
:1001B00012263A12290F1228D6500E74292E122612
:1001C0006F90080CE004F080ED90050F7408F07F4C
:1001D0000102D51D1226A170217F0112D51D9001AB
:1001E0009B122707BEFF06BFFF03E4F022E4900541
:1001F00007F0A3F090050C04F022900C1DE0640BB6
:1002000060030207D490019B1225FD70127F01123A
:10021000D51D90053E741FF090041712291B221261
:10022000D988900505E4F0A37496F090053E7420FB
:10023000F022900C1DE0FFF470030207D4EF640C71
:1002400070030207D412291D90050FE064096003B2
:100250000207D47F0112D51D0206291227667003FA
:100260000204AF122786700302058D1229747003F1
:1002700002050B900C1DE064047003020618900C3C
:100280001DE0640570111207D590053E740AF0E474
:10029000900459F002C8CB1226A160030207D412C1
:1002A00008A912265C7F6012E12E1208A1E4020761
:1002B00068900C1DE0FF6401600AEF64026005EFC6
:1002C00064037004E41208A9122766700E1207D5A1
:1002D000E490053CF090053E02036C122786700EF8
:1002E0001207E2E490053CF090053E0204FE12295C
:1002F00074700D1207E212294090053E740EF02230
:100300001226A160030207D402043D122766700F73
:100310001207EF90053E7412F0E490016FF0221284
:10032000278670101207EF90053E7414F09004F5C4
:10033000740AF0221226A160030207D402043D12BF
:10034000276670091207FC12287E04F02212278605
:1003500070091207FC12287E0207531229747010CC
:1003600012080990053E7417F0900646740FF022AB
:100370001226A160030207D402043DE490080DF0A8
:1003800004F0122766701012080990053E741BF0E5
:10039000E41229247403F090080DE0240112274D83
:1003A000B5070EECB5060A12081690053E741D80BE
:1003B0001890080DE0240212274DB50710ECB50681
:1003C0000C12081690053E742DF0E4803E90080D46
:1003D000E0240312274DB50714ECB50610120823CC
:1003E00090053E7428F0E49005D2F0801E90080D30
:1003F000E0240412274DB50718ECB50614120823A3
:1004000090053E741CF0E4900620F01229240205A9
:10041000B190080DE0240512274DB50718ECB5067C
:100420001412083090053E741AF0E49004F1F012B2
:1004300029240207531226A160030207D4120830B0
:1004400080111226A160030207D412083D900459BE
:100450007405F002E13C90053CE064017003120871
:10046000981226A160030207D480441228AA6003D0
:100470000207D4020561900643E0640860030207A6
:10048000D4122874700B900644F09006437409F05F
:1004900022EF640A4E60030207D4801390053CE00B
:1004A000640170031208981226A160030207D41297
:1004B000083D02E29D1228AA60030207D4020561EA
:1004C00090016FE064017008900C1DE0FF12B22AE9
:1004D0001226A160030207D480319001A3E06401D9
:1004E00060030207D4807A9004F5E0640B60030295
:1004F00007D4122874700B9004F6F09004F5740C75
:10050000F022EF640A4E60030207D412084A02E2A6
:10051000AB90053FE06401700A900C1DE0FF12B241
:100520002A801A90053FE064037002800890053F1E
:10053000E064047008900C1DE0FF12AD4E9000D2F4
:10054000E070099000D5E070030207D41226A16084
:10055000030207D48037900558E064016003020766
:10056000D4900C1DE0FF02B22A900646E0641060B1
:10057000030207D4122874700B900647F0900646C9
:100580007411F022EF640A4E60030207D412084A85
:1005900002E2A49004F1E0640160030207D4900C2D
:1005A0001DE0640B700F120857E49004F2F0900401
:1005B000F17403F0221226A160030207D4805912BD
:1005C00027667009120857E4900438803C12278689
:1005D000700A1208649004387401802D1226A160FC
:1005E000030207D48032122766700D7AF679EF1273
:1005F0000871E49001AD801112278670137AF679A4
:10060000F21208719001AD74FFF012CE0D020706D0
:100610001226A160030207D41208640207069004A0
:1006200017E0640160030207D4900C1DE0FF02078D
:10063000BE9005D2E0640160030207D41227667001
:10064000139000F8F09005D27402F07BFF7AF779EE
:100650001902072312278670289000F804F09005ED
:10066000D204F012C952EF3395E04F70087F7A122E
:10067000E12E0207CD7BFF7AF7791C12C72602070D
:10068000CD1226A160030207D412087E9005D20283
:100690000753122766701A9000F9122707BEFF0849
:1006A000BFFF05E4F012DB497AF7790712088B8067
:1006B0005512278670459000F91225FD703474FF9D
:1006C000F0E49004F8F0A3F09004FCF0A3F012D54D
:1006D000D9EF2412FEE4339004FAF0A3CEF0900494
:1006E000FEE4F0A37408F09005027402F0E49005B3
:1006F00001F07AF7790A12088B800B1226A16003A9
:100700000207D412087E02E14A900620E0640160EC
:10071000030207D4122766701090062112297B7AF3
:10072000F7792E12C7260207CD122786701290067F
:100730002174FF12297B7AF7793112C7260207CD7F
:100740001226A160030207D47F0112D51D1208A151
:100750009006207402F022900C1DE0FF640B6005EF
:10076000EF640A706F12265C90053EF02290050F30
:10077000E0FF640770381227B0502FEF6407705401
:10078000900C3A04F0900C39741012263D12290F87
:100790001228D6500E74292E12266F90080CE004F1
:1007A000F080ED90050F7408F0221226A122900C23
:1007B0001DE0FFF4601E90050FE06409701602ADA5
:1007C0004E900C1DE0F4600C7F3012E12E7F647EB1
:1007D0000012E308227F0112D51D7F647E0012E320
:1007E00008227F0112D51D7F647E0012E308227F5C
:1007F0000112D51D7F647E0012E308227F0112D50D
:100800001D7F647E0012E308227F0112D51D7F64E4
:100810007E0012E308227F0112D51D7F647E001244
:10082000E308227F0112D51D7F647E0012E30822B7
:100830007F0112D51D7F647E0012E308227F011222
:10084000D51D7F647E0012E308227F0112D51D7F33
:10085000647E0012E308227F0112D51D7F647E00B2
:1008600012E308227F0112D51D7F647E0012E30887
:10087000227BFF12C7267F647E0012E308227F01DD
:1008800012D51D7F647E0012E308227BFF12C7266B
:100890007F647E0012E30822900C1DE0FF12B22A52
:1008A000227F647E0012E308229001B5F07F0112DE
:1008B000B12422E709F608DFFA8046E709F208DFEB
:1008C000FA803E88828C83E709F0A3DFFA8032E366
:1008D00009F608DFFA8078E309F208DFFA80708809
:1008E000828C83E309F0A3DFFA806489828A83E043
:1008F000A3F608DFFA805889828A83E0A3F208DF32
:10090000FA804C80D280FA80C680D4806980F280E0
:1009100033801080A680EA809A80A880DA80E28006
:10092000CA803389828A83ECFAE493A3C8C582C85B
:10093000CCC583CCF0A3C8C582C8CCC583CCDFE9C5
:10094000DEE7800D89828A83E493A3F608DFF9EC61
:10095000FAA9F0EDFB2289828A83ECFAE0A3C8C5EC
:1009600082C8CCC583CCF0A3C8C582C8CCC583CC13
:10097000DFEADEE880DB89828A83E493A3F208DF82
:10098000F980CC88F0EF60010E4E60C388F0ED2452
:1009900002B4040050B9F582EB2402B4040050AF55
:1009A000232345822390090373BB010689828A832E
:1009B000E0225002E722BBFE02E32289828A83E41E
:1009C0009322BB010CE58229F582E5833AF583E0A9
:1009D000225006E92582F8E622BBFE06E92582F8C8
:1009E000E222E58229F582E5833AF583E49322BB8E
:1009F000010689828A83F0225002F722BBFE01F3AE
:100A000022F8BB010DE58229F582E5833AF583E8FA
:100A1000F0225006E92582C8F622BBFE05E92582B0
:100A2000C8F222EF8DF0A4A8F0CF8CF0A428CE8DD0
:100A3000F0A42EFE22BC000BBE0029EF8DF084FF37
:100A4000ADF022E4CCF875F008EF2FFFEE33FEECAA
:100A500033FCEE9DEC984005FCEE9DFE0FD5F0E9D1
:100A6000E4CEFD22EDF8F5F0EE8420D21CFEADF0D0
:100A700075F008EF2FFFED33FD4007985006D5F0D5
:100A8000F222C398FD0FD5F0EA22C2D5EC30E70977
:100A9000B2D5E4C39DFDE49CFCEE30E715B2D5E48D
:100AA000C39FFFE49EFE120A35C3E49DFDE49CFC57
:100AB0008003120A3530D507C3E49FFFE49EFE226F
:100AC000C5F0F8A3E028F0C5F0F8E58215827002C1
:100AD0001583E038F022A3F8E0C5F025F0F0E582B8
:100AE000158270021583E0C838F0E822BB010A893C
:100AF000828A83E0F5F0A3E022500687F009E71927
:100B000022BBFE07E3F5F009E3192289828A83E418
:100B100093F5F074019322BB0110E58229F582E57B
:100B2000833AF583E0F5F0A3E0225009E92582F845
:100B300086F008E622BBFE0AE92582F8E2F5F00815
:100B4000E222E5832AF583E993F5F0A3E99322BB3A
:100B5000010789828A83020AC0500B09C5F027F772
:100B6000C5F01937F722BBFE0D09F8E325F0F3C5F0
:100B7000F019E338F322F889828A8374019325F00F
:100B8000C5F0F8E4933822BB010A89828A83F0E534
:100B9000F0A3F0225006F709A7F01922BBFE06F3D6
:100BA000E5F009F31922F8BB0111E58229F582E588
:100BB000833AF583E8F0E5F0A3F0225009E92582B5
:100BC000C8F608A6F022BBFE09E92582C8F2E5F0C6
:100BD00008F222E88FF0A4CC8BF0A42CFCE98EF074
:100BE000A42CFC8AF0EDA42CFCEA8EF0A4CDA8F095
:100BF0008BF0A42DCC3825F0FDE98FF0A42CCD3559
:100C0000F0FCEB8EF0A4FEA9F0EB8FF0A4CFC5F0C2
:100C10002ECD39FEE43CFCEAA42DCE35F0FDE43CBB
:100C2000FC2275F008758200EF2FFFEE33FECD3306
:100C3000CDCC33CCC58233C5829BED9AEC99E5824D
:100C400098400CF582EE9BFEED9AFDEC99FC0FD5D9
:100C5000F0D6E4CEFBE4CDFAE4CCF9A88222B800C9
:100C6000C1B90059BA002DEC8BF084CFCECDFCE594
:100C7000F0CBF97818EF2FFFEE33FEED33FDEC33B8
:100C8000FCEB33FB10D703994004EB99FB0FD8E53D
:100C9000E4F9FA227818EF2FFFEE33FEED33FDEC86
:100CA00033FCC933C910D7059BE99A4007EC9BFC7C
:100CB000E99AF90FD8E0E4C9FAE4CCFB2275F01008
:100CC000EF2FFFEE33FEED33FDCC33CCC833C8102D
:100CD000D7079BEC9AE899400AED9BFDEC9AFCE85B
:100CE00099F80FD5F0DAE4CDFBE4CCFAE4C8F922A8
:100CF000CFF4CFCEF4CECDF4CDCCF4CC22EB9FF517
:100D0000F0EA9E42F0E99D42F0EC6480C86480986D
:100D100045F022EB9FF5F0EA9E42F0E99D42F0E8B3
:100D20009C45F022E8600FECC313FCED13FDEE13BD
:100D3000FEEF13FFD8F122E86010ECA2E713FCED00
:100D400013FDEE13FEEF13FFD8F022E8600FEFC3A0
:100D500033FFEE33FEED33FDEC33FCD8F122BB0163
:100D60000789828A83020F455005E9F8020F39BBD3
:100D7000FE05E9F8020F5189828A83020F5DBB01EB
:100D80000DE58229F582E5833AF583020F45500788
:100D9000E92582F8020F39BBFE07E92582F8020F28
:100DA00051E58229F582E5833AF583020F5DBB01A7
:100DB0000789828A83020E215005E9F8020F6DBB74
:100DC000FE05E9F8020F7922BB010DE58229F582C3
:100DD000E5833AF583020E215007E92582F8020FD8
:100DE0006DBBFE07E92582F8020F79227401FF33FB
:100DF00095E0FEFDFCA3A3A3E0CF2FF0E5821582D2
:100E000070021583E0CE3EF0E582158270021583F4
:100E1000E0CD3DF0E582158270021583E0CC3CF018
:100E200022ECF0A3EDF0A3EEF0A3EFF022A8828570
:100E300083F0D083D082120E44120E44120E44125C
:100E40000E44E473E493A3C583C5F0C583C8C5828B
:100E5000C8F0A3C583C5F0C583C8C582C822BB013D
:100E60000DE58229F582E5833AF583020E2D5007C0
:100E7000E92582F8020F85BBFE07E92582F8020FFB
:100E80009E22A42582F582E5F03583F58322BB01FD
:100E900020E58229F582E5833AF583D0F0D0E0F8A9
:100EA000D0E0F9D0E0FAD0E0FBE8C0E0C0F0020FFB
:100EB000C05018E92582F8D083D082D0E0F9D0E084
:100EC000FAD0E0FBC082C083020FB7BBFE18E92551
:100ED00082F8D083D082D0E0F9D0E0FAD0E0FBC035
:100EE00082C083020FC922D083D082F8E4937012AB
:100EF000740193700DA3A393F8740193F582888312
:100F0000E4737402936860EFA3A3A380DFEF4E60E5
:100F100012EF60010EEDBB010B89828A83F0A3DF23
:100F2000FCDEFA2289F05007F709DFFCA9F022BBAA
:100F3000FEFCF309DFFCA9F022E6FC08E6FD08E66A
:100F4000FE08E6FF22E0FCA3E0FDA3E0FEA3E0FF35
:100F500022E2FC08E2FD08E2FE08E2FF22E493FC44
:100F6000740193FD740293FE740393FF22ECF60860
:100F7000EDF608EEF608EFF622ECF208EDF208EED8
:100F8000F208EFF222D083D082E493F60874019342
:100F9000F608740293F608740393F6740473D0830E
:100FA000D082E493F208740193F208740293F20879
:100FB000740393F2740473EBF608EAF608E9F62278
:100FC000EBF0A3EAF0A3E9F022EBF208EAF208E979
:100FD000F222900828EFF0E4900830F0900828E022
:100FE000FF25E02424F8E6FC08E6FD75F002EFA4F6
:100FF00024CFF582E5F0340AF583E0FEA3E0C39D3B
:10100000FFEE9C900829F0A3EFF0E47F01FEFDFCC9
:10101000900828E0F9F8120D4B8F0F8E0E8D0D8C75
:101020000CAF0112E25E90082EEEF0A3EFF0C39039
:10103000082AE09FEE6480F8900829E064809840D8
:101040000890082B7401F08005E490082BF09008BC
:101050002BE06401600302124E900828E0FF24E7B1
:10106000F582E4340AF583E0C394FA7480948050E6
:101070000D74E72FF582E4340AF583E004F0E50B04
:10108000550FFFE50A550EFEE509550DFDE508551E
:101090000CFCE4FBFAF9F8C3120D136003021214FE
:1010A000900AB3E090082DF012E2F6EF6047E4906A
:1010B000082BF0A3F090082CE0FFC3951050227489
:1010C000E72FF582E4340AF583E0C3940174809439
:1010D00080400690082BE004F090082CE004F0809B
:1010E000D490082BE0C39403748094804007900848
:1010F0002DE0240FF0900828E024E7F582E4340A7C
:10110000F583E0FF90082DE0FEEFC39E500302122E
:1011100014E490082BF012E236EF60030211A19064
:10112000082CF090082CE0FFC39510502C90082854
:10113000E06F601D12E1DB90082CE024E7F582E40B
:10114000340AF583E0C39F400890082B7401F080B7
:101150000890082CE004F080CA12E2F6EF3395E024
:101160004F60030211F290082BE060030211F2A31A
:10117000F090082CE0FFC395105077900828E06F9E
:10118000601712E1DB90082CE024F3F582E4340AC6
:10119000F583E0C39F4002805390082CE004F08068
:1011A000D012E2F6EF3395E04F704790082DF090A3
:1011B000082CF090082CE0FFC39510502274E72F04
:1011C000F582E4340AF583E0C3940274809480408D
:1011D0000690082DE004F090082CE004F080D490F4
:1011E000082DE0C3940374809480400690082B740B
:1011F00001F090082BE064017002D214E50B450F5A
:10120000F50BE50A450EF50AE509450DF509E50872
:10121000450CF508900828E0FF2425F582E4340BFE
:10122000F583E4F074812FF582E4340BF583E4F068
:1012300075F002EFA4240DF582E5F0340BF583E49C
:10124000F0A3F074B62FF582E4340A0215DD90089D
:1012500028E0FF12DEAE900829E0FCA3E0FDD39F5A
:10126000EE6480F8EC6480984012900828E024F343
:10127000F582E4340AF583E004F08015900CE6E092
:1012800004F0900828E024F3F582E4340AF583E4BE
:10129000F0900B68E0FF3395E0FEC3E49FFBE49E13
:1012A000FAC3ED9BEA6480F8EC6480985003021363
:1012B000A6D390082AE09FEE6480F8900829E064A5
:1012C000809840030213A6900828E0FF2425F582A9
:1012D000E4340BF583E4F074B62FF582E4340AF5B8
:1012E00083E4F0FFFEFDFCAB0BAA0AA909A808C322
:1012F000120D1360030214E2900829E0FEA3E0FF40
:10130000900828E075F002A4240DF582E5F0340B76
:10131000F583EE8FF0120AC012E1AF900828E07555
:10132000F002A4240DF582E5F0340BF583E0FCA374
:10133000E0C39FEE6480F8EC648098401390082826
:10134000E0FF25E02424F80806E6187043068040F4
:1013500012E1AFC3E49FFFE49EFE900828E075F021
:1013600002A4240DF582E5F0340BF583E0FCA3E044
:10137000C39FEE6480F8EC64809840030214E2900E
:101380000828E0FF25E02424F808E6161870011666
:1013900075F002EFA4240DF582E5F0340BF583E43B
:1013A000F0A3F00214E2900B68E0FF3395E0FEC377
:1013B000E49FFFE49EFEC390082AE09FEE6480F85D
:1013C000900829E06480984003021458900828E0AF
:1013D000FF2425F582E4340BF583E004F074B62F86
:1013E000F582E4340AF583E4F074252FF582E434C1
:1013F0000BF583E0FF75F00A84E5F07046C3EF94C7
:101400006474809480900828E040142425F582E4D8
:10141000340BF583E4F0D215900B8D04F080242575
:10142000E02424F8C000E6FE08E6FF900B68E0A286
:10143000E713FD3395E0FCC3EF9DFFEE9CD000F673
:1014400008A607900828E0FF900CDFE06F60030219
:1014500014E274FFF00214E2900B68E0FF3395E0B1
:10146000FED390082AE09FEE6480F8900829E0649B
:101470008098406E900828E02425F582E4340BF52E
:1014800083E4F0FFFEFDFCAB0BAA0AA909A808C380
:10149000120D13704D900828E0FF24B6F582E43455
:1014A0000AF583E004F074B62FF582E4340AF5837C
:1014B000E06420702D900828E0FF24B6F582E43423
:1014C0000AF583E4F0900B68E0A2E713A2E713FDAE
:1014D0003395E0FCEF25E02424F808ED26F618EC1F
:1014E00036F6E50B550FFFE50A550EFEE509550DDD
:1014F000FDE508550C4D4E4F70030215F390082E74
:10150000E0FCA3E0FDAE047802CEA2E713CE13D830
:10151000F8FFC3ED9FFFEC9EFEC390082AE09FEE0C
:101520006480F8900829E064809840030215E290F6
:101530000828E02481F582E4340BF583E004F012FE
:10154000E23E90082DEFF0E490082CF090082CE09B
:10155000FFC39510502274E72FF582E4340AF58317
:10156000E0C3940174809480400690082BE004F05E
:1015700090082CE004F080D490082BE0C39403740E
:101580008094804008900AB3E090082DF0900828DD
:10159000E0FB2481F582E4340BF583E0FF90082D15
:1015A000E0FEEFC39E500302166274812BF582E4C5
:1015B000340BF583E4F0AF0FAE0EAD0DAC0C120C96
:1015C000F0E50B5FF50BE50A5EF50AE5095DF50947
:1015D000E5085CF50874E72BF582E4340AF583E44A
:1015E000F022900828E02481F582E4340BF583E0B2
:1015F00014F022900828E024E7F582E4340AF58309
:10160000E4F0FFFEFDFCAB0BAA0AA909A808C3126F
:101610000D137008900828E0FF12A6D3E51014FF00
:10162000900828E06F703B900CE6E0C395104032C4
:10163000E490082CF090082CE0FFC39510501B7428
:10164000E72FF582E4340AF583E0600690082B74F6
:1016500001F090082CE004F080DB90082BE0700291
:10166000C21422900042E4120BA6900896E0FBA35D
:10167000E0FAA3E09008A1F9E0FEA3E0F5828E83F2
:101680001209C2FF900893E0FBA3E0FAA3E0F9225D
:101690009000FC75F01DED120E82EC75F01DA42576
:1016A00083F58322E4F0A3F0A3F0A3F0A3F0A3F06A
:1016B000A3F0A3F0A3F0A3F022900883E0FEA3E040
:1016C000FF7C007D1D120A2390089A74062FF9747E
:1016D000013EFA7B01E4F0A322900883E0FEA3E040
:1016E000FF7C007D1D120A2390089A74092FF9745B
:1016F000013EFA7B01E4F0A3227D1D120A2390082B
:101700009A74FB2FF974003EFA7B01E4F0A3227D6A
:101710001D120A2390089A74FF2FF974003EFA7B79
:1017200001E4F0A3227D1D120A2390089A74032F6E
:10173000F974013EFA7B01E4F0A322900883E0FEF5
:10174000A3E0FF7C007D1D120A2374352FF974017C
:1017500090089A3EFA7B01E4F0A322900AABE47B66
:10176000017A017918F0A322900883E0FEA3E0FF3C
:101770007C007D1D020A237B017A017943E4F0A3FA
:10178000227B017A017960E4F0A3227B017A01795E
:101790003DE4F0A3227B017A01795AE4F0A322E42C
:1017A0007B017A017945F0A322E0F9A3E0FAA3E0F6
:1017B00090088FC9F0A3EAF0A3E9F022900001128B
:1017C00009C2FF900028E48FF0120BA690000212CD
:1017D00009C2FF90002AE48FF0120BA690000312BA
:1017E00009C2FF90002CE48FF0120BA690000412A7
:1017F00009C290002EFFE48FF0020BA6E47B017A71
:10180000017962F0A322EFF0AF037C007D64AE02A9
:10181000120A357F0A7E00CFCDCFCECCCE020A355C
:10182000E47B017A0079FBF0A322900010E475F0CC
:1018300001120BA690088DE4F0A304F0900885E057
:10184000FCA3E0FD7F017E0022E47B017A0079FFAA
:10185000F0A322E47A0179067B01F0A37403F0225D
:10186000E0FBA3E0FAA3E04A4B22E47B017A017992
:101870001CF0A322E47B017A017923F0A322E47B0C
:10188000017A017909F0A322900899E0FEA3E09083
:10189000089DFFE0FCA3E0FD22E47B017A017926AC
:1018A000F0A322E47B017A017903F0A32275F00A08
:1018B000A42DFFE5F03CFE1209C27C002FFFEC3E98
:1018C0009000158FF0120BA6900044120B176401C4
:1018D00045F022E47B017A017920F0A3229008836D
:1018E000E0FEA3E0FF64014E22EEF0A3EFF0E4A3DC
:1018F000F0A3F0EF4E221209C2FF7E007C037DE8C8
:10190000120A23AC06AD07227C002FFFEC3EFEF04E
:10191000A3EFF022CFF0A3EFF07B017A0879362213
:10192000FF1209C2FD12E20AAE0790087F22EEF014
:10193000A3EFF0900885E0FEA3E0FF229400CF24FF
:1019400001FBE43FFAE0FEA3E0FF7C00227B019074
:101950000AABE4F0A322FFE0FD12E10190087F2230
:101960001209C2FFAD0612E10190087F2275F00A4C
:10197000A42DFFE5F03CFE75F01DEB120E82EA226D
:1019800090000E020B1790089DE0FEA3E0FFC3221B
:101990001209C275F064A42DFDEC35F0FC2290080C
:1019A0009AE024FFFE900899E090089D34FFF0A390
:1019B000CEF0229008A5E0FEA3E0FFED6F2290009C
:1019C00005EF120A019000060209C27B0190089AF5
:1019D000F0A37404F022900002EF120A01900003B9
:1019E0000209C2900008EF120A019000090209C220
:1019F000900824E0F9A3E0FAA3E022E0FEA3E0FFD0
:101A0000F5828E830209C2E0FCA3E0F5828C83EFAD
:101A1000020A01FFE0FD12E20A9008AF22FFE0FC9B
:101A2000A3E0FDC39FEC227C002FFFEC3EFEF0A361
:101A3000EFF022900017120B17FFC390088EE09F63
:101A400090088DE095F0228D828C831209C2FF22CE
:101A5000E4F0A3F0A3F022EFF09000070209C27DAA
:101A60000A120A35AF05AE04AD03AC02020A35F026
:101A70009000080209C2F09000050209C2FB75F04F
:101A80001D120E82EA22900010E475F001120BA6DE
:101A900090088EE004F0229000120209C290001318
:101AA000020B17A3ECF0A3EDF0227C277D10020AB5
:101AB000357403F07F37FE227404F07FA67E032284
:101AC0007404F07F327E03227404F07F427E03228E
:101AD0007402F07F3F7E03227402F07F4F7E032268
:101AE000FC7D1D020A23900015020B17900827E0C9
:101AF000FFA3E0900883CFF0A3EFF0227D017BFFEE
:101B00007E00020983900003EF120A019000041284
:101B100009C2FF2290089EE024FFF090089DE03467
:101B2000FFF022900001EF120A019000020209C2A8
:101B3000F090000A0209C2900017120B17FF9008DC
:101B400091E065F022FFE0FD12E20A90087F22E4B6
:101B5000F0A3F0A3F0227403F07F4BFE227403F095
:101B60007F47FE22900883FFE0FCA3E0FD2275F092
:101B700064A42BFFE5F03AFEA3E022900010E4F508
:101B8000F022E0FBA3E0FAA3E0227C007D0A020A37
:101B900035740CF07F737E0322740CF07F857E0316
:101BA000227404F07FA07E0322EFF090000C020963
:101BB000C2900893E0FCA3E022A3F0A37401F0A379
:101BC00022FF900892E5F0F0A3EFF02274FF2DF5CC
:101BD0008274FF3CF58322F58274FF3EF58302098F
:101BE000C29008A1E0FCA3E0FDEF6D2224FFF58286
:101BF00074FF35F0F583227B0190089AF0A37403FB
:101C0000F022A3F0A3F090089A227B0190089AE4B6
:101C1000F0A304F022F090000B0209C2EF120A01B7
:101C20007F0122F58374FFF00F22FFAEF0C3941002
:101C3000EE942722900A31122E4FE4900A3F122D83
:101C400070A3120E2D00000000900A48120E2D0005
:101C5000000000E4900A4CF0A3F0122FE16014128F
:101C60002D5DEA494B6009A3122D60EA494B7003D0
:101C70007F0122900A32122D60EA494B700BA3E0DB
:101C80007002A3E060037F0122E4FD7F0212E158AD
:101C90007D017F0312DC1C7D017F0312DBA67DFF2B
:101CA0007F0912E158E4FD7F0912E1587D077F0AA0
:101CB00012E158E4FD7F0A12E158900BBCE0700A73
:101CC0007D261221B512DBA68020900BBCE06401BA
:101CD00070047D12800E900BBCE0640270047D08DD
:101CE00080027D041221B512DC1C900A37E0FD7CD5
:101CF00000C3940874809480500E900A3EE0FEC3A6
:101D000094087480948040037F0122ED4C7003EEB0
:101D1000601A122188900A37122FE812DC1C900AF0
:101D20003EE05407FD7F2212DC1C800312218890C4
:101D30000A31E0FF64076028EF64086023EF64095C
:101D4000601EEF640A6019EF640F6014EF641160A5
:101D50000FEF6410600AEF64036005EF640270091E
:101D60007D017F1D12DC1C8027900A31E0FF640199
:101D70006007EF6004640470107D017F1D12DBA614
:101D80007D027F1D12DBA6800E7D017F1D12DBA66A
:101D90007D027F1D12DC1C900A31E0FF6405601C8F
:101DA000EF64066017EF640770028010900A31E05C
:101DB000FF64046007EF6004640170107D017F1A06
:101DC00012DBA67D017F2112DBA6800E7D017F1A2A
:101DD00012DC1C7D017F2112DC1C900A31E0FF64C3
:101DE000076005EF640870067D787C058036900AF0
:101DF00031E0FF64056005EF640670067D607C09D4
:101E00008022900A31E0640970087DBC7CE57F0483
:101E10008014900A31E0FF640B6005EF640C700AD7
:101E20007DF87C52E4FFFE021EC8900A31E0FF6498
:101E30000F600FEF6411600AEF640D6005EF640E30
:101E4000700D900BD5E0FF122FF2122DA780799024
:101E50000A31E0FF60136404600FEF6401600AEF71
:101E600064036005EF6402700A74FFFDFC7F037E6B
:101E7000008055900A31E064107050122EAE900B25
:101E8000BDE0FF3395E0FEFDFC120BD3C004C0059E
:101E9000C006C0077F0E122EB3D007D006D005D0E3
:101EA00004C3120D1350077F0E122FF28017122E4B
:101EB000AE900BBDE0FF3395E0EF7F00C454F0FE21
:101EC0003395E0FDFC122DA712CB1E900A31E0FFE6
:101ED00064016007EF60046404707B122FCF6030F0
:101EE000122ED5122FFCE07803CEC313CE13D8F9EF
:101EF0002401FFE43EFE122E21503F122FAF503A34
:101F0000900A32122D6012215270D8122EF180D315
:101F1000122ED5122FFCE07803CEC313CE13D8F9BE
:101F2000122E205015122FAF5010900A32122D6031
:101F300012215270DE122EF180D9122FCF600612BC
:101F40002FE812E158900A35E0FFA3E0900A3FCF56
:101F5000F0A3EFF0802F900A31E0640F700A900B2D
:101F6000BFE0FD7F0612E158122ED5122E19501532
:101F7000122FAF5010900A32122D6012216670EBB2
:101F8000122EF180E6122197122FE170047D02805B
:101F9000027D037F0212E158122FFC122F849E5003
:101FA0007612217A30E5F1900A3FE0FEA3E0FFC30C
:101FB000900A36E09FFF900A35E09EFED3EF941E14
:101FC000EE94004038E4900A41F0900A41E0C39456
:101FD0001E74809480503B900A32122D60900A3F0C
:101FE000E475F001120AD685F082F5831209C2FD6C
:101FF0007F0612E158900A41E004F080CD122E19BC
:102000005010900A32122D6012216670F0122EF1DB
:1020100080EB1221978081122FB712217A20E316CC
:10202000D3900B92E0940F900B91E0940040EBE47E
:10203000F0A3F07F0A221221A6122FE17002FF22E4
:10204000122FB712218120E20F12218120E60912FE
:1020500021BF30E0EE7F0422900A3B122D60E4F5B0
:10206000F0120B871221BF20E2527F0712DD4BEFE7
:1020700030E6F1122ED5900A3B122D60122F9140BE
:10208000037F0722C3EC94017F06500B12DD4B1235
:102090002D4E123003800312DD4B900A3B122D604F
:1020A000122F5F7003122EF1C3900A40E09420902B
:1020B0000A3FE0940040BF1221A680A87F0412DDF1
:1020C0004B900A43EFF07F2612DD4B900B8FEFF021
:1020D000122ED5900A43122F8494005034900A3B5C
:1020E000122D60122F9140037F0722C3EC94017FD1
:1020F00006500B12DD4B122D4E123003800312DD01
:102100004B900A3B122D60122F5F7003122EF1804C
:10211000C2900A31E0FF60136404600FEF64016055
:102120000AEF64036005EF64027007E4900A4CF064
:10213000800A7F0D12DD4B900A4CEFF0900A4CE0C4
:1021400020E70920E20620E10330E0037F05227F3B
:1021500000228D828C831209C2FD7F0612E1589005
:102160000A40E004F0228D828C831209C2FD7F06B2
:1021700012E158900A40E004F0227F0712DD4BEF95
:10218000227F0712DD4BEF227D387F1912DBA67DFF
:10219000077F2212DBA6227D207F0912DC1C7D2016
:1021A0007F0912DBA6227D407F0912DC1C7D407F67
:1021B0000912DBA6227F1B12E1587D207F63227F5C
:1021C0000712DD4BEF22900914122E52A3ECF0A35C
:1021D000EDF0E490091FF0A3F078217C097D017AED
:1021E000E3794D122E0678217C0A7AE4794D7F023C
:1021F000122D9478237C0A7AE4794F7F01122D9472
:10220000900A24122D69122D6F900914122D60EA84
:10221000494B6014900919122D60EA494B6009A3DB
:10222000122D60EA494B70037F0122900BA0E0253C
:10223000E0241FF582E434E3F583E493FE74019314
:10224000FF900A24EEF0A3EFF0D39400EE94014047
:1022500009900A247401F0A3E4F090091C122D6087
:10226000E4F5F0120B87900A29E0F9FFC3900918F2
:10227000E09FFF900917E09400FE900A24E0FCA381
:10228000E0FD24FDFBEC34FFFAD3EF9BEE9A400D0A
:10229000ED24FDA3F0900BBF7412F080119009178C
:1022A000A3E0C399900A26F0900BBF7402F0900B44
:1022B000BFE0122FA1EF4E900BBFF0E4900A2EF07A
:1022C000122E5B900A2FF0900914122D60900A29AB
:1022D000E0FF7E00E92FF9EE3AFAC003900A26E00B
:1022E000FF900A35EEF0A3EF122D2ED0037F0F02E0
:1022F0002505900A30E0FD7C00640A70037F0A2205
:10230000ED64044C7066900A2CE004F0900A2FE013
:10231000602A900A2B122D8B40037F0422900A2CF6
:10232000122D8B40037F0422900A2D122D8B400327
:102330007F0522122D1D122F36022505900A2B1221
:102340002D8B40037F0422900A2C122D8B40037F9B
:102350000422900A2D122D8B40037F0522900B90B2
:10236000E044B2122D23122F36022505900A30E0E8
:1023700064057066900A2DE004F0900A2FE0602A50
:10238000900A2B122D8B40037F0422900A2C122DD1
:102390008B40037F0422900A2D122D8B40037F0572
:1023A00022122D1D122F36022505900A2B122D8B7D
:1023B00040037F0422900A2C122D8B40037F0422BD
:1023C000900A2D122D8B40037F0522900B90E04444
:1023D000B2122D23122F36022505900921E0FEC4EA
:1023E0001313540324FE70030225131470030225F3
:1023F00078240360030225F7900A27E0FCA3E0FDA0
:102400002402FBE43CFAD3EB9400EA940140037FFE
:102410000622EE20E508900921E0FE20E1037F0678
:1024200022EE20E308900921E0FE30E2037F06223D
:10243000122F9E6F60037F0622900BBFE05410C3E3
:102440007001D340037F0622EE6401900B90F0ED03
:1024500024FFFFEC34FFFE90091C122D60EE8FF07C
:10246000120B4F90091FE4F0A304F0900A27E0FE3E
:10247000A3E0FF90091F122E24504774212DF582EE
:1024800074093CF583E0FF900919122D60900A2A27
:10249000E0FD7C00E92DF9EC3AFA900920E024FFF8
:1024A000FD90091FE034FFFCE92DF9EA3CFAEF1238
:1024B00009EF900920E004F070B190091FE004F0EA
:1024C00080A9900A27A3E014FF900A2AE02FF09039
:1024D0000921E030E43A122E5B900A2F04F0900AB2
:1024E0002B122D8B40037F0422900A2C122D8B403F
:1024F000037F0422900A2D122D8B40037F052212A8
:102500002D1D122F36121C34900A30EFF00222F2E9
:102510007F0022900921E030E50320E1037F0622BD
:10252000900921E020E30330E2037F062290092195
:10253000E0FE30E4037F0622900A2FE060037F066E
:1025400022122F9E6F6011900A2EE004F0122D8C43
:1025500050030222C07F0622900BBFE0541070038C
:102560007F0622EE6401900B90F0900A26E0FF9027
:102570000A29E02FF0022266900921E0FE30E003F4
:102580007F0622EE20E208900921E0FE30E3037F7F
:102590000622EE30E10A900921E0543064306003F5
:1025A0007F0622900922E0543FFF900BBDF0339547
:1025B000E0FEC3EF9401EE64809480400BD3EF946F
:1025C0003BEE6480948040037F0622900A2174F2DF
:1025D000F0900BBDE0900A22122F4B7402122D2EA8
:1025E0007A0A79217F10121C34900A30EFF0900A99
:1025F0002BE004F00222F27F062290061CE0FF335B
:1026000095E0FEEF4E2290053BE0FF14F0EFC394FF
:10261000017480948022E490053EF090050F7407C9
:10262000F0E49001B6F09005D57407F022740490A0
:10263000053FF0E4900C3AF0740C900C39F0900CDB
:102640003B7401F022900C25E0FFA3E0FEC39F2223
:10265000740E900556F090055574802290050F7405
:1026600007F09005D5F0E49001B6F02274292FF51B
:1026700082E4340CF58374FFF022FF24FCF58274AD
:10268000FF3EF583ECF0A3EDF074FE2FF58274FFAE
:102690003EF5837401F074FF2FF58274FF3EF583DD
:1026A00022900C1DE0640A2290080374FFF5F012DA
:1026B0000AC0FCC3E5F09401EC9400229000F7E01E
:1026C000FF7E00D394007480948022E4F090053E55
:1026D0007424F09000F5E4F0A37480F02290054B90
:1026E00074FFF5F0120AD6FEC3E5F09401EE2290D5
:1026F000053C740CF090042AE090053DF090053BF9
:102700007480F0229000EFE0FF3395E0FE22900C01
:1027100026E004F022900554E024FFFF900553E0EA
:1027200034FFFE2290080CE0FFC3940C7480948068
:10273000229005417402F0A37480F090054AE06491
:102740000122F09000C8E4F0A3F0A3F022FFE433EC
:10275000FE900C1DE07C00229007FEF0900803E440
:10276000F0A37440F022900C1DE0640122E490007C
:10277000CCF0A37429F0A374A4229000CBC3E094FE
:10278000057480948022900C1DE0640222FF24FCDA
:10279000F58274FF3EF58374FFF0A3F074FE2FF50D
:1027A0008274FF3EF583E42290053F7413F0A32268
:1027B000900C1DE0FDC3940A7480948022E0FEA377
:1027C000E0FFD39400EE2204F0E4900C24F0229079
:1027D0000C24E0FF7E00640222F0A37401F07BFF72
:1027E0007AF7793C229004F1F09004F37440F0E41D
:1027F00022E0C3940474809480227E00900539EE18
:10280000F0A3EFF024FFFFEE34FFFE229005567494
:102810000EF0A3740CF0E422F0A37403F0A3748010
:10282000F07D347F4822900C20E0FCA3E0FD900571
:1028300053ECF0A3EDF02290050F7407F022E004B2
:10284000F0900539E0FCA3E0FDAE0478022290058B
:1028500055E014F02290080CE004F022E075F0043A
:10286000A424D4F974F635F0FA7BFF229007FEE039
:10287000FF7E0022900C1DE0FF7E00640B2290057D
:102880003E7415F0E490053FF090054A229000F860
:10289000E06401227403F0E4900429F0900C24F029
:1028A00022F0900447E04401F022900556E06401D4
:1028B00022900000F0A3F0229005CFE0640122E016
:1028C00014F0900553E0FEA3E0780222A3740EF00A
:1028D0009005D1742622900C39E0FF90080CE0FEA0
:1028E000C39F22E024FFF09000F5E034FFF0229037
:1028F0000446E04480F0229005567402F0E490060D
:102900001DF022F090054B7401F0A37440F022906A
:102910000C29EDF090080C7401F022E4F090019B7A
:1029200074FFF022900C26F0900C2522C3940274C0
:10293000809480229005417402F0A37480F022F00C
:102940009006437411F022E4F0A374C0F022F0E486
:102950009005CFF0227B017A0C79292290055CE06A
:102960006401227B037D037F0322E49000EDF0A34A
:10297000F0A3F022900C1DE0640322F09006207476
:1029800002F07BFF22E490080BF090080AF02290FE
:102990000893EB1217B4E490089B1216B1900899B3
:1029A000E0FCA3E0FD90089FECF0A3EDF01216848C
:1029B000121A9D25E0FBE5F033FAED24FAFFEC3422
:1029C000FFFE7C007D05120A3590EDCB75F0C8ED59
:1029D000120E82EC75F0C8A42583F583E5822BF5F1
:1029E00082E5833AF583E493FE740193FBAA067CA7
:1029F000007D64FF120A359008A1EEF0A3121806BC
:102A0000A3EEF0A3EFF0AE02AF03121B8A121AA3DB
:102A1000E41216B0900899E0FCA3E0FD24F5FEEC6A
:102A200034FF9008ABF0A3CEF090089312186070BA
:102A300002FF22121684121A9DFFAEF0D39400EE0C
:102A400094004008EF9464EE940040037F002290CD
:102A5000089F1219899406EE94004009D3EF940C54
:102A6000EE940040037F0022C002C001900896123D
:102A700019F39008B21217B3121AA3D001D00212A0
:102A8000923A9008AB121989EE9400405BD3EF9410
:102A900002EE940050529008A2E09F9008A1E09EA0
:102AA000500CA3E0240AF09008A1E03400F0D39089
:102AB00008A4E09F9008A3E09E500CA3E0240AF035
:102AC0009008A3E03400F09008ABE0FEA3E0FFD351
:102AD0009008A6E09F9008A5E09E500CA3E0240A71
:102AE000F09008A5E03400F090089DE4F0A304F015
:102AF000121888D39FEC9E50359008A11219B67019
:102B000002EC6E6019A31219B67002EC6E600FA38E
:102B10001219B67002EC6E6005121AA380109008AC
:102B20009EE004F070CA90089DE004F080C2E4903A
:102B3000089DF0A3F0121888C39FEC9E50269008C1
:102B400096121687121A4790089CE02FF090089B67
:102B5000E03400F090089EE004F070D990089DE009
:102B600004F080D1121684121A9764066003022CB6
:102B7000509008ADF0A3F012199E121986EE940041
:102B80004036121BE17002EE6C6028A312188B6FA6
:102B90007002EC6E601D1219B37002EC6E6014A32B
:102BA0001219B67002EC6E600A9008ADECF0A3ED5D
:102BB000F08005121B1480C21216841217BC121A60
:102BC000779000301217F575F00512166390002803
:102BD000120B176F7002E5F06003022D109008963B
:102BE000121B829008A312167790002A120B176FFF
:102BF0007002E5F06003022D10900896121687907F
:102C000008A512167890002C120B176F7002E5F0D1
:102C10006003022D109008961216879008A71216CE
:102C20007890002E120B176F7002E5F06003022DF2
:102C3000109008961216879008AD12167890003002
:102C4000120B176F7002E5F06003022D10022CF3D7
:102C5000121684121A9764076003022CFB12199E45
:102C6000121986EE94004027121BE17002EE6C6090
:102C700019A312188B6F7002EC6E600E1219B370EC
:102C800002EC6E6005121AA38005121B1480D1128B
:102C900016841217BC75F004121663900028120BEC
:102CA000176F7002E5F0706890089612168790080A
:102CB000A312167890002A120B176F7002E5F070BD
:102CC0004F9008961216879008A512167890002C3F
:102CD000120B176F7002E5F0703690089612168787
:102CE0009008A712167890002E120B17B50721E452
:102CF000B5F01D90004475F001801212168490000A
:102D000042E4F5F0120BA6900044E4F5F0120BA695
:102D10001216841218C87F0070027F0122900B9057
:102D2000E044A2900A23F0900A35E4F0A304F0E412
:102D3000A3F07B01A304F0A37409F0A37421F0A312
:102D4000EBF0A3740AF0A37427F0E4A3F022900A36
:102D50003BE0FBA3E0FAA3E0F9120AECFD900A388D
:102D6000E0FBA3E0FAA3E0F922E4F0A3F0A3F0A3D0
:102D7000F0A3F0A3F0A3F0A3F0227D017BFF7E017E
:102D80007F00020983900817E004F0E0D3940274F6
:102D9000809480227D017BFF7E000209837D017B80
:102DA000FFFE7F02020983120BD3EF24B0FFEE3443
:102DB00024FEED3404FDE43CFCE47BFF7AFFF9F8EB
:102DC000120C5EEF24FFFFEE34FFFEED34FFFDEC4E
:102DD00034FFFC900A44120E21900A44A3A3E0FEA3
:102DE000A3E0FF74FFFDFC227D017BFF7E007F03DB
:102DF000020983900A35E4F07402A3F0E4A3F07BA7
:102E000001A304F0A3227BFF7E01FF0209837D0161
:102E10007BFF7E007F1E020983900A35E0FEA3E05F
:102E2000FF900A3FE0FCA3E0FDC39FEC9E22F583E8
:102E3000E0FE74262FF582E43408F583EEF0900866
:102E400020E004F022FF7D017BFFFE0F020983EFEB
:102E5000F0A3EBF0A3EAF0A3E9F022900A2BE4F050
:102E6000A3F0A3F02290081AE0FFD390081CE09F83
:102E700090081BE0940022F0900A35E4F0A304F0DF
:102E80007407A3F0A37401F0A322900818EFF0FDDB
:102E90007C00640A227D017BFF7F06020983900883
:102EA0001AE02420F582E43408F583E0FE22900B3A
:102EB000D5E0FF12DE0EA804A905AA06AB072290F2
:102EC0000818E0FD7C0022E4F0A3F0A3F022A3F0B8
:102ED000A3EBF0A322E4900A3FF0A3F02290082095
:102EE000E0C394057480948022E0C4540FFF540F13
:102EF00022900A3FE004F022F583EEF090081AE0F9
:102F000004F0227D017BFFFE020983E0FFC39404ED
:102F10007480948022135401FFEF0209EFF583E0DF
:102F2000FE74D12FF582E4340BF583EEF022900885
:102F300012EFF0640A227A0A79237F1122A3F0A308
:102F4000EBF0A322E4F0A3F0A3F022F0900A35E422
:102F5000F0A322E0FF7E00D394037480948022E4E7
:102F600075F001120B4F900A40E004F02290081710
:102F7000E0241FF582E43408F583227F647E007D1F
:102F8000007C0022E0FFC3900A40E09F900A3FE0EF
:102F900022120AECFDACF0D39400EC940122EE5422
:102FA00001FF900B90E0FE22900BD57404F022C339
:102FB000ED943DEC940022E4900B91F0A3F022D329
:102FC000940C7480948022EF540F900BD5F02290D3
:102FD0000A36E05407900A4DF022900BC1E06402DB
:102FE00022900A31E0640A22E033333354F8FD7F43
:102FF000192212DE0EE4FB7A10F9F822900A35E06D
:10300000FEA3228D8285F083EF020A01A3F0A3EBD9
:10301000F0A322E4F0A3F0A3F02290053FE0707348
:103020009000D2E0701D90054AE064027015900097
:10303000D5E0700F1227A87407F0A31226D67F3EA2
:1030400002E12E90054AE0FF7E006401700E9000C0
:10305000D5E012292C50028001C35018EF64024EB3
:1030600070289000D4E0C39408748094805002804B
:1030700001C340161227A87406F0A31226D67F5863
:1030800012E12E7F647E0002E30890053F74011276
:1030900027C82290053FE0640170417403122903A0
:1030A000E4900C2412273A700512DD7D800312DDB6
:1030B00017900543EFF0122633E490080CF0122726
:1030C00024500812266C12285580F31227317B52A7
:1030D00070047D4C80027D4E7F66806C90053FE0E1
:1030E0006403600302317A900C3BE06402707390D9
:1030F0000C3AD312277E4053E490080CF090080C51
:10310000E0122729501EE0FF2429F582E4340CF553
:1031100083E0FE74112FF582E4340CF583EEF01297
:10312000285580D912262DE490080CF0122724503F
:103130000812266C12285580F31227317B52700436
:103140007D4C80027D4E7F6802E165740312262F5C
:10315000E490080CF0122724506412266C122855B3
:1031600080F3900C3BE064037002805C1226DD6407
:10317000809480400302330B806790053FE0640435
:103180007067FD7F0512E032900C3B1227D270323F
:10319000900C3AE0D312277F400790053F7405F06A
:1031A0002212262DE490080CF090080CE0FD122766
:1031B00029500B74292D12266F12285580EB1229E5
:1031C0003422EF64034E700D1227A8740CF0A3E4B0
:1031D000F0A304F0221226DD6480948040030233C1
:1031E0000B1227A8740102326E90053FE06405605F
:1031F0000302327A7B0190081004F0A3740CF0A350
:103200007429F07A0C79111280FEEF3395E04F703B
:1032100058122955127ED8EF703F12295590054358
:10322000E0FD12A8AAEF3395E0FEEFF47002EEF491
:10323000600302330B90053F7412F0900541122693
:10324000D67D327F4412E06412273B70059000D592
:1032500080039000D4E004F0221227A87404F0A3A5
:103260001226D67D527F56800E1227A87409F0A32D
:103270001226D67D347F4402E06490053FE064125C
:10328000702D9005411226E09400507F9000D2E00E
:10329000701212273B700D9000D5E064017005128A
:1032A000E13C800312E2A4900447E04402F0229043
:1032B000053FE0641370549005411226E0940050DD
:1032C0004A900540E0FF7E00640C700E9000D2E052
:1032D00070089000D5E0700280119000D2E0700F6D
:1032E00012273B700A9000D5E0700412261722EFD7
:1032F00064064E600E900540E0FF640C6005EF64CC
:1033000007700512273B800012E2A42212C3DC9052
:10331000080E120E2112C89E600712C8B5A3120E25
:1033200021C390050AE09420900509E09400500321
:103330007FFF2230190A12C89E7002C2197FFF2235
:1033400012C8B51271BB20C207E4900CCAF0800607
:10335000900CCA74FFF012C8867009900CCFE07010
:1033600003023461900CBF12C889700B900CCFE03F
:1033700064017003023470900CC012C889700B9005
:103380000CCFE064027003023480900CC112C88933
:10339000700B900CCFE064037003023491900CC268
:1033A00012C889700B900CCFE0640470030234A241
:1033B000900CC312C889700B900CCFE064057003A9
:1033C0000234B3900CC412C889700B900CCFE06427
:1033D0000670030234C4900CC512C889700B900C9F
:1033E000CFE0640770030234D4900CC612C8897011
:1033F0000B900CCFE0640870030234E4900CC71209
:10340000C889700B900CCFE0640970030234F4900B
:103410000CC812C889700B900CCFE0640B700302CB
:103420003504900CC912C889700B900CCFE0640A67
:103430007003023514900CCA12C889700B900CCF1F
:10344000E0640D7003023524900CCE12C889700C14
:10345000A3E0640C7006900CD202353712C8867057
:1034600007900CD2F002353F900CBF12C88970084B
:10347000900CD204F002353F900CC012C88970093C
:10348000900CD27402F002353F900CC112C88970C2
:1034900009900CD27403F002353F900CC212C88917
:1034A0007009900CD27404F002353F900CC312C81E
:1034B000897009900CD27405F002353F900CC4124B
:1034C000C8897008900CD27406F08073900CC512F5
:1034D000C8897008900CD27407F08063900CC612F3
:1034E000C8897008900CD27408F08053900CC712F1
:1034F000C8897008900CD27409F08043900CC812EF
:10350000C8897008900CD2740BF08033900CC912EB
:10351000C8897008900CD2740AF08023900CCA12EB
:10352000C8897008900CD2740DF08013900CCE12E4
:10353000C889900CD27005740CF0800374FFF09071
:103540000CD2E0FF900642F0F470030235CF900CED
:10355000CFE0FD900CD2E0FC6D6015EF640D90089B
:10356000166004ECF0800374FFF0900CCFEC8079CF
:10357000D3900CD1E094C0900CD0E09400500FA3F5
:10358000E004F07006900CD0E004F012C8C4900C77
:10359000D0E0FEA3E0FFD39460EE9400402CEF94C3
:1035A000C0EE9400400EA3E0640D700890081674FD
:1035B0001BF0800312C8C4900CBDE004F0D3947FCC
:1035C000748094804029E4F0802512C8C480209043
:1035D0000CCFE0FF640D9008167004EFF0800374C8
:1035E000FFF0900CD2E0900CCFF0E4A3F0A3F090A9
:1035F0000816E0FF22900848EDF0900845EB1259BC
:103600006790084AEB1259679008451259121251F7
:103610002790084DEFF090084A1259127F05123892
:1036200099C004C005C006C00790084A1259127F0D
:1036300000123899D003D002D001D00012591BC01B
:1036400004C005C006C00790084A1259127F09122B
:1036500038A3D003D002D001D00012591BC004C03F
:1036600005C006C00790084A1259127F0A1238A3F3
:10367000D003D002D001D00012591BC004C005C035
:1036800006C00790084A1259127F0C1238ADD003B9
:10369000D002D001D00012591BC004C005C006C022
:1036A0000790084A1259127F0E1238ADD003D0028B
:1036B000D001D00012591BC004C005C006C007903D
:1036C000084A1259127F0F1238B7D003D002D00126
:1036D000D00012591BC004C005C006C00790084A9C
:1036E0001259127F111238B7D003D002D001D00086
:1036F00012591BC004C005C006C00790084A1259E1
:10370000127F131238C1D003D002D001D000125959
:103710001BC004C005C006C00790084A1259127F9A
:10372000181238C1D003D002D001D00012591BC0EA
:1037300004C005C006C00790084A1259127F19122A
:1037400059AF12BB7ED003D002D001D00012591B5A
:10375000C004C005C006C00790084A1259127F1B5A
:103760001259AF12BB7ED003D002D001D000125943
:103770001BC004C005C006C00790084A1259127F3A
:103780001D1259AF12BB7ED003D002D001D000125F
:10379000591BC004C005C006C00790084A12591240
:1037A0007F231259AF12BB7ED003D002D001D000CC
:1037B00012591BC004C005C006C00790084A125920
:1037C000127F271259AF12BB7ED003D002D001D096
:1037D0000012591BC004C005C006C00790084A1259
:1037E00059127F291259AF12BB7ED003D002D001EB
:1037F000D00012591BC004C005C006C00790084A7B
:103800001259127F2A1259AF12BB7ED003D002D0B8
:1038100001D00012591BC004C005C006C0079008A3
:103820004A1259127F2B1259AF12BB7ED003D0021D
:10383000D001D00012591B90084E120E2190084E54
:1038400012593DFB900849E0600790084DE0FF8069
:10385000027F00900848E0FDED6FFFEB6FFFEAFE8E
:10386000E9FDE8FC90084E120E219008451259120D
:103870007F011259AF12A3AB90084512591290085C
:103880004E1258EDFF900859120E217F2F1259AF9A
:103890001297E390084DE0FF227E007D007C00122D
:1038A000BB7E227E007D007C0012BB7E227E007DDE
:1038B000007C0012BB7E227E007D007C0012BB7E5D
:1038C000227E007D007C0012BB7E227A01793512B7
:1038D000194D7404F07FAD7E0312C650900135E09F
:1038E000F4600FA3E0F4600AA3E0F46005A3E0F441
:1038F0007017E49001351216B190089A12182174CD
:1039000004F07FAD7E03125F8612175B7404F07FB4
:10391000B47E0312C650900152E0F4600FA3E0F4AD
:10392000600AA3E0F46005A3E0F47015E49001528E
:103930001216B17A0179521219CB7FB47E03125F4D
:10394000867A01793912194D7404F07F527E031280
:10395000C650900139E0F4600FA3E0F4600AA3E0E0
:10396000F46005A3E0F47015E49001391216B17A01
:103970000179391219CB7F527E03125F867B017A5F
:1039800001795612194F7404F07F627E0312C650FB
:10399000900156E0F4600FA3E0F4600AA3E0F46045
:1039A00005A3E0F47017E49001561216B17B017A7A
:1039B0000179561219CD7F627E03125F867B017AF0
:1039C00001794012194F7403F07F5BFE12C65090CC
:1039D0000140E0F4600AA3E0F46005A3E0F4701392
:1039E000900140121A507A017940121BF77F5BFE5A
:1039F000125F867B017A01795D12194F7403F07FA3
:103A00006BFE12C65090015DE0F4600AA3E0F46022
:103A100005A3E0F4701390015D121A507A01795DEC
:103A2000121BF77F6BFE125F86900AAB121777743A
:103A300002F07F5F7E0312C650900143E0F4600500
:103A4000A3E0F4701090089A1217777402F07F5F69
:103A50007E03125F86900AAB1217817402F07F6FAB
:103A60007E0312C650900160E0F46005A3E0F4709C
:103A70001090089A1217817402F07F6F7E03125F14
:103A800086900AAB12178B121AB112C65090013DE4
:103A9000E0F4600AA3E0F46005A3E0F4700F90087E
:103AA0009A12178B7403F07F57FE125F86900AAB51
:103AB0001217957403F07F67FE12C65090015AE00A
:103AC000F4600AA3E0F46005A3E0F4700F90089A94
:103AD0001217957403F07F67FE125F86900AAB128F
:103AE000179F121B9112C650900145E0F46037A356
:103AF000E0F46032A3E0F4602DA3E0F46028A3E0DA
:103B0000F46023A3E0F4601EA3E0F46019A3E0F4E2
:103B10006014A3E0F4600FA3E0F4600AA3E0F46093
:103B200005A3E0F470129001451216A4121C0212B3
:103B300017A0121B91125F86900AAB1217FC121B82
:103B40009912C650900162E0F46037A3E0F460324D
:103B5000A3E0F4602DA3E0F46028A3E0F46023A3C5
:103B6000E0F4601EA3E0F46019A3E0F46014A3E0A5
:103B7000F4600FA3E0F4600AA3E0F46005A3E0F4AE
:103B80007013E49001621216A5121C021217FD12A6
:103B90001B99125F862290080CEEF0A3EFF09004C0
:103BA00029E07015741E12976BA37401F0E4A3F062
:103BB000A374FFF07F6C023D4C900429E0641E70FA
:103BC00005741F023D72900429E0641F7063129710
:103BD00058704F9005D1E070089004297420023D80
:103BE0008F9005D1E0FF6403600AEF64026005EF87
:103BF00064F9702B900429741EF01297DC600302A4
:103C00003E3B900425E024FFF0900424E034FFF0D4
:103C1000129724648094804003023E3B023E3102AE
:103C20003CEE129721648094804003023E3B023EAA
:103C300031900429E064207010742112976290047E
:103C400026E0FF12C841023E02900429E064216090
:103C500003023D031297586003023CF49005D1E043
:103C60007052900426E0FF7E0064017020900428CA
:103C7000E0FD3395E0FCED4C7013900426E004F079
:103C80009004297424F090042874FF8020C3EF94DA
:103C900008EE648094809004295010129769A3E084
:103CA00004F0123E3C12E308023D907417F01297A4
:103CB000CB023D909005D1E0FF64066005EF640300
:103CC000702C900427E0C39403748094809004299E
:103CD000500E12976912D945123E3C12E308800734
:103CE0007429F0A3740BF0900427E004F0229004F0
:103CF00029023E20129721648094804003023E3BBB
:103D0000023E31900429E06424700F7425129762FA
:103D10007B32FAFDFC7F0102BD1C900429E0642582
:103D2000704612975870329005D1E0FF7E00700BFC
:103D30009004297429F0A3740AF022EF64094E90CC
:103D40000429701212976912D9457F6E12E12E7FF5
:103D5000967E0002E308023E201297216480948040
:103D60004003023E3B023E31900429E06422700889
:103D7000742312976202DDC6900429E06423702840
:103D800012975870141297DC90042960067422F080
:103D900002D945741E12976B221297216480948079
:103DA0004003023E3B023E31900429E06417700A52
:103DB000741812976212DCAB8048900429E0FF7EF1
:103DC0000064187022129758700F9005D1E090048B
:103DD0002970047419F02280479004241297BC645F
:103DE0008094805056804AEF64194E7019900429CF
:103DF000741A12976290080CE0FCA3E0FD7F011298
:103E0000C2D11297CB22900429E0641A702D129728
:103E10005870159005D1E090042970047428F022A0
:103E20007429F0A3740BF0221297216480948050BF
:103E30000A9004297429F0A37401F0227F6E12E124
:103E40002E7F967E00229000CC1225FD700B9005EF
:103E50003E7427F07F0412B1249005DFE0700674F1
:103E600020F012C09E9005D5E0640470679000EDCC
:103E700074FFF09005DDA3E09000F3F012D9451235
:103E800027439000F8E070047F01802312288D60A2
:103E900003023F11122704BEFF07BFFF047F068005
:103EA0000E9000EE122707BEFF0ABFFF077F041225
:103EB000DDDE805D9000F7E070051240CE8052128A
:103EC00026BC404DEF640170031226269000F7E0F7
:103ED00014F0803D9005D5E0640570351240DA702D
:103EE0000A7F0912DDDE12D9458026E49000EDF04C
:103EF0009000F104F09000F31226CB7F4012E12EE7
:103F00009000C91227F15005E004F0800412276DDB
:103F1000F01264179001B6E0642870629000EE74AD
:103F2000FFF09001B1A3E0049000F212274290004C
:103F3000F8E070047F03807012288D6003023FD385
:103F40009000ED122707BEFF07BFFF047F048058D3
:103F5000122704BEFF07BFFF047F05804B9000F7C8
:103F6000E070051240CE806B1226BC4066EF640103
:103F700070049001B6F09000F7E014F080559001C5
:103F8000B6E06429704DA3E0642B70089000FA74C9
:103F900002F08005E49000FAF01240DA700F900011
:103FA000FAE0640260077F0912DDDE8026E49000FB
:103FB000EEF09000F17403F0E4A31226CC7F4012DF
:103FC000E12E9000C81227F15005E004F0800412A1
:103FD000276DF01277F390050FE0640A706C900083
:103FE000EF74FFF090051DE09000F412274290005E
:103FF000F8E0600E9000F0E0FF64016005EF6402FD
:1040000070109000F0E0640270047F0880507F021E
:10401000804C12288D60030240C29000ED122707E9
:10402000BEFF07BFFF047F0680349000EE12270713
:10403000BEFF07BFFF047F0580247F7A12E12E12A6
:1040400028379000F77480F0807890050FE0640BBB
:10405000703A12DB68EF3395E04F70077F0912DD8D
:10406000DE805FE49000EFF09000F17402F09000C9
:10407000F41226CB7F4012E12E9000CA1227F15095
:1040800005E004F0803C12276DF0803690050FE0CB
:10409000FF7E00640C700E90043DF0A3F090053E8E
:1040A0007426F0801DEF640D4E700512DFDA801269
:1040B00090050FE0641C700A7D327F4412E06412A8
:1040C0002837900455E0640270037404F0227F7A6C
:1040D00012E12E9000F77480F02212DB68EF339526
:1040E000E04F2290080E124B78E4900812F07813FB
:1040F0007C087D017BFF7AF579B9FE124C3F900870
:104100001BF0A3F0A3120E2D0000000090080E1269
:104110004BD34A4B700302436090080EA3A3E0F90F
:104120009000031209C2900811F09000041209C215
:10413000FE90081BE05EF0A3E4F0124CD3FDFF906C
:10414000081CE02FF090081BE03400F0900811E00C
:10415000120EE7417501417C0241AA0341B00441BE
:10416000D30541F70842400941BF0B420810430400
:1041700016000043609004C57401F022124B4440C5
:104180002390080E124ABA124BE56404701690048C
:10419000557402F0900446E04408F09004D1E4F035
:1041A000A37440F09004C502432B9004550243547D
:1041B000ED6003024360900446E054FDF08043123A
:1041C0004B44500302436090080E124ABA124BE56A
:1041D000640122124B44500302436090080E124ABD
:1041E000BA124BE57005124AFF801790080E124A6A
:1041F000BA124BE5640122124B4450030243601291
:104200004AFFE49004C6F022124B4450030243607C
:1042100090080E124ABA124BE56401600302436033
:10422000E9240778E67C047F06124B8A900448E074
:1042300054FDF0E49004C6F0900447E04440F022BE
:10424000124B44500302436090080E124ABA124CBB
:10425000D364197038124BE5643170319000091243
:1042600009C2641570279004C7E06401600302422C
:10427000FF90080EA3A3E0241778C97C04124C37E2
:104280009004C7F0900447E04420F0807290080E3C
:10429000124ABA124BE5643270659004C7E06402BA
:1042A000705D124CD3641160028039E9240D7813DB
:1042B0007C08124C37900812F0900812E0FF7E0044
:1042C000C39408748094805036E0FD24C9F582E4DC
:1042D0003404F583E0FC74132DF582E43408F5838F
:1042E000E06C60089004C87402F08013EF64074E1D
:1042F00070059004C804F0900812E004F080BA90B1
:1043000004C58050124B44405790080E124ABA120E
:104310004BE570449000071209C260046401700FFD
:10432000124CD9703B124B819004D57402F022904C
:10433000080E124ABA9000071209C26402702112D4
:104340004CD9701C9000081209C264107003124B03
:10435000819004D57403F022124CD970037404F0D8
:104360002290087FEB1217B49008891216A49008C7
:104370007F1218607002FF2290087F121687121BAE
:104380007B120BA6C002C0019008821219F390089C
:10439000961217B3900887E0FFA3E0900899CFF03A
:1043A000A3EFF0D001D00212298FEF7002FF22900C
:1043B000087F121687121A9724F9606904600302B5
:1043C00045BE9000061218F6900007121990121AB6
:1043D000709000091218AD60030245CA1219331219
:1043E000B4A9900889EEF0A3EFF090087F12168729
:1043F000121AE6121C2A40030245CA900889121AB2
:104400001E9E5002800FBC2716BD0F13C3EF940BE6
:10441000EE9400500A900010E475F0010245C712B6
:104420001B7B0245C790087F1216871219C575F0CD
:104430000AA4FDACF0121A7775F064A42DFFE5F024
:104440003CFE121A597C002FFFEC3E9000178FF0B3
:10445000120BA69000081218F6900009121990127B
:104460001B3190000B1218AD60030245CA121933BC
:1044700012B5A290088B12192E12B71590088D1242
:10448000192E12B8EF90089112192E12BFDB900866
:104490008FEEF0A3EFF090087F121687121AE61243
:1044A0001C2A40030245CA90088BE0FCA3E0FDC330
:1044B000940FEC94275073C3ED9FEC9E500302457C
:1044C0007490087F121687121AE6FF90088BE06539
:1044D000F07003A3E06F7046121B377003A3E06F08
:1044E000600302457490087F121687121A9DFF9090
:1044F000088FE065F07003A3E06F600612182A12BF
:10450000958E90087F121687121A3340030245CA0F
:10451000121A86700690088DE004F00245AC9008EF
:104520007F121687121B7B0245C790088BE0642719
:104530007004A3E0640F60030245CA90087F12165E
:1045400087121AE6C3940BE5F09400500612182A5D
:1045500012958E90087F121687121AE6FF90088B2C
:10456000E065F07003A3E06F7060121B377003A367
:10457000E06F600512182A804090087F121687129B
:104580001A9DFF90088FE065F07003A3E06F60064E
:1045900012182A12958E90087F121687121A33501D
:1045A00029121A86700690088DE004F090088DE0BC
:1045B000FEA3E0900885121B6712958E800C900870
:1045C0007F121687121B7B120BA690087F1216878C
:1045D0009000101218CB7F0070027F012290087F9C
:1045E000EB1217B4A3EDF090087F1218607003026D
:1045F000484DA3E0640660030246A990087FA3A388
:10460000E0F91219C5121B649000FB75F01D12161B
:1046100097121A57FF121690EF121A6FFF9000FDB3
:10462000121693EFF01219EAFF9000FE121693EFA4
:10463000F09000FB121693E0FF900135121693EFF5
:10464000F0121690E0FF900136121693EFF09000F2
:10465000FD121693E0FF900137121693EFF09000D1
:10466000FE121693E0FF900138121693EFF0ED4C16
:10467000701A9008831219451216F9121BA1125FC5
:104680008612173B7404F07FAD0248481218DD60B3
:104690000302484DFC1216F9121AB8125F8612175F
:1046A0003B7404F07FB4024848900882E0640760DD
:1046B0000302484D90087F121687121A70121B646D
:1046C0009000FF75F01D121697EFF01219EAFF9097
:1046D0000100121693EF121B30FF90010112169386
:1046E000EF121C15FF900102121693EF121A76FFBB
:1046F000900106121693EFF01219C5FF90010712F0
:104700001693121A57FF900108121693EFF0120930
:10471000A9FF900109121693121BA9FE90010A121B
:104720001693EE121A6FFE900139121693EEF012E4
:1047300019EAFE90013A121693EE121B30FE900118
:104740003B121693EE121C15FE90013C121693EECE
:10475000121A76FE900140121693EEF01219C5FE61
:10476000900141121693EE121A58FE900142121651
:1047700093EEF0900143121693121BA9FF9001448F
:10478000121693EFF0ED4C706290088312194512E7
:10479000170F121AC0125F861216B97403F07F3B0E
:1047A000FE125F861216D9121AD0125F861217688F
:1047B00074392FF974011217507404F07F527E037C
:1047C000125F8612176874402FF974011217507423
:1047D00003F07F5BFE125F8612176874432FF97433
:1047E000011217507402F07F5F805D1218DD705D5A
:1047F000FC12170F121AC8125F861216B9121B5636
:10480000125F861216D9121AD8125F8612176874B0
:10481000392FF974011217507404F07F627E03126D
:104820005F8612176874402FF974011217507403D1
:10483000F07F6BFE125F8612176874432FF97401C4
:104840001217507402F07F6F7E03125F8622E4908D
:10485000081CF0A3120E2D00000000900821120E7B
:104860002D00000000E4900825F0A3F030030302BF
:10487000497912E2FF500302496B12D4BF90081D20
:10488000120E21E490081BF090081BE0C395105015
:104890003990081D1285BC7801120D2490081D1254
:1048A0000E2130D720128590C000C00190081B1245
:1048B000857FE0F9F8120D4BD001D0001285C89029
:1048C000081CE004F012860780BE90081CE0FF7E02
:1048D00000C39402748094804018D214EF9403743F
:1048E000809480400512E302800812E236EF6002F5
:1048F000C214201423E4FFFEFDFC128590C3120DA8
:10490000136010900B67E004F07006900B66E004F3
:10491000F0801D1285F38018900B56E004F07006AD
:10492000900B55E004F0900821120E2D00000000BD
:1049300012E1A4D3900B67E09F900B66E09E4006C7
:1049400012E3021285F3D3900B56E0942C900B5592
:10495000E094015003024A9B12E302900B8D740114
:10496000F0E4900B55F0A3F0024A9B90F84AE474EF
:104970000193FF125A97024A9B200403024A6512D0
:104980008590C000C001900B8E12857FE0F9F8126F
:104990000D4BD001D0001285C812851D12860E90D5
:1049A0000825F0A3EFF0900B8EE0FF12E25EAD075A
:1049B000AC06ED7802CEA2E713CE13D8F8FFC3ED14
:1049C0009FFFEC9EFED3900826E09FEE6480F89057
:1049D0000825E06480985058E4900B0BF0A3F09009
:1049E0000ACEE004F09405748094804010E4F0C294
:1049F00003C204900821120E2D00000000E490086C
:104A00001BF090081BE0FFC395104003024A9B1265
:104A10005C4A20031690081BE0FF900B8EE06F604D
:104A20000A90081BE012852D1285DA12860780D2C3
:104A3000E4900ACEF012E1A4900B0BE475F00112A1
:104A40000AC0FCD3E5F09FEC9E405012E302E490D4
:104A50000B0BF0A3F0C203C204900821120E2D002C
:104A60000000008036785406E6D394057480948064
:104A70004004E4F6C203E490081BF090081BE0FF3A
:104A8000C395105016125C4A20030B90081BE0FFE0
:104A900012852D1285DA12860780E0900821128592
:104AA000BC22900812E0FBA3E475F001120AD6A91B
:104AB000F0FA74011209EF900812E0FBA3E0FAA3E8
:104AC000E0F9227D017BFF7E00FF0209837B01E08C
:104AD000FFA3E0CF900885F0A3EFF0221209EF903A
:104AE00000F2E0FF90081575F002E0FBA3E4120A63
:104AF000D6A9F0FA227D017BFFFE7F010209839097
:104B0000044AE0FCA3E0FDA3E0FEA3E0FF90081D43
:104B1000120E21900446E0F8A3E0F9A3E0FAA3E026
:104B2000FB90081DE0FCA3E0FDA3E0FEA3E0FF1264
:104B30000CF0EB5FFFEA5EFEE95DFDE85CFC9004D3
:104B400046020E21D390081CE0940090081BE094CC
:104B500000227D017BFF7E0012098312DF7EEF338E
:104B600095E0FE22F0A37402F0E4A3F07404A3F035
:104B7000E4A3F0A322EFF0A3EBF0A3EAF0A3E9F0A3
:104B800022E9240978D67C047F10F9E43AFA7D0101
:104B90007E00020983A3E024F9FF7B0122FE900836
:104BA0000DE02F2410F582E43408F583EEF0900830
:104BB00074E004F0229004C6E004F0227B017A083D
:104BC000791090080FE0FF900879E4F0A3EFF0224D
:104BD000900812E0FBA3E0FAA3E022EEF0A3EFF0CE
:104BE000A3E4F0A3229000060209C2D390044FE090
:104BF00090044E9400E064809480227431F0E4A329
:104C0000F0A3F0A322EE04FF74102EF582E4340822
:104C1000F58322F583E4F0EC75F008A422F0900807
:104C20000DE02F90080FF0E4900874F02290080D2A
:104C3000E0FF900874E022F9E43AFA7D017E007FFB
:104C400008120983E422900812E0FBA3E475F00146
:104C5000229004D3E0FF3395E0FEEF4E22AD037BBC
:104C6000017A0479E67E007F06020983E0FCA3E076
:104C7000FDEC22E48FF0120B879000F3E0FF900828
:104C80001522D3900454E09400900453E094002241
:104C9000F0900446E04410F022EFF0A3ECF0A3ED16
:104CA000F0A3E4F0A322E0FEA3E0FF7D0022AE0724
:104CB00012DF7EEFFD3395E0FC22E4900792F0A333
:104CC000F022E4900453F0A3F0227D017BFF7E00EC
:104CD0000209839000050209C29004D5E064012214
:104CE000F0A37408F0A3740EF022900447E0FFC410
:104CF00022900805EB125967A3125912125953C09A
:104D000004C005C006C007120AEC781812595BD01F
:104D100003D002D001D00012596FC004C005C006F4
:104D2000C00790080812591212598ED003D002D031
:104D300001D00012596FC004C005C006C00790081A
:104D400008125912125A31D003D002D001D000906B
:104D5000080B1259BE9008051259121259AD12894A
:104D6000F4900810120E2190080F7403F090080BB5
:104D70001258EDFFA3125A14120D24E4AD07900847
:104D800042F090080512591212BD81EF1259D790C6
:104D90000808125912125A51FFE5F0FCED6F125932
:104DA000D78F82F583EC8DF0120BA6E92FF9EA3E3E
:104DB000FAC003C002C0011259CAC007C006900859
:104DC000051259121251277808120D4BD0E06EFED1
:104DD000D0E06FFFD001D002D003EE8FF0120B872E
:104DE00090080F125A7950859008101258ED7818D3
:104DF000125A58125912E41259B6E92408F9E43A41
:104E0000FAC003C002C0011259CAC007C006900808
:104E100008125912900008124F0FD0E04CFFD0E05A
:104E2000D001D002D0031259D19008101258ED7859
:104E300010125A5812591290000A125A09240AF9EB
:104E4000E43AFAC003C002C0011259CAC007C00642
:104E500090080812591290000A124F0FD0E04CFF30
:104E6000D0E0D001D002D0031259D19008101258CE
:104E7000EDFF7808125A5912591290000C125A0973
:104E8000240CF9E43AFAC003C002C0011259CAC0A6
:104E900007C00690080812591290000C124F19D042
:104EA000E04CFFD0E0D001D002D0031259D19008DD
:104EB00010125A8390080812591290000E125A09C3
:104EC000240EF9E43AFAC003C002C0011259CAC064
:104ED00007C00690080812591290000E124F19D000
:104EE000E04CFFD0E0D001D002D0031259D190089D
:104EF00008125A602408F9E43AFAEB125964A31232
:104F00000E2D0000000490080512591202D634122A
:104F10000B17FF12CD9AEFFC22120B17FF12CD9A3E
:104F2000EFFC227D017F04124F2D0D7F04EFF582EF
:104F3000758300C3748094804024D3E58294057403
:104F40008094805019EDF582C374809480400FE501
:104F500082940874809480500575820180039000CB
:104F600000E582640145836003025126EF1460640A
:104F700014700302501914700302505E147003027F
:104F800050A31470030250E524056003025126EB80
:104F900014601D14602D24026003025126A80574BC
:104FA00001088002C333D8FCFF429AEFF4529B22DF
:104FB000A8057401088002C333D8FCFFF4529AEFAD
:104FC000429B22A8057401088002C333D8FCF45226
:104FD0009A529B22EB14601D14602D240260030280
:104FE0005126A8057401088002C333D8FCFF429102
:104FF000EFF4529222A8057401088002C333D8FC52
:10500000FFF45291EF429222A8057401088002C376
:1050100033D8FCF45291529222EB14601D14602D8F
:1050200024026003025126A8057401088002C333DC
:10503000D8FCFF42A1EFF452A222A8057401088017
:1050400002C333D8FCFFF452A1EF42A222A8057498
:1050500001088002C333D8FCF452A152A222EB14FF
:10506000601D14602D24026003025126A8057401FE
:10507000088002C333D8FCFF42B1EFF452B222A839
:10508000057401088002C333D8FCFFF452B1EF422B
:10509000B222A8057401088002C333D8FCF452B1CF
:1050A00052B222EB14601A14602A24027078A80508
:1050B0007401088002C333D8FCFF42C1EFF452C22E
:1050C00022A8057401088002C333D8FCFFF452C142
:1050D000EF42C222A8057401088002C333D8FCF451
:1050E00052C152C222EB14601A14602A2402703694
:1050F000A8057401088002C333D8FCFF42D9EFF43D
:1051000052DA22A8057401088002C333D8FCFFF4E8
:1051100052D9EF42DA22A8057401088002C333D8BD
:10512000FCF452D952DA22900852EB125967A312BA
:105130000E2D00000002900859120E2D00000000F4
:105140001258EA2407125948C004C005C006C00717
:105150001258EA24091258DA240B9008681258DD14
:10516000240D125948125A1CD007D006D005D0047D
:10517000129961A907900C6E1258ED12599F12599D
:1051800033FBC000C001C002C00390085212591284
:10519000A31258ED240F125948C004C005C006C020
:1051A000071258EA24111258DA24131259489008A9
:1051B000681258E72415125948125A1CD007D00615
:1051C000D005D0041253151258ED12599FFC7801E6
:1051D000120D4BD003D002D001D000125928FBC0D1
:1051E00000C001C002C003900852125912A3125805
:1051F000ED2417125948C004C005C006C007125854
:10520000EA24191258DA241B1259489008681258D7
:10521000E7241D125948125A1CD007D006D005D0D9
:10522000041253151258ED12599FFC7802120D4BBF
:10523000D003D002D001D000125928FBC000C00119
:10524000C002C003900852125912A31258ED241F35
:10525000125948C004C005C006C0071258EA2421EC
:105260001258DA24231259489008681258E7242566
:10527000125948125A1CD007D006D005D0041299F2
:1052800061A907900C6E1258ED12599FFC78031219
:105290000D4BD003D002D001D000125928FBC00022
:1052A000C001C002C003900852125912A31258ED57
:1052B0002427125948C004C005C006C0071258EA86
:1052C00024291258DA242B1259489008681258E7FA
:1052D000242D125948125A1CD007D006D005D004EC
:1052E000129961A907900C6A1258ED12599FFC7827
:1052F00004120D4BD003D002D001D00090085912F7
:105300005A22900859A3A3A3E0F9900C721258ED09
:1053100012599FFC22129961A907900C6A22124B24
:10532000EB40030254FB90044A120E2D00000000D3
:10533000900446E0FF5401600AEF54FEF012BCB640
:105340000254D6900446E0FFC3135401600D90044C
:105350004AE04402F012D6E30254D6900446E0FF3D
:1053600013135401600AEF54FBF012D9CA0254D649
:10537000124CEA5401600AEF54EFF012D7D80254ED
:10538000D6900447E0FF1313135401600D90044BB3
:10539000E04408F012E0940254D6900446E0C413AE
:1053A00013135401601290044AE04480F0900452B8
:1053B000E0FF12DFEC0254D6900446E0C4540160D2
:1053C0001590044AE04410F0900453E0FEA3E0FF7F
:1053D00012DE3E0254D6900446E0FFC4135401602E
:1053E0000D90044AE04420F012BDE60254D6900429
:1053F00046E0FFC413135401600D90044AE044409A
:10540000F012DE980254D6900448E0FFC313540112
:10541000600D90044CE04402F012E0B40254D690C7
:105420000447E0C41313135401600F90044BE0448D
:1054300080F07F2012DFFE0254D6900448E0540131
:10544000600F90044CE04401F07F2112DFFE025413
:10545000D6124CEA131354016020EF54BFF09004AD
:10546000D57401F09004ECE4F0A37460F07B017A51
:105470000C79297D0A12E172805C900446E0FF13EA
:1054800013135401600C90044AE04408F012D42A2B
:105490008044900447E05401600E90044BE04401C6
:1054A000F07F19128CC7802E900447E0C31354017B
:1054B000600E90044BE04402F07F1A128CC78016F5
:1054C000900447E013135401601290044BE044042D
:1054D000F07F1B128CC790044EE4801A124CEA1322
:1054E0005401601790044BE04420F012E0A4E490D3
:1054F00004D4F090044EF0A37410F0124BEB400C67
:10550000A3E024FFF090044EE034FFF02290041753
:10551000E060030255989000D2E070459000D5E01D
:10552000703F90053E741512290390053F740312D5
:1055300027C890054304F090054A122632E49008EB
:105540000CF090080C122727500B12266C90080CB8
:10555000E004F080ED1229347B527D4C7F6602E13D
:105560006512263390050F7409F0E490080CF09052
:105570000C39E0FF90080CE0FEC39F500E74292EFA
:1055800012266F90080CE004F080E4900417740178
:105590001226657F5A02E12E900417E06401600331
:1055A0000256A47D107F0612E032900C3BE06402AC
:1055B000704B9004177403F0122955127ED8900492
:1055C00020EFF0600FC39403748094805006900421
:1055D000177402F0122837900417E0640370157FE7
:1055E0004012E12E90041F7480F012277A501FE0C1
:1055F00004F0801A7D327F5A12E0648011900C3BD7
:10560000E0640370099004177404F01228371264E0
:10561000179001B6E064287029C39001B2E0940AA3
:105620009001B1E09400501A90041774021226659C
:105630007D327F5A12E0649001B57401F07F03025D
:1056400056F49001B6E0FF64296022EF64286003FD
:105650000256F79001B2E02401FF9001B1E034005E
:10566000FED3EF940AEE940050030256F79001B770
:10567000E0642B90042170057402F080037401F043
:10568000E49001B6F09004177403F090041F748046
:10569000F07F4012E12E7F0212B12412277A505778
:1056A000E004F022900417E06402700912E13CE487
:1056B0009000CBF022900417E06403702190041F47
:1056C000E014F012260E502F12277A4006E4A3129F
:1056D0002771F012265C90053EF07F018016900441
:1056E00017E0640470117F6012E12E12265C9005B1
:1056F0003EF07F0112B12422900AAB121820121B37
:10570000A112C6509000FBE0F4600FA3E0F4600A21
:10571000A3E0F46005A3E0F47017E49000FB121618
:10572000B17B017A0079FB1219CD7FA07E03125F55
:105730008612175B121AB812C650900118E0F46076
:105740000FA3E0F4600AA3E0F46005A3E0F4701393
:10575000E49001181216B190089A12175F121AB845
:10576000125F86900AAB121849121AC012C65090E6
:1057700000FFE0F4600FA3E0F4600AA3E0F460052A
:10578000A3E0F47013E49000FF1216B190089A128F
:10579000184A121AC0125F86900AAB12186A121ABF
:1057A000C812C65090011CE0F4600FA3E0F4600A38
:1057B000A3E0F46005A3E0F47013E490011C12165A
:1057C000B190089A12186B121AC8125F86900AAB31
:1057D0001218537F3BFE12C650900106E0F4600A97
:1057E000A3E0F46005A3E0F47012900106121B4FD1
:1057F00090089A1218547F3BFE125F86900AAB12F3
:105800001874121B5612C650900123E0F4600AA3CC
:10581000E0F46005A3E0F47012900123121B4F9096
:10582000089A121875121B56125F86900AAB12184E
:105830007E121AD012C650900109E0F46005A3E070
:10584000F47010E4900109121C0312187F121AD090
:10585000125F86900AAB121899121AD812C650908D
:105860000126E0F46005A3E0F47010E49001261234
:105870001C0312189A121AD8125F86900AAB1218DB
:10588000A3121AB112C650900103E0F4600AA3E01B
:10589000F46005A3E0F47011E4900103F0121C021F
:1058A0001218A4121AB1125F86900AAB1218D31202
:1058B0001B5D12C650900120E0F4600AA3E0F46082
:1058C00005A3E0F47011E4900120F0121C021218FC
:1058D000D4121B5D125F860238CB900864FFE43E51
:1058E000FEE43DFDE43CFC120E21900855E0FCA3D3
:1058F000E0FDA3E0FEA3E022E47F02FEFDFC9008B1
:105900003AE0F8A3E0F9A3E0FAA3E0FB120BD3908E
:10591000082FE0FBA3E0FAA3E0F922EF6BFFEE6AA9
:10592000FEED69FDEC68FC22EB4FFFEA4EFEE94D0F
:10593000FDE84CFC900859120E21900859E0F8A39C
:10594000E0F9A3E0FAA3E022FFE43EFEE43DFDE43B
:105950003CFC22900002120B177810FF7E00E4FC42
:10596000FD020D4B900817F0A3EAF0A3E9F022EF37
:105970004BFFEE4AFEED49FDEC48FC22900870EB2F
:105980004FFFEA4EFEE94DFDE84CFC020E2190006F
:1059900004120B177808FF7E00E4FCFD020D4BFF9C
:1059A000A801120D24EF5401FFE4FEFD227F407E8A
:1059B000007D007C00229000088FF0020BA6EF4BC8
:1059C000FFEAFEE9FDE8FC020E21120AECFFAEF050
:1059D00022CF8FF0020B87FD90080FE0FF3395E098
:1059E000FEC374039FFFE49EFEEF25E0FFEE33FE4F
:1059F00022FFE4FAF9F8EF2401FFEA3EFEE93DFD5B
:105A0000E83CFC90083A020E21E48FF0120BA6E964
:105A100022900827E075F008A4F9F82290086C029B
:105A20000E21EB4FFFEA4EFEE94DFDE84CFC020E65
:105A300021900006120B17FF22EF4BFFEAFEE9FD53
:105A4000E8FC020E216FFFEA6EFEE96DFDE86CFCDA
:105A5000228F828E83020B17FF120D2490080822DA
:105A6000E0FBA3E0FAA3E022FF7E00E4FCFD78184F
:105A7000020D4B90081F020E21E014F0E0C3648079
:105A8000948022E0FCA3E0FDA3A3E0FF22E49008C1
:105A900022F0FFFEFDFC22900827EFF0900CE4E0DE
:105AA000C39403748094804048E4F0900B8DE070C0
:105AB00035900828F0900828E0C395105028E0FFA2
:105AC00075F002A42469F582E5F0340BF583E0FC5F
:105AD000A3E0FDEF25E02424F8A60408A60590081D
:105AE00028E004F080CF12BC4FC215E4900B8DF07B
:105AF00022900CDEE004F0900827E0FF900CDEE03E
:105B0000B5070812D35FE4900CDFF0900827E0FFA0
:105B1000900CDEE0D39F5003025C49E4900828F02B
:105B2000900828E0C395104003025BF5E0FF75F094
:105B300002A42469F582E5F0340BF583E0FCA3E0D0
:105B4000FD75F002EFA424CFF582E5F0340AF58369
:105B5000E0FEA3E0C39DFFEE9CAD07FC900B8DE043
:105B60007042900B68E0FB3395E0FAFEEB7802C3DD
:105B700033CE33CED8F9FFD3ED9FEE6480F8EC64DA
:105B800080984060E49BFFE49AFEEF7802C333CE36
:105B900033CED8F9FFC3ED9FEE6480F8EC648098B3
