:03000000026DD0BE
:03000B00028C76EE
:030013000290D880
:03001B0002851A41
:03003300029C3CF0
:03004B00028D36ED
:03005B00028E64AE
:03006B00028F8978
:03007B000287CB2E
:0300830002872DC4
:03008B0002946973
:10010000900502E06003020768122043900BD0EFD5
:10011000F0F460031294AD90053EE01219230170D3
:100120000002550102960202F00503240603600B4B
:1001300004160C042B0D04360E045C0F0475100419
:100140008012049A1304A71404D115051616052964
:100150001705531A06A21C057F1D05B71F07552753
:1001600005CA2807012C062B2D06EB2E0000076878
:10017000900BD0E0FF640D6011EF641B700C9005D4
:100180003E741AF09004F17403F090050FE0FF64E0
:1001900007600302022C121E8E5033EF64076003C7
:1001A000020768900BED04F07410121D17121FD295
:1001B000121FA1500E74DC2E121D4C90080CE0048E
:1001C000F080ED90050F7408F07F01029275121D0A
:1001D0009270217F0112927590019B121DE4BEFF67
:1001E00006BFFF03E4F022E4900507F0A3F09005BA
:1001F0000C04F022900BD0E0640B600302076890BF
:10020000019B121CDA70127F0112927590053E74E8
:100210001FF0900417121FDE221294F0900505E4DF
:10022000F0A37496F090053E7420F022900BD0E07D
:10023000FFF47003020768EF640C70030207681292
:100240001FE090050FE0640960030207687F011258
:1002500092750205C2121E78700302046F121E7F8F
:10026000700302054D12202870030204CB900BD0BE
:10027000E0640470030205B1121D92600302076876
:1002800012081B121D397F60129AD77F647E0012FC
:100290009C8BE40206FC900BD0E0FF6401600AEF47
:1002A00064026005EF64037004E412081B121E78F8
:1002B000700E120769E490053CF090053E02035170
:1002C000121E7F700E120769E490053CF090053E07
:1002D0000204BE122028700D120776121FFB900533
:1002E0003E740EF022121D92600302076802041091
:1002F000121E78700F12077690053E7412F0E4908B
:10030000016FF022121E7F701012078390053E7459
:1003100014F09004F5740AF022121D926003020793
:1003200068020410121E787009120783121F52040B
:10033000F022121E7F7009120790121F520206E768
:10034000122028701012079090053E7417F0900646
:1003500046740FF022121D92600302076802041017
:10036000E490080DF0E02401121E2AB5070EECB54A
:10037000060A12079D90053E741D801890080DE036
:100380002402121E2AB50710ECB5060C12079D9028
:10039000053E742DF0E4803E90080DE02403121E0B
:1003A0002AB50714ECB506101207AA90053E74286A
:1003B000F0E49005D2F0801E90080DE02404121E97
:1003C0002AB5071CECB506181207AA90053E741C46
:1003D000F0E4900620F0900BD9F0900BD802057154
:1003E00090080DE02405121E2AB5071CECB506186E
:1003F0001207B790053E741AF0E49004F1F0900BE8
:10040000D9F0900BD80206E7121D9260030207682C
:100410001207B7029AF390053CE0640170031208DA
:1004200012121D9260030207688044121F75600358
:10043000020768020521900643E064086003020792
:1004400068121F48700B900644F09006437409F040
:1004500022EF640A4E6003020768801390053CE0B7
:1004600064017003120812121D92600302076812E1
:1004700007C4029C27121F7560030207680205214A
:1004800090016FE064017008900BD0E0FF12789B40
:10049000121D92600302076880319001A3E064019D
:1004A0006003020768807A9004F5E0640B60030241
:1004B0000768121F48700B9004F6F09004F5740C56
:1004C000F022EF640A4E60030207681207C4029C20
:1004D0003590053FE06401700A900BD0E0FF127880
:1004E0009B801A90053FE064037002800890053FEE
:1004F000E064047008900BD0E0FF1274D39000D237
:10050000E070099000D5E07003020768121D926048
:10051000030207688037900558E064016003020712
:1005200068900BD0E0FF02789B900646E064106074
:1005300003020768121F48700B900647F0900646AA
:100540007411F022EF640A4E60030207681207D1AB
:10055000029C2E9004F1E064016003020768900B96
:10056000D0E0640B700F1207D1E49004F2F0900415
:10057000F17403F022121D926003020768803212A8
:100580001E78700D7AA479671207DEE49001AD80C1
:1005900011121E7F70137AA4796A1207DE9001ADE2
:1005A00074FFF012932E02069F121D926003020741
:1005B000681207EB02069F900417E06401600302D3
:1005C0000768900BD0E0FF0207529005D2E064016B
:1005D0006003020768121E7870139000F8F090050F
:1005E000D27402F07BFF7AA479910206BC121E7FBE
:1005F00070289000F804F09005D204F0128B6FEF91
:100600003395E04F70087F7A129AD70207617BFF1B
:100610007AA479941289CE020761121D92600302B6
:1006200007681207EB9005D20206E7121E78701ACF
:100630009000F9121DE4BEFF08BFFF05E4F012961A
:10064000AF7AA4797F1207F88055121E7F7045900B
:1006500000F9121CDA703474FFF0E49004F8F0A38F
:10066000F09004FCF0A3F01292D3EF2412FEE433D6
:100670009004FAF0A3CEF09004FEE4F0A37408F026
:100680009005027402F0E4900501F07AA4798212D8
:1006900007F8800B121D926003020768120805021A
:1006A0009B01900620E064016003020768121E7837
:1006B000701090062112202F7AA479A61289CE02FA
:1006C0000761121E7F701290062174FF12202F7A8C
:1006D000A479A91289CE020761121D926003020754
:1006E000681208059006207402F022900BD0E0FFFB
:1006F000640B6005EF640A706F121D3990053EF0BF
:100700002290050FE0FF64077038121E8E502FEF05
:1007100064077054900BED04F0900BEC7410121DF4
:100720001A121FD2121FA1500E74DC2E121D4C90F3
:10073000080CE004F080ED90050F7408F022121D03
:100740009222900BD0E0FFF4601E90050FE0640948
:1007500070160274D3900BD0E0F4600C7F30129AC4
:10076000D77F647E00129C8B227F011292757F647A
:100770007E00129C8B227F011292757F647E001294
:100780009C8B227F011292757F647E00129C8B22CB
:100790007F011292757F647E00129C8B227F011272
:1007A00092757F647E00129C8B227F011292757F6E
:1007B000647E00129C8B227F011292757F647E0002
:1007C000129C8B227F011292757F647E00129C8B9B
:1007D000227F011292757F647E00129C8B227BFF28
:1007E0001289CE7F647E00129C8B227F011292754B
:1007F0007F647E00129C8B227BFF1289CE7F647EF9
:1008000000129C8B227F011292757F647E00129CE5
:100810008B22900BD0E0FF12789B229001B5F07FE5
:100820000112781822900828EFF0E4900830F09038
:100830000828E0FF25E02424F8E6FC08E6FD75F032
:1008400002EFA424CFF582E5F0340AF583E0FEA39D
:10085000E0C39DFFEE9C900829F0A3EFF0E47F0138
:10086000FEFDFC900828E0F9F81218928F0F8E0E0A
:100870008D0D8C0CAF01129BE890082EEEF0A3EFCB
:10088000F0C390082AE09FEE6480F8900829E064A5
:100890008098400890082B7401F08005E490082BA4
:1008A000F090082BE064016003020AA1900828E0A0
:1008B000FF24E7F582E4340AF583E0C394FA7480F8
:1008C0009480500D74E72FF582E4340AF583E00438
:1008D000F0E50B550FFFE50A550EFEE509550DFD38
:1008E000E508550CFCE4FBFAF9F8C312186E600336
:1008F000020A67900AB3E090082DF0129C79EF602D
:1009000047E490082BF0A3F090082CE0FFC395106B
:10091000502274E72FF582E4340AF583E0C3940192
:1009200074809480400690082BE004F090082CE03E
:1009300004F080D490082BE0C3940374809480402A
:100940000790082DE0240FF0900828E024E7F582B6
:10095000E4340AF583E0FF90082DE0FEEFC39E50DB
:1009600003020A67E490082BF0129BC8EF600302B1
:1009700009F490082CF090082CE0FFC39510502C3F
:10098000900828E06F601D129B6D90082CE024E712
:10099000F582E4340AF583E0C39F400890082B7485
:1009A00001F0800890082CE004F080CA129C79EFD6
:1009B0003395E04F6003020A4590082BE060030284
:1009C0000A45A3F090082CE0FFC3951050779008DB
:1009D00028E06F6017129B6D90082CE024F3F582DD
:1009E000E4340AF583E0C39F4002805390082CE072
:1009F00004F080D0129C79EF3395E04F7047900857
:100A00002DF090082CF090082CE0FFC39510502298
:100A100074E72FF582E4340AF583E0C3940274800E
:100A20009480400690082DE004F090082CE004F03B
:100A300080D490082DE0C394037480948040069085
:100A4000082B7401F090082BE064017002D214E5C9
:100A50000B450FF50BE50A450EF50AE509450DF5C1
:100A600009E508450CF508900828E0FF2425F582E3
:100A7000E4340BF583E4F074812FF582E4340BF554
:100A800083E4F075F002EFA4240DF582E5F0340B59
:100A9000F583E4F0A3F074B62FF582E4340A020E75
:100AA00030900828E0FF1298ED900829E0FCA3E0C0
:100AB000FDD39FEE6480F8EC648098401290082883
:100AC000E024F3F582E4340AF583E004F080159025
:100AD0000C4BE004F0900828E024F3F582E4340A9B
:100AE000F583E4F0900B68E0FF3395E0FEC3E49FEC
:100AF000FBE49EFAC3ED9BEA6480F8EC64809850B6
:100B000003020BF9D390082AE09FEE6480F8900866
:100B100029E06480984003020BF9900828E0FF2444
:100B200025F582E4340BF583E4F074B62FF582E406
:100B3000340AF583E4F0FFFEFDFCAB0BAA0AA90919
:100B4000A808C312186E6003020D35900829E0FE54
:100B5000A3E0FF900828E075F002A4240DF582E5DB
:100B6000F0340BF583EE8FF0121694129B4C900824
:100B700028E075F002A4240DF582E5F0340BF5832E
:100B8000E0FCA3E0C39FEE6480F8EC64809840131F
:100B9000900828E0FF25E02424F80806E6187043B2
:100BA000068040129B4CC3E49FFFE49EFE90082801
:100BB000E075F002A4240DF582E5F0340BF583E036
:100BC000FCA3E0C39FEE6480F8EC648098400302CD
:100BD0000D35900828E0FF25E02424F808E61618D3
:100BE00070011675F002EFA4240DF582E5F0340BC8
:100BF000F583E4F0A3F0020D35900B68E0FF339528
:100C0000E0FEC3E49FFFE49EFEC390082AE09FEE4F
:100C10006480F8900829E06480984003020CAB904F
:100C20000828E0FF2425F582E4340BF583E004F086
:100C300074B62FF582E4340AF583E4F074252FF5B9
:100C400082E4340BF583E0FF75F00A84E5F070462A
:100C5000C3EF946474809480900828E040142425A5
:100C6000F582E4340BF583E4F0D215900B8D04F09B
:100C7000802425E02424F8C000E6FE08E6FF900B5F
:100C800068E0A2E713FD3395E0FCC3EF9DFFEE9C07
:100C9000D000F608A607900828E0FF900C44E06F0B
:100CA0006003020D3574FFF0020D35900B68E0FF14
:100CB0003395E0FED390082AE09FEE6480F8900818
:100CC00029E0648098406E900828E02425F582E4AD
:100CD000340BF583E4F0FFFEFDFCAB0BAA0AA90977
:100CE000A808C312186E704D900828E0FF24B6F5CE
:100CF00082E4340AF583E004F074B62FF582E4341C
:100D00000AF583E06420702D900828E0FF24B6F5F2
:100D100082E4340AF583E4F0900B68E0A2E713A2C2
:100D2000E713FD3395E0FCEF25E02424F808ED26D9
:100D3000F618EC36F6E50B550FFFE50A550EFEE505
:100D400009550DFDE508550C4D4E4F7003020E463A
:100D500090082EE0FCA3E0FDAE047802CEA2E713DB
:100D6000CE13D8F8FFC3ED9FFFEC9EFEC390082A78
:100D7000E09FEE6480F8900829E0648098400302C8
:100D80000E35900828E02481F582E4340BF583E0E9
:100D900004F0129BD090082DEFF0E490082CF09016
:100DA000082CE0FFC39510502274E72FF582E4343D
:100DB0000AF583E0C3940174809480400690082B68
:100DC000E004F090082CE004F080D490082BE0C3FD
:100DD0009403748094804008900AB3E090082DF04A
:100DE000900828E0FB2481F582E4340BF583E0FFD2
:100DF00090082DE0FEEFC39E5003020EB574812BC8
:100E0000F582E4340BF583E4F0AF0FAE0EAD0DAC1C
:100E10000C121861E50B5FF50BE50A5EF50AE509B2
:100E20005DF509E5085CF50874E72BF582E4340A02
:100E3000F583E4F022900828E02481F582E4340B65
:100E4000F583E014F022900828E024E7F582E434EA
:100E50000AF583E4F0FFFEFDFCAB0BAA0AA909A882
:100E600008C312186E7008900828E0FF126D31E573
:100E70001014FF900828E06F703B900C4BE0C39576
:100E8000104032E490082CF090082CE0FFC395103D
:100E9000501B74E72FF582E4340AF583E060069076
:100EA000082B7401F090082CE004F080DB90082BF4
:100EB000E07002C21422900042E4121717900896C4
:100EC000E0FBA3E0FAA3E09008A1F9E0FEA3E0F5BF
:100ED000828E83121596FF900893E0FBA3E0FAA39D
:100EE000E0F9229000FC75F01DED121917EC75F079
:100EF0001DA42583F58322E4F0A3F0A3F0A3F0A3BF
:100F0000F0A3F0A3F0A3F0A3F0A3F022900883E0F5
:100F1000FEA3E0FF7C007D1D1215F790089A740671
:100F20002FF974013EFA7B01E4F0A322900883E0DC
:100F3000FEA3E0FF7C007D1D1215F790089A74094E
:100F40002FF974013EFA7B01E4F0A3227D1D1215F6
:100F5000F790089A74FB2FF974003EFA7B01E4F0D5
:100F6000A3227D1D1215F790089A74FF2FF97400C3
:100F70003EFA7B01E4F0A3227D1D1215F790089A3A
:100F800074032FF974013EFA7B01E4F0A322900868
:100F900083E0FEA3E0FF7C007D1D1215F774352F62
:100FA000F9740190089A3EFA7B01E4F0A322900ABA
:100FB000ABE47B017A017918F0A322900883E0FE6C
:100FC000A3E0FF7C007D1D0215F77B017A017943C8
:100FD000E4F0A3227B017A017960E4F0A3227B0193
:100FE0007A01793DE4F0A3227B017A01795AE4F099
:100FF000A322E47B017A017945F0A322E0F9A3E082
:10100000FAA3E090088FC9F0A3EAF0A3E9F02290D8
:101010000001121596FF900028E48FF01217179028
:101020000002121596FF90002AE48FF01217179015
:101030000003121596FF90002CE48FF01217179002
:10104000000412159690002EFFE48FF0021717E4AB
:101050007B017A017962F0A322EFF0AF037C007D7F
:1010600064AE021216097F0A7E00CFCDCFCECCCE61
:10107000021609E47B017A0079FBF0A322900010AC
:10108000E475F00112171790088DE4F0A304F090B6
:101090000885E0FCA3E0FD7F017E0022E47B017A6D
:1010A0000079FFF0A322E47A0179067B01F0A374B2
:1010B00003F022E0FBA3E0FAA3E04A4B22E47B0129
:1010C0007A01791CF0A322E47B017A017923F0A351
:1010D00022E47B017A017909F0A322900899E0FECD
:1010E000A3E090089DFFE0FCA3E0FD22E47B017AF1
:1010F000017926F0A322E47B017A017903F0A3228F
:1011000075F00AA42DFFE5F03CFE1215967C002F29
:10111000FFEC3E9000158FF0121717900044121646
:10112000C0640145F022E47B017A017920F0A3221A
:10113000900883E0FEA3E0FF64014E22EEF0A3EFEF
:10114000F0E4A3F0A3F0EF4E22121596FF7E007C90
:10115000037DE81215F7AC06AD07227C002FFFECEB
:101160003EFEF0A3EFF022CFF0A3EFF07B017A0870
:10117000793622FF121596FD129BA5AE0790087FC7
:1011800022EEF0A3EFF0900885E0FEA3E0FF2294AA
:1011900000CF2401FBE43FFAE0FEA3E0FF7C002245
:1011A0007B01900AABE4F0A322FFE0FD129AB99014
:1011B000087F22121596FFAD06129AB990087F2279
:1011C00075F00AA42DFFE5F03CFE75F01DEB121939
:1011D00017EA2290000E0216C090089DE0FEA3E0E0
:1011E000FFC32212159675F064A42DFDEC35F0FCBA
:1011F0002290089AE024FFFE900899E090089D3420
:10120000FFF0A3CEF0229008A5E0FEA3E0FFED6F73
:1012100022900005EF1215D59000060215967B016D
:1012200090089AF0A37404F022900002EF1215D5F2
:10123000900003021596900008EF1215D590000952
:10124000021596900824E0F9A3E0FAA3E022E0FE5C
:10125000A3E0FFF5828E83021596E0FCA3E0F58201
:101260008C83EF0215D5FFE0FD129BA59008AF22FD
:10127000FFE0FCA3E0FDC39FEC227C002FFFEC3ECF
:10128000FEF0A3EFF0229000171216C0FFC39008E3
:101290008EE09F90088DE095F0228D828C83121550
:1012A00096FF22E4F0A3F0A3F022EFF090000702F3
:1012B00015967D0A121609AF05AE04AD03AC020205
:1012C0001609F0900008021596F090000502159698
:1012D000FB75F01D121917EA22900010E475F00159
:1012E00012171790088EE004F02290001202159653
:1012F0009000130216C0A3ECF0A3EDF0227C277D32
:10130000100216097403F07F37FE227404F07FA6E2
:101310007E03227404F07F327E03227404F07F4245
:101320007E03227402F07F3F7E03227402F07F4F1F
:101330007E0322FC7D1D0215F79000150216C09059
:101340000827E0FFA3E0900883CFF0A3EFF0227D11
:10135000017BFF7E00021557900003EF1215D59018
:101360000004121596FF2290089EE024FFF09008DA
:101370009DE034FFF022900001EF1215D59000029D
:10138000021596F090000A0215969000171216C0EA
:10139000FF900891E065F022FFE0FD129BA5900808
:1013A0007F22E4F0A3F0A3F0227403F07F4BFE222F
:1013B0007403F07F47FE22900883FFE0FCA3E0FD6A
:1013C0002275F064A42BFFE5F03AFEA3E022900022
:1013D00010E4F5F022E0FBA3E0FAA3E0227C007D1C
:1013E0000A021609740CF07F737E0322740CF07FDE
:1013F000857E03227404F07FA07E0322EFF090002C
:101400000C021596900893E0FCA3E022A3F0A374CD
:1014100001F0A322FF900892E5F0F0A3EFF0227410
:10142000FF2DF58274FF3CF58322F58274FF3EF5B3
:10143000830215969008A1E0FCA3E0FDEF6D222445
:10144000FFF58274FF35F0F583227B0190089AF056
:10145000A37403F022A3F0A3F090089A227B0190DA
:10146000089AE4F0A304F022F090000B021596EF26
:101470001215D57F0122F58374FFF00F22FFAEF025
:10148000C39410EE942722E709F608DFFA8046E7B6
:1014900009F208DFFA803E88828C83E709F0A3DF37
:1014A000FA8032E309F608DFFA8078E309F208DF10
:1014B000FA807088828C83E309F0A3DFFA80648964
:1014C000828A83E0A3F608DFFA805889828A83E063
:1014D000A3F208DFFA804C80D280FA80C680D480E4
:1014E0006980F28033801080A680EA809A80A8808C
:1014F000DA80E280CA803389828A83ECFAE493A39B
:10150000C8C582C8CCC583CCF0A3C8C582C8CCC529
:1015100083CCDFE9DEE7800D89828A83E493A3F63A
:1015200008DFF9ECFAA9F0EDFB2289828A83ECFA54
:10153000E0A3C8C582C8CCC583CCF0A3C8C582C807
:10154000CCC583CCDFEADEE880DB89828A83E49342
:10155000A3F208DFF980CC88F0EF60010E4E60C383
:1015600088F0ED2402B4040050B9F582EB2402B4F3
:10157000040050AF23234582239014D773BB010688
:1015800089828A83E0225002E722BBFE02E322899D
:10159000828A83E49322BB010CE58229F582E583EC
:1015A0003AF583E0225006E92582F8E622BBFE06E2
:1015B000E92582F8E222E58229F582E5833AF5837E
:1015C000E49322BB010689828A83F0225002F7222B
:1015D000BBFE01F322F8BB010DE58229F582E5830C
:1015E0003AF583E8F0225006E92582C8F622BBFED0
:1015F00005E92582C8F222EF8DF0A4A8F0CF8CF087
:10160000A428CE8DF0A42EFE22BC000BBE0029EF34
:101610008DF084FFADF022E4CCF875F008EF2FFFD9
:10162000EE33FEEC33FCEE9DEC984005FCEE9DFEA7
:101630000FD5F0E9E4CEFD22EDF8F5F0EE8420D2EE
:101640001CFEADF075F008EF2FFFED33FD4007985D
:101650005006D5F0F222C398FD0FD5F0EA22C2D58C
:10166000EC30E709B2D5E4C39DFDE49CFCEE30E725
:1016700015B2D5E4C39FFFE49EFE121609C3E49D94
:10168000FDE49CFC800312160930D507C3E49FFFDC
:10169000E49EFE22C5F0F8A3E028F0C5F0F8E5824C
:1016A000158270021583E038F022A3F8E0C5F0251A
:1016B000F0F0E582158270021583E0C838F0E82268
:1016C000BB0110E58229F582E5833AF583E0F5F068
:1016D000A3E0225009E92582F886F008E622BBFE45
:1016E0000AE92582F8E2F5F008E222E5832AF5838B
:1016F000E993F5F0A3E99322BB010A89828A83F07A
:10170000E5F0A3F0225006F709A7F01922BBFE0668
:10171000F3E5F009F31922F8BB0111E58229F582FE
:10172000E5833AF583E8F0E5F0A3F0225009E925D6
:1017300082C8F608A6F022BBFE09E92582C8F2E5B8
:10174000F008F222E88FF0A4CC8BF0A42CFCE98EF8
:10175000F0A42CFC8AF0EDA42CFCEA8EF0A4CDA819
:10176000F08BF0A42DCC3825F0FDE98FF0A42CCD22
:1017700035F0FCEB8EF0A4FEA9F0EB8FF0A4CFC502
:10178000F02ECD39FEE43CFCEAA42DCE35F0FDE48C
:101790003CFC2275F008758200EF2FFFEE33FECD82
:1017A00033CDCC33CCC58233C5829BED9AEC99E521
:1017B0008298400CF582EE9BFEED9AFDEC99FC0FB1
:1017C000D5F0D6E4CEFBE4CDFAE4CCF9A88222B879
:1017D00000C1B90059BA002DEC8BF084CFCECDFCFE
:1017E000E5F0CBF97818EF2FFFEE33FEED33FDEC8B
:1017F00033FCEB33FB10D703994004EB99FB0FD874
:10180000E5E4F9FA227818EF2FFFEE33FEED33FD11
:10181000EC33FCC933C910D7059BE99A4007EC9B10
:10182000FCE99AF90FD8E0E4C9FAE4CCFB2275F0A0
:1018300010EF2FFFEE33FEED33FDCC33CCC833C8B1
:1018400010D7079BEC9AE899400AED9BFDEC9AFCB7
:10185000E899F80FD5F0DAE4CDFBE4CCFAE4C8F966
:1018600022CFF4CFCEF4CECDF4CDCCF4CC22EB9F6E
:10187000F5F0EA9E42F0E99D42F0E89C45F022E84E
:10188000600FECC313FCED13FDEE13FEEF13FFD856
:10189000F122E8600FEFC333FFEE33FEED33FDECD2
:1018A00033FCD8F1227401FF3395E0FEFDFCA3A3C5
:1018B000A3E0CF2FF0E582158270021583E0CE3EC3
:1018C000F0E582158270021583E0CD3DF0E58215CA
:1018D0008270021583E0CC3CF022ECF0A3EDF0A383
:1018E000EEF0A3EFF022A8828583F0D083D082129D
:1018F00018FD1218FD1218FD1218FDE473E493A3ED
:10190000C583C5F0C583C8C582C8F0A3C583C5F02B
:10191000C583C8C582C822A42582F582E5F0358337
:10192000F58322D083D082F8E4937012740193700F
:101930000DA3A393F8740193F5828883E473740272
:10194000936860EFA3A3A380DF900893EB121007C6
:10195000E490089B120F04900899E0FCA3E0FD902E
:10196000089FECF0A3EDF0120ED71212F025E0FB69
:10197000E5F033FAED24FAFFEC34FFFE7C007D0540
:10198000121609909C9F75F0C8ED121917EC75F0AE
:10199000C8A42583F583E5822BF582E5833AF58398
:1019A000E493FE740193FBAA067C007D64FF12168B
:1019B000099008A1EEF0A3121059A3EEF0A3EFF0E6
:1019C000AE02AF031213DD1212F6E4120F039008F9
:1019D00099E0FCA3E0FD24F5FEEC34FF9008ABF0A9
:1019E000A3CEF09008931210B37002FF22120ED70C
:1019F0001212F0FFAEF0D39400EE94004008EF9482
:101A000064EE940040037F002290089F1211DC9442
:101A100006EE94004009D3EF940CEE940040037F4F
:101A20000022C002C0019008961212469008B2121D
:101A300010061212F6D001D0021263D09008AB1239
:101A400011DCEE9400405BD3EF9402EE9400505210
:101A50009008A2E09F9008A1E09E500CA3E0240A09
:101A6000F09008A1E03400F0D39008A4E09F900823
:101A7000A3E09E500CA3E0240AF09008A3E03400F9
:101A8000F09008ABE0FEA3E0FFD39008A6E09F90A3
:101A900008A5E09E500CA3E0240AF09008A5E034CD
:101AA00000F090089DE4F0A304F01210DBD39FEC4B
:101AB0009E50359008A11212097002EC6E6019A3B5
:101AC0001212097002EC6E600FA31212097002EC80
:101AD0006E60051212F6801090089EE004F070CA45
:101AE00090089DE004F080C2E490089DF0A3F012FD
:101AF00010DBC39FEC9E5026900896120EDA12124D
:101B00009A90089CE02FF090089BE03400F0900839
:101B10009EE004F070D990089DE004F080D1120E90
:101B2000D71212EA64066003021C0A9008ADF0A303
:101B3000F01211F11211D9EE9400403612143470E3
:101B400002EE6C6028A31210DE6F7002EC6E601D56
:101B50001212067002EC6E6014A31212097002ECED
:101B60006E600A9008ADECF0A3EDF08005121367EB
:101B700080C2120ED712100F1212CA90003012102B
:101B80004875F005120EB69000281216C06F70024C
:101B9000E5F06003021CCA9008961213D59008A3C2
:101BA000120ECA90002A1216C06F7002E5F0600390
:101BB000021CCA900896120EDA9008A5120ECB905D
:101BC000002C1216C06F7002E5F06003021CCA9070
:101BD0000896120EDA9008A7120ECB90002E12165D
:101BE000C06F7002E5F06003021CCA900896120EE6
:101BF000DA9008AD120ECB9000301216C06F700252
:101C0000E5F06003021CCA021CAD120ED71212EAE4
:101C100064076003021CB51211F11211D9EE940091
:101C200040271214347002EE6C6019A31210DE6F9C
:101C30007002EC6E600E1212067002EC6E600512FD
:101C400012F6800512136780D1120ED712100F758D
:101C5000F004120EB69000281216C06F7002E5F064
:101C60007068900896120EDA9008A3120ECB9000BE
:101C70002A1216C06F7002E5F0704F900896120E8F
:101C8000DA9008A5120ECB90002C1216C06F7002CD
:101C9000E5F07036900896120EDA9008A7120ECB77
:101CA00090002E1216C0B50721E4B5F01D90004437
:101CB00075F0018012120ED7900042E4F5F0121771
:101CC00017900044E4F5F0121717120ED712111BEB
:101CD0007F0070027F012290061CE0FF3395E0FE3A
:101CE000EF4E2290053BE0FF14F0EFC394017480A7
:101CF000948022E490053EF090050F7407F0E49084
:101D000001B6F09005D57407F022740490053FF0F9
:101D1000E4900BEDF0740C900BECF0900BEE740172
:101D2000F022900BD8E0FFA3E0FEC39F22740E9038
:101D30000556F090055574802290050F7407F090B9
:101D400005D5F0E49001B6F02274DC2FF582E4347E
:101D50000BF58374FFF022FF24FCF58274FF3EF53F
:101D600083ECF0A3EDF074FE2FF58274FF3EF58353
:101D70007401F074FF2FF58274FF3EF58322900802
:101D80000374FFF5F0121694FCC3E5F09401EC9493
:101D90000022900BD0E0640A229000F7E0FF7E0062
:101DA000D394007480948022E4F090053E7424F073
:101DB0009000F5E4F0A37480F02290054B74FFF5D9
:101DC000F01216AAFEC3E5F09401EE2290053C74D1
:101DD0000CF090042AE090053DF090053B7480F0F3
:101DE000229000EFE0FF3395E0FE22900BD9E00453
:101DF000F022900554E024FFFF900553E034FFFEED
:101E00002290080CE0FFC3940C748094802290050B
:101E1000417402F0A37480F090054AE0640122F05E
:101E20009000C8E4F0A3F0A3F022FFE433FE900B8F
:101E3000D0E07C00229007FEF0900803E4F0A37449
:101E400040F022E49000CCF0A3742BF0A374F2F0E5
:101E5000229000CBC3E094057480948022FF24FC80
:101E6000F58274FF3EF58374FFF0A3F074FE2FF546
:101E70008274FF3EF583E422900BD0E0640122904F
:101E80000BD0E064022290053F7413F0A322900B64
:101E9000D0E0FDC3940A748094802204F0E4900B97
:101EA000D7F022900BD7E0FF7E00640222F0A374EB
:101EB00001F07BFF7AA479B4229004F1F09004F34E
:101EC0007440F0E422E0C3940474809480227E0085
:101ED000900539EEF0A3EFF024FFFFEE34FFFE2271
:101EE000900556740EF0A3740CF0E422F0A3740372
:101EF000F0A37480F07D347F4822900BD3E0FCA3E4
:101F0000E0FD900553ECF0A3EDF02290050F74076F
:101F1000F022E004F0900539E0FCA3E0FDAE047887
:101F20000222900555E014F02290080CE004F02203
:101F3000E075F004A4244CF974A435F0FA7BFF2278
:101F40009007FEE0FF7E0022900BD0E0FF7E006451
:101F50000B2290053E7415F0E490053FF090054A81
:101F6000229000F8E06401227403F0E4900429F068
:101F7000900BD7F022900556E0640122900000F00B
:101F8000A3F0229005CFE0640122E014F090055305
:101F9000E0FEA3E0780222A3740EF09005D174262F
:101FA00022900BECE0FF90080CE0FEC39F22E0249F
:101FB000FFF09000F5E034FFF0229005567402F037
:101FC000E490061DF022F090054B7401F0A37440DC
:101FD000F022900BDCEDF090080C7401F022E4F09C
:101FE00090019B74FFF022C394027480948022902D
:101FF00005417402F0A37480F022F090064374113E
:10200000F022F0E49005CFF0227B017A0B79DC22FC
:1020100090055CE06401227B037D037F0322E49052
:1020200000EDF0A3F0A3F022900BD0E0640322F0C7
:102030009006207402F07BFF22E490080BF09008D9
:102040000AF02212868490080E1218DA128AFF60B3
:1020500007128B16A31218DAC390050AE094209099
:102060000509E0940050037FFF2230190A128AFF0D
:102070007002C2197FFF22128B16124BE320C20797
:10208000E4900C2FF08006900C2F74FFF0128AE77A
:102090007009900C34E07003022198900C24128A8D
:1020A000EA700B900C34E0640170030221A7900CDD
:1020B00025128AEA700B900C34E06402700302214E
:1020C000B7900C26128AEA700B900C34E06403700F
:1020D000030221C8900C27128AEA700B900C34E09E
:1020E000640470030221D9900C28128AEA700B90C4
:1020F0000C34E0640570030221EA900C29128AEA8C
:10210000700B900C34E0640670030221FB900C2AE3
:10211000128AEA700B900C34E06407700302220B01
:10212000900C2B128AEA700B900C34E06408700358
:1021300002221B900C2C128AEA700B900C34E06483
:1021400009700302222B900C2D128AEA700B900C5E
:1021500034E0640B700302223B900C2E128AEA706A
:102160000B900C34E0640A700302224B900C2F1287
:102170008AEA700B900C34E0640D700302225B90CD
:102180000C33128AEA700CA3E0640C7006900C37D2
:1021900002226E128AE77007900C37F002227690C6
:1021A0000C24128AEA7008900C3704F00222769010
:1021B0000C25128AEA7009900C377402F00222761C
:1021C000900C26128AEA7009900C377403F00222F0
:1021D00076900C27128AEA7009900C377404F0028A
:1021E0002276900C28128AEA7009900C377405F058
:1021F000022276900C29128AEA7008900C37740635
:10220000F08073900C2A128AEA7008900C377407D9
:10221000F08063900C2B128AEA7008900C377408D7
:10222000F08053900C2C128AEA7008900C377409D5
:10223000F08043900C2D128AEA7008900C37740BD2
:10224000F08033900C2E128AEA7008900C37740AD2
:10225000F08023900C2F128AEA7008900C37740DCE
:10226000F08013900C33128AEA900C377005740CCE
:10227000F0800374FFF0900C37E0FF900642F0F41A
:102280007003022306900C34E0FD900C37E0FC6DE7
:102290006015EF640D9008166004ECF0800374FF85
:1022A000F0900C34EC8079D3900C36E094C0900C14
:1022B00035E09400500FA3E004F07006900C35E078
:1022C00004F0128B25900C35E0FEA3E0FFD3946060
:1022D000EE9400402CEF94C0EE9400400EA3E06416
:1022E0000D7008900816741BF08003128B25900C5B
:1022F00022E004F0D3947F748094804029E4F0803D
:1023000025128B258020900C34E0FF640D90081678
:102310007004EFF0800374FFF0900C37E0900C3401
:10232000F0E4A3F0A3F0900816E0FF2290053FE050
:1023300070739000D2E0701D90054AE06402701541
:102340009000D5E0700F121E867407F0A3121DB323
:102350007F3E029AD790054AE0FF7E006401700E2E
:102360009000D5E0121FE750028001C35018EF64BF
:10237000024E70289000D4E0C3940874809480507A
:10238000028001C34016121E867406F0A3121DB30C
:102390007F58129AD77F647E00029C8B90053F7411
:1023A00001121E9C2290053FE064017041740312EB
:1023B0001FC6E4900BD7121E17700512981A8003DF
:1023C0001297E7900543EFF0121D10E490080CF00F
:1023D000121E015008121D49121F2980F3121E0EF1
:1023E0007B5270047D4C80027D4E7F66806C900530
:1023F0003FE06403600302248C900BEEE064027003
:1024000073900BEDD3121E554053E490080CF090DE
:10241000080CE0121E06501EE0FF24DCF582E434B6
:102420000BF583E0FE74C42FF582E4340BF583EEE4
:10243000F0121F2980D9121D0AE490080CF0121E18
:10244000015008121D49121F2980F3121E0E7B52E3
:1024500070047D4C80027D4E7F68029B0F740312D6
:102460001D0CE490080CF0121E015064121D49125C
:102470001F2980F3900BEEE064037002805C121D54
:10248000BA648094804003022610806790053FE084
:1024900064047067FD7F05129A3B900BEE121EA636
:1024A0007032900BEDE0D3121E56400790053F743A
:1024B00005F022121D0AE490080CF090080CE0FDD3
:1024C000121E06500B74DC2D121D4C121F2980EBBE
:1024D000121FEF22EF64034E700D121E86740CF073
:1024E000A3E4F0A304F022121DBA64809480400398
:1024F000022610121E86740102258090053FE064BA
:1025000005600302258C7B0190081004F0A3740B76
:10251000F0A374DCF07A0B79C4125757EF3395E0CF
:102520004F7058122009125531EF703F1220099058
:102530000543E0FD126F04EF3395E0FEEFF4700207
:10254000EEF4600302261090053F7412F0900541EE
:10255000121DB37D327F44129A5C121E18700590D2
:1025600000D580039000D4E004F022121E8674048B
:10257000F0A3121DB37D527F56800E121E86740981
:10258000F0A3121DB37D347F44029A5C90053FE0B6
:1025900064127020900541121DBD9400507290008D
:1025A000D2E07069121E1870649000D5E06401706A
:1025B0005C029AF390053FE0641370549005411259
:1025C0001DBD9400504A900540E0FF7E00640C70F1
:1025D0000E9000D2E070089000D5E070028011905B
:1025E00000D2E0700F121E18700A9000D5E070043F
:1025F000121CF422EF64064E600E900540E0FF646A
:102600000C6005EF64077005121E188000129C2EE6
:10261000227A0179351211A07404F07FAD7E031285
:1026200088F8900135E0F4600FA3E0F4600AA3E0BD
:10263000F46005A3E0F47017E4900135120F0490E4
:10264000089A1210747404F07FAD7E031241FC12DC
:102650000FAE7404F07FB47E031288F8900152E04C
:10266000F4600FA3E0F4600AA3E0F46005A3E0F4D3
:102670007015E4900152120F047A01795212121E61
:102680007FB47E031241FC7A0179391211A07404DF
:10269000F07F527E031288F8900139E0F4600FA3B6
:1026A000E0F4600AA3E0F46005A3E0F47015E490A0
:1026B0000139120F047A01793912121E7F527E03FA
:1026C0001241FC7B017A0179561211A27404F07F49
:1026D000627E031288F8900156E0F4600FA3E0F4E4
:1026E000600AA3E0F46005A3E0F47017E4900156DB
:1026F000120F047B017A0179561212207F627E0349
:102700001241FC7B017A0179401211A27403F07F1F
:102710005BFE1288F8900140E0F4600AA3E0F460E8
:1027200005A3E0F470139001401212A37A017940DE
:1027300012144A7F5BFE1241FC7B017A01795D1223
:1027400011A27403F07F6BFE1288F890015DE0F433
:10275000600AA3E0F46005A3E0F4701390015D1239
:1027600012A37A01795D12144A7F6BFE1241FC902C
:102770000AAB120FCA7402F07F5F7E031288F890D2
:102780000143E0F46005A3E0F4701090089A120F82
:10279000CA7402F07F5F7E031241FC900AAB120FF5
:1027A000D47402F07F6F7E031288F8900160E0F429
:1027B0006005A3E0F4701090089A120FD47402F030
:1027C0007F6F7E031241FC900AAB120FDE121304DE
:1027D0001288F890013DE0F4600AA3E0F46005A3DC
:1027E000E0F4700F90089A120FDE7403F07F57FE2A
:1027F0001241FC900AAB120FE87403F07F67FE12DF
:1028000088F890015AE0F4600AA3E0F46005A3E0C0
:10281000F4700F90089A120FE87403F07F67FE12AD
:1028200041FC900AAB120FF21213E41288F89001E7
:1028300045E0F46037A3E0F46032A3E0F4602DA338
:10284000E0F46028A3E0F46023A3E0F4601EA3E0BA
:10285000F46019A3E0F46014A3E0F4600FA3E0F4C3
:10286000600AA3E0F46005A3E0F470129001451241
:102870000EF7121455120FF31213E41241FC900AD2
:10288000AB12104F1213EC1288F8900162E0F46062
:1028900037A3E0F46032A3E0F4602DA3E0F46028F5
:1028A000A3E0F46023A3E0F4601EA3E0F46019A3A6
:1028B000E0F46014A3E0F4600FA3E0F4600AA3E086
:1028C000F46005A3E0F47013E4900162120EF812B4
:1028D00014551210501213EC1241FC2290080CEE09
:1028E000F0A3EFF0900429E07015741E126759A34D
:1028F0007401F0E4A3F0A374FFF07F6C022A9290BD
:102900000429E0641E7005741F022AB8900429E0AF
:10291000641F7063126746704F9005D1E070089095
:1029200004297420022AD59005D1E0FF6403600ACF
:10293000EF64026005EF64F9702B900429741EF0B7
:102940001267CA6003022B81900425E024FFF090F7
:102950000424E034FFF01267126480948040030284
:102960002B81022B77022A3412670F6480948040F7
:1029700003022B81022B77900429E06420701074ED
:1029800021126750900426E0FF128AA2022B489081
:102990000429E064216003022A49126746600302A9
:1029A0002A3A9005D1E07052900426E0FF7E006440
:1029B000017020900428E0FD3395E0FCED4C70138D
:1029C000900426E004F09004297424F09004287404
:1029D000FF8020C3EF9408EE648094809004295017
:1029E00010126757A3E004F0122B82129C8B022A6C
:1029F000D67417F01267B9022AD69005D1E0FF64A9
:102A0000066005EF6403702C900427E0C394037400
:102A1000809480900429500E1267571294AD122BA7
:102A200082129C8B80077429F0A3740BF09004270A
:102A3000E004F022900429022B6612670F64809450
:102A4000804003022B81022B77900429E0642470DC
:102A50000F74251267507B32FAFDFC7F010280EE75
:102A6000900429E06425704612674670329005D1C3
:102A7000E0FF7E00700B9004297429F0A3740AF023
:102A800022EF64094E90042970121267571294AD18
:102A90007F6E129AD77F967E00029C8B022B661265
:102AA000670F648094804003022B81022B7790048F
:102AB00029E064227008742312675002986390041E
:102AC00029E06423702812674670141267CA9004C4
:102AD0002960067422F00294AD741E126759221206
:102AE000670F648094804003022B81022B7790044F
:102AF00029E06417700A741812675012975F8048B3
:102B0000900429E0FF7E0064187022126746700F5F
:102B10009005D1E090042970047419F02280479048
:102B200004241267AA648094805056804AEF641986
:102B30004E7019900429741A12675090080CE0FC2A
:102B4000A3E0FD7F011285D21267B922900429E02B
:102B5000641A702D12674670159005D1E090042913
:102B600070047428F0227429F0A3740BF022126709
:102B70000F64809480500A9004297429F0A3740192
:102B8000F0227F6E129AD77F967E002290087FEB0C
:102B9000121007900889120EF790087F1210B37078
:102BA00002FF2290087F120EDA1213CE121717C0FE
:102BB00002C00190088212124690089612100690E8
:102BC0000887E0FFA3E0900899CFF0A3EFF0D001D1
:102BD000D002121949EF7002FF2290087F120EDA1C
:102BE0001212EA24F96069046003022DE9900006DC
:102BF0001211499000071211E31212C3900009123A
:102C000011006003022DF5121186127A9B9008893B
:102C1000EEF0A3EFF090087F120EDA1213391214BF
:102C20007D4003022DF59008891212719E5002809A
:102C30000FBC2716BD0F13C3EF940BEE9400500A80
:102C4000900010E475F001022DF21213CE022DF265
:102C500090087F120EDA12121875F00AA4FDACF07B
:102C60001212CA75F064A42DFFE5F03CFE1212ACFE
:102C70007C002FFFEC3E9000178FF012171790008A
:102C8000081211499000091211E312138490000BED
:102C90001211006003022DF5121186127B94900828
:102CA0008B121181127C8B90088D121181127E6A19
:102CB00090089112118112827E90088FEEF0A3EF9E
:102CC000F090087F120EDA12133912147D400302BD
:102CD0002DF590088BE0FCA3E0FDC3940FEC942746
:102CE0005073C3ED9FEC9E5003022D9F90087F12FE
:102CF0000EDA121339FF90088BE065F07003A3E041
:102D00006F704612138A7003A3E06F6003022D9F59
:102D100090087F120EDA1212F0FF90088FE065F033
:102D20007003A3E06F600612107D12657C90087F2F
:102D3000120EDA1212864003022DF51212D9700615
:102D400090088DE004F0022DD790087F120EDA1261
:102D500013CE022DF290088BE064277004A3E06488
:102D60000F6003022DF590087F120EDA121339C39B
:102D7000940BE5F09400500612107D12657C9008CB
:102D80007F120EDA121339FF90088BE065F07003A2
:102D9000A3E06F706012138A7003A3E06F600512E6
:102DA000107D804090087F120EDA1212F0FF90081A
:102DB0008FE065F07003A3E06F600612107D12656E
:102DC0007C90087F120EDA12128650291212D970E6
:102DD0000690088DE004F090088DE0FEA3E09008D6
:102DE000851213BA12657C800C90087F120EDA12DD
:102DF00013CE12171790087F120EDA9000101211DE
:102E00001E7F0070027F01229000CC121CDA700B32
:102E100090053E7427F07F041278189005DFE0706B
:102E2000067420F01283419005D5E064047064902C
:102E300000ED74FFF09005DDA3E09000F3F0129434
:102E4000AD121E209000F8E070047F018020121F58
:102E500061707C121DE1BEFF07BFFF047F06800E7C
:102E60009000EE121DE4BEFF0ABFFF077F04129818
:102E70007B805C9000F7E0700512306B8051121D72
:102E800099404CEF64017003121D039000F7E014A9
:102E9000F0803C9005D5E064057034123077700AFC
:102EA0007F0912987B1294AD8025E49000EDF0909C
:102EB00000F104F09000F3121DA87F40129AD79001
:102EC00000C9121EC55005E004F08003121E431213
:102ED00046869001B6E0642870629000EE74FFF0C0
:102EE0009001B1A3E0049000F2121E1F9000F8E0E0
:102EF00070047F038070121F616003022F909000A6
:102F0000ED121DE4BEFF07BFFF047F048058121DB1
:102F1000E1BEFF07BFFF047F05804B9000F7E07024
:102F20000512306B806A121D994065EF64017004D0
:102F30009001B6F09000F7E014F080549001B6E0F4
:102F40006429704CA3E0642B70089000FA7402F0BE
:102F50008005E49000FAF0123077700F9000FAE0EC
:102F6000640260077F0912987B8025E49000EEF0F0
:102F70009000F17403F0E4A3121DA97F40129AD7C8
:102F80009000C8121EC55005E004F08003121E43D5
:102F900012541C90050FE0640A705F9000EF74FFFC
:102FA000F090051DE09000F4121E1F9000F8E06004
:102FB0000E9000F0E0FF64016005EF640270047F92
:102FC00002804B121F61600302306A9000ED121DF7
:102FD000E4BEFF07BFFF047F0680339000EE121DA2
:102FE000E4BEFF07BFFF047F0580237F7A129AD7D4
:102FF000121F0B9000F77480F02290050FE0640B15
:1030000070351296CEEF3395E04F70057F09029828
:103010007BE49000EFF09000F17402F09000F41265
:103020001DA87F40129AD79000CA121EC55004E016
:1030300004F022121E432290050FE0FF7E00640C74
:10304000700D90043DF0A3F090053E7426F022EF41
:10305000640D4E7003029A1890050FE0641C700A0C
:103060007D327F44129A5C121F0B227F7A129AD70C
:103070009000F77480F0221296CEEF3395E04F2245
:1030800090087FEB121007A3EDF090087F1210B3A9
:1030900070030232F0A3E06406600302314C900832
:1030A0007FA3A3E0F91212181213B79000FB75F07A
:1030B0001D120EEA1212AAFF120EE3EF1212C2FF45
:1030C0009000FD120EE6EFF012123DFF9000FE128E
:1030D0000EE6EFF09000FB120EE6E0FF90013512D5
:1030E0000EE6EFF0120EE3E0FF900136120EE6EF6F
:1030F000F09000FD120EE6E0FF900137120EE6EFB1
:10310000F09000FE120EE6E0FF900138120EE6EF9E
:10311000F0ED4C701A900883121198120F4C121394
:10312000F41241FC120F8E7404F07FAD0232EB12E8
:10313000113060030232F0FC120F4C12130B1241DB
:10314000FC120F8E7404F07FB40232EB900882E020
:10315000640760030232F090087F120EDA1212C385
:103160001213B79000FF75F01D120EEAEFF0121265
:103170003DFF900100120EE6EF121383FF90010154
:10318000120EE6EF121468FF900102120EE6EF1223
:1031900012C9FF900106120EE6EFF0121218FF900E
:1031A0000107120EE61212AAFF900108120EE6EFB6
:1031B000F012157DFF900109120EE61213FCFE902D
:1031C000010A120EE6EE1212C2FE900139120EE64C
:1031D000EEF012123DFE90013A120EE6EE1213834B
:1031E000FE90013B120EE6EE121468FE90013C12B6
:1031F0000EE6EE1212C9FE900140120EE6EEF0123B
:103200001218FE900141120EE6EE1212ABFE900172
:1032100042120EE6EEF0900143120EE61213FCFF8E
:10322000900144120EE6EFF0ED4C706290088312AC
:103230001198120F621213131241FC120F0C740337
:10324000F07F3BFE1241FC120F2C1213231241FCA3
:10325000120FBB74392FF97401120FA37404F07F9D
:10326000527E031241FC120FBB74402FF9740112FD
:103270000FA37403F07F5BFE1241FC120FBB74437B
:103280002FF97401120FA37402F07F5F805D121199
:1032900030705DFC120F6212131B1241FC120F0CF6
:1032A0001213A91241FC120F2C12132B1241FC1203
:1032B0000FBB74392FF97401120FA37404F07F62ED
:1032C0007E031241FC120FBB74402FF97401120FE0
:1032D000A37403F07F6BFE1241FC120FBB74432FEB
:1032E000F97401120FA37402F07F6F7E031241FC88
:1032F00022E490081CF0A31218E6000000009008D9
:10330000211218E600000000E4900825F0A3F03038
:10331000030302341C129C82500302340E129246A4
:1033200090081D1218DAE490081BF090081BE0C307
:103330009510503990081D125C18780112187F9072
:10334000081D1218DA30D720125BECC000C00190C3
:10335000081B125BDBE0F9F8121892D001D00012C2
:103360005C2490081CE004F0125C6380BE90081C92
:10337000E0FF7E00C39402748094804018D214EF62
:103380009403748094804005129C858008129BC829
:10339000EF6002C214201423E4FFFEFDFC125BEC7C
:1033A000C312186E6010900B67E004F07006900B6B
:1033B00066E004F0801D125C4F8018900B56E0040C
:1033C000F07006900B55E004F09008211218E6000A
:1033D000000000129B41D3900B67E09F900B66E0CA
:1033E0009E4006129C85125C4FD3900B56E0942CA5
:1033F000900B55E09401500302353E129C85900BD2
:103400008D7401F0E4900B55F0A3F002353E90A5C9
:10341000C2E4740193FF123D0E02353E2004030204
:103420003508125BECC000C001900B8E125BDBE034
:10343000F9F8121892D001D000125C24125B7912B4
:103440005C6A900825F0A3EFF0900B8EE0FF129BD2
:10345000E8AD07AC06ED7802CEA2E713CE13D8F89C
:10346000FFC3ED9FFFEC9EFED3900826E09FEE6425
:1034700080F8900825E06480985058E4900B0BF099
:10348000A3F0900ACEE004F094057480948040107C
:10349000E4F0C203C2049008211218E60000000004
:1034A000E490081BF090081BE0FFC3951040030256
:1034B000353E123EC120031690081BE0FF900B8E94
:1034C000E06F600A90081BE0125B89125C36125CA8
:1034D0006380D2E4900ACEF0129B41900B0BE4750E
:1034E000F001121694FCD3E5F09FEC9E4050129C24
:1034F00085E4900B0BF0A3F0C203C20490082112E4
:1035000018E6000000008036785406E6D39405746F
:103510008094804004E4F6C203E490081BF0900815
:103520001BE0FFC395105016123EC120030B9008FC
:103530001BE0FF125B89125C36125C6380E090082E
:1035400021125C18227D017F0412354F0D7F04EF9C
:10355000F582758300C3748094804024D3E58294FF
:1035600005748094805019EDF582C3748094804076
:103570000FE5829408748094805005758201800361
:10358000900000E582640145836003023748EF1430
:10359000606414700302363B1470030236801470AA
:1035A000030236C51470030237072405600302378F
:1035B00048EB14601D14602D24026003023748A8F4
:1035C000057401088002C333D8FCFF429AEFF4521D
:1035D0009B22A8057401088002C333D8FCFFF45273
:1035E0009AEF429B22A8057401088002C333D8FCDD
:1035F000F4529A529B22EB14601D14602D24026039
:1036000003023748A8057401088002C333D8FCFFC1
:103610004291EFF4529222A8057401088002C3334C
:10362000D8FCFFF45291EF429222A8057401088061
:1036300002C333D8FCF45291529222EB14601D1451
:10364000602D24026003023748A805740108800237
:10365000C333D8FCFF42A1EFF452A222A8057401A3
:10366000088002C333D8FCFFF452A1EF42A222A883
:10367000057401088002C333D8FCF452A152A2227F
:10368000EB14601D14602D24026003023748A80566
:103690007401088002C333D8FCFF42B1EFF452B288
:1036A00022A8057401088002C333D8FCFFF452B18C
:1036B000EF42B222A8057401088002C333D8FCF49B
:1036C00052B152B222EB14601A14602A24027078AC
:1036D000A8057401088002C333D8FCFF42C1EFF48F
:1036E00052C222A8057401088002C333D8FCFFF43B
:1036F00052C1EF42C222A8057401088002C333D828
:10370000FCF452C152C222EB14601A14602A240243
:103710007036A8057401088002C333D8FCFF42D973
:10372000EFF452DA22A8057401088002C333D8FCF2
:10373000FFF452D9EF42DA22A8057401088002C3CF
:1037400033D8FCF452D952DA2290082A12588090C9
:103750000829EFF090083474FEF0E4A3F0A3F0EF32
:1037600024F4601024FE70169008357412F0A374CF
:1037700010F0800A9008357420F0A37430F090089F
:1037800035E04480FD7F02129B1C7D807F041295F2
:103790005212393A7D807F0A129690E4900838F0F0
:1037A000A3F090082DE0FF900838E0FCA3E0FDC3F3
:1037B0009FEC9400502390082A1258778D828C83B6
:1037C000121596FD7F09129B1C900839E004F070D9
:1037D000D1900838E004F080C9900829E0FD7F010D
:1037E000129B1C900829E0640C70077D807F0D12ED
:1037F0009690129AE5900838E4F0A37464F07F0480
:103800001299BD900837EFF0900839E024FFF0904E
:103810000838E034FFF0E07002A3E0601190083750
:10382000E0FF20E009900836E0FEEF5E60D07D808A
:103830007F0D129552900838E07002A3E0700302E9
:1038400039277F061299BDEF541B600302391F9080
:103850000834F0A3E0FF900837E05F30E0069008FE
:103860003474FFF0900829E0640C600302392A7F69
:103870000A1299BD900837EFF07F0C1299BDEF54F2
:1038800007FD6029900837E024FFFFE434FFFEEFD6
:103890007803C333CE33CED8F97C002DFFEC3EF94C
:1038A000900831E0FBA3E0FAA3E0C980119008374B
:1038B000E075F008A4FF900831125877E5F08FF01A
:1038C0001216F8900837E0700204F0900837E0D341
:1038D00094127480948040037412F0E4900838F0DD
:1038E000A3F0900837E0FFC3900839E09F900838B4
:1038F000E0940050357F091299BD90082E12587738
:10390000900838E0FCA3E0F5828C83EF1215D59087
:103910000839E004F070CB900838E004F080C390E0
:10392000083474FEF08003129C207D807F0C129678
:103930009012393A900834E0FF22E4FD7F01129B97
:103940001C22900417E060030239CD9000D2E07091
:10395000459000D5E0703F90053E7415121FC6904B
:10396000053F7403121E9C90054304F090054A1213
:103970001D0FE490080CF090080C121E04500B125E
:103980001D4990080CE004F080ED121FEF7B527D82
:103990004C7F66029B0F121D1090050F7409F0E416
:1039A00090080CF0900BECE0FF90080CE0FEC39F39
:1039B000500E74DC2E121D4C90080CE004F080E4D4
:1039C0009004177401121D427F5A029AD79004176F
:1039D000E064016003023AD97D107F06129A3B90A1
:1039E0000BEEE06402704B9004177403F012200990
:1039F000125531900420EFF0600FC394037480944B
:103A00008050069004177402F0121F0B900417E008
:103A1000640370157F40129AD790041F7480F012CF
:103A20001E51501FE004F0801A7D327F5A129A5CBA
:103A30008011900BEEE0640370099004177404F099
:103A4000121F0B1246869001B6E064287029C390BD
:103A500001B2E0940A9001B1E09400501A9004176A
:103A60007402121D427D327F5A129A5C9001B57425
:103A700001F07F03023B289001B6E0FF6429602239
:103A8000EF64286003023B2B9001B2E02401FF9019
:103A900001B1E03400FED3EF940AEE94005003022B
:103AA0003B2B9001B7E0642B90042170057402F069
:103AB00080037401F0E49001B6F09004177403F0F1
:103AC00090041F7480F07F40129AD77F02127818FA
:103AD000121E515056E004F022900417E064027068
:103AE00009129AF3E49000CBF022900417E06403EB
:103AF000702090041FE014F0121CEB502E121E5187
:103B00004005E4A3121E47121D3990053EF07F01C7
:103B10008016900417E0640470117F60129AD71227
:103B20001D3990053EF07F0112781822900AAB12E1
:103B300010731213F41288F89000FBE0F4600FA3E6
:103B4000E0F4600AA3E0F46005A3E0F47017E490E9
:103B500000FB120F047B017A0079FB1212207FA078
:103B60007E031241FC120FAE12130B1288F8900163
:103B700018E0F4600FA3E0F4600AA3E0F46005A38A
:103B8000E0F47013E4900118120F0490089A120FD9
:103B9000B212130B1241FC900AAB12109C121313B9
:103BA0001288F89000FFE0F4600FA3E0F4600AA32D
:103BB000E0F46005A3E0F47013E49000FF120F043A
:103BC00090089A12109D1213131241FC900AAB1226
:103BD00010BD12131B1288F890011CE0F4600FA3B3
:103BE000E0F4600AA3E0F46005A3E0F47013E4904D
:103BF000011C120F0490089A1210BE12131B1241DE
:103C0000FC900AAB1210A67F3BFE1288F8900106CA
:103C1000E0F4600AA3E0F46005A3E0F47012900100
:103C2000061213A290089A1210A77F3BFE1241FCC5
:103C3000900AAB1210C71213A91288F8900123E062
:103C4000F4600AA3E0F46005A3E0F470129001238D
:103C50001213A290089A1210C81213A91241FC90D4
:103C60000AAB1210D11213231288F8900109E0F464
:103C70006005A3E0F47010E49001091214561210CC
:103C8000D21213231241FC900AAB1210EC12132B28
:103C90001288F8900126E0F46005A3E0F47010E4C7
:103CA0009001261214561210ED12132B1241FC90A3
:103CB0000AAB1210F61213041288F8900103E0F414
:103CC000600AA3E0F46005A3E0F47011E49001033E
:103CD000F01214551210F71213041241FC900AABA3
:103CE0001211261213B01288F8900120E0F4600A35
:103CF000A3E0F46005A3E0F47011E4900120F01259
:103D000014551211271213B01241FC02261190080B
:103D100027EFF0900C49E0C39403748094804048EE
:103D2000E4F0900B8DE07035900828F0900828E0C2
:103D3000C395105028E0FF75F002A42469F582E5D0
:103D4000F0340BF583E0FCA3E0FDEF25E02424F83C
:103D5000A60408A605900828E004F080CF1280870A
:103D6000C215E4900B8DF022900C43E004F0900813
:103D700027E0FF900C43E0B507081291ADE4900CEA
:103D800044F0900827E0FF900C43E0D39F500302DB
:103D90003EC0E4900828F0900828E0C39510400346
:103DA000023E6CE0FF75F002A42469F582E5F03470
:103DB0000BF583E0FCA3E0FD75F002EFA424CFF542
:103DC00082E5F0340AF583E0FEA3E0C39DFFEE9C9C
:103DD000AD07FC900B8DE07042900B68E0FB3395D3
:103DE000E0FAFEEB7802C333CE33CED8F9FFD3ED41
:103DF0009FEE6480F8EC6480984060E49BFFE49A56
:103E0000FEEF7802C333CE33CED8F9FFC3ED9FEE79
:103E10006480F8EC64809850428051900B68E0FB1D
:103E20003395E0FAFEEB7803C333CE33CED8F9FFF7
:103E3000D3ED9FEE6480F8EC648098401EE49BFF15
:103E4000E49AFEEF7803C333CE33CED8F9FFC3ED47
:103E50009FEE6480F8EC6480984011900828E0FFA1
:103E6000123EC1900828E004F0023D97900828E037
:103E7000B51006900C44E004F0900827E0FD75F0C2
:103E800008A4FF900C43E0C39FE5F06480F87480C1
:103E900098402DE4F0C214900C49E004F0ED75F068
:103EA00004A4FF900C44E0C39FE5F06480F87480A4
:103EB00098400DE4900C49F012935A128087C21575
:103EC00022900829EFF0F9E0FF75F002A42469F5CB
:103ED00082E5F0340BF583E0FCA3E0FD75F002EF22
:103EE000A424CFF582E5F0340AF583E0FEA3E0C315
:103EF0009DFFEE9C90082AF0A3EFF0AF01129BE823
:103F0000AD07AC0690082AE0FEA3E0FFD39DEC6469
:103F100080F8EE6480985014C3E49DFBE49CFAC3DF
:103F2000EF9BEA6480F8EE648098502F900829E0B7
:103F3000FF75F002A424CFF582E5F0340AF583E0A2
:103F4000FCA3E0FD75F002EFA42469F582E5F034EE
:103F50000BF583ECF0A3EDF0024034ECA2E713FE86
:103F6000ED13FF90082AE0FAA3E0FBD39FEE6480F4
:103F7000F8EA648098501CECA2E713FEED13FFC32F
:103F8000E49FFFE49EFEC3EB9FEE6480F8EA64804A
:103F900098503E900829E0FD75F002A42469F5824E
:103FA000E5F0340BF583E0FAA3E0FBEAC313FEEB84
:103FB00013FFC3EB9FFBEA9EFA75F002EDA424CF3A
:103FC000F582E5F0340AF583E0C313FEA3E0138025
:103FD00047900829E0FD75F002A42469F582E5F018
:103FE000340BF583E0FAA3E0FBAE027803CEC313F3
:103FF000CE13D8F9FFC3EB9FFBEA9EFA75F002EDF2
:10400000A424CFF582E5F0340AF583E0FEA3E0783E
:1040100003CEC313CE13D8F92BFFEA3EFE90082936
:10402000E075F002A42469F582E5F0340BF583EE27
:10403000F0A3EFF0900829E0FF75F002A42469F5E1
:1040400082E5F0340BF583E0FCA3E0FD75F002EFB0
:10405000A424CFF582E5F0340AF583ECF0A3EDF06B
:10406000229004F1E0FF7E00700504F0A3F022EF3F
:1040700064014E7026121CD760030241FB121D2200
:1040800040030241FBEE75F004A424ACF974A4359E
:10409000F0FA7BFF1289CE121DEB229004F1E0644E
:1040A0000370087402F07F42029AD79004F1E06432
:1040B00002701F129446EF3395E0FEBEFF11BFFF62
:1040C0000E9004F17404121FFAE49004F4F022023A
:1040D00041539004F1E06404600302415D12845E88
:1040E000900643E0FF7E006412704F7405121EB903
:1040F0009000D1F0A3F0FDEDC39432748094804021
:10410000030241FBED25E025E02400F582E43400C4
:10411000F58374FFF0A3F0ED25E025E02402F5829D
:10412000E43400F583E4F0ED25E025E02403F58296
:10413000E43400F583E4F00D80BDEF64134E6003BA
:104140000241FB9004F4121EC55008E004121FFA4D
:104150000294AD9004F17408F07D34804E9004F127
:10416000E0640570189004F3121CE640030241FB62
:104170001291E17406121EB99000D3F0229004F15E
:10418000E06406702B9004F3121CE6506E1251E3AB
:104190001293AE12938512996B9004F17407121E5C
:1041A000BC9000D5F09000D4F07D327F42029A5C42
:1041B0009004F1E0640770139004F3121CE6503B86
:1041C000E490053EF01294ADE4801E9004F1E0FF0F
:1041D0007E006408701C9004F3E0FD14F0C3ED123F
:1041E0001CEC5017E490053EF0900C35F0A3121C27
:1041F000F722EF64094E7003129B0122900895127A
:10420000723E789C7C087D017BFF7AA179AE7E02AC
:104210007F0012155712725A900AA2F0A3F090086C
:1042200095E0FFA3E0900AA4CFF0A3EFF0900AA2DC
:10423000E0FEA3E0FF90089AE0FCA3E0FDD39FEC32
:104240009E40EA900AA4E05401FEA3E0FF900A9E7B
:10425000EEF0A3EFF0900AA3E02400FB900AA2E0A6
:104260003402CBC39FFFEB9EFED3ED9FEC9E4074C8
:104270001272624E60061271FA12437D12724D1272
:104280007262C3E49FFF7402127275501E1272169E
:104290007006900AA0E004F012726B900A9DE00490
:1042A000F07006900A9CE004F080D412434F900A0C
:1042B000AB127209128D73127262C3E49FFF740213
:1042C0009EFE900AA3E02FF0900AA2E03EF0900A32
:1042D000A5E02FF0900AA4E03EF07F057E00129743
:1042E0002702422D127262C31271FA12437D1272BA
:1042F0004D900AA2E0FEA3E0FFC390089BE09FFF61
:1043000090089AE0127275501E1272167006900A8A
:10431000A0E004F012726B900A9DE004F070069029
:104320000A9CE004F080CA12434F7B017A08799C12
:10433000900AAB12720F128D7390089AE0FFA3E0FF
:10434000900AA2CFF0A3EFF07F057E00029727909E
:104350000A9EE0FEA3E0FFC3900AA5E09FFF900A3B
:10436000A4E09EFE12877D900A9EE0FEA3E0FFC3BC
:10437000900AA5E09FFF900AA4E09EFE221288F812
:104380007F017E0012972722F9121596FF90080DE3
:10439000E0FBA3E0FAA3E0F922EFFD7C00E92DF9B0
:1043A000EC3AFA900811E0FCA3E029F9EA3CFA1291
:1043B000157DFEEFC313FD900810E075F008A424EE
:1043C0005EF582E43405F583E58222EF75F008A4FA
:1043D0002464F582E43405F58374FFF0EF75F0088A
:1043E000A4245DF582E43405F58322EF75F008A47A
:1043F0002464F582E43405F58322E4900BD9F0744B
:1044000004900BD8F090053E227A08790E7B01903B
:104410000AABE4F0A304F0222DF582E43583F583A2
:1044200022740190054BF0A37440F022EEC3940A6D
:104430007480948022EBF0A3EAF0A3E9F0227B01E0
:104440007A05795DE4F0A322E4900BD9F07403902F
:104450000BD8F090053E22EEC3940674809480221F
:10446000900000E0FEA3E0FF021609E0D394007480
:1044700080948022900811E0FAA3E0FB7C007D028A
:10448000FFAE0202165E7B0190089AE4F0A304F0EE
:1044900022EFC394027480948022E0FDC4540F750F
:1044A000F00AA42290080EE0FF3395E0FE22900867
:1044B00010E0FBA3E0FAA3E02290054B04F0A37404
:1044C00040F090053EE022900BD3E0FEA3E0FF7C9D
:1044D000007D0A22EFF07E00C3940974809480224C
:1044E000EC04FF129893EF3395E04F227B01F0A389
:1044F00004F07FFD7E0722900BD6E0FF900BD5E005
:104500009F222FF582E5833EF583E022900824EB7D
:104510001210071212F678367C087AA1794F7F477D
:1045200012134FE490087DF0A3F01212439008821A
:10453000121006900829E0FFA3E0900885CFF0A3B1
:10454000EFF090082B121246900887121006900880
:104550002EE0FFA3E090088A121167126125EF7028
:1045600002FF2212116C12530412116C127DF4120C
:10457000116C12620C12116C125D6D12116C127AB8
:104580001CEF7002FF2212116C124A9C121243900F
:104590000882121006900827E0FFA3E0900885CF5C
:1045A000F0A3EFF0900829E0FFA3E0900887121134
:1045B00067122B8C9008301210B3603DA31210B319
:1045C0006037900848E0FF900830120EDAE48FF070
:1045D0001216F8900848E0B4071390084DE0F9A3CC
:1045E000E0FF9008331213D5C98FF080099008338B
:1045F000120EDAE4F5F01216F8900848E0B4061945
:10460000900846E07004A3E06401707312116C120C
:10461000133F7D061230808066900848E064077082
:104620005E900846E07004A3E06401700B12116C08
:1046300012133F7D07123080900827E0FEA3E0FFB1
:10464000127C8B90087DEEF0A3EFF0C390084EE053
:104650009F90084DE09E502790087EE094E79008D8
:104660007DE094034012E4F0A3F0900827E0FCA35F
:10467000E0FDE4FFFE12657CE4900846F0A3F090B4
:104680000846A3E0FF229001B6E0FF7E00700474AC
:104690001EF022EF641E4E700B741F12674D1298AD
:1046A0004B02479E9001B6E0641F7031126746705E
:1046B000199005D1E070099001B67420F00294AD14
:1046C0001267CA70028011E4800E9001B312671263
:1046D000940040030247FFE49001B6F0229001B637
:1046E000E06426700B742712675012967102479E81
:1046F0009001B6E06427704912674670319005D189
:10470000E070257B017A0579BB128864EF3395E070
:104710004F9001B670097420F09001B30247D17434
:1047200029F0A3742B0247F51267650247F5900143
:10473000B3126712940040030247FF1267650247F5
:10474000F59001B6E06420700C74211267507F016F
:10475000128AA280499001B6E0FF7E006421702990
:1047600012674670159005D1E09001B6700474246C
:10477000F0227429F0A37406807B9001B31267AA1B
:104780009400507B126765806CEF64244E70167441
:104790002512674D7B32FAFDFC7F011280EE9001FD
:1047A000B31267BC229001B6E064257052126746CE
:1047B00070369005D1E0FF7E00701A9001B6742823
:1047C000F09005ADE0FDA3E09001B1CDF0A3EDF0D8
:1047D000A312675D22EF64174E9001B67002F022BB
:1047E0007429F0A37408800D9001B312671294002D
:1047F000500D126765F09001B3E4F0A374C0F0228D
:10480000121F40700A9000CFF09007FE04F022EFD4
:1048100064014E701312821B129032E49007FFF075
:104820009007FE74020248CE9007FE121EA6700F7B
:10483000121D7E40030249519007FE7403F022EFDF
:1048400064034E706412767F9000CFE06402703E85
:104850009005CFF07F01128A5CE490080CF090087C
:104860000CE0C394197480948050177F0A7E001264
:104870009C8B129C91121F83600890080CE004F03E
:1048800080DCE4900800F09007FE74048040900003
:10489000CFE06403600302495190080074FFF07494
:1048A00004121E357F0702494E121F406404700F28
:1048B000121D7E40030249519007FE7405F022EF5D
:1048C00064054E7010900801F09007FE7406121EE9
:1048D000387F028079121F406406700C121D7E50D2
:1048E000709007FE7407F022EF64074E700D900879
:1048F00002F07408121E357F028053121F406408B4
:10490000700E121D7E504A9007FE7409121E382246
:10491000EF64094E703B90080374FFF5F012169493
:10492000121DC49400502A9000DBE0600464017002
:10493000187F74129AD79000DA74FFF09000DC743C
:1049400080F090053E7422F022121CF37F06129232
:104950007522900BC3E004F0D3943F7480948040A0
:104960004F900BD2E06401F0E4900BC3F020C22919
:1049700090053EE070239001AD121DE4BEFF12BF12
:10498000FF0FE4F07F011292759001AD74FFF0808B
:10499000057F011292751294AD9001B5E0121DA031
:1049A000400EE004F0E064047006F07F0112781815
:1049B000900BC3E0541F7007900BDBE06401F09094
:1049C00005DFE0121DA04003E014F090072BE01279
:1049D0001DA04003E014F030C14112203990080AB4
:1049E000E0C394647480948050187F027E00129714
:1049F0004330C10690080BE004F090080AE004F090
:104A000080DB90080BE0D3945A74809480404290ED
:104A10000439121CDA703AA3F0803612203990085B
:104A20000AE0121E9350187F017E0012974320C1A6
:104A30000690080BE004F090080AE004F080DF9094
:104A4000080BE0D39408748094804005E490043906
:104A5000F090043A121CDA703D90053EE0FF642CA1
:104A60006034EF6421602FEF641C602AEF641A60E9
:104A700025900621121CDA701D90053E742CF090D2
:104A8000043B14F0A374F2121CF77F147E00129CF6
:104A90008B7F041278181201000262F390087FEBFA
:104AA000121007E4A3F0A3F0FFFE1212FDA3EFF033
:104AB0007F007E001212FD7E037FE812106AA3EFD2
:104AC000F07C037DE87F007E001216097F641210DF
:104AD00068A3EFF07C007D647F007E00121063A36A
:104AE000EFF07F007E001213DDAC05E4A3F0FF9031
:104AF000087F1210B370012290087F120EDA121292
:104B0000F025E0FFE5F033FE74872FF58274A03EB8
:104B1000F583E493FF740193900882CFF0A3EFF044
:104B20007F01EFD39406748094805022900884E033
:104B30006F6018A3E06F6013A3E06F600EA3E06FD7
:104B40006009EF6C6005A3EFF080030F80D490083C
:104B50007F120EDA9000011215969008841211A9A6
:104B6000120EDA1213769008851211A9120EDA12BB
:104B70001229FF9008861211AA120EDA1213589009
:104B800008871211AA120EDA900004EF1215D5123E
:104B900012CAFFAD041211AC120EDA121211FF90FC
:104BA00008881211AA120EDA900006EF1215D5121B
:104BB00012ACFFAE04AD0612139B120EDA90000782
:104BC000EF1215D51212C3900887121398120EDA3D
:104BD000121236900886121398120EDA90000912FB
:104BE000146F22900817EEF0A3EFF0E4FFEFC394E8
:104BF0000D748094804003024D26E4FEEF25E024EE
:104C0000F0F582E4340BF583E0FCA3E0FD90081797
:104C1000E05CFCA3E05DD39400EC940040010EEF57
:104C2000B40D004003024D22904C2FF82828730247
:104C30004C56024C67024C78024C89024C9A024C4A
:104C4000A9024CB8024CC7024CD6024CE5024CF407
:104C5000024D03024D12EE6008E4900C23F0024D69
:104C600022900C23024D1FEE6008E4900C24F00209
:104C70004D22900C24024D1FEE6008E4900C25F0AC
:104C8000024D22900C25024D1FEE6008E4900C2688
:104C9000F0024D22900C26024D1FEE6007E4900CAE
:104CA00027F0807E900C278076EE6007E4900C2839
:104CB000F0806F900C288067EE6007E4900C29F07C
:104CC0008060900C298058EE6007E4900C2AF080F8
:104CD00051900C2A8049EE6007E4900C2BF0804242
:104CE000900C2B803AEE6007E4900C2CF08033900F
:104CF0000C2C802BEE6007E4900C2EF08024900C9E
:104D00002E801CEE6007E4900C2DF08015900C2D89
:104D1000800DEE6007E4900C33F08006900C337445
:104D2000FFF00F024BED22127A1464017026D3902B
:104D300004F9E094009004F8E09400400AA3E02411
:104D4000FFF09004F880691279DD402A9005027422
:104D500003F08069EF64034E701E1279DD400AA3F0
:104D6000E024FFF09004FC80471279EB40089005A6
:104D7000027402F080478040127A146402701E129E
:104D800079EB400AA3E024FFF09004FA8022127924
:104D9000F940089005027404F08022801BEF64043F
:104DA0004E70151279F9400EA3E024FFF09004FE36
:104DB000E034FFF080078000E4900502F0900502E7
:104DC000E064027035C2D99005011279D470289040
:104DD000080AF0A3F01279C55014D2D8129B62C20F
:104DE000D8124E5070EF90080AE004F080E790056A
:104DF0000174FFF0D2D822D2D822900502E06401DB
:104E00007035C2D89005001279D4702890080AF045
:104E1000A3F01279C55014D2D9129B62C2D9124E96
:104E20005070EF90080AE004F080E790050074FFEE
:104E3000F0D2D922D2D922127A14640370028006E9
:104E4000EF64044E7005D2D9D2D822C2D9C2D8227A
:104E500090080AE0FEA3E0FFC374C89FFFE49EFE33
:104E6000129B6290080BE004F02243CF10129BEFDC
:104E7000129B8A129C12129B9C129A0643CF10E43A
:104E8000900C5FF0A3F0A3F0A3F0E49005CFF01234
:104E90009652129AC843CF107F147E00129C8B1238
:104EA0009C919005CFE06401702B9005D1E07005D6
:104EB00020C302804A900C62E004F07006900C61FE
:104EC000E004F0D3900C62E0945E900C61E09401F9
:104ED0004050E4802AD390080BE09417129AD040F7
:104EE00024900C60E004F07006900C5FE004F0D3B6
:104EF000900C60E09402900C5FE094004007E49016
:104F00000503F0801D90080BE004F0700690080A7D
:104F1000E004F0C390080BE09419129AD0500302F9
:104F20004E9543CF10900503E06003024E8A129B1A
:104F300077C2C07F037E00129C8B90050CE0640159
:104F40007027129AC943CF107F017E00129C8B906C
:104F5000080BE004F0700690080AE004F0C3900823
:104F60000BE0940A129AD040DC1294221299951206
:104F70009C9D12910E129AC890080AE07004A3E05A
:104F800064016014129C7C400A90080AE4F0A304B7
:104F9000F080E5128FC280E02290016FE0703890BF
:104FA00000D2E070129000D5E0700C1269327407E4
:104FB0001268A07F3E801D9000D3E01268D090015F
:104FC0006F500C7401F0E4900BD7F07F64800512F1
:104FD000689B7F58129AD790016FE06401701D1290
:104FE0009801900173EFF090016F7407F0900171D8
:104FF0007401F0A37440F07F70029AD790016FE0C3
:10500000640770307B017A017974127D7CEF3395EF
:10501000E0FEBEFF09BFFF0690016F7403F0126847
:10502000A940030250BD12693274011268A07D3498
:105030007F44805D90016FE0640370587B017A01CA
:1050400079741281B7EF703F900173E0FD1288AF61
:10505000EF3395E0FEBEFF1DBFFF1A90016F740491
:10506000F09001711268A27D327F44129A5C900028
:10507000D3E004F02290016F12689B7F58129AD7F8
:105080007F647E00029C8B1269321268A07D547F7F
:1050900056029A5C90016FE0640470071268A95090
:1050A0001C801790016FE06405701290017174FF0D
:1050B000F5F01216AA1268B35003129C352243CFA2
:1050C000107F017E00129C8B128F4FE4FBFD7F024C
:1050D00012354FD2A0129C6612992C129C88129CF9
:1050E000041299A9D2C09005037401F07F057E00D7
:1050F000129C8B129C547F057E00129C8B129C7F0D
:10510000129956128DED9001AFE0FF129C197F01AC
:105110007E00129C8BE490080AF090080AE0FFC31E
:10512000946474809480501AEF75F00A84E5F070EE
:105130000343CF10129C5A12744390080AE004F003
:1051400080D89000DBE0FF64016003EF70137F7490
:10515000129AD79000DC7480F090053E7422F080A3
:105160003AE490053EF090050F7407F0E49001B624
:10517000F09005D57407F01296CEEF3395E04F709E
:10518000077F3E129AD7801390050DE0FF640260FE
:1051900005EF640170057F06129275E490050CF02E
:1051A00090080AF090080AE0C39419748094805023
:1051B0003143CF10E49005CFF090081374FFF07BDB
:1051C000017D017F011281537F147E00129C8B129E
:1051D0009C919005CFE06401600890080AE004F01B
:1051E00080C222E4FFEFC39404748094805034742E
:1051F000FB2FF582E43400F58374FFF074182FF56B
:1052000082E43401F58374FFF074FF2FF582E434F7
:1052100000F58374FFF0741C2FF582E4340112143E
:105220007680C290089A1210731213F41241FC9007
:10523000089A120FB112130B1241FC90089A121027
:105240009C1213131241FC90089A1210BD12131BEA
:105250001241FCE4FFEFC3940374809480503474D3
:10526000062FF582E43401F58374FFF074232FF5E3
:1052700082E43401F58374FFF074032FF582E43483
:1052800001F58374FFF074202FF582E434011214C9
:105290007680C290089A1210A67F3BFE1241FC90C5
:1052A000089A1210C71213A91241FC90089A121002
:1052B000F61213041241FC90089A1211261213B030
:1052C0001241FCE4FFEFC3940274809480501A747E
:1052D000092FF582E43401F58374FFF074262FF56D
:1052E00082E4340112147680DC90089A1210D112F4
:1052F00013231241FC90089A1210EC12132B124146
:10530000FC02731F90087FEB121007E4120EFF904F
:10531000087F1210B37002FF22E4900882F0A3F01D
:1053200090087F120EDA1211D324FFFFE5F034FF4C
:10533000FE9008821212719E502012129A900887D5
:10534000E02FF0900886E03400F0900883E004F04D
:1053500070CE900882E004F080C690087F120EDACA
:105360001211D312143F121596FFC007900886122F
:1053700011987D0A12165ED007129AB990087F1212
:105380000EDA1211D312143FEF1215D5E4900882F1
:10539000F0A3F090087F120EDA1211D3FFC3900829
:1053A00083E09F900882E095F0506EE4900884F0CE
:1053B000A3F090087F120EDA1211D3900884121213
:1053C0007095F05043900882E0FEA3E0FF6D7002FC
:1053D000EE6C60248F828E83121596FF900884A352
:1053E000E0F5828C83121596FD129BA590087F1222
:1053F0000EDA90088412125A900885E004F070B218
:10540000900884E004F080AA900883E004F070061D
:10541000900882E004F00253937F012290050FE090
:10542000FF7E0064077003025530EF640870047457
:1054300009F022EF64094E6003025530900BEEE054
:105440006402600302551B1296CEEF3395E04F7055
:105450006A900BDCE064017039A3E064017033A34F
:10546000E06401702DA3E064017027A3E064017083
:1054700021A3E06401701BA3E064017015900BE4AC
:10548000E06401700DA3E06401700790050F740CD7
:10549000F022900BDCE064017048A3E064037042EA
:1054A000A3E06405706EA3E064077068900BEDE004
:1054B0006404706090050F740DF0227B017A0B7903
:1054C000DC12553190051DEFF0600C90050F740A49
:1054D000F0E49000F0F022900BEDE0FF7E00640A13
:1054E00070028030EF640C4E6006EF640D4E702445
:1054F0007B017A0B79DC900BEDE0FD7C0012597397
:1055000090051DEFF090050F600D740AF09000F00B
:105510007401F02290050F740BF022900BEEE06402
:1055200003700D90050F7407F0E4900541F0A3F0AF
:105530002290080D124435E4A3F0900810E0FF1209
:10554000442D40030256431243EBE064AA60030279
:10555000563A900813F0900811F0A3740BF09008DD
:1055600011E0FEA3E0FFC3EE6480948040467C001F
:105570007D0212165EED64014C70111244741243E8
:10558000B7124502540F640F601A8010124474124F
:1055900043B7124502C4540F640F6008EB0490082F
:1055A00013F08010900812E024FFF0900811E0340E
:1055B000FFF080AAE4900811F0A3F0900813E0FF38
:1055C000C374119FFFE49400FEC3900812E09FEEA5
:1055D0006480F8900811E0648098505EE4FF9008C1
:1055E00013E0FEEFC39E5031EF540164017014903C
:1055F000080D124390124399124418E0540F6E6044
:1056000015801690080D124390124399124418E029
:10561000C4540FB506030F80C5900813E0B5070A00
:10562000900810E01243DDE0FF22900812E004F041
:105630007006900811E004F08081900810E004F0FA
:1056400002553A7F0022D39005E4E094009005E3F0
:10565000E09400400CA3E024FFF09005E3E034FF69
:10566000F09005E3E07002A3E06003025756900556
:10567000E1E014603C14605D14700302571B147069
:105680000302574D8000D2DC30DB22C390061BE0C2
:1056900094DC90061AE09405500DA3E004F0700627
:1056A00090061AE004F022E490061CF02212717CAD
:1056B00022C2DC9005E3E4F0A3741BF09005E174D2
:1056C00002F0900618E024E6F582E43405F583E064
:1056D0009005E5F02220DC12D2DC1271F06005E4C6
:1056E000F0A38033E4F0A304F022C2DC1271F06076
:1056F00007E4F0A304F08006E4F0A37403F090053F
:10570000E5E0C313F09005E2E004F0C39408748070
:10571000948040429005E17403F022D2DC90061898
:10572000E004F0A3E0FF900618E0C39F501090053E
:10573000E17404F09005E3E4F0A3740AF022E4902D
:1057400005E1F09005E304F0A3744DF0229005E12B
:105750007401F0E4A3F02290080D124435A3124323
:105760009012157D12438C12157D6F6003025863F1
:105770001244AE9000011243889000011215966FFA
:1057800060030258631244AE9000021243889000F6
:10579000021215966F60030258639008101243902E
:1057A0009000031243899000031215966F60030264
:1057B000586390081012439090000412438990009F
:1057C000041215966F6003025863900810124390FC
:1057D0009000051243899000051215966F60030230
:1057E000586390081012439090000612438990006D
:1057F000061215966F706C90081012439090000777
:105800001243899000071215966F70579008101276
:1058100043909000081243899000081215966F700B
:105820004290081012439090000912438990000999
:105830001215966F702D90081012439090000A1266
:10584000438990000A121596B50718900810124364
:105850009090000B12438990000B121596B5070328
:105860007F00227FFF22740490082DF0A37401F0C2
:10587000A322E0900000FEE0FBA3E0FAA3E0F922FF
:10588000EBF0A3EAF0A3E9F022EFFD3395E04D221F
:10589000F0EFA3F090082B7401F0A3227400F074D1
:1058A00000A3F07B017A007900227400F07400A359
:1058B000F07B017A00790022EFF0FD900000740186
:1058C000F0A3740BF0A374BDF07B017A0B79907F89
:1058D00060228E827583000215962496F582E43448
:1058E0000BF583EFF0900000E004F0227400F074F8
:1058F00000A3F07B017A007900227450F0E4A3F059
:105900007B0190082B04F0A322900000E0FFC394D9
:105910000A748094802274172FF582E43408F5838A
:10592000E022EEC394107480948022EFC394047438
:10593000809480227B017A0B79BD22EFFD3395E0C4
:10594000FCED64FE4C2235F0FA7B01E025E025E019
:105950002274962FF582E4340BF583228F827583AF
:1059600000EE0215D57400F0A37400227400F0A3B9
:1059700074002290080D124435A3ECF0A3EDF0E47E
:10598000900820F0A3F0A3F0A3F0129A6CE4900822
:1059900012F0900812E01244924003025A79E4A3F4
:1059A000F0FFEF124458503C900812E0FE1243BB47
:1059B0002F124419E0C4540FFDEF25E02414F582A2
:1059C000E43408F583EDF0EE1243BB2F124419E0E6
:1059D000540FFEEF25E02415F582E43408F583EE3C
:1059E000F00F80BEE4FFEFFDD3900811E09D90081A
:1059F00010E09400401974142FF582E43408F58304
:105A0000E012442D5009900813E004F00F80D79065
:105A10000812E0FD7C00A3E0FF900829E4F0A3EF6A
:105A2000F090080DE0F9A3E0FAA3E090082BC9126A
:105A30004436900810E0FFA3E090082ECFF0A3EFCB
:105A4000F0A37401F0A37408F0A37420F0A3740110
:105A5000F0A37408F0A37422F07B017A0879141281
:105A6000450CD3EF12446D4007900812E004FF226A
:105A7000900812E004F00259927F0022900643E061
:105A8000641170087408121EAD0289CE900643E0BE
:105A9000FF64087003025B78EF640970187D28FCCE
:105AA0007F0AFE12862B900643740AF09006457416
:105AB0008012200222900643E0640A6003025B43E6
:105AC000121F8370649005D1E070579006437412E2
:105AD000121D32F07D327F48129A5CE49000D1F0C2
:105AE0007D0AFCAE04ED7802C333CE33CED8F9FF85
:105AF0002400F58274003EF58374FFF0A3F0740275
:105B00002FF58274003EF583E4F074032FF5827460
:105B1000003EF583E4F00DBD00010CED64324C70E5
:105B2000C22290064374138010121F22121CEB50E5
:105B3000479006437413121F9AF0900645121EF206
:105B4000029A5C900643E06412700D900645E014E2
:105B5000F0121CEB5022801D900643E06413700D80
:105B6000900645E014F0121CEB500D80089006439F
:105B7000E064147003129C2722900B8EE0FF25E056
:105B80002424F8E6FC08E6FDEF25E024CFF582E4C6
:105B9000340AF5832275F008A424DAF582E434A5EA
