:03000000026DFA94
:03000B00028CACB8
:030013000290D286
:03001B000285500B
:03003300029CC468
:03004B00028D6CB7
:03005B00028E5EB4
:03006B00028F837E
:03007B00028801F7
:030083000287638E
:03008B000294C418
:10010000900502E0600302077A122052900BE1EFA3
:10011000F0F4600312950890053EE0121935017065
:1001200000025D0102A20202FC05033006036C0B13
:1001300004220C04370D04420E046A0F04831004D9
:100140008E1204A81304B51404E11505261605390A
:100150001705651A06B41C05911D05C91F076727F9
:1001600005DC2807132C063D2D06FD2E0000077A1E
:10017000121F5A640D602BEF641B700E90053E74C5
:100180001AF09004F17403F08018EF640C4E7012B2
:1001900012956D900505E4F0A37496F090053E74F9
:1001A00020F090050FE0FF64076003020234121E86
:1001B000A05032EF6407600302077A900BFE04F050
:1001C0007410121D29121FE2121FB1500E74ED2E71
:1001D000121D5E90080CE004F080ED90050F74088D
:1001E000F07F01804C121DA470217F011292A39018
:1001F000019B121DF6BEFF06BFFF03E4F022E49050
:100200000507F0A3F090050C04F022900BE1E064E8
:100210000B600302077A90019B121CEC7F017011A6
:100220001292A390053E741FF0E490041712200967
:10023000220292A3900BE1E0FFF4700302077AEF31
:10024000640C700302077A12200A90050FE064091B
:10025000600302077A7F011292A30205D4121E8A5C
:10026000700302047D121E91700302055F12203795
:1002700070030204DB900BE1E0640470030205C329
:10028000121DA4600302077A12082D121D4B7F6015
:10029000129B447F647E00129D0DE490053EF002A7
:1002A0009508900BE1E0FF6401600AEF64026005CD
:1002B000EF64037004E412082D121E8A700E1207F8
:1002C0007BE490053CF090053E02035D121E9170A8
:1002D0000E12077BE490053CF090053E0204CE121E
:1002E0002037700D12078812200290053E740EF020
:1002F00022121DA4600302077A02041C121E8A70D7
:100300000F12078890053E7412F0E490016FF022FE
:10031000121E91701012079590053E7414F090040F
:10032000F5740AF022121DA4600302077A02041C6D
:10033000121E8A7009120795121F6204F022121E03
:100340009170091207A2121F620206F9122037707B
:10035000101207A290053E7417F0900646740FF035
:1003600022121DA4600302077A02041CE490080D07
:10037000F0E02401121E3CB5070EECB5060A120788
:10038000AF90053E741D801890080DE02402121EE7
:100390003CB50710ECB5060C1207AF90053E742D66
:1003A000F0E4803E90080DE02403121E3CB50714D3
:1003B000ECB506101207BC90053E7428F0E49005D9
:1003C000D2F0801E90080DE02404121E3CB5071CDC
:1003D000ECB506181207BC90053E741CF0E49006BC
:1003E00020F0900BEAF0900BE902058390080DE0F5
:1003F0002405121E3CB5071CECB506181207C9905F
:10040000053E741AF0E49004F1F0900BEAF0900BC2
:10041000E90206F9121DA4600302077A1207C90255
:100420009B6090053CE064017003120824121DA437
:10043000600302077A8046121F85600302077A0272
:100440000531900643E06408600302077A121F5AE0
:10045000640B700B900644F09006437409F022EF91
:10046000640A4E600302077A801390053CE0640141
:100470007003120824121DA4600302077A1207D623
:10048000029CA8121F85600302077A0205319001C1
:100490006FE064017008900BE1E0FF1278CD121D4F
:1004A000A4600302077A80339001A3E06401600333
:1004B00002077A807C9004F5E0640B600302077AFF
:1004C000121F5A640B700B9004F6F09004F5740C34
:1004D000F022EF640A4E600302077A1207D6029CEC
:1004E000B690053FE06401700A900BE1E0FF1278DE
:1004F000CD801A90053FE064037002800890053FAC
:10050000E064047008900BE1E0FF1274FD9000D2EB
:10051000E070099000D5E0700302077A121DA46014
:100520000302077A8039900558E0640160030207EE
:100530007A900BE1E0FF0278CD900646E06410600F
:100540000302077A121F5A640B700B900647F09053
:1005500006467411F022EF640A4E600302077A1215
:1005600007E3029CAF9004F1E06401600302077AA4
:10057000900BE1E0640B700F1207E3E49004F2F0DB
:100580009004F17403F022121DA4600302077A8024
:1005900032121E8A700D7AA479EA1207F0E49001F3
:1005A000AD8011121E9170137AA479ED1207F090AC
:1005B00001AD74FFF01293890206B1121DA460030D
:1005C00002077A1207FD0206B1900417E064016089
:1005D0000302077A900BE1E0FF0207649005D2E086
:1005E0006401600302077A121E8A70139000F8F00B
:1005F0009005D27402F07BFF7AA579140206CE1220
:100600001E9170289000F804F09005D204F0128B2F
:10061000A5EF3395E04F70087F7A129B4402077371
:100620007BFF7AA57917128A04020773121DA46052
:100630000302077A1207FD9005D20206F9121E8AFC
:10064000701A9000F9121DF6BEFF08BFFF05E4F016
:1006500012972B7AA5790212080A8055121E917002
:10066000459000F9121CEC703474FFF0E49004F82B
:10067000F0A3F09004FCF0A3F0129301EF2412FE1B
:10068000E4339004FAF0A3CEF09004FEE4F0A374F7
:1006900008F09005027402F0E4900501F07AA57963
:1006A0000512080A800B121DA4600302077A1208C3
:1006B00017029B6E900620E06401600302077A1225
:1006C0001E8A701090062112203E7AA57929128A7E
:1006D00004020773121E91701290062174FF1220FB
:1006E0003E7AA5792C128A04020773121DA46003B6
:1006F00002077A1208179006207402F022900BE18C
:10070000E0FF640B6005EF640A706F121D4B9005EB
:100710003EF02290050FE0FF64077038121EA050D3
:100720002FEF64077054900BFE04F0900BFD7410D3
:10073000121D2C121FE2121FB1500E74ED2E121D4D
:100740005E90080CE004F080ED90050F7408F02234
:10075000121DA422900BE1E0FFF4601E90050FE053
:10076000640970160274FD900BE1E0F4600C7F30B8
:10077000129B447F647E00129D0D227F011292A382
:100780007F647E00129D0D227F011292A37F647E02
:1007900000129D0D227F011292A37F647E00129DA4
:1007A0000D227F011292A37F647E00129D0D227F95
:1007B000011292A37F647E00129D0D227F0112928E
:1007C000A37F647E00129D0D227F011292A37F649D
:1007D0007E00129D0D227F011292A37F647E001283
:1007E0009D0D227F011292A37F647E00129D0D2237
:1007F0007BFF128A047F647E00129D0D227F01120E
:1008000092A37F647E00129D0D227BFF128A047FDB
:10081000647E00129D0D227F011292A37F647E00F0
:10082000129D0D22900BE1E0FF1278CD229001B5D0
:10083000F07F011276A922900828EFF0E4900830AA
:10084000F0900828E0FF25E02424F8E6FC08E6FD07
:1008500075F002EFA424D1F582E5F0340AF583E0C7
:10086000FEA3E0C39DFFEE9C900829F0A3EFF0E407
:100870007F01FEFDFC900828E0F9F81218A48F0F04
:100880008E0E8D0D8C0CAF01129C6990082EEEF02F
:10089000A3EFF0C390082AE09FEE6480F890082947
:1008A000E0648098400890082B7401F08005E49083
:1008B000082BF090082BE064016003020AB3900853
:1008C00028E0FF24EBF582E4340AF583E0C394FAD0
:1008D00074809480500D74EB2FF582E4340AF58314
:1008E000E004F0E50B550FFFE50A550EFEE509554E
:1008F0000DFDE508550CFCE4FBFAF9F8C31218806D
:100900006003020A79900AB3E090082DF0129CFB74
:10091000EF6047E490082BF0A3F090082CE0FFC3B1
:100920009510502274EB2FF582E4340AF583E0C36E
:10093000940174809480400690082BE004F09008A5
:100940002CE004F080D490082BE0C39403748094CE
:1009500080400790082DE0240FF0900828E024EB59
:10096000F582E4340AF583E0FF90082DE0FEEFC342
:100970009E5003020A79E490082BF0129C49EF6024
:1009800003020A0690082CF090082CE0FFC3951093
:10099000502C900828E06F601D129BE590082CE019
:1009A00024EBF582E4340AF583E0C39F4008900805
:1009B0002B7401F0800890082CE004F080CA129C8F
:1009C000FBEF3395E04F6003020A5790082BE0607D
:1009D00003020A57A3F090082CE0FFC3951050774C
:1009E000900828E06F6017129BE590082CE024F82F
:1009F000F582E4340AF583E0C39F400280539008F7
:100A00002CE004F080D0129CFBEF3395E04F704750
:100A100090082DF090082CF090082CE0FFC3951062
:100A2000502274EB2FF582E4340AF583E0C394027C
:100A300074809480400690082DE004F090082CE02B
:100A400004F080D490082DE0C39403748094804017
:100A50000690082B7401F090082BE064017002D21C
:100A600014E50B450FF50BE50A450EF50AE50945BA
:100A70000DF509E508450CF508900828E0FF242E3F
:100A8000F582E4340BF583E4F074912FF582E434BD
:100A90000BF583E4F075F002EFA42414F582E5F081
:100AA000340BF583E4F0A3F074B62FF582E4340A36
:100AB000020E42900828E0FF129969900829E0FC94
:100AC000A3E0FDD39FEE6480F8EC64809840129020
:100AD0000828E024F8F582E4340AF583E004F08085
:100AE00015900C5EE004F0900828E024F8F582E40C
:100AF000340AF583E4F0900B76E0FF3395E0FEC313
:100B0000E49FFBE49EFAC3ED9BEA6480F8EC64800A
:100B1000985003020C0BD390082AE09FEE6480F8F3
:100B2000900829E06480984003020C0B900828E0AC
:100B3000FF242EF582E4340BF583E4F074B62FF530
:100B400082E4340AF583E4F0FFFEFDFCAB0BAA0A55
:100B5000A909A808C31218806003020D479008294C
:100B6000E0FEA3E0FF900828E075F002A42414F54D
:100B700082E5F0340BF583EE8FF01216A6129BB9C6
:100B8000900828E075F002A42414F582E5F0340BF7
:100B9000F583E0FCA3E0C39FEE6480F8EC648098EA
:100BA0004013900828E0FF25E02424F80806E61802
:100BB0007043068040129BB9C3E49FFFE49EFE9001
:100BC0000828E075F002A42414F582E5F0340BF552
:100BD00083E0FCA3E0C39FEE6480F8EC648098405F
:100BE00003020D47900828E0FF25E02424F808E6DA
:100BF000161870011675F002EFA42414F582E5F0C2
:100C0000340BF583E4F0A3F0020D47900B76E0FF80
:100C10003395E0FEC3E49FFFE49EFEC390082AE004
:100C20009FEE6480F8900829E06480984003020CED
:100C3000BD900828E0FF242EF582E4340BF583E014
:100C400004F074B62FF582E4340AF583E4F0742ED0
:100C50002FF582E4340BF583E0FF75F00A84E5F0AC
:100C60007046C3EF946474809480900828E0401428
:100C7000242EF582E4340BF583E4F0D215900B9E1C
:100C800004F0802425E02424F8C000E6FE08E6FFF6
:100C9000900B76E0A2E713FD3395E0FCC3EF9DFFD8
:100CA000EE9CD000F608A607900828E0FF900C57AD
:100CB000E06F6003020D4774FFF0020D47900B7662
:100CC000E0FF3395E0FED390082AE09FEE6480F8C1
:100CD000900829E0648098406E900828E0242EF562
:100CE00082E4340BF583E4F0FFFEFDFCAB0BAA0AB3
:100CF000A909A808C3121880704D900828E0FF24A5
:100D0000B6F582E4340AF583E004F074B62FF58278
:100D1000E4340AF583E06420702D900828E0FF2475
:100D2000B6F582E4340AF583E4F0900B76E0A2E7AE
:100D300013A2E713FD3395E0FCEF25E02424F80827
:100D4000ED26F618EC36F6E50B550FFFE50A550EC5
:100D5000FEE509550DFDE508550C4D4E4F7003029B
:100D60000E5890082EE0FCA3E0FDAE047802CEA25F
:100D7000E713CE13D8F8FFC3ED9FFFEC9EFEC390A0
:100D8000082AE09FEE6480F8900829E0648098408B
:100D900003020E47900828E02491F582E4340BF515
:100DA00083E004F0129C5190082DEFF0E490082CA1
:100DB000F090082CE0FFC39510502274EB2FF582C1
:100DC000E4340AF583E0C394017480948040069073
:100DD000082BE004F090082CE004F080D490082B5D
:100DE000E0C39403748094804008900AB3E09008B4
:100DF0002DF0900828E0FB2491F582E4340BF58374
:100E0000E0FF90082DE0FEEFC39E5003020EC77472
:100E1000912BF582E4340BF583E4F0AF0FAE0EAD09
:100E20000DAC0C121873E50B5FF50BE50A5EF50AC5
:100E3000E5095DF509E5085CF50874EB2BF582E43E
:100E4000340AF583E4F022900828E02491F582E446
:100E5000340BF583E014F022900828E024EBF582AF
:100E6000E4340AF583E4F0FFFEFDFCAB0BAA0AA90B
:100E700009A808C31218807008900828E0FF126DB6
:100E80005BE51014FF900828E06F703B900C5EE06B
:100E9000C395104032E490082CF090082CE0FFC37A
:100EA0009510501B74EB2FF582E4340AF583E06053
:100EB0000690082B7401F090082CE004F080DB9081
:100EC000082BE07002C21422900042E4121729900D
:100ED0000896E0FBA3E0FAA3E09008A1F9E0FEA3E6
:100EE000E0F5828E831215A8FF900893E0FBA3E043
:100EF000FAA3E0F9229000FC75F01DED121929EC1F
:100F000075F01DA42583F58322E4F0A3F0A3F0A3DC
:100F1000F0A3F0A3F0A3F0A3F0A3F0A3F0229008B5
:100F200083E0FEA3E0FF7C007D1D12160990089A65
:100F300074062FF974013EFA7B01E4F0A3229008B5
:100F400083E0FEA3E0FF7C007D1D12160990089A45
:100F500074092FF974013EFA7B01E4F0A3227D1D90
:100F600012160990089A74FB2FF974003EFA7B015F
:100F7000E4F0A3227D1D12160990089A74FF2FF940
:100F800074003EFA7B01E4F0A3227D1D1216099045
:100F9000089A74032FF974013EFA7B01E4F0A3224E
:100FA000900883E0FEA3E0FF7C007D1D121609740B
:100FB000352FF9740190089A3EFA7B01E4F0A322E0
:100FC000900AABE47B017A017918F0A322900883A0
:100FD000E0FEA3E0FF7C007D1D0216097B017A0183
:100FE0007943E4F0A3227B017A017960E4F0A32243
:100FF0007B017A01793DE4F0A3227B017A01795AE1
:10100000E4F0A322E47B017A017945F0A322E0F920
:10101000A3E0FAA3E090088FC9F0A3EAF0A3E9F0F7
:10102000229000011215A8FF900028E48FF01217FB
:10103000299000021215A8FF90002AE48FF01217E1
:10104000299000031215A8FF90002CE48FF01217CE
:10105000299000041215A890002EFFE48FF00217CB
:1010600029E47B017A017962F0A322EFF0AF037CDF
:10107000007D64AE0212161B7F0A7E00CFCDCFCE5C
:10108000CCCE02161BE47B017A0079FBF0A3229000
:101090000010E475F00112172990088DE4F0A30404
:1010A000F0900885E0FCA3E0FD7F017E0022E47B58
:1010B000017A0079FFF0A322E47A0179067B01F03E
:1010C000A37403F022E0FBA3E0FAA3E04A4B22E47E
:1010D0007B017A01791CF0A322E47B017A01792358
:1010E000F0A322E47B017A017909F0A32290089908
:1010F000E0FEA3E090089DFFE0FCA3E0FD22E47B7E
:10110000017A017926F0A322E47B017A017903F0C8
:10111000A32275F00AA42DFFE5F03CFE1215A87C71
:10112000002FFFEC3E9000158FF01217299000441D
:101130001216D2640145F022E47B017A017920F095
:10114000A322900883E0FEA3E0FF64014E22EEF0AC
:10115000A3EFF0E4A3F0A3F0EF4E221215A8FF7E58
:10116000007C037DE8121609AC06AD07227C002F37
:10117000FFEC3EFEF0A3EFF022CFF0A3EFF07B01F7
:101180007A08793622FF1215A8FD129C1DAE079031
:10119000087F22EEF0A3EFF0900885E0FEA3E0FFC9
:1011A000229400CF2401FBE43FFAE0FEA3E0FF7CA1
:1011B00000227B01900AABE4F0A322FFE0FD129B2A
:1011C0003590087F221215A8FFAD06129B359008B6
:1011D0007F2275F00AA42DFFE5F03CFE75F01DEBB3
:1011E000121929EA2290000E0216D290089DE0FE04
:1011F000A3E0FFC3221215A875F064A42DFDEC3501
:10120000F0FC2290089AE024FFFE900899E09008F4
:101210009D34FFF0A3CEF0229008A5E0FEA3E0FFEE
:10122000ED6F22900005EF1215E79000060215A859
:101230007B0190089AF0A37404F022900002EF1250
:1012400015E79000030215A8900008EF1215E7902B
:1012500000090215A8900824E0F9A3E0FAA3E0220F
:10126000E0FEA3E0FFF5828E830215A8E0FCA3E078
:10127000F5828C83EF0215E7FFE0FD129C1D9008BC
:10128000AF22FFE0FCA3E0FDC39FEC227C002FFF18
:10129000EC3EFEF0A3EFF0229000171216D2FFC32F
:1012A00090088EE09F90088DE095F0228D828C83CF
:1012B0001215A8FF22E4F0A3F0A3F022EFF09000B3
:1012C000070215A87D0A12161BAF05AE04AD03ACCC
:1012D0000202161BF09000080215A8F0900005020B
:1012E00015A8FB75F01D121929EA22900010E4756B
:1012F000F00112172990088EE004F02290001202EB
:1013000015A89000130216D2A3ECF0A3EDF0227CF6
:10131000277D1002161B7403F07F37FE227404F041
:101320007FA67E03227404F07F327E03227404F0D1
:101330007F427E03227402F07F3F7E03227402F01C
:101340007F4F7E0322FC7D1D0216099000150216B8
:10135000D2900827E0FFA3E0900883CFF0A3EFF03E
:10136000227D017BFF7E00021569900003EF1215BC
:10137000E79000041215A8FF2290089EE024FFF0D9
:1013800090089DE034FFF022900001EF1215E790E5
:1013900000020215A8F090000A0215A8900017128A
:1013A00016D2FF900891E065F022FFE0FD129C1D2F
:1013B00090087F22E4F0A3F0A3F0227403F07F4BA7
:1013C000FE227403F07F47FE22900883FFE0FCA317
:1013D000E0FD2275F064A42BFFE5F03AFEA3E022C5
:1013E000900010E4F5F022E0FBA3E0FAA3E0227CF9
:1013F000007D0A02161B740CF07F737E0322740CAE
:10140000F07F857E03227404F07FA07E0322EFF03C
:1014100090000C0215A8900893E0FCA3E022A3F032
:10142000A37401F0A322FF900892E5F0F0A3EFF07F
:101430002274FF2DF58274FF3CF58322F58274FF40
:101440003EF5830215A89008A1E0FCA3E0FDEF6D36
:101450002224FFF58274FF35F0F583227B0190088A
:101460009AF0A37403F022A3F0A3F090089A227BD1
:101470000190089AE4F0A304F022F090000B02150A
:10148000A8EF1215E77F0122F58374FFF00F22FF0A
:10149000AEF0C39410EE942722E709F608DFFA8035
:1014A00046E709F208DFFA803E88828C83E709F07C
:1014B000A3DFFA8032E309F608DFFA8078E309F265
:1014C00008DFFA807088828C83E309F0A3DFFA805A
:1014D0006489828A83E0A3F608DFFA805889828AC9
:1014E00083E0A3F208DFFA804C80D280FA80C680C5
:1014F000D4806980F28033801080A680EA809A8050
:10150000A880DA80E280CA803389828A83ECFAE498
:1015100093A3C8C582C8CCC583CCF0A3C8C582C874
:10152000CCC583CCDFE9DEE7800D89828A83E49332
:10153000A3F608DFF9ECFAA9F0EDFB2289828A8391
:10154000ECFAE0A3C8C582C8CCC583CCF0A3C8C55B
:1015500082C8CCC583CCDFEADEE880DB89828A835F
:10156000E493A3F208DFF980CC88F0EF60010E4E1F
:1015700060C388F0ED2402B4040050B9F582EB2476
:1015800002B4040050AF23234582239014E973BBB7
:10159000010689828A83E0225002E722BBFE02E331
:1015A0002289828A83E49322BB010CE58229F58299
:1015B000E5833AF583E0225006E92582F8E622BB6E
:1015C000FE06E92582F8E222E58229F582E5833AE2
:1015D000F583E49322BB010689828A83F0225002BC
:1015E000F722BBFE01F322F8BB010DE58229F5824B
:1015F000E5833AF583E8F0225006E92582C8F62211
:10160000BBFE05E92582C8F222EF8DF0A4A8F0CF39
:101610008CF0A428CE8DF0A42EFE22BC000BBE00C0
:1016200029EF8DF084FFADF022E4CCF875F008EFDF
:101630002FFFEE33FEEC33FCEE9DEC984005FCEE04
:101640009DFE0FD5F0E9E4CEFD22EDF8F5F0EE8435
:1016500020D21CFEADF075F008EF2FFFED33FD40FA
:1016600007985006D5F0F222C398FD0FD5F0EA2274
:10167000C2D5EC30E709B2D5E4C39DFDE49CFCEE95
:1016800030E715B2D5E4C39FFFE49EFE12161BC3DC
:10169000E49DFDE49CFC800312161B30D507C3E4D7
:1016A0009FFFE49EFE22C5F0F8A3E028F0C5F0F805
:1016B000E582158270021583E038F022A3F8E0C5B8
:1016C000F025F0F0E582158270021583E0C838F04D
:1016D000E822BB0110E58229F582E5833AF583E033
:1016E000F5F0A3E0225009E92582F886F008E62209
:1016F000BBFE0AE92582F8E2F5F008E222E5832A3A
:10170000F583E993F5F0A3E99322BB010A89828A64
:1017100083F0E5F0A3F0225006F709A7F01922BBE9
:10172000FE06F3E5F009F31922F8BB0111E5822961
:10173000F582E5833AF583E8F0E5F0A3F02250095D
:10174000E92582C8F608A6F022BBFE09E92582C871
:10175000F2E5F008F222E88FF0A4CC8BF0A42CFC88
:10176000E98EF0A42CFC8AF0EDA42CFCEA8EF0A407
:10177000CDA8F08BF0A42DCC3825F0FDE98FF0A496
:101780002CCD35F0FCEB8EF0A4FEA9F0EB8FF0A48D
:10179000CFC5F02ECD39FEE43CFCEAA42DCE35F0C9
:1017A000FDE43CFC2275F008758200EF2FFFEE335C
:1017B000FECD33CDCC33CCC58233C5829BED9AECC4
:1017C00099E58298400CF582EE9BFEED9AFDEC992E
:1017D000FC0FD5F0D6E4CEFBE4CDFAE4CCF9A88238
:1017E00022B800C1B90059BA002DEC8BF084CFCEDD
:1017F000CDFCE5F0CBF97818EF2FFFEE33FEED339B
:10180000FDEC33FCEB33FB10D703994004EB99FB61
:101810000FD8E5E4F9FA227818EF2FFFEE33FEED4A
:1018200033FDEC33FCC933C910D7059BE99A400757
:10183000EC9BFCE99AF90FD8E0E4C9FAE4CCFB226E
:1018400075F010EF2FFFEE33FEED33FDCC33CCC837
:1018500033C810D7079BEC9AE899400AED9BFDEC42
:101860009AFCE899F80FD5F0DAE4CDFBE4CCFAE481
:10187000C8F922CFF4CFCEF4CECDF4CDCCF4CC2227
:10188000EB9FF5F0EA9E42F0E99D42F0E89C45F0BE
:1018900022E8600FECC313FCED13FDEE13FEEF1313
:1018A000FFD8F122E8600FEFC333FFEE33FEED33D4
:1018B000FDEC33FCD8F1227401FF3395E0FEFDFC12
:1018C000A3A3A3E0CF2FF0E582158270021583E079
:1018D000CE3EF0E582158270021583E0CD3DF0E545
:1018E00082158270021583E0CC3CF022ECF0A3ED6F
:1018F000F0A3EEF0A3EFF022A8828583F0D083D08E
:101900008212190F12190F12190F12190FE473E432
:1019100093A3C583C5F0C583C8C582C8F0A3C5839A
:10192000C5F0C583C8C582C822A42582F582E5F02A
:101930003583F58322D083D082F8E493701274014A
:1019400093700DA3A393F8740193F5828883E473D5
:101950007402936860EFA3A3A380DF900893EB1257
:101960001019E490089B120F16900899E0FCA3E070
:10197000FD90089FECF0A3EDF0120EE91213022582
:10198000E0FBE5F033FAED24FAFFEC34FFFE7C00D7
:101990007D0512161B909D2275F0C8ED121929ECD9
:1019A00075F0C8A42583F583E5822BF582E5833A9B
:1019B000F583E493FE740193FBAA067C007D64FF2B
:1019C00012161B9008A1EEF0A312106BA3EEF0A369
:1019D000EFF0AE02AF031213EF121308E4120F156B
:1019E000900899E0FCA3E0FD24F5FEEC34FF90089C
:1019F000ABF0A3CEF09008931210C57002FF221234
:101A00000EE9121302FFAEF0D39400EE94004008EA
:101A1000EF9464EE940040037F002290089F12111F
:101A2000EE9406EE94004009D3EF940CEE9400403F
:101A3000037F0022C002C00190089612125890083D
:101A4000B2121018121308D001D0021263F09008DD
:101A5000AB1211EEEE9400405BD3EF9402EE9400D3
:101A600050529008A2E09F9008A1E09E500CA3E085
:101A7000240AF09008A1E03400F0D39008A4E09F7D
:101A80009008A3E09E500CA3E0240AF09008A3E085
:101A90003400F09008ABE0FEA3E0FFD39008A6E08E
:101AA0009F9008A5E09E500CA3E0240AF09008A5A2
:101AB000E03400F090089DE4F0A304F01210EDD3A0
:101AC0009FEC9E50359008A112121B7002EC6E60C4
:101AD00019A312121B7002EC6E600FA312121B707E
:101AE00002EC6E6005121308801090089EE004F06E
:101AF00070CA90089DE004F080C2E490089DF0A3B5
:101B0000F01210EDC39FEC9E5026900896120EEC3A
:101B10001212AC90089CE02FF090089BE03400F08B
:101B200090089EE004F070D990089DE004F080D108
:101B3000120EE91212FC64066003021C1C9008AD30
:101B4000F0A3F01212031211EBEE940040361214BF
:101B5000467002EE6C6028A31210F06F7002EC6EFB
:101B6000601D1212187002EC6E6014A312121B702A
:101B700002EC6E600A9008ADECF0A3EDF080051267
:101B8000137980C2120EE91210211212DC9000307B
:101B900012105A75F005120EC89000281216D26F56
:101BA0007002E5F06003021CDC9008961213E790C7
:101BB00008A3120EDC90002A1216D26F7002E5F014
:101BC0006003021CDC900896120EEC9008A5120E21
:101BD000DD90002C1216D26F7002E5F06003021C3B
:101BE000DC900896120EEC9008A7120EDD90002EE5
:101BF0001216D26F7002E5F06003021CDC900896AA
:101C0000120EEC9008AD120EDD9000301216D26F5D
:101C10007002E5F06003021CDC021CBF120EE91228
:101C200012FC64076003021CC71212031211EBEED0
:101C3000940040271214467002EE6C6019A3121033
:101C4000F06F7002EC6E600E1212187002EC6E6093
:101C500005121308800512137980D1120EE91210B3
:101C60002175F004120EC89000281216D26F70026F
:101C7000E5F07068900896120EEC9008A3120EDD45
:101C800090002A1216D26F7002E5F0704F900896FD
:101C9000120EEC9008A5120EDD90002C1216D26FD9
:101CA0007002E5F07036900896120EEC9008A712BC
:101CB0000EDD90002E1216D2B50721E4B5F01D906E
:101CC000004475F0018012120EE9900042E4F5F034
:101CD000121729900044E4F5F0121729120EE912A8
:101CE000112D7F0070027F012290061CE0FF3395CA
:101CF000E0FEEF4E2290053BE0FF14F0EFC39401AD
:101D00007480948022E490053EF090050F7407F0F3
:101D1000E49001B6F09005D57407F02274049005A4
:101D20003FF0E4900BFEF0740C900BFDF0900BFF75
:101D30007401F022900BE9E0FFA3E0FEC39F227440
:101D40000E900556F090055574802290050F74078B
:101D5000F09005D5F0E49001B6F02274ED2FF582F5
:101D6000E4340BF58374FFF022FF24FCF58274FF4A
:101D70003EF583ECF0A3EDF074FE2FF58274FF3E88
:101D8000F5837401F074FF2FF58274FF3EF5832212
:101D900090080374FFF5F01216A6FCC3E5F0940159
:101DA000EC940022900BE1E0640A229000F7E0FF3F
:101DB0007E00D394007480948022E4F090053E74F9
:101DC00024F09000F5E4F0A37480F02290054B74A9
:101DD000FFF5F01216BCFEC3E5F09401EE2290056B
:101DE0003C740CF090042AE090053DF090053B74A3
:101DF00080F0229000EFE0FF3395E0FE22900BEAA6
:101E0000E004F022900554E024FFFF900553E034F5
:101E1000FFFE2290080CE0FFC3940C748094802293
:101E20009005417402F0A37480F090054AE06401CB
:101E300022F09000C8E4F0A3F0A3F022FFE433FE08
:101E4000900BE1E07C00229007FEF0900803E4F0A4
:101E5000A37440F022E49000CCF0A3742BF0A374A0
:101E6000F2F0229000CBC3E094057480948022FFAE
:101E700024FCF58274FF3EF58374FFF0A3F074FE3A
:101E80002FF58274FF3EF583E422900BE1E06401BC
:101E900022900BE1E064022290053F7413F0A3222C
:101EA000900BE1E0FDC3940A748094802204F0E476
:101EB000900BE8F022900BE8E0FF7E00640222F035
:101EC000A37401F07BFF7AA57937229004F1F0909A
:101ED00004F37440F0E422E0C394047480948022FC
:101EE0007E00900539EEF0A3EFF024FFFFEE34FF03
:101EF000FE22900556740EF0A3740CF0E422F0A3B9
:101F00007403F0A37480F07D347F4822900BE4E0EA
:101F1000FCA3E0FD900553ECF0A3EDF02290050F3B
:101F20007407F022E004F0900539E0FCA3E0FDAE78
:101F300004780222900555E014F02290080CE00489
:101F4000F022E075F004A424CFF974A435F0FA7BF4
:101F5000FF229007FEE0FF7E0022900BE1E0FF7E73
:101F6000002290053E7415F0E490053FF090054A7C
:101F7000229000F8E06401227403F0E4900429F058
:101F8000900BE8F022900556E0640122900000F0EA
:101F9000A3F0229005CFE0640122E014F0900553F5
:101FA000E0FEA3E0780222A3740EF09005D174261F
:101FB00022900BFDE0FF90080CE0FEC39F22E0247E
:101FC000FFF09000F5E034FFF0229005567402F027
:101FD000E490061DF022F090054B7401F0A37440CC
:101FE000F022900BEDEDF090080C7401F022C394F8
:101FF0000274809480229005417402F0A37480F0F2
:1020000022F09006437411F022F090019B74FFF0CF
:1020100022F0E49005CFF0227B017A0B79ED22903B
:10202000055CE06401227B037D037F0322E49000D2
:10203000EDF0A3F0A3F022900BE1E0640322F09016
:1020400006207402F07BFF22E490080BF090080A4F
:10205000F0221286BA90080E1218EC128B35600727
:10206000128B4CA31218ECC390050AE09420900543
:1020700009E0940050037FFF2230190A128B35705B
:1020800002C2197FFF22128B4C124BF220C207E4CE
:10209000900C42F08006900C4274FFF0128B1D7081
:1020A00009900C47E070030221A7900C37128B2097
:1020B000700B900C47E0640170030221B6900C385D
:1020C000128B20700B900C47E0640270030221C653
:1020D000900C39128B20700B900C47E06403700356
:1020E0000221D7900C3A128B20700B900C47E064C1
:1020F0000470030221E8900C3B128B20700B900CB3
:1021000047E0640570030221F9900C3C128B2070AB
:102110000B900C47E06406700302220A900C3D12FB
:102120008B20700B900C47E06407700302221A901A
:102130000C3E128B20700B900C47E0640870030279
:10214000222A900C3F128B20700B900C47E0640900
:10215000700302223A900C40128B20700B900C47B7
:10216000E0640B700302224A900C41128B20700B2A
:10217000900C47E0640A700302225A900C42128BC2
:1021800020700B900C47E0640D700302226A900CE3
:1021900046128B20700CA3E0640C7006900C4A026F
:1021A000227D128B1D7007900C4AF0022285900C44
:1021B00037128B207008900C4A04F0022285900C94
:1021C00038128B207009900C4A7402F0022285901C
:1021D0000C39128B207009900C4A7403F00222858E
:1021E000900C3A128B207009900C4A7404F0022271
:1021F00085900C3B128B207009900C4A7405F002FC
:102200002285900C3C128B207008900C4A7406F0CA
:102210008073900C3D128B207008900C4A7407F06C
:102220008063900C3E128B207008900C4A7408F06A
:102230008053900C3F128B207008900C4A7409F068
:102240008043900C40128B207008900C4A740BF065
:102250008033900C41128B207008900C4A740AF065
:102260008023900C42128B207008900C4A740DF061
:102270008013900C46128B20900C4A7005740CF061
:10228000800374FFF0900C4AE0FF900642F0F47077
:1022900003022315900C47E0FD900C4AE0FC6D60B2
:1022A00015EF640D9008166004ECF0800374FFF0E5
:1022B000900C47EC8079D3900C49E094C0900C4886
:1022C000E09400500FA3E004F07006900C48E00486
:1022D000F0128B5B900C48E0FEA3E0FFD39460EE1D
:1022E0009400402CEF94C0EE9400400EA3E0640DE7
:1022F0007008900816741BF08003128B5B900C35ED
:10230000E004F0D3947F748094804029E4F0802529
:10231000128B5B8020900C47E0FF640D90081670D4
:1023200004EFF0800374FFF0900C4AE0900C47F04B
:10233000E4A3F0A3F0900816E0FF2290053FE070C0
:10234000739000D2E0701D90054AE0640270159011
:1023500000D5E0700F121E987407F0A3121DC57F00
:102360003E029B4490054AE0FF7E006401700E909F
:1023700000D5E0121FEE50028001C35018EF640236
:102380004E70289000D4E0C394087480948050026A
:102390008001C34016121E987406F0A3121DC57F5B
:1023A00058129B447F647E00029D0D90053F74018E
:1023B000121EAE2290053FE0640170417403121FAB
:1023C000D6E4900BE8121E2970051298968003122D
:1023D0009863900543EFF0121D22E490080CF01270
:1023E0001E135008121D5B121F3B80F3121E207B30
:1023F0005270047D4C80027D4E7F66806C90053F5C
:10240000E06403600302249B900BFFE0640270739E
:10241000900BFED3121E674053E490080CF0900816
:102420000CE0121E18501EE0FF24EDF582E4340B80
:10243000F583E0FE74D52FF582E4340BF583EEF0DE
:10244000121F3B80D9121D1CE490080CF0121E13C1
:102450005008121D5B121F3B80F3121E207B52702E
:10246000047D4C80027D4E7F68029B7C7403121DAC
:102470001EE490080CF0121E135064121D5B121F14
:102480003B80F3900BFFE064037002805C121DCC74
:1024900064809480400302261F806790053FE064BB
:1024A000047067FD7F05129AB7900BFF121EB8707B
:1024B00032900BFEE0D3121E68400790053F740572
:1024C000F022121D1CE490080CF090080CE0FD12A4
:1024D0001E18500B74ED2D121D5E121F3B80EB1267
:1024E0001FF622EF64034E700D121E98740CF0A3B9
:1024F000E4F0A304F022121DCC6480948040030217
:10250000261F121E98740102258F90053FE0640576
:10251000600302259B7B0190081004F0A3740BF06C
:10252000A374EDF07A0B79D5125771EF3395E04F24
:10253000705812201812554BEF703F12201890055A
:1025400043E0FD126F2EEF3395E0FEEFF47002EEE4
:10255000F4600302261F90053F7412F090054112AB
:102560001DC57D327F44129AD8121E2A7005900034
:10257000D580039000D4E004F022121E987404F079
:10258000A3121DC57D527F56800E121E987409F04D
:10259000A3121DC57D347F44029AD890053FE064A4
:1025A000127020900541121DCF940050729000D2FD
:1025B000E07069121E2A70649000D5E06401705CBE
:1025C000029B6090053FE064137054900541121D1A
:1025D000CF9400504A900540E0FF7E00640C700EDE
:1025E0009000D2E070089000D5E070028011900059
:1025F000D2E0700F121E2A700A9000D5E07004120B
:102600001D0622EF64064E600E900540E0FF640C4C
:102610006005EF64077005121E2A8000129CAF222D
:102620007A0179351211B27404F07FAD7E031289FC
:102630002E900135E0F4600FA3E0F4600AA3E0F40B
:102640006005A3E0F47017E4900135120F169008AE
:102650009A1210867404F07FAD7E0312420B120FA3
:10266000C07404F07FB47E0312892E900152E0F40E
:10267000600FA3E0F4600AA3E0F46005A3E0F47047
:1026800015E4900152120F167A0179521212307F1E
:10269000B47E0312420B7A0179391211B27404F03C
:1026A0007F527E0312892E900139E0F4600FA3E07F
:1026B000F4600AA3E0F46005A3E0F47015E490016F
:1026C00039120F167A0179391212307F527E0312B5
:1026D000420B7B017A0179561211B47404F07F62C7
:1026E0007E0312892E900156E0F4600FA3E0F4609F
:1026F0000AA3E0F46005A3E0F47017E49001561219
:102700000F167B017A0179561212327F627E031214
:10271000420B7B017A0179401211B47403F07F5BA4
:10272000FE12892E900140E0F4600AA3E0F46005F7
:10273000A3E0F470139001401212B57A01794012AF
:10274000145C7F5BFE12420B7B017A01795D1211F2
:10275000B47403F07F6BFE12892E90015DE0F4608B
:102760000AA3E0F46005A3E0F4701390015D121277
:10277000B57A01795D12145C7F6BFE12420B900AF0
:10278000AB120FDC7402F07F5F7E0312892E900182
:1027900043E0F46005A3E0F4701090089A120FDC97
:1027A0007402F07F5F7E0312420B900AAB120FE6B9
:1027B0007402F07F6F7E0312892E900160E0F46056
:1027C00005A3E0F4701090089A120FE67402F07FEF
:1027D0006F7E0312420B900AAB120FF01213161207
:1027E000892E90013DE0F4600AA3E0F46005A3E0C7
:1027F000F4700F90089A120FF07403F07F57FE12D6
:10280000420B900AAB120FFA7403F07F67FE128935
:102810002E90015AE0F4600AA3E0F46005A3E0F40E
:10282000700F90089A120FFA7403F07F67FE12423D
:102830000B900AAB1210041213F612892E90014568
:10284000E0F46037A3E0F46032A3E0F4602DA3E08D
:10285000F46028A3E0F46023A3E0F4601EA3E0F496
:102860006019A3E0F46014A3E0F4600FA3E0F46047
:102870000AA3E0F46005A3E0F47012900145120F82
:10288000091214671210051213F612420B900AABCC
:102890001210611213FE12892E900162E0F460376B
:1028A000A3E0F46032A3E0F4602DA3E0F46028A379
:1028B000E0F46023A3E0F4601EA3E0F46019A3E059
:1028C000F46014A3E0F4600FA3E0F4600AA3E0F462
:1028D0006005A3E0F47013E4900162120F0A121471
:1028E000671210621213FE12420B2290080CEEF0D7
:1028F000A3EFF0900429E07015741E126779A37499
:1029000001F0E4A3F0A374FFF07F6C022AA190040D
:1029100029E0641E7005741F022AC7900429E06430
:102920001F7063126766704F9005D1E070089004C5
:10293000297420022AE49005D1E0FF6403600AEFC5
:1029400064026005EF64F9702B900429741EF01284
:1029500067EA6003022B90900425E024FFF09004C6
:1029600024E034FFF0126732648094804003022B2D
:1029700090022B86022A4312672F648094804003C2
:10298000022B90022B86900429E0642070107421A1
:10299000126770900426E0FF128AD8022B57900429
:1029A00029E064216003022A581267666003022A44
:1029B000499005D1E07052900426E0FF7E0064014A
:1029C0007020900428E0FD3395E0FCED4C701390EE
:1029D0000426E004F09004297424F090042874FF85
:1029E0008020C3EF9405EE648094809004295010F9
:1029F000126777A3E004F0122B91129D0D022AE5D5
:102A00007417F01267D9022AE59005D1E0FF640639
:102A10006005EF6403702C900427E0C39403748076
:102A20009480900429500E126777129508122B910A
:102A3000129D0D80077429F0A3740BF0900427E019
:102A400004F022900429022B7512672F6480948071
:102A50004003022B90022B86900429E06424700F1F
:102A600074251267707B32FAFDFC7F01028124908D
:102A70000429E06425704612676670329005D1E043
:102A8000FF7E00700B9004297429F0A3740AF022D1
:102A9000EF64094E90042970121267771295087F2F
:102AA0006E129B447F967E00029D0D022B7512676D
:102AB0002F648094804003022B90022B869004297F
:102AC000E06422700874231267700298DF90042972
:102AD000E06423702812676670141267EA90042974
:102AE00060067422F0029508741E1267792212673C
:102AF0002F648094804003022B90022B869004293F
:102B0000E06417700A74181267701297DB8048909F
:102B10000429E0FF7E0064187022126766700F902F
:102B200005D1E090042970047419F02280479004C4
:102B3000241267CA648094805056804AEF64194E0C
:102B40007019900429741A12677090080CE0FCA3A5
:102B5000E0FD7F011286081267D922900429E06403
:102B60001A702D12676670159005D1E090042970D7
:102B7000047428F0227429F0A3740BF02212672F3A
:102B800064809480500A9004297429F0A37401F0A1
:102B9000227F6E129B447F967E002290087FEB126C
:102BA0001019900889120F0990087F1210C5700241
:102BB000FF2290087F120EEC1213E0121729C002B8
:102BC000C0019008821212589008961210189008AE
:102BD00087E0FFA3E0900899CFF0A3EFF0D001D0F9
:102BE0000212195BEF7002FF2290087F120EEC12A6
:102BF00012FC24F96069046003022DF890000612AB
:102C0000115B9000071211F51212D59000091211F4
:102C1000126003022E04121198127ACD900889EEE8
:102C2000F0A3EFF090087F120EEC12134B12148FEA
:102C30004003022E049008891212839E5002800FD6
:102C4000BC2716BD0F13C3EF940BEE9400500A90EF
:102C50000010E475F001022E011213E0022E019023
:102C6000087F120EEC12122A75F00AA4FDACF012C5
:102C700012DC75F064A42DFFE5F03CFE1212BE7C60
:102C8000002FFFEC3E9000178FF0121729900008DC
:102C900012115B9000091211F512139690000B129D
:102CA00011126003022E04121198127C4290088BBC
:102CB000121193127D3990088D121193127EA090FB
:102CC00008911211931282B490088FEEF0A3EFF0E6
:102CD00090087F120EEC12134B12148F4003022E39
:102CE0000490088BE0FCA3E0FDC3940FEC94275004
:102CF00073C3ED9FEC9E5003022DAE90087F120E21
:102D0000EC12134BFF90088BE065F07003A3E06FAB
:102D1000704612139C7003A3E06F6003022DAE9007
:102D2000087F120EEC121302FF90088FE065F0701E
:102D300003A3E06F600612108F12659C90087F124B
:102D40000EEC1212984003022E041212EB70069041
:102D5000088DE004F0022DE690087F120EEC1213AD
:102D6000E0022E0190088BE064277004A3E0640F5A
:102D70006003022E0490087F120EEC12134BC394D2
:102D80000BE5F09400500612108F12659C90087F9E
:102D9000120EEC12134BFF90088BE065F07003A34A
:102DA000E06F706012139C7003A3E06F6005121057
:102DB0008F804090087F120EEC121302FF90088F54
:102DC000E065F07003A3E06F600612108F12659C3F
:102DD00090087F120EEC12129850291212EB700616
:102DE00090088DE004F090088DE0FEA3E090088547
:102DF0001213CC12659C800C90087F120EEC1213FB
:102E0000E012172990087F120EEC9000101211307A
:102E10007F0070027F01229000CC121CEC700B909E
:102E2000053E7427F07F041276A99005DFE0700656
:102E30007420F01283779005D5E0640470649000EC
:102E4000ED74FFF09005DDA3E09000F3F01295081B
:102E5000121E329000F8E070047F018020121F7172
:102E6000707C121DF3BEFF07BFFF047F06800E902B
:102E700000EE121DF6BEFF0ABFFF077F041298F78F
:102E8000805C9000F7E0700512307A8051121DAB23
:102E9000404CEF64017003121D159000F7E014F030
:102EA000803C9005D5E064057034123086700A7F4E
:102EB000091298F71295088025E49000EDF0900033
:102EC000F104F09000F3121DBA7F40129B44900071
:102ED000C9121ED75005E004F08003121E55124699
:102EE000959001B6E0642870629000EE74FFF09057
:102EF00001B1A3E0049000F2121E319000F8E070DE
:102F0000047F038070121F716003022F9F9000EDF9
:102F1000121DF6BEFF07BFFF047F048058121DF389
:102F2000BEFF07BFFF047F05804B9000F7E07005F0
:102F300012307A806A121DAB4065EF640170049014
:102F400001B6F09000F7E014F080549001B6E06410
:102F500029704CA3E0642B70089000FA7402F08092
:102F600005E49000FAF0123086700F9000FAE064E9
:102F70000260077F091298F78025E49000EEF09038
:102F800000F17403F0E4A3121DBB7F40129B449038
:102F900000C8121ED75005E004F08003121E55121F
:102FA000543690050FE0640A705F9000EF74FFF0F4
:102FB00090051DE09000F4121E319000F8E0600EC4
:102FC0009000F0E0FF64016005EF640270047F028E
:102FD000804B121F7160030230799000ED121DF6D4
:102FE000BEFF07BFFF047F0680339000EE121DF680
:102FF000BEFF07BFFF047F0580237F7A129B441228
:103000001F1D9000F77480F02290050FE0640B7094
:103010003512974AEF3395E04F70057F090298F714
:10302000E49000EFF09000F17402F09000F4121DB3
:10303000BA7F40129B449000CA121ED75004E0048D
:10304000F022121E552290050FE0FF7E00640C70E6
:103050000D90043DF0A3F090053E7426F022EF643D
:103060000D4E7003029A9490050FE0641C700A7D67
:10307000327F44129AD8121F1D227F7A129B4490ED
:1030800000F77480F02212974AEF3395E04F2290B8
:10309000087FEB121019A3EDF090087F1210C57095
:1030A000030232FFA3E06406600302315B90087FF5
:1030B000A3A3E0F912122A1213C99000FB75F01DA8
:1030C000120EFC1212BCFF120EF5EF1212D4FF907A
:1030D00000FD120EF8EFF012124FFF9000FE120EDC
:1030E000F8EFF09000FB120EF8E0FF900135120EA1
:1030F000F8EFF0120EF5E0FF900136120EF8EFF047
:103100009000FD120EF8E0FF900137120EF8EFF07C
:103110009000FE120EF8E0FF900138120EF8EFF06A
:10312000ED4C701A9008831211AA120F5E12140649
:1031300012420B120FA07404F07FAD0232FA12118A
:103140004260030232FFFC120F5E12131D12420B8B
:10315000120FA07404F07FB40232FA900882E06487
:103160000760030232FF90087F120EEC1212D51294
:1031700013C99000FF75F01D120EFCEFF012124FF4
:10318000FF900100120EF8EF121395FF900101124B
:103190000EF8EF12147AFF900102120EF8EF1212DD
:1031A000DBFF900106120EF8EFF012122AFF9001D9
:1031B00007120EF81212BCFF900108120EF8EFF081
:1031C00012158FFF900109120EF812140EFE9001D5
:1031D0000A120EF8EE1212D4FE900139120EF8EE19
:1031E000F012124FFE90013A120EF8EE121395FEF5
:1031F00090013B120EF8EE12147AFE90013C120E72
:10320000F8EE1212DBFE900140120EF8EEF01212F0
:103210002AFE900141120EF8EE1212BDFE900142FC
:10322000120EF8EEF0900143120EF812140EFF90F9
:103230000144120EF8EFF0ED4C7062900883121109
:10324000AA120F7412132512420B120F1E7403F0F0
:103250007F3BFE12420B120F3E12133512420B122D
:103260000FCD74392FF97401120FB57404F07F5229
:103270007E0312420B120FCD74402FF97401120F0E
:10328000B57403F07F5BFE12420B120FCD74432F17
:10329000F97401120FB57402F07F5F805D12114264
:1032A000705DFC120F7412132D12420B120F1E12BE
:1032B00013BB12420B120F3E12133D12420B120FA0
:1032C000CD74392FF97401120FB57404F07F627E4A
:1032D0000312420B120FCD74402FF97401120FB577
:1032E0007403F07F6BFE12420B120FCD74432FF963
:1032F0007401120FB57402F07F6F7E0312420B222D
:10330000E490081CF0A31218F800000000900821B7
:103310001218F800000000E4900825F0A3F0300334
:103320000302342B129D04500302341D1292749038
:10333000081D1218ECE490081BF090081BE0C395E0
:1033400010503990081D125C3278011218919008C3
:103350001D1218EC30D720125C06C000C001900886
:103360001B125BF5E0F9F81218A4D001D000125C32
:103370003E90081CE004F0125C7D80BE90081CE0CA
:10338000FF7E00C39402748094804018D214EF949E
:1033900003748094804005129D078008129C49EFB9
:1033A0006002C214201423E4FFFEFDFC125C06C37D
:1033B0001218806010900B75E004F07006900B748A
:1033C000E004F0801D125C618018900B63E004F053
:1033D0007006900B62E004F09008211218F80000CB
:1033E0000000129BAED3900B75E09F900B74E09E93
:1033F0004006129D07125C61D3900B63E0942C9001
:103400000B62E09401500302354D129D07900B9E14
:103410007401F0E4900B62F0A3F002354D90A645E4
:10342000E4740193FF123D1D02354D200403023563
:1034300017125C06C000C001900B9F125BF5E0F90B
:10344000F81218A4D001D000125C3E125B93125CFB
:1034500084900825F0A3EFF0900B9FE0FF129C6989
:10346000AD07AC06ED7802CEA2E713CE13D8F8FF75
:10347000C3ED9FFFEC9EFED3900826E09FEE648094
:10348000F8900825E06480985058E4900B12F0A35F
:10349000F0900AD0E004F09405748094804010E429
:1034A000F0C203C2049008211218F800000000E4E2
:1034B00090081BF090081BE0FFC3951040030235F5
:1034C0004D123ED020031690081BE0FF900B9FE0AA
:1034D0006F600A90081BE0125BA3125C50125C7DC7
:1034E00080D2E4900AD0F0129BAE900B12E475F0FB
:1034F000011216A6FCD3E5F09FEC9E4050129D07EA
:10350000E4900B12F0A3F0C203C204900821121839
:10351000F8000000008036785806E6D394057480E1
:1035200094804004E4F6C203E490081BF090081B6A
:10353000E0FFC395105016123ED020030B90081BDD
:10354000E0FF125BA3125C50125C7D80E0900821CA
:10355000125C32227D017F0412355E0D7F04EFF58F
:1035600082758300C3748094804024D3E5829405DF
:10357000748094805019EDF582C374809480400F5C
:10358000E5829408748094805005758201800390D0
:103590000000E582640145836003023757EF146041
:1035A0006414700302364A14700302368F147003D9
:1035B0000236D4147003023716240560030237570D
:1035C000EB14601D14602D24026003023757A80518
:1035D0007401088002C333D8FCFF429AEFF4529B77
:1035E00022A8057401088002C333D8FCFFF4529A64
:1035F000EF429B22A8057401088002C333D8FCF473
:10360000529A529B22EB14601D14602D2402600319
:10361000023757A8057401088002C333D8FCFF4263
:1036200091EFF4529222A8057401088002C333D8A6
:10363000FCFFF45291EF429222A805740108800227
:10364000C333D8FCF45291529222EB14601D1460E3
:103650002D24026003023757A8057401088002C3B5
:1036600033D8FCFF42A1EFF452A222A8057401084E
:103670008002C333D8FCFFF452A1EF42A222A80576
:103680007401088002C333D8FCF452A152A222EB89
:1036900014601D14602D24026003023757A80574BE
:1036A00001088002C333D8FCFF42B1EFF452B222CA
:1036B000A8057401088002C333D8FCFFF452B1EFAF
:1036C00042B222A8057401088002C333D8FCF45228
:1036D000B152B222EB14601A14602A24027078A846
:1036E000057401088002C333D8FCFF42C1EFF452D5
:1036F000C222A8057401088002C333D8FCFFF4522B
:10370000C1EF42C222A8057401088002C333D8FC6D
:10371000F452C152C222EB14601A14602A240270BF
:1037200036A8057401088002C333D8FCFF42D9EFE4
:10373000F452DA22A8057401088002C333D8FCFFD2
:10374000F452D9EF42DA22A8057401088002C3338B
:10375000D8FCF452D952DA2290082A12589A9008CA
:1037600029EFF090083474FEF0E4A3F0A3F0EF2406
:10377000F4601024FE70169008357412F0A37410D3
:10378000F0800A9008357420F0A37430F09008356A
:10379000E04480FD7F02129B897D807F041295CEDC
:1037A0001239497D807F0A12970CE4900838F0A303
:1037B000F090082DE0FF900838E0FCA3E0FDC39FE7
:1037C000EC9400502390082A1258918D828C831219
:1037D00015A8FD7F09129B89900839E004F070D18B
:1037E000900838E004F080C9900829E0FD7F0112BC
:1037F0009B89900829E0640C70077D807F0D1297EB
:103800000C129B52900838E4F0A37464F07F041209
:103810009A39900837EFF0900839E024FFF09008CB
:1038200038E034FFF0E07002A3E06011900837E068
:10383000FF20E009900836E0FEEF5E60D07D807FDB
:103840000D1295CE900838E07002A3E070030239A3
:10385000367F06129A39EF541B600302392E900806
:1038600034F0A3E0FF900837E05F30E006900834C2
:1038700074FFF0900829E0640C60030239397F0A74
:10388000129A39900837EFF07F0C129A39EF5407EB
:10389000FD6029900837E024FFFFE434FFFEEF7855
:1038A00003C333CE33CED8F97C002DFFEC3EF99024
:1038B0000831E0FBA3E0FAA3E0C98011900837E0EB
:1038C00075F008A4FF900831125891E5F08FF012BE
:1038D000170A900837E0700204F0900837E0D3949C
:1038E000127480948040037412F0E4900838F0A3BE
:1038F000F0900837E0FFC3900839E09F900838E067
:10390000940050357F09129A3990082E12589190E0
:103910000838E0FCA3E0F5828C83EF1215E79008ED
:1039200039E004F070CB900838E004F080C39008D0
:103930003474FEF08003129CA17D807F0C12970CE2
:10394000123949900834E0FF22E4FD7F01129B897F
:1039500022900417E060030239DC9000D2E0704549
:103960009000D5E0703F90053E7415121FD690056B
:103970003F7403121EAE90054304F090054A121DD9
:1039800021E490080CF090080C121E16500B121D2A
:103990005B90080CE004F080ED121FF67B527D4C2A
:1039A0007F66029B7C121D2290050F7409F0E49043
:1039B000080CF0900BFDE0FF90080CE0FEC39F5058
:1039C0000E74ED2E121D5E90080CE004F080E49061
:1039D00004177401121D547F5A029B44900417E08F
:1039E00064016003023AE87D107F06129AB7900BDB
:1039F000FFE06402704B9004177403F01220181259
:103A0000554B900420EFF0600FC3940374809480B2
:103A100050069004177402F0121F1D900417E06402
:103A20000370157F40129B4490041F7480F0121E97
:103A300063501FE004F0801A7D327F5A129AD880BA
:103A400011900BFFE0640370099004177404F012E6
:103A50001F1D1246959001B6E064287029C390019D
:103A6000B2E0940A9001B1E09400501A90041774E7
:103A700002121D547D327F5A129AD89001B57401FA
:103A8000F07F03023B379001B6E0FF64296022EF2C
:103A900064286003023B3A9001B2E02401FF9001E8
:103AA000B1E03400FED3EF940AEE94005003023BE1
:103AB0003A9001B7E0642B90042170057402F08005
:103AC000037401F0E49001B6F09004177403F090D1
:103AD000041F7480F07F40129B447F021276A9126B
:103AE0001E635056E004F022900417E0640270094F
:103AF000129B60E49000CBF022900417E064037006
:103B00002090041FE014F0121CFD502E121E634082
:103B100005E4A3121E59121D4B90053EF07F018053
:103B200016900417E0640470117F60129B44121D0C
:103B30004B90053EF07F011276A922900AAB12103D
:103B40008512140612892E9000FBE0F4600FA3E0AA
:103B5000F4600AA3E0F46005A3E0F47017E49000B9
:103B6000FB120F167B017A0079FB1212327FA07EC6
:103B70000312420B120FC012131D12892E9001184E
:103B8000E0F4600FA3E0F4600AA3E0F46005A3E0B2
:103B9000F47013E4900118120F1690089A120FC4D3
:103BA00012131D12420B900AAB1210AE1213251203
:103BB000892E9000FFE0F4600FA3E0F4600AA3E018
:103BC000F46005A3E0F47013E49000FF120F169068
:103BD000089A1210AF12132512420B900AAB121062
:103BE000CF12132D12892E90011CE0F4600FA3E078
:103BF000F4600AA3E0F46005A3E0F47013E490011C
:103C00001C120F1690089A1210D012132D12420B8C
:103C1000900AAB1210B87F3BFE12892E900106E08D
:103C2000F4600AA3E0F46005A3E0F47012900106CA
:103C30001213B490089A1210B97F3BFE12420B90F7
:103C40000AAB1210D91213BB12892E900123E0F493
:103C5000600AA3E0F46005A3E0F47012900123125F
:103C600013B490089A1210DA1213BB12420B900A86
:103C7000AB1210E312133512892E900109E0F460A3
:103C800005A3E0F47010E49001091214681210E426
:103C900012133512420B900AAB1210FE12133D1292
:103CA000892E900126E0F46005A3E0F47010E49002
:103CB00001261214681210FF12133D12420B900AD3
:103CC000AB12110812131612892E900103E0F46052
:103CD0000AA3E0F46005A3E0F47011E4900103F09E
:103CE00012146712110912131612420B900AAB122A
:103CF00011381213C212892E900120E0F4600AA339
:103D0000E0F46005A3E0F47011E4900120F01214D7
:103D1000671211391213C212420B02262090082793
:103D2000EFF0900C5CE0C39403748094804048E40E
:103D3000F0900B9EE07035900828F0900828E0C3C2
:103D400095105028E0FF75F002A42477F582E5F085
:103D5000340BF583E0FCA3E0FDEF25E02424F8A676
:103D60000408A605900828E004F080CF1280BDC2A8
:103D700015E4900B9EF022900C56E004F09008277A
:103D8000E0FF900C56E0B507081291A8E4900C579C
:103D9000F0900827E0FF900C56E0D39F5003023EBE
:103DA000CFE4900828F0900828E0C3951040030263
:103DB0003E7BE0FF75F002A42477F582E5F0340B3A
:103DC000F583E0FCA3E0FD75F002EFA424D1F582B9
:103DD000E5F0340AF583E0FEA3E0C39DFFEE9CAD61
:103DE00007FC900B9EE07042900B76E0FB3395E071
:103DF000FAFEEB7802C333CE33CED8F9FFD3ED9F72
:103E0000EE6480F8EC6480984060E49BFFE49AFEE6
:103E1000EF7802C333CE33CED8F9FFC3ED9FEE6403
:103E200080F8EC64809850428051900B76E0FB3330
:103E300095E0FAFEEB7803C333CE33CED8F9FFD347
:103E4000ED9FEE6480F8EC648098401EE49BFFE4F4
:103E50009AFEEF7803C333CE33CED8F9FFC3ED9F7C
:103E6000EE6480F8EC6480984011900828E0FF121E
:103E70003ED0900828E004F0023DA6900828E0B566
:103E80001006900C57E004F0900827E0FD75F0084C
:103E9000A4FF900C56E0C39FE5F06480F87480980E
:103EA000402DE4F0C214900C5CE004F0ED75F004D9
:103EB000A4FF900C57E0C39FE5F06480F8748098ED
:103EC000400DE4900C5CF01293B51280BDC2152237
:103ED000900829EFF0F9E0FF75F002A42477F5824D
:103EE000E5F0340BF583E0FCA3E0FD75F002EFA4F0
:103EF00024D1F582E5F0340AF583E0FEA3E0C39D0A
:103F0000FFEE9C90082AF0A3EFF0AF01129C69AD80
:103F100007AC0690082AE0FEA3E0FFD39DEC648086
:103F2000F8EE6480985014C3E49DFBE49CFAC3EF60
:103F30009BEA6480F8EE648098502F900829E0FF97
:103F400075F002A424D1F582E5F0340AF583E0FC93
:103F5000A3E0FD75F002EFA42477F582E5F0340BC1
:103F6000F583ECF0A3EDF0024043ECA2E713FEED85
:103F700013FF90082AE0FAA3E0FBD39FEE6480F8D9
:103F8000EA648098501CECA2E713FEED13FFC3E433
:103F90009FFFE49EFEC3EB9FEE6480F8EA64809886
:103FA000503E900829E0FD75F002A42477F582E5E3
:103FB000F0340BF583E0FAA3E0FBEAC313FEEB1346
:103FC000FFC3EB9FFBEA9EFA75F002EDA424D1F546
:103FD00082E5F0340AF583E0C313FEA3E0138047C3
:103FE000900829E0FD75F002A42477F582E5F0340D
:103FF0000BF583E0FAA3E0FBAE027803CEC313CE49
:1040000013D8F9FFC3EB9FFBEA9EFA75F002EDA40B
:1040100024D1F582E5F0340AF583E0FEA3E07803CD
:10402000CEC313CE13D8F92BFFEA3EFE900829E049
:1040300075F002A42477F582E5F0340BF583EEF0F9
:10404000A3EFF0900829E0FF75F002A42477F58231
:10405000E5F0340BF583E0FCA3E0FD75F002EFA47E
:1040600024D1F582E5F0340AF583ECF0A3EDF022DB
:104070009004F1E0FF7E00700504F0A3F022EF64ED
:10408000014E7026121CE9600302420A121D3440E0
:104090000302420AEE75F004A4242FF974A535F04A
:1040A000FA7BFF128A04121DFD229004F1E06403E2
:1040B00070087402F07F42029B449004F1E06402B5
:1040C000701F1294A1EF3395E0FEBEFF11BFFF0EEB
:1040D0009004F17404122001E49004F4F0220241EF
:1040E000629004F1E06404600302416C12849490D5
:1040F0000643E0FF7E006412704F7405121ECB90E1
:1041000000D1F0A3F0FDEDC394327480948040039D
:1041100002420AED25E025E02400F582E43400F5B2
:104120008374FFF0A3F0ED25E025E02402F582E49E
:104130003400F583E4F0ED25E025E02403F582E486
:104140003400F583E4F00D80BDEF64134E6003028C
:10415000420A9004F4121ED75008E0041220010213
:1041600095089004F17408F07D34804E9004F1E0DD
:10417000640570189004F3121CF8400302420A12FE
:1041800091DC7406121ECB9000D3F0229004F1E073
:104190006406702B9004F3121CF8506E1251FD123D
:1041A00094091293E01299E79004F17407121ECE5D
:1041B0009000D5F09000D4F07D327F42029AD890E2
:1041C00004F1E0640770139004F3121CF8503BE410
:1041D00090053EF0129508E4801E9004F1E0FF7E09
:1041E000006408701C9004F3E0FD14F0C3ED121C91
:1041F000FE5017E490053EF0900C48F0A3121D0904
:1042000022EF64094E7003129B6E22900895127281
:1042100068789C7C087D017BFF7AA279317E027FE1
:1042200000121569127284900AA2F0A3F09008950A
:10423000E0FFA3E0900AA4CFF0A3EFF0900AA2E081
:10424000FEA3E0FF90089AE0FCA3E0FDD39FEC9E64
:1042500040EA900AA4E05401FEA3E0FF900A9EEE1B
:10426000F0A3EFF0900AA3E02400FB900AA2E03450
:1042700002CBC39FFFEB9EFED3ED9FEC9E407412DA
:10428000728C4E600612722412438C127277127274
:104290008CC3E49FFF740212729F501E1272407012
:1042A00006900AA0E004F0127295900A9DE004F0D6
:1042B0007006900A9CE004F080D412435E900AAB32
:1042C000127233128DA912728CC3E49FFF74029E86
:1042D000FE900AA3E02FF0900AA2E03EF0900AA51B
:1042E000E02FF0900AA4E03EF07F057E001297A335
:1042F00002423C12728CC312722412438C127277E7
:10430000900AA2E0FEA3E0FFC390089BE09FFF900D
:10431000089AE012729F501E1272407006900AA016
:10432000E004F0127295900A9DE004F07006900A85
:104330009CE004F080CA12435E7B017A08799C906D
:104340000AAB127239128DA990089AE0FFA3E0908F
:104350000AA2CFF0A3EFF07F057E000297A3900A98
:104360009EE0FEA3E0FFC3900AA5E09FFF900AA491
:10437000E09EFE1287B3900A9EE0FEA3E0FFC3908A
:104380000AA5E09FFF900AA4E09EFE2212892E7FDC
:10439000017E001297A322F91215A8FF90080DE0E4
:1043A000FBA3E0FAA3E0F922EFFD7C00E92DF9EC94
:1043B0003AFA900811E0FCA3E029F9EA3CFA121558
:1043C0008FFEEFC313FD900810E075F008A4245E83
:1043D000F582E43405F583E58222EF75F008A42424
:1043E00064F582E43405F58374FFF0EF75F008A4FA
:1043F000245DF582E43405F58322EF75F008A424EA
:1044000064F582E43405F58322E4900BEAF0740449
:10441000900BE9F090053E227A08790E7B01900A14
:10442000ABE4F0A304F0222DF582E43583F583227A
:10443000740190054BF0A37440F022EEC3940A740B
:1044400080948022EBF0A3EAF0A3E9F0227B017ACA
:1044500005795DE4F0A322E4900BEAF07403900B7D
:10446000E9F090053E22EEC3940674809480229079
:104470000000E0FEA3E0FF02161BE0D3940074806E
:10448000948022900811E0FAA3E0FB7C007D02FFFB
:10449000AE020216707B0190089AE4F0A304F022A9
:1044A000EFC394027480948022E0FDC4540F75F031
:1044B0000AA42290080EE0FF3395E0FE2290081037
:1044C000E0FBA3E0FAA3E02290054B04F0A37440C4
:1044D000F090053EE022900BE4E0FEA3E0FF7C00BC
:1044E0007D0A22EFF07E00C394097480948022EC50
:1044F00004FF12990FEF3395E04F227B01F0A304E4
:10450000F07FFD7E0722900BE7E0FF900BE6E09F37
:10451000222FF582E5833EF583E022900824EB12FA
:10452000101912130878367C087AA179D27F4712C5
:104530001361E490087DF0A3F012125590088212E6
:104540001018900829E0FFA3E0900885CFF0A3EFB2
:10455000F090082B12125890088712101890082E0D
:10456000E0FFA3E090088A121179126145EF700212
:10457000FF2212117E12531E12117E127E2A121178
:104580007E12622C12117E125E7E12117E127A4E03
:10459000EF7002FF2212117E124AAB1212559008E0
:1045A00082121018900827E0FFA3E0900885CFF052
:1045B000A3EFF0900829E0FFA3E09008871211799B
:1045C000122B9B9008301210C5603DA31210C560DD
:1045D00037900848E0FF900830120EECE48FF0129C
:1045E000170A900848E0B4071390084DE0F9A3E0DB
:1045F000FF9008331213E7C98FF080099008331237
:104600000EECE4F5F012170A900848E0B406199091
:104610000846E07004A3E06401707312117E121367
:10462000517D0612308F8066900848E06407705E06
:10463000900846E07004A3E06401700B12117E1232
:1046400013517D0712308F900827E0FEA3E0FF1280
:104650007D3990087DEEF0A3EFF0C390084EE09F07
:1046600090084DE09E502790087EE094E790087DEA
:10467000E094034012E4F0A3F0900827E0FCA3E0EC
:10468000FDE4FFFE12659CE4900846F0A3F090085C
:1046900046A3E0FF229001B6E0FF7E007004741E86
:1046A000F022EF641E4E700B741F12676D1298C7D4
:1046B0000247AD9001B6E0641F7031126766701951
:1046C0009005D1E070099001B67420F002950812AF
:1046D00067EA70028011E4800E9001B31267329491
:1046E00000400302480EE49001B6F0229001B6E0CB
:1046F0006426700B74271267701296ED0247AD9016
:1047000001B6E06427704912676670319005D1E008
:1047100070257B017A0579BB12889AEF3395E04FBB
:104720009001B670097420F09001B30247E074293B
:10473000F0A3742B0248041267850248049001B369
:104740001267329400400302480E12678502480443
:104750009001B6E06420700C74211267707F011222
:104760008AD880499001B6E0FF7E0064217029124A
:10477000676670159005D1E09001B670047424F05E
:10478000227429F0A37406807B9001B31267CA9447
:1047900000507B126785806CEF64244E7016742580
:1047A00012676D7B32FAFDFC7F011281249001B308
:1047B0001267DC229001B6E06425705212676670C1
:1047C000369005D1E0FF7E00701A9001B67428F093
:1047D0009005ADE0FDA3E09001B1CDF0A3EDF0A315
:1047E00012677D22EF64174E9001B67002F02274BA
:1047F00029F0A37408800D9001B312673294005021
:104800000D126785F09001B3E4F0A374C0F022129A
:104810001F52700A9000CFF09007FE04F022EF6460
:10482000014E701312825112902CE49007FFF09009
:1048300007FE74020248DD9007FE121EB8700F12C8
:104840001D9040030249609007FE7403F022EF645C
:10485000034E70641277349000CFE06402703E9093
:1048600005CFF07F01128A92E490080CF090080CBA
:10487000E0C394197480948050177F0A7E00129DC3
:104880000D129D16121F93600890080CE004F08032
:10489000DCE4900800F09007FE740480409000CFA4
:1048A000E06403600302496090080074FFF0740440
:1048B000121E477F0702495D121F526404700F12D7
:1048C0001D9040030249609007FE7405F022EF64DA
:1048D000054E7010900801F09007FE7406121E4AF3
:1048E0007F028079121F526406700C121D90507066
:1048F0009007FE7407F022EF64074E700D900802D7
:10490000F07408121E477F028053121F5264087011
:104910000E121D90504A9007FE7409121E4A22EF93
:1049200064094E703B90080374FFF5F01216A6124E
:104930001DD69400502A9000DBE0600464017018DA
:104940007F74129B449000DA74FFF09000DC748056
:10495000F090053E7422F022121D057F061292A3EC
:1049600022900BD4E004F0D3943F74809480404FA5
:10497000900BE3E06401F0E4900BD4F020C22990A6
:10498000053EE070239001AD121DF6BEFF12BFFF81
:104990000FE4F07F011292A39001AD74FFF0800547
:1049A0007F011292A31295089001B5E0121DB2404A
:1049B0000EE004F0E064047006F07F011276A99026
:1049C0000BD4E0541F7007900BECE06401F09005ED
:1049D000DFE0121DB24003E014F090072BE0121D3F
:1049E000B24003E014F030C14112204890080AE0C0
:1049F000C394647480948050187F027E001297BF25
:104A000030C10690080BE004F090080AE004F08042
:104A1000DB90080BE0D3945A748094804042900459
:104A200039121CEC703AA3F0803612204890080A24
:104A3000E0121EA550187F017E001297BF20C1060C
:104A400090080BE004F090080AE004F080DF900882
:104A50000BE0D39408748094804005E4900439F00E
:104A600090043A121CEC703D90053EE0FF642C600F
:104A700034EF6421602FEF641C602AEF641A602514
:104A8000900621121CEC701D90053E742CF09004D1
:104A90003B14F0A374F2121D097F147E00129D0DC9
:104AA0007F041276A912010002631390087FEB12B3
:104AB0001019E4A3F0A3F0FFFE12130FA3EFF07F91
:104AC000007E0012130F7E037FE812107CA3EFF02C
:104AD0007C037DE87F007E0012161B7F6412107A33
:104AE000A3EFF07C007D647F007E00121075A3EFC1
:104AF000F07F007E001213EFAC05E4A3F0FF9008F6
:104B00007F1210C570012290087F120EEC12130262
:104B100025E0FFE5F033FE740A2FF58274A13EF51F
:104B200083E493FF740193900882CFF0A3EFF07FAA
:104B300001EFD39406748094805022900884E06F33
:104B40006018A3E06F6013A3E06F600EA3E06F60D6
:104B500009EF6C6005A3EFF080030F80D490087F0D
:104B6000120EEC9000011215A89008841211BB12CD
:104B70000EEC1213889008851211BB120EEC121263
:104B80003BFF9008861211BC120EEC12136A9008BB
:104B9000871211BC120EEC900004EF1215E71212EE
:104BA000DCFFAD041211BE120EEC121223FF9008AE
:104BB000881211BC120EEC900006EF1215E71212CB
:104BC000BEFFAE04AD061213AD120EEC900007EF5F
:104BD0001215E71212D59008871213AA120EEC12C2
:104BE00012489008861213AA120EEC9000091214B3
:104BF0008122900817EEF0A3EFF0E4FFEFC3940DCD
:104C0000748094804003024D35E4FEEF25E02401DA
:104C1000F582E4340CF583E0FCA3E0FD900817E096
:104C20005CFCA3E05DD39400EC940040010EEFB473
:104C30000D004003024D31904C3EF8282873024C81
:104C400065024C76024C87024C98024CA9024CB883
:104C5000024CC7024CD6024CE5024CF4024D030252
:104C60004D12024D21EE6008E4900C36F0024D31F9
:104C7000900C36024D2EEE6008E4900C37F0024D99
:104C800031900C37024D2EEE6008E4900C38F002A3
:104C90004D31900C38024D2EEE6008E4900C39F046
:104CA000024D31900C39024D2EEE6007E4900C3A23
:104CB000F0807E900C3A8076EE6007E4900C3BF03A
:104CC000806F900C3B8067EE6007E4900C3CF080B6
:104CD00060900C3C8058EE6007E4900C3DF08051F1
:104CE000900C3D8049EE6007E4900C3EF0804290CD
:104CF0000C3E803AEE6007E4900C3FF08033900C5D
:104D00003F802BEE6007E4900C41F08024900C4132
:104D1000801CEE6007E4900C40F08015900C408001
:104D20000DEE6007E4900C46F08006900C4674FF90
:104D3000F00F024BFC22127A4664017026D39004D5
:104D4000F9E094009004F8E09400400AA3E024FF06
:104D5000F09004F88069127A0F402A9005027403DB
:104D6000F08069EF64034E701E127A0F400AA3E0D0
:104D700024FFF09004FC8047127A1D400890050241
:104D80007402F080478040127A466402701E127AE4
:104D90001D400AA3E024FFF09004FA8022127A2B2F
:104DA00040089005027404F08022801BEF64044EDA
:104DB0007015127A2B400EA3E024FFF09004FEE061
:104DC00034FFF080078000E4900502F0900502E0D7
:104DD00064027035C2D9900501127A0670289008D5
:104DE0000AF0A3F01279F75014D2D8129BCFC2D890
:104DF000124E5F70EF90080AE004F080E790050122
:104E000074FFF0D2D822D2D822900502E06401705B
:104E100035C2D8900500127A06702890080AF0A3CF
:104E2000F01279F75014D2D9129BCFC2D9124E5F2B
:104E300070EF90080AE004F080E790050074FFF03E
:104E4000D2D922D2D922127A46640370028006EFA8
:104E500064044E7005D2D9D2D822C2D9C2D82290C9
:104E6000080AE0FEA3E0FFC374C89FFFE49EFE12A1
:104E70009BCF90080BE004F02243CF10129C7012DD
:104E80009C02129C93129C14129A8243CF10E490BD
:104E90000C72F0A3F0A3F0A3F0E49005CFF012960B
:104EA000CE12953D43CF107F147E00129D0D129DB2
:104EB000169005CFE06401702B9005D1E0700520BD
:104EC000C302804A900C75E004F07006900C74E008
:104ED00004F0D3900C75E0945E900C74E094014063
:104EE00050E4802AD390080BE09417129545402493
:104EF000900C73E004F07006900C72E004F0D39014
:104F00000C73E09402900C72E094004007E490056A
:104F100003F0801D90080BE004F0700690080AE092
:104F200004F0C390080BE094191295455003024E0B
:104F3000A443CF10900503E06003024E99129BEF4B
:104F4000C2C07F037E00129D0DE4900C65F09005B9
:104F50000CE06401702712953E43CF107F017E0064
:104F6000129D0D90080BE004F0700690080AE00412
:104F7000F0C390080BE0940A12954540DC12947D32
:104F8000129A11129CBD12913E12953D90080AE0B2
:104F90007004A3E064016014129CFE400A90080AA9
:104FA000E4F0A304F080E5128FBC80E02243CF1030
:104FB0007F017E00129D0D128F49E4FBFD7F0212DE
:104FC000355ED2A0129CE81299A8129D0A129C8507
:104FD000D2A1D2A2D2A3129A25D2C0900503740105
:104FE000F07F057E00129D0D129CDC7F057E001275
:104FF0009D0D129D011299D21291089001AFE0FF10
:10500000129C9A7F017E00129D0DE490080AF09098
:10501000080AE0FFC3946474809480501AEF75F01E
:105020000A84E5F0700343CF10129CE212746D9075
:10503000080AE004F080D89000DBE0FF6401600320
:10504000EF70137F74129B449000DC7480F0900525
:105050003E7422F0803AE490053EF090050F74070C
:10506000F0E49001B6F09005D57407F012974AEF7E
:105070003395E04F70077F3E129B44801390050DDF
:10508000E0FF64026005EF640170057F061292A3E1
:10509000E490050CF090080AF090080AE0C3941917
:1050A00074809480503143CF10E49005CFF0900885
:1050B0001374FFF07B017D017F011281897F147ED3
:1050C00000129D0D129D169005CFE06401600890BE
:1050D000080AE004F080C22290016FE0703890006E
:1050E000D2E070129000D5E0700C1269587407126B
:1050F00068C67F3E801D9000D3E01268F690016F75
:10510000500C7401F0E4900BE8F07F6480051268A5
:10511000C17F58129B4490016FE06401701D12988A
:105120007D900173EFF090016F7407F0900171743E
:1051300001F0A37440F07F70029B4490016FE06423
:105140000770307B017A017974127DB2EF3395E0FC
:10515000FEBEFF09BFFF0690016F7403F01268CF17
:1051600040030251FC12695874011268C67D347FF5
:1051700044805D90016FE0640370587B017A01798F
:10518000741281EDEF703F900173E0FD1288E5EF3E
:105190003395E0FEBEFF1DBFFF1A90016F7404F04F
:1051A0009001711268C87D327F44129AD89000D362
:1051B000E004F02290016F1268C17F58129B447F77
:1051C000647E00029D0D1269581268C67D547F5698
:1051D000029AD890016FE0640470071268CF501CE7
:1051E000801790016FE06405701290017174FFF5F3
:1051F000F01216BC1268D95003129CB622E4FFEFDD
:10520000C3940474809480503474FB2FF582E4348A
:1052100000F58374FFF074182FF582E43401F583F0
:1052200074FFF074FF2FF582E43400F58374FFF00F
:10523000741C2FF582E4340112148880C290089AFD
:1052400012108512140612420B90089A120FC31204
:10525000131D12420B90089A1210AE12132512421F
:105260000B90089A1210CF12132D12420BE4FFEF8D
:10527000C3940374809480503474062FF582E43410
:1052800001F58374FFF074232FF582E43401F58374
:1052900074FFF074032FF582E43401F58374FFF09A
:1052A00074202FF582E4340112148880C290089A89
:1052B0001210B87F3BFE12420B90089A1210D912BE
:1052C00013BB12420B90089A1211081213161242C5
:1052D0000B90089A1211381213C212420BE4FFEF1E
:1052E000C3940274809480501A74092FF582E434B8
:1052F00001F58374FFF074262FF582E43401121453
:105300008880DC90089A1210E312133512420B9039
:10531000089A1210FE12133D12420B0273499008B4
:105320007FEB121019E4120F1190087F1210C57054
:1053300002FF22E4900882F0A3F090087F120EECA6
:105340001211E524FFFFE5F034FFFE9008821212EF
:10535000839E50201212AC900887E02FF0900886B0
:10536000E03400F0900883E004F070CE900882E012
:1053700004F080C690087F120EEC1211E512145151
:105380001215A8FFC0079008861211AA7D0A1216EE
:1053900070D007129B3590087F120EEC1211E512A7
:1053A0001451EF1215E7E4900882F0A3F090087F03
:1053B000120EEC1211E5FFC3900883E09F90088263
:1053C000E095F0506EE4900884F0A3F090087F120E
:1053D0000EEC1211E590088412128295F050439061
:1053E0000882E0FEA3E0FF6D7002EE6C60248F8205
:1053F0008E831215A8FF900884A3E0F5828C831297
:1054000015A8FD129C1D90087F120EEC90088412C6
:10541000126C900885E004F070B2900884E004F00B
:1054200080AA900883E004F07006900882E004F0FF
:105430000253AD7F012290050FE0FF7E00640770EC
:105440000302554AEF640870047409F022EF6409FE
:105450004E600302554A900BFFE064026003025560
:105460003512974AEF3395E04F706A900BEDE06488
:10547000017039A3E064017033A3E06401702DA3CF
:10548000E064017027A3E064017021A3E06401706F
:105490001BA3E064017015900BF5E06401700DA38F
:1054A000E06401700790050F740CF022900BEDE0A2
:1054B00064017048A3E064037042A3E06405706E69
:1054C000A3E064077068900BFEE0640470609005D0
:1054D0000F740DF0227B017A0B79ED12554B90057C
:1054E0001DEFF0600C90050F740AF0E49000F0F0EE
:1054F00022900BFEE0FF7E00640A70028030EF64B1
:105500000C4E6006EF640D4E70247B017A0B79ED32
:10551000900BFEE0FD7C0012598D90051DEFF09080
:10552000050F600D740AF09000F07401F0229005F0
:105530000F740BF022900BFFE06403700D90050FC9
:105540007407F0E4900541F0A3F02290080D124496
:1055500044E4A3F0900810E0FF12443C40030256DC
:105560005D1243FAE064AA6003025654900813F0F7
:10557000900811F0A3740BF0900811E0FEA3E0FF77
:10558000C3EE6480948040467C007D02121670ED6C
:1055900064014C70111244831243C6124511540F1A
:1055A000640F601A80101244831243C6124511C45E
:1055B000540F640F6008EB04900813F080109008FB
:1055C00012E024FFF0900811E034FFF080AAE4908C
:1055D0000811F0A3F0900813E0FFC374119FFFE4DB
:1055E0009400FEC3900812E09FEE6480F8900811CA
:1055F000E0648098505EE4FF900813E0FEEFC39EE5
:105600005031EF54016401701490080D12439F1241
:1056100043A8124427E0540F6E6015801690080DC1
:1056200012439F1243A8124427E0C4540FB5060347
:105630000F80C5900813E0B5070A900810E01243E8
:10564000ECE0FF22900812E004F07006900811E0F0
:1056500004F08081900810E004F00255547F00228D
:10566000D39005E4E094009005E3E09400400CA39F
:10567000E024FFF09005E3E034FFF09005E3E070F4
:1056800002A3E060030257709005E1E014603C144F
:10569000605D147003025735147003025767800071
:1056A000D2DC30DB22C390061BE094DC90061AE0CB
:1056B0009405500DA3E004F0700690061AE004F083
:1056C00022E490061CF0221271A622C2DC9005E3AF
:1056D000E4F0A3741BF09005E17402F0900618E06A
:1056E00024E6F582E43405F583E09005E5F0222018
:1056F000DC12D2DC12721A6005E4F0A38033E4F00D
:10570000A304F022C2DC12721A6007E4F0A304F0D2
:105710008006E4F0A37403F09005E5E0C313F09075
:1057200005E2E004F0C39408748094804042900540
:10573000E17403F022D2DC900618E004F0A3E0FF4D
:10574000900618E0C39F50109005E17404F0900596
:10575000E3E4F0A3740AF022E49005E1F09005E39D
:1057600004F0A3744DF0229005E17401F0E4A3F07D
:105770002290080D124444A312439F12158F124326
:105780009B12158F6F600302587D1244BD9000017B
:105790001243979000011215A86F600302587D1202
:1057A00044BD9000021243979000021215A86F604A
:1057B0000302587D90081012439F900003124398F3
:1057C0009000031215A86F600302587D9008101214
:1057D000439F9000041243989000041215A86F6034
:1057E0000302587D90081012439F900005124398C1
:1057F0009000051215A86F600302587D90081012E2
:10580000439F9000061243989000061215A86F70EF
:105810006C90081012439F90000712439890000765
:105820001215A86F705790081012439F900008122D
:1058300043989000081215A86F7042900810124308
:105840009F9000091243989000091215A86F702DBF
:1058500090081012439F90000A12439890000A1279
:1058600015A8B5071890081012439F90000B12431B
:105870009890000B1215A8B507037F00227FFF2226
:10588000740490082DF0A37401F0A322E0900000AE
:10589000FEE0FBA3E0FAA3E0F922EBF0A3EAF0A319
:1058A000E9F022EFFD3395E04D22F0EFA3F09008F0
:1058B0002B7401F0A3227400F07400A3F07B017A32
:1058C000007900227400F07400A3F07B017A007963
:1058D0000022EFF0FD9000007401F0A3740BF0A320
:1058E00074CEF07B017A0B79A17F60228E82758362
:1058F000000215A824A7F582E4340BF583EFF0909D
:105900000000E004F0227400F07400A3F07B017A40
:10591000007900227450F0E4A3F07B0190082B047E
:10592000F0A322900000E0FFC3940A7480948022C8
:1059300074172FF582E43408F583E022EEC3941047
:105940007480948022EFC3940474809480227B013D
:105950007A0B79CE22EFFD3395E0FCED64FE4C220C
:1059600035F0FA7B01E025E025E02274A72FF582CF
:10597000E4340BF583228F82758300EE0215E77401
:1059800000F0A37400227400F0A374002290080DAC
:10599000124444A3ECF0A3EDF0E4900820F0A3F04F
:1059A000A3F0A3F0129AE8E4900812F0900812E035
:1059B0001244A14003025A93E4A3F0FFEF1244679C
:1059C000503C900812E0FE1243CA2F124428E0C453
:1059D000540FFDEF25E02414F582E43408F583ED3F
:1059E000F0EE1243CA2F124428E0540FFEEF25E0D8
:1059F0002415F582E43408F583EEF00F80BEE4FF51
:105A0000EFFDD3900811E09D900810E0940040193C
:105A100074142FF582E43408F583E012443C5009F5
:105A2000900813E004F00F80D7900812E0FD7C008E
:105A3000A3E0FF900829E4F0A3EFF090080DE0F94F
:105A4000A3E0FAA3E090082BC9124445900810E0A7
:105A5000FFA3E090082ECFF0A3EFF0A37401F0A312
:105A60007408F0A37420F0A37401F0A37408F0A3E9
:105A70007422F07B017A08791412451BD3EF12448B
:105A80007C4007900812E004FF22900812E004F026
:105A90000259AC7F0022900643E06411700874083C
:105AA000121EBF028A04900643E0FF6408700302DE
:105AB0005B92EF640970187D28FC7F0AFE128661F4
:105AC000900643740AF090064574801220112290CB
:105AD0000643E0640A6003025B5D121F93706490EA
:105AE00005D1E070579006437412121D44F07D32C8
:105AF0007F48129AD8E49000D1F07D0AFCAE04ED04
:105B00007802C333CE33CED8F9FF2400F582740077
:105B10003EF58374FFF0A3F074022FF58274003E0B
:105B2000F583E4F074032FF58274003EF583E4F00E
:105B30000DBD00010CED64324C70C222900643741E
:105B4000138010121F34121CFD504790064374132B
:105B5000121FAAF0900645121F04029AD89006431D
:105B6000E06412700D900645E014F0121CFD502206
:105B7000801D900643E06413700D900645E014F01C
:105B8000121CFD500D8008900643E064147003124F
:105B90009CA822900B9FE0FF25E02424F8E6FC0857
