:030000000284E88F
:03000B0002A51A31
:0300130002AB1825
:03001B00029CE460
:0300330002B94BC4
:03004B0002A619F1
:03005B0002A78376
:03006B0002A99156
:03007B00029FE6FB
:03008300029F4891
:03008B0002B0754B
:1001000090053CE060030207A3122752901139EFDB
:10011000F0F4600312AF9B900578E0121FDD0176CA
:1001200000025B0102B102030B05033F0604420A11
:10013000037B0B04560C04640D046F0E04990F042A
:10014000A71004B11204CB1304D814050215052519
:100150001605381705621A058E1B06D81C05B51D35
:1001600005ED1F079027060028073C2C06612D0788
:10017000262E000007A3901139E0FF640D6011EFF7
:10018000641B700C900578741AF090052A7403F0C3
:10019000900549E0FF640760030202321221E0503B
:1001A00033EF640760030207A390115604F0741044
:1001B00012206F122344122317500E74452E122062
:1001C000A4900C44E004F080ED9005497408F07FA1
:1001D0000102AD4812210B70217F0112AD48900140
:1001E0009D12212ABEFF06BFFF03E4F022E4900522
:1001F00041F0A3F090054604F022901139E0640B21
:1002000060030207A390019D12203270127F011239
:10021000AD48900578741FF09004551223502212B7
:10022000B0DA90053FE4F0A37496F090057874205E
:10023000F022901139E0FFF470030207A3EF640C81
:1002400070030207A3122352900549E0640960037A
:100250000207A37F0112AD480205F812218970033D
:100260000204931221AA700302055C1223A97003F1
:100270000204FC901139E0640470030205E7901158
:1002800039E0640570111207A4900578740AF0E44F
:10029000900497F002A95712210B60030207A312E2
:1002A000086F1220917F6012B7C2120867E402073C
:1002B00037901139E0FF6401600AEF64026005EFD6
:1002C00064037004E412086F122189700E1207A4EF
:1002D000E4900576F090057802036C1221AA700E66
:1002E0001207B1E4900576F09005780204EF12232E
:1002F000A9700D1207B1122375900578740EF022C3
:1003000012210B60030207A302043D122189700F22
:100310001207BE9005787412F0E490016FF022127B
:1003200021AA70101207BE9005787414F090052E63
:10033000740AF02212210B60030207A302043D128B
:10034000218970091207CB1222BF04F0221221AAC0
:1003500070091207CB1222BF0207221223A97010C4
:100360001207D89005787417F090067E740FF0226B
:1003700012210B60030207A302043DE4900C45F038
:1003800004F012218970101207D8900578741BF0C0
:10039000E41223597403F0900C45E02401122170FB
:1003A000B5070EECB5060A1207E5900578741D80B6
:1003B00018900C45E02402122170B50710ECB50628
:1003C0000C1207E5900578742DF0E4803E900C4502
:1003D000E02403122170B50714ECB506101207F2E1
:1003E0009005787428F0E490060AF0801E900C4581
:1003F000E02404122170B50718ECB506141207F2B8
:10040000900578741CF0E4900658F0122359020508
:1004100080900C45E02405122170B50718ECB50654
:10042000141207FF900578741AF0E490052AF01270
:10043000235902072212210B60030207A31207FFB0
:10044000801112210B60030207A312080C9004977D
:100450007405F002B7DE900576E0640160030207E0
:10046000A30205301222EB60030207A302053090BD
:10047000067BE0640860030207A31222AC700B90B5
:10048000067CF090067B7409F022EF640A4E60034C
:100490000207A312080C02B936900576E0640160E9
:1004A000030207A30205301222EB60030207A380B8
:1004B0007F90016FE064017008901139E0FF1294A1
:1004C0006B12210B60030207A380319001E1E0640D
:1004D0000160030207A3805890052EE0640B6003BF
:1004E0000207A31222AC700B90052FF090052E741A
:1004F0000CF022EF640A4E60030207A312081902EF
:10050000B944900579E0640170028024900579E097
:10051000640370030205F8900579E0640460030247
:1005200007A30205F8900590E0640160030207A3A9
:10053000901139E0FF02946B90067EE06410600336
:100540000207A31222AC700B90067FF090067E7417
:1005500011F022EF640A4E60030207A31208190289
:10056000B93D90052AE0640160030207A3901139A8
:10057000E0640B700F120826E490052BF090052A1A
:100580007403F02212210B60030207A38059122189
:10059000897009120826E4900476803C1221AA7022
:1005A0000A1208339004767401802D12210B600327
:1005B0000207A38032122189700D7AC279DF1208F6
:1005C00040E49001EB80111221AA70137AC279E203
:1005D0001208409001EB74FFF012A70C0206D5122E
:1005E000210B60030207A31208330206D5900455BD
:1005F000E0640160030207A3901139E0FF02078D58
:1006000090060AE0640160030207A31221897013B7
:100610009000F8F090060A7402F07BFF7AC3790923
:100620000206F21221AA70289000F804F090060A3F
:1006300004F012A3D1EF3395E04F70087F7A12B720
:10064000C202079C7BFF7AC3790C12A1E902079CC6
:1006500012210B60030207A312084D90060A02073D
:1006600022122189701A9000F912212ABEFF08BFB8
:10067000FF05E4F012B2DA7AC279F712085A80550F
:100680001221AA70459000F9122032703474FFF0E4
:10069000E4900532F0A3F0900536F0A3F012ADD54A
:1006A000EF2412FEE433900534F0A3CEF090053829
:1006B000E4F0A37408F090053C7402F0E490053B6C
:1006C000F07AC279FA12085A800B12210B600302E9
:1006D00007A312084D02B7EC900658E064016003CE
:1006E0000207A312218970109006591223B07AC311
:1006F000791E12A1E902079C1221AA7012900659D4
:1007000074FF1223B07AC3792112A1E902079C1267
:10071000210B60030207A37F0112AD481208679006
:1007200006587402F022901139E0FF640B6005EF67
:10073000640A706F122091900578F022900549E0CC
:10074000FF640770381221E0502FEF640770549057
:10075000115604F090115574101220721223441295
:100760002317500E74452E1220A4900C44E004F080
:1007700080ED9005497408F02212210B2290113966
:10078000E0FFF4601E900549E064097016028B5585
:10079000901139E0F4600C7F3012B7C27F647E00A4
:1007A00012B9A4227F0112AD487F647E0012B9A461
:1007B000227F0112AD487F647E0012B9A4227F011E
:1007C00012AD487F647E0012B9A4227F0112AD48A9
:1007D0007F647E0012B9A4227F0112AD487F647E3F
:1007E0000012B9A4227F0112AD487F647E0012B9C5
:1007F000A4227F0112AD487F647E0012B9A4227F3B
:100800000112AD487F647E0012B9A4227F0112ADAF
:10081000487F647E0012B9A4227F0112AD487F6434
:100820007E0012B9A4227F0112AD487F647E0012BF
:10083000B9A4227F0112AD487F647E0012B9A422C0
:100840007BFF12A1E97F647E0012B9A4227F01120E
:10085000AD487F647E0012B9A4227BFF12A1E97F1C
:10086000647E0012B9A4227F647E0012B9A4229093
:1008700001F3F07F01128E9422900C60EFF0E4906F
:100880000C68F0900C60E0FF25E02424F8E6FC08FA
:10089000E6FD75F002EFA42438F582E5F03410F59A
:1008A00083E0FEA3E0C39DFFEE9C900C61F0A3EFFC
:1008B000F0E47F01FEFDFC900C60E0F9F8121F4CA3
:1008C0008F0F8E0E8D0D8C0CAF0112B8F0900C6650
:1008D000EEF0A3EFF0C3900C62E09FEE6480F8901E
:1008E0000C61E06480984008900C637401F080050E
:1008F000E4900C63F0900C63E064016003020AF57D
:10090000900C60E0FF2450F582E43410F583E0C3DE
:1009100094FA74809480500D74502FF582E4341052
:10092000F583E004F0E50B550FFFE50A550EFEE5F3
:1009300009550DFDE508550CFCE4FBFAF9F8C31266
:100940001F286003020ABB90101CE0900C65F01297
:10095000B992EF6047E4900C63F0A3F0900C64E070
:10096000FFC39510502274502FF582E43410F583A4
:10097000E0C39401748094804006900C63E004F01E
:10098000900C64E004F080D4900C63E0C394037492
:100990008094804007900C65E0240FF0900C60E09C
:1009A0002450F582E43410F583E0FF900C65E0FEFE
:1009B000EFC39E5003020ABBE4900C63F012B8C868
:1009C000EF6003020A48900C64F0900C64E0FFC3EF
:1009D0009510502C900C60E06F601D12B864900C64
:1009E00064E02450F582E43410F583E0C39F4008AE
:1009F000900C637401F08008900C64E004F080CAED
:100A000012B992EF3395E04F6003020A99900C639C
:100A1000E06003020A99A3F0900C64E0FFC3951014
:100A20005077900C60E06F601712B864900C64E02F
:100A3000245CF582E43410F583E0C39F40028053C8
:100A4000900C64E004F080D012B992EF3395E04F3F
:100A50007047900C65F0900C64F0900C64E0FFC35C
:100A60009510502274502FF582E43410F583E0C3C2
:100A70009402748094804006900C65E004F0900C21
:100A800064E004F080D4900C65E0C3940374809417
:100A9000804006900C637401F0900C63E064017078
:100AA00002D214E50B450FF50BE50A450EF50AE5F4
:100AB00009450DF509E508450CF508900C60E0FFC7
:100AC000248EF582E43410F583E4F074EA2FF58285
:100AD000E43410F583E4F075F002EFA42476F58297
:100AE000E5F03410F583E4F0A3F0741F2FF582E4F1
:100AF0003410020E84900C60E0FF12B56E900C6111
:100B0000E0FCA3E0FDD39FEE6480F8EC64809840A5
:100B100012900C60E0245CF582E43410F583E0046C
:100B2000F080159011E1E004F0900C60E0245CF599
:100B300082E43410F583E4F09010D1E0FF3395E0C7
:100B4000FEC3E49FFBE49EFAC3ED9BEA6480F8ECED
:100B50006480985003020C4DD3900C62E09FEE64C9
:100B600080F8900C61E06480984003020C4D900C7A
:100B700060E0FF248EF582E43410F583E4F0741F06
:100B80002FF582E43410F583E4F0FFFEFDFCAB0B9F
:100B9000AA0AA909A808C3121F286003020D899098
:100BA0000C61E0FEA3E0FF900C60E075F002A4246D
:100BB00076F582E5F03410F583EE8FF0121D2312E6
:100BC000B838900C60E075F002A42476F582E5F068
:100BD0003410F583E0FCA3E0C39FEE6480F8EC647E
:100BE00080984013900C60E0FF25E02424F808066C
:100BF000E618704306804012B838C3E49FFFE49EB5
:100C0000FE900C60E075F002A42476F582E5F034E5
:100C100010F583E0FCA3E0C39FEE6480F8EC6480F1
:100C2000984003020D89900C60E0FF25E02424F831
:100C300008E6161870011675F002EFA42476F58206
:100C4000E5F03410F583E4F0A3F0020D899010D1A3
:100C5000E0FF3395E0FEC3E49FFFE49EFEC3900CEB
:100C600062E09FEE6480F8900C61E064809840033D
:100C7000020CFF900C60E0FF248EF582E43410F546
:100C800083E004F0741F2FF582E43410F583E4F060
:100C9000748E2FF582E43410F583E0FF75F00A843A
:100CA000E5F07046C3EF946474809480900C60E02B
:100CB0004014248EF582E43410F583E4F0D21590CC
:100CC00010F604F0802425E02424F8C000E6FE0895
:100CD000E6FF9010D1E0A2E713FD3395E0FCC3EFEF
:100CE0009DFFEE9CD000F608A607900C60E0FF90F8
:100CF00011DAE06F6003020D8974FFF0020D899034
:100D000010D1E0FF3395E0FED3900C62E09FEE64DB
:100D100080F8900C61E0648098406E900C60E02454
:100D20008EF582E43410F583E4F0FFFEFDFCAB0B9E
:100D3000AA0AA909A808C3121F28704D900C60E0E8
:100D4000FF241FF582E43410F583E004F0741F2FB4
:100D5000F582E43410F583E06420702D900C60E09F
:100D6000FF241FF582E43410F583E4F09010D1E005
:100D7000A2E713A2E713FD3395E0FCEF25E024245E
:100D8000F808ED26F618EC36F6E50B550FFFE50AE8
:100D9000550EFEE509550DFDE508550C4D4E4F70FD
:100DA00003020E9A900C66E0FCA3E0FDAE0478020C
:100DB000CEA2E713CE13D8F8FFC3ED9FFFEC9EFE43
:100DC000C3900C62E09FEE6480F8900C61E0648058
:100DD000984003020E89900C60E024EAF582E43426
:100DE00010F583E004F012B8D0900C65EFF0E490B9
:100DF0000C64F0900C64E0FFC39510502274502FE7
:100E0000F582E43410F583E0C3940174809480404B
:100E100006900C63E004F0900C64E004F080D49041
:100E20000C63E0C3940374809480400890101CE02D
:100E3000900C65F0900C60E0FB24EAF582E434103D
:100E4000F583E0FF900C65E0FEEFC39E5003020FB8
:100E50000974EA2BF582E43410F583E4F0AF0FAEA9
:100E60000EAD0DAC0C121F1BE50B5FF50BE50A5E1A
:100E7000F50AE5095DF509E5085CF50874502BF500
:100E800082E43410F583E4F022900C60E024EAF56B
:100E900082E43410F583E014F022900C60E02450DA
:100EA000F582E43410F583E4F0FFFEFDFCAB0BAA01
:100EB0000AA909A808C3121F287008900C60E0FF57
:100EC0001283AAE51014FF900C60E06F703B901144
:100ED000E1E0C395104032E4900C64F0900C64E0C3
:100EE000FFC39510501B74502FF582E43410F58326
:100EF000E06006900C637401F0900C64E004F080F4
:100F0000DB900C63E07002C214224411F100000077
:100F1000004211F50000C10FC10CC10DC10EC1107E
:100F2000C111C112C11341120A0241120B0041103A
:100F3000F600C103C102C100C101C1040154004156
:100F400010370042107400004111DF00C116411239
:100F50000E00C117C118C109C106C10AC107C10BE2
:100F6000C1084111F00044119E0000000058118694
:100F70000080002004001000001001002000000884
:100F800000404000000480004610F9FFFFFFFFFF13
:100F9000FF6400083D0000000000000000000000A9
:100FA0000000000000000000000000000000000041
:100FB0000000000000000000000000000000000031
:100FC0000000000000000000000000000000000021
:100FD0000000000000000000000000000000000011
:1013900000000000005611A2736C5F67656E6572F5
:1013A00069635F76312E302E302E30303700421197
:1013B000CB00004111B8004212010000411139FF79
:1013C000C1194111D8004A11CE112233000000008A
:1013D00000000061310EEB00000000808080000002
:1013E00000000000000000000000000080C0E0F0ED
:1013F000F8F8F8FCFCFCFCFCF8F8F8F0E0C0800021
:10140000000000000000000000000000008080805C
:101410000000000080F07C0F03C1F03C0E82E078F9
:101420001800000000C0F0FCFFFFFFFFFFFFFFFF00
:10143000FFFFFFFFFFFFFFFFFFFFFFFFFFFCF8C005
:10144000000000001878E0820E3CF0C1010F7EF031
:1014500080031FFCE000071F78E0830F3C30000092
:10146000C0FCFFFFFFFFFFFFFFFFFFFFFFFFFFFFCE
:10147000FFFFFFFFFFFFFFFFFFFFFFFFFFFCE0009D
:1014800000303C0F83E0781F0780E07C1F030000E2
:1014900000010303020000000000F0FCFF9F0F07A3
:1014A000030303010101013078FCFCFCFCFCFCFCA3
:1014B000783001010101030303070F9FFFFCF000D7
:1014C0000000000002030301000000000000000013
:1014D00000000000000000000307070F0E1C1C3C6A
:1014E00038383870707070707070707070707070A4
:1014F000383838381C1C1E0F070703000000000096
:101500000000000000000000602D11597B227022B5
:101510003A227368307870636970796D35796979CA
:10152000636B222C2276223A22312E302E30222C4E
:1015300022636170223A307D00004811E200000011
:101540000000000000900042E4121DD1900CCEE09B
:10155000FBA3E0FAA3E0900CD9F9E0FEA3E0F5824A
:101560008E83121C25FF900CCBE0FBA3E0FAA3E0D6
:10157000F9229000FC75F01DED121FD1EC75F01DE5
:10158000A42583F58322E4F0A3F0A3F0A3F0A3F055
:10159000A3F0A3F0A3F0A3F0A3F022900CBBE0FE15
:1015A000A3E0FF7C007D1D121C86900CD274062FD8
:1015B000F974013EFA7B01E4F0A322900CBBE0FE3B
:1015C000A3E0FF7C007D1D121C86900CD274092FB5
:1015D000F974013EFA7B01E4F0A3227D1D121C8602
:1015E000900CD274FB2FF974003EFA7B01E4F0A357
:1015F000227D1D121C86900CD274FF2FF974003EC0
:10160000FA7B01E4F0A3227D1D121C86900CD2749B
:10161000032FF974013EFA7B01E4F0A322900CBB86
:10162000E0FEA3E0FF7C007D1D121C8674352FF9BF
:101630007401900CD23EFA7B01E4F0A322900EE3F9
:10164000E47B017A017918F0A322900CBBE0FEA3A1
:10165000E0FF7C007D1D021C867B017A017943E45A
:10166000F0A3227B017A017960E4F0A3227B017A66
:1016700001793DE4F0A3227B017A01795AE4F0A3D9
:1016800022E47B017A017945F0A322E0F9A3E0FA94
:10169000A3E0900CC7C9F0A3EAF0A3E9F022900000
:1016A00001121C25FF900028E48FF0121DD190003C
:1016B00002121C25FF90002AE48FF0121DD1900029
:1016C00003121C25FF90002CE48FF0121DD1900016
:1016D00004121C2590002EFFE48FF0021DD1E47B44
:1016E000017A017962F0A322EFF0AF037C007D6400
:1016F000AE02121C987F0A7E00CFCDCFCECCCE0298
:101700001C98E47B017A0079FBF0A322900010E49E
:1017100075F001121DD1900CC5E4F0A304F0900CFB
:10172000BDE0FCA3E0FD7F017E0022E47B017A00A6
:1017300079FFF0A322E47A0179067B01F0A3740318
:10174000F022E0FBA3E0FAA3E04A4B22E47B017A1B
:1017500001791CF0A322E47B017A017923F0A32212
:10176000E47B017A017909F0A322900CD1E0FEA379
:10177000E0900CD5FFE0FCA3E0FD22E47B017A01C0
:101780007926F0A322E47B017A017903F0A3227584
:10179000F00AA42DFFE5F03CFE121C257C002FFF73
:1017A000EC3E9000158FF0121DD1900044121D7A6E
:1017B000640145F022E47B017A017920F0A32290B4
:1017C0000CBBE0FEA3E0FF64014E22EEF0A3EFF0BD
:1017D000E4A3F0A3F0EF4E22121C25FF7E007C0351
:1017E0007DE8121C86AC06AD07227C002FFFEC3E84
:1017F000FEF0A3EFF022CFF0A3EFF07B017A0C799B
:101800006E22FF121C25FD12B89CAE07900CB72269
:10181000EEF0A3EFF0900CBDE0FEA3E0FF229400F9
:10182000CF2401FBE43FFAE0FEA3E0FF7C00227B33
:1018300001900EE3E4F0A322FFE0FD12B7B3900C99
:10184000B722121C25FFAD0612B7B3900CB7227554
:10185000F00AA42DFFE5F03CFE75F01DEB121FD140
:10186000EA2290000E021D7A900CD5E0FEA3E0FF64
:10187000C322121C2575F064A42DFDEC35F0FC226A
:10188000900CD2E024FFFE900CD1E0900CD534FFF8
:10189000F0A3CEF022900CDDE0FEA3E0FFED6F227E
:1018A000900005EF121C64900006021C257B01903D
:1018B0000CD2F0A37404F022900002EF121C64908A
:1018C0000003021C25900008EF121C64900009021E
:1018D0001C25900C5CE0F9A3E0FAA3E022E0FEA353
:1018E000E0FFF5828E83021C25E0FCA3E0F5828CEC
:1018F00083EF021C64FFE0FD12B89C900CE722FF0E
:10190000E0FCA3E0FDC39FEC227C002FFFEC3EFE39
:10191000F0A3EFF022900017121D7AFFC3900CC6BF
:10192000E09F900CC5E095F0228D828C83121C25DF
:10193000FF22E4F0A3F0A3F022EFF0900007021CD6
:10194000257D0A121C98AF05AE04AD03AC02021C43
:1019500098F0900008021C25F0900005021C25FB61
:1019600075F01D121FD1EA22900010E475F00112EB
:101970001DD1900CC6E004F022900012021C2590AC
:101980000013021D7AA3ECF0A3EDF0227C277D105A
:10199000021C987403F07F37FE227404F07FA67E49
:1019A00003227404F07F327E03227404F07F427EAF
:1019B00003227402F07F3F7E03227402F07F4F7E89
:1019C0000322FC7D1D021C86900015021D7A900CDE
:1019D0005FE0FFA3E0900CBBCFF0A3EFF0227D010E
:1019E0007BFF7E00021BE6900003EF121C64900058
:1019F00004121C25FF22900CD6E024FFF0900CD599
:101A0000E034FFF022900001EF121C64900002020B
:101A10001C25F090000A021C25900017121D7AFF69
:101A2000900CC9E065F022FFE0FD12B89C900CB765
:101A300022E4F0A3F0A3F0227403F07F4BFE2274A3
:101A400003F07F47FE22900CBBFFE0FCA3E0FD22E9
:101A500075F064A42BFFE5F03AFEA3E0229000109D
:101A6000E4F5F022E0FBA3E0FAA3E0227C007D0A8B
:101A7000021C98740CF07F737E0322740CF07F8537
:101A80007E03227404F07FA07E0322EFF090000C0E
:101A9000021C25900CCBE0FCA3E022A3F0A3740170
:101AA000F0A322FF900CCAE5F0F0A3EFF02274FF40
:101AB0002DF58274FF3CF58322F58274FF3EF58399
:101AC000021C25900CD9E0FCA3E0FDEF6D2224FF61
:101AD000F58274FF35F0F583227B01900CD2F0A3E0
:101AE0007403F022A3F0A3F0900CD2227B01900C9F
:101AF000D2E4F0A304F022F090000B021C25EF12B8
:101B00001C647F0122F58374FFF00F22FFAEF0C347
:101B10009410EE942722E709F608DFFA8046E709D9
:101B2000F208DFFA803E88828C83E709F0A3DFFAAF
:101B30008032E309F608DFFA8078E309F208DFFA79
:101B4000807088828C83E309F0A3DFFA8064898245
:101B50008A83E0A3F608DFFA805889828A83E0A3AB
:101B6000F208DFFA804C80D280FA80C680D4806987
:101B700080F28033801080A680EA809A80A880DA84
:101B800080E280CA803389828A83ECFAE493A3C816
:101B9000C582C8CCC583CCF0A3C8C582C8CCC583D8
:101BA000CCDFE9DEE7800D89828A83E493A3F6081F
:101BB000DFF9ECFAA9F0EDFB2289828A83ECFAE0E6
:101BC000A3C8C582C8CCC583CCF0A3C8C582C8CC85
:101BD000C583CCDFEADEE880DB89828A83E493A3D5
:101BE000F208DFF980CC88F0EF60010E4E60C38808
:101BF000F0ED2402B4040050B9F582EB2402B404E1
:101C00000050AF2323458223901B6673BB010689D6
:101C1000828A83E0225002E722BBFE02E32289820D
:101C20008A83E49322BB010CE58229F582E5833A9D
:101C3000F583E0225006E92582F8E622BBFE06E99C
:101C40002582F8E222E58229F582E5833AF583E4EC
:101C50009322BB010689828A83F0225002F722BBBD
:101C6000FE01F322F8BB010DE58229F582E5833AF6
:101C7000F583E8F0225006E92582C8F622BBFE056E
:101C8000E92582C8F222EF8DF0A4A8F0CF8CF0A451
:101C900028CE8DF0A42EFE22BC000BBE0029EF8DB5
:101CA000F084FFADF022E4CCF875F008EF2FFFEEE2
:101CB00033FEEC33FCEE9DEC984005FCEE9DFE0FF0
:101CC000D5F0E9E4CEFD22EDF8F5F0EE8420D21C4B
:101CD000FEADF075F008EF2FFFED33FD4007985093
:101CE00006D5F0F222C398FD0FD5F0EA22C2D5EC5A
:101CF00030E709B2D5E4C39DFDE49CFCEE30E71566
:101D0000B2D5E4C39FFFE49EFE121C98C3E49DFD80
:101D1000E49CFC8003121C9830D507C3E49FFFE4C9
:101D20009EFE22C5F0F8A3E028F0C5F0F8E5821584
:101D30008270021583E038F022A3F8E0C5F025F0A8
:101D4000F0E582158270021583E0C838F0E822BB06
:101D5000010A89828A83E0F5F0A3E022500687F029
:101D600009E71922BBFE07E3F5F009E3192289828E
:101D70008A83E493F5F074019322BB0110E5822974
:101D8000F582E5833AF583E0F5F0A3E0225009E916
:101D90002582F886F008E622BBFE0AE92582F8E2F1
:101DA000F5F008E222E5832AF583E993F5F0A3E94B
:101DB0009322BB010A89828A83F0E5F0A3F02250C6
:101DC00006F709A7F01922BBFE06F3E5F009F3199F
:101DD00022F8BB0111E58229F582E5833AF583E813
:101DE000F0E5F0A3F0225009E92582C8F608A6F034
:101DF00022BBFE09E92582C8F2E5F008F222E88F4D
:101E0000F0A4CC8BF0A42CFCE98EF0A42CFC8AF07E
:101E1000EDA42CFCEA8EF0A4CDA8F08BF0A42DCC80
:101E20003825F0FDE98FF0A42CCD35F0FCEB8EF0D9
:101E3000A4FEA9F0EB8FF0A4CFC5F02ECD39FEE4BF
:101E40003CFCEAA42DCE35F0FDE43CFC2275F00804
:101E5000758200EF2FFFEE33FECD33CDCC33CCC5F2
:101E60008233C5829BED9AEC99E58298400CF5820D
:101E7000EE9BFEED9AFDEC99FC0FD5F0D6E4CEFB7F
:101E8000E4CDFAE4CCF9A88222B800C1B90059BA6D
:101E9000002DEC8BF084CFCECDFCE5F0CBF978189B
:101EA000EF2FFFEE33FEED33FDEC33FCEB33FB1095
:101EB000D703994004EB99FB0FD8E5E4F9FA2278AF
:101EC00018EF2FFFEE33FEED33FDEC33FCC933C9C1
:101ED00010D7059BE99A4007EC9BFCE99AF90FD8CB
:101EE000E0E4C9FAE4CCFB2275F010EF2FFFEE33EB
:101EF000FEED33FDCC33CCC833C810D7079BEC9A2A
:101F0000E899400AED9BFDEC9AFCE899F80FD5F0B2
:101F1000DAE4CDFBE4CCFAE4C8F922CFF4CFCEF476
:101F2000CECDF4CDCCF4CC22EB9FF5F0EA9E42F07E
:101F3000E99D42F0E89C45F022E8600FECC313FCF9
:101F4000ED13FDEE13FEEF13FFD8F122E8600FEF63
:101F5000C333FFEE33FEED33FDEC33FCD8F12274D6
:101F600001FF3395E0FEFDFCA3A3A3E0CF2FF0E536
:101F700082158270021583E0CE3EF0E582158270F4
:101F8000021583E0CD3DF0E582158270021583E0F5
:101F9000CC3CF022ECF0A3EDF0A3EEF0A3EFF022A6
:101FA000A8828583F0D083D082121FB7121FB71288
:101FB0001FB7121FB7E473E493A3C583C5F0C583AD
:101FC000C8C582C8F0A3C583C5F0C583C8C582C88B
:101FD00022A42582F582E5F03583F58322D083D0D3
:101FE00082F8E4937012740193700DA3A393F874B4
:101FF0000193F5828883E4737402936860EFA3A36E
:10200000A380DFEF4E6012EF60010EEDBB010B8984
:10201000828A83F0A3DFFCDEFA2289F05007F709F9
:10202000DFFCA9F022BBFEFCF309DFFCA9F0229043
:102030000654E0FF3395E0FEEF4E22900575E0FF79
:1020400014F0EFC394017480948022E4900578F03A
:102050009005497407F0E49001F4F090060D7407C0
:10206000F0227404900579F0E4901156F0740C900D
:102070001155F09011577401F022901141E0FFA327
:10208000E0FEC39F22740E90058EF090058D748043
:10209000229005497407F090060DF0E49001F4F0E9
:1020A0002274452FF582E43411F58374FFF022FF8A
:1020B00024FCF58274FF3EF583ECF0A3EDF074FE92
:1020C0002FF58274FF3EF5837401F074FF2FF582C3
:1020D00074FF3EF5832290083B74FFF5F0121D2338
:1020E000FCC3E5F09401EC9400229000F7E0FF7E41
:1020F00000D394007480948022E4F09005787424D6
:10210000F09000F5E4F0A37480F022901139E064BF
:102110000A22900576740CF0900468E0900577F040
:102120009005757480F0229000EFE0FF3395E0FE9B
:1021300022901142E004F02290058CE024FFFF90F1
:10214000058BE034FFFE22900C44E0FFC3940C7436
:102150008094802290057B7402F0A37480F0900537
:1021600084E0640122F09000C8E4F0A3F0A3F02220
:10217000FFE433FE901139E07C0022900836F090A5
:10218000083BE4F0A37440F022901139E06401228E
:10219000E49000CCF0A3742BF0A374F2F022900032
:1021A000CBC3E094057480948022901139E06402DE
:1021B00022FF24FCF58274FF3EF58374FFF0A3F048
:1021C00074FE2FF58274FF3EF583E42290057B7444
:1021D000FFF5F0121D39FEC3E5F09401EE940022E4
:1021E000901139E0FDC3940A7480948022E0FEA32C
:1021F000E0FFD39400EE2204F0E4901140F022902E
:102200001140E0FF7E00640222F0A37401F07BFF26
:102210007AC3792C229005797413F0A32290052AB1
:10222000F090052C7440F0E422E0C3940474809490
:1022300080227E00900573EEF0A3EFF024FFFFEE06
:1022400034FFFE2290058E740EF0A3740CF0E4228D
:10225000F0A37403F0A37480F07D347F48229011C2
:102260003CE0FCA3E0FD90058BECF0A3EDF02290A8
:1022700005497407F022E004F0900573E0FCA3E048
:10228000FDAE0478022290058DE014F022900C44FB
:10229000E004F022E075F004A424C4F974C235F01F
:1022A000FA7BFF22900836E0FF7E0022901139E091
:1022B000FF7E00640B22900541F0A374C0F02290D1
:1022C00005787415F0E4900579F09005842290006B
:1022D000F8E06401227403F0E4900467F090114088
:1022E000F022F0900485E04401F02290058EE06435
:1022F0000122900000F0A3F022900607E064012282
:10230000E014F090058BE0FEA3E0780222A3740EA7
:10231000F0900609742622901155E0FF900C44E0DD
:10232000FEC39F22E024FFF09000F5E034FFF0228E
:10233000900484E04480F02290058E7402F0E490D2
:102340000655F022901145EDF0900C447401F022F6
:10235000E4F090019D74FFF022901142F090114141
:1023600022C39402748094802290057B7402F0A3AF
:102370007480F022F090067B7411F022900578F0C2
:102380007F0122F0E4900607F0227B017A11794563
:1023900022900594E06401227B037D037F0322E405
:1023A0009000EDF0A3F0A3F022901139E064032235
:1023B000F09006587402F07BFF22E4900C43F090FA
:1023C0000C42F022900CCBEB121696E4900CD31238
:1023D0001593900CD1E0FCA3E0FD900CD7ECF0A39A
:1023E000EDF012156612197F25E0FBE5F033FAEDEA
:1023F00024FAFFEC34FFFE7C007D05121C9890B996
:10240000BB75F0C8ED121FD1EC75F0C8A42583F59B
:1024100083E5822BF582E5833AF583E493FE74012C
:1024200093FBAA067C007D64FF121C98900CD9EEE9
:10243000F0A31216E8A3EEF0A3EFF0AE02AF031282
:102440001A6C121985E4121592900CD1E0FCA3E0ED
:10245000FD24F5FEEC34FF900CE3F0A3CEF0900CDD
:10246000CB1217427002FF2212156612197FFFAEBF
:10247000F0D39400EE94004008EF9464EE94004092
:10248000037F0022900CD712186B9406EE94004044
:1024900009D3EF940CEE940040037F0022C002C0E9
:1024A00001900CCE1218D5900CEA121695121985CF
:1024B000D001D002127604900CE312186BEE940057
:1024C000405BD3EF9402EE94005052900CDAE09F00
:1024D000900CD9E09E500CA3E0240AF0900CD9E0B7
:1024E0003400F0D3900CDCE09F900CDBE09E500CAD
:1024F000A3E0240AF0900CDBE03400F0900CE3E061
:10250000FEA3E0FFD3900CDEE09F900CDDE09E5038
:102510000CA3E0240AF0900CDDE03400F0900CD520
:10252000E4F0A304F012176AD39FEC9E5035900C90
:10253000D91218987002EC6E6019A31218987002E4
:10254000EC6E600FA31218987002EC6E6005121901
:10255000858010900CD6E004F070CA900CD5E00491
:10256000F080C2E4900CD5F0A3F012176AC39FEC80
:102570009E5026900CCE121569121929900CD4E0A9
:102580002FF0900CD3E03400F0900CD6E004F07003
:10259000D9900CD5E004F080D11215661219796437
:1025A000066003022685900CE5F0A3F01218801255
:1025B0001868EE94004036121AC37002EE6C602860
:1025C000A312176D6F7002EC6E601D1218957002E9
:1025D000EC6E6014A31218987002EC6E600A900CF6
:1025E000E5ECF0A3EDF080051219F680C212156635
:1025F00012169E1219599000301216D775F0051256
:102600001545900028121D7A6F7002E5F0600302F4
:102610002745900CCE121A64900CDB1215599000CD
:102620002A121D7A6F7002E5F06003022745900CB4
:10263000CE121569900CDD12155A90002C121D7ADD
:102640006F7002E5F06003022745900CCE12156909
:10265000900CDF12155A90002E121D7A6F7002E551
:10266000F06003022745900CCE121569900CE5121C
:10267000155A900030121D7A6F7002E5F060030267
:10268000274502272812156612197964076003028C
:102690002730121880121868EE94004027121AC3CF
:1026A0007002EE6C6019A312176D6F7002EC6E6011
:1026B0000E1218957002EC6E6005121985800512D5
:1026C00019F680D112156612169E75F00412154582
:1026D000900028121D7A6F7002E5F07068900CCEA1
:1026E000121569900CDB12155A90002A121D7A6F90
:1026F0007002E5F0704F900CCE121569900CDD124F
:10270000155A90002C121D7A6F7002E5F070369009
:102710000CCE121569900CDF12155A90002E121D66
:102720007AB50721E4B5F01D90004475F0018012E0
:10273000121566900042E4F5F0121DD1900044E4B9
:10274000F5F0121DD11215661217AA7F0070027FD4
:102750000122129E4E900C46121F9412A361600734
:1027600012A378A3121F94C3900544E0942090050F
:1027700043E0940050037FFF2230190A12A36170D6
:1027800002C2197FFF2212A378125AC920C207E49D
:102790009011C5F080069011C574FFF012A3497026
:1027A000099011CAE070030228A79011BA12A34C35
:1027B000700B9011CAE0640170030228B69011BB3F
:1027C00012A34C700B9011CAE0640270030228C679
:1027D0009011BC12A34C700B9011CAE064037003FB
:1027E0000228D79011BD12A34C700B9011CAE0645F
:1027F0000470030228E89011BE12A34C700B9011D4
:10280000CAE0640570030228F99011BF12A34C704E
:102810000B9011CAE06406700302290A9011C012DD
:10282000A34C700B9011CAE06407700302291A9040
:1028300011C112A34C700B9011CAE064087003021E
:10284000292A9011C212A34C700B9011CAE064099E
:10285000700302293A9011C312A34C700B9011CA55
:10286000E0640B700302294A9011C412A34C700B50
:102870009011CAE0640A700302295A9011C512A38C
:102880004C700B9011CAE0640D700302296A90111C
:10289000C912A34C700CA3E0640C70069011CD0219
:1028A000297D12A34970079011CDF002298590115E
:1028B000BA12A34C70089011CD04F0022985901132
:1028C000BB12A34C70099011CD7402F002298590BF
:1028D00011BC12A34C70099011CD7403F00229852C
:1028E0009011BD12A34C70099011CD7404F002290F
:1028F000859011BE12A34C70099011CD7405F002A1
:1029000029859011BF12A34C70089011CD7406F068
:1029100080739011C012A34C70089011CD7407F011
:1029200080639011C112A34C70089011CD7408F00F
:1029300080539011C212A34C70089011CD7409F00D
:1029400080439011C312A34C70089011CD740BF00A
:1029500080339011C412A34C70089011CD740AF00A
:1029600080239011C512A34C70089011CD740DF006
:1029700080139011C912A34C9011CD7005740CF006
:10298000800374FFF09011CDE0FF90067AF0F470B0
:1029900003022A159011CAE0FD9011CDE0FC6D6094
:1029A00015EF640D900C4E6004ECF0800374FFF0A2
:1029B0009011CAEC8079D39011CCE094C09011CBE7
:1029C000E09400500FA3E004F070069011CBE004F7
:1029D000F012A3879011CBE0FEA3E0FFD39460EE4A
:1029E0009400402CEF94C0EE9400400EA3E0640DE0
:1029F0007008900C4E741BF0800312A3879011B8DE
:102A0000E004F0D3947F748094804029E4F0802522
:102A100012A38780209011CAE0FF640D900C4E70C5
:102A200004EFF0800374FFF09011CDE09011CAF034
:102A3000E4A3F0A3F0900C4EE0FF227A0179351266
:102A4000182F7404F07FAD7E0312A113900135E0BE
:102A5000F4600FA3E0F4600AA3E0F46005A3E0F4DF
:102A60007017E4900135121593900CD2121703746D
:102A700004F07FAD7E0312510512163D7404F07F01
:102A8000B47E0312A113900152E0F4600FA3E0F4AE
:102A9000600AA3E0F46005A3E0F47015E49001522D
:102AA0001215937A0179521218AD7FB47E03125138
:102AB000057A01793912182F7404F07F527E0312BF
:102AC000A113900139E0F4600FA3E0F4600AA3E0E1
:102AD000F46005A3E0F47015E49001391215937ABF
:102AE0000179391218AD7F527E031251057B017AAC
:102AF0000179561218317404F07F627E0312A1131B
:102B0000900156E0F4600FA3E0F4600AA3E0F460E3
:102B100005A3E0F47017E49001561215937B017A37
:102B20000179561218AF7F627E031251057B017A3C
:102B30000179401218317403F07F5BFE12A11390EB
:102B40000140E0F4600AA3E0F46005A3E0F4701330
:102B50009001401219327A017940121AD97F5BFE36
:102B60001251057B017A01795D1218317403F07FEF
:102B70006BFE12A11390015DE0F4600AA3E0F46023
:102B800005A3E0F4701390015D1219327A01795DAA
:102B9000121AD97F6BFE125105900EE3121659746A
:102BA00002F07F5F7E0312A113900143E0F4600501
:102BB000A3E0F47010900CD21216597402F07F5FEB
:102BC0007E03125105900EE31216637402F07F6FBC
:102BD0007E0312A113900160E0F46005A3E0F4709D
:102BE00010900CD21216637402F07F6F7E031251A4
:102BF00005900EE312166D12199312A11390013D68
:102C0000E0F4600AA3E0F46005A3E0F4700F900C18
:102C1000D212166D7403F07F57FE125105900EE329
:102C20001216777403F07F67FE12A11390015AE029
:102C3000F4600AA3E0F46005A3E0F4700F900CD2F6
:102C40001216777403F07F67FE125105900EE3129F
:102C50001681121A7312A113900145E0F46037A394
:102C6000E0F46032A3E0F4602DA3E0F46028A3E078
:102C7000F46023A3E0F4601EA3E0F46019A3E0F481
:102C80006014A3E0F4600FA3E0F4600AA3E0F46032
:102C900005A3E0F47012900145121586121AE41291
:102CA0001682121A73125105900EE31216DE121AD2
:102CB0007B12A113900162E0F46037A3E0F460326C
:102CC000A3E0F4602DA3E0F46028A3E0F46023A364
:102CD000E0F4601EA3E0F46019A3E0F46014A3E044
:102CE000F4600FA3E0F4600AA3E0F46005A3E0F44D
:102CF0007013E4900162121587121AE41216DF12A3
:102D00001A7B12510522900579E070739000D2E091
:102D1000701D900584E0640270159000D5E0700F7E
:102D20001222157407F0A31221047F3E02B7C2904D
:102D30000584E0FF7E006401700E9000D5E0122350
:102D40006150028001C35018EF64024E7028900059
:102D5000D4E0C394087480948050028001C340166C
:102D60001222157406F0A31221047F5812B7C27FF5
:102D7000647E0002B9A490057974011221F82290B2
:102D80000579E06401703F7403F0E4901140122172
:102D90005D700512B429800312B3F690057DEFF043
:102DA000122068E4900C44F012214750081220A130
:102DB00012228D80F31221547B5270047D4C8002CC
:102DC0007D4E7F66806C900579E064036003022E7F
:102DD00059901157E064027073901156D31221A2DA
:102DE0004053E4900C44F0900C44E012214C501EEF
:102DF000E0FF2445F582E43411F583E0FE742D2FC5
:102E0000F582E43411F583EEF012228D80D9122080
:102E100062E4900C44F012214750081220A11222C3
:102E20008D80F31221547B5270047D4C80027D4EC4
:102E30007F6802B7FA7403122064E4900C44F01225
:102E4000214750591220A112228D80F3901157E092
:102E500064036003022FCF8051900579E064047011
:102E600056FD7F0512B7059011571222027032905D
:102E70001156E0D31221A340079005797405F02282
:102E8000122062E4900C44F0900C44E0FD12214CBE
:102E9000500B74452D1220A412228D80EB12236951
:102EA00022EF64034E6003022FCF122215740CF040
:102EB000A3E4F0A304F022900579E0640560030226
:102EC0002F487B01900C4804F0A37411F0A37445C3
:102ED000F07A11792D126795EF3395E04F70581203
:102EE000238A12656FEF703F12238A90057DE0FD03
:102EF00012861CEF3395E0FEEFF47002EEF46003EF
:102F0000022FCF9005797412F090057B1221047D79
:102F1000327F4412B72612215E70059000D58003DF
:102F20009000D4E004F0221222157404F0A31221C0
:102F3000047D527F56800E1222157409F0A31221CF
:102F4000047D347F4402B726900579E0641270282E
:102F50001221CC507A9000D2E0701212215E700DD6
:102F60009000D5E06401700512B7DE800312B93D10
:102F7000900485E04402F022900579E06413704FDC
:102F80001221CC504A90057AE0FF7E00640C700E4E
:102F90009000D2E070089000D5E07002801190009F
:102FA000D2E0700F12215E700A9000D5E07004121A
:102FB000204C22EF64064E600E90057AE0FF640C10
:102FC0006005EF6407700512215E800012B93D2292
:102FD0009000CC122032700B9005787427F07F049B
:102FE000128E94900617E070067420F0129B699080
:102FF000060DE0640470649000ED74FFF090061517
:10300000A3E09000F3F012AF9B1221669000F8E06D
:1030100070047F0180201222CE707C122127BEFF17
:1030200007BFFF047F06800E9000EE12212ABEFF2C
:103030000ABFFF077F0412B48A805C9000F7E0703B
:103040000512325980511220EA404CEF640170039E
:1030500012205B9000F7E014F0803C90060DE064D5
:10306000057034123265700A7F0912B48A12AF9B60
:103070008025E49000EDF09000F104F09000F31250
:1030800020F97F4012B7C29000C91222295005E0F2
:1030900004F080031221901252919001F4E0642810
:1030A00070629000EE74FFF09001EFA3E0049000D6
:1030B000F21221659000F8E070047F038070122204
:1030C000CE60030231589000ED12212ABEFF07BFE7
:1030D000FF047F048058122127BEFF07BFFF047F33
:1030E00005804B9000F7E07005123259806A12207B
:1030F000EA4065EF640170049001F4F09000F7E09D
:1031000014F080549001F4E06429704CA3E0642B27
:1031100070089000FA7402F08005E49000FAF01252
:103120003265700F9000FAE0640260077F0912B404
:103130008A8025E49000EEF09000F17403F0E4A39F
:103140001220FA7F4012B7C29000C81222295005FF
:10315000E004F08003122190125E8F900549E06434
:103160000A706C9000EF74FFF0900557E09000F447
:103170001221659000F8E0600E9000F0E0FF64011D
:103180006005EF640270109000F0E0640270047F4C
:103190000880507F02804C1222CE6003023246909B
:1031A00000ED12212ABEFF07BFFF047F0680349086
:1031B00000EE12212ABEFF07BFFF047F0580247F97
:1031C0007A12B7C212226F9000F77480F080779065
:1031D0000549E0640B703912B2F9EF3395E04F7096
:1031E000077F0912B48A805EE49000EFF09000F14E
:1031F0007402F09000F41220F97F4012B7C29000E0
:10320000CA1222295005E004F0803B12219080363A
:10321000900549E0FF7E00640C700E90047BF0A3E3
:10322000F09005787426F0801DEF640D4E70051245
:10323000B6AD8012900549E0641C700A7D327F446F
:1032400012B72612226F900493E06402700A74048D
:10325000F07D327F9E12B726227F7A12B7C290008D
:10326000F77480F02212B2F9EF3395E04F22900C00
:1032700044EEF0A3EFF0900467E07015741E127B2B
:103280001EA37401F0E4A3F0A374FFF07F6C02347A
:1032900000900467E0641E7005741F0234269004D9
:1032A00067E0641F703F127B0B702B900609E07083
:1032B000089004677420023446900609E0FF640316
:1032C000600AEF64026005EF64F9700790046774A8
:1032D0001EF0220233A2127AD4648094804003024A
:1032E00034F20234E8900467E06420701074211214
:1032F0007B15900464E0FF12A3040234B9900467C4
:10330000E0642160030233B7127B0B60030233A831
:10331000900609E07052900464E0FF7E0064017042
:1033200020900466E0FD3395E0FCED4C70139004B2
:1033300064E004F09004677424F090046674FF80E5
:1033400020C3EF9408EE64809480900467501012BC
:103350007B1CA3E004F01234F312B9A402344774C6
:1033600017F0127B7E023447900609E0FF64066086
:1033700005EF6403702C900465E0C394037480949B
:1033800080900467500E127B1C12AF9B1234F31214
:10339000B9A480077429F0A3740BF0900465E004CD
:1033A000F0229004670234D7127AD464809480406B
:1033B000030234F20234E8900467E06424700F746E
:1033C00025127B157B32FAFDFC7F010299149004D3
:1033D00067E064257046127B0B7032900609E0FFAF
:1033E0007E00700B9004677429F0A3740AF022EF3A
:1033F00064094E9004677012127B1C12AF9B7F6EA3
:1034000012B7C27F967E0002B9A40234D7127AD4D2
:103410006480948040030234F20234E8900467E050
:10342000642270087423127B1502B472900467E062
:103430006423702B127B0B7017900609E0640290D6
:10344000046760067422F002AF9B741E127B1E227A
:10345000127AD46480948040030234F20234E890FB
:103460000467E06417700A7418127B1512B38A801F
:1034700048900467E0FF7E0064187022127B0B7096
:103480000F900609E090046770047419F0228047D9
:10349000900462127B6F648094805056804AEF647F
:1034A000194E7019900467741A127B15900C44E041
:1034B000FCA3E0FD7F01129D9C127B7E229004679D
:1034C000E0641A702D127B0B7015900609E09004D1
:1034D0006770047428F0227429F0A3740BF0221290
:1034E0007AD464809480500A9004677429F0A3749D
:1034F00001F0227F6E12B7C27F967E0022900CB739
:10350000EB121696900CC1121586900CB71217424A
:103510007002FF22900CB7121569121A5D121DD1AC
:10352000C002C001900CBA1218D5900CCE1216959C
:10353000900CBFE0FFA3E0900CD1CFF0A3EFF0D050
:1035400001D0021223C4EF7002FF22900CB71215B3
:103550006912197924F9606904600302375A9000EE
:10356000061217D89000071218721219529000090B
:1035700012178F6003023766121815129096900C7E
:10358000C1EEF0A3EFF0900CB71215691219C81232
:103590001B0C4003023766900CC11219009E5002AA
:1035A000800FBC2716BD0F13C3EF940BEE94005091
:1035B0000A900010E475F001023763121A5D0237B9
:1035C00063900CB71215691218A775F00AA4FDAC28
:1035D000F012195975F064A42DFFE5F03CFE1219A4
:1035E0003B7C002FFFEC3E9000178FF0121DD19016
:1035F00000081217D8900009121872121A139000BE
:103600000B12178F600302376612181512918F90F4
:103610000CC3121810129302900CC51218101295B8
:1036200058900CC9121810129AA6900CC7EEF0A36D
:10363000EFF0900CB71215691219C8121B0C400359
:10364000023766900CC3E0FCA3E0FDC3940FEC943A
:10365000275073C3ED9FEC9E5003023710900CB7B8
:103660001215691219C8FF900CC3E065F07003A32E
:10367000E06F7046121A197003A3E06F60030237FF
:1036800010900CB712156912197FFF900CC7E065F6
:10369000F07003A3E06F600612170C127883900C91
:1036A000B7121569121915400302376612196870AE
:1036B00006900CC5E004F0023748900CB71215696B
:1036C000121A5D023763900CC3E064277004A3E014
:1036D000640F6003023766900CB71215691219C89F
:1036E000C3940BE5F09400500612170C12788390E7
:1036F0000CB71215691219C8FF900CC3E065F07081
:1037000003A3E06F7060121A197003A3E06F6005E5
:1037100012170C8040900CB712156912197FFF9098
:103720000CC7E065F07003A3E06F600612170C127F
:103730007883900CB712156912191550291219685F
:103740007006900CC5E004F0900CC5E0FEA3E0907C
:103750000CBD121A49127883800C900CB7121569AF
:10376000121A5D121DD1900CB7121569900010123B
:1037700017AD7F0070027F0122900C46123F8BE450
:10378000900C4AF0784B7C0C7D017BFF7AC179A9C3
:10379000FE124052900C53F0A3F0A3121FA00000A1
:1037A0000000900C46123FE64A4B70030239EF903E
:1037B0000C46A3A3E0F9900003121C25900C49F0DD
:1037C000900004121C25FE900C53E05EF0A3E4F080
:1037D0001240C9FFFD900C54E02DF0900C53E034E2
:1037E00000F0900C49E0121FDD380B01381202384E
:1037F0003903383F0438620538860838CF09384E17
:103800000B389710399316000039EF9005037401B7
:10381000F022123F57401C900C46123ECD123FF84A
:103820006404700F9004937402F090050FE4F0A309
:103830007480F09005030239BA9004930239E3EFE3
:1038400060030239EF900484E054FDF08043123F9E
:103850005750030239EF900C46123ECD123FF864E8
:103860000122123F5750030239EF900C46123ECD11
:10387000123FF87005123F128017900C46123ECD91
:10388000123FF8640122123F5750030239EF123FF2
:1038900012E4900504F022123F5750030239EF90D2
:1038A0000C46123ECD123FF8640160030239EFE985
:1038B000240778227C057F06123F9D900486E05401
:1038C000FDF0E4900504F0900485E04440F02212FD
:1038D0003F5750030239EF900C46123ECD1240C9BB
:1038E00064197038123FF864317031900009121C6D
:1038F0002564157027900505E06401600302398E88
:10390000900C46A3A3E0241778077C0512404A9048
:103910000505F0900485E04420F08072900C46127A
:103920003ECD123FF864327065900505E064027088
:103930005D1240C9641160028039E9240D784B7C26
:103940000C12404A900C4AF0900C4AE0FF7E00C3F3
:103950009408748094805036E0FD2407F582E434A6
:1039600005F583E0FC744B2DF582E4340CF583E01F
:103970006C60089005067402F08013EF64074E70C7
:103980000590050604F0900C4AE004F080BA90051A
:10399000038050123F574057900C46123ECD123FC5
:1039A000F87044900007121C2560046401700F1227
:1039B00040CF703B123F949005117402F022900C9E
:1039C00046123ECD900007121C2564027021124061
:1039D000CF701C900008121C2564107003123F94D5
:1039E0009005117403F0221240CF70037404F0228A
:1039F000900CB7EB121696A3EDF0900CB71217428D
:103A00007003023C60A3E064066003023ABC900CC1
:103A1000B7A3A3E0F91218A7121A469000FB75F09D
:103A20001D121579121939FF121572EF121951FF73
:103A30009000FD121575EFF01218CCFF9000FE12E9
:103A40001575EFF09000FB121575E0FF900135122F
:103A50001575EFF0121572E0FF900136121575EF33
:103A6000F09000FD121575E0FF900137121575EF0B
:103A7000F09000FE121575E0FF900138121575EFF9
:103A8000F0ED4C701A900CBB1218271215DB121AAD
:103A90008312510512161D7404F07FAD023C5B12B7
:103AA00017BF6003023C60FC1215DB12199A125119
:103AB0000512161D7404F07FB4023C5B900CBAE052
:103AC00064076003023C60900CB71215691219522A
:103AD000121A469000FF75F01D121579EFF01218BA
:103AE000CCFF900100121575EF121A12FF90010120
:103AF000121575EF121AF7FF900102121575EF12E9
:103B00001958FF900106121575EFF01218A7FF90D3
:103B10000107121575121939FF900108121575EF7A
:103B2000F0121C0CFF900109121575121A8BFE90F1
:103B3000010A121575EE121951FE90013912157510
:103B4000EEF01218CCFE90013A121575EE121A1210
:103B5000FE90013B121575EE121AF7FE90013C1211
:103B60001575EE121958FE900140121575EEF012FF
:103B700018A7FE900141121575EE12193AFE900138
:103B800042121575EEF0900143121575121A8BFF53
:103B9000900144121575EFF0ED4C7062900CBB1261
:103BA00018271215F11219A212510512159B740350
:103BB000F07F3BFE1251051215BB1219B2125105CE
:103BC00012164A74392FF974011216327404F07FF8
:103BD000527E0312510512164A74402FF9740112D5
:103BE00016327403F07F5BFE12510512164A7443BD
:103BF0002FF974011216327402F07F5F805D121784
:103C0000BF705DFC1215F11219AA12510512159B15
:103C1000121A381251051215BB1219BA1251051297
:103C2000164A74392FF974011216327404F07F6247
:103C30007E0312510512164A74402FF974011216B0
:103C4000327403F07F6BFE12510512164A74432F33
:103C5000F974011216327402F07F6F7E031251055F
:103C600022E4900C54F0A3121FA000000000900C5E
:103C700059121FA000000000E4900C5DF0A3F0308A
:103C80000303023D8C12B99B5003023D7E12ACEA45
:103C9000900C55121F94E4900C53F0900C53E0C319
:103CA00095105039900C55126D577801121F3990AC
:103CB0000C55121F9430D720126D2BC000C00190FC
:103CC0000C53126D1AE0F9F8121F4CD001D00012FB
:103CD0006D63900C54E004F0126DA280BE900C5401
:103CE000E0FF7E00C39402748094804018D214EFE9
:103CF000940374809480400512B99E800812B8C85D
:103D0000EF6002C214201423E4FFFEFDFC126D2BB1
:103D1000C3121F2860109010D0E004F070069010BD
:103D2000CFE004F0801D126D8E80189010BFE0046B
:103D3000F070069010BEE004F0900C59121FA00025
:103D400000000012B82DD39010D0E09F9010CFE06B
:103D50009E400612B99E126D8ED39010BFE0942C37
:103D60009010BEE094015003023EAE12B99E901036
:103D7000F67401F0E49010BEF0A3F0023EAE90C4E1
:103D80003AE4740193FF124A8F023EAE200403020C
:103D90003E78126D2BC000C0019010F7126D1AE032
:103DA000F9F8121F4CD001D000126D63126CB812DA
:103DB0006DA9900C5DF0A3EFF09010F7E0FF12B842
:103DC000F0AD07AC06ED7802CEA2E713CE13D8F81B
:103DD000FFC3ED9FFFEC9EFED3900C5EE09FEE6470
:103DE00080F8900C5DE06480985058E4901074F076
:103DF000A3F0901037E004F0940574809480401094
:103E0000E4F0C203C204900C59121FA0000000008D
:103E1000E4900C53F0900C53E0FFC3951040030264
:103E20003EAE124C42200316900C53E0FF9010F768
:103E3000E06F600A900C53E0126CC8126D75126D41
:103E4000A280D2E4901037F012B82D901074E4756F
:103E5000F001121D23FCD3E5F09FEC9E405012B9F7
:103E60009EE4901074F0A3F0C203C204900C5912A7
:103E70001FA0000000008036785406E6D394057435
:103E80008094804004E4F6C203E4900C53F0900C5C
:103E900053E0FFC395105016124C4220030B900CB8
:103EA00053E0FF126CC8126D75126DA280E0900C89
:103EB00059126D5722900C4AE0FBA3E475F00112F1
:103EC0001D39A9F0FA7401121C52900C4AE0FBA3B0
:103ED000E0FAA3E0F9227D017BFF7E00FF021BE6F2
:103EE0007B01E0FFA3E0CF900CBDF0A3EFF0221226
:103EF0001C529000F2E0FF900C4D75F002E0FBA325
:103F0000E4121D39A9F0FA227D017BFFFE7F010238
:103F10001BE6900488E0FCA3E0FDA3E0FEA3E0FF25
:103F2000900C55121F94900484E0F8A3E0F9A3E0EC
:103F3000FAA3E0FB900C55E0FCA3E0FDA3E0FEA398
:103F4000E0FF121F1BEB5FFFEA5EFEE95DFDE85C30
:103F5000FC900484021F94D3900C54E09400900CC5
:103F600053E09400227D017BFF7E00121BE612B617
:103F70003EEF3395E0FE22F0A37402F0E4A3F07468
:103F800004A3F0E4A3F0A322EFF0A3EBF0A3EAF084
:103F9000A3E9F022E9240978127C057F10F9E43ABC
:103FA000FA7D017E00021BE6A3E024F9FF7B0122DB
:103FB000FE900C45E02F2448F582E4340CF583EEA6
:103FC000F0900CACE004F022900504E004F0227BB9
:103FD000017A0C7948900C47E0FF900CB1E4F0A313
:103FE000EFF022900C4AE0FBA3E0FAA3E022EEF00F
:103FF000A3EFF0A3E4F0A322900006021C25D390C7
:10400000048DE090048C9400E064809480227431EC
:10401000F0E4A3F0A3F0A322EE04FF74482EF5828F
:10402000E4340CF58322F583E4F0EC75F008A42267
:10403000F0900C45E02F900C47F0E4900CACF0228F
:10404000900C45E0FF900CACE022F9E43AFA7D01D7
:104050007E007F08121BE6E422900C4AE0FBA3E4FA
:1040600075F00122AD037B017A0579227E007F067F
:10407000021BE6E0FCA3E0FDEC22E48FF0121DB28F
:104080009000F3E0FF900C4D22D3900492E0940056
:10409000900491E0940022EFF0A3ECF0A3EDF0A3E4
:1040A000E4F0A322E0FEA3E0FF7D0022AE0712B6FB
:1040B0003EEFFD3395E0FC22E49007CAF0A3F02226
:1040C0007D017BFF7E00021BE6900005021C25900F
:1040D0000511E0640122F0A3740CF0A37446F022F1
:1040E000900485E0FFC4227D017F041240F10D7F22
:1040F00004EFF582758300C3748094804024D3E577
:10410000829405748094805019EDF582C374809474
:1041100080400FE582940874809480500575820178
:104120008003900000E5826401458360030242EA57
:10413000EF1460641470030241DD14700302422224
:104140001470030242671470030242A9240560033D
:104150000242EAEB14601D14602D24026003024247
:10416000EAA8057401088002C333D8FCFF429AEF25
:10417000F4529B22A8057401088002C333D8FCFFC7
:10418000F4529AEF429B22A8057401088002C333BF
:10419000D8FCF4529A529B22EB14601D14602D241B
:1041A0000260030242EAA8057401088002C333D802
:1041B000FCFF4291EFF4529222A80574010880029C
:1041C000C333D8FCFFF45291EF429222A805740148
:1041D000088002C333D8FCF45291529222EB14604F
:1041E0001D14602D240260030242EAA80574010830
:1041F0008002C333D8FCFF42A1EFF452A222A805EB
:104200007401088002C333D8FCFFF452A1EF42A22C
:1042100022A8057401088002C333D8FCF452A152CD
:10422000A222EB14601D14602D240260030242EAF6
:10423000A8057401088002C333D8FCFF42B1EFF433
:1042400052B222A8057401088002C333D8FCFFF4DF
:1042500052B1EF42B222A8057401088002C333D8DC
:10426000FCF452B152B222EB14601A14602A2402F8
:104270007078A8057401088002C333D8FCFF42C1DE
:10428000EFF452C222A8057401088002C333D8FC9F
:10429000FFF452C1EF42C222A8057401088002C394
:1042A00033D8FCF452C152C222EB14601A14602AB3
:1042B00024027036A8057401088002C333D8FCFFBD
:1042C00042D9EFF452DA22A8057401088002C33300
:1042D000D8FCFFF452D9EF42DA22A8057401088015
:1042E00002C333D8FCF452D952DA22900C6212681D
:1042F000BE900C61EFF0900C6C74FEF0E4A3F0A3A0
:10430000F0EF24F4601024FE7016900C6D7412F01F
:10431000A37410F0800A900C6D7420F0A37430F038
:10432000900C6DE04480FD7F0212B8077D807F0411
:1043300012B15D1244DC7D807F0A12B2BBE4900CA6
:1043400070F0A3F0900C65E0FF900C70E0FCA3E02F
:10435000FDC39FEC94005023900C621268B58D82CF
:104360008C83121C25FD7F0912B807900C71E004A4
:10437000F070D1900C70E004F080C9900C61E0FD09
:104380007F0112B807900C61E0640C70077D807F9C
:104390000D12B2BB12B7D0900C70E4F0A37464F0AD
:1043A0007F0412B652900C6FEFF0900C71E024FF76
:1043B000F0900C70E034FFF0E07002A3E060119028
:1043C0000C6FE0FF20E009900C6EE0FEEF5E60D025
:1043D0007D807F0D12B15D900C70E07002A3E070E3
:1043E000030244C97F0612B652EF541B6003024415
:1043F000C1900C6CF0A3E0FF900C6FE05F30E00622
:10440000900C6C74FFF0900C61E0640C600302444B
:10441000CC7F0A12B652900C6FEFF07F0C12B6529E
:10442000EF5407FD6029900C6FE024FFFFE434FF98
:10443000FEEF7803C333CE33CED8F97C002DFFECEA
:104440003EF9900C69E0FBA3E0FAA3E0C98011906B
:104450000C6FE075F008A4FF900C691268B5E5F0E8
:104460008FF0121DB2900C6FE0700204F0900C6F90
:10447000E0D394127480948040037412F0E4900CA2
:1044800070F0A3F0900C6FE0FFC3900C71E09F9070
:104490000C70E0940050357F0912B652900C6612F1
:1044A00068B5900C70E0FCA3E0F5828C83EF121CE1
:1044B00064900C71E004F070CB900C70E004F0801C
:1044C000C3900C6C74FEF0800312B92F7D807F0CBA
:1044D00012B2BB1244DC900C6CE0FF22E4FD7F01C1
:1044E00012B80722123FFE40030246B99004881218
:1044F0001FA000000000900484E0FF5401600AEF58
:1045000054FEF01298AE0246B0900484E0FFC3134C
:104510005401600D900488E04402F012AE5B024644
:10452000B0900484E0FF13135401600AEF54FBF0D1
:1045300012B11C0246B01240E05401600AEF54EF81
:10454000F012AF270246B0900484E0C41313135452
:10455000016012900488E04480F0900490E0FF1223
:10456000B6BF0246B0900484E0C4540160159004C4
:1045700088E04410F0900491E0FEA3E0FF12B4BA8A
:104580000246B0900484E0FFC4135401600D90040F
:1045900088E04420F01299790246B0900484E0FF4C
:1045A000C413135401600D900488E04440F012B528
:1045B000580246B0900486E0FFC3135401600D908A
:1045C000048AE04402F012B7760246B0900485E017
:1045D000C41313135401600F900489E04480F07FEA
:1045E0002012B6D10246B0900486E05401600F90CC
:1045F000048AE04401F07F2112B6D10246B0124095
:10460000E0131354016021EF54BFF09005117401C1
:10461000F0900528E4F0A37460F07B017A117945ED
:104620007D0A12B8140246B0900484E0FF131313FD
:104630005401600C900488E04408F012ACB880701B
:10464000900485E05401600E900489E04401F07FFD
:1046500019127091805A900485E0C3135401600EC2
:10466000900489E04402F07F1A1270918042900415
:1046700085E013135401600E900489E04404F07F38
:104680001B127091802A900485E0FF1313135401CC
:10469000600C900489E04408F012B7568012124072
:1046A000E01354016013900489E04420F012B766CF
:1046B00090048CE4F0A37410F0123FFE400CA3E0D1
:1046C00024FFF090048CE034FFF022900EE31217E8
:1046D00002121A8312A1139000FBE0F4600FA3E012
:1046E000F4600AA3E0F46005A3E0F47017E490001E
:1046F000FB1215937B017A0079FB1218AF7FA07E25
:104700000312510512163D12199A12A113900118A5
:10471000E0F4600FA3E0F4600AA3E0F46005A3E016
:10472000F47013E4900118121593900CD2121641F4
:1047300012199A125105900EE312172B1219A21298
:10474000A1139000FFE0F4600FA3E0F4600AA3E07F
:10475000F46005A3E0F47013E49000FF1215939049
:104760000CD212172C1219A2125105900EE3121737
:104770004C1219AA12A11390011CE0F4600FA3E0DF
:10478000F4600AA3E0F46005A3E0F47013E4900180
:104790001C121593900CD212174D1219AA12510522
:1047A000900EE31217357F3BFE12A113900106E035
:1047B000F4600AA3E0F46005A3E0F470129001062F
:1047C000121A31900CD21217367F3BFE125105900F
:1047D0000EE3121756121A3812A113900123E0F4B7
:1047E000600AA3E0F46005A3E0F4701290012312C4
:1047F0001A31900CD2121757121A38125105900E16
:10480000E31217601219B212A113900109E0F460CB
:1048100005A3E0F47010E4900109121AE512176183
:104820001219B2125105900EE312177B1219BA1227
:10483000A113900126E0F46005A3E0F47010E49069
:104840000126121AE512177C1219BA125105900EA0
:10485000E312178512199312A113900103E0F4607B
:104860000AA3E0F46005A3E0F47011E4900103F002
:10487000121AE4121786121993125105900EE312C0
:1048800017B5121A3F12A113900120E0F4600AA399
:10489000E0F46005A3E0F47011E4900120F0121A36
:1048A000E41217B6121A3F125105022A3B90045522
:1048B000E060030249369000D2E070439000D5E0FA
:1048C000703D9005787415F090057974031221F805
:1048D00090057D04F0900584122067E4900C44F06C
:1048E000900C4412214A500B1220A1900C44E00479
:1048F000F080ED1223697B527D4C7F6602B7FA127D
:1049000020689005497409F0E4900C44F09011552A
:10491000E0FF900C44E0FEC39F500E74452E122021
:10492000A4900C44E004F080E4900455740112203B
:104930009A7F5A02B7C2900455E064016003024AAC
:10494000427D107F0612B705901157E06402704B4C
:104950009004557403F012238A12656F90045EEF81
:10496000F0600FC3940374809480500690045574D3
:1049700002F012226F900455E0640370157F40121C
:10498000B7C290045D7480F012219E501FE004F0C5
:10499000801A7D327F5A12B7268011901157E06439
:1049A0000370099004557404F012226F1252919012
:1049B00001F4E064287029C39001F0E0940A9001AA
:1049C000EFE09400501A900455740212209A7D3240
:1049D0007F5A12B7269001F37401F07F03024A8BCD
:1049E0009001F4E0FF64296022EF64286003024A2A
:1049F0008E9001F0E02401FF9001EFE03400FED33F
:104A0000EF940AEE94005003024A8E9001F5E064A0
:104A10002B90045F70057402F080037401F0E49041
:104A200001F4F09004557403F090045D7480F07FFD
:104A30004012B7C27F02128E9412219E5050E004A1
:104A4000F022900455E06402700912B7DEE4900091
:104A5000CBF022900455E06403701D90045DE014D7
:104A6000F0122043502812219E4005E4A312219405
:104A700012209112237C8013900455E06404700E80
:104A80007F6012B7C212209112237C128E94229062
:104A90000C5FEFF09011DFE0C394037480948040CA
:104AA00048E4F09010F6E07035900C60F0900C60E7
:104AB000E0C395105028E0FF75F002A424D2F582DF
:104AC000E5F03410F583E0FCA3E0FDEF25E02424BD
:104AD000F8A60408A605900C60E004F080CF1298B8
:104AE00047C215E49010F6F0229011D9E004F0903E
:104AF0000C5FE0FF9011D9E0B5070812ABEDE49030
:104B000011DAF0900C5FE0FF9011D9E0D39F5003D1
:104B1000024C41E4900C60F0900C60E0C3951040B2
:104B200003024BEDE0FF75F002A424D2F582E5F01C
:104B30003410F583E0FCA3E0FD75F002EFA4243807
:104B4000F582E5F03410F583E0FEA3E0C39DFFEEAF
:104B50009CAD07FC9010F6E070429010D1E0FB3362
:104B600095E0FAFEEB7802C333CE33CED8F9FFD30B
:104B7000ED9FEE6480F8EC6480984060E49BFFE475
:104B80009AFEEF7802C333CE33CED8F9FFC3ED9F40
:104B9000EE6480F8EC648098504280519010D1E02F
:104BA000FB3395E0FAFEEB7803C333CE33CED8F96E
:104BB000FFD3ED9FEE6480F8EC648098401EE49B88
:104BC000FFE49AFEEF7803C333CE33CED8F9FFC3A8
:104BD000ED9FEE6480F8EC6480984011900C60E0EA
:104BE000FF124C42900C60E004F0024B18900C60F5
:104BF000E0B510069011DAE004F0900C5FE0FD756E
:104C0000F008A4FF9011D9E0C39FE5F06480F87428
:104C10008098402DE4F0C2149011DFE004F0ED75AF
:104C2000F004A4FF9011DAE0C39FE5F06480F8740B
:104C30008098400DE49011DFF012AE30129847C218
:104C40001522900C61EFF0F9E0FF75F002A424D278
:104C5000F582E5F03410F583E0FCA3E0FD75F00289
:104C6000EFA42438F582E5F03410F583E0FEA3E0EC
:104C7000C39DFFEE9C900C62F0A3EFF0AF0112B861
:104C8000F0AD07AC06900C62E0FEA3E0FFD39DEC14
:104C90006480F8EE6480985014C3E49DFBE49CFAB1
:104CA000C3EF9BEA6480F8EE648098502F900C610B
:104CB000E0FF75F002A42438F582E5F03410F583A6
:104CC000E0FCA3E0FD75F002EFA424D2F582E5F04C
:104CD0003410F583ECF0A3EDF0024DB5ECA2E71330
:104CE000FEED13FF900C62E0FAA3E0FBD39FEE64AD
:104CF00080F8EA648098501CECA2E713FEED13FFE5
:104D0000C3E49FFFE49EFEC3EB9FEE6480F8EA6479
:104D10008098503E900C61E0FD75F002A424D2F51D
:104D200082E5F03410F583E0FAA3E0FBEAC313FE5A
:104D3000EB13FFC3EB9FFBEA9EFA75F002EDA42490
:104D400038F582E5F03410F583E0C313FEA3E013D9
:104D50008047900C61E0FD75F002A424D2F582E555
:104D6000F03410F583E0FAA3E0FBAE027803CEC383
:104D700013CE13D8F9FFC3EB9FFBEA9EFA75F0023E
:104D8000EDA42438F582E5F03410F583E0FEA3E0CD
:104D90007803CEC313CE13D8F92BFFEA3EFE900C56
:104DA00061E075F002A424D2F582E5F03410F583B9
:104DB000EEF0A3EFF0900C61E0FF75F002A424D2B6
:104DC000F582E5F03410F583E0FCA3E0FD75F00218
:104DD000EFA42438F582E5F03410F583ECF0A3ED70
:104DE000F02290052AE0FF7E00700504F0A3F02277
:104DF000EF64014E702612202F6003024F741220C0
:104E00007A4003024F74EE75F004A42424F974C3AD
:104E100035F0FA7BFF12A1E91221312290052AE038
:104E2000640370087402F07F4202B7C290052AE062
:104E30006402701F12B02FEF3395E0FEBEFF11BF6A
:104E4000FF0E90052A7404122374E490052DF022BD
:104E5000024ED590052AE064046003024EDF129CE6
:104E60008690067BE0FB7A00641270507405122273
:104E70001D9000D1F0A3F0FFEFC3943274809480B2
:104E80005036EF25E025E02400F582E43400F58378
:104E900074FFF0A3F0EF25E025E02402F582E4346E
:104EA00000F583E4F0EF25E025E02403F582E43407
:104EB00000F583E4F00F80C01222E322EB64134A72
:104EC0006003024F7490052D1222295008E004124D
:104ED000237402AF9B90052A7408F07D34804E90B5
:104EE000052AE06405701890052C12203E4003024C
:104EF0004F7412AC21740612221D9000D3F0229040
:104F0000052AE06406702B90052C12203E50651295
:104F1000621812AED812AEAF12B5EC90052A740723
:104F20001222209000D5F09000D4F07D327F420212
:104F3000B72690052AE0FF7E006407701090052CCC
:104F4000E0FD14F0C3ED1220445029800EEF6408F8
:104F50004E701690052C12203E5019E4900578F002
:104F60009011CBF0A312204F2290052AE064097023
:104F70000312B7EC2243CF1012B8F712B88112B95E
:104F80001A12B89312B69B43CF10E4901203F0A309
:104F9000F0A3F0A3F0E4900607F012B27D12B54240
:104FA00043CF107F147E0012B9A412B9AA9006074D
:104FB000E06401702B900609E0700520C302804A6E
:104FC000901206E004F07006901205E004F0D39011
:104FD0001206E0945E901205E09401404DE4802AB0
:104FE000D3900C43E0941712B5514024901204E082
:104FF00004F07006901203E004F0D3901204E094E1
:1050000002901203E094004007E490053DF0801AFE
:10501000900C43E004F0700312B54AC3900C43E0D7
:10502000941912B5515003024FA043CF1090053D83
:10503000E06003024F9512B86EC2C07F037E00127B
:10504000B9A4900546E06401702412B54343CF1023
:105050007F017E0012B9A4900C43E004F0700312AB
:10506000B54AC3900C43E0940A12B55140DFD39087
:105070000492E09400900491E09400400312B4D2B2
:10508000900493E06404701C12B5431250F1700355
:1050900012B54AC3900C43E09440900C42E0940156
:1050A00040E9801A12B5421250F1700312B54AC39A
:1050B000900C43E09480900C42E0940240E912B9D5
:1050C0008912B00B12B61612B9B912AB4E12B54214
:1050D000900C42E07004A3E06401601412B99540A2
:1050E0000A900C42E4F0A304F080E512AA0380E0E9
:1050F0002212B8B77F107E0012B9A443CF10900CD3
:1051000043E004F022900CCD1288C378D47C0C7D4F
:10511000017BFF7ABE79CA7E027F00121BE61288ED
:10512000DF900EDAF0A3F0900CCDE0FFA3E0900E3C
:10513000DCCFF0A3EFF0900EDAE0FEA3E0FF900CDE
:10514000D2E0FCA3E0FDD39FEC9E40EA900EDCE0B1
:105150005401FEA3E0FF900ED6EEF0A3EFF0900E08
:10516000DBE02400FB900EDAE03402CBC39FFFEBC0
:105170009EFED3ED9FEC9E40741288E74E600612AF
:10518000887F1252861288D21288E7C3E49FFF7488
:10519000021288FA501E12889B7006900ED8E00406
:1051A000F01288F0900ED5E004F07006900ED4E076
:1051B00004F080D4125258900EE312888E12A65634
:1051C0001288E7C3E49FFF74029EFE900EDBE02F7F
:1051D000F0900EDAE03EF0900EDDE02FF0900EDC65
:1051E000E03EF07F057E0012B3520251361288E78E
:1051F000C312887F1252861288D2900EDAE0FEA384
:10520000E0FFC3900CD3E09FFF900CD2E01288FA2D
:10521000501E12889B7006900ED8E004F01288F0A1
:10522000900ED5E004F07006900ED4E004F080CA31
:105230001252587B017A0C79D4900EE312889412A2
:10524000A656900CD2E0FFA3E0900EDACFF0A3EFC9
:10525000F07F057E0002B352900ED6E0FEA3E0FF81
:10526000C3900EDDE09FFF900EDCE09EFE129F9843
:10527000900ED6E0FEA3E0FFC3900EDDE09FFF900E
:105280000EDCE09EFE2212A1137F017E0012B352BB
:10529000229001F4E0FF7E007004741EF022EF649F
:1052A0001E4E700B741F127B1212B45A0253AC9034
:1052B00001F4E0641F7034127B0B701C900609E04F
:1052C00070099001F47420F002AF9B900609E0642D
:1052D0000270028011E4800E9001F1127AD79400DE
:1052E000400302540DE49001F4F0229001F4E064D4
:1052F00026700B7427127B1512B29C0253AC9001DE
:10530000F4E064277049127B0B7031900609E0705D
:10531000257B017A0579F312A07FEF3395E04F905A
:1053200001F470097420F09001F10253DF7429F048
:10533000A3742B025403127B2A0254039001F1122E
:105340007AD79400400302540D127B2A0254039032
:1053500001F4E06420700C7421127B157F0112A30C
:105360000480499001F4E0FF7E0064217029127BE3
:105370000B7015900609E09001F470047424F0227B
:105380007429F0A37406807B9001F1127B6F940066
:10539000507B127B2A806CEF64244E7016742512A9
:1053A0007B127B32FAFDFC7F011299149001F112FD
:1053B0007B81229001F4E064257052127B0B7036E1
:1053C000900609E0FF7E00701A9001F47428F090B6
:1053D00005E5E0FDA3E09001EFCDF0A3EDF0A31211
:1053E0007B2222EF64174E9001F47002F0227429A0
:1053F000F0A37408800D9001F1127AD79400500D3B
:10540000127B2AF09001F1E4F0A374C0F022900C1A
:105410005CEB121696121985786E7C0C7ABE796B4D
:105420007F471219DEE4900CB5F0A3F01218D29069
:105430000CBA121695900C61E0FFA3E0900CBDCF62
:10544000F0A3EFF0900C631218D5900CBF121695D4
:10545000900C66E0FFA3E0900CC21217F61273588E
:10546000EF7002FF221217FB1264571217FB1294FF
:10547000E21217FB12743F1217FB126FA01217FBF8
:10548000129017EF7002FF221217FB1259821218A6
:10549000D2900CBA121695900C5FE0FFA3E0900C2E
:1054A000BDCFF0A3EFF0900C61E0FFA3E0900CBF44
:1054B0001217F61234FD900C68121742603DA312C9
:1054C00017426037900C80E0FF900C68121569E479
:1054D0008FF0121DB2900C80E0B40713900C85E0A1
:1054E000F9A3E0FF900C6B121A64C98FF080099049
:1054F0000C6B121569E4F5F0121DB2900C80E0B44B
:105500000619900C7EE07004A3E06401707312171A
:10551000FB1219CE7D061239F08066900C80E06493
:1055200007705E900C7EE07004A3E06401700B12C3
:1055300017FB1219CE7D071239F0900C5FE0FEA325
:10554000E0FF129302900CB5EEF0A3EFF0C3900CC5
:1055500086E09F900C85E09E5027900CB6E094E783
:10556000900CB5E094034012E4F0A3F0900C5FE0DF
:10557000FCA3E0FDE4FFFE127883E4900C7EF0A330
:10558000F0900C7EA3E0FF22F9121C25FF900C4541
:10559000E0FBA3E0FAA3E0F922EFFD7C00E92DF99E
:1055A000EC3AFA900C49E0FCA3E029F9EA3CFA1243
:1055B0001C0CFEEFC313FD900C48E075F008A4240A
:1055C00096F582E43405F583E58222EF75F008A4B0
:1055D000249CF582E43405F58374FFF0EF75F00840
:1055E000A42495F582E43405F583227A0C79457B71
:1055F00001900EE3E4F0A304F022EF75F008A42478
:105600009CF582E43405F58322E4901142F07404A1
:10561000901141F0900578222DF582E43583F583D1
:10562000227B017A057995E4F0A322EEC3940A74F3
:1056300080948022EBF0A3EAF0A3E9F0227B0190B2
:105640000CD2E4F0A304F022E4901142F074039031
:105650001141F090057822EEC39406748094802264
:10566000900000E0FEA3E0FF021C98E0D3940074D9
:1056700080948022900C49E0FAA3E0FB7C007D023C
:10568000FFAE02021CEDEFC394027480948022E00E
:10569000FDC4540F75F00AA422900C46E0FF339528
:1056A000E0FE22900C48E0FBA3E0FAA3E022901178
:1056B0003CE0FEA3E0FF7C007D0A22EFF07E00C309
:1056C00094097480948022EC04FF12B4A2EF339505
:1056D000E04F2290113FE0FF90113EE09F222FF516
:1056E00082E5833EF583E0221222A4700A9000CF67
:1056F000F090083604F022EF64014E701312920B02
:1057000012A8E3E4900837F090083674020257B606
:10571000900836122202700F1220D640030258372A
:105720009008367403F022EF64034E7064128CFB11
:105730009000CFE06402703E900607F07F0112A255
:10574000BEE4900C44F0900C44E0C394197480942F
:105750008050177F0A7E0012B9A412B9AA1222F94A
:105760006008900C44E004F080DCE4900838F0908D
:105770000836740480409000CFE064036003025850
:105780003790083874FFF0740412217B7F070258A9
:10579000341222A46404700F1220D640030258373A
:1057A0009008367405F022EF64054E7010900839A9
:1057B000F0900836740612217E7F0280771222A4B0
:1057C0006406700C1220D6506E9008367407F022D2
:1057D000EF64074E700D90083AF0740812217B7F39
:1057E0000280511222A46408700E1220D6504890F4
:1057F0000836740912217E22EF64094E7039900830
:105800003B74FFF5F0121D231221D6502A9000DBC5
:10581000E06004640170187F7412B7C29000DA74FB
:10582000FFF09000DC7480F09005787422F0221272
:10583000204B7F0612AD482290112CE004F0D39447
:105840003F74809480404F90113BE06401F0E490FD
:10585000112CF020C229900578E070239001EB1202
:10586000212ABEFF12BFFF0FE4F07F0112AD489066
:1058700001EB74FFF080057F0112AD4812AF9B90E1
:1058800001F3E01220F1400EE004F0E06404700641
:10589000F07F01128E9490112CE0541F700790112C
:1058A00044E06401F0900617E01220F14003E01498
:1058B000F0900763E01220F14003E014F030C141A2
:1058C0001223BA900C42E0C3946474809480501800
:1058D0007F027E0012B36E30C106900C43E004F0EC
:1058E000900C42E004F080DB900C43E0D3945A74B7
:1058F0008094804042900477122032703AA3F08066
:10590000361223BA900C42E01221E550187F017E36
:105910000012B36E20C106900C43E004F0900C42DC
:10592000E004F080DF900C43E0D39408748094800E
:105930004005E4900477F0900478122032703D9096
:105940000578E0FF642C6034EF6421602FEF641C65
:10595000602AEF641A6025900659122032701D905B
:105960000578742CF090047914F0A374F212204F8F
:105970007F147E0012B9A47F04128E9412010002DB
:10598000726F900CB7EB121696E4A3F0A3F0FFFE33
:1059900012198CA3EFF07F007E0012198C7E037F1A
:1059A000E81216F9A3EFF07C037DE87F007E001279
:1059B0001C987F641216F7A3EFF07C007D647F00D3
:1059C0007E001216F2A3EFF07F007E00121A6CAC7C
:1059D00005E4A3F0FF900CB7121742700122900C5F
:1059E000B712156912197F25E0FFE5F033FE74A3A5
:1059F0002FF58274BD3EF583E493FF740193900C00
:105A0000BACFF0A3EFF07F01EFD3940674809480B7
:105A10005022900CBCE06F6018A3E06F6013A3E00D
:105A20006F600EA3E06F6009EF6C6005A3EFF0807C
:105A3000030F80D4900CB7121569900001121C2539
:105A4000900CBC121838121569121A05900CBD1270
:105A500018381215691218B8FF900CBE12183912B6
:105A600015691219E7900CBF1218391215699000C8
:105A700004EF121C64121959FFAD0412183B1215E1
:105A8000691218A0FF900CC0121839121569900005
:105A900006EF121C6412193BFFAE04AD06121A2A5F
:105AA000121569900007EF121C64121952900CBF76
:105AB000121A271215691218C5900CBE121A271255
:105AC0001569900009121AFE22900C4FEEF0A3EF18
:105AD000F0E4FFEFC3940D748094804003025C0CEB
:105AE000E4FEEF25E02486F582E43411F583E0FC42
:105AF000A3E0FD900C4FE05CFCA3E05DD39400ECD0
:105B0000940040010EEFB40D004003025C08905B6E
:105B100015F8282873025B3C025B4D025B5E025B5A
:105B20006F025B80025B8F025B9E025BAD025BBC1F
:105B3000025BCB025BDA025BE9025BF8EE6008E431
:105B40009011B9F0025C089011B9025C05EE600892
:105B5000E49011BAF0025C089011BA025C05EE60A4
:105B600008E49011BBF0025C089011BB025C05EEEA
:105B70006008E49011BCF0025C089011BC025C0566
:105B8000EE6007E49011BDF0807E9011BD8076EE4E
:105B90006007E49011BEF0806F9011BE8067EE60E8
:105BA00007E49011BFF080609011BF8058EE60074D
:105BB000E49011C0F080519011C08049EE6007E47C
:105BC0009011C1F080429011C1803AEE6007E490DC
:105BD00011C2F080339011C2802BEE6007E4901167
:105BE000C4F080249011C4801CEE6007E49011C3BF
:105BF000F080159011C3800DEE6007E49011C9F09C
:105C000080069011C974FFF00F025AD32212900F30
:105C100064017026D3900533E09400900532E0943F
:105C200000400AA3E024FFF09005328069128FD86B
:105C3000402A90053C7403F08069EF64034E701EA7
:105C4000128FD8400AA3E024FFF090053680471257
:105C50008FE6400890053C7402F080478040129027
:105C60000F6402701E128FE6400AA3E024FFF0903A
:105C700005348022128FF4400890053C7404F080B3
:105C800022801BEF64044E7015128FF4400EA3E0C7
:105C900024FFF0900538E034FFF080078000E490A6
:105CA000053CF090053CE064027035C2C790053BAE
:105CB000128FCF7028900C42F0A3F0128FC05014B6
:105CC000D2C612B84EC2C6125D3670EF900C42E0DA
:105CD00004F080E790053B74FFF0D2C622D2C622C2
:105CE00090053CE064017035C2C690053A128FCF32
:105CF0007028900C42F0A3F0128FC05014D2C7123B
:105D0000B84EC2C7125D3670EF900C42E004F080CE
:105D1000E790053A74FFF0D2C722D2C72212900F43
:105D2000640370028006EF64044E7005D2C7D2C6C9
:105D300022C2C7C2C622900C42E0FEA3E0FFC37499
:105D4000C89FFFE49EFE12B84E900C43E004F02280
:105D5000900CB9EEF0A3EFF04E7003025E8E90113E
:105D6000E4E07002A3E07003025E8E900CB9E0FEE6
:105D7000A3E024FCFFEE34FFFEA37411F0A374E251
:105D8000F0900CBBE0FCA3E0F5828C83E0FCA3E088
:105D9000FD900CBDECF0A3EDF04C6020900CB9E050
:105DA000FCA3E0FD900CBDE0FAA3E0FBD39DEA9CD0
:105DB000500A900CBBEAF0A3EBF080C5900CBDE05C
:105DC0007002A3E0604D8F828E83A3A3E0FCA3E06A
:105DD000FD900CBAE02DFD900CB9E03CFC900CBDA0
:105DE000E0FAA3E0FB6D7002EA6C70278B828A8375
:105DF000A3A3E0FCA3E02404FDE43C8F828E83A3F4
:105E0000A38DF0121D23900CBDE0FCA3E0F5828C65
:105E1000838003900CBDE0FDA3E08F828E83CDF0E4
:105E2000A3EDF0900CBBE0FCA3E0FDF5828C83A316
:105E3000A3E0FAA3E0FBED2BFDEC3AFCED2404FD1E
:105E4000E43CFCED6F7002EC6E70338F828E83A3A6
:105E5000A3E0FCA3E02404FDE43CFC900CBBE0FACE
:105E6000A3E0FBF5828A83A3A3EC8DF0121D238FA0
:105E7000828E83E0FFA3E08B828A83CF800C900C1C
:105E8000BBE0FCA3E0F5828C83EEF0A3EFF0229060
:105E90000549E0FF7E0064077003025FC0EF6408FD
:105EA00070047409F022EF64094E6003025FC09031
:105EB0001157E064026003025FAB12B2F9EF339551
:105EC000E04F706C901145E064017039A3E064010B
:105ED0007033A3E06401702DA3E064017027A3E098
:105EE00064017021A3E06401701BA3E064017015DC
:105EF00090114DE06401700DA3E0640170079005FE
:105F000049740CF022901145E064017021A3E06413
:105F100003705DA3E064057057A3E06407705190BF
:105F20001156E064047049900549740DF0228074A4
:105F30007B017A11794512656F900557EFF0600C7F
:105F4000900549740AF0E49000F0F022901156E0B8
